{
  "contractName": "Asteroid153814",
  "abi": [
    {
      "inputs": [
        {
          "internalType": "contract ERC20PresetMinterPauser",
          "name": "inputResource",
          "type": "address"
        },
        {
          "internalType": "contract ERC20PresetMinterPauser",
          "name": "outputResource",
          "type": "address"
        },
        {
          "internalType": "contract MineEmpireDrill",
          "name": "_drill",
          "type": "address"
        }
      ],
      "stateMutability": "nonpayable",
      "type": "constructor"
    },
    {
      "anonymous": false,
      "inputs": [
        {
          "indexed": false,
          "internalType": "uint256",
          "name": "_amountMinted",
          "type": "uint256"
        }
      ],
      "name": "LogRefinement",
      "type": "event"
    },
    {
      "anonymous": false,
      "inputs": [
        {
          "indexed": false,
          "internalType": "uint256",
          "name": "_newLevel",
          "type": "uint256"
        }
      ],
      "name": "LogRefinerUpgraded",
      "type": "event"
    },
    {
      "inputs": [],
      "name": "A153814Rock",
      "outputs": [
        {
          "internalType": "contract ERC20PresetMinterPauser",
          "name": "",
          "type": "address"
        }
      ],
      "stateMutability": "view",
      "type": "function"
    },
    {
      "inputs": [],
      "name": "baseProduction",
      "outputs": [
        {
          "internalType": "uint256",
          "name": "",
          "type": "uint256"
        }
      ],
      "stateMutability": "view",
      "type": "function"
    },
    {
      "inputs": [],
      "name": "drill",
      "outputs": [
        {
          "internalType": "contract MineEmpireDrill",
          "name": "",
          "type": "address"
        }
      ],
      "stateMutability": "view",
      "type": "function"
    },
    {
      "inputs": [],
      "name": "gold",
      "outputs": [
        {
          "internalType": "contract ERC20PresetMinterPauser",
          "name": "",
          "type": "address"
        }
      ],
      "stateMutability": "view",
      "type": "function"
    },
    {
      "inputs": [
        {
          "internalType": "address",
          "name": "",
          "type": "address"
        }
      ],
      "name": "lastRefined",
      "outputs": [
        {
          "internalType": "uint256",
          "name": "",
          "type": "uint256"
        }
      ],
      "stateMutability": "view",
      "type": "function"
    },
    {
      "inputs": [],
      "name": "owner",
      "outputs": [
        {
          "internalType": "address",
          "name": "",
          "type": "address"
        }
      ],
      "stateMutability": "view",
      "type": "function"
    },
    {
      "inputs": [],
      "name": "refinerCapacity",
      "outputs": [
        {
          "internalType": "uint256",
          "name": "",
          "type": "uint256"
        }
      ],
      "stateMutability": "view",
      "type": "function"
    },
    {
      "inputs": [
        {
          "internalType": "address",
          "name": "",
          "type": "address"
        }
      ],
      "name": "refinerLevel",
      "outputs": [
        {
          "internalType": "uint256",
          "name": "",
          "type": "uint256"
        }
      ],
      "stateMutability": "view",
      "type": "function"
    },
    {
      "inputs": [
        {
          "internalType": "address",
          "name": "",
          "type": "address"
        }
      ],
      "name": "stakes",
      "outputs": [
        {
          "components": [
            {
              "internalType": "uint256",
              "name": "drillId",
              "type": "uint256"
            },
            {
              "internalType": "string",
              "name": "name",
              "type": "string"
            },
            {
              "internalType": "uint256",
              "name": "drillType",
              "type": "uint256"
            },
            {
              "internalType": "uint256",
              "name": "miningLevel",
              "type": "uint256"
            },
            {
              "internalType": "uint256",
              "name": "capacityLevel",
              "type": "uint256"
            }
          ],
          "internalType": "struct MineEmpireDrill.Drill",
          "name": "drill",
          "type": "tuple"
        },
        {
          "internalType": "uint256",
          "name": "timestamp",
          "type": "uint256"
        }
      ],
      "stateMutability": "view",
      "type": "function"
    },
    {
      "inputs": [
        {
          "internalType": "address",
          "name": "operator",
          "type": "address"
        },
        {
          "internalType": "address",
          "name": "from",
          "type": "address"
        },
        {
          "internalType": "uint256",
          "name": "id",
          "type": "uint256"
        },
        {
          "internalType": "bytes",
          "name": "data",
          "type": "bytes"
        }
      ],
      "name": "onERC721Received",
      "outputs": [
        {
          "internalType": "bytes4",
          "name": "",
          "type": "bytes4"
        }
      ],
      "stateMutability": "pure",
      "type": "function"
    },
    {
      "inputs": [
        {
          "internalType": "uint256",
          "name": "_cap",
          "type": "uint256"
        }
      ],
      "name": "setRefinerCapacity",
      "outputs": [],
      "stateMutability": "nonpayable",
      "type": "function"
    },
    {
      "inputs": [
        {
          "internalType": "uint256[]",
          "name": "newEfficiencyList",
          "type": "uint256[]"
        }
      ],
      "name": "updateRefinerEfficiency",
      "outputs": [],
      "stateMutability": "nonpayable",
      "type": "function"
    },
    {
      "inputs": [
        {
          "internalType": "uint256[]",
          "name": "newRefinerUpgradeRequirements",
          "type": "uint256[]"
        }
      ],
      "name": "updateRefinerUpgradeRequirements",
      "outputs": [],
      "stateMutability": "nonpayable",
      "type": "function"
    },
    {
      "inputs": [
        {
          "internalType": "uint256",
          "name": "newLevel",
          "type": "uint256"
        }
      ],
      "name": "updateMaxRefinerLevel",
      "outputs": [],
      "stateMutability": "nonpayable",
      "type": "function"
    },
    {
      "inputs": [
        {
          "internalType": "uint256",
          "name": "_drillId",
          "type": "uint256"
        }
      ],
      "name": "stake",
      "outputs": [],
      "stateMutability": "nonpayable",
      "type": "function"
    },
    {
      "inputs": [],
      "name": "unstake",
      "outputs": [],
      "stateMutability": "nonpayable",
      "type": "function"
    },
    {
      "inputs": [],
      "name": "collectResources",
      "outputs": [],
      "stateMutability": "nonpayable",
      "type": "function"
    },
    {
      "inputs": [
        {
          "internalType": "uint256",
          "name": "_amount",
          "type": "uint256"
        }
      ],
      "name": "refine",
      "outputs": [],
      "stateMutability": "nonpayable",
      "type": "function"
    },
    {
      "inputs": [],
      "name": "upgradeRefiner",
      "outputs": [],
      "stateMutability": "nonpayable",
      "type": "function"
    },
    {
      "inputs": [
        {
          "internalType": "address",
          "name": "_address",
          "type": "address"
        }
      ],
      "name": "getStake",
      "outputs": [
        {
          "components": [
            {
              "components": [
                {
                  "internalType": "uint256",
                  "name": "drillId",
                  "type": "uint256"
                },
                {
                  "internalType": "string",
                  "name": "name",
                  "type": "string"
                },
                {
                  "internalType": "uint256",
                  "name": "drillType",
                  "type": "uint256"
                },
                {
                  "internalType": "uint256",
                  "name": "miningLevel",
                  "type": "uint256"
                },
                {
                  "internalType": "uint256",
                  "name": "capacityLevel",
                  "type": "uint256"
                }
              ],
              "internalType": "struct MineEmpireDrill.Drill",
              "name": "drill",
              "type": "tuple"
            },
            {
              "internalType": "uint256",
              "name": "timestamp",
              "type": "uint256"
            }
          ],
          "internalType": "struct Asteroid153814.Stake",
          "name": "",
          "type": "tuple"
        }
      ],
      "stateMutability": "view",
      "type": "function"
    },
    {
      "inputs": [],
      "name": "getAccumulatedRocks",
      "outputs": [
        {
          "internalType": "uint256",
          "name": "",
          "type": "uint256"
        }
      ],
      "stateMutability": "view",
      "type": "function"
    },
    {
      "inputs": [],
      "name": "getBaseProduction",
      "outputs": [
        {
          "internalType": "uint256",
          "name": "",
          "type": "uint256"
        }
      ],
      "stateMutability": "view",
      "type": "function"
    },
    {
      "inputs": [],
      "name": "getRefinerCapacity",
      "outputs": [
        {
          "internalType": "uint256",
          "name": "",
          "type": "uint256"
        }
      ],
      "stateMutability": "view",
      "type": "function"
    },
    {
      "inputs": [],
      "name": "getRefinerUpgradeRequirement",
      "outputs": [
        {
          "internalType": "uint256",
          "name": "",
          "type": "uint256"
        }
      ],
      "stateMutability": "view",
      "type": "function"
    }
  ],
  "bytecode": "0x60806040523480156200001157600080fd5b50604051620030c5380380620030c5833981810160405281019062000037919062000433565b33600360006101000a81548173ffffffffffffffffffffffffffffffffffffffff021916908373ffffffffffffffffffffffffffffffffffffffff160217905550662386f26fc1000060048190555069021e19e0c9bab240000060058190555082600160006101000a81548173ffffffffffffffffffffffffffffffffffffffff021916908373ffffffffffffffffffffffffffffffffffffffff16021790555081600260006101000a81548173ffffffffffffffffffffffffffffffffffffffff021916908373ffffffffffffffffffffffffffffffffffffffff160217905550806000806101000a81548173ffffffffffffffffffffffffffffffffffffffff021916908373ffffffffffffffffffffffffffffffffffffffff160217905550604051806101000160405280603260ff168152602001603760ff168152602001603d60ff168152602001604360ff168152602001604960ff168152602001605060ff168152602001605860ff168152602001606460ff168152506006906008620001c59291906200029a565b506040518060c0016040528068d8d726b7177a80000069ffffffffffffffffffff16815260200169010f0cf064dd5920000069ffffffffffffffffffff16815260200169014542ba12a337c0000069ffffffffffffffffffff16815260200169017b7883c0691660000069ffffffffffffffffffff1681526020016901b1ae4d6e2ef500000069ffffffffffffffffffff16815260200169021e19e0c9bab240000069ffffffffffffffffffff16815250600790600662000288929190620002f1565b5060076008819055505050506200048f565b828054828255906000526020600020908101928215620002de579160200282015b82811115620002dd578251829060ff16905591602001919060010190620002bb565b5b509050620002ed919062000351565b5090565b8280548282559060005260206000209081019282156200033e579160200282015b828111156200033d578251829069ffffffffffffffffffff1690559160200191906001019062000312565b5b5090506200034d919062000351565b5090565b5b808211156200036c57600081600090555060010162000352565b5090565b600080fd5b600073ffffffffffffffffffffffffffffffffffffffff82169050919050565b6000620003a28262000375565b9050919050565b6000620003b68262000395565b9050919050565b620003c881620003a9565b8114620003d457600080fd5b50565b600081519050620003e881620003bd565b92915050565b6000620003fb8262000395565b9050919050565b6200040d81620003ee565b81146200041957600080fd5b50565b6000815190506200042d8162000402565b92915050565b6000806000606084860312156200044f576200044e62000370565b5b60006200045f86828701620003d7565b93505060206200047286828701620003d7565b925050604062000485868287016200041c565b9150509250925092565b612c26806200049f6000396000f3fe608060405234801561001057600080fd5b50600436106101585760003560e01c8063525d9de0116100c3578063a694fc3a1161007c578063a694fc3a146103a4578063b3e73f18146103c0578063d509864b146103de578063f60a9250146103fa578063fbec6f2114610418578063ff8b69781461043657610158565b8063525d9de0146102e057806354c1ab11146102fe578063678121ac1461031c5780637a7664601461033a5780638da5cb5b1461036a5780639880b4aa1461038857610158565b80633807e3e0116101155780633807e3e01461022057806339b341eb1461023c5780633bbfe1411461026c5780633dc02b9e146102765780634021dfee146102945780634594229c146102c457610158565b80630eb099911461015d578063144365831461017b578063150b7a021461019757806316934fc4146101c75780632def6620146101f85780633104d1fc14610202575b600080fd5b610165610440565b6040516101729190611d37565b60405180910390f35b61019560048036038101906101909190611eeb565b6104c4565b005b6101b160048036038101906101ac9190611fed565b6105b9565b6040516101be91906120b0565b60405180910390f35b6101e160048036038101906101dc91906120cb565b6105e7565b6040516101ef929190612205565b60405180910390f35b6102006106cf565b005b61020a6108ab565b6040516102179190611d37565b60405180910390f35b61023a60048036038101906102359190612235565b6108b1565b005b610256600480360381019061025191906120cb565b610917565b6040516102639190611d37565b60405180910390f35b61027461092f565b005b61027e610cc9565b60405161028b9190611d37565b60405180910390f35b6102ae60048036038101906102a991906120cb565b610cd3565b6040516102bb9190611d37565b60405180910390f35b6102de60048036038101906102d99190612235565b610ceb565b005b6102e861103a565b6040516102f591906122c1565b60405180910390f35b61030661105e565b6040516103139190611d37565b60405180910390f35b610324611068565b60405161033191906122fd565b60405180910390f35b610354600480360381019061034f91906120cb565b61108e565b60405161036191906123cb565b60405180910390f35b6103726111bf565b60405161037f91906123fc565b60405180910390f35b6103a2600480360381019061039d9190612235565b6111e5565b005b6103be60048036038101906103b99190612235565b61124b565b005b6103c86114b1565b6040516103d59190611d37565b60405180910390f35b6103f860048036038101906103f39190611eeb565b6114b7565b005b6104026115ac565b60405161040f9190611d37565b60405180910390f35b6104206118fa565b60405161042d91906122fd565b60405180910390f35b61043e611920565b005b600080600a60003373ffffffffffffffffffffffffffffffffffffffff1673ffffffffffffffffffffffffffffffffffffffff168152602001908152602001600020549050600081141561049357600190505b60076001826104a29190612446565b815481106104b3576104b261247a565b5b906000526020600020015491505090565b33600360009054906101000a900473ffffffffffffffffffffffffffffffffffffffff1673ffffffffffffffffffffffffffffffffffffffff168173ffffffffffffffffffffffffffffffffffffffff161461051f57600080fd5b60005b60085481101561059d5760008382815181106105415761054061247a565b5b6020026020010151141561058a576040517f08c379a00000000000000000000000000000000000000000000000000000000081526004016105819061252c565b60405180910390fd5b80806105959061254c565b915050610522565b5081600790805190602001906105b4929190611b9f565b505050565b60007f150b7a023d4804d13e8c85fb27262cb750cf6ba9f9dd3bb30d90f482ceeb4b1f905095945050505050565b6009602052806000526040600020600091509050806000016040518060a001604052908160008201548152602001600182018054610624906125c4565b80601f0160208091040260200160405190810160405280929190818152602001828054610650906125c4565b801561069d5780601f106106725761010080835404028352916020019161069d565b820191906000526020600020905b81548152906001019060200180831161068057829003601f168201915b505050505081526020016002820154815260200160038201548152602001600482015481525050908060050154905082565b6000600960003373ffffffffffffffffffffffffffffffffffffffff1673ffffffffffffffffffffffffffffffffffffffff1681526020019081526020016000206005015411610754576040517f08c379a000000000000000000000000000000000000000000000000000000000815260040161074b90612642565b60405180910390fd5b60008054906101000a900473ffffffffffffffffffffffffffffffffffffffff1673ffffffffffffffffffffffffffffffffffffffff166342842e0e3033600960003373ffffffffffffffffffffffffffffffffffffffff1673ffffffffffffffffffffffffffffffffffffffff168152602001908152602001600020600001600001546040518463ffffffff1660e01b81526004016107f693929190612662565b600060405180830381600087803b15801561081057600080fd5b505af1158015610824573d6000803e3d6000fd5b50505050600960003373ffffffffffffffffffffffffffffffffffffffff1673ffffffffffffffffffffffffffffffffffffffff16815260200190815260200160002060008082016000808201600090556001820160006108859190611bec565b600282016000905560038201600090556004820160009055505060058201600090555050565b60045481565b33600360009054906101000a900473ffffffffffffffffffffffffffffffffffffffff1673ffffffffffffffffffffffffffffffffffffffff168173ffffffffffffffffffffffffffffffffffffffff161461090c57600080fd5b816008819055505050565b600b6020528060005260406000206000915090505481565b6000600960003373ffffffffffffffffffffffffffffffffffffffff1673ffffffffffffffffffffffffffffffffffffffff168152602001908152602001600020604051806040016040529081600082016040518060a0016040529081600082015481526020016001820180546109a5906125c4565b80601f01602080910402602001604051908101604052809291908181526020018280546109d1906125c4565b8015610a1e5780601f106109f357610100808354040283529160200191610a1e565b820191906000526020600020905b815481529060010190602001808311610a0157829003601f168201915b5050505050815260200160028201548152602001600382015481526020016004820154815250508152602001600582015481525050905060008060009054906101000a900473ffffffffffffffffffffffffffffffffffffffff1673ffffffffffffffffffffffffffffffffffffffff1663a475949f8360000151600001516040518263ffffffff1660e01b8152600401610ab99190611d37565b602060405180830381865afa158015610ad6573d6000803e3d6000fd5b505050506040513d601f19601f82011682018060405250810190610afa91906126ae565b905060008060009054906101000a900473ffffffffffffffffffffffffffffffffffffffff1673ffffffffffffffffffffffffffffffffffffffff16639cb816898460000151600001516040518263ffffffff1660e01b8152600401610b609190611d37565b602060405180830381865afa158015610b7d573d6000803e3d6000fd5b505050506040513d601f19601f82011682018060405250810190610ba191906126ae565b90506000836020015142610bb59190612446565b9050600083606460045484610bca91906126db565b610bd49190612764565b610bde91906126db565b905080831015610bec578290505b600160009054906101000a900473ffffffffffffffffffffffffffffffffffffffff1673ffffffffffffffffffffffffffffffffffffffff166340c10f1933836040518363ffffffff1660e01b8152600401610c49929190612795565b600060405180830381600087803b158015610c6357600080fd5b505af1158015610c77573d6000803e3d6000fd5b5050505042600960003373ffffffffffffffffffffffffffffffffffffffff1673ffffffffffffffffffffffffffffffffffffffff168152602001908152602001600020600501819055505050505050565b6000600554905090565b600a6020528060005260406000206000915090505481565b6000600b60003373ffffffffffffffffffffffffffffffffffffffff1673ffffffffffffffffffffffffffffffffffffffff1681526020019081526020016000205442610d389190612446565b905062015180811115610d4c576201518090505b620d2f0081600554610d5e91906126db565b610d689190612764565b821115610daa576040517f08c379a0000000000000000000000000000000000000000000000000000000008152600401610da190612830565b60405180910390fd5b600160009054906101000a900473ffffffffffffffffffffffffffffffffffffffff1673ffffffffffffffffffffffffffffffffffffffff166323b872dd3330856040518463ffffffff1660e01b8152600401610e0993929190612662565b6020604051808303816000875af1158015610e28573d6000803e3d6000fd5b505050506040513d601f19601f82011682018060405250810190610e4c9190612888565b506000600a60003373ffffffffffffffffffffffffffffffffffffffff1673ffffffffffffffffffffffffffffffffffffffff1681526020019081526020016000205490506000811415610ee4576001600a60003373ffffffffffffffffffffffffffffffffffffffff1673ffffffffffffffffffffffffffffffffffffffff16815260200190815260200160002081905550600190505b600060646006600184610ef79190612446565b81548110610f0857610f0761247a565b5b906000526020600020015485610f1e91906126db565b610f289190612764565b9050600260009054906101000a900473ffffffffffffffffffffffffffffffffffffffff1673ffffffffffffffffffffffffffffffffffffffff166340c10f1933836040518363ffffffff1660e01b8152600401610f87929190612795565b600060405180830381600087803b158015610fa157600080fd5b505af1158015610fb5573d6000803e3d6000fd5b5050505042600b60003373ffffffffffffffffffffffffffffffffffffffff1673ffffffffffffffffffffffffffffffffffffffff168152602001908152602001600020819055507f99d151b9884078467a25f18f375b619ab3b095f2295ed5b074e1bc48c4183b888160405161102c9190611d37565b60405180910390a150505050565b60008054906101000a900473ffffffffffffffffffffffffffffffffffffffff1681565b6000600454905090565b600160009054906101000a900473ffffffffffffffffffffffffffffffffffffffff1681565b611096611c2c565b600960008373ffffffffffffffffffffffffffffffffffffffff1673ffffffffffffffffffffffffffffffffffffffff168152602001908152602001600020604051806040016040529081600082016040518060a00160405290816000820154815260200160018201805461110a906125c4565b80601f0160208091040260200160405190810160405280929190818152602001828054611136906125c4565b80156111835780601f1061115857610100808354040283529160200191611183565b820191906000526020600020905b81548152906001019060200180831161116657829003601f168201915b50505050508152602001600282015481526020016003820154815260200160048201548152505081526020016005820154815250509050919050565b600360009054906101000a900473ffffffffffffffffffffffffffffffffffffffff1681565b33600360009054906101000a900473ffffffffffffffffffffffffffffffffffffffff1673ffffffffffffffffffffffffffffffffffffffff168173ffffffffffffffffffffffffffffffffffffffff161461124057600080fd5b816005819055505050565b6000600960003373ffffffffffffffffffffffffffffffffffffffff1673ffffffffffffffffffffffffffffffffffffffff16815260200190815260200160002060050154146112d0576040517f08c379a00000000000000000000000000000000000000000000000000000000081526004016112c790612901565b60405180910390fd5b60008054906101000a900473ffffffffffffffffffffffffffffffffffffffff1673ffffffffffffffffffffffffffffffffffffffff166342842e0e3330846040518463ffffffff1660e01b815260040161132d93929190612662565b600060405180830381600087803b15801561134757600080fd5b505af115801561135b573d6000803e3d6000fd5b50505050604051806040016040528060008054906101000a900473ffffffffffffffffffffffffffffffffffffffff1673ffffffffffffffffffffffffffffffffffffffff1663a2843682846040518263ffffffff1660e01b81526004016113c39190611d37565b600060405180830381865afa1580156113e0573d6000803e3d6000fd5b505050506040513d6000823e3d601f19601f820116820180604052508101906114099190612a79565b815260200142815250600960003373ffffffffffffffffffffffffffffffffffffffff1673ffffffffffffffffffffffffffffffffffffffff168152602001908152602001600020600082015181600001600082015181600001556020820151816001019080519060200190611480929190611c4c565b5060408201518160020155606082015181600301556080820151816004015550506020820151816005015590505050565b60055481565b33600360009054906101000a900473ffffffffffffffffffffffffffffffffffffffff1673ffffffffffffffffffffffffffffffffffffffff168173ffffffffffffffffffffffffffffffffffffffff161461151257600080fd5b60005b6008548110156115905760008382815181106115345761153361247a565b5b6020026020010151141561157d576040517f08c379a00000000000000000000000000000000000000000000000000000000081526004016115749061252c565b60405180910390fd5b80806115889061254c565b915050611515565b5081600690805190602001906115a7929190611b9f565b505050565b600080600960003373ffffffffffffffffffffffffffffffffffffffff1673ffffffffffffffffffffffffffffffffffffffff1681526020019081526020016000206005015411611632576040517f08c379a000000000000000000000000000000000000000000000000000000000815260040161162990612b0e565b60405180910390fd5b6000600960003373ffffffffffffffffffffffffffffffffffffffff1673ffffffffffffffffffffffffffffffffffffffff168152602001908152602001600020604051806040016040529081600082016040518060a0016040529081600082015481526020016001820180546116a8906125c4565b80601f01602080910402602001604051908101604052809291908181526020018280546116d4906125c4565b80156117215780601f106116f657610100808354040283529160200191611721565b820191906000526020600020905b81548152906001019060200180831161170457829003601f168201915b50505050508152602001600282015481526020016003820154815260200160048201548152505081526020016005820154815250509050600081602001514261176a9190612446565b905060008060009054906101000a900473ffffffffffffffffffffffffffffffffffffffff1673ffffffffffffffffffffffffffffffffffffffff1663a475949f8460000151600001516040518263ffffffff1660e01b81526004016117d09190611d37565b602060405180830381865afa1580156117ed573d6000803e3d6000fd5b505050506040513d601f19601f8201168201806040525081019061181191906126ae565b905060008060009054906101000a900473ffffffffffffffffffffffffffffffffffffffff1673ffffffffffffffffffffffffffffffffffffffff16639cb816898560000151600001516040518263ffffffff1660e01b81526004016118779190611d37565b602060405180830381865afa158015611894573d6000803e3d6000fd5b505050506040513d601f19601f820116820180604052508101906118b891906126ae565b90506000826064600454866118cd91906126db565b6118d79190612764565b6118e191906126db565b9050808210156118ef578190505b809550505050505090565b600260009054906101000a900473ffffffffffffffffffffffffffffffffffffffff1681565b6000600a60003373ffffffffffffffffffffffffffffffffffffffff1673ffffffffffffffffffffffffffffffffffffffff1681526020019081526020016000205414156119ae576001600a60003373ffffffffffffffffffffffffffffffffffffffff1673ffffffffffffffffffffffffffffffffffffffff168152602001908152602001600020819055505b6000600a60003373ffffffffffffffffffffffffffffffffffffffff1673ffffffffffffffffffffffffffffffffffffffff1681526020019081526020016000205490506008548110611a36576040517f08c379a0000000000000000000000000000000000000000000000000000000008152600401611a2d90612b7a565b60405180910390fd5b60006007600183611a479190612446565b81548110611a5857611a5761247a565b5b90600052602060002001549050600160009054906101000a900473ffffffffffffffffffffffffffffffffffffffff1673ffffffffffffffffffffffffffffffffffffffff166323b872dd3330846040518463ffffffff1660e01b8152600401611ac493929190612662565b6020604051808303816000875af1158015611ae3573d6000803e3d6000fd5b505050506040513d601f19601f82011682018060405250810190611b079190612888565b50600182611b159190612b9a565b600a60003373ffffffffffffffffffffffffffffffffffffffff1673ffffffffffffffffffffffffffffffffffffffff168152602001908152602001600020819055507f02571708a18fcf5b28fe6d8d6cd3132d2ca104637b24ede56189a0a5ddd21540600183611b869190612b9a565b604051611b939190611d37565b60405180910390a15050565b828054828255906000526020600020908101928215611bdb579160200282015b82811115611bda578251825591602001919060010190611bbf565b5b509050611be89190611cd2565b5090565b508054611bf8906125c4565b6000825580601f10611c0a5750611c29565b601f016020900490600052602060002090810190611c289190611cd2565b5b50565b6040518060400160405280611c3f611cef565b8152602001600081525090565b828054611c58906125c4565b90600052602060002090601f016020900481019282611c7a5760008555611cc1565b82601f10611c9357805160ff1916838001178555611cc1565b82800160010185558215611cc1579182015b82811115611cc0578251825591602001919060010190611ca5565b5b509050611cce9190611cd2565b5090565b5b80821115611ceb576000816000905550600101611cd3565b5090565b6040518060a0016040528060008152602001606081526020016000815260200160008152602001600081525090565b6000819050919050565b611d3181611d1e565b82525050565b6000602082019050611d4c6000830184611d28565b92915050565b6000604051905090565b600080fd5b600080fd5b600080fd5b6000601f19601f8301169050919050565b7f4e487b7100000000000000000000000000000000000000000000000000000000600052604160045260246000fd5b611db482611d6b565b810181811067ffffffffffffffff82111715611dd357611dd2611d7c565b5b80604052505050565b6000611de6611d52565b9050611df28282611dab565b919050565b600067ffffffffffffffff821115611e1257611e11611d7c565b5b602082029050602081019050919050565b600080fd5b611e3181611d1e565b8114611e3c57600080fd5b50565b600081359050611e4e81611e28565b92915050565b6000611e67611e6284611df7565b611ddc565b90508083825260208201905060208402830185811115611e8a57611e89611e23565b5b835b81811015611eb35780611e9f8882611e3f565b845260208401935050602081019050611e8c565b5050509392505050565b600082601f830112611ed257611ed1611d66565b5b8135611ee2848260208601611e54565b91505092915050565b600060208284031215611f0157611f00611d5c565b5b600082013567ffffffffffffffff811115611f1f57611f1e611d61565b5b611f2b84828501611ebd565b91505092915050565b600073ffffffffffffffffffffffffffffffffffffffff82169050919050565b6000611f5f82611f34565b9050919050565b611f6f81611f54565b8114611f7a57600080fd5b50565b600081359050611f8c81611f66565b92915050565b600080fd5b60008083601f840112611fad57611fac611d66565b5b8235905067ffffffffffffffff811115611fca57611fc9611f92565b5b602083019150836001820283011115611fe657611fe5611e23565b5b9250929050565b60008060008060006080868803121561200957612008611d5c565b5b600061201788828901611f7d565b955050602061202888828901611f7d565b945050604061203988828901611e3f565b935050606086013567ffffffffffffffff81111561205a57612059611d61565b5b61206688828901611f97565b92509250509295509295909350565b60007fffffffff0000000000000000000000000000000000000000000000000000000082169050919050565b6120aa81612075565b82525050565b60006020820190506120c560008301846120a1565b92915050565b6000602082840312156120e1576120e0611d5c565b5b60006120ef84828501611f7d565b91505092915050565b61210181611d1e565b82525050565b600081519050919050565b600082825260208201905092915050565b60005b83811015612141578082015181840152602081019050612126565b83811115612150576000848401525b50505050565b600061216182612107565b61216b8185612112565b935061217b818560208601612123565b61218481611d6b565b840191505092915050565b600060a0830160008301516121a760008601826120f8565b50602083015184820360208601526121bf8282612156565b91505060408301516121d460408601826120f8565b5060608301516121e760608601826120f8565b5060808301516121fa60808601826120f8565b508091505092915050565b6000604082019050818103600083015261221f818561218f565b905061222e6020830184611d28565b9392505050565b60006020828403121561224b5761224a611d5c565b5b600061225984828501611e3f565b91505092915050565b6000819050919050565b600061228761228261227d84611f34565b612262565b611f34565b9050919050565b60006122998261226c565b9050919050565b60006122ab8261228e565b9050919050565b6122bb816122a0565b82525050565b60006020820190506122d660008301846122b2565b92915050565b60006122e78261228e565b9050919050565b6122f7816122dc565b82525050565b600060208201905061231260008301846122ee565b92915050565b600060a08301600083015161233060008601826120f8565b50602083015184820360208601526123488282612156565b915050604083015161235d60408601826120f8565b50606083015161237060608601826120f8565b50608083015161238360808601826120f8565b508091505092915050565b600060408301600083015184820360008601526123ab8282612318565b91505060208301516123c060208601826120f8565b508091505092915050565b600060208201905081810360008301526123e5818461238e565b905092915050565b6123f681611f54565b82525050565b600060208201905061241160008301846123ed565b92915050565b7f4e487b7100000000000000000000000000000000000000000000000000000000600052601160045260246000fd5b600061245182611d1e565b915061245c83611d1e565b92508282101561246f5761246e612417565b5b828203905092915050565b7f4e487b7100000000000000000000000000000000000000000000000000000000600052603260045260246000fd5b600082825260208201905092915050565b7f696e76616c696420696e70757420666f7220617661696c61626c65206c65766560008201527f6c00000000000000000000000000000000000000000000000000000000000000602082015250565b60006125166021836124a9565b9150612521826124ba565b604082019050919050565b6000602082019050818103600083015261254581612509565b9050919050565b600061255782611d1e565b91507fffffffffffffffffffffffffffffffffffffffffffffffffffffffffffffffff82141561258a57612589612417565b5b600182019050919050565b7f4e487b7100000000000000000000000000000000000000000000000000000000600052602260045260246000fd5b600060028204905060018216806125dc57607f821691505b602082108114156125f0576125ef612595565b5b50919050565b7f6472696c6c206e6f74207374616b656400000000000000000000000000000000600082015250565b600061262c6010836124a9565b9150612637826125f6565b602082019050919050565b6000602082019050818103600083015261265b8161261f565b9050919050565b600060608201905061267760008301866123ed565b61268460208301856123ed565b6126916040830184611d28565b949350505050565b6000815190506126a881611e28565b92915050565b6000602082840312156126c4576126c3611d5c565b5b60006126d284828501612699565b91505092915050565b60006126e682611d1e565b91506126f183611d1e565b9250817fffffffffffffffffffffffffffffffffffffffffffffffffffffffffffffffff048311821515161561272a57612729612417565b5b828202905092915050565b7f4e487b7100000000000000000000000000000000000000000000000000000000600052601260045260246000fd5b600061276f82611d1e565b915061277a83611d1e565b92508261278a57612789612735565b5b828204905092915050565b60006040820190506127aa60008301856123ed565b6127b76020830184611d28565b9392505050565b7f616d6f756e7420746f20726566696e652065786365656473206461696c79206360008201527f6170616369747900000000000000000000000000000000000000000000000000602082015250565b600061281a6027836124a9565b9150612825826127be565b604082019050919050565b600060208201905081810360008301526128498161280d565b9050919050565b60008115159050919050565b61286581612850565b811461287057600080fd5b50565b6000815190506128828161285c565b92915050565b60006020828403121561289e5761289d611d5c565b5b60006128ac84828501612873565b91505092915050565b7f7573657220616c7265616479207374616b656400000000000000000000000000600082015250565b60006128eb6013836124a9565b91506128f6826128b5565b602082019050919050565b6000602082019050818103600083015261291a816128de565b9050919050565b600080fd5b600080fd5b600080fd5b600067ffffffffffffffff82111561294b5761294a611d7c565b5b61295482611d6b565b9050602081019050919050565b600061297461296f84612930565b611ddc565b9050828152602081018484840111156129905761298f61292b565b5b61299b848285612123565b509392505050565b600082601f8301126129b8576129b7611d66565b5b81516129c8848260208601612961565b91505092915050565b600060a082840312156129e7576129e6612921565b5b6129f160a0611ddc565b90506000612a0184828501612699565b600083015250602082015167ffffffffffffffff811115612a2557612a24612926565b5b612a31848285016129a3565b6020830152506040612a4584828501612699565b6040830152506060612a5984828501612699565b6060830152506080612a6d84828501612699565b60808301525092915050565b600060208284031215612a8f57612a8e611d5c565b5b600082015167ffffffffffffffff811115612aad57612aac611d61565b5b612ab9848285016129d1565b91505092915050565b7f6e6f206472696c6c207374616b65640000000000000000000000000000000000600082015250565b6000612af8600f836124a9565b9150612b0382612ac2565b602082019050919050565b60006020820190508181036000830152612b2781612aeb565b9050919050565b7f726566696e6572206174206d6178206c6576656c000000000000000000000000600082015250565b6000612b646014836124a9565b9150612b6f82612b2e565b602082019050919050565b60006020820190508181036000830152612b9381612b57565b9050919050565b6000612ba582611d1e565b9150612bb083611d1e565b9250827fffffffffffffffffffffffffffffffffffffffffffffffffffffffffffffffff03821115612be557612be4612417565b5b82820190509291505056fea26469706673582212202b644d8f75039dbcb149d44c8a4ebfccfc4f27334cc6f3f74defccce9e3c7d4364736f6c634300080b0033",
  "immutableReferences": {},
  "source": "// SPDX-License-Identifier: MIT\n// Asteroid info: https://theskylive.com/153814-info\n\npragma solidity ^0.8.0;\n\nimport \"./MineEmpireDrill.sol\";\nimport \"@openzeppelin/contracts/token/ERC721/IERC721Receiver.sol\";\nimport \"@openzeppelin/contracts/token/ERC20/IERC20.sol\";\nimport \"@openzeppelin/contracts/token/ERC20/presets/ERC20PresetMinterPauser.sol\";\n\ncontract Asteroid153814 {\n    MineEmpireDrill public drill;\n    ERC20PresetMinterPauser public A153814Rock;\n    ERC20PresetMinterPauser public gold;\n    address public owner;\n    uint public baseProduction;\n    uint public refinerCapacity;\n    uint[] private refinerEfficiency;\n    uint[] private refinerUpgradeRequirement;\n    uint private maxRefinerLevel;\n\n    struct Stake {\n        MineEmpireDrill.Drill drill;\n        uint timestamp;\n    }\n\n    mapping(address => Stake) public stakes;\n    mapping(address => uint) public refinerLevel;\n    mapping(address => uint) public lastRefined;\n\n    constructor(ERC20PresetMinterPauser inputResource, ERC20PresetMinterPauser outputResource, MineEmpireDrill _drill) {\n        owner = msg.sender;\n        baseProduction = 1e16;\n        refinerCapacity = 1e22;\n        A153814Rock = inputResource;\n        gold = outputResource;\n        drill = _drill;\n        refinerEfficiency = [50, 55, 61, 67, 73, 80, 88, 100];\n        refinerUpgradeRequirement = [40e20, 50e20, 60e20, 70e20, 80e20, 100e20];\n        maxRefinerLevel = 7;\n    }\n\n    function onERC721Received(\n        address operator,\n        address from,\n        uint256 id,\n        bytes calldata data\n    ) external pure returns (bytes4) {\n        return bytes4(keccak256(\"onERC721Received(address,address,uint256,bytes)\"));\n    }\n\n    // events\n    event LogRefinement(uint _amountMinted);\n    event LogRefinerUpgraded(uint _newLevel);\n    // modifiers\n    modifier onlyOwner(address _address) {\n        require(_address == owner);\n        _;\n    }\n\n    modifier drillStaked(address _address) {\n        require(stakes[_address].timestamp > 0, \"drill not staked for this user\");\n        _;\n    }\n\n    // owner only\n    function setRefinerCapacity(uint _cap) public onlyOwner(msg.sender) {\n        refinerCapacity = _cap;\n    }\n\n    function updateRefinerEfficiency(\n        uint[] memory newEfficiencyList\n        ) public onlyOwner(msg.sender) {\n        for (uint i = 0; i < maxRefinerLevel; i++) {\n            require(newEfficiencyList[i] != 0, \"invalid input for available level\");\n        }\n        refinerEfficiency = newEfficiencyList;\n    }\n\n    function updateRefinerUpgradeRequirements(\n        uint[] memory newRefinerUpgradeRequirements\n    ) public onlyOwner(msg.sender) {\n        for (uint i = 0; i < maxRefinerLevel; i++) {\n            require(newRefinerUpgradeRequirements[i] != 0, \"invalid input for available level\");\n        }\n        refinerUpgradeRequirement = newRefinerUpgradeRequirements;\n    }\n\n    function updateMaxRefinerLevel(uint newLevel) public onlyOwner(msg.sender) {\n        maxRefinerLevel = newLevel;\n    }\n\n    // user interface\n    function stake(uint256 _drillId) public {\n        require(stakes[msg.sender].timestamp == 0, \"user already staked\");\n        drill.safeTransferFrom(msg.sender, address(this), _drillId);\n        stakes[msg.sender] = Stake(drill.getDrill(_drillId), block.timestamp);\n    }\n\n    function unstake() public {\n        require(stakes[msg.sender].timestamp > 0, \"drill not staked\");\n        drill.safeTransferFrom(address(this), msg.sender, stakes[msg.sender].drill.drillId);\n        delete stakes[msg.sender];\n    }\n\n    function collectResources() public {\n        Stake memory curStake = stakes[msg.sender];\n        uint miningMultiplier = drill.getDrillMiningPower(curStake.drill.drillId);\n        uint capacity = drill.getDrillCapacity(curStake.drill.drillId);\n        uint time = block.timestamp - curStake.timestamp;\n        uint amount = time * baseProduction / 100 * miningMultiplier;\n        if (capacity < amount) {\n            amount = capacity;\n        }\n        A153814Rock.mint(msg.sender, amount);\n        stakes[msg.sender].timestamp = block.timestamp;\n    }\n\n    function refine(uint _amount) public {\n        uint timeSinceLastRefine = block.timestamp - lastRefined[msg.sender];\n        if (timeSinceLastRefine > 86400) {\n            timeSinceLastRefine = 86400;\n        }\n        require(_amount <= refinerCapacity * timeSinceLastRefine / 864000, \n                \"amount to refine exceeds daily capacity\");\n\n        A153814Rock.transferFrom(msg.sender, address(this), _amount);\n        uint userRefinerLevel = refinerLevel[msg.sender];\n        if (userRefinerLevel == 0) {\n            refinerLevel[msg.sender] = 1;\n            userRefinerLevel = 1;\n        }\n        uint amountToMint = _amount * refinerEfficiency[userRefinerLevel-1] / 100;\n        gold.mint(msg.sender, amountToMint);\n        lastRefined[msg.sender] = block.timestamp;\n        emit LogRefinement(amountToMint);\n    }\n\n    function upgradeRefiner() public {\n        if (refinerLevel[msg.sender] == 0) {\n            refinerLevel[msg.sender] = 1;\n        }\n        uint curLevel = refinerLevel[msg.sender];\n        require(curLevel < maxRefinerLevel, \"refiner at max level\");\n        uint requiredAmount = refinerUpgradeRequirement[curLevel - 1];\n        A153814Rock.transferFrom(msg.sender, address(this), requiredAmount);\n        refinerLevel[msg.sender] = curLevel + 1;\n        emit LogRefinerUpgraded(curLevel + 1);\n    }\n\n    // getters\n    function getStake(address _address) public view returns(Stake memory) {\n        return stakes[_address];\n    }\n\n    function getAccumulatedRocks() public view returns (uint) {\n        require(stakes[msg.sender].timestamp > 0, \"no drill staked\");\n        Stake memory curStake = stakes[msg.sender];\n        uint time = block.timestamp - curStake.timestamp;\n        uint miningMultiplier = drill.getDrillMiningPower(curStake.drill.drillId);\n        uint capacity = drill.getDrillCapacity(curStake.drill.drillId);\n        uint amount = time * baseProduction / 100 * miningMultiplier;\n        if (capacity < amount) {\n            amount = capacity;\n        }\n        return amount;\n    }\n\n    function getBaseProduction() public view returns (uint) {\n        return baseProduction;\n    }\n\n    function getRefinerCapacity() public view returns (uint) {\n        return refinerCapacity;\n    }\n\n    function getRefinerUpgradeRequirement() public view returns (uint) {\n        uint userRefinerLevel = refinerLevel[msg.sender];\n        if (userRefinerLevel == 0) {\n            userRefinerLevel = 1;\n        }\n        return refinerUpgradeRequirement[userRefinerLevel-1];\n    }\n\n}",
  "sourcePath": "/Users/aslan/Desktop/DeMiner/contracts/Asteroid-153814.sol",
  "compiler": {
    "name": "solc",
    "version": "0.8.11+commit.d7f03943.Emscripten.clang"
  },
  "schemaVersion": "3.4.3",
  "updatedAt": "2022-04-25T11:12:45.572Z",
  "devdoc": {
    "kind": "dev",
    "methods": {},
    "version": 1
  },
  "userdoc": {
    "kind": "user",
    "methods": {},
    "version": 1
  }
}