{
  "contractName": "Asteroid153814",
  "abi": [
    {
      "inputs": [
        {
          "internalType": "contract ERC20PresetMinterPauser",
          "name": "inputResource",
          "type": "address"
        },
        {
          "internalType": "contract ERC20PresetMinterPauser",
          "name": "outputResource",
          "type": "address"
        },
        {
          "internalType": "contract MineEmpireDrill",
          "name": "_drill",
          "type": "address"
        }
      ],
      "stateMutability": "nonpayable",
      "type": "constructor"
    },
    {
      "anonymous": false,
      "inputs": [
        {
          "indexed": false,
          "internalType": "uint256",
          "name": "_amountMinted",
          "type": "uint256"
        }
      ],
      "name": "LogRefinement",
      "type": "event"
    },
    {
      "anonymous": false,
      "inputs": [
        {
          "indexed": false,
          "internalType": "uint256",
          "name": "_newLevel",
          "type": "uint256"
        }
      ],
      "name": "LogRefinerUpgraded",
      "type": "event"
    },
    {
      "inputs": [],
      "name": "baseProduction",
      "outputs": [
        {
          "internalType": "uint256",
          "name": "",
          "type": "uint256"
        }
      ],
      "stateMutability": "view",
      "type": "function"
    },
    {
      "inputs": [],
      "name": "capacityPerUnit",
      "outputs": [
        {
          "internalType": "uint256",
          "name": "",
          "type": "uint256"
        }
      ],
      "stateMutability": "view",
      "type": "function"
    },
    {
      "inputs": [],
      "name": "drill",
      "outputs": [
        {
          "internalType": "contract MineEmpireDrill",
          "name": "",
          "type": "address"
        }
      ],
      "stateMutability": "view",
      "type": "function"
    },
    {
      "inputs": [],
      "name": "gold",
      "outputs": [
        {
          "internalType": "contract ERC20PresetMinterPauser",
          "name": "",
          "type": "address"
        }
      ],
      "stateMutability": "view",
      "type": "function"
    },
    {
      "inputs": [],
      "name": "iron",
      "outputs": [
        {
          "internalType": "contract ERC20PresetMinterPauser",
          "name": "",
          "type": "address"
        }
      ],
      "stateMutability": "view",
      "type": "function"
    },
    {
      "inputs": [
        {
          "internalType": "address",
          "name": "",
          "type": "address"
        }
      ],
      "name": "lastRefined",
      "outputs": [
        {
          "internalType": "uint256",
          "name": "",
          "type": "uint256"
        }
      ],
      "stateMutability": "view",
      "type": "function"
    },
    {
      "inputs": [],
      "name": "owner",
      "outputs": [
        {
          "internalType": "address",
          "name": "",
          "type": "address"
        }
      ],
      "stateMutability": "view",
      "type": "function"
    },
    {
      "inputs": [],
      "name": "refinerCapacity",
      "outputs": [
        {
          "internalType": "uint256",
          "name": "",
          "type": "uint256"
        }
      ],
      "stateMutability": "view",
      "type": "function"
    },
    {
      "inputs": [
        {
          "internalType": "address",
          "name": "",
          "type": "address"
        }
      ],
      "name": "refinerLevel",
      "outputs": [
        {
          "internalType": "uint256",
          "name": "",
          "type": "uint256"
        }
      ],
      "stateMutability": "view",
      "type": "function"
    },
    {
      "inputs": [
        {
          "internalType": "address",
          "name": "",
          "type": "address"
        }
      ],
      "name": "stakes",
      "outputs": [
        {
          "components": [
            {
              "internalType": "uint256",
              "name": "drillId",
              "type": "uint256"
            },
            {
              "internalType": "string",
              "name": "name",
              "type": "string"
            },
            {
              "internalType": "uint256",
              "name": "drillType",
              "type": "uint256"
            },
            {
              "internalType": "uint256",
              "name": "miningLevel",
              "type": "uint256"
            },
            {
              "internalType": "uint256",
              "name": "capacityLevel",
              "type": "uint256"
            }
          ],
          "internalType": "struct MineEmpireDrill.Drill",
          "name": "drill",
          "type": "tuple"
        },
        {
          "internalType": "uint256",
          "name": "timestamp",
          "type": "uint256"
        }
      ],
      "stateMutability": "view",
      "type": "function"
    },
    {
      "inputs": [
        {
          "internalType": "address",
          "name": "operator",
          "type": "address"
        },
        {
          "internalType": "address",
          "name": "from",
          "type": "address"
        },
        {
          "internalType": "uint256",
          "name": "id",
          "type": "uint256"
        },
        {
          "internalType": "bytes",
          "name": "data",
          "type": "bytes"
        }
      ],
      "name": "onERC721Received",
      "outputs": [
        {
          "internalType": "bytes4",
          "name": "",
          "type": "bytes4"
        }
      ],
      "stateMutability": "pure",
      "type": "function"
    },
    {
      "inputs": [
        {
          "internalType": "uint256",
          "name": "_cap",
          "type": "uint256"
        }
      ],
      "name": "setRefinerCapacity",
      "outputs": [],
      "stateMutability": "nonpayable",
      "type": "function"
    },
    {
      "inputs": [
        {
          "internalType": "uint256[]",
          "name": "newEfficiencyList",
          "type": "uint256[]"
        }
      ],
      "name": "updateRefinerEfficiency",
      "outputs": [],
      "stateMutability": "nonpayable",
      "type": "function"
    },
    {
      "inputs": [
        {
          "internalType": "uint256[]",
          "name": "newRefinerUpgradeRequirements",
          "type": "uint256[]"
        }
      ],
      "name": "updateRefinerUpgradeRequirements",
      "outputs": [],
      "stateMutability": "nonpayable",
      "type": "function"
    },
    {
      "inputs": [
        {
          "internalType": "uint256",
          "name": "newLevel",
          "type": "uint256"
        }
      ],
      "name": "updateMaxRefinerLevel",
      "outputs": [],
      "stateMutability": "nonpayable",
      "type": "function"
    },
    {
      "inputs": [
        {
          "internalType": "uint256",
          "name": "_drillId",
          "type": "uint256"
        }
      ],
      "name": "stake",
      "outputs": [],
      "stateMutability": "nonpayable",
      "type": "function"
    },
    {
      "inputs": [],
      "name": "unstake",
      "outputs": [],
      "stateMutability": "nonpayable",
      "type": "function"
    },
    {
      "inputs": [],
      "name": "collectResources",
      "outputs": [],
      "stateMutability": "nonpayable",
      "type": "function"
    },
    {
      "inputs": [
        {
          "internalType": "uint256",
          "name": "_amount",
          "type": "uint256"
        }
      ],
      "name": "refine",
      "outputs": [],
      "stateMutability": "nonpayable",
      "type": "function"
    },
    {
      "inputs": [],
      "name": "upgradeRefiner",
      "outputs": [],
      "stateMutability": "nonpayable",
      "type": "function"
    },
    {
      "inputs": [
        {
          "internalType": "address",
          "name": "_address",
          "type": "address"
        }
      ],
      "name": "getStake",
      "outputs": [
        {
          "components": [
            {
              "components": [
                {
                  "internalType": "uint256",
                  "name": "drillId",
                  "type": "uint256"
                },
                {
                  "internalType": "string",
                  "name": "name",
                  "type": "string"
                },
                {
                  "internalType": "uint256",
                  "name": "drillType",
                  "type": "uint256"
                },
                {
                  "internalType": "uint256",
                  "name": "miningLevel",
                  "type": "uint256"
                },
                {
                  "internalType": "uint256",
                  "name": "capacityLevel",
                  "type": "uint256"
                }
              ],
              "internalType": "struct MineEmpireDrill.Drill",
              "name": "drill",
              "type": "tuple"
            },
            {
              "internalType": "uint256",
              "name": "timestamp",
              "type": "uint256"
            }
          ],
          "internalType": "struct Asteroid153814.Stake",
          "name": "",
          "type": "tuple"
        }
      ],
      "stateMutability": "view",
      "type": "function"
    },
    {
      "inputs": [],
      "name": "getAccumulatedRocks",
      "outputs": [
        {
          "internalType": "uint256",
          "name": "",
          "type": "uint256"
        }
      ],
      "stateMutability": "view",
      "type": "function"
    },
    {
      "inputs": [],
      "name": "getBaseProduction",
      "outputs": [
        {
          "internalType": "uint256",
          "name": "",
          "type": "uint256"
        }
      ],
      "stateMutability": "view",
      "type": "function"
    },
    {
      "inputs": [],
      "name": "getCapacityPerUnit",
      "outputs": [
        {
          "internalType": "uint256",
          "name": "",
          "type": "uint256"
        }
      ],
      "stateMutability": "view",
      "type": "function"
    },
    {
      "inputs": [],
      "name": "getRefinerCapacity",
      "outputs": [
        {
          "internalType": "uint256",
          "name": "",
          "type": "uint256"
        }
      ],
      "stateMutability": "view",
      "type": "function"
    },
    {
      "inputs": [],
      "name": "getRefinerUpgradeRequirement",
      "outputs": [
        {
          "internalType": "uint256",
          "name": "",
          "type": "uint256"
        }
      ],
      "stateMutability": "view",
      "type": "function"
    }
  ],
  "bytecode": "0x60806040523480156200001157600080fd5b50604051620031813803806200318183398181016040528101906200003791906200043b565b33600360006101000a81548173ffffffffffffffffffffffffffffffffffffffff021916908373ffffffffffffffffffffffffffffffffffffffff160217905550662386f26fc10000600481905550606460058190555069021e19e0c9bab240000060068190555082600160006101000a81548173ffffffffffffffffffffffffffffffffffffffff021916908373ffffffffffffffffffffffffffffffffffffffff16021790555081600260006101000a81548173ffffffffffffffffffffffffffffffffffffffff021916908373ffffffffffffffffffffffffffffffffffffffff160217905550806000806101000a81548173ffffffffffffffffffffffffffffffffffffffff021916908373ffffffffffffffffffffffffffffffffffffffff160217905550604051806101000160405280603260ff168152602001603760ff168152602001603d60ff168152602001604360ff168152602001604960ff168152602001605060ff168152602001605860ff168152602001606460ff168152506007906008620001cd929190620002a2565b506040518060c0016040528068d8d726b7177a80000069ffffffffffffffffffff16815260200169010f0cf064dd5920000069ffffffffffffffffffff16815260200169014542ba12a337c0000069ffffffffffffffffffff16815260200169017b7883c0691660000069ffffffffffffffffffff1681526020016901b1ae4d6e2ef500000069ffffffffffffffffffff16815260200169021e19e0c9bab240000069ffffffffffffffffffff16815250600890600662000290929190620002f9565b50600760098190555050505062000497565b828054828255906000526020600020908101928215620002e6579160200282015b82811115620002e5578251829060ff16905591602001919060010190620002c3565b5b509050620002f5919062000359565b5090565b82805482825590600052602060002090810192821562000346579160200282015b8281111562000345578251829069ffffffffffffffffffff169055916020019190600101906200031a565b5b50905062000355919062000359565b5090565b5b80821115620003745760008160009055506001016200035a565b5090565b600080fd5b600073ffffffffffffffffffffffffffffffffffffffff82169050919050565b6000620003aa826200037d565b9050919050565b6000620003be826200039d565b9050919050565b620003d081620003b1565b8114620003dc57600080fd5b50565b600081519050620003f081620003c5565b92915050565b600062000403826200039d565b9050919050565b6200041581620003f6565b81146200042157600080fd5b50565b60008151905062000435816200040a565b92915050565b60008060006060848603121562000457576200045662000378565b5b60006200046786828701620003df565b93505060206200047a86828701620003df565b92505060406200048d8682870162000424565b9150509250925092565b612cda80620004a76000396000f3fe608060405234801561001057600080fd5b506004361061018e5760003560e01c8063525d9de0116100de578063a694fc3a11610097578063f5351f8211610071578063f5351f821461044e578063f60a92501461046c578063fbec6f211461048a578063ff8b6978146104a85761018e565b8063a694fc3a146103f8578063b3e73f1814610414578063d509864b146104325761018e565b8063525d9de01461033457806354c1ab1114610352578063604b83b4146103705780637a7664601461038e5780638da5cb5b146103be5780639880b4aa146103dc5761018e565b806335c6f5a11161014b5780633bbfe141116101255780633bbfe141146102c05780633dc02b9e146102ca5780634021dfee146102e85780634594229c146103185761018e565b806335c6f5a1146102565780633807e3e01461027457806339b341eb146102905761018e565b80630eb099911461019357806314436583146101b1578063150b7a02146101cd57806316934fc4146101fd5780632def66201461022e5780633104d1fc14610238575b600080fd5b61019b6104b2565b6040516101a89190611deb565b60405180910390f35b6101cb60048036038101906101c69190611f9f565b610536565b005b6101e760048036038101906101e291906120a1565b61062b565b6040516101f49190612164565b60405180910390f35b6102176004803603810190610212919061217f565b610659565b6040516102259291906122b9565b60405180910390f35b610236610741565b005b61024061091d565b60405161024d9190611deb565b60405180910390f35b61025e610923565b60405161026b9190611deb565b60405180910390f35b61028e600480360381019061028991906122e9565b61092d565b005b6102aa60048036038101906102a5919061217f565b610993565b6040516102b79190611deb565b60405180910390f35b6102c86109ab565b005b6102d2610d5e565b6040516102df9190611deb565b60405180910390f35b61030260048036038101906102fd919061217f565b610d68565b60405161030f9190611deb565b60405180910390f35b610332600480360381019061032d91906122e9565b610d80565b005b61033c6110cf565b6040516103499190612375565b60405180910390f35b61035a6110f3565b6040516103679190611deb565b60405180910390f35b6103786110fd565b60405161038591906123b1565b60405180910390f35b6103a860048036038101906103a3919061217f565b611123565b6040516103b5919061247f565b60405180910390f35b6103c6611254565b6040516103d391906124b0565b60405180910390f35b6103f660048036038101906103f191906122e9565b61127a565b005b610412600480360381019061040d91906122e9565b6112e0565b005b61041c611546565b6040516104299190611deb565b60405180910390f35b61044c60048036038101906104479190611f9f565b61154c565b005b610456611641565b6040516104639190611deb565b60405180910390f35b610474611647565b6040516104819190611deb565b60405180910390f35b6104926119ae565b60405161049f91906123b1565b60405180910390f35b6104b06119d4565b005b600080600b60003373ffffffffffffffffffffffffffffffffffffffff1673ffffffffffffffffffffffffffffffffffffffff168152602001908152602001600020549050600081141561050557600190505b600860018261051491906124fa565b815481106105255761052461252e565b5b906000526020600020015491505090565b33600360009054906101000a900473ffffffffffffffffffffffffffffffffffffffff1673ffffffffffffffffffffffffffffffffffffffff168173ffffffffffffffffffffffffffffffffffffffff161461059157600080fd5b60005b60095481101561060f5760008382815181106105b3576105b261252e565b5b602002602001015114156105fc576040517f08c379a00000000000000000000000000000000000000000000000000000000081526004016105f3906125e0565b60405180910390fd5b808061060790612600565b915050610594565b508160089080519060200190610626929190611c53565b505050565b60007f150b7a023d4804d13e8c85fb27262cb750cf6ba9f9dd3bb30d90f482ceeb4b1f905095945050505050565b600a602052806000526040600020600091509050806000016040518060a00160405290816000820154815260200160018201805461069690612678565b80601f01602080910402602001604051908101604052809291908181526020018280546106c290612678565b801561070f5780601f106106e45761010080835404028352916020019161070f565b820191906000526020600020905b8154815290600101906020018083116106f257829003601f168201915b505050505081526020016002820154815260200160038201548152602001600482015481525050908060050154905082565b6000600a60003373ffffffffffffffffffffffffffffffffffffffff1673ffffffffffffffffffffffffffffffffffffffff16815260200190815260200160002060050154116107c6576040517f08c379a00000000000000000000000000000000000000000000000000000000081526004016107bd906126f6565b60405180910390fd5b60008054906101000a900473ffffffffffffffffffffffffffffffffffffffff1673ffffffffffffffffffffffffffffffffffffffff166342842e0e3033600a60003373ffffffffffffffffffffffffffffffffffffffff1673ffffffffffffffffffffffffffffffffffffffff168152602001908152602001600020600001600001546040518463ffffffff1660e01b815260040161086893929190612716565b600060405180830381600087803b15801561088257600080fd5b505af1158015610896573d6000803e3d6000fd5b50505050600a60003373ffffffffffffffffffffffffffffffffffffffff1673ffffffffffffffffffffffffffffffffffffffff16815260200190815260200160002060008082016000808201600090556001820160006108f79190611ca0565b600282016000905560038201600090556004820160009055505060058201600090555050565b60045481565b6000600554905090565b33600360009054906101000a900473ffffffffffffffffffffffffffffffffffffffff1673ffffffffffffffffffffffffffffffffffffffff168173ffffffffffffffffffffffffffffffffffffffff161461098857600080fd5b816009819055505050565b600c6020528060005260406000206000915090505481565b6000600a60003373ffffffffffffffffffffffffffffffffffffffff1673ffffffffffffffffffffffffffffffffffffffff168152602001908152602001600020604051806040016040529081600082016040518060a001604052908160008201548152602001600182018054610a2190612678565b80601f0160208091040260200160405190810160405280929190818152602001828054610a4d90612678565b8015610a9a5780601f10610a6f57610100808354040283529160200191610a9a565b820191906000526020600020905b815481529060010190602001808311610a7d57829003601f168201915b5050505050815260200160028201548152602001600382015481526020016004820154815250508152602001600582015481525050905060008060009054906101000a900473ffffffffffffffffffffffffffffffffffffffff1673ffffffffffffffffffffffffffffffffffffffff1663a475949f8360000151600001516040518263ffffffff1660e01b8152600401610b359190611deb565b602060405180830381865afa158015610b52573d6000803e3d6000fd5b505050506040513d601f19601f82011682018060405250810190610b769190612762565b905060008060009054906101000a900473ffffffffffffffffffffffffffffffffffffffff1673ffffffffffffffffffffffffffffffffffffffff16639cb816898460000151600001516040518263ffffffff1660e01b8152600401610bdc9190611deb565b602060405180830381865afa158015610bf9573d6000803e3d6000fd5b505050506040513d601f19601f82011682018060405250810190610c1d9190612762565b90506000836020015142610c3191906124fa565b90506000600554606485606460045486610c4b919061278f565b610c559190612818565b610c5f919061278f565b610c699190612818565b610c73919061278f565b905080831015610c81578290505b600160009054906101000a900473ffffffffffffffffffffffffffffffffffffffff1673ffffffffffffffffffffffffffffffffffffffff166340c10f1933836040518363ffffffff1660e01b8152600401610cde929190612849565b600060405180830381600087803b158015610cf857600080fd5b505af1158015610d0c573d6000803e3d6000fd5b5050505042600a60003373ffffffffffffffffffffffffffffffffffffffff1673ffffffffffffffffffffffffffffffffffffffff168152602001908152602001600020600501819055505050505050565b6000600654905090565b600b6020528060005260406000206000915090505481565b6000600c60003373ffffffffffffffffffffffffffffffffffffffff1673ffffffffffffffffffffffffffffffffffffffff1681526020019081526020016000205442610dcd91906124fa565b905062015180811115610de1576201518090505b620d2f0081600654610df3919061278f565b610dfd9190612818565b821115610e3f576040517f08c379a0000000000000000000000000000000000000000000000000000000008152600401610e36906128e4565b60405180910390fd5b600160009054906101000a900473ffffffffffffffffffffffffffffffffffffffff1673ffffffffffffffffffffffffffffffffffffffff166323b872dd3330856040518463ffffffff1660e01b8152600401610e9e93929190612716565b6020604051808303816000875af1158015610ebd573d6000803e3d6000fd5b505050506040513d601f19601f82011682018060405250810190610ee1919061293c565b506000600b60003373ffffffffffffffffffffffffffffffffffffffff1673ffffffffffffffffffffffffffffffffffffffff1681526020019081526020016000205490506000811415610f79576001600b60003373ffffffffffffffffffffffffffffffffffffffff1673ffffffffffffffffffffffffffffffffffffffff16815260200190815260200160002081905550600190505b600060646007600184610f8c91906124fa565b81548110610f9d57610f9c61252e565b5b906000526020600020015485610fb3919061278f565b610fbd9190612818565b9050600260009054906101000a900473ffffffffffffffffffffffffffffffffffffffff1673ffffffffffffffffffffffffffffffffffffffff166340c10f1933836040518363ffffffff1660e01b815260040161101c929190612849565b600060405180830381600087803b15801561103657600080fd5b505af115801561104a573d6000803e3d6000fd5b5050505042600c60003373ffffffffffffffffffffffffffffffffffffffff1673ffffffffffffffffffffffffffffffffffffffff168152602001908152602001600020819055507f99d151b9884078467a25f18f375b619ab3b095f2295ed5b074e1bc48c4183b88816040516110c19190611deb565b60405180910390a150505050565b60008054906101000a900473ffffffffffffffffffffffffffffffffffffffff1681565b6000600454905090565b600160009054906101000a900473ffffffffffffffffffffffffffffffffffffffff1681565b61112b611ce0565b600a60008373ffffffffffffffffffffffffffffffffffffffff1673ffffffffffffffffffffffffffffffffffffffff168152602001908152602001600020604051806040016040529081600082016040518060a00160405290816000820154815260200160018201805461119f90612678565b80601f01602080910402602001604051908101604052809291908181526020018280546111cb90612678565b80156112185780601f106111ed57610100808354040283529160200191611218565b820191906000526020600020905b8154815290600101906020018083116111fb57829003601f168201915b50505050508152602001600282015481526020016003820154815260200160048201548152505081526020016005820154815250509050919050565b600360009054906101000a900473ffffffffffffffffffffffffffffffffffffffff1681565b33600360009054906101000a900473ffffffffffffffffffffffffffffffffffffffff1673ffffffffffffffffffffffffffffffffffffffff168173ffffffffffffffffffffffffffffffffffffffff16146112d557600080fd5b816006819055505050565b6000600a60003373ffffffffffffffffffffffffffffffffffffffff1673ffffffffffffffffffffffffffffffffffffffff1681526020019081526020016000206005015414611365576040517f08c379a000000000000000000000000000000000000000000000000000000000815260040161135c906129b5565b60405180910390fd5b60008054906101000a900473ffffffffffffffffffffffffffffffffffffffff1673ffffffffffffffffffffffffffffffffffffffff166342842e0e3330846040518463ffffffff1660e01b81526004016113c293929190612716565b600060405180830381600087803b1580156113dc57600080fd5b505af11580156113f0573d6000803e3d6000fd5b50505050604051806040016040528060008054906101000a900473ffffffffffffffffffffffffffffffffffffffff1673ffffffffffffffffffffffffffffffffffffffff1663a2843682846040518263ffffffff1660e01b81526004016114589190611deb565b600060405180830381865afa158015611475573d6000803e3d6000fd5b505050506040513d6000823e3d601f19601f8201168201806040525081019061149e9190612b2d565b815260200142815250600a60003373ffffffffffffffffffffffffffffffffffffffff1673ffffffffffffffffffffffffffffffffffffffff168152602001908152602001600020600082015181600001600082015181600001556020820151816001019080519060200190611515929190611d00565b5060408201518160020155606082015181600301556080820151816004015550506020820151816005015590505050565b60065481565b33600360009054906101000a900473ffffffffffffffffffffffffffffffffffffffff1673ffffffffffffffffffffffffffffffffffffffff168173ffffffffffffffffffffffffffffffffffffffff16146115a757600080fd5b60005b6009548110156116255760008382815181106115c9576115c861252e565b5b60200260200101511415611612576040517f08c379a0000000000000000000000000000000000000000000000000000000008152600401611609906125e0565b60405180910390fd5b808061161d90612600565b9150506115aa565b50816007908051906020019061163c929190611c53565b505050565b60055481565b600080600a60003373ffffffffffffffffffffffffffffffffffffffff1673ffffffffffffffffffffffffffffffffffffffff16815260200190815260200160002060050154116116cd576040517f08c379a00000000000000000000000000000000000000000000000000000000081526004016116c490612bc2565b60405180910390fd5b6000600a60003373ffffffffffffffffffffffffffffffffffffffff1673ffffffffffffffffffffffffffffffffffffffff168152602001908152602001600020604051806040016040529081600082016040518060a00160405290816000820154815260200160018201805461174390612678565b80601f016020809104026020016040519081016040528092919081815260200182805461176f90612678565b80156117bc5780601f10611791576101008083540402835291602001916117bc565b820191906000526020600020905b81548152906001019060200180831161179f57829003601f168201915b50505050508152602001600282015481526020016003820154815260200160048201548152505081526020016005820154815250509050600081602001514261180591906124fa565b905060008060009054906101000a900473ffffffffffffffffffffffffffffffffffffffff1673ffffffffffffffffffffffffffffffffffffffff1663a475949f8460000151600001516040518263ffffffff1660e01b815260040161186b9190611deb565b602060405180830381865afa158015611888573d6000803e3d6000fd5b505050506040513d601f19601f820116820180604052508101906118ac9190612762565b905060008060009054906101000a900473ffffffffffffffffffffffffffffffffffffffff1673ffffffffffffffffffffffffffffffffffffffff16639cb816898560000151600001516040518263ffffffff1660e01b81526004016119129190611deb565b602060405180830381865afa15801561192f573d6000803e3d6000fd5b505050506040513d601f19601f820116820180604052508101906119539190612762565b9050600060055460648460646004548861196d919061278f565b6119779190612818565b611981919061278f565b61198b9190612818565b611995919061278f565b9050808210156119a3578190505b809550505050505090565b600260009054906101000a900473ffffffffffffffffffffffffffffffffffffffff1681565b6000600b60003373ffffffffffffffffffffffffffffffffffffffff1673ffffffffffffffffffffffffffffffffffffffff168152602001908152602001600020541415611a62576001600b60003373ffffffffffffffffffffffffffffffffffffffff1673ffffffffffffffffffffffffffffffffffffffff168152602001908152602001600020819055505b6000600b60003373ffffffffffffffffffffffffffffffffffffffff1673ffffffffffffffffffffffffffffffffffffffff1681526020019081526020016000205490506009548110611aea576040517f08c379a0000000000000000000000000000000000000000000000000000000008152600401611ae190612c2e565b60405180910390fd5b60006008600183611afb91906124fa565b81548110611b0c57611b0b61252e565b5b90600052602060002001549050600160009054906101000a900473ffffffffffffffffffffffffffffffffffffffff1673ffffffffffffffffffffffffffffffffffffffff166323b872dd3330846040518463ffffffff1660e01b8152600401611b7893929190612716565b6020604051808303816000875af1158015611b97573d6000803e3d6000fd5b505050506040513d601f19601f82011682018060405250810190611bbb919061293c565b50600182611bc99190612c4e565b600b60003373ffffffffffffffffffffffffffffffffffffffff1673ffffffffffffffffffffffffffffffffffffffff168152602001908152602001600020819055507f02571708a18fcf5b28fe6d8d6cd3132d2ca104637b24ede56189a0a5ddd21540600183611c3a9190612c4e565b604051611c479190611deb565b60405180910390a15050565b828054828255906000526020600020908101928215611c8f579160200282015b82811115611c8e578251825591602001919060010190611c73565b5b509050611c9c9190611d86565b5090565b508054611cac90612678565b6000825580601f10611cbe5750611cdd565b601f016020900490600052602060002090810190611cdc9190611d86565b5b50565b6040518060400160405280611cf3611da3565b8152602001600081525090565b828054611d0c90612678565b90600052602060002090601f016020900481019282611d2e5760008555611d75565b82601f10611d4757805160ff1916838001178555611d75565b82800160010185558215611d75579182015b82811115611d74578251825591602001919060010190611d59565b5b509050611d829190611d86565b5090565b5b80821115611d9f576000816000905550600101611d87565b5090565b6040518060a0016040528060008152602001606081526020016000815260200160008152602001600081525090565b6000819050919050565b611de581611dd2565b82525050565b6000602082019050611e006000830184611ddc565b92915050565b6000604051905090565b600080fd5b600080fd5b600080fd5b6000601f19601f8301169050919050565b7f4e487b7100000000000000000000000000000000000000000000000000000000600052604160045260246000fd5b611e6882611e1f565b810181811067ffffffffffffffff82111715611e8757611e86611e30565b5b80604052505050565b6000611e9a611e06565b9050611ea68282611e5f565b919050565b600067ffffffffffffffff821115611ec657611ec5611e30565b5b602082029050602081019050919050565b600080fd5b611ee581611dd2565b8114611ef057600080fd5b50565b600081359050611f0281611edc565b92915050565b6000611f1b611f1684611eab565b611e90565b90508083825260208201905060208402830185811115611f3e57611f3d611ed7565b5b835b81811015611f675780611f538882611ef3565b845260208401935050602081019050611f40565b5050509392505050565b600082601f830112611f8657611f85611e1a565b5b8135611f96848260208601611f08565b91505092915050565b600060208284031215611fb557611fb4611e10565b5b600082013567ffffffffffffffff811115611fd357611fd2611e15565b5b611fdf84828501611f71565b91505092915050565b600073ffffffffffffffffffffffffffffffffffffffff82169050919050565b600061201382611fe8565b9050919050565b61202381612008565b811461202e57600080fd5b50565b6000813590506120408161201a565b92915050565b600080fd5b60008083601f84011261206157612060611e1a565b5b8235905067ffffffffffffffff81111561207e5761207d612046565b5b60208301915083600182028301111561209a57612099611ed7565b5b9250929050565b6000806000806000608086880312156120bd576120bc611e10565b5b60006120cb88828901612031565b95505060206120dc88828901612031565b94505060406120ed88828901611ef3565b935050606086013567ffffffffffffffff81111561210e5761210d611e15565b5b61211a8882890161204b565b92509250509295509295909350565b60007fffffffff0000000000000000000000000000000000000000000000000000000082169050919050565b61215e81612129565b82525050565b60006020820190506121796000830184612155565b92915050565b60006020828403121561219557612194611e10565b5b60006121a384828501612031565b91505092915050565b6121b581611dd2565b82525050565b600081519050919050565b600082825260208201905092915050565b60005b838110156121f55780820151818401526020810190506121da565b83811115612204576000848401525b50505050565b6000612215826121bb565b61221f81856121c6565b935061222f8185602086016121d7565b61223881611e1f565b840191505092915050565b600060a08301600083015161225b60008601826121ac565b5060208301518482036020860152612273828261220a565b915050604083015161228860408601826121ac565b50606083015161229b60608601826121ac565b5060808301516122ae60808601826121ac565b508091505092915050565b600060408201905081810360008301526122d38185612243565b90506122e26020830184611ddc565b9392505050565b6000602082840312156122ff576122fe611e10565b5b600061230d84828501611ef3565b91505092915050565b6000819050919050565b600061233b61233661233184611fe8565b612316565b611fe8565b9050919050565b600061234d82612320565b9050919050565b600061235f82612342565b9050919050565b61236f81612354565b82525050565b600060208201905061238a6000830184612366565b92915050565b600061239b82612342565b9050919050565b6123ab81612390565b82525050565b60006020820190506123c660008301846123a2565b92915050565b600060a0830160008301516123e460008601826121ac565b50602083015184820360208601526123fc828261220a565b915050604083015161241160408601826121ac565b50606083015161242460608601826121ac565b50608083015161243760808601826121ac565b508091505092915050565b6000604083016000830151848203600086015261245f82826123cc565b915050602083015161247460208601826121ac565b508091505092915050565b600060208201905081810360008301526124998184612442565b905092915050565b6124aa81612008565b82525050565b60006020820190506124c560008301846124a1565b92915050565b7f4e487b7100000000000000000000000000000000000000000000000000000000600052601160045260246000fd5b600061250582611dd2565b915061251083611dd2565b925082821015612523576125226124cb565b5b828203905092915050565b7f4e487b7100000000000000000000000000000000000000000000000000000000600052603260045260246000fd5b600082825260208201905092915050565b7f696e76616c696420696e70757420666f7220617661696c61626c65206c65766560008201527f6c00000000000000000000000000000000000000000000000000000000000000602082015250565b60006125ca60218361255d565b91506125d58261256e565b604082019050919050565b600060208201905081810360008301526125f9816125bd565b9050919050565b600061260b82611dd2565b91507fffffffffffffffffffffffffffffffffffffffffffffffffffffffffffffffff82141561263e5761263d6124cb565b5b600182019050919050565b7f4e487b7100000000000000000000000000000000000000000000000000000000600052602260045260246000fd5b6000600282049050600182168061269057607f821691505b602082108114156126a4576126a3612649565b5b50919050565b7f6472696c6c206e6f74207374616b656400000000000000000000000000000000600082015250565b60006126e060108361255d565b91506126eb826126aa565b602082019050919050565b6000602082019050818103600083015261270f816126d3565b9050919050565b600060608201905061272b60008301866124a1565b61273860208301856124a1565b6127456040830184611ddc565b949350505050565b60008151905061275c81611edc565b92915050565b60006020828403121561277857612777611e10565b5b60006127868482850161274d565b91505092915050565b600061279a82611dd2565b91506127a583611dd2565b9250817fffffffffffffffffffffffffffffffffffffffffffffffffffffffffffffffff04831182151516156127de576127dd6124cb565b5b828202905092915050565b7f4e487b7100000000000000000000000000000000000000000000000000000000600052601260045260246000fd5b600061282382611dd2565b915061282e83611dd2565b92508261283e5761283d6127e9565b5b828204905092915050565b600060408201905061285e60008301856124a1565b61286b6020830184611ddc565b9392505050565b7f616d6f756e7420746f20726566696e652065786365656473206461696c79206360008201527f6170616369747900000000000000000000000000000000000000000000000000602082015250565b60006128ce60278361255d565b91506128d982612872565b604082019050919050565b600060208201905081810360008301526128fd816128c1565b9050919050565b60008115159050919050565b61291981612904565b811461292457600080fd5b50565b60008151905061293681612910565b92915050565b60006020828403121561295257612951611e10565b5b600061296084828501612927565b91505092915050565b7f7573657220616c7265616479207374616b656400000000000000000000000000600082015250565b600061299f60138361255d565b91506129aa82612969565b602082019050919050565b600060208201905081810360008301526129ce81612992565b9050919050565b600080fd5b600080fd5b600080fd5b600067ffffffffffffffff8211156129ff576129fe611e30565b5b612a0882611e1f565b9050602081019050919050565b6000612a28612a23846129e4565b611e90565b905082815260208101848484011115612a4457612a436129df565b5b612a4f8482856121d7565b509392505050565b600082601f830112612a6c57612a6b611e1a565b5b8151612a7c848260208601612a15565b91505092915050565b600060a08284031215612a9b57612a9a6129d5565b5b612aa560a0611e90565b90506000612ab58482850161274d565b600083015250602082015167ffffffffffffffff811115612ad957612ad86129da565b5b612ae584828501612a57565b6020830152506040612af98482850161274d565b6040830152506060612b0d8482850161274d565b6060830152506080612b218482850161274d565b60808301525092915050565b600060208284031215612b4357612b42611e10565b5b600082015167ffffffffffffffff811115612b6157612b60611e15565b5b612b6d84828501612a85565b91505092915050565b7f6e6f206472696c6c207374616b65640000000000000000000000000000000000600082015250565b6000612bac600f8361255d565b9150612bb782612b76565b602082019050919050565b60006020820190508181036000830152612bdb81612b9f565b9050919050565b7f726566696e6572206174206d6178206c6576656c000000000000000000000000600082015250565b6000612c1860148361255d565b9150612c2382612be2565b602082019050919050565b60006020820190508181036000830152612c4781612c0b565b9050919050565b6000612c5982611dd2565b9150612c6483611dd2565b9250827fffffffffffffffffffffffffffffffffffffffffffffffffffffffffffffffff03821115612c9957612c986124cb565b5b82820190509291505056fea2646970667358221220c752f12d2d4e4f7539b3dba533080efc50e4b917fad677cfbfa922dc944a7fb664736f6c634300080b0033",
  "immutableReferences": {},
  "source": "// SPDX-License-Identifier: MIT\n// Asteroid info: https://theskylive.com/153814-info\n\npragma solidity ^0.8.0;\n\nimport \"./MineEmpireDrill.sol\";\nimport \"@openzeppelin/contracts/token/ERC721/IERC721Receiver.sol\";\nimport \"@openzeppelin/contracts/token/ERC20/IERC20.sol\";\nimport \"@openzeppelin/contracts/token/ERC20/presets/ERC20PresetMinterPauser.sol\";\n\ncontract Asteroid153814 {\n    MineEmpireDrill public drill;\n    ERC20PresetMinterPauser public iron;\n    ERC20PresetMinterPauser public gold;\n    address public owner;\n    uint public baseProduction;\n    uint public capacityPerUnit;\n    uint public refinerCapacity;\n    uint[] private refinerEfficiency;\n    uint[] private refinerUpgradeRequirement;\n    uint private maxRefinerLevel;\n\n    struct Stake {\n        MineEmpireDrill.Drill drill;\n        uint timestamp;\n    }\n\n    mapping(address => Stake) public stakes;\n    mapping(address => uint) public refinerLevel;\n    mapping(address => uint) public lastRefined;\n\n    constructor(ERC20PresetMinterPauser inputResource, ERC20PresetMinterPauser outputResource, MineEmpireDrill _drill) {\n        owner = msg.sender;\n        baseProduction = 1e16;\n        capacityPerUnit = 100;\n        refinerCapacity = 1e22;\n        iron = inputResource;\n        gold = outputResource;\n        drill = _drill;\n        refinerEfficiency = [50, 55, 61, 67, 73, 80, 88, 100];\n        refinerUpgradeRequirement = [40e20, 50e20, 60e20, 70e20, 80e20, 100e20];\n        maxRefinerLevel = 7;\n    }\n\n    function onERC721Received(\n        address operator,\n        address from,\n        uint256 id,\n        bytes calldata data\n    ) external pure returns (bytes4) {\n        return bytes4(keccak256(\"onERC721Received(address,address,uint256,bytes)\"));\n    }\n\n    // events\n    event LogRefinement(uint _amountMinted);\n    event LogRefinerUpgraded(uint _newLevel);\n    // modifiers\n    modifier onlyOwner(address _address) {\n        require(_address == owner);\n        _;\n    }\n\n    modifier drillStaked(address _address) {\n        require(stakes[_address].timestamp > 0, \"drill not staked for this user\");\n        _;\n    }\n\n    // owner only\n    function setRefinerCapacity(uint _cap) public onlyOwner(msg.sender) {\n        refinerCapacity = _cap;\n    }\n\n    function updateRefinerEfficiency(\n        uint[] memory newEfficiencyList\n        ) public onlyOwner(msg.sender) {\n        for (uint i = 0; i < maxRefinerLevel; i++) {\n            require(newEfficiencyList[i] != 0, \"invalid input for available level\");\n        }\n        refinerEfficiency = newEfficiencyList;\n    }\n\n    function updateRefinerUpgradeRequirements(\n        uint[] memory newRefinerUpgradeRequirements\n    ) public onlyOwner(msg.sender) {\n        for (uint i = 0; i < maxRefinerLevel; i++) {\n            require(newRefinerUpgradeRequirements[i] != 0, \"invalid input for available level\");\n        }\n        refinerUpgradeRequirement = newRefinerUpgradeRequirements;\n    }\n\n    function updateMaxRefinerLevel(uint newLevel) public onlyOwner(msg.sender) {\n        maxRefinerLevel = newLevel;\n    }\n\n    // user interface\n    function stake(uint256 _drillId) public {\n        require(stakes[msg.sender].timestamp == 0, \"user already staked\");\n        drill.safeTransferFrom(msg.sender, address(this), _drillId);\n        stakes[msg.sender] = Stake(drill.getDrill(_drillId), block.timestamp);\n    }\n\n    function unstake() public {\n        require(stakes[msg.sender].timestamp > 0, \"drill not staked\");\n        drill.safeTransferFrom(address(this), msg.sender, stakes[msg.sender].drill.drillId);\n        delete stakes[msg.sender];\n    }\n\n    function collectResources() public {\n        Stake memory curStake = stakes[msg.sender];\n        uint miningMultiplier = drill.getDrillMiningPower(curStake.drill.drillId);\n        uint capacity = drill.getDrillCapacity(curStake.drill.drillId);\n        uint time = block.timestamp - curStake.timestamp;\n        uint amount = time * baseProduction / 100 * miningMultiplier / 100 * capacityPerUnit;\n        if (capacity < amount) {\n            amount = capacity;\n        }\n        iron.mint(msg.sender, amount);\n        stakes[msg.sender].timestamp = block.timestamp;\n    }\n\n    function refine(uint _amount) public {\n        uint timeSinceLastRefine = block.timestamp - lastRefined[msg.sender];\n        if (timeSinceLastRefine > 86400) {\n            timeSinceLastRefine = 86400;\n        }\n        require(_amount <= refinerCapacity * timeSinceLastRefine / 864000, \n                \"amount to refine exceeds daily capacity\");\n\n        iron.transferFrom(msg.sender, address(this), _amount);\n        uint userRefinerLevel = refinerLevel[msg.sender];\n        if (userRefinerLevel == 0) {\n            refinerLevel[msg.sender] = 1;\n            userRefinerLevel = 1;\n        }\n        uint amountToMint = _amount * refinerEfficiency[userRefinerLevel-1] / 100;\n        gold.mint(msg.sender, amountToMint);\n        lastRefined[msg.sender] = block.timestamp;\n        emit LogRefinement(amountToMint);\n    }\n\n    function upgradeRefiner() public {\n        if (refinerLevel[msg.sender] == 0) {\n            refinerLevel[msg.sender] = 1;\n        }\n        uint curLevel = refinerLevel[msg.sender];\n        require(curLevel < maxRefinerLevel, \"refiner at max level\");\n        uint requiredAmount = refinerUpgradeRequirement[curLevel - 1];\n        iron.transferFrom(msg.sender, address(this), requiredAmount);\n        refinerLevel[msg.sender] = curLevel + 1;\n        emit LogRefinerUpgraded(curLevel + 1);\n    }\n\n    // getters\n    function getStake(address _address) public view returns(Stake memory) {\n        return stakes[_address];\n    }\n\n    function getAccumulatedRocks() public view returns (uint) {\n        require(stakes[msg.sender].timestamp > 0, \"no drill staked\");\n        Stake memory curStake = stakes[msg.sender];\n        uint time = block.timestamp - curStake.timestamp;\n        uint miningMultiplier = drill.getDrillMiningPower(curStake.drill.drillId);\n        uint capacity = drill.getDrillCapacity(curStake.drill.drillId);\n        uint amount = time * baseProduction / 100 * miningMultiplier / 100 * capacityPerUnit;\n        if (capacity < amount) {\n            amount = capacity;\n        }\n        return amount;\n    }\n\n    function getBaseProduction() public view returns (uint) {\n        return baseProduction;\n    }\n\n    function getCapacityPerUnit() public view returns (uint) {\n        return capacityPerUnit;\n    }\n\n    function getRefinerCapacity() public view returns (uint) {\n        return refinerCapacity;\n    }\n\n    function getRefinerUpgradeRequirement() public view returns (uint) {\n        uint userRefinerLevel = refinerLevel[msg.sender];\n        if (userRefinerLevel == 0) {\n            userRefinerLevel = 1;\n        }\n        return refinerUpgradeRequirement[userRefinerLevel-1];\n    }\n\n}",
  "sourcePath": "/Users/aslan/Desktop/MineEmpireBackend/contracts/Asteroid-153814.sol",
  "compiler": {
    "name": "solc",
    "version": "0.8.11+commit.d7f03943.Emscripten.clang"
  },
  "schemaVersion": "3.4.3",
  "updatedAt": "2022-05-20T18:12:19.002Z",
  "devdoc": {
    "kind": "dev",
    "methods": {},
    "version": 1
  },
  "userdoc": {
    "kind": "user",
    "methods": {},
    "version": 1
  }
}