{
  "contractName": "BasicMiner",
  "abi": [
    {
      "inputs": [],
      "stateMutability": "nonpayable",
      "type": "constructor"
    },
    {
      "anonymous": false,
      "inputs": [
        {
          "indexed": true,
          "internalType": "address",
          "name": "owner",
          "type": "address"
        },
        {
          "indexed": true,
          "internalType": "address",
          "name": "approved",
          "type": "address"
        },
        {
          "indexed": true,
          "internalType": "uint256",
          "name": "tokenId",
          "type": "uint256"
        }
      ],
      "name": "Approval",
      "type": "event"
    },
    {
      "anonymous": false,
      "inputs": [
        {
          "indexed": true,
          "internalType": "address",
          "name": "owner",
          "type": "address"
        },
        {
          "indexed": true,
          "internalType": "address",
          "name": "operator",
          "type": "address"
        },
        {
          "indexed": false,
          "internalType": "bool",
          "name": "approved",
          "type": "bool"
        }
      ],
      "name": "ApprovalForAll",
      "type": "event"
    },
    {
      "anonymous": false,
      "inputs": [
        {
          "indexed": false,
          "internalType": "uint256",
          "name": "id",
          "type": "uint256"
        }
      ],
      "name": "LogMint",
      "type": "event"
    },
    {
      "anonymous": false,
      "inputs": [
        {
          "indexed": false,
          "internalType": "address",
          "name": "_address",
          "type": "address"
        }
      ],
      "name": "LogSetUpgrader",
      "type": "event"
    },
    {
      "anonymous": false,
      "inputs": [
        {
          "indexed": false,
          "internalType": "uint256",
          "name": "amount",
          "type": "uint256"
        }
      ],
      "name": "LogUpdateMintPrice",
      "type": "event"
    },
    {
      "anonymous": false,
      "inputs": [
        {
          "indexed": false,
          "internalType": "uint256",
          "name": "minerId",
          "type": "uint256"
        },
        {
          "indexed": false,
          "internalType": "uint256",
          "name": "newLevel",
          "type": "uint256"
        }
      ],
      "name": "LogUpgradeCapacityLevel",
      "type": "event"
    },
    {
      "anonymous": false,
      "inputs": [
        {
          "indexed": false,
          "internalType": "uint256",
          "name": "minerId",
          "type": "uint256"
        },
        {
          "indexed": false,
          "internalType": "uint256",
          "name": "newLevel",
          "type": "uint256"
        }
      ],
      "name": "LogUpgradeMiningLevel",
      "type": "event"
    },
    {
      "anonymous": false,
      "inputs": [
        {
          "indexed": true,
          "internalType": "address",
          "name": "from",
          "type": "address"
        },
        {
          "indexed": true,
          "internalType": "address",
          "name": "to",
          "type": "address"
        },
        {
          "indexed": true,
          "internalType": "uint256",
          "name": "tokenId",
          "type": "uint256"
        }
      ],
      "name": "Transfer",
      "type": "event"
    },
    {
      "inputs": [
        {
          "internalType": "uint256",
          "name": "",
          "type": "uint256"
        }
      ],
      "name": "allMiners",
      "outputs": [
        {
          "internalType": "uint256",
          "name": "minerId",
          "type": "uint256"
        },
        {
          "internalType": "uint256",
          "name": "miningLevel",
          "type": "uint256"
        },
        {
          "internalType": "uint256",
          "name": "capacityLevel",
          "type": "uint256"
        },
        {
          "internalType": "uint256",
          "name": "miningPower",
          "type": "uint256"
        },
        {
          "internalType": "uint256",
          "name": "coalCapacity",
          "type": "uint256"
        },
        {
          "internalType": "uint256",
          "name": "ironCapacity",
          "type": "uint256"
        },
        {
          "internalType": "uint256",
          "name": "silverCapacity",
          "type": "uint256"
        }
      ],
      "stateMutability": "view",
      "type": "function"
    },
    {
      "inputs": [
        {
          "internalType": "address",
          "name": "to",
          "type": "address"
        },
        {
          "internalType": "uint256",
          "name": "tokenId",
          "type": "uint256"
        }
      ],
      "name": "approve",
      "outputs": [],
      "stateMutability": "nonpayable",
      "type": "function"
    },
    {
      "inputs": [
        {
          "internalType": "address",
          "name": "owner",
          "type": "address"
        }
      ],
      "name": "balanceOf",
      "outputs": [
        {
          "internalType": "uint256",
          "name": "",
          "type": "uint256"
        }
      ],
      "stateMutability": "view",
      "type": "function"
    },
    {
      "inputs": [],
      "name": "coal",
      "outputs": [
        {
          "internalType": "contract Coal",
          "name": "",
          "type": "address"
        }
      ],
      "stateMutability": "view",
      "type": "function"
    },
    {
      "inputs": [
        {
          "internalType": "uint256",
          "name": "tokenId",
          "type": "uint256"
        }
      ],
      "name": "getApproved",
      "outputs": [
        {
          "internalType": "address",
          "name": "",
          "type": "address"
        }
      ],
      "stateMutability": "view",
      "type": "function"
    },
    {
      "inputs": [
        {
          "internalType": "address",
          "name": "owner",
          "type": "address"
        },
        {
          "internalType": "address",
          "name": "operator",
          "type": "address"
        }
      ],
      "name": "isApprovedForAll",
      "outputs": [
        {
          "internalType": "bool",
          "name": "",
          "type": "bool"
        }
      ],
      "stateMutability": "view",
      "type": "function"
    },
    {
      "inputs": [
        {
          "internalType": "uint256",
          "name": "",
          "type": "uint256"
        }
      ],
      "name": "minerMap",
      "outputs": [
        {
          "internalType": "uint256",
          "name": "minerId",
          "type": "uint256"
        },
        {
          "internalType": "uint256",
          "name": "miningLevel",
          "type": "uint256"
        },
        {
          "internalType": "uint256",
          "name": "capacityLevel",
          "type": "uint256"
        },
        {
          "internalType": "uint256",
          "name": "miningPower",
          "type": "uint256"
        },
        {
          "internalType": "uint256",
          "name": "coalCapacity",
          "type": "uint256"
        },
        {
          "internalType": "uint256",
          "name": "ironCapacity",
          "type": "uint256"
        },
        {
          "internalType": "uint256",
          "name": "silverCapacity",
          "type": "uint256"
        }
      ],
      "stateMutability": "view",
      "type": "function"
    },
    {
      "inputs": [],
      "name": "name",
      "outputs": [
        {
          "internalType": "string",
          "name": "",
          "type": "string"
        }
      ],
      "stateMutability": "view",
      "type": "function"
    },
    {
      "inputs": [],
      "name": "owner",
      "outputs": [
        {
          "internalType": "address",
          "name": "",
          "type": "address"
        }
      ],
      "stateMutability": "view",
      "type": "function"
    },
    {
      "inputs": [
        {
          "internalType": "uint256",
          "name": "tokenId",
          "type": "uint256"
        }
      ],
      "name": "ownerOf",
      "outputs": [
        {
          "internalType": "address",
          "name": "",
          "type": "address"
        }
      ],
      "stateMutability": "view",
      "type": "function"
    },
    {
      "inputs": [],
      "name": "rewardsTreasury",
      "outputs": [
        {
          "internalType": "address",
          "name": "",
          "type": "address"
        }
      ],
      "stateMutability": "view",
      "type": "function"
    },
    {
      "inputs": [
        {
          "internalType": "address",
          "name": "from",
          "type": "address"
        },
        {
          "internalType": "address",
          "name": "to",
          "type": "address"
        },
        {
          "internalType": "uint256",
          "name": "tokenId",
          "type": "uint256"
        }
      ],
      "name": "safeTransferFrom",
      "outputs": [],
      "stateMutability": "nonpayable",
      "type": "function"
    },
    {
      "inputs": [
        {
          "internalType": "address",
          "name": "from",
          "type": "address"
        },
        {
          "internalType": "address",
          "name": "to",
          "type": "address"
        },
        {
          "internalType": "uint256",
          "name": "tokenId",
          "type": "uint256"
        },
        {
          "internalType": "bytes",
          "name": "_data",
          "type": "bytes"
        }
      ],
      "name": "safeTransferFrom",
      "outputs": [],
      "stateMutability": "nonpayable",
      "type": "function"
    },
    {
      "inputs": [
        {
          "internalType": "address",
          "name": "operator",
          "type": "address"
        },
        {
          "internalType": "bool",
          "name": "approved",
          "type": "bool"
        }
      ],
      "name": "setApprovalForAll",
      "outputs": [],
      "stateMutability": "nonpayable",
      "type": "function"
    },
    {
      "inputs": [
        {
          "internalType": "bytes4",
          "name": "interfaceId",
          "type": "bytes4"
        }
      ],
      "name": "supportsInterface",
      "outputs": [
        {
          "internalType": "bool",
          "name": "",
          "type": "bool"
        }
      ],
      "stateMutability": "view",
      "type": "function"
    },
    {
      "inputs": [],
      "name": "symbol",
      "outputs": [
        {
          "internalType": "string",
          "name": "",
          "type": "string"
        }
      ],
      "stateMutability": "view",
      "type": "function"
    },
    {
      "inputs": [
        {
          "internalType": "uint256",
          "name": "tokenId",
          "type": "uint256"
        }
      ],
      "name": "tokenURI",
      "outputs": [
        {
          "internalType": "string",
          "name": "",
          "type": "string"
        }
      ],
      "stateMutability": "view",
      "type": "function"
    },
    {
      "inputs": [
        {
          "internalType": "address",
          "name": "from",
          "type": "address"
        },
        {
          "internalType": "address",
          "name": "to",
          "type": "address"
        },
        {
          "internalType": "uint256",
          "name": "tokenId",
          "type": "uint256"
        }
      ],
      "name": "transferFrom",
      "outputs": [],
      "stateMutability": "nonpayable",
      "type": "function"
    },
    {
      "inputs": [
        {
          "internalType": "address",
          "name": "_addr",
          "type": "address"
        }
      ],
      "name": "setCoal",
      "outputs": [],
      "stateMutability": "nonpayable",
      "type": "function"
    },
    {
      "inputs": [],
      "name": "getCoal",
      "outputs": [
        {
          "internalType": "address",
          "name": "",
          "type": "address"
        }
      ],
      "stateMutability": "view",
      "type": "function"
    },
    {
      "inputs": [
        {
          "internalType": "address",
          "name": "_addr",
          "type": "address"
        }
      ],
      "name": "setRewardsTreasury",
      "outputs": [],
      "stateMutability": "nonpayable",
      "type": "function"
    },
    {
      "inputs": [
        {
          "internalType": "uint256",
          "name": "_minerId",
          "type": "uint256"
        }
      ],
      "name": "getMiner",
      "outputs": [
        {
          "components": [
            {
              "internalType": "uint256",
              "name": "minerId",
              "type": "uint256"
            },
            {
              "internalType": "uint256",
              "name": "miningLevel",
              "type": "uint256"
            },
            {
              "internalType": "uint256",
              "name": "capacityLevel",
              "type": "uint256"
            },
            {
              "internalType": "uint256",
              "name": "miningPower",
              "type": "uint256"
            },
            {
              "internalType": "uint256",
              "name": "coalCapacity",
              "type": "uint256"
            },
            {
              "internalType": "uint256",
              "name": "ironCapacity",
              "type": "uint256"
            },
            {
              "internalType": "uint256",
              "name": "silverCapacity",
              "type": "uint256"
            }
          ],
          "internalType": "struct BasicMiner.Miner",
          "name": "",
          "type": "tuple"
        }
      ],
      "stateMutability": "view",
      "type": "function"
    },
    {
      "inputs": [],
      "name": "getAllMiners",
      "outputs": [
        {
          "components": [
            {
              "internalType": "uint256",
              "name": "minerId",
              "type": "uint256"
            },
            {
              "internalType": "uint256",
              "name": "miningLevel",
              "type": "uint256"
            },
            {
              "internalType": "uint256",
              "name": "capacityLevel",
              "type": "uint256"
            },
            {
              "internalType": "uint256",
              "name": "miningPower",
              "type": "uint256"
            },
            {
              "internalType": "uint256",
              "name": "coalCapacity",
              "type": "uint256"
            },
            {
              "internalType": "uint256",
              "name": "ironCapacity",
              "type": "uint256"
            },
            {
              "internalType": "uint256",
              "name": "silverCapacity",
              "type": "uint256"
            }
          ],
          "internalType": "struct BasicMiner.Miner[]",
          "name": "",
          "type": "tuple[]"
        }
      ],
      "stateMutability": "view",
      "type": "function"
    },
    {
      "inputs": [
        {
          "internalType": "uint256",
          "name": "_minerId",
          "type": "uint256"
        }
      ],
      "name": "getMinerOwner",
      "outputs": [
        {
          "internalType": "address",
          "name": "",
          "type": "address"
        }
      ],
      "stateMutability": "view",
      "type": "function"
    },
    {
      "inputs": [],
      "name": "mintMiner",
      "outputs": [],
      "stateMutability": "payable",
      "type": "function"
    },
    {
      "inputs": [
        {
          "internalType": "uint256",
          "name": "newPrice",
          "type": "uint256"
        }
      ],
      "name": "setMintPrice",
      "outputs": [],
      "stateMutability": "nonpayable",
      "type": "function"
    },
    {
      "inputs": [],
      "name": "getMintPrice",
      "outputs": [
        {
          "internalType": "uint256",
          "name": "",
          "type": "uint256"
        }
      ],
      "stateMutability": "view",
      "type": "function"
    },
    {
      "inputs": [
        {
          "internalType": "uint256",
          "name": "_minerId",
          "type": "uint256"
        }
      ],
      "name": "getMiningLevelUpgradeRequirements",
      "outputs": [
        {
          "internalType": "uint256[4]",
          "name": "",
          "type": "uint256[4]"
        }
      ],
      "stateMutability": "view",
      "type": "function"
    },
    {
      "inputs": [
        {
          "internalType": "uint256",
          "name": "_minerId",
          "type": "uint256"
        }
      ],
      "name": "upgradeMiningLevel",
      "outputs": [],
      "stateMutability": "nonpayable",
      "type": "function"
    },
    {
      "inputs": [
        {
          "internalType": "uint256",
          "name": "_minerId",
          "type": "uint256"
        }
      ],
      "name": "upgradeMiningCapacity",
      "outputs": [],
      "stateMutability": "nonpayable",
      "type": "function"
    },
    {
      "inputs": [
        {
          "internalType": "uint256",
          "name": "_minerId",
          "type": "uint256"
        },
        {
          "internalType": "uint256",
          "name": "capacity",
          "type": "uint256"
        }
      ],
      "name": "setSilverCapacity",
      "outputs": [],
      "stateMutability": "nonpayable",
      "type": "function"
    }
  ],
  "bytecode": "0x608060405260016007556101f46008556801158e460913d000006009556001600a556001600b556064600c556753444835ec580000600d556716345785d8a00000600e556702c68af0bb140000600f553480156200005c57600080fd5b506040518060400160405280600581526020017f4d696e65720000000000000000000000000000000000000000000000000000008152506040518060400160405280600581526020017f4d494e45520000000000000000000000000000000000000000000000000000008152508160009080519060200190620000e192919062000492565b508060019080519060200190620000fa92919062000492565b50505033600660006101000a81548173ffffffffffffffffffffffffffffffffffffffff021916908373ffffffffffffffffffffffffffffffffffffffff1602179055506040518060800160405280606460ff168152602001600060ff168152602001600060ff168152602001600060ff1681525060126000600981106200018757620001866200058c565b5b600402019060046200019b92919062000523565b506040518060800160405280606460ff168152602001600060ff168152602001600060ff168152602001600060ff168152506012600160098110620001e557620001e46200058c565b5b60040201906004620001f992919062000523565b506040518060800160405280606460ff168152602001600060ff168152602001600060ff168152602001600060ff1681525060126002600981106200024357620002426200058c565b5b600402019060046200025792919062000523565b506040518060800160405280606460ff168152602001600060ff168152602001600060ff168152602001600060ff168152506012600360098110620002a157620002a06200058c565b5b60040201906004620002b592919062000523565b506040518060800160405280606460ff168152602001600060ff168152602001600060ff168152602001600060ff168152506012600460098110620002ff57620002fe6200058c565b5b600402019060046200031392919062000523565b506040518060800160405280606460ff168152602001600060ff168152602001600060ff168152602001600060ff1681525060126005600981106200035d576200035c6200058c565b5b600402019060046200037192919062000523565b506040518060800160405280606460ff168152602001600060ff168152602001600060ff168152602001600060ff168152506012600660098110620003bb57620003ba6200058c565b5b60040201906004620003cf92919062000523565b506040518060800160405280606460ff168152602001600060ff168152602001600060ff168152602001600060ff1681525060126007600981106200041957620004186200058c565b5b600402019060046200042d92919062000523565b506040518060800160405280606460ff168152602001600060ff168152602001600060ff168152602001600060ff1681525060126008600981106200047757620004766200058c565b5b600402019060046200048b92919062000523565b5062000620565b828054620004a090620005ea565b90600052602060002090601f016020900481019282620004c4576000855562000510565b82601f10620004df57805160ff191683800117855562000510565b8280016001018555821562000510579182015b828111156200050f578251825591602001919060010190620004f2565b5b5090506200051f91906200056d565b5090565b82600481019282156200055a579160200282015b8281111562000559578251829060ff1690559160200191906001019062000537565b5b5090506200056991906200056d565b5090565b5b80821115620005885760008160009055506001016200056e565b5090565b7f4e487b7100000000000000000000000000000000000000000000000000000000600052603260045260246000fd5b7f4e487b7100000000000000000000000000000000000000000000000000000000600052602260045260246000fd5b600060028204905060018216806200060357607f821691505b602082108114156200061a5762000619620005bb565b5b50919050565b613de780620006306000396000f3fe6080604052600436106101d75760003560e01c806383daa1df11610102578063be781cb611610095578063ce1fd38011610064578063ce1fd380146106f2578063e985e9c51461071b578063f4a0a52814610758578063fdbcd10114610781576101d7565b8063be781cb614610624578063c04bef721461064f578063c87b56dd14610678578063ca01bf78146106b5576101d7565b8063a7f93ebd116100d1578063a7f93ebd14610562578063ae5820131461058d578063b7f583b7146105d0578063b88d4fde146105fb576101d7565b806383daa1df146104ba5780638da5cb5b146104e357806395d89b411461050e578063a22cb46514610539576101d7565b806323b872dd1161017a57806342842e0e1161014957806342842e0e146103ec5780634b17bf30146104155780636352211e1461044057806370a082311461047d576101d7565b806323b872dd1461031a578063241f46561461034357806334b6b7aa146103865780633cc8f306146103af576101d7565b8063078f4463116101b6578063078f446314610281578063081812fc1461028b578063095ea7b3146102c85780630baf0a48146102f1576101d7565b80622d958c146101dc57806301ffc9a71461021957806306fdde0314610256575b600080fd5b3480156101e857600080fd5b5061020360048036038101906101fe91906127d7565b6107ac565b6040516102109190612845565b60405180910390f35b34801561022557600080fd5b50610240600480360381019061023b91906128b8565b6107be565b60405161024d9190612900565b60405180910390f35b34801561026257600080fd5b5061026b6108a0565b60405161027891906129b4565b60405180910390f35b610289610932565b005b34801561029757600080fd5b506102b260048036038101906102ad91906127d7565b610aca565b6040516102bf9190612845565b60405180910390f35b3480156102d457600080fd5b506102ef60048036038101906102ea9190612a02565b610b4f565b005b3480156102fd57600080fd5b5061031860048036038101906103139190612a42565b610c67565b005b34801561032657600080fd5b50610341600480360381019061033c9190612a6f565b610d07565b005b34801561034f57600080fd5b5061036a600480360381019061036591906127d7565b610d67565b60405161037d9796959493929190612ad1565b60405180910390f35b34801561039257600080fd5b506103ad60048036038101906103a891906127d7565b610da9565b005b3480156103bb57600080fd5b506103d660048036038101906103d191906127d7565b610f62565b6040516103e39190612bdd565b60405180910390f35b3480156103f857600080fd5b50610413600480360381019061040e9190612a6f565b610fd5565b005b34801561042157600080fd5b5061042a610ff5565b6040516104379190612d35565b60405180910390f35b34801561044c57600080fd5b50610467600480360381019061046291906127d7565b61109a565b6040516104749190612845565b60405180910390f35b34801561048957600080fd5b506104a4600480360381019061049f9190612a42565b61114c565b6040516104b19190612d57565b60405180910390f35b3480156104c657600080fd5b506104e160048036038101906104dc9190612d72565b611204565b005b3480156104ef57600080fd5b506104f8611223565b6040516105059190612845565b60405180910390f35b34801561051a57600080fd5b50610523611249565b60405161053091906129b4565b60405180910390f35b34801561054557600080fd5b50610560600480360381019061055b9190612dde565b6112db565b005b34801561056e57600080fd5b506105776112f1565b6040516105849190612d57565b60405180910390f35b34801561059957600080fd5b506105b460048036038101906105af91906127d7565b6112fb565b6040516105c79796959493929190612ad1565b60405180910390f35b3480156105dc57600080fd5b506105e561134d565b6040516105f29190612845565b60405180910390f35b34801561060757600080fd5b50610622600480360381019061061d9190612f53565b611373565b005b34801561063057600080fd5b506106396113d5565b6040516106469190612845565b60405180910390f35b34801561065b57600080fd5b50610676600480360381019061067191906127d7565b6113ff565b005b34801561068457600080fd5b5061069f600480360381019061069a91906127d7565b611691565b6040516106ac91906129b4565b60405180910390f35b3480156106c157600080fd5b506106dc60048036038101906106d791906127d7565b611738565b6040516106e99190613072565b60405180910390f35b3480156106fe57600080fd5b5061071960048036038101906107149190612a42565b611805565b005b34801561072757600080fd5b50610742600480360381019061073d919061308d565b6118a5565b60405161074f9190612900565b60405180910390f35b34801561076457600080fd5b5061077f600480360381019061077a91906127d7565b611939565b005b34801561078d57600080fd5b506107966119d6565b6040516107a3919061312c565b60405180910390f35b60006107b78261109a565b9050919050565b60007f80ac58cd000000000000000000000000000000000000000000000000000000007bffffffffffffffffffffffffffffffffffffffffffffffffffffffff1916827bffffffffffffffffffffffffffffffffffffffffffffffffffffffff1916148061088957507f5b5e139f000000000000000000000000000000000000000000000000000000007bffffffffffffffffffffffffffffffffffffffffffffffffffffffff1916827bffffffffffffffffffffffffffffffffffffffffffffffffffffffff1916145b806108995750610898826119fc565b5b9050919050565b6060600080546108af90613176565b80601f01602080910402602001604051908101604052809291908181526020018280546108db90613176565b80156109285780601f106108fd57610100808354040283529160200191610928565b820191906000526020600020905b81548152906001019060200180831161090b57829003601f168201915b5050505050905090565b34600954811461094157600080fd5b6008546007541061095157600080fd5b60006040518060e001604052806007548152602001600a548152602001600b548152602001600c548152602001600d548152602001600e548152602001600f5481525090506036819080600181540180825580915050600190039060005260206000209060070201600090919091909150600082015181600001556020820151816001015560408201518160020155606082015181600301556080820151816004015560a0820151816005015560c08201518160060155505080603760006007548152602001908152602001600020600082015181600001556020820151816001015560408201518160020155606082015181600301556080820151816004015560a0820151816005015560c08201518160060155905050610a7533600754611a66565b7f0498f141021087adeadd3da265ebdbfd15a902d680b2036004bdfee5e8d760e5600754604051610aa69190612d57565b60405180910390a160076000815480929190610ac1906131d7565b91905055505050565b6000610ad582611a84565b610b14576040517f08c379a0000000000000000000000000000000000000000000000000000000008152600401610b0b90613292565b60405180910390fd5b6004600083815260200190815260200160002060009054906101000a900473ffffffffffffffffffffffffffffffffffffffff169050919050565b6000610b5a8261109a565b90508073ffffffffffffffffffffffffffffffffffffffff168373ffffffffffffffffffffffffffffffffffffffff161415610bcb576040517f08c379a0000000000000000000000000000000000000000000000000000000008152600401610bc290613324565b60405180910390fd5b8073ffffffffffffffffffffffffffffffffffffffff16610bea611af0565b73ffffffffffffffffffffffffffffffffffffffff161480610c195750610c1881610c13611af0565b6118a5565b5b610c58576040517f08c379a0000000000000000000000000000000000000000000000000000000008152600401610c4f906133b6565b60405180910390fd5b610c628383611af8565b505050565b338073ffffffffffffffffffffffffffffffffffffffff16600660009054906101000a900473ffffffffffffffffffffffffffffffffffffffff1673ffffffffffffffffffffffffffffffffffffffff1614610cc257600080fd5b81601160006101000a81548173ffffffffffffffffffffffffffffffffffffffff021916908373ffffffffffffffffffffffffffffffffffffffff1602179055505050565b610d18610d12611af0565b82611bb1565b610d57576040517f08c379a0000000000000000000000000000000000000000000000000000000008152600401610d4e90613448565b60405180910390fd5b610d62838383611c8f565b505050565b60376020528060005260406000206000915090508060000154908060010154908060020154908060030154908060040154908060050154908060060154905087565b806000603760008381526020019081526020016000206000015411610dcd57600080fd5b3373ffffffffffffffffffffffffffffffffffffffff16610ded8361109a565b73ffffffffffffffffffffffffffffffffffffffff1614610e43576040517f08c379a0000000000000000000000000000000000000000000000000000000008152600401610e3a906134b4565b60405180910390fd5b6000603760008481526020019081526020016000206040518060e00160405290816000820154815260200160018201548152602001600282015481526020016003820154815260200160048201548152602001600582015481526020016006820154815250509050600081604001519050600a811115610ef8576040517f08c379a0000000000000000000000000000000000000000000000000000000008152600401610eef90613520565b60405180910390fd5b610f0e84600183610f099190613540565b611ef6565b610f288460018460800151610f239190613540565b611f4e565b610f428460018460a00151610f3d9190613540565b611f6d565b610f5c8460018460c00151610f579190613540565b611204565b50505050565b610f6a61272e565b603760008381526020019081526020016000206040518060e00160405290816000820154815260200160018201548152602001600282015481526020016003820154815260200160048201548152602001600582015481526020016006820154815250509050919050565b610ff083838360405180602001604052806000815250611373565b505050565b60606036805480602002602001604051908101604052809291908181526020016000905b8282101561109157838290600052602060002090600702016040518060e001604052908160008201548152602001600182015481526020016002820154815260200160038201548152602001600482015481526020016005820154815260200160068201548152505081526020019060010190611019565b50505050905090565b6000806002600084815260200190815260200160002060009054906101000a900473ffffffffffffffffffffffffffffffffffffffff169050600073ffffffffffffffffffffffffffffffffffffffff168173ffffffffffffffffffffffffffffffffffffffff161415611143576040517f08c379a000000000000000000000000000000000000000000000000000000000815260040161113a90613608565b60405180910390fd5b80915050919050565b60008073ffffffffffffffffffffffffffffffffffffffff168273ffffffffffffffffffffffffffffffffffffffff1614156111bd576040517f08c379a00000000000000000000000000000000000000000000000000000000081526004016111b49061369a565b60405180910390fd5b600360008373ffffffffffffffffffffffffffffffffffffffff1673ffffffffffffffffffffffffffffffffffffffff168152602001908152602001600020549050919050565b8060376000848152602001908152602001600020600601819055505050565b600660009054906101000a900473ffffffffffffffffffffffffffffffffffffffff1681565b60606001805461125890613176565b80601f016020809104026020016040519081016040528092919081815260200182805461128490613176565b80156112d15780601f106112a6576101008083540402835291602001916112d1565b820191906000526020600020905b8154815290600101906020018083116112b457829003601f168201915b5050505050905090565b6112ed6112e6611af0565b8383611f8c565b5050565b6000600954905090565b6036818154811061130b57600080fd5b90600052602060002090600702016000915090508060000154908060010154908060020154908060030154908060040154908060050154908060060154905087565b601160009054906101000a900473ffffffffffffffffffffffffffffffffffffffff1681565b61138461137e611af0565b83611bb1565b6113c3576040517f08c379a00000000000000000000000000000000000000000000000000000000081526004016113ba90613448565b60405180910390fd5b6113cf848484846120f9565b50505050565b6000601060009054906101000a900473ffffffffffffffffffffffffffffffffffffffff16905090565b80600060376000838152602001908152602001600020600001541161142357600080fd5b3373ffffffffffffffffffffffffffffffffffffffff166114438361109a565b73ffffffffffffffffffffffffffffffffffffffff1614611499576040517f08c379a0000000000000000000000000000000000000000000000000000000008152600401611490906134b4565b60405180910390fd5b6000603760008481526020019081526020016000206040518060e00160405290816000820154815260200160018201548152602001600282015481526020016003820154815260200160048201548152602001600582015481526020016006820154815250509050600081602001519050600a81111561154e576040517f08c379a000000000000000000000000000000000000000000000000000000000815260040161154590613520565b60405180910390fd5b6000601260018361155f91906136ba565b600981106115705761156f6136ee565b5b60040201600060048110611587576115866136ee565b5b01549050600081111561165a57601060009054906101000a900473ffffffffffffffffffffffffffffffffffffffff1673ffffffffffffffffffffffffffffffffffffffff166323b872dd33601160009054906101000a900473ffffffffffffffffffffffffffffffffffffffff16846040518463ffffffff1660e01b81526004016116159392919061371d565b6020604051808303816000875af1158015611634573d6000803e3d6000fd5b505050506040513d601f19601f820116820180604052508101906116589190613769565b505b6116708560018461166b9190613540565b612155565b61168a85600185606001516116859190613540565b6121ad565b5050505050565b606061169c82611a84565b6116db576040517f08c379a00000000000000000000000000000000000000000000000000000000081526004016116d290613808565b60405180910390fd5b60006116e56121cc565b905060008151116117055760405180602001604052806000815250611730565b8061170f846121e3565b604051602001611720929190613864565b6040516020818303038152906040525b915050919050565b61174061276b565b81600060376000838152602001908152602001600020600001541161176457600080fd5b60006037600085815260200190815260200160002060010154905061178761276b565b600a82141561179a5780935050506117ff565b60126001836117a991906136ba565b600981106117ba576117b96136ee565b5b600402016004806020026040519081016040528092919082600480156117f5576020028201915b8154815260200190600101908083116117e1575b5050505050935050505b50919050565b338073ffffffffffffffffffffffffffffffffffffffff16600660009054906101000a900473ffffffffffffffffffffffffffffffffffffffff1673ffffffffffffffffffffffffffffffffffffffff161461186057600080fd5b81601060006101000a81548173ffffffffffffffffffffffffffffffffffffffff021916908373ffffffffffffffffffffffffffffffffffffffff1602179055505050565b6000600560008473ffffffffffffffffffffffffffffffffffffffff1673ffffffffffffffffffffffffffffffffffffffff16815260200190815260200160002060008373ffffffffffffffffffffffffffffffffffffffff1673ffffffffffffffffffffffffffffffffffffffff16815260200190815260200160002060009054906101000a900460ff16905092915050565b338073ffffffffffffffffffffffffffffffffffffffff16600660009054906101000a900473ffffffffffffffffffffffffffffffffffffffff1673ffffffffffffffffffffffffffffffffffffffff161461199457600080fd5b816009819055507f74cfa1b0ed3ecb819a7377703d1556252b9910967fc283c57013860976e840d1826040516119ca9190612d57565b60405180910390a15050565b601060009054906101000a900473ffffffffffffffffffffffffffffffffffffffff1681565b60007f01ffc9a7000000000000000000000000000000000000000000000000000000007bffffffffffffffffffffffffffffffffffffffffffffffffffffffff1916827bffffffffffffffffffffffffffffffffffffffffffffffffffffffff1916149050919050565b611a80828260405180602001604052806000815250612344565b5050565b60008073ffffffffffffffffffffffffffffffffffffffff166002600084815260200190815260200160002060009054906101000a900473ffffffffffffffffffffffffffffffffffffffff1673ffffffffffffffffffffffffffffffffffffffff1614159050919050565b600033905090565b816004600083815260200190815260200160002060006101000a81548173ffffffffffffffffffffffffffffffffffffffff021916908373ffffffffffffffffffffffffffffffffffffffff160217905550808273ffffffffffffffffffffffffffffffffffffffff16611b6b8361109a565b73ffffffffffffffffffffffffffffffffffffffff167f8c5be1e5ebec7d5bd14f71427d1e84f3dd0314c0f7b2291e5b200ac8c7c3b92560405160405180910390a45050565b6000611bbc82611a84565b611bfb576040517f08c379a0000000000000000000000000000000000000000000000000000000008152600401611bf2906138fa565b60405180910390fd5b6000611c068361109a565b90508073ffffffffffffffffffffffffffffffffffffffff168473ffffffffffffffffffffffffffffffffffffffff161480611c7557508373ffffffffffffffffffffffffffffffffffffffff16611c5d84610aca565b73ffffffffffffffffffffffffffffffffffffffff16145b80611c865750611c8581856118a5565b5b91505092915050565b8273ffffffffffffffffffffffffffffffffffffffff16611caf8261109a565b73ffffffffffffffffffffffffffffffffffffffff1614611d05576040517f08c379a0000000000000000000000000000000000000000000000000000000008152600401611cfc9061398c565b60405180910390fd5b600073ffffffffffffffffffffffffffffffffffffffff168273ffffffffffffffffffffffffffffffffffffffff161415611d75576040517f08c379a0000000000000000000000000000000000000000000000000000000008152600401611d6c90613a1e565b60405180910390fd5b611d8083838361239f565b611d8b600082611af8565b6001600360008573ffffffffffffffffffffffffffffffffffffffff1673ffffffffffffffffffffffffffffffffffffffff1681526020019081526020016000206000828254611ddb91906136ba565b925050819055506001600360008473ffffffffffffffffffffffffffffffffffffffff1673ffffffffffffffffffffffffffffffffffffffff1681526020019081526020016000206000828254611e329190613540565b92505081905550816002600083815260200190815260200160002060006101000a81548173ffffffffffffffffffffffffffffffffffffffff021916908373ffffffffffffffffffffffffffffffffffffffff160217905550808273ffffffffffffffffffffffffffffffffffffffff168473ffffffffffffffffffffffffffffffffffffffff167fddf252ad1be2c89b69c2b068fc378daa952ba7f163c4a11628f55a4df523b3ef60405160405180910390a4611ef18383836123a4565b505050565b8060376000848152602001908152602001600020600201819055507fa65d8ae65d3d06fefe9840ef1c04489e46a637811aa230c57558487ae2eeaa248282604051611f42929190613a3e565b60405180910390a15050565b8060376000848152602001908152602001600020600401819055505050565b8060376000848152602001908152602001600020600501819055505050565b8173ffffffffffffffffffffffffffffffffffffffff168373ffffffffffffffffffffffffffffffffffffffff161415611ffb576040517f08c379a0000000000000000000000000000000000000000000000000000000008152600401611ff290613ab3565b60405180910390fd5b80600560008573ffffffffffffffffffffffffffffffffffffffff1673ffffffffffffffffffffffffffffffffffffffff16815260200190815260200160002060008473ffffffffffffffffffffffffffffffffffffffff1673ffffffffffffffffffffffffffffffffffffffff16815260200190815260200160002060006101000a81548160ff0219169083151502179055508173ffffffffffffffffffffffffffffffffffffffff168373ffffffffffffffffffffffffffffffffffffffff167f17307eab39ab6107e8899845ad3d59bd9653f200f220920489ca2b5937696c31836040516120ec9190612900565b60405180910390a3505050565b612104848484611c8f565b612110848484846123a9565b61214f576040517f08c379a000000000000000000000000000000000000000000000000000000000815260040161214690613b45565b60405180910390fd5b50505050565b8060376000848152602001908152602001600020600101819055507f748879fdcc18483ec14f32063ca5a7a1dfdd276afa51426cbdfb908af8d4782382826040516121a1929190613a3e565b60405180910390a15050565b8060376000848152602001908152602001600020600301819055505050565b606060405180602001604052806000815250905090565b6060600082141561222b576040518060400160405280600181526020017f3000000000000000000000000000000000000000000000000000000000000000815250905061233f565b600082905060005b6000821461225d578080612246906131d7565b915050600a826122569190613b94565b9150612233565b60008167ffffffffffffffff81111561227957612278612e28565b5b6040519080825280601f01601f1916602001820160405280156122ab5781602001600182028036833780820191505090505b5090505b60008514612338576001826122c491906136ba565b9150600a856122d39190613bc5565b60306122df9190613540565b60f81b8183815181106122f5576122f46136ee565b5b60200101907effffffffffffffffffffffffffffffffffffffffffffffffffffffffffffff1916908160001a905350600a856123319190613b94565b94506122af565b8093505050505b919050565b61234e8383612531565b61235b60008484846123a9565b61239a576040517f08c379a000000000000000000000000000000000000000000000000000000000815260040161239190613b45565b60405180910390fd5b505050565b505050565b505050565b60006123ca8473ffffffffffffffffffffffffffffffffffffffff1661270b565b15612524578373ffffffffffffffffffffffffffffffffffffffff1663150b7a026123f3611af0565b8786866040518563ffffffff1660e01b81526004016124159493929190613c4b565b6020604051808303816000875af192505050801561245157506040513d601f19601f8201168201806040525081019061244e9190613cac565b60015b6124d4573d8060008114612481576040519150601f19603f3d011682016040523d82523d6000602084013e612486565b606091505b506000815114156124cc576040517f08c379a00000000000000000000000000000000000000000000000000000000081526004016124c390613b45565b60405180910390fd5b805181602001fd5b63150b7a0260e01b7bffffffffffffffffffffffffffffffffffffffffffffffffffffffff1916817bffffffffffffffffffffffffffffffffffffffffffffffffffffffff191614915050612529565b600190505b949350505050565b600073ffffffffffffffffffffffffffffffffffffffff168273ffffffffffffffffffffffffffffffffffffffff1614156125a1576040517f08c379a000000000000000000000000000000000000000000000000000000000815260040161259890613d25565b60405180910390fd5b6125aa81611a84565b156125ea576040517f08c379a00000000000000000000000000000000000000000000000000000000081526004016125e190613d91565b60405180910390fd5b6125f66000838361239f565b6001600360008473ffffffffffffffffffffffffffffffffffffffff1673ffffffffffffffffffffffffffffffffffffffff16815260200190815260200160002060008282546126469190613540565b92505081905550816002600083815260200190815260200160002060006101000a81548173ffffffffffffffffffffffffffffffffffffffff021916908373ffffffffffffffffffffffffffffffffffffffff160217905550808273ffffffffffffffffffffffffffffffffffffffff16600073ffffffffffffffffffffffffffffffffffffffff167fddf252ad1be2c89b69c2b068fc378daa952ba7f163c4a11628f55a4df523b3ef60405160405180910390a4612707600083836123a4565b5050565b6000808273ffffffffffffffffffffffffffffffffffffffff163b119050919050565b6040518060e00160405280600081526020016000815260200160008152602001600081526020016000815260200160008152602001600081525090565b6040518060800160405280600490602082028036833780820191505090505090565b6000604051905090565b600080fd5b600080fd5b6000819050919050565b6127b4816127a1565b81146127bf57600080fd5b50565b6000813590506127d1816127ab565b92915050565b6000602082840312156127ed576127ec612797565b5b60006127fb848285016127c2565b91505092915050565b600073ffffffffffffffffffffffffffffffffffffffff82169050919050565b600061282f82612804565b9050919050565b61283f81612824565b82525050565b600060208201905061285a6000830184612836565b92915050565b60007fffffffff0000000000000000000000000000000000000000000000000000000082169050919050565b61289581612860565b81146128a057600080fd5b50565b6000813590506128b28161288c565b92915050565b6000602082840312156128ce576128cd612797565b5b60006128dc848285016128a3565b91505092915050565b60008115159050919050565b6128fa816128e5565b82525050565b600060208201905061291560008301846128f1565b92915050565b600081519050919050565b600082825260208201905092915050565b60005b8381101561295557808201518184015260208101905061293a565b83811115612964576000848401525b50505050565b6000601f19601f8301169050919050565b60006129868261291b565b6129908185612926565b93506129a0818560208601612937565b6129a98161296a565b840191505092915050565b600060208201905081810360008301526129ce818461297b565b905092915050565b6129df81612824565b81146129ea57600080fd5b50565b6000813590506129fc816129d6565b92915050565b60008060408385031215612a1957612a18612797565b5b6000612a27858286016129ed565b9250506020612a38858286016127c2565b9150509250929050565b600060208284031215612a5857612a57612797565b5b6000612a66848285016129ed565b91505092915050565b600080600060608486031215612a8857612a87612797565b5b6000612a96868287016129ed565b9350506020612aa7868287016129ed565b9250506040612ab8868287016127c2565b9150509250925092565b612acb816127a1565b82525050565b600060e082019050612ae6600083018a612ac2565b612af36020830189612ac2565b612b006040830188612ac2565b612b0d6060830187612ac2565b612b1a6080830186612ac2565b612b2760a0830185612ac2565b612b3460c0830184612ac2565b98975050505050505050565b612b49816127a1565b82525050565b60e082016000820151612b656000850182612b40565b506020820151612b786020850182612b40565b506040820151612b8b6040850182612b40565b506060820151612b9e6060850182612b40565b506080820151612bb16080850182612b40565b5060a0820151612bc460a0850182612b40565b5060c0820151612bd760c0850182612b40565b50505050565b600060e082019050612bf26000830184612b4f565b92915050565b600081519050919050565b600082825260208201905092915050565b6000819050602082019050919050565b60e082016000820151612c3a6000850182612b40565b506020820151612c4d6020850182612b40565b506040820151612c606040850182612b40565b506060820151612c736060850182612b40565b506080820151612c866080850182612b40565b5060a0820151612c9960a0850182612b40565b5060c0820151612cac60c0850182612b40565b50505050565b6000612cbe8383612c24565b60e08301905092915050565b6000602082019050919050565b6000612ce282612bf8565b612cec8185612c03565b9350612cf783612c14565b8060005b83811015612d28578151612d0f8882612cb2565b9750612d1a83612cca565b925050600181019050612cfb565b5085935050505092915050565b60006020820190508181036000830152612d4f8184612cd7565b905092915050565b6000602082019050612d6c6000830184612ac2565b92915050565b60008060408385031215612d8957612d88612797565b5b6000612d97858286016127c2565b9250506020612da8858286016127c2565b9150509250929050565b612dbb816128e5565b8114612dc657600080fd5b50565b600081359050612dd881612db2565b92915050565b60008060408385031215612df557612df4612797565b5b6000612e03858286016129ed565b9250506020612e1485828601612dc9565b9150509250929050565b600080fd5b600080fd5b7f4e487b7100000000000000000000000000000000000000000000000000000000600052604160045260246000fd5b612e608261296a565b810181811067ffffffffffffffff82111715612e7f57612e7e612e28565b5b80604052505050565b6000612e9261278d565b9050612e9e8282612e57565b919050565b600067ffffffffffffffff821115612ebe57612ebd612e28565b5b612ec78261296a565b9050602081019050919050565b82818337600083830152505050565b6000612ef6612ef184612ea3565b612e88565b905082815260208101848484011115612f1257612f11612e23565b5b612f1d848285612ed4565b509392505050565b600082601f830112612f3a57612f39612e1e565b5b8135612f4a848260208601612ee3565b91505092915050565b60008060008060808587031215612f6d57612f6c612797565b5b6000612f7b878288016129ed565b9450506020612f8c878288016129ed565b9350506040612f9d878288016127c2565b925050606085013567ffffffffffffffff811115612fbe57612fbd61279c565b5b612fca87828801612f25565b91505092959194509250565b600060049050919050565b600081905092915050565b6000819050919050565b60006130028383612b40565b60208301905092915050565b6000602082019050919050565b61302481612fd6565b61302e8184612fe1565b925061303982612fec565b8060005b8381101561306a5781516130518782612ff6565b965061305c8361300e565b92505060018101905061303d565b505050505050565b6000608082019050613087600083018461301b565b92915050565b600080604083850312156130a4576130a3612797565b5b60006130b2858286016129ed565b92505060206130c3858286016129ed565b9150509250929050565b6000819050919050565b60006130f26130ed6130e884612804565b6130cd565b612804565b9050919050565b6000613104826130d7565b9050919050565b6000613116826130f9565b9050919050565b6131268161310b565b82525050565b6000602082019050613141600083018461311d565b92915050565b7f4e487b7100000000000000000000000000000000000000000000000000000000600052602260045260246000fd5b6000600282049050600182168061318e57607f821691505b602082108114156131a2576131a1613147565b5b50919050565b7f4e487b7100000000000000000000000000000000000000000000000000000000600052601160045260246000fd5b60006131e2826127a1565b91507fffffffffffffffffffffffffffffffffffffffffffffffffffffffffffffffff821415613215576132146131a8565b5b600182019050919050565b7f4552433732313a20617070726f76656420717565727920666f72206e6f6e657860008201527f697374656e7420746f6b656e0000000000000000000000000000000000000000602082015250565b600061327c602c83612926565b915061328782613220565b604082019050919050565b600060208201905081810360008301526132ab8161326f565b9050919050565b7f4552433732313a20617070726f76616c20746f2063757272656e74206f776e6560008201527f7200000000000000000000000000000000000000000000000000000000000000602082015250565b600061330e602183612926565b9150613319826132b2565b604082019050919050565b6000602082019050818103600083015261333d81613301565b9050919050565b7f4552433732313a20617070726f76652063616c6c6572206973206e6f74206f7760008201527f6e6572206e6f7220617070726f76656420666f7220616c6c0000000000000000602082015250565b60006133a0603883612926565b91506133ab82613344565b604082019050919050565b600060208201905081810360008301526133cf81613393565b9050919050565b7f4552433732313a207472616e736665722063616c6c6572206973206e6f74206f60008201527f776e6572206e6f7220617070726f766564000000000000000000000000000000602082015250565b6000613432603183612926565b915061343d826133d6565b604082019050919050565b6000602082019050818103600083015261346181613425565b9050919050565b7f6d696e6572206e6f74206f776e65640000000000000000000000000000000000600082015250565b600061349e600f83612926565b91506134a982613468565b602082019050919050565b600060208201905081810360008301526134cd81613491565b9050919050565b7f6d696e696e67206c6576656c206174206d617800000000000000000000000000600082015250565b600061350a601383612926565b9150613515826134d4565b602082019050919050565b60006020820190508181036000830152613539816134fd565b9050919050565b600061354b826127a1565b9150613556836127a1565b9250827fffffffffffffffffffffffffffffffffffffffffffffffffffffffffffffffff0382111561358b5761358a6131a8565b5b828201905092915050565b7f4552433732313a206f776e657220717565727920666f72206e6f6e657869737460008201527f656e7420746f6b656e0000000000000000000000000000000000000000000000602082015250565b60006135f2602983612926565b91506135fd82613596565b604082019050919050565b60006020820190508181036000830152613621816135e5565b9050919050565b7f4552433732313a2062616c616e636520717565727920666f7220746865207a6560008201527f726f206164647265737300000000000000000000000000000000000000000000602082015250565b6000613684602a83612926565b915061368f82613628565b604082019050919050565b600060208201905081810360008301526136b381613677565b9050919050565b60006136c5826127a1565b91506136d0836127a1565b9250828210156136e3576136e26131a8565b5b828203905092915050565b7f4e487b7100000000000000000000000000000000000000000000000000000000600052603260045260246000fd5b60006060820190506137326000830186612836565b61373f6020830185612836565b61374c6040830184612ac2565b949350505050565b60008151905061376381612db2565b92915050565b60006020828403121561377f5761377e612797565b5b600061378d84828501613754565b91505092915050565b7f4552433732314d657461646174613a2055524920717565727920666f72206e6f60008201527f6e6578697374656e7420746f6b656e0000000000000000000000000000000000602082015250565b60006137f2602f83612926565b91506137fd82613796565b604082019050919050565b60006020820190508181036000830152613821816137e5565b9050919050565b600081905092915050565b600061383e8261291b565b6138488185613828565b9350613858818560208601612937565b80840191505092915050565b60006138708285613833565b915061387c8284613833565b91508190509392505050565b7f4552433732313a206f70657261746f7220717565727920666f72206e6f6e657860008201527f697374656e7420746f6b656e0000000000000000000000000000000000000000602082015250565b60006138e4602c83612926565b91506138ef82613888565b604082019050919050565b60006020820190508181036000830152613913816138d7565b9050919050565b7f4552433732313a207472616e736665722066726f6d20696e636f72726563742060008201527f6f776e6572000000000000000000000000000000000000000000000000000000602082015250565b6000613976602583612926565b91506139818261391a565b604082019050919050565b600060208201905081810360008301526139a581613969565b9050919050565b7f4552433732313a207472616e7366657220746f20746865207a65726f2061646460008201527f7265737300000000000000000000000000000000000000000000000000000000602082015250565b6000613a08602483612926565b9150613a13826139ac565b604082019050919050565b60006020820190508181036000830152613a37816139fb565b9050919050565b6000604082019050613a536000830185612ac2565b613a606020830184612ac2565b9392505050565b7f4552433732313a20617070726f766520746f2063616c6c657200000000000000600082015250565b6000613a9d601983612926565b9150613aa882613a67565b602082019050919050565b60006020820190508181036000830152613acc81613a90565b9050919050565b7f4552433732313a207472616e7366657220746f206e6f6e20455243373231526560008201527f63656976657220696d706c656d656e7465720000000000000000000000000000602082015250565b6000613b2f603283612926565b9150613b3a82613ad3565b604082019050919050565b60006020820190508181036000830152613b5e81613b22565b9050919050565b7f4e487b7100000000000000000000000000000000000000000000000000000000600052601260045260246000fd5b6000613b9f826127a1565b9150613baa836127a1565b925082613bba57613bb9613b65565b5b828204905092915050565b6000613bd0826127a1565b9150613bdb836127a1565b925082613beb57613bea613b65565b5b828206905092915050565b600081519050919050565b600082825260208201905092915050565b6000613c1d82613bf6565b613c278185613c01565b9350613c37818560208601612937565b613c408161296a565b840191505092915050565b6000608082019050613c606000830187612836565b613c6d6020830186612836565b613c7a6040830185612ac2565b8181036060830152613c8c8184613c12565b905095945050505050565b600081519050613ca68161288c565b92915050565b600060208284031215613cc257613cc1612797565b5b6000613cd084828501613c97565b91505092915050565b7f4552433732313a206d696e7420746f20746865207a65726f2061646472657373600082015250565b6000613d0f602083612926565b9150613d1a82613cd9565b602082019050919050565b60006020820190508181036000830152613d3e81613d02565b9050919050565b7f4552433732313a20746f6b656e20616c7265616479206d696e74656400000000600082015250565b6000613d7b601c83612926565b9150613d8682613d45565b602082019050919050565b60006020820190508181036000830152613daa81613d6e565b905091905056fea264697066735822122003fe6931d785a55d32e352240432e1b1db8f6f7b70d34c20ce175485b166b39064736f6c634300080b0033",
  "immutableReferences": {},
  "source": "// SPDX-License-Identifier: MIT\n\npragma solidity ^0.8.0;\n\nimport \"@openzeppelin/contracts/token/ERC721/ERC721.sol\";\nimport \"./Coal.sol\";\n\ncontract BasicMiner is ERC721 {\n\n    address public owner;\n    uint256 minerId = 1;\n    uint256 maxMiners = 500;\n    uint256 mintPrice = 20e18;\n\n    // stats\n    uint256 baseMiningLevel = 1;\n    uint256 baseCapacityLevel = 1;\n    uint256 baseMiningPower = 100;\n    uint256 baseCoalCapacity = 6e18;\n    uint256 baseIronCapacity = 16e17;\n    uint256 baseSilverCapacity = 2e17;\n\n    // resources\n    Coal public coal;\n\n    address public rewardsTreasury;\n\n    // requirements of Coal, Iron, Silver, Gemstone for levels 2 - 10\n    uint256[4][9] miningLevelUpgradeReqs;\n\n    struct Miner {\n        uint256 minerId;\n        uint256 miningLevel;\n        uint256 capacityLevel;\n        uint256 miningPower;\n        uint256 coalCapacity;\n        uint256 ironCapacity;\n        uint256 silverCapacity;\n    }\n\n    Miner[] public allMiners;\n\n    mapping(uint256 => Miner) public minerMap;\n\n    // deploy requirements -------------------------------\n    constructor() ERC721(\"Miner\", \"MINER\") {\n        owner = msg.sender;\n\n        miningLevelUpgradeReqs[0] = [100, 0, 0, 0];\n        miningLevelUpgradeReqs[1] = [100, 0, 0, 0];\n        miningLevelUpgradeReqs[2] = [100, 0, 0, 0];\n        miningLevelUpgradeReqs[3] = [100, 0, 0, 0];\n        miningLevelUpgradeReqs[4] = [100, 0, 0, 0];\n        miningLevelUpgradeReqs[5] = [100, 0, 0, 0];\n        miningLevelUpgradeReqs[6] = [100, 0, 0, 0];\n        miningLevelUpgradeReqs[7] = [100, 0, 0, 0];\n        miningLevelUpgradeReqs[8] = [100, 0, 0, 0];\n    }\n\n    // set resources upon deploy\n    function setCoal(address _addr) public isOwner(msg.sender) {\n        coal = Coal(_addr);\n    }\n\n    function getCoal() public view returns (address) {\n        return address(coal);\n    }\n\n    function setRewardsTreasury(address _addr) public isOwner(msg.sender) {\n        rewardsTreasury = _addr;\n    }\n    // ----------------------------------------------------\n\n    /// Events\n    event LogMint(uint256 id);\n    event LogUpdateMintPrice(uint256 amount);\n    event LogSetUpgrader(address _address);\n    event LogUpgradeMiningLevel(uint256 minerId, uint256 newLevel);\n    event LogUpgradeCapacityLevel(uint256 minerId, uint256 newLevel);\n\n    /// Modifiers\n    modifier correctMintPrice(uint256 _amount) {\n        require(_amount == mintPrice);\n        _;\n    }\n    \n    modifier isOwner(address _address) {\n        require (owner == _address);\n        _;\n    }\n\n    modifier mintAvailable() {\n        require (minerId < maxMiners);\n        _;\n    }\n\n    modifier minerExists(uint256 _minerId) {\n        require (minerMap[_minerId].minerId > 0);\n        _;\n    }\n\n    function getMiner(uint256 _minerId) public view returns (Miner memory) {\n        return minerMap[_minerId];\n    }\n\n    function getAllMiners() public view returns (Miner[] memory) {\n        return allMiners;\n    }\n\n    function getMinerOwner(uint256 _minerId) public view returns (address) {\n        return super.ownerOf(_minerId);\n    }\n\n    function mintMiner() public payable correctMintPrice(msg.value) mintAvailable() {\n        Miner memory miner = Miner(\n            minerId, \n            baseMiningLevel, \n            baseCapacityLevel, \n            baseMiningPower, \n            baseCoalCapacity, \n            baseIronCapacity, \n            baseSilverCapacity);\n        allMiners.push(miner);\n        minerMap[minerId] = miner;\n        _safeMint(msg.sender, minerId);\n        emit LogMint(minerId);\n        minerId++;\n    }\n\n    function setMintPrice(uint256 newPrice) public isOwner(msg.sender) {\n        mintPrice = newPrice;\n        emit LogUpdateMintPrice(newPrice);\n    }\n\n    function getMintPrice() public view returns (uint256) {\n        return mintPrice;\n    }\n\n    // upgrading\n    function getMiningLevelUpgradeRequirements(\n        uint256 _minerId\n        ) public view minerExists(_minerId) returns (uint256[4] memory) {\n        uint256 curLevel = minerMap[_minerId].miningLevel;\n        uint256[4] memory req;\n        if (curLevel == 10) {\n            return req;\n        }\n        return miningLevelUpgradeReqs[curLevel - 1];\n    }\n\n\n    function upgradeMiningLevel(uint256 _minerId) public minerExists(_minerId) {\n        require(super.ownerOf(_minerId) == msg.sender, \"miner not owned\");\n\n        Miner memory miner = minerMap[_minerId];\n        uint256 curLevel = miner.miningLevel;\n        require(curLevel <= 10, \"mining level at max\");\n\n        // ensure you have required resources\n        uint256 coalReq = miningLevelUpgradeReqs[curLevel - 1][0];\n        if (coalReq > 0) {\n            coal.transferFrom(msg.sender, rewardsTreasury, coalReq);\n        }\n\n        setMiningLevel(_minerId, curLevel + 1);\n        setMiningPower(_minerId, miner.miningPower + 1); // update\n    }\n\n    function upgradeMiningCapacity(uint256 _minerId) public minerExists(_minerId) {\n        require(super.ownerOf(_minerId) == msg.sender, \"miner not owned\");\n\n        Miner memory miner = minerMap[_minerId];\n        uint256 curLevel = miner.capacityLevel;\n        require(curLevel <= 10, \"mining level at max\");\n        setCapacityLevel(_minerId, curLevel + 1);\n        setCoalCapacity(_minerId, miner.coalCapacity + 1);\n        setIronCapacity(_minerId, miner.ironCapacity + 1);\n        setSilverCapacity(_minerId, miner.silverCapacity + 1);\n    }\n\n\n    function setMiningLevel(uint256 _minerId, uint256 level) private {\n        minerMap[_minerId].miningLevel = level;\n        emit LogUpgradeMiningLevel(_minerId, level);\n    }\n\n    function setCapacityLevel(uint256 _minerId, uint256 level) private {\n        minerMap[_minerId].capacityLevel = level;\n        emit LogUpgradeCapacityLevel(_minerId, level);\n    }\n\n    function setMiningPower(uint256 _minerId, uint256 power) private {\n        minerMap[_minerId].miningPower = power;\n    }\n\n    function setCoalCapacity(uint256 _minerId, uint256 capacity) private {\n        minerMap[_minerId].coalCapacity = capacity;\n    }\n\n    function setIronCapacity(uint256 _minerId, uint256 capacity) private {\n        minerMap[_minerId].ironCapacity = capacity;\n    }\n\n    function setSilverCapacity(uint256 _minerId, uint256 capacity) public {\n        minerMap[_minerId].silverCapacity = capacity;\n    }\n}",
  "sourcePath": "/Users/aslan/Desktop/MineEmpireBackend/contracts/BasicMiner.sol",
  "compiler": {
    "name": "solc",
    "version": "0.8.11+commit.d7f03943.Emscripten.clang"
  },
  "schemaVersion": "3.4.3",
  "updatedAt": "2022-05-20T18:11:52.020Z",
  "devdoc": {
    "kind": "dev",
    "methods": {
      "approve(address,uint256)": {
        "details": "See {IERC721-approve}."
      },
      "balanceOf(address)": {
        "details": "See {IERC721-balanceOf}."
      },
      "getApproved(uint256)": {
        "details": "See {IERC721-getApproved}."
      },
      "isApprovedForAll(address,address)": {
        "details": "See {IERC721-isApprovedForAll}."
      },
      "name()": {
        "details": "See {IERC721Metadata-name}."
      },
      "ownerOf(uint256)": {
        "details": "See {IERC721-ownerOf}."
      },
      "safeTransferFrom(address,address,uint256)": {
        "details": "See {IERC721-safeTransferFrom}."
      },
      "safeTransferFrom(address,address,uint256,bytes)": {
        "details": "See {IERC721-safeTransferFrom}."
      },
      "setApprovalForAll(address,bool)": {
        "details": "See {IERC721-setApprovalForAll}."
      },
      "supportsInterface(bytes4)": {
        "details": "See {IERC165-supportsInterface}."
      },
      "symbol()": {
        "details": "See {IERC721Metadata-symbol}."
      },
      "tokenURI(uint256)": {
        "details": "See {IERC721Metadata-tokenURI}."
      },
      "transferFrom(address,address,uint256)": {
        "details": "See {IERC721-transferFrom}."
      }
    },
    "version": 1
  },
  "userdoc": {
    "events": {
      "LogMint(uint256)": {
        "notice": "Events"
      }
    },
    "kind": "user",
    "methods": {},
    "version": 1
  }
}