{
  "contractName": "CoalMine",
  "abi": [
    {
      "inputs": [],
      "stateMutability": "nonpayable",
      "type": "constructor"
    },
    {
      "inputs": [],
      "name": "minerMinter",
      "outputs": [
        {
          "internalType": "contract IERC721",
          "name": "",
          "type": "address"
        }
      ],
      "stateMutability": "view",
      "type": "function",
      "constant": true
    },
    {
      "inputs": [],
      "name": "owner",
      "outputs": [
        {
          "internalType": "address",
          "name": "",
          "type": "address"
        }
      ],
      "stateMutability": "view",
      "type": "function",
      "constant": true
    },
    {
      "inputs": [
        {
          "internalType": "address",
          "name": "",
          "type": "address"
        }
      ],
      "name": "stakes",
      "outputs": [
        {
          "internalType": "uint256",
          "name": "minerId",
          "type": "uint256"
        },
        {
          "internalType": "uint256",
          "name": "timestamp",
          "type": "uint256"
        }
      ],
      "stateMutability": "view",
      "type": "function",
      "constant": true
    },
    {
      "inputs": [
        {
          "internalType": "address",
          "name": "_addr",
          "type": "address"
        }
      ],
      "name": "setMinerContract",
      "outputs": [],
      "stateMutability": "nonpayable",
      "type": "function"
    },
    {
      "inputs": [
        {
          "internalType": "uint256",
          "name": "_minerId",
          "type": "uint256"
        }
      ],
      "name": "stake",
      "outputs": [],
      "stateMutability": "nonpayable",
      "type": "function"
    },
    {
      "inputs": [],
      "name": "unstake",
      "outputs": [],
      "stateMutability": "nonpayable",
      "type": "function"
    },
    {
      "inputs": [
        {
          "internalType": "address",
          "name": "operator",
          "type": "address"
        },
        {
          "internalType": "address",
          "name": "from",
          "type": "address"
        },
        {
          "internalType": "uint256",
          "name": "id",
          "type": "uint256"
        },
        {
          "internalType": "uint256",
          "name": "value",
          "type": "uint256"
        },
        {
          "internalType": "bytes",
          "name": "data",
          "type": "bytes"
        }
      ],
      "name": "onERC721Received",
      "outputs": [
        {
          "internalType": "bytes4",
          "name": "",
          "type": "bytes4"
        }
      ],
      "stateMutability": "pure",
      "type": "function",
      "constant": true
    }
  ],
  "bytecode": "0x608060405234801561001057600080fd5b506109a6806100206000396000f3fe608060405234801561001057600080fd5b506004361061007d5760003560e01c80637636e2451161005b5780637636e245146100d95780638da5cb5b14610109578063a694fc3a14610127578063fe9e2b63146101435761007d565b806316934fc4146100825780632def6620146100b35780635c5aba68146100bd575b600080fd5b61009c600480360381019061009791906105fb565b610161565b6040516100aa929190610641565b60405180910390f35b6100bb610185565b005b6100d760048036038101906100d291906105fb565b6102f9565b005b6100f360048036038101906100ee91906106fb565b610398565b60405161010091906107d0565b60405180910390f35b6101116103c7565b60405161011e91906107fa565b60405180910390f35b610141600480360381019061013c9190610815565b6103ed565b005b61014b61056f565b60405161015891906108a1565b60405180910390f35b60026020528060005260406000206000915090508060000154908060010154905082565b6000600260003373ffffffffffffffffffffffffffffffffffffffff1673ffffffffffffffffffffffffffffffffffffffff16815260200190815260200160002060000154116101d457600080fd5b60008054906101000a900473ffffffffffffffffffffffffffffffffffffffff1673ffffffffffffffffffffffffffffffffffffffff166342842e0e3033600260003373ffffffffffffffffffffffffffffffffffffffff1673ffffffffffffffffffffffffffffffffffffffff168152602001908152602001600020600001546040518463ffffffff1660e01b8152600401610273939291906108bc565b600060405180830381600087803b15801561028d57600080fd5b505af11580156102a1573d6000803e3d6000fd5b50505050600260003373ffffffffffffffffffffffffffffffffffffffff1673ffffffffffffffffffffffffffffffffffffffff16815260200190815260200160002060008082016000905560018201600090555050565b33600160009054906101000a900473ffffffffffffffffffffffffffffffffffffffff1673ffffffffffffffffffffffffffffffffffffffff168173ffffffffffffffffffffffffffffffffffffffff161461035457600080fd5b816000806101000a81548173ffffffffffffffffffffffffffffffffffffffff021916908373ffffffffffffffffffffffffffffffffffffffff1602179055505050565b60007fd9c0ae20e5b6ff58396a87bccbef94be1a4c311548241c975448568989ef0b5590509695505050505050565b600160009054906101000a900473ffffffffffffffffffffffffffffffffffffffff1681565b6000600260003373ffffffffffffffffffffffffffffffffffffffff1673ffffffffffffffffffffffffffffffffffffffff1681526020019081526020016000206000015414610472576040517f08c379a000000000000000000000000000000000000000000000000000000000815260040161046990610950565b60405180910390fd5b604051806040016040528082815260200142815250600260003373ffffffffffffffffffffffffffffffffffffffff1673ffffffffffffffffffffffffffffffffffffffff168152602001908152602001600020600082015181600001556020820151816001015590505060008054906101000a900473ffffffffffffffffffffffffffffffffffffffff1673ffffffffffffffffffffffffffffffffffffffff166342842e0e3330846040518463ffffffff1660e01b815260040161053a939291906108bc565b600060405180830381600087803b15801561055457600080fd5b505af1158015610568573d6000803e3d6000fd5b5050505050565b60008054906101000a900473ffffffffffffffffffffffffffffffffffffffff1681565b600080fd5b600080fd5b600073ffffffffffffffffffffffffffffffffffffffff82169050919050565b60006105c88261059d565b9050919050565b6105d8816105bd565b81146105e357600080fd5b50565b6000813590506105f5816105cf565b92915050565b60006020828403121561061157610610610593565b5b600061061f848285016105e6565b91505092915050565b6000819050919050565b61063b81610628565b82525050565b60006040820190506106566000830185610632565b6106636020830184610632565b9392505050565b61067381610628565b811461067e57600080fd5b50565b6000813590506106908161066a565b92915050565b600080fd5b600080fd5b600080fd5b60008083601f8401126106bb576106ba610696565b5b8235905067ffffffffffffffff8111156106d8576106d761069b565b5b6020830191508360018202830111156106f4576106f36106a0565b5b9250929050565b60008060008060008060a0878903121561071857610717610593565b5b600061072689828a016105e6565b965050602061073789828a016105e6565b955050604061074889828a01610681565b945050606061075989828a01610681565b935050608087013567ffffffffffffffff81111561077a57610779610598565b5b61078689828a016106a5565b92509250509295509295509295565b60007fffffffff0000000000000000000000000000000000000000000000000000000082169050919050565b6107ca81610795565b82525050565b60006020820190506107e560008301846107c1565b92915050565b6107f4816105bd565b82525050565b600060208201905061080f60008301846107eb565b92915050565b60006020828403121561082b5761082a610593565b5b600061083984828501610681565b91505092915050565b6000819050919050565b600061086761086261085d8461059d565b610842565b61059d565b9050919050565b60006108798261084c565b9050919050565b600061088b8261086e565b9050919050565b61089b81610880565b82525050565b60006020820190506108b66000830184610892565b92915050565b60006060820190506108d160008301866107eb565b6108de60208301856107eb565b6108eb6040830184610632565b949350505050565b600082825260208201905092915050565b7f616c7265616479207374616b6564000000000000000000000000000000000000600082015250565b600061093a600e836108f3565b915061094582610904565b602082019050919050565b600060208201905081810360008301526109698161092d565b905091905056fea2646970667358221220ff59974f980cd062cc0c51661338d4e277e62e1b4e77425626ec4657246bbe0264736f6c634300080b0033",
  "immutableReferences": {},
  "source": "// SPDX-License-Identifier: MIT\n\npragma solidity ^0.8.0;\n\nimport \"@openzeppelin/contracts/token/ERC721/IERC721.sol\";\nimport \"@openzeppelin/contracts/token/ERC721/IERC721Receiver.sol\";\n\ncontract CoalMine {\n    IERC721 public minerMinter;\n    address public owner;\n\n    struct Stake {\n        uint256 minerId;\n        uint256 timestamp;\n    }\n\n    mapping(address => Stake) public stakes;\n\n    constructor() {\n        \n    }\n\n    modifier isOwner(address _addr) {\n        require(_addr == owner);\n        _;\n    }\n\n    function setMinerContract(address _addr) public isOwner(msg.sender) {\n        minerMinter = IERC721(_addr);\n    }\n\n    function stake(uint256 _minerId) public {\n        require(stakes[msg.sender].minerId == 0, \"already staked\");\n        stakes[msg.sender] = Stake(_minerId, block.timestamp);\n        minerMinter.safeTransferFrom(msg.sender, address(this), _minerId);\n    }\n\n    function unstake() public {\n        require(stakes[msg.sender].minerId > 0);\n        minerMinter.safeTransferFrom(address(this), msg.sender, stakes[msg.sender].minerId);\n        delete stakes[msg.sender];\n    }\n\n    function onERC721Received(\n        address operator,\n        address from,\n        uint256 id,\n        uint256 value,\n        bytes calldata data\n    ) external pure returns (bytes4) {\n        return bytes4(keccak256(\"onERC721Received(address,address,uint256,uint256,btes)\"));\n    }\n}",
  "sourcePath": "/Users/aslan/Desktop/DeMiner/contracts/CoalMine.sol",
  "compiler": {
    "name": "solc",
    "version": "0.8.11+commit.d7f03943.Emscripten.clang"
  },
  "schemaVersion": "3.4.3",
  "updatedAt": "2022-04-10T11:22:53.579Z",
  "networkType": "ethereum",
  "devdoc": {
    "kind": "dev",
    "methods": {},
    "version": 1
  },
  "userdoc": {
    "kind": "user",
    "methods": {},
    "version": 1
  }
}