{
  "contractName": "CoalMine",
  "abi": [
    {
      "inputs": [],
      "stateMutability": "nonpayable",
      "type": "constructor"
    },
    {
      "inputs": [],
      "name": "baseProduction",
      "outputs": [
        {
          "internalType": "uint256",
          "name": "",
          "type": "uint256"
        }
      ],
      "stateMutability": "view",
      "type": "function"
    },
    {
      "inputs": [],
      "name": "basicMiner",
      "outputs": [
        {
          "internalType": "contract BasicMiner",
          "name": "",
          "type": "address"
        }
      ],
      "stateMutability": "view",
      "type": "function"
    },
    {
      "inputs": [],
      "name": "coal",
      "outputs": [
        {
          "internalType": "contract Coal",
          "name": "",
          "type": "address"
        }
      ],
      "stateMutability": "view",
      "type": "function"
    },
    {
      "inputs": [],
      "name": "owner",
      "outputs": [
        {
          "internalType": "address",
          "name": "",
          "type": "address"
        }
      ],
      "stateMutability": "view",
      "type": "function"
    },
    {
      "inputs": [
        {
          "internalType": "address",
          "name": "",
          "type": "address"
        }
      ],
      "name": "stakes",
      "outputs": [
        {
          "components": [
            {
              "internalType": "uint256",
              "name": "minerId",
              "type": "uint256"
            },
            {
              "internalType": "uint256",
              "name": "miningLevel",
              "type": "uint256"
            },
            {
              "internalType": "uint256",
              "name": "capacityLevel",
              "type": "uint256"
            },
            {
              "internalType": "uint256",
              "name": "miningPower",
              "type": "uint256"
            },
            {
              "internalType": "uint256",
              "name": "coalCapacity",
              "type": "uint256"
            },
            {
              "internalType": "uint256",
              "name": "ironCapacity",
              "type": "uint256"
            },
            {
              "internalType": "uint256",
              "name": "silverCapacity",
              "type": "uint256"
            }
          ],
          "internalType": "struct BasicMiner.Miner",
          "name": "miner",
          "type": "tuple"
        },
        {
          "internalType": "uint256",
          "name": "timestamp",
          "type": "uint256"
        }
      ],
      "stateMutability": "view",
      "type": "function"
    },
    {
      "inputs": [
        {
          "internalType": "address",
          "name": "_addr",
          "type": "address"
        }
      ],
      "name": "setMinerContract",
      "outputs": [],
      "stateMutability": "nonpayable",
      "type": "function"
    },
    {
      "inputs": [],
      "name": "getMinerContract",
      "outputs": [
        {
          "internalType": "address",
          "name": "",
          "type": "address"
        }
      ],
      "stateMutability": "view",
      "type": "function"
    },
    {
      "inputs": [
        {
          "internalType": "address",
          "name": "_addr",
          "type": "address"
        }
      ],
      "name": "setResourceContract",
      "outputs": [],
      "stateMutability": "nonpayable",
      "type": "function"
    },
    {
      "inputs": [],
      "name": "getResourceContract",
      "outputs": [
        {
          "internalType": "address",
          "name": "",
          "type": "address"
        }
      ],
      "stateMutability": "view",
      "type": "function"
    },
    {
      "inputs": [
        {
          "internalType": "uint256",
          "name": "_minerId",
          "type": "uint256"
        }
      ],
      "name": "stake",
      "outputs": [],
      "stateMutability": "nonpayable",
      "type": "function"
    },
    {
      "inputs": [],
      "name": "unstake",
      "outputs": [],
      "stateMutability": "nonpayable",
      "type": "function"
    },
    {
      "inputs": [
        {
          "internalType": "address",
          "name": "_addr",
          "type": "address"
        }
      ],
      "name": "getStake",
      "outputs": [
        {
          "components": [
            {
              "components": [
                {
                  "internalType": "uint256",
                  "name": "minerId",
                  "type": "uint256"
                },
                {
                  "internalType": "uint256",
                  "name": "miningLevel",
                  "type": "uint256"
                },
                {
                  "internalType": "uint256",
                  "name": "capacityLevel",
                  "type": "uint256"
                },
                {
                  "internalType": "uint256",
                  "name": "miningPower",
                  "type": "uint256"
                },
                {
                  "internalType": "uint256",
                  "name": "coalCapacity",
                  "type": "uint256"
                },
                {
                  "internalType": "uint256",
                  "name": "ironCapacity",
                  "type": "uint256"
                },
                {
                  "internalType": "uint256",
                  "name": "silverCapacity",
                  "type": "uint256"
                }
              ],
              "internalType": "struct BasicMiner.Miner",
              "name": "miner",
              "type": "tuple"
            },
            {
              "internalType": "uint256",
              "name": "timestamp",
              "type": "uint256"
            }
          ],
          "internalType": "struct CoalMine.Stake",
          "name": "",
          "type": "tuple"
        }
      ],
      "stateMutability": "view",
      "type": "function"
    },
    {
      "inputs": [
        {
          "internalType": "address",
          "name": "operator",
          "type": "address"
        },
        {
          "internalType": "address",
          "name": "from",
          "type": "address"
        },
        {
          "internalType": "uint256",
          "name": "id",
          "type": "uint256"
        },
        {
          "internalType": "bytes",
          "name": "data",
          "type": "bytes"
        }
      ],
      "name": "onERC721Received",
      "outputs": [
        {
          "internalType": "bytes4",
          "name": "",
          "type": "bytes4"
        }
      ],
      "stateMutability": "pure",
      "type": "function"
    },
    {
      "inputs": [],
      "name": "getAccumulatedResources",
      "outputs": [
        {
          "internalType": "uint256",
          "name": "",
          "type": "uint256"
        }
      ],
      "stateMutability": "view",
      "type": "function"
    },
    {
      "inputs": [],
      "name": "collectResources",
      "outputs": [],
      "stateMutability": "nonpayable",
      "type": "function"
    }
  ],
  "bytecode": "0x608060405234801561001057600080fd5b5033600260006101000a81548173ffffffffffffffffffffffffffffffffffffffff021916908373ffffffffffffffffffffffffffffffffffffffff160217905550662386f26fc100006003819055506118da8061006f6000396000f3fe608060405234801561001057600080fd5b50600436106100f55760003560e01c80633ee76ceb116100975780638da5cb5b116100665780638da5cb5b1461024f578063a694fc3a1461026d578063d85e949f14610289578063fdbcd101146102a7576100f5565b80633ee76ceb146101c75780635c5aba68146101e55780637835cb8c146102015780637a7664601461021f576100f5565b80631f22980e116100d35780631f22980e146101795780632def6620146101955780633104d1fc1461019f5780633bbfe141146101bd576100f5565b8063150b7a02146100fa57806316934fc41461012a5780631eb4b7ae1461015b575b600080fd5b610114600480360381019061010f9190611003565b6102c5565b60405161012191906110c6565b60405180910390f35b610144600480360381019061013f91906110e1565b6102f3565b6040516101529291906111ba565b60405180910390f35b610163610367565b6040516101709190611243565b60405180910390f35b610193600480360381019061018e91906110e1565b61038b565b005b61019d61042b565b005b6101a7610611565b6040516101b4919061125e565b60405180910390f35b6101c5610617565b005b6101cf61089c565b6040516101dc919061125e565b60405180910390f35b6101ff60048036038101906101fa91906110e1565b610a3c565b005b610209610adb565b6040516102169190611288565b60405180910390f35b610239600480360381019061023491906110e1565b610b04565b6040516102469190611361565b60405180910390f35b610257610bc1565b6040516102649190611288565b60405180910390f35b6102876004803603810190610282919061137d565b610be7565b005b610291610e49565b60405161029e9190611288565b60405180910390f35b6102af610e73565b6040516102bc91906113cb565b60405180910390f35b60007f150b7a023d4804d13e8c85fb27262cb750cf6ba9f9dd3bb30d90f482ceeb4b1f905095945050505050565b6004602052806000526040600020600091509050806000016040518060e0016040529081600082015481526020016001820154815260200160028201548152602001600382015481526020016004820154815260200160058201548152602001600682015481525050908060070154905082565b60008054906101000a900473ffffffffffffffffffffffffffffffffffffffff1681565b33600260009054906101000a900473ffffffffffffffffffffffffffffffffffffffff1673ffffffffffffffffffffffffffffffffffffffff168173ffffffffffffffffffffffffffffffffffffffff16146103e657600080fd5b81600160006101000a81548173ffffffffffffffffffffffffffffffffffffffff021916908373ffffffffffffffffffffffffffffffffffffffff1602179055505050565b336000600460008373ffffffffffffffffffffffffffffffffffffffff1673ffffffffffffffffffffffffffffffffffffffff16815260200190815260200160002060070154116104b1576040517f08c379a00000000000000000000000000000000000000000000000000000000081526004016104a890611443565b60405180910390fd5b60008054906101000a900473ffffffffffffffffffffffffffffffffffffffff1673ffffffffffffffffffffffffffffffffffffffff166342842e0e3033600460003373ffffffffffffffffffffffffffffffffffffffff1673ffffffffffffffffffffffffffffffffffffffff168152602001908152602001600020600001600001546040518463ffffffff1660e01b815260040161055393929190611463565b600060405180830381600087803b15801561056d57600080fd5b505af1158015610581573d6000803e3d6000fd5b50505050600460003373ffffffffffffffffffffffffffffffffffffffff1673ffffffffffffffffffffffffffffffffffffffff168152602001908152602001600020600080820160008082016000905560018201600090556002820160009055600382016000905560048201600090556005820160009055600682016000905550506007820160009055505050565b60035481565b336000600460008373ffffffffffffffffffffffffffffffffffffffff1673ffffffffffffffffffffffffffffffffffffffff168152602001908152602001600020600701541161069d576040517f08c379a000000000000000000000000000000000000000000000000000000000815260040161069490611443565b60405180910390fd5b6000600460003373ffffffffffffffffffffffffffffffffffffffff1673ffffffffffffffffffffffffffffffffffffffff168152602001908152602001600020604051806040016040529081600082016040518060e001604052908160008201548152602001600182015481526020016002820154815260200160038201548152602001600482015481526020016005820154815260200160068201548152505081526020016007820154815250509050600081602001514261076191906114c9565b9050600082600001516060015160646003548461077e91906114fd565b6107889190611586565b61079291906114fd565b905060008360000151608001519050818110156107ad578091505b600160009054906101000a900473ffffffffffffffffffffffffffffffffffffffff1673ffffffffffffffffffffffffffffffffffffffff1663a9059cbb33846040518363ffffffff1660e01b815260040161080a9291906115b7565b6020604051808303816000875af1158015610829573d6000803e3d6000fd5b505050506040513d601f19601f8201168201806040525081019061084d9190611618565b5042600460003373ffffffffffffffffffffffffffffffffffffffff1673ffffffffffffffffffffffffffffffffffffffff168152602001908152602001600020600701819055505050505050565b600080600460003373ffffffffffffffffffffffffffffffffffffffff1673ffffffffffffffffffffffffffffffffffffffff1681526020019081526020016000206007015411610922576040517f08c379a000000000000000000000000000000000000000000000000000000000815260040161091990611691565b60405180910390fd5b6000600460003373ffffffffffffffffffffffffffffffffffffffff1673ffffffffffffffffffffffffffffffffffffffff168152602001908152602001600020604051806040016040529081600082016040518060e00160405290816000820154815260200160018201548152602001600282015481526020016003820154815260200160048201548152602001600582015481526020016006820154815250508152602001600782015481525050905060008160200151426109e691906114c9565b90506000826000015160600151606460035484610a0391906114fd565b610a0d9190611586565b610a1791906114fd565b90506000836000015160800151905081811015610a32578091505b8194505050505090565b33600260009054906101000a900473ffffffffffffffffffffffffffffffffffffffff1673ffffffffffffffffffffffffffffffffffffffff168173ffffffffffffffffffffffffffffffffffffffff1614610a9757600080fd5b816000806101000a81548173ffffffffffffffffffffffffffffffffffffffff021916908373ffffffffffffffffffffffffffffffffffffffff1602179055505050565b60008060009054906101000a900473ffffffffffffffffffffffffffffffffffffffff16905090565b610b0c610e99565b600460008373ffffffffffffffffffffffffffffffffffffffff1673ffffffffffffffffffffffffffffffffffffffff168152602001908152602001600020604051806040016040529081600082016040518060e001604052908160008201548152602001600182015481526020016002820154815260200160038201548152602001600482015481526020016005820154815260200160068201548152505081526020016007820154815250509050919050565b600260009054906101000a900473ffffffffffffffffffffffffffffffffffffffff1681565b6000600460003373ffffffffffffffffffffffffffffffffffffffff1673ffffffffffffffffffffffffffffffffffffffff1681526020019081526020016000206007015414610c6c576040517f08c379a0000000000000000000000000000000000000000000000000000000008152600401610c63906116fd565b60405180910390fd5b60008054906101000a900473ffffffffffffffffffffffffffffffffffffffff1673ffffffffffffffffffffffffffffffffffffffff166342842e0e3330846040518463ffffffff1660e01b8152600401610cc993929190611463565b600060405180830381600087803b158015610ce357600080fd5b505af1158015610cf7573d6000803e3d6000fd5b50505050604051806040016040528060008054906101000a900473ffffffffffffffffffffffffffffffffffffffff1673ffffffffffffffffffffffffffffffffffffffff16633cc8f306846040518263ffffffff1660e01b8152600401610d5f919061125e565b60e060405180830381865afa158015610d7c573d6000803e3d6000fd5b505050506040513d601f19601f82011682018060405250810190610da09190611877565b815260200142815250600460003373ffffffffffffffffffffffffffffffffffffffff1673ffffffffffffffffffffffffffffffffffffffff168152602001908152602001600020600082015181600001600082015181600001556020820151816001015560408201518160020155606082015181600301556080820151816004015560a0820151816005015560c0820151816006015550506020820151816007015590505050565b6000600160009054906101000a900473ffffffffffffffffffffffffffffffffffffffff16905090565b600160009054906101000a900473ffffffffffffffffffffffffffffffffffffffff1681565b6040518060400160405280610eac610eb9565b8152602001600081525090565b6040518060e00160405280600081526020016000815260200160008152602001600081526020016000815260200160008152602001600081525090565b6000604051905090565b600080fd5b600080fd5b600073ffffffffffffffffffffffffffffffffffffffff82169050919050565b6000610f3582610f0a565b9050919050565b610f4581610f2a565b8114610f5057600080fd5b50565b600081359050610f6281610f3c565b92915050565b6000819050919050565b610f7b81610f68565b8114610f8657600080fd5b50565b600081359050610f9881610f72565b92915050565b600080fd5b600080fd5b600080fd5b60008083601f840112610fc357610fc2610f9e565b5b8235905067ffffffffffffffff811115610fe057610fdf610fa3565b5b602083019150836001820283011115610ffc57610ffb610fa8565b5b9250929050565b60008060008060006080868803121561101f5761101e610f00565b5b600061102d88828901610f53565b955050602061103e88828901610f53565b945050604061104f88828901610f89565b935050606086013567ffffffffffffffff8111156110705761106f610f05565b5b61107c88828901610fad565b92509250509295509295909350565b60007fffffffff0000000000000000000000000000000000000000000000000000000082169050919050565b6110c08161108b565b82525050565b60006020820190506110db60008301846110b7565b92915050565b6000602082840312156110f7576110f6610f00565b5b600061110584828501610f53565b91505092915050565b61111781610f68565b82525050565b60e082016000820151611133600085018261110e565b506020820151611146602085018261110e565b506040820151611159604085018261110e565b50606082015161116c606085018261110e565b50608082015161117f608085018261110e565b5060a082015161119260a085018261110e565b5060c08201516111a560c085018261110e565b50505050565b6111b481610f68565b82525050565b6000610100820190506111d0600083018561111d565b6111dd60e08301846111ab565b9392505050565b6000819050919050565b60006112096112046111ff84610f0a565b6111e4565b610f0a565b9050919050565b600061121b826111ee565b9050919050565b600061122d82611210565b9050919050565b61123d81611222565b82525050565b60006020820190506112586000830184611234565b92915050565b600060208201905061127360008301846111ab565b92915050565b61128281610f2a565b82525050565b600060208201905061129d6000830184611279565b92915050565b60e0820160008201516112b9600085018261110e565b5060208201516112cc602085018261110e565b5060408201516112df604085018261110e565b5060608201516112f2606085018261110e565b506080820151611305608085018261110e565b5060a082015161131860a085018261110e565b5060c082015161132b60c085018261110e565b50505050565b6101008201600082015161134860008501826112a3565b50602082015161135b60e085018261110e565b50505050565b6000610100820190506113776000830184611331565b92915050565b60006020828403121561139357611392610f00565b5b60006113a184828501610f89565b91505092915050565b60006113b582611210565b9050919050565b6113c5816113aa565b82525050565b60006020820190506113e060008301846113bc565b92915050565b600082825260208201905092915050565b7f6d696e6572206e6f74207374616b656400000000000000000000000000000000600082015250565b600061142d6010836113e6565b9150611438826113f7565b602082019050919050565b6000602082019050818103600083015261145c81611420565b9050919050565b60006060820190506114786000830186611279565b6114856020830185611279565b61149260408301846111ab565b949350505050565b7f4e487b7100000000000000000000000000000000000000000000000000000000600052601160045260246000fd5b60006114d482610f68565b91506114df83610f68565b9250828210156114f2576114f161149a565b5b828203905092915050565b600061150882610f68565b915061151383610f68565b9250817fffffffffffffffffffffffffffffffffffffffffffffffffffffffffffffffff048311821515161561154c5761154b61149a565b5b828202905092915050565b7f4e487b7100000000000000000000000000000000000000000000000000000000600052601260045260246000fd5b600061159182610f68565b915061159c83610f68565b9250826115ac576115ab611557565b5b828204905092915050565b60006040820190506115cc6000830185611279565b6115d960208301846111ab565b9392505050565b60008115159050919050565b6115f5816115e0565b811461160057600080fd5b50565b600081519050611612816115ec565b92915050565b60006020828403121561162e5761162d610f00565b5b600061163c84828501611603565b91505092915050565b7f6e6f206d696e6572207374616b65640000000000000000000000000000000000600082015250565b600061167b600f836113e6565b915061168682611645565b602082019050919050565b600060208201905081810360008301526116aa8161166e565b9050919050565b7f616c7265616479207374616b6564000000000000000000000000000000000000600082015250565b60006116e7600e836113e6565b91506116f2826116b1565b602082019050919050565b60006020820190508181036000830152611716816116da565b9050919050565b600080fd5b6000601f19601f8301169050919050565b7f4e487b7100000000000000000000000000000000000000000000000000000000600052604160045260246000fd5b61176b82611722565b810181811067ffffffffffffffff8211171561178a57611789611733565b5b80604052505050565b600061179d610ef6565b90506117a98282611762565b919050565b6000815190506117bd81610f72565b92915050565b600060e082840312156117d9576117d861171d565b5b6117e360e0611793565b905060006117f3848285016117ae565b6000830152506020611807848285016117ae565b602083015250604061181b848285016117ae565b604083015250606061182f848285016117ae565b6060830152506080611843848285016117ae565b60808301525060a0611857848285016117ae565b60a08301525060c061186b848285016117ae565b60c08301525092915050565b600060e0828403121561188d5761188c610f00565b5b600061189b848285016117c3565b9150509291505056fea26469706673582212207b7945b2d407faf3f098021bb3433a0dfea0bb7a1d8ee1237759a14330a4ef3964736f6c634300080b0033",
  "immutableReferences": {},
  "source": "// SPDX-License-Identifier: MIT\n\npragma solidity ^0.8.0;\n\nimport \"./BasicMiner.sol\";\nimport \"./Coal.sol\";\nimport \"@openzeppelin/contracts/token/ERC721/IERC721Receiver.sol\";\n\ncontract CoalMine {\n    BasicMiner public basicMiner;\n    Coal public coal;\n    address public owner;\n    uint256 public baseProduction;\n\n    struct Stake {\n        BasicMiner.Miner miner;\n        uint256 timestamp;\n    }\n\n    mapping(address => Stake) public stakes;\n\n    constructor() {\n        owner = msg.sender;\n        baseProduction = 1e16;\n    }\n\n    modifier isOwner(address _addr) {\n        require(_addr == owner);\n        _;\n    }\n\n    modifier minerStaked(address _addr) {\n        require(stakes[_addr].timestamp > 0, \"miner not staked\");\n        _;\n    }\n\n    // game pre-requisites\n    function setMinerContract(address _addr) public isOwner(msg.sender) {\n        basicMiner = BasicMiner(_addr);\n    }\n\n    function getMinerContract() public view returns (address) {\n        return address(basicMiner);\n    }\n\n    function setResourceContract(address _addr) public isOwner(msg.sender) {\n        coal = Coal(_addr);\n    }\n\n    function getResourceContract() public view returns (address) {\n        return address(coal);\n    }\n\n\n    // contract functions\n    function stake(uint256 _minerId) public {\n        require(stakes[msg.sender].timestamp == 0, \"already staked\");\n        basicMiner.safeTransferFrom(msg.sender, address(this), _minerId);\n        stakes[msg.sender] = Stake(basicMiner.getMiner(_minerId), block.timestamp);\n    }\n\n    function unstake() public minerStaked(msg.sender) {\n        basicMiner.safeTransferFrom(address(this), msg.sender, stakes[msg.sender].miner.minerId);\n        delete stakes[msg.sender];\n    }\n\n    function getStake(address _addr) public view returns(Stake memory) {\n        return stakes[_addr];\n    }\n\n    function onERC721Received(\n        address operator,\n        address from,\n        uint256 id,\n        bytes calldata data\n    ) external pure returns (bytes4) {\n        return bytes4(keccak256(\"onERC721Received(address,address,uint256,bytes)\"));\n    }\n\n    function getAccumulatedResources() public view returns (uint256) {\n        require(stakes[msg.sender].timestamp > 0, \"no miner staked\");\n        Stake memory cur = stakes[msg.sender];\n        uint256 time = block.timestamp - cur.timestamp;\n        uint256 amount = time * baseProduction / 100 * cur.miner.miningPower;\n        uint256 coalCap = cur.miner.coalCapacity;\n        if (coalCap < amount) {\n            amount = coalCap;\n        }\n        return amount;\n    }\n\n    function collectResources() public minerStaked(msg.sender) {\n        Stake memory cur = stakes[msg.sender];\n        uint256 time = block.timestamp - cur.timestamp;\n        uint256 amount = time * baseProduction / 100 * cur.miner.miningPower;\n        uint256 coalCap = cur.miner.coalCapacity;\n        if (coalCap < amount) {\n            amount = coalCap;\n        }\n        coal.transfer(msg.sender, amount);\n        stakes[msg.sender].timestamp = block.timestamp;\n    }\n}",
  "sourcePath": "/Users/aslan/Desktop/MineEmpireBackend/contracts/CoalMine.sol",
  "compiler": {
    "name": "solc",
    "version": "0.8.11+commit.d7f03943.Emscripten.clang"
  },
  "schemaVersion": "3.4.3",
  "updatedAt": "2022-05-20T18:11:52.034Z",
  "devdoc": {
    "kind": "dev",
    "methods": {},
    "version": 1
  },
  "userdoc": {
    "kind": "user",
    "methods": {},
    "version": 1
  }
}