{
  "contractName": "Converter",
  "abi": [
    {
      "inputs": [
        {
          "internalType": "contract ERC20PresetMinterPauser",
          "name": "_cosmicCash",
          "type": "address"
        }
      ],
      "stateMutability": "nonpayable",
      "type": "constructor"
    },
    {
      "anonymous": false,
      "inputs": [
        {
          "indexed": false,
          "internalType": "address",
          "name": "_resource",
          "type": "address"
        },
        {
          "indexed": false,
          "internalType": "address",
          "name": "_csc",
          "type": "address"
        },
        {
          "indexed": false,
          "internalType": "uint256",
          "name": "amount",
          "type": "uint256"
        }
      ],
      "name": "conversionComplete",
      "type": "event"
    },
    {
      "inputs": [],
      "name": "cosmicCash",
      "outputs": [
        {
          "internalType": "contract ERC20PresetMinterPauser",
          "name": "",
          "type": "address"
        }
      ],
      "stateMutability": "view",
      "type": "function"
    },
    {
      "inputs": [],
      "name": "owner",
      "outputs": [
        {
          "internalType": "address",
          "name": "",
          "type": "address"
        }
      ],
      "stateMutability": "view",
      "type": "function"
    },
    {
      "inputs": [
        {
          "internalType": "address",
          "name": "",
          "type": "address"
        }
      ],
      "name": "rates",
      "outputs": [
        {
          "internalType": "contract ERC20PresetMinterPauser",
          "name": "resource",
          "type": "address"
        },
        {
          "internalType": "uint256",
          "name": "conversionRate",
          "type": "uint256"
        }
      ],
      "stateMutability": "view",
      "type": "function"
    },
    {
      "inputs": [
        {
          "internalType": "contract ERC20PresetMinterPauser",
          "name": "_resource",
          "type": "address"
        },
        {
          "internalType": "uint256",
          "name": "_conversionRate",
          "type": "uint256"
        }
      ],
      "name": "setResource",
      "outputs": [],
      "stateMutability": "nonpayable",
      "type": "function"
    },
    {
      "inputs": [
        {
          "internalType": "address payable",
          "name": "_address",
          "type": "address"
        }
      ],
      "name": "setTreasury",
      "outputs": [],
      "stateMutability": "nonpayable",
      "type": "function"
    },
    {
      "inputs": [
        {
          "internalType": "contract ERC20PresetMinterPauser",
          "name": "_resource",
          "type": "address"
        },
        {
          "internalType": "uint256",
          "name": "_amount",
          "type": "uint256"
        }
      ],
      "name": "convert",
      "outputs": [],
      "stateMutability": "nonpayable",
      "type": "function"
    }
  ],
  "bytecode": "0x608060405234801561001057600080fd5b50604051610bff380380610bff8339818101604052810190610032919061012e565b336000806101000a81548173ffffffffffffffffffffffffffffffffffffffff021916908373ffffffffffffffffffffffffffffffffffffffff16021790555080600160006101000a81548173ffffffffffffffffffffffffffffffffffffffff021916908373ffffffffffffffffffffffffffffffffffffffff1602179055505061015b565b600080fd5b600073ffffffffffffffffffffffffffffffffffffffff82169050919050565b60006100e9826100be565b9050919050565b60006100fb826100de565b9050919050565b61010b816100f0565b811461011657600080fd5b50565b60008151905061012881610102565b92915050565b600060208284031215610144576101436100b9565b5b600061015284828501610119565b91505092915050565b610a958061016a6000396000f3fe608060405234801561001057600080fd5b50600436106100625760003560e01c80631f8498361461006757806367c6e39c146100835780638da5cb5b1461009f578063a8734f0b146100bd578063e0194886146100ee578063f0f442601461010c575b600080fd5b610081600480360381019061007c9190610685565b610128565b005b61009d60048036038101906100989190610685565b61027a565b005b6100a7610478565b6040516100b491906106d4565b60405180910390f35b6100d760048036038101906100d2919061071b565b61049c565b6040516100e59291906107b6565b60405180910390f35b6100f66104e0565b60405161010391906107df565b60405180910390f35b61012660048036038101906101219190610838565b610506565b005b3360008054906101000a900473ffffffffffffffffffffffffffffffffffffffff1673ffffffffffffffffffffffffffffffffffffffff168173ffffffffffffffffffffffffffffffffffffffff16146101b7576040517f08c379a00000000000000000000000000000000000000000000000000000000081526004016101ae906108c2565b60405180910390fd5b60405180604001604052808473ffffffffffffffffffffffffffffffffffffffff16815260200183815250600360008573ffffffffffffffffffffffffffffffffffffffff1673ffffffffffffffffffffffffffffffffffffffff16815260200190815260200160002060008201518160000160006101000a81548173ffffffffffffffffffffffffffffffffffffffff021916908373ffffffffffffffffffffffffffffffffffffffff16021790555060208201518160010155905050505050565b6000600360008473ffffffffffffffffffffffffffffffffffffffff1673ffffffffffffffffffffffffffffffffffffffff168152602001908152602001600020600101549050600081836102cf9190610911565b90508373ffffffffffffffffffffffffffffffffffffffff166323b872dd33600260009054906101000a900473ffffffffffffffffffffffffffffffffffffffff16866040518463ffffffff1660e01b815260040161033093929190610963565b6020604051808303816000875af115801561034f573d6000803e3d6000fd5b505050506040513d601f19601f8201168201806040525081019061037391906109d2565b50600160009054906101000a900473ffffffffffffffffffffffffffffffffffffffff1673ffffffffffffffffffffffffffffffffffffffff1663a9059cbb33836040518363ffffffff1660e01b81526004016103d19291906109ff565b6020604051808303816000875af11580156103f0573d6000803e3d6000fd5b505050506040513d601f19601f8201168201806040525081019061041491906109d2565b507f9ef34208ba06141ac46d26a8e87aa9a91a508a52a95532a1c905eb19f71af81d84600160009054906101000a900473ffffffffffffffffffffffffffffffffffffffff168360405161046a93929190610a28565b60405180910390a150505050565b60008054906101000a900473ffffffffffffffffffffffffffffffffffffffff1681565b60036020528060005260406000206000915090508060000160009054906101000a900473ffffffffffffffffffffffffffffffffffffffff16908060010154905082565b600160009054906101000a900473ffffffffffffffffffffffffffffffffffffffff1681565b3360008054906101000a900473ffffffffffffffffffffffffffffffffffffffff1673ffffffffffffffffffffffffffffffffffffffff168173ffffffffffffffffffffffffffffffffffffffff1614610595576040517f08c379a000000000000000000000000000000000000000000000000000000000815260040161058c906108c2565b60405180910390fd5b81600260006101000a81548173ffffffffffffffffffffffffffffffffffffffff021916908373ffffffffffffffffffffffffffffffffffffffff1602179055505050565b600080fd5b600073ffffffffffffffffffffffffffffffffffffffff82169050919050565b600061060a826105df565b9050919050565b600061061c826105ff565b9050919050565b61062c81610611565b811461063757600080fd5b50565b60008135905061064981610623565b92915050565b6000819050919050565b6106628161064f565b811461066d57600080fd5b50565b60008135905061067f81610659565b92915050565b6000806040838503121561069c5761069b6105da565b5b60006106aa8582860161063a565b92505060206106bb85828601610670565b9150509250929050565b6106ce816105ff565b82525050565b60006020820190506106e960008301846106c5565b92915050565b6106f8816105ff565b811461070357600080fd5b50565b600081359050610715816106ef565b92915050565b600060208284031215610731576107306105da565b5b600061073f84828501610706565b91505092915050565b6000819050919050565b600061076d610768610763846105df565b610748565b6105df565b9050919050565b600061077f82610752565b9050919050565b600061079182610774565b9050919050565b6107a181610786565b82525050565b6107b08161064f565b82525050565b60006040820190506107cb6000830185610798565b6107d860208301846107a7565b9392505050565b60006020820190506107f46000830184610798565b92915050565b6000610805826105df565b9050919050565b610815816107fa565b811461082057600080fd5b50565b6000813590506108328161080c565b92915050565b60006020828403121561084e5761084d6105da565b5b600061085c84828501610823565b91505092915050565b600082825260208201905092915050565b7f6e6f7420617574686f72697a6564000000000000000000000000000000000000600082015250565b60006108ac600e83610865565b91506108b782610876565b602082019050919050565b600060208201905081810360008301526108db8161089f565b9050919050565b7f4e487b7100000000000000000000000000000000000000000000000000000000600052601260045260246000fd5b600061091c8261064f565b91506109278361064f565b925082610937576109366108e2565b5b828204905092915050565b600061094d82610774565b9050919050565b61095d81610942565b82525050565b600060608201905061097860008301866106c5565b6109856020830185610954565b61099260408301846107a7565b949350505050565b60008115159050919050565b6109af8161099a565b81146109ba57600080fd5b50565b6000815190506109cc816109a6565b92915050565b6000602082840312156109e8576109e76105da565b5b60006109f6848285016109bd565b91505092915050565b6000604082019050610a1460008301856106c5565b610a2160208301846107a7565b9392505050565b6000606082019050610a3d60008301866106c5565b610a4a60208301856106c5565b610a5760408301846107a7565b94935050505056fea264697066735822122022384b9acc900958afcd921e2f2d92d75db1226ba66d7a908de4055661f65af464736f6c634300080b0033",
  "immutableReferences": {},
  "source": "// SPDX-License-Identifier: MIT\n\npragma solidity ^0.8.0;\n\nimport \"@openzeppelin/contracts/token/ERC20/presets/ERC20PresetMinterPauser.sol\";\n\ncontract Converter {\n    address public owner;\n    ERC20PresetMinterPauser public cosmicCash;\n    address payable treasury;\n    struct Resource {\n        ERC20PresetMinterPauser resource;\n        uint conversionRate;\n    }\n    mapping(address => Resource) public rates;\n\n    constructor(ERC20PresetMinterPauser _cosmicCash) {\n        owner = msg.sender;\n        cosmicCash = _cosmicCash;\n    }\n\n    // EVENTS\n    event conversionComplete(address _resource, address _csc, uint amount);\n\n    // MODIFIERS\n    modifier onlyOwner(address _address) {\n        require(_address == owner, \"not authorized\");\n        _;\n    }\n\n    // ONLY OWNER\n    function setResource(ERC20PresetMinterPauser _resource, uint _conversionRate) public onlyOwner(msg.sender) {\n        rates[address(_resource)] = Resource(_resource, _conversionRate);\n    }\n\n    function setTreasury(address payable _address) public onlyOwner(msg.sender) {\n        treasury = _address;\n    }\n\n    // USER INTERFACE\n    function convert(ERC20PresetMinterPauser _resource, uint _amount) public {\n        uint conversionRate = rates[address(_resource)].conversionRate;\n        uint amount = _amount/conversionRate;\n        _resource.transferFrom(msg.sender, treasury, _amount);\n        cosmicCash.transfer(msg.sender, amount);\n        emit conversionComplete(address(_resource), address(cosmicCash), amount);\n        return;\n    }\n}",
  "sourcePath": "/Users/aslan/Desktop/MineEmpireBackend/contracts/Converter.sol",
  "compiler": {
    "name": "solc",
    "version": "0.8.11+commit.d7f03943.Emscripten.clang"
  },
  "schemaVersion": "3.4.3",
  "updatedAt": "2022-07-06T14:26:25.020Z",
  "devdoc": {
    "kind": "dev",
    "methods": {},
    "version": 1
  },
  "userdoc": {
    "kind": "user",
    "methods": {},
    "version": 1
  }
}