{
  "contractName": "Converter",
  "abi": [
    {
      "inputs": [],
      "stateMutability": "nonpayable",
      "type": "constructor"
    },
    {
      "anonymous": false,
      "inputs": [
        {
          "indexed": false,
          "internalType": "address",
          "name": "_resource",
          "type": "address"
        },
        {
          "indexed": false,
          "internalType": "address",
          "name": "_csc",
          "type": "address"
        },
        {
          "indexed": false,
          "internalType": "uint256",
          "name": "amount",
          "type": "uint256"
        }
      ],
      "name": "conversionComplete",
      "type": "event"
    },
    {
      "inputs": [],
      "name": "cosmicCash",
      "outputs": [
        {
          "internalType": "contract ERC20",
          "name": "",
          "type": "address"
        }
      ],
      "stateMutability": "view",
      "type": "function"
    },
    {
      "inputs": [],
      "name": "owner",
      "outputs": [
        {
          "internalType": "address",
          "name": "",
          "type": "address"
        }
      ],
      "stateMutability": "view",
      "type": "function"
    },
    {
      "inputs": [
        {
          "internalType": "address",
          "name": "",
          "type": "address"
        }
      ],
      "name": "rates",
      "outputs": [
        {
          "internalType": "contract ERC20",
          "name": "resource",
          "type": "address"
        },
        {
          "internalType": "uint256",
          "name": "conversionRate",
          "type": "uint256"
        }
      ],
      "stateMutability": "view",
      "type": "function"
    },
    {
      "inputs": [
        {
          "internalType": "contract ERC20",
          "name": "_resource",
          "type": "address"
        },
        {
          "internalType": "uint256",
          "name": "_conversionRate",
          "type": "uint256"
        }
      ],
      "name": "setResource",
      "outputs": [],
      "stateMutability": "nonpayable",
      "type": "function"
    },
    {
      "inputs": [
        {
          "internalType": "contract ERC20",
          "name": "_cosmicCash",
          "type": "address"
        }
      ],
      "name": "setCosmicCash",
      "outputs": [],
      "stateMutability": "nonpayable",
      "type": "function"
    },
    {
      "inputs": [
        {
          "internalType": "contract ERC20",
          "name": "_resource",
          "type": "address"
        },
        {
          "internalType": "uint256",
          "name": "_amount",
          "type": "uint256"
        }
      ],
      "name": "convert",
      "outputs": [],
      "stateMutability": "nonpayable",
      "type": "function"
    }
  ],
  "bytecode": "0x608060405261dead600260006101000a81548173ffffffffffffffffffffffffffffffffffffffff021916908373ffffffffffffffffffffffffffffffffffffffff16021790555034801561005357600080fd5b50336000806101000a81548173ffffffffffffffffffffffffffffffffffffffff021916908373ffffffffffffffffffffffffffffffffffffffff1602179055506109ff806100a36000396000f3fe608060405234801561001057600080fd5b50600436106100625760003560e01c80631f8498361461006757806327d6a4f81461008357806367c6e39c1461009f5780638da5cb5b146100bb578063a8734f0b146100d9578063e01948861461010a575b600080fd5b610081600480360381019061007c9190610685565b610128565b005b61009d600480360381019061009891906106c5565b61027a565b005b6100b960048036038101906100b49190610685565b61034e565b005b6100c361054c565b6040516100d09190610701565b60405180910390f35b6100f360048036038101906100ee9190610748565b610570565b6040516101019291906107e3565b60405180910390f35b6101126105b4565b60405161011f919061080c565b60405180910390f35b3360008054906101000a900473ffffffffffffffffffffffffffffffffffffffff1673ffffffffffffffffffffffffffffffffffffffff168173ffffffffffffffffffffffffffffffffffffffff16146101b7576040517f08c379a00000000000000000000000000000000000000000000000000000000081526004016101ae90610884565b60405180910390fd5b60405180604001604052808473ffffffffffffffffffffffffffffffffffffffff16815260200183815250600360008573ffffffffffffffffffffffffffffffffffffffff1673ffffffffffffffffffffffffffffffffffffffff16815260200190815260200160002060008201518160000160006101000a81548173ffffffffffffffffffffffffffffffffffffffff021916908373ffffffffffffffffffffffffffffffffffffffff16021790555060208201518160010155905050505050565b3360008054906101000a900473ffffffffffffffffffffffffffffffffffffffff1673ffffffffffffffffffffffffffffffffffffffff168173ffffffffffffffffffffffffffffffffffffffff1614610309576040517f08c379a000000000000000000000000000000000000000000000000000000000815260040161030090610884565b60405180910390fd5b81600160006101000a81548173ffffffffffffffffffffffffffffffffffffffff021916908373ffffffffffffffffffffffffffffffffffffffff1602179055505050565b6000600360008473ffffffffffffffffffffffffffffffffffffffff1673ffffffffffffffffffffffffffffffffffffffff168152602001908152602001600020600101549050600081836103a391906108d3565b90508373ffffffffffffffffffffffffffffffffffffffff166323b872dd33600260009054906101000a900473ffffffffffffffffffffffffffffffffffffffff16866040518463ffffffff1660e01b815260040161040493929190610904565b6020604051808303816000875af1158015610423573d6000803e3d6000fd5b505050506040513d601f19601f820116820180604052508101906104479190610973565b50600160009054906101000a900473ffffffffffffffffffffffffffffffffffffffff1673ffffffffffffffffffffffffffffffffffffffff1663a9059cbb33836040518363ffffffff1660e01b81526004016104a59291906109a0565b6020604051808303816000875af11580156104c4573d6000803e3d6000fd5b505050506040513d601f19601f820116820180604052508101906104e89190610973565b507f9ef34208ba06141ac46d26a8e87aa9a91a508a52a95532a1c905eb19f71af81d84600160009054906101000a900473ffffffffffffffffffffffffffffffffffffffff168360405161053e93929190610904565b60405180910390a150505050565b60008054906101000a900473ffffffffffffffffffffffffffffffffffffffff1681565b60036020528060005260406000206000915090508060000160009054906101000a900473ffffffffffffffffffffffffffffffffffffffff16908060010154905082565b600160009054906101000a900473ffffffffffffffffffffffffffffffffffffffff1681565b600080fd5b600073ffffffffffffffffffffffffffffffffffffffff82169050919050565b600061060a826105df565b9050919050565b600061061c826105ff565b9050919050565b61062c81610611565b811461063757600080fd5b50565b60008135905061064981610623565b92915050565b6000819050919050565b6106628161064f565b811461066d57600080fd5b50565b60008135905061067f81610659565b92915050565b6000806040838503121561069c5761069b6105da565b5b60006106aa8582860161063a565b92505060206106bb85828601610670565b9150509250929050565b6000602082840312156106db576106da6105da565b5b60006106e98482850161063a565b91505092915050565b6106fb816105ff565b82525050565b600060208201905061071660008301846106f2565b92915050565b610725816105ff565b811461073057600080fd5b50565b6000813590506107428161071c565b92915050565b60006020828403121561075e5761075d6105da565b5b600061076c84828501610733565b91505092915050565b6000819050919050565b600061079a610795610790846105df565b610775565b6105df565b9050919050565b60006107ac8261077f565b9050919050565b60006107be826107a1565b9050919050565b6107ce816107b3565b82525050565b6107dd8161064f565b82525050565b60006040820190506107f860008301856107c5565b61080560208301846107d4565b9392505050565b600060208201905061082160008301846107c5565b92915050565b600082825260208201905092915050565b7f6e6f7420617574686f72697a6564000000000000000000000000000000000000600082015250565b600061086e600e83610827565b915061087982610838565b602082019050919050565b6000602082019050818103600083015261089d81610861565b9050919050565b7f4e487b7100000000000000000000000000000000000000000000000000000000600052601260045260246000fd5b60006108de8261064f565b91506108e98361064f565b9250826108f9576108f86108a4565b5b828204905092915050565b600060608201905061091960008301866106f2565b61092660208301856106f2565b61093360408301846107d4565b949350505050565b60008115159050919050565b6109508161093b565b811461095b57600080fd5b50565b60008151905061096d81610947565b92915050565b600060208284031215610989576109886105da565b5b60006109978482850161095e565b91505092915050565b60006040820190506109b560008301856106f2565b6109c260208301846107d4565b939250505056fea264697066735822122055f61ef48870f299b4661c480d13a307b73c9d9134e147e7d172bf9c3864286c64736f6c634300080b0033",
  "immutableReferences": {},
  "source": "// SPDX-License-Identifier: MIT\n\npragma solidity ^0.8.0;\n\nimport \"@openzeppelin/contracts/token/ERC20/ERC20.sol\";\n\ncontract Converter {\n    address public owner;\n    ERC20 public cosmicCash;\n    address DEAD = 0x000000000000000000000000000000000000dEaD;\n    struct Resource {\n        ERC20 resource;\n        uint conversionRate;\n    }\n    mapping(address => Resource) public rates;\n\n    constructor() {\n        owner = msg.sender;\n    }\n\n    // EVENTS\n    event conversionComplete(address _resource, address _csc, uint amount);\n\n    // MODIFIERS\n    modifier onlyOwner(address _address) {\n        require(_address == owner, \"not authorized\");\n        _;\n    }\n\n    // ONLY OWNER\n    function setResource(ERC20 _resource, uint _conversionRate) public onlyOwner(msg.sender) {\n        rates[address(_resource)] = Resource(_resource, _conversionRate);\n    }\n\n    function setCosmicCash(ERC20 _cosmicCash) public onlyOwner(msg.sender) {\n        cosmicCash = _cosmicCash;\n    }\n\n    // USER INTERFACE\n    function convert(ERC20 _resource, uint _amount) public {\n        uint conversionRate = rates[address(_resource)].conversionRate;\n        uint amount = _amount/conversionRate;\n        _resource.transferFrom(msg.sender, DEAD, _amount);\n        cosmicCash.transfer(msg.sender, amount);\n        emit conversionComplete(address(_resource), address(cosmicCash), amount);\n    }\n}",
  "sourcePath": "/Users/aslan/Desktop/MineEmpireBackend/contracts/Converter.sol",
  "compiler": {
    "name": "solc",
    "version": "0.8.11+commit.d7f03943.Emscripten.clang"
  },
  "schemaVersion": "3.4.3",
  "updatedAt": "2022-07-15T19:44:45.664Z",
  "devdoc": {
    "kind": "dev",
    "methods": {},
    "version": 1
  },
  "userdoc": {
    "kind": "user",
    "methods": {},
    "version": 1
  }
}