{
  "contractName": "Converter",
  "abi": [
    {
      "inputs": [
        {
          "internalType": "contract ERC20PresetMinterPauser",
          "name": "_cosmicCash",
          "type": "address"
        }
      ],
      "stateMutability": "nonpayable",
      "type": "constructor"
    },
    {
      "anonymous": false,
      "inputs": [
        {
          "indexed": false,
          "internalType": "address",
          "name": "_resource",
          "type": "address"
        },
        {
          "indexed": false,
          "internalType": "address",
          "name": "_csc",
          "type": "address"
        },
        {
          "indexed": false,
          "internalType": "uint256",
          "name": "amount",
          "type": "uint256"
        }
      ],
      "name": "conversionComplete",
      "type": "event"
    },
    {
      "inputs": [],
      "name": "cosmicCash",
      "outputs": [
        {
          "internalType": "contract ERC20PresetMinterPauser",
          "name": "",
          "type": "address"
        }
      ],
      "stateMutability": "view",
      "type": "function",
      "constant": true
    },
    {
      "inputs": [],
      "name": "owner",
      "outputs": [
        {
          "internalType": "address",
          "name": "",
          "type": "address"
        }
      ],
      "stateMutability": "view",
      "type": "function",
      "constant": true
    },
    {
      "inputs": [
        {
          "internalType": "address",
          "name": "",
          "type": "address"
        }
      ],
      "name": "rates",
      "outputs": [
        {
          "internalType": "contract ERC20PresetMinterPauser",
          "name": "resource",
          "type": "address"
        },
        {
          "internalType": "uint256",
          "name": "conversionRate",
          "type": "uint256"
        }
      ],
      "stateMutability": "view",
      "type": "function",
      "constant": true
    },
    {
      "inputs": [
        {
          "internalType": "contract ERC20PresetMinterPauser",
          "name": "_resource",
          "type": "address"
        },
        {
          "internalType": "uint256",
          "name": "_conversionRate",
          "type": "uint256"
        }
      ],
      "name": "setResource",
      "outputs": [],
      "stateMutability": "nonpayable",
      "type": "function"
    },
    {
      "inputs": [
        {
          "internalType": "address payable",
          "name": "_address",
          "type": "address"
        }
      ],
      "name": "setTreasury",
      "outputs": [],
      "stateMutability": "nonpayable",
      "type": "function"
    },
    {
      "inputs": [
        {
          "internalType": "contract ERC20PresetMinterPauser",
          "name": "_resource",
          "type": "address"
        },
        {
          "internalType": "uint256",
          "name": "_amount",
          "type": "uint256"
        }
      ],
      "name": "convert",
      "outputs": [],
      "stateMutability": "nonpayable",
      "type": "function"
    }
  ],
  "bytecode": "0x608060405234801561001057600080fd5b50604051610bed380380610bed8339818101604052810190610032919061012e565b336000806101000a81548173ffffffffffffffffffffffffffffffffffffffff021916908373ffffffffffffffffffffffffffffffffffffffff16021790555080600160006101000a81548173ffffffffffffffffffffffffffffffffffffffff021916908373ffffffffffffffffffffffffffffffffffffffff1602179055505061015b565b600080fd5b600073ffffffffffffffffffffffffffffffffffffffff82169050919050565b60006100e9826100be565b9050919050565b60006100fb826100de565b9050919050565b61010b816100f0565b811461011657600080fd5b50565b60008151905061012881610102565b92915050565b600060208284031215610144576101436100b9565b5b600061015284828501610119565b91505092915050565b610a838061016a6000396000f3fe608060405234801561001057600080fd5b50600436106100625760003560e01c80631f8498361461006757806367c6e39c146100835780638da5cb5b1461009f578063a8734f0b146100bd578063e0194886146100ee578063f0f442601461010c575b600080fd5b610081600480360381019061007c9190610673565b610128565b005b61009d60048036038101906100989190610673565b61027a565b005b6100a7610466565b6040516100b491906106c2565b60405180910390f35b6100d760048036038101906100d29190610709565b61048a565b6040516100e59291906107a4565b60405180910390f35b6100f66104ce565b60405161010391906107cd565b60405180910390f35b61012660048036038101906101219190610826565b6104f4565b005b3360008054906101000a900473ffffffffffffffffffffffffffffffffffffffff1673ffffffffffffffffffffffffffffffffffffffff168173ffffffffffffffffffffffffffffffffffffffff16146101b7576040517f08c379a00000000000000000000000000000000000000000000000000000000081526004016101ae906108b0565b60405180910390fd5b60405180604001604052808473ffffffffffffffffffffffffffffffffffffffff16815260200183815250600360008573ffffffffffffffffffffffffffffffffffffffff1673ffffffffffffffffffffffffffffffffffffffff16815260200190815260200160002060008201518160000160006101000a81548173ffffffffffffffffffffffffffffffffffffffff021916908373ffffffffffffffffffffffffffffffffffffffff16021790555060208201518160010155905050505050565b6000600360008473ffffffffffffffffffffffffffffffffffffffff1673ffffffffffffffffffffffffffffffffffffffff168152602001908152602001600020600101549050600081836102cf91906108ff565b90508373ffffffffffffffffffffffffffffffffffffffff166323b872dd33600260009054906101000a900473ffffffffffffffffffffffffffffffffffffffff16866040518463ffffffff1660e01b815260040161033093929190610951565b6020604051808303816000875af115801561034f573d6000803e3d6000fd5b505050506040513d601f19601f8201168201806040525081019061037391906109c0565b50600160009054906101000a900473ffffffffffffffffffffffffffffffffffffffff1673ffffffffffffffffffffffffffffffffffffffff166340c10f1933836040518363ffffffff1660e01b81526004016103d19291906109ed565b600060405180830381600087803b1580156103eb57600080fd5b505af11580156103ff573d6000803e3d6000fd5b505050507f9ef34208ba06141ac46d26a8e87aa9a91a508a52a95532a1c905eb19f71af81d84600160009054906101000a900473ffffffffffffffffffffffffffffffffffffffff168360405161045893929190610a16565b60405180910390a150505050565b60008054906101000a900473ffffffffffffffffffffffffffffffffffffffff1681565b60036020528060005260406000206000915090508060000160009054906101000a900473ffffffffffffffffffffffffffffffffffffffff16908060010154905082565b600160009054906101000a900473ffffffffffffffffffffffffffffffffffffffff1681565b3360008054906101000a900473ffffffffffffffffffffffffffffffffffffffff1673ffffffffffffffffffffffffffffffffffffffff168173ffffffffffffffffffffffffffffffffffffffff1614610583576040517f08c379a000000000000000000000000000000000000000000000000000000000815260040161057a906108b0565b60405180910390fd5b81600260006101000a81548173ffffffffffffffffffffffffffffffffffffffff021916908373ffffffffffffffffffffffffffffffffffffffff1602179055505050565b600080fd5b600073ffffffffffffffffffffffffffffffffffffffff82169050919050565b60006105f8826105cd565b9050919050565b600061060a826105ed565b9050919050565b61061a816105ff565b811461062557600080fd5b50565b60008135905061063781610611565b92915050565b6000819050919050565b6106508161063d565b811461065b57600080fd5b50565b60008135905061066d81610647565b92915050565b6000806040838503121561068a576106896105c8565b5b600061069885828601610628565b92505060206106a98582860161065e565b9150509250929050565b6106bc816105ed565b82525050565b60006020820190506106d760008301846106b3565b92915050565b6106e6816105ed565b81146106f157600080fd5b50565b600081359050610703816106dd565b92915050565b60006020828403121561071f5761071e6105c8565b5b600061072d848285016106f4565b91505092915050565b6000819050919050565b600061075b610756610751846105cd565b610736565b6105cd565b9050919050565b600061076d82610740565b9050919050565b600061077f82610762565b9050919050565b61078f81610774565b82525050565b61079e8161063d565b82525050565b60006040820190506107b96000830185610786565b6107c66020830184610795565b9392505050565b60006020820190506107e26000830184610786565b92915050565b60006107f3826105cd565b9050919050565b610803816107e8565b811461080e57600080fd5b50565b600081359050610820816107fa565b92915050565b60006020828403121561083c5761083b6105c8565b5b600061084a84828501610811565b91505092915050565b600082825260208201905092915050565b7f6e6f7420617574686f72697a6564000000000000000000000000000000000000600082015250565b600061089a600e83610853565b91506108a582610864565b602082019050919050565b600060208201905081810360008301526108c98161088d565b9050919050565b7f4e487b7100000000000000000000000000000000000000000000000000000000600052601260045260246000fd5b600061090a8261063d565b91506109158361063d565b925082610925576109246108d0565b5b828204905092915050565b600061093b82610762565b9050919050565b61094b81610930565b82525050565b600060608201905061096660008301866106b3565b6109736020830185610942565b6109806040830184610795565b949350505050565b60008115159050919050565b61099d81610988565b81146109a857600080fd5b50565b6000815190506109ba81610994565b92915050565b6000602082840312156109d6576109d56105c8565b5b60006109e4848285016109ab565b91505092915050565b6000604082019050610a0260008301856106b3565b610a0f6020830184610795565b9392505050565b6000606082019050610a2b60008301866106b3565b610a3860208301856106b3565b610a456040830184610795565b94935050505056fea26469706673582212201a542e88dff7526c3dea7a08b9f3134c55c5f8faeef6ee45efc2cb70b478d09d64736f6c634300080b0033",
  "immutableReferences": {},
  "source": "// SPDX-License-Identifier: MIT\n\npragma solidity ^0.8.0;\n\nimport \"@openzeppelin/contracts/token/ERC20/presets/ERC20PresetMinterPauser.sol\";\n\ncontract Converter {\n    address public owner;\n    ERC20PresetMinterPauser public cosmicCash;\n    address payable treasury;\n    struct Resource {\n        ERC20PresetMinterPauser resource;\n        uint conversionRate;\n    }\n    mapping(address => Resource) public rates;\n\n    constructor(ERC20PresetMinterPauser _cosmicCash) {\n        owner = msg.sender;\n        cosmicCash = _cosmicCash;\n    }\n\n    // EVENTS\n    event conversionComplete(address _resource, address _csc, uint amount);\n\n    // MODIFIERS\n    modifier onlyOwner(address _address) {\n        require(_address == owner, \"not authorized\");\n        _;\n    }\n\n    // ONLY OWNER\n    function setResource(ERC20PresetMinterPauser _resource, uint _conversionRate) public onlyOwner(msg.sender) {\n        rates[address(_resource)] = Resource(_resource, _conversionRate);\n    }\n\n    function setTreasury(address payable _address) public onlyOwner(msg.sender) {\n        treasury = _address;\n    }\n\n    // USER INTERFACE\n    function convert(ERC20PresetMinterPauser _resource, uint _amount) public {\n        uint conversionRate = rates[address(_resource)].conversionRate;\n        uint amount = _amount/conversionRate;\n        _resource.transferFrom(msg.sender, treasury, _amount);\n        cosmicCash.mint(msg.sender, amount);\n        emit conversionComplete(address(_resource), address(cosmicCash), amount);\n        return;\n    }\n}",
  "sourcePath": "/Users/aslan/Desktop/MineEmpireBackend/contracts/Converter.sol",
  "compiler": {
    "name": "solc",
    "version": "0.8.11+commit.d7f03943.Emscripten.clang"
  },
  "schemaVersion": "3.4.3",
  "updatedAt": "2022-06-20T21:07:42.407Z",
  "networkType": "ethereum",
  "devdoc": {
    "kind": "dev",
    "methods": {},
    "version": 1
  },
  "userdoc": {
    "kind": "user",
    "methods": {},
    "version": 1
  }
}