{
  "contractName": "CSCMinter",
  "abi": [
    {
      "inputs": [
        {
          "internalType": "contract ERC20PresetMinterPauser",
          "name": "_cosmicCash",
          "type": "address"
        }
      ],
      "stateMutability": "nonpayable",
      "type": "constructor"
    },
    {
      "inputs": [],
      "name": "cosmicCash",
      "outputs": [
        {
          "internalType": "contract ERC20PresetMinterPauser",
          "name": "",
          "type": "address"
        }
      ],
      "stateMutability": "view",
      "type": "function"
    },
    {
      "inputs": [],
      "name": "getCSC",
      "outputs": [],
      "stateMutability": "nonpayable",
      "type": "function"
    }
  ],
  "bytecode": "0x608060405234801561001057600080fd5b506040516103a73803806103a7833981810160405281019061003291906100ed565b806000806101000a81548173ffffffffffffffffffffffffffffffffffffffff021916908373ffffffffffffffffffffffffffffffffffffffff1602179055505061011a565b600080fd5b600073ffffffffffffffffffffffffffffffffffffffff82169050919050565b60006100a88261007d565b9050919050565b60006100ba8261009d565b9050919050565b6100ca816100af565b81146100d557600080fd5b50565b6000815190506100e7816100c1565b92915050565b60006020828403121561010357610102610078565b5b6000610111848285016100d8565b91505092915050565b61027e806101296000396000f3fe608060405234801561001057600080fd5b50600436106100365760003560e01c806392655bbc1461003b578063e019488614610045575b600080fd5b610043610063565b005b61004d6100fb565b60405161005a919061019e565b60405180910390f35b60008054906101000a900473ffffffffffffffffffffffffffffffffffffffff1673ffffffffffffffffffffffffffffffffffffffff166340c10f1933683635c9adc5dea000006040518363ffffffff1660e01b81526004016100c792919061021f565b600060405180830381600087803b1580156100e157600080fd5b505af11580156100f5573d6000803e3d6000fd5b50505050565b60008054906101000a900473ffffffffffffffffffffffffffffffffffffffff1681565b600073ffffffffffffffffffffffffffffffffffffffff82169050919050565b6000819050919050565b600061016461015f61015a8461011f565b61013f565b61011f565b9050919050565b600061017682610149565b9050919050565b60006101888261016b565b9050919050565b6101988161017d565b82525050565b60006020820190506101b3600083018461018f565b92915050565b60006101c48261011f565b9050919050565b6101d4816101b9565b82525050565b6000819050919050565b6000819050919050565b60006102096102046101ff846101da565b61013f565b6101e4565b9050919050565b610219816101ee565b82525050565b600060408201905061023460008301856101cb565b6102416020830184610210565b939250505056fea26469706673582212201dbddbc284dedb6574f1f7701807d2a541a24da34497302c494dc5738324985b64736f6c634300080b0033",
  "immutableReferences": {},
  "source": "// SPDX-License-Identifier: MIT\n\npragma solidity ^0.8.0;\n\nimport \"@openzeppelin/contracts/token/ERC20/presets/ERC20PresetMinterPauser.sol\";\n\ncontract CSCMinter {\n    ERC20PresetMinterPauser public cosmicCash;\n\n    constructor(ERC20PresetMinterPauser _cosmicCash) {\n        cosmicCash = _cosmicCash;\n    }\n\n    function getCSC() public {\n        cosmicCash.mint(msg.sender, 1000000000000000000000);\n    }\n}",
  "sourcePath": "/Users/aslan/Desktop/MineEmpireBackend/contracts/CSCMinter.sol",
  "compiler": {
    "name": "solc",
    "version": "0.8.11+commit.d7f03943.Emscripten.clang"
  },
  "schemaVersion": "3.4.3",
  "updatedAt": "2022-07-06T14:26:25.015Z",
  "devdoc": {
    "kind": "dev",
    "methods": {},
    "version": 1
  },
  "userdoc": {
    "kind": "user",
    "methods": {},
    "version": 1
  }
}