{
  "contractName": "DailyEnergy",
  "abi": [
    {
      "inputs": [],
      "stateMutability": "nonpayable",
      "type": "constructor"
    },
    {
      "inputs": [],
      "name": "energy",
      "outputs": [
        {
          "internalType": "contract Energy",
          "name": "",
          "type": "address"
        }
      ],
      "stateMutability": "view",
      "type": "function"
    },
    {
      "inputs": [],
      "name": "owner",
      "outputs": [
        {
          "internalType": "address",
          "name": "",
          "type": "address"
        }
      ],
      "stateMutability": "view",
      "type": "function"
    },
    {
      "inputs": [
        {
          "internalType": "contract Energy",
          "name": "_energy",
          "type": "address"
        }
      ],
      "name": "setEnergy",
      "outputs": [],
      "stateMutability": "nonpayable",
      "type": "function"
    },
    {
      "inputs": [
        {
          "internalType": "address",
          "name": "_address",
          "type": "address"
        }
      ],
      "name": "getAccumulatedEnergy",
      "outputs": [
        {
          "internalType": "uint256",
          "name": "",
          "type": "uint256"
        }
      ],
      "stateMutability": "view",
      "type": "function"
    },
    {
      "inputs": [],
      "name": "claimEnergy",
      "outputs": [],
      "stateMutability": "nonpayable",
      "type": "function"
    }
  ],
  "bytecode": "0x608060405234801561001057600080fd5b5033600160006101000a81548173ffffffffffffffffffffffffffffffffffffffff021916908373ffffffffffffffffffffffffffffffffffffffff1602179055506801a055690d9db8000060028190555066013bc6ccaa800060038190555061082e8061007f6000396000f3fe608060405234801561001057600080fd5b50600436106100565760003560e01c80623043c81461005b57806311f82b081461008b5780632ab34a91146100a75780638da5cb5b146100b1578063aa849244146100cf575b600080fd5b610075600480360381019061007091906104c5565b6100ed565b604051610082919061050b565b60405180910390f35b6100a560048036038101906100a09190610564565b610262565b005b6100af610337565b005b6100b9610418565b6040516100c691906105a0565b60405180910390f35b6100d761043e565b6040516100e4919061061a565b60405180910390f35b600080600090506000600460008573ffffffffffffffffffffffffffffffffffffffff1673ffffffffffffffffffffffffffffffffffffffff168152602001908152602001600020541415610146576002549050610249565b6000600460008573ffffffffffffffffffffffffffffffffffffffff1673ffffffffffffffffffffffffffffffffffffffff16815260200190815260200160002054426101939190610664565b9050600354816101a39190610698565b91506000600560008673ffffffffffffffffffffffffffffffffffffffff1673ffffffffffffffffffffffffffffffffffffffff16815260200190815260200160002054111561024757600560008573ffffffffffffffffffffffffffffffffffffffff1673ffffffffffffffffffffffffffffffffffffffff1681526020019081526020016000205460648361023a9190610698565b6102449190610721565b91505b505b6002548111156102595760025490505b80915050919050565b33600160009054906101000a900473ffffffffffffffffffffffffffffffffffffffff1673ffffffffffffffffffffffffffffffffffffffff168173ffffffffffffffffffffffffffffffffffffffff16146102f3576040517f08c379a00000000000000000000000000000000000000000000000000000000081526004016102ea906107af565b60405180910390fd5b816000806101000a81548173ffffffffffffffffffffffffffffffffffffffff021916908373ffffffffffffffffffffffffffffffffffffffff1602179055505050565b6000610342336100ed565b905042600460003373ffffffffffffffffffffffffffffffffffffffff1673ffffffffffffffffffffffffffffffffffffffff1681526020019081526020016000208190555060008054906101000a900473ffffffffffffffffffffffffffffffffffffffff1673ffffffffffffffffffffffffffffffffffffffff166340c10f1933836040518363ffffffff1660e01b81526004016103e39291906107cf565b600060405180830381600087803b1580156103fd57600080fd5b505af1158015610411573d6000803e3d6000fd5b5050505050565b600160009054906101000a900473ffffffffffffffffffffffffffffffffffffffff1681565b60008054906101000a900473ffffffffffffffffffffffffffffffffffffffff1681565b600080fd5b600073ffffffffffffffffffffffffffffffffffffffff82169050919050565b600061049282610467565b9050919050565b6104a281610487565b81146104ad57600080fd5b50565b6000813590506104bf81610499565b92915050565b6000602082840312156104db576104da610462565b5b60006104e9848285016104b0565b91505092915050565b6000819050919050565b610505816104f2565b82525050565b600060208201905061052060008301846104fc565b92915050565b600061053182610487565b9050919050565b61054181610526565b811461054c57600080fd5b50565b60008135905061055e81610538565b92915050565b60006020828403121561057a57610579610462565b5b60006105888482850161054f565b91505092915050565b61059a81610487565b82525050565b60006020820190506105b56000830184610591565b92915050565b6000819050919050565b60006105e06105db6105d684610467565b6105bb565b610467565b9050919050565b60006105f2826105c5565b9050919050565b6000610604826105e7565b9050919050565b610614816105f9565b82525050565b600060208201905061062f600083018461060b565b92915050565b7f4e487b7100000000000000000000000000000000000000000000000000000000600052601160045260246000fd5b600061066f826104f2565b915061067a836104f2565b92508282101561068d5761068c610635565b5b828203905092915050565b60006106a3826104f2565b91506106ae836104f2565b9250817fffffffffffffffffffffffffffffffffffffffffffffffffffffffffffffffff04831182151516156106e7576106e6610635565b5b828202905092915050565b7f4e487b7100000000000000000000000000000000000000000000000000000000600052601260045260246000fd5b600061072c826104f2565b9150610737836104f2565b925082610747576107466106f2565b5b828204905092915050565b600082825260208201905092915050565b7f6e6f7420617574686f72697a6564000000000000000000000000000000000000600082015250565b6000610799600e83610752565b91506107a482610763565b602082019050919050565b600060208201905081810360008301526107c88161078c565b9050919050565b60006040820190506107e46000830185610591565b6107f160208301846104fc565b939250505056fea26469706673582212202fee2ef7d02b09f445387a07e3536bd8d178ca131588cf10bdec76f5fe68d32664736f6c634300080b0033",
  "immutableReferences": {},
  "source": "// SPDX-License-Identifier: MIT\n\npragma solidity ^0.8.0;\n\nimport \"./Energy.sol\";\n\ncontract DailyEnergy {\n    Energy public energy;\n    address public owner;\n    uint MAX_ENERGY;\n    uint AMOUNT_PER_SECOND;\n    mapping(address => uint) lastClaimed;\n    mapping(address => uint) userMultiplier;\n\n\n    constructor() {\n        owner = msg.sender;\n        MAX_ENERGY = 30e18;\n        AMOUNT_PER_SECOND = 3472e11;\n    }\n\n    // MODIFIERS\n    modifier onlyOwner(address _address) {\n        require(_address == owner, \"not authorized\");\n        _;\n    }\n\n    function setEnergy(Energy _energy) public onlyOwner(msg.sender) {\n        energy = _energy;\n    }\n\n    function getAccumulatedEnergy(address _address) public view returns (uint) {\n        uint amount = 0;\n        if (lastClaimed[_address] == 0) {\n            amount = MAX_ENERGY;\n        } else {\n            uint time = block.timestamp - lastClaimed[_address];\n            amount = time * AMOUNT_PER_SECOND;\n            if (userMultiplier[_address] > 0) {\n                amount = amount * 100 / userMultiplier[_address];\n            }\n        }\n        if (amount > MAX_ENERGY) {\n            amount = MAX_ENERGY;\n        }\n        return amount;\n    }\n\n    function claimEnergy() public {\n        uint amount = getAccumulatedEnergy(msg.sender);\n        lastClaimed[msg.sender] = block.timestamp;\n        energy.mint(msg.sender, amount);\n    }\n}",
  "sourcePath": "/Users/aslan/Desktop/MineEmpireBackend/contracts/DailyEnergy.sol",
  "compiler": {
    "name": "solc",
    "version": "0.8.11+commit.d7f03943.Emscripten.clang"
  },
  "schemaVersion": "3.4.3",
  "updatedAt": "2022-07-06T14:26:25.028Z",
  "devdoc": {
    "kind": "dev",
    "methods": {},
    "version": 1
  },
  "userdoc": {
    "kind": "user",
    "methods": {},
    "version": 1
  }
}