{
  "contractName": "DailyEnergy",
  "abi": [
    {
      "inputs": [],
      "stateMutability": "nonpayable",
      "type": "constructor"
    },
    {
      "inputs": [],
      "name": "energy",
      "outputs": [
        {
          "internalType": "contract Energy",
          "name": "",
          "type": "address"
        }
      ],
      "stateMutability": "view",
      "type": "function",
      "constant": true
    },
    {
      "inputs": [],
      "name": "owner",
      "outputs": [
        {
          "internalType": "address",
          "name": "",
          "type": "address"
        }
      ],
      "stateMutability": "view",
      "type": "function",
      "constant": true
    },
    {
      "inputs": [
        {
          "internalType": "contract Energy",
          "name": "_energy",
          "type": "address"
        }
      ],
      "name": "setEnergy",
      "outputs": [],
      "stateMutability": "nonpayable",
      "type": "function"
    },
    {
      "inputs": [],
      "name": "claimEnergy",
      "outputs": [],
      "stateMutability": "nonpayable",
      "type": "function"
    }
  ],
  "bytecode": "0x608060405234801561001057600080fd5b5033600160006101000a81548173ffffffffffffffffffffffffffffffffffffffff021916908373ffffffffffffffffffffffffffffffffffffffff1602179055506801a055690d9db8000060028190555068270801d946c9400000600381905550610720806100816000396000f3fe608060405234801561001057600080fd5b506004361061004c5760003560e01c806311f82b08146100515780632ab34a911461006d5780638da5cb5b14610077578063aa84924414610095575b600080fd5b61006b6004803603810190610066919061043d565b6100b3565b005b610075610188565b005b61007f61037e565b60405161008c9190610479565b60405180910390f35b61009d6103a4565b6040516100aa91906104f3565b60405180910390f35b33600160009054906101000a900473ffffffffffffffffffffffffffffffffffffffff1673ffffffffffffffffffffffffffffffffffffffff168173ffffffffffffffffffffffffffffffffffffffff1614610144576040517f08c379a000000000000000000000000000000000000000000000000000000000815260040161013b9061056b565b60405180910390fd5b816000806101000a81548173ffffffffffffffffffffffffffffffffffffffff021916908373ffffffffffffffffffffffffffffffffffffffff1602179055505050565b600080600460003373ffffffffffffffffffffffffffffffffffffffff1673ffffffffffffffffffffffffffffffffffffffff1681526020019081526020016000205414156101db5760025490506102de565b6000600460003373ffffffffffffffffffffffffffffffffffffffff1673ffffffffffffffffffffffffffffffffffffffff168152602001908152602001600020544261022891906105c4565b90506003548161023891906105f8565b91506000600560003373ffffffffffffffffffffffffffffffffffffffff1673ffffffffffffffffffffffffffffffffffffffff1681526020019081526020016000205411156102dc57600560003373ffffffffffffffffffffffffffffffffffffffff1673ffffffffffffffffffffffffffffffffffffffff168152602001908152602001600020546064836102cf91906105f8565b6102d99190610681565b91505b505b6002548111156102ee5760025490505b60008054906101000a900473ffffffffffffffffffffffffffffffffffffffff1673ffffffffffffffffffffffffffffffffffffffff166340c10f1933836040518363ffffffff1660e01b81526004016103499291906106c1565b600060405180830381600087803b15801561036357600080fd5b505af1158015610377573d6000803e3d6000fd5b5050505050565b600160009054906101000a900473ffffffffffffffffffffffffffffffffffffffff1681565b60008054906101000a900473ffffffffffffffffffffffffffffffffffffffff1681565b600080fd5b600073ffffffffffffffffffffffffffffffffffffffff82169050919050565b60006103f8826103cd565b9050919050565b600061040a826103ed565b9050919050565b61041a816103ff565b811461042557600080fd5b50565b60008135905061043781610411565b92915050565b600060208284031215610453576104526103c8565b5b600061046184828501610428565b91505092915050565b610473816103ed565b82525050565b600060208201905061048e600083018461046a565b92915050565b6000819050919050565b60006104b96104b46104af846103cd565b610494565b6103cd565b9050919050565b60006104cb8261049e565b9050919050565b60006104dd826104c0565b9050919050565b6104ed816104d2565b82525050565b600060208201905061050860008301846104e4565b92915050565b600082825260208201905092915050565b7f6e6f7420617574686f72697a6564000000000000000000000000000000000000600082015250565b6000610555600e8361050e565b91506105608261051f565b602082019050919050565b6000602082019050818103600083015261058481610548565b9050919050565b6000819050919050565b7f4e487b7100000000000000000000000000000000000000000000000000000000600052601160045260246000fd5b60006105cf8261058b565b91506105da8361058b565b9250828210156105ed576105ec610595565b5b828203905092915050565b60006106038261058b565b915061060e8361058b565b9250817fffffffffffffffffffffffffffffffffffffffffffffffffffffffffffffffff048311821515161561064757610646610595565b5b828202905092915050565b7f4e487b7100000000000000000000000000000000000000000000000000000000600052601260045260246000fd5b600061068c8261058b565b91506106978361058b565b9250826106a7576106a6610652565b5b828204905092915050565b6106bb8161058b565b82525050565b60006040820190506106d6600083018561046a565b6106e360208301846106b2565b939250505056fea2646970667358221220df8afb5264799c64031bf36137019c3f73422cfb0c66c7de9148a5a3412970b164736f6c634300080b0033",
  "immutableReferences": {},
  "source": "// SPDX-License-Identifier: MIT\n\npragma solidity ^0.8.0;\n\nimport \"./Energy.sol\";\n\ncontract DailyEnergy {\n    Energy public energy;\n    address public owner;\n    uint MAX_ENERGY;\n    uint AMOUNT_PER_SECOND;\n    mapping(address => uint) lastClaimed;\n    mapping(address => uint) userMultiplier;\n\n\n    constructor() {\n        owner = msg.sender;\n        MAX_ENERGY = 30e18;\n        AMOUNT_PER_SECOND = 72e19;\n    }\n\n    // MODIFIERS\n    modifier onlyOwner(address _address) {\n        require(_address == owner, \"not authorized\");\n        _;\n    }\n\n    function setEnergy(Energy _energy) public onlyOwner(msg.sender) {\n        energy = _energy;\n    }\n\n    function claimEnergy() public {\n        uint amount = 0;\n        if (lastClaimed[msg.sender] == 0) {\n            amount = MAX_ENERGY;\n        } else {\n            uint time = block.timestamp - lastClaimed[msg.sender];\n            amount = time * AMOUNT_PER_SECOND;\n            if (userMultiplier[msg.sender] > 0) {\n                amount = amount * 100 / userMultiplier[msg.sender];\n            }\n        }\n        if (amount > MAX_ENERGY) {\n            amount = MAX_ENERGY;\n        }\n        energy.mint(msg.sender, amount);\n    }\n}",
  "sourcePath": "/Users/aslan/Desktop/MineEmpireBackend/contracts/DailyEnergy.sol",
  "compiler": {
    "name": "solc",
    "version": "0.8.11+commit.d7f03943.Emscripten.clang"
  },
  "schemaVersion": "3.4.3",
  "updatedAt": "2022-06-20T21:07:43.208Z",
  "networkType": "ethereum",
  "devdoc": {
    "kind": "dev",
    "methods": {},
    "version": 1
  },
  "userdoc": {
    "kind": "user",
    "methods": {},
    "version": 1
  }
}