{
  "contractName": "Energy",
  "abi": [
    {
      "inputs": [],
      "stateMutability": "nonpayable",
      "type": "constructor"
    },
    {
      "anonymous": false,
      "inputs": [
        {
          "indexed": true,
          "internalType": "address",
          "name": "owner",
          "type": "address"
        },
        {
          "indexed": true,
          "internalType": "address",
          "name": "spender",
          "type": "address"
        },
        {
          "indexed": false,
          "internalType": "uint256",
          "name": "value",
          "type": "uint256"
        }
      ],
      "name": "Approval",
      "type": "event"
    },
    {
      "anonymous": false,
      "inputs": [
        {
          "indexed": true,
          "internalType": "address",
          "name": "from",
          "type": "address"
        },
        {
          "indexed": true,
          "internalType": "address",
          "name": "to",
          "type": "address"
        },
        {
          "indexed": false,
          "internalType": "uint256",
          "name": "value",
          "type": "uint256"
        }
      ],
      "name": "Transfer",
      "type": "event"
    },
    {
      "inputs": [
        {
          "internalType": "address",
          "name": "owner",
          "type": "address"
        },
        {
          "internalType": "address",
          "name": "spender",
          "type": "address"
        }
      ],
      "name": "allowance",
      "outputs": [
        {
          "internalType": "uint256",
          "name": "",
          "type": "uint256"
        }
      ],
      "stateMutability": "view",
      "type": "function",
      "constant": true
    },
    {
      "inputs": [
        {
          "internalType": "address",
          "name": "",
          "type": "address"
        }
      ],
      "name": "allowedTransferrers",
      "outputs": [
        {
          "internalType": "bool",
          "name": "",
          "type": "bool"
        }
      ],
      "stateMutability": "view",
      "type": "function",
      "constant": true
    },
    {
      "inputs": [
        {
          "internalType": "address",
          "name": "spender",
          "type": "address"
        },
        {
          "internalType": "uint256",
          "name": "amount",
          "type": "uint256"
        }
      ],
      "name": "approve",
      "outputs": [
        {
          "internalType": "bool",
          "name": "",
          "type": "bool"
        }
      ],
      "stateMutability": "nonpayable",
      "type": "function"
    },
    {
      "inputs": [
        {
          "internalType": "address",
          "name": "account",
          "type": "address"
        }
      ],
      "name": "balanceOf",
      "outputs": [
        {
          "internalType": "uint256",
          "name": "",
          "type": "uint256"
        }
      ],
      "stateMutability": "view",
      "type": "function",
      "constant": true
    },
    {
      "inputs": [],
      "name": "decimals",
      "outputs": [
        {
          "internalType": "uint8",
          "name": "",
          "type": "uint8"
        }
      ],
      "stateMutability": "view",
      "type": "function",
      "constant": true
    },
    {
      "inputs": [
        {
          "internalType": "address",
          "name": "spender",
          "type": "address"
        },
        {
          "internalType": "uint256",
          "name": "subtractedValue",
          "type": "uint256"
        }
      ],
      "name": "decreaseAllowance",
      "outputs": [
        {
          "internalType": "bool",
          "name": "",
          "type": "bool"
        }
      ],
      "stateMutability": "nonpayable",
      "type": "function"
    },
    {
      "inputs": [
        {
          "internalType": "address",
          "name": "spender",
          "type": "address"
        },
        {
          "internalType": "uint256",
          "name": "addedValue",
          "type": "uint256"
        }
      ],
      "name": "increaseAllowance",
      "outputs": [
        {
          "internalType": "bool",
          "name": "",
          "type": "bool"
        }
      ],
      "stateMutability": "nonpayable",
      "type": "function"
    },
    {
      "inputs": [],
      "name": "name",
      "outputs": [
        {
          "internalType": "string",
          "name": "",
          "type": "string"
        }
      ],
      "stateMutability": "view",
      "type": "function",
      "constant": true
    },
    {
      "inputs": [],
      "name": "owner",
      "outputs": [
        {
          "internalType": "address",
          "name": "",
          "type": "address"
        }
      ],
      "stateMutability": "view",
      "type": "function",
      "constant": true
    },
    {
      "inputs": [],
      "name": "symbol",
      "outputs": [
        {
          "internalType": "string",
          "name": "",
          "type": "string"
        }
      ],
      "stateMutability": "view",
      "type": "function",
      "constant": true
    },
    {
      "inputs": [],
      "name": "totalSupply",
      "outputs": [
        {
          "internalType": "uint256",
          "name": "",
          "type": "uint256"
        }
      ],
      "stateMutability": "view",
      "type": "function",
      "constant": true
    },
    {
      "inputs": [
        {
          "internalType": "address",
          "name": "_address",
          "type": "address"
        },
        {
          "internalType": "bool",
          "name": "_canTransfer",
          "type": "bool"
        }
      ],
      "name": "setTransferrer",
      "outputs": [],
      "stateMutability": "nonpayable",
      "type": "function"
    },
    {
      "inputs": [
        {
          "internalType": "address",
          "name": "to",
          "type": "address"
        },
        {
          "internalType": "uint256",
          "name": "amount",
          "type": "uint256"
        }
      ],
      "name": "transfer",
      "outputs": [
        {
          "internalType": "bool",
          "name": "",
          "type": "bool"
        }
      ],
      "stateMutability": "nonpayable",
      "type": "function"
    },
    {
      "inputs": [
        {
          "internalType": "address",
          "name": "from",
          "type": "address"
        },
        {
          "internalType": "address",
          "name": "to",
          "type": "address"
        },
        {
          "internalType": "uint256",
          "name": "amount",
          "type": "uint256"
        }
      ],
      "name": "transferFrom",
      "outputs": [
        {
          "internalType": "bool",
          "name": "",
          "type": "bool"
        }
      ],
      "stateMutability": "nonpayable",
      "type": "function"
    },
    {
      "inputs": [
        {
          "internalType": "address",
          "name": "account",
          "type": "address"
        },
        {
          "internalType": "uint256",
          "name": "amount",
          "type": "uint256"
        }
      ],
      "name": "burn",
      "outputs": [
        {
          "internalType": "bool",
          "name": "",
          "type": "bool"
        }
      ],
      "stateMutability": "nonpayable",
      "type": "function"
    },
    {
      "inputs": [
        {
          "internalType": "address",
          "name": "account",
          "type": "address"
        },
        {
          "internalType": "uint256",
          "name": "amount",
          "type": "uint256"
        }
      ],
      "name": "mint",
      "outputs": [],
      "stateMutability": "nonpayable",
      "type": "function"
    }
  ],
  "bytecode": "0x60806040523480156200001157600080fd5b506040518060400160405280600681526020017f456e6572677900000000000000000000000000000000000000000000000000008152506040518060400160405280600381526020017f4e52470000000000000000000000000000000000000000000000000000000000815250816003908051906020019062000096929190620000f9565b508060049080519060200190620000af929190620000f9565b50505033600660006101000a81548173ffffffffffffffffffffffffffffffffffffffff021916908373ffffffffffffffffffffffffffffffffffffffff1602179055506200020e565b8280546200010790620001d8565b90600052602060002090601f0160209004810192826200012b576000855562000177565b82601f106200014657805160ff191683800117855562000177565b8280016001018555821562000177579182015b828111156200017657825182559160200191906001019062000159565b5b5090506200018691906200018a565b5090565b5b80821115620001a55760008160009055506001016200018b565b5090565b7f4e487b7100000000000000000000000000000000000000000000000000000000600052602260045260246000fd5b60006002820490506001821680620001f157607f821691505b60208210811415620002085762000207620001a9565b5b50919050565b611f1b806200021e6000396000f3fe608060405234801561001057600080fd5b50600436106101005760003560e01c806370a0823111610097578063a457c2d711610066578063a457c2d7146102d7578063a9059cbb14610307578063dd62ed3e14610337578063fb6cdc801461036757610100565b806370a082311461023b5780638da5cb5b1461026b57806395d89b41146102895780639dc29fac146102a757610100565b806323b872dd116100d357806323b872dd146101a1578063313ce567146101d157806339509351146101ef57806340c10f191461021f57610100565b806306fdde0314610105578063095ea7b31461012357806317ee93541461015357806318160ddd14610183575b600080fd5b61010d610383565b60405161011a9190611437565b60405180910390f35b61013d600480360381019061013891906114f2565b610415565b60405161014a919061154d565b60405180910390f35b61016d60048036038101906101689190611568565b610438565b60405161017a919061154d565b60405180910390f35b61018b610458565b60405161019891906115a4565b60405180910390f35b6101bb60048036038101906101b691906115bf565b610462565b6040516101c8919061154d565b60405180910390f35b6101d961051a565b6040516101e6919061162e565b60405180910390f35b610209600480360381019061020491906114f2565b610523565b604051610216919061154d565b60405180910390f35b610239600480360381019061023491906114f2565b6105cd565b005b61025560048036038101906102509190611568565b6106c8565b60405161026291906115a4565b60405180910390f35b610273610710565b6040516102809190611658565b60405180910390f35b610291610736565b60405161029e9190611437565b60405180910390f35b6102c160048036038101906102bc91906114f2565b6107c8565b6040516102ce919061154d565b60405180910390f35b6102f160048036038101906102ec91906114f2565b610873565b6040516102fe919061154d565b60405180910390f35b610321600480360381019061031c91906114f2565b61095d565b60405161032e919061154d565b60405180910390f35b610351600480360381019061034c9190611673565b610a09565b60405161035e91906115a4565b60405180910390f35b610381600480360381019061037c91906116df565b610a90565b005b6060600380546103929061174e565b80601f01602080910402602001604051908101604052809291908181526020018280546103be9061174e565b801561040b5780601f106103e05761010080835404028352916020019161040b565b820191906000526020600020905b8154815290600101906020018083116103ee57829003601f168201915b5050505050905090565b600080610420610b7d565b905061042d818585610b85565b600191505092915050565b60056020528060005260406000206000915054906101000a900460ff1681565b6000600254905090565b60003360011515600560008373ffffffffffffffffffffffffffffffffffffffff1673ffffffffffffffffffffffffffffffffffffffff16815260200190815260200160002060009054906101000a900460ff161515146104f8576040517f08c379a00000000000000000000000000000000000000000000000000000000081526004016104ef906117cc565b60405180910390fd5b610503853385610d50565b61050e858585610ddc565b60019150509392505050565b60006012905090565b60008061052e610b7d565b90506105c2818585600160008673ffffffffffffffffffffffffffffffffffffffff1673ffffffffffffffffffffffffffffffffffffffff16815260200190815260200160002060008973ffffffffffffffffffffffffffffffffffffffff1673ffffffffffffffffffffffffffffffffffffffff168152602001908152602001600020546105bd919061181b565b610b85565b600191505092915050565b3360011515600560008373ffffffffffffffffffffffffffffffffffffffff1673ffffffffffffffffffffffffffffffffffffffff16815260200190815260200160002060009054906101000a900460ff161515148061067a5750600660009054906101000a900473ffffffffffffffffffffffffffffffffffffffff1673ffffffffffffffffffffffffffffffffffffffff168173ffffffffffffffffffffffffffffffffffffffff16145b6106b9576040517f08c379a00000000000000000000000000000000000000000000000000000000081526004016106b0906118bd565b60405180910390fd5b6106c3838361105d565b505050565b60008060008373ffffffffffffffffffffffffffffffffffffffff1673ffffffffffffffffffffffffffffffffffffffff168152602001908152602001600020549050919050565b600660009054906101000a900473ffffffffffffffffffffffffffffffffffffffff1681565b6060600480546107459061174e565b80601f01602080910402602001604051908101604052809291908181526020018280546107719061174e565b80156107be5780601f10610793576101008083540402835291602001916107be565b820191906000526020600020905b8154815290600101906020018083116107a157829003601f168201915b5050505050905090565b60003360011515600560008373ffffffffffffffffffffffffffffffffffffffff1673ffffffffffffffffffffffffffffffffffffffff16815260200190815260200160002060009054906101000a900460ff1615151461085e576040517f08c379a0000000000000000000000000000000000000000000000000000000008152600401610855906117cc565b60405180910390fd5b61086884846111bd565b600191505092915050565b60008061087e610b7d565b90506000600160008373ffffffffffffffffffffffffffffffffffffffff1673ffffffffffffffffffffffffffffffffffffffff16815260200190815260200160002060008673ffffffffffffffffffffffffffffffffffffffff1673ffffffffffffffffffffffffffffffffffffffff16815260200190815260200160002054905083811015610944576040517f08c379a000000000000000000000000000000000000000000000000000000000815260040161093b9061194f565b60405180910390fd5b6109518286868403610b85565b60019250505092915050565b60003360011515600560008373ffffffffffffffffffffffffffffffffffffffff1673ffffffffffffffffffffffffffffffffffffffff16815260200190815260200160002060009054906101000a900460ff161515146109f3576040517f08c379a00000000000000000000000000000000000000000000000000000000081526004016109ea906117cc565b60405180910390fd5b6109fe338585610ddc565b600191505092915050565b6000600160008473ffffffffffffffffffffffffffffffffffffffff1673ffffffffffffffffffffffffffffffffffffffff16815260200190815260200160002060008373ffffffffffffffffffffffffffffffffffffffff1673ffffffffffffffffffffffffffffffffffffffff16815260200190815260200160002054905092915050565b33600660009054906101000a900473ffffffffffffffffffffffffffffffffffffffff1673ffffffffffffffffffffffffffffffffffffffff168173ffffffffffffffffffffffffffffffffffffffff1614610b21576040517f08c379a0000000000000000000000000000000000000000000000000000000008152600401610b18906119bb565b60405180910390fd5b81600560008573ffffffffffffffffffffffffffffffffffffffff1673ffffffffffffffffffffffffffffffffffffffff16815260200190815260200160002060006101000a81548160ff021916908315150217905550505050565b600033905090565b600073ffffffffffffffffffffffffffffffffffffffff168373ffffffffffffffffffffffffffffffffffffffff161415610bf5576040517f08c379a0000000000000000000000000000000000000000000000000000000008152600401610bec90611a4d565b60405180910390fd5b600073ffffffffffffffffffffffffffffffffffffffff168273ffffffffffffffffffffffffffffffffffffffff161415610c65576040517f08c379a0000000000000000000000000000000000000000000000000000000008152600401610c5c90611adf565b60405180910390fd5b80600160008573ffffffffffffffffffffffffffffffffffffffff1673ffffffffffffffffffffffffffffffffffffffff16815260200190815260200160002060008473ffffffffffffffffffffffffffffffffffffffff1673ffffffffffffffffffffffffffffffffffffffff168152602001908152602001600020819055508173ffffffffffffffffffffffffffffffffffffffff168373ffffffffffffffffffffffffffffffffffffffff167f8c5be1e5ebec7d5bd14f71427d1e84f3dd0314c0f7b2291e5b200ac8c7c3b92583604051610d4391906115a4565b60405180910390a3505050565b6000610d5c8484610a09565b90507fffffffffffffffffffffffffffffffffffffffffffffffffffffffffffffffff8114610dd65781811015610dc8576040517f08c379a0000000000000000000000000000000000000000000000000000000008152600401610dbf90611b4b565b60405180910390fd5b610dd58484848403610b85565b5b50505050565b600073ffffffffffffffffffffffffffffffffffffffff168373ffffffffffffffffffffffffffffffffffffffff161415610e4c576040517f08c379a0000000000000000000000000000000000000000000000000000000008152600401610e4390611bdd565b60405180910390fd5b600073ffffffffffffffffffffffffffffffffffffffff168273ffffffffffffffffffffffffffffffffffffffff161415610ebc576040517f08c379a0000000000000000000000000000000000000000000000000000000008152600401610eb390611c6f565b60405180910390fd5b610ec7838383611394565b60008060008573ffffffffffffffffffffffffffffffffffffffff1673ffffffffffffffffffffffffffffffffffffffff16815260200190815260200160002054905081811015610f4d576040517f08c379a0000000000000000000000000000000000000000000000000000000008152600401610f4490611d01565b60405180910390fd5b8181036000808673ffffffffffffffffffffffffffffffffffffffff1673ffffffffffffffffffffffffffffffffffffffff16815260200190815260200160002081905550816000808573ffffffffffffffffffffffffffffffffffffffff1673ffffffffffffffffffffffffffffffffffffffff1681526020019081526020016000206000828254610fe0919061181b565b925050819055508273ffffffffffffffffffffffffffffffffffffffff168473ffffffffffffffffffffffffffffffffffffffff167fddf252ad1be2c89b69c2b068fc378daa952ba7f163c4a11628f55a4df523b3ef8460405161104491906115a4565b60405180910390a3611057848484611399565b50505050565b600073ffffffffffffffffffffffffffffffffffffffff168273ffffffffffffffffffffffffffffffffffffffff1614156110cd576040517f08c379a00000000000000000000000000000000000000000000000000000000081526004016110c490611d6d565b60405180910390fd5b6110d960008383611394565b80600260008282546110eb919061181b565b92505081905550806000808473ffffffffffffffffffffffffffffffffffffffff1673ffffffffffffffffffffffffffffffffffffffff1681526020019081526020016000206000828254611140919061181b565b925050819055508173ffffffffffffffffffffffffffffffffffffffff16600073ffffffffffffffffffffffffffffffffffffffff167fddf252ad1be2c89b69c2b068fc378daa952ba7f163c4a11628f55a4df523b3ef836040516111a591906115a4565b60405180910390a36111b960008383611399565b5050565b600073ffffffffffffffffffffffffffffffffffffffff168273ffffffffffffffffffffffffffffffffffffffff16141561122d576040517f08c379a000000000000000000000000000000000000000000000000000000000815260040161122490611dff565b60405180910390fd5b61123982600083611394565b60008060008473ffffffffffffffffffffffffffffffffffffffff1673ffffffffffffffffffffffffffffffffffffffff168152602001908152602001600020549050818110156112bf576040517f08c379a00000000000000000000000000000000000000000000000000000000081526004016112b690611e91565b60405180910390fd5b8181036000808573ffffffffffffffffffffffffffffffffffffffff1673ffffffffffffffffffffffffffffffffffffffff1681526020019081526020016000208190555081600260008282546113169190611eb1565b92505081905550600073ffffffffffffffffffffffffffffffffffffffff168373ffffffffffffffffffffffffffffffffffffffff167fddf252ad1be2c89b69c2b068fc378daa952ba7f163c4a11628f55a4df523b3ef8460405161137b91906115a4565b60405180910390a361138f83600084611399565b505050565b505050565b505050565b600081519050919050565b600082825260208201905092915050565b60005b838110156113d85780820151818401526020810190506113bd565b838111156113e7576000848401525b50505050565b6000601f19601f8301169050919050565b60006114098261139e565b61141381856113a9565b93506114238185602086016113ba565b61142c816113ed565b840191505092915050565b6000602082019050818103600083015261145181846113fe565b905092915050565b600080fd5b600073ffffffffffffffffffffffffffffffffffffffff82169050919050565b60006114898261145e565b9050919050565b6114998161147e565b81146114a457600080fd5b50565b6000813590506114b681611490565b92915050565b6000819050919050565b6114cf816114bc565b81146114da57600080fd5b50565b6000813590506114ec816114c6565b92915050565b6000806040838503121561150957611508611459565b5b6000611517858286016114a7565b9250506020611528858286016114dd565b9150509250929050565b60008115159050919050565b61154781611532565b82525050565b6000602082019050611562600083018461153e565b92915050565b60006020828403121561157e5761157d611459565b5b600061158c848285016114a7565b91505092915050565b61159e816114bc565b82525050565b60006020820190506115b96000830184611595565b92915050565b6000806000606084860312156115d8576115d7611459565b5b60006115e6868287016114a7565b93505060206115f7868287016114a7565b9250506040611608868287016114dd565b9150509250925092565b600060ff82169050919050565b61162881611612565b82525050565b6000602082019050611643600083018461161f565b92915050565b6116528161147e565b82525050565b600060208201905061166d6000830184611649565b92915050565b6000806040838503121561168a57611689611459565b5b6000611698858286016114a7565b92505060206116a9858286016114a7565b9150509250929050565b6116bc81611532565b81146116c757600080fd5b50565b6000813590506116d9816116b3565b92915050565b600080604083850312156116f6576116f5611459565b5b6000611704858286016114a7565b9250506020611715858286016116ca565b9150509250929050565b7f4e487b7100000000000000000000000000000000000000000000000000000000600052602260045260246000fd5b6000600282049050600182168061176657607f821691505b6020821081141561177a5761177961171f565b5b50919050565b7f61646472657373206e6f7420616c6c6f77656420746f207472616e7366657200600082015250565b60006117b6601f836113a9565b91506117c182611780565b602082019050919050565b600060208201905081810360008301526117e5816117a9565b9050919050565b7f4e487b7100000000000000000000000000000000000000000000000000000000600052601160045260246000fd5b6000611826826114bc565b9150611831836114bc565b9250827fffffffffffffffffffffffffffffffffffffffffffffffffffffffffffffffff03821115611866576118656117ec565b5b828201905092915050565b7f61646472657373206e6f7420616c6c6f77656420746f206d696e740000000000600082015250565b60006118a7601b836113a9565b91506118b282611871565b602082019050919050565b600060208201905081810360008301526118d68161189a565b9050919050565b7f45524332303a2064656372656173656420616c6c6f77616e63652062656c6f7760008201527f207a65726f000000000000000000000000000000000000000000000000000000602082015250565b60006119396025836113a9565b9150611944826118dd565b604082019050919050565b600060208201905081810360008301526119688161192c565b9050919050565b7f6e6f74206f776e65720000000000000000000000000000000000000000000000600082015250565b60006119a56009836113a9565b91506119b08261196f565b602082019050919050565b600060208201905081810360008301526119d481611998565b9050919050565b7f45524332303a20617070726f76652066726f6d20746865207a65726f2061646460008201527f7265737300000000000000000000000000000000000000000000000000000000602082015250565b6000611a376024836113a9565b9150611a42826119db565b604082019050919050565b60006020820190508181036000830152611a6681611a2a565b9050919050565b7f45524332303a20617070726f766520746f20746865207a65726f20616464726560008201527f7373000000000000000000000000000000000000000000000000000000000000602082015250565b6000611ac96022836113a9565b9150611ad482611a6d565b604082019050919050565b60006020820190508181036000830152611af881611abc565b9050919050565b7f45524332303a20696e73756666696369656e7420616c6c6f77616e6365000000600082015250565b6000611b35601d836113a9565b9150611b4082611aff565b602082019050919050565b60006020820190508181036000830152611b6481611b28565b9050919050565b7f45524332303a207472616e736665722066726f6d20746865207a65726f20616460008201527f6472657373000000000000000000000000000000000000000000000000000000602082015250565b6000611bc76025836113a9565b9150611bd282611b6b565b604082019050919050565b60006020820190508181036000830152611bf681611bba565b9050919050565b7f45524332303a207472616e7366657220746f20746865207a65726f206164647260008201527f6573730000000000000000000000000000000000000000000000000000000000602082015250565b6000611c596023836113a9565b9150611c6482611bfd565b604082019050919050565b60006020820190508181036000830152611c8881611c4c565b9050919050565b7f45524332303a207472616e7366657220616d6f756e742065786365656473206260008201527f616c616e63650000000000000000000000000000000000000000000000000000602082015250565b6000611ceb6026836113a9565b9150611cf682611c8f565b604082019050919050565b60006020820190508181036000830152611d1a81611cde565b9050919050565b7f45524332303a206d696e7420746f20746865207a65726f206164647265737300600082015250565b6000611d57601f836113a9565b9150611d6282611d21565b602082019050919050565b60006020820190508181036000830152611d8681611d4a565b9050919050565b7f45524332303a206275726e2066726f6d20746865207a65726f2061646472657360008201527f7300000000000000000000000000000000000000000000000000000000000000602082015250565b6000611de96021836113a9565b9150611df482611d8d565b604082019050919050565b60006020820190508181036000830152611e1881611ddc565b9050919050565b7f45524332303a206275726e20616d6f756e7420657863656564732062616c616e60008201527f6365000000000000000000000000000000000000000000000000000000000000602082015250565b6000611e7b6022836113a9565b9150611e8682611e1f565b604082019050919050565b60006020820190508181036000830152611eaa81611e6e565b9050919050565b6000611ebc826114bc565b9150611ec7836114bc565b925082821015611eda57611ed96117ec565b5b82820390509291505056fea264697066735822122078228d9e9324310feef859837d51f22ef23acf47bf8f7e84ef97f32e81ed3f8264736f6c634300080b0033",
  "immutableReferences": {},
  "source": "// SPDX-License-Identifier: MIT\n\npragma solidity ^0.8.0;\n\nimport \"@openzeppelin/contracts/token/ERC20/ERC20.sol\";\n\ncontract Energy is ERC20 {\n    mapping(address => bool) public allowedTransferrers;\n    address public owner;\n\n    constructor() ERC20(\"Energy\", \"NRG\") {\n        owner = msg.sender;\n    }\n\n    // MODIFIERS\n    modifier onlyOwner(address _address) {\n        require(_address == owner, \"not owner\");\n        _;\n    }\n\n    modifier allowedTransferrer(address _address) {\n        require(allowedTransferrers[_address] == true, \"address not allowed to transfer\");\n        _;\n    }\n\n    modifier canMint(address _address) {\n        require(allowedTransferrers[_address] == true || _address == owner, \"address not allowed to mint\");\n        _;\n    }\n\n    // ONLY OWNER\n    function setTransferrer(address _address, bool _canTransfer) public onlyOwner(msg.sender) {\n        allowedTransferrers[_address] = _canTransfer;\n    }\n\n    // USER INTERFACE\n    function transfer(address to, uint256 amount) public override allowedTransferrer(msg.sender) returns(bool) {\n        _transfer(msg.sender, to, amount);\n        return true;\n    }\n\n    function transferFrom(address from, address to, uint256 amount) public override allowedTransferrer(msg.sender) returns(bool) {\n        _spendAllowance(from, msg.sender, amount);\n        _transfer(from, to, amount);\n        return true;\n    }\n\n    function burn(address account, uint256 amount) public allowedTransferrer(msg.sender) returns (bool) {\n        _burn(account, amount);\n        return true;\n    }\n\n    function mint(address account, uint256 amount) public canMint(msg.sender) {\n        _mint(account, amount);\n    }\n}",
  "sourcePath": "/Users/aslan/Desktop/MineEmpireBackend/contracts/Energy.sol",
  "compiler": {
    "name": "solc",
    "version": "0.8.11+commit.d7f03943.Emscripten.clang"
  },
  "schemaVersion": "3.4.3",
  "updatedAt": "2022-06-20T21:07:42.820Z",
  "networkType": "ethereum",
  "devdoc": {
    "kind": "dev",
    "methods": {
      "allowance(address,address)": {
        "details": "See {IERC20-allowance}."
      },
      "approve(address,uint256)": {
        "details": "See {IERC20-approve}. NOTE: If `amount` is the maximum `uint256`, the allowance is not updated on `transferFrom`. This is semantically equivalent to an infinite approval. Requirements: - `spender` cannot be the zero address."
      },
      "balanceOf(address)": {
        "details": "See {IERC20-balanceOf}."
      },
      "decimals()": {
        "details": "Returns the number of decimals used to get its user representation. For example, if `decimals` equals `2`, a balance of `505` tokens should be displayed to a user as `5.05` (`505 / 10 ** 2`). Tokens usually opt for a value of 18, imitating the relationship between Ether and Wei. This is the value {ERC20} uses, unless this function is overridden; NOTE: This information is only used for _display_ purposes: it in no way affects any of the arithmetic of the contract, including {IERC20-balanceOf} and {IERC20-transfer}."
      },
      "decreaseAllowance(address,uint256)": {
        "details": "Atomically decreases the allowance granted to `spender` by the caller. This is an alternative to {approve} that can be used as a mitigation for problems described in {IERC20-approve}. Emits an {Approval} event indicating the updated allowance. Requirements: - `spender` cannot be the zero address. - `spender` must have allowance for the caller of at least `subtractedValue`."
      },
      "increaseAllowance(address,uint256)": {
        "details": "Atomically increases the allowance granted to `spender` by the caller. This is an alternative to {approve} that can be used as a mitigation for problems described in {IERC20-approve}. Emits an {Approval} event indicating the updated allowance. Requirements: - `spender` cannot be the zero address."
      },
      "name()": {
        "details": "Returns the name of the token."
      },
      "symbol()": {
        "details": "Returns the symbol of the token, usually a shorter version of the name."
      },
      "totalSupply()": {
        "details": "See {IERC20-totalSupply}."
      },
      "transfer(address,uint256)": {
        "details": "See {IERC20-transfer}. Requirements: - `to` cannot be the zero address. - the caller must have a balance of at least `amount`."
      },
      "transferFrom(address,address,uint256)": {
        "details": "See {IERC20-transferFrom}. Emits an {Approval} event indicating the updated allowance. This is not required by the EIP. See the note at the beginning of {ERC20}. NOTE: Does not update the allowance if the current allowance is the maximum `uint256`. Requirements: - `from` and `to` cannot be the zero address. - `from` must have a balance of at least `amount`. - the caller must have allowance for ``from``'s tokens of at least `amount`."
      }
    },
    "version": 1
  },
  "userdoc": {
    "kind": "user",
    "methods": {},
    "version": 1
  }
}