{
  "contractName": "Gades",
  "abi": [
    {
      "inputs": [
        {
          "internalType": "contract ERC20PresetMinterPauser",
          "name": "_iron",
          "type": "address"
        },
        {
          "internalType": "contract ERC20PresetMinterPauser",
          "name": "_cosmicCash",
          "type": "address"
        },
        {
          "internalType": "contract MineEmpireDrill",
          "name": "_drill",
          "type": "address"
        }
      ],
      "stateMutability": "nonpayable",
      "type": "constructor"
    },
    {
      "anonymous": false,
      "inputs": [
        {
          "indexed": false,
          "internalType": "address",
          "name": "userAddress",
          "type": "address"
        },
        {
          "indexed": false,
          "internalType": "uint256",
          "name": "userLevel",
          "type": "uint256"
        }
      ],
      "name": "CapacityUpgraded",
      "type": "event"
    },
    {
      "inputs": [],
      "name": "GENESIS_TIME",
      "outputs": [
        {
          "internalType": "uint256",
          "name": "",
          "type": "uint256"
        }
      ],
      "stateMutability": "view",
      "type": "function"
    },
    {
      "inputs": [],
      "name": "SECONDS_IN_PERIOD",
      "outputs": [
        {
          "internalType": "uint256",
          "name": "",
          "type": "uint256"
        }
      ],
      "stateMutability": "view",
      "type": "function"
    },
    {
      "inputs": [
        {
          "internalType": "uint256",
          "name": "",
          "type": "uint256"
        }
      ],
      "name": "capacityAtLevel",
      "outputs": [
        {
          "internalType": "uint256",
          "name": "",
          "type": "uint256"
        }
      ],
      "stateMutability": "view",
      "type": "function"
    },
    {
      "inputs": [],
      "name": "cosmicCash",
      "outputs": [
        {
          "internalType": "contract ERC20PresetMinterPauser",
          "name": "",
          "type": "address"
        }
      ],
      "stateMutability": "view",
      "type": "function"
    },
    {
      "inputs": [],
      "name": "iron",
      "outputs": [
        {
          "internalType": "contract ERC20PresetMinterPauser",
          "name": "",
          "type": "address"
        }
      ],
      "stateMutability": "view",
      "type": "function"
    },
    {
      "inputs": [],
      "name": "mineEmpireDrill",
      "outputs": [
        {
          "internalType": "contract MineEmpireDrill",
          "name": "",
          "type": "address"
        }
      ],
      "stateMutability": "view",
      "type": "function"
    },
    {
      "inputs": [],
      "name": "owner",
      "outputs": [
        {
          "internalType": "address",
          "name": "",
          "type": "address"
        }
      ],
      "stateMutability": "view",
      "type": "function"
    },
    {
      "inputs": [
        {
          "internalType": "uint256",
          "name": "",
          "type": "uint256"
        }
      ],
      "name": "productionRate",
      "outputs": [
        {
          "internalType": "uint256",
          "name": "",
          "type": "uint256"
        }
      ],
      "stateMutability": "view",
      "type": "function"
    },
    {
      "inputs": [
        {
          "internalType": "address",
          "name": "",
          "type": "address"
        }
      ],
      "name": "stakes",
      "outputs": [
        {
          "internalType": "uint256",
          "name": "timestamp",
          "type": "uint256"
        },
        {
          "components": [
            {
              "internalType": "uint256",
              "name": "drillId",
              "type": "uint256"
            },
            {
              "internalType": "uint256",
              "name": "drillType",
              "type": "uint256"
            },
            {
              "internalType": "uint256",
              "name": "level",
              "type": "uint256"
            }
          ],
          "internalType": "struct MineEmpireDrill.Drill",
          "name": "drill",
          "type": "tuple"
        }
      ],
      "stateMutability": "view",
      "type": "function"
    },
    {
      "inputs": [
        {
          "internalType": "uint256",
          "name": "",
          "type": "uint256"
        }
      ],
      "name": "upgradeRequirementAtLevel",
      "outputs": [
        {
          "internalType": "uint256",
          "name": "",
          "type": "uint256"
        }
      ],
      "stateMutability": "view",
      "type": "function"
    },
    {
      "inputs": [
        {
          "internalType": "address",
          "name": "",
          "type": "address"
        }
      ],
      "name": "userLevel",
      "outputs": [
        {
          "internalType": "uint256",
          "name": "",
          "type": "uint256"
        }
      ],
      "stateMutability": "view",
      "type": "function"
    },
    {
      "inputs": [
        {
          "internalType": "address",
          "name": "operator",
          "type": "address"
        },
        {
          "internalType": "address",
          "name": "from",
          "type": "address"
        },
        {
          "internalType": "uint256",
          "name": "id",
          "type": "uint256"
        },
        {
          "internalType": "bytes",
          "name": "data",
          "type": "bytes"
        }
      ],
      "name": "onERC721Received",
      "outputs": [
        {
          "internalType": "bytes4",
          "name": "",
          "type": "bytes4"
        }
      ],
      "stateMutability": "pure",
      "type": "function"
    },
    {
      "inputs": [
        {
          "internalType": "address payable",
          "name": "_address",
          "type": "address"
        }
      ],
      "name": "updateTreasury",
      "outputs": [],
      "stateMutability": "nonpayable",
      "type": "function"
    },
    {
      "inputs": [
        {
          "internalType": "uint256",
          "name": "_level",
          "type": "uint256"
        }
      ],
      "name": "updateMaxLevel",
      "outputs": [],
      "stateMutability": "nonpayable",
      "type": "function"
    },
    {
      "inputs": [
        {
          "internalType": "uint256",
          "name": "_level",
          "type": "uint256"
        },
        {
          "internalType": "uint256",
          "name": "_capacity",
          "type": "uint256"
        }
      ],
      "name": "updateCapacityAtLevel",
      "outputs": [],
      "stateMutability": "nonpayable",
      "type": "function"
    },
    {
      "inputs": [
        {
          "internalType": "uint256",
          "name": "_level",
          "type": "uint256"
        },
        {
          "internalType": "uint256",
          "name": "_capacity",
          "type": "uint256"
        }
      ],
      "name": "updateUpgradeRequirementAtLevel",
      "outputs": [],
      "stateMutability": "nonpayable",
      "type": "function"
    },
    {
      "inputs": [
        {
          "internalType": "uint256",
          "name": "_level",
          "type": "uint256"
        }
      ],
      "name": "getCapacityAtLevel",
      "outputs": [
        {
          "internalType": "uint256",
          "name": "",
          "type": "uint256"
        }
      ],
      "stateMutability": "view",
      "type": "function"
    },
    {
      "inputs": [
        {
          "internalType": "address",
          "name": "_userAddress",
          "type": "address"
        }
      ],
      "name": "getUserLevel",
      "outputs": [
        {
          "internalType": "uint256",
          "name": "",
          "type": "uint256"
        }
      ],
      "stateMutability": "view",
      "type": "function"
    },
    {
      "inputs": [
        {
          "internalType": "address",
          "name": "_address",
          "type": "address"
        }
      ],
      "name": "getStake",
      "outputs": [
        {
          "components": [
            {
              "internalType": "uint256",
              "name": "timestamp",
              "type": "uint256"
            },
            {
              "components": [
                {
                  "internalType": "uint256",
                  "name": "drillId",
                  "type": "uint256"
                },
                {
                  "internalType": "uint256",
                  "name": "drillType",
                  "type": "uint256"
                },
                {
                  "internalType": "uint256",
                  "name": "level",
                  "type": "uint256"
                }
              ],
              "internalType": "struct MineEmpireDrill.Drill",
              "name": "drill",
              "type": "tuple"
            }
          ],
          "internalType": "struct Gades.Stake",
          "name": "",
          "type": "tuple"
        }
      ],
      "stateMutability": "view",
      "type": "function"
    },
    {
      "inputs": [],
      "name": "getCurrentPeriod",
      "outputs": [
        {
          "internalType": "uint256",
          "name": "",
          "type": "uint256"
        }
      ],
      "stateMutability": "view",
      "type": "function"
    },
    {
      "inputs": [],
      "name": "getBaseProduction",
      "outputs": [
        {
          "internalType": "uint256",
          "name": "",
          "type": "uint256"
        }
      ],
      "stateMutability": "view",
      "type": "function"
    },
    {
      "inputs": [],
      "name": "getMaxLevel",
      "outputs": [
        {
          "internalType": "uint256",
          "name": "",
          "type": "uint256"
        }
      ],
      "stateMutability": "view",
      "type": "function"
    },
    {
      "inputs": [
        {
          "internalType": "address",
          "name": "_userAddress",
          "type": "address"
        }
      ],
      "name": "getAccumulatedIron",
      "outputs": [
        {
          "internalType": "uint256",
          "name": "",
          "type": "uint256"
        }
      ],
      "stateMutability": "view",
      "type": "function"
    },
    {
      "inputs": [
        {
          "internalType": "uint256",
          "name": "_drillId",
          "type": "uint256"
        }
      ],
      "name": "stake",
      "outputs": [],
      "stateMutability": "nonpayable",
      "type": "function"
    },
    {
      "inputs": [],
      "name": "collectIron",
      "outputs": [],
      "stateMutability": "nonpayable",
      "type": "function"
    },
    {
      "inputs": [],
      "name": "unstake",
      "outputs": [],
      "stateMutability": "nonpayable",
      "type": "function"
    },
    {
      "inputs": [],
      "name": "upgrade",
      "outputs": [],
      "stateMutability": "nonpayable",
      "type": "function"
    }
  ],
  "bytecode": "0x608060405262278d00600b553480156200001857600080fd5b50604051620029623803806200296283398181016040528101906200003e91906200062a565b33600360006101000a81548173ffffffffffffffffffffffffffffffffffffffff021916908373ffffffffffffffffffffffffffffffffffffffff16021790555042600c8190555082600160006101000a81548173ffffffffffffffffffffffffffffffffffffffff021916908373ffffffffffffffffffffffffffffffffffffffff16021790555081600260006101000a81548173ffffffffffffffffffffffffffffffffffffffff021916908373ffffffffffffffffffffffffffffffffffffffff160217905550806000806101000a81548173ffffffffffffffffffffffffffffffffffffffff021916908373ffffffffffffffffffffffffffffffffffffffff1602179055506009600581905550690229c19a3a9c473c0000600660008081526020019081526020016000208190555069027cce5f95ba01ac00006006600060018152602001908152602001600020819055506902dc530916401ff4000060066000600281526020019081526020016000208190555069034a354fb6be84c0000060066000600381526020019081526020016000208190555069041cc2a3a46e25f00000600660006004815260200190815260200160002081905550690523f34c8d89af6c000060066000600581526020019081526020016000208190555069073246bda90d1b000000600660006006815260200190815260200160002081905550690acb77fd34474fe400006006600060078152602001908152602001600020819055506910312d0b731124240000600660006008815260200190815260200160002081905550691aada918d2dcc3e4000060066000600981526020019081526020016000208190555068015af1d78b58c4000060076000600181526020019081526020016000208190555068015af1d78b58c4000060076000600281526020019081526020016000208190555068015af1d78b58c4000060076000600381526020019081526020016000208190555068022b1c8c1227a0000060076000600481526020019081526020016000208190555068022b1c8c1227a00000600760006005815260200190815260200160002081905550680410d586a20a4c0000600760006006815260200190815260200160002081905550680410d586a20a4c000060076000600781526020019081526020016000208190555068068155a43676e00000600760006008815260200190815260200160002081905550680821ab0d4414980000600760006009815260200190815260200160002081905550668c032faa992000600a600080815260200190815260200160002081905550667704128ff9c000600a6000600181526020019081526020016000208190555066665a8ad7faa000600a60006002815260200190815260200160002081905550665907efee124000600a60006003815260200190815260200160002081905550664e5f73ffbec000600a600060048152602001908152602001600020819055506645bd6188f0e000600a60006005815260200190815260200160002081905550663ec6c5792e6000600a60006006815260200190815260200160002081905550663920acbffd0000600a6000600781526020019081526020016000208190555066348b6d383a6000600a600060088152602001908152602001600020819055506630e2a5a81c0000600a60006009815260200190815260200160002081905550662defc438f22000600a6000600a815260200190815260200160002081905550662ba0984dd78000600a6000600b81526020019081526020016000208190555050505062000686565b600080fd5b600073ffffffffffffffffffffffffffffffffffffffff82169050919050565b600062000599826200056c565b9050919050565b6000620005ad826200058c565b9050919050565b620005bf81620005a0565b8114620005cb57600080fd5b50565b600081519050620005df81620005b4565b92915050565b6000620005f2826200058c565b9050919050565b6200060481620005e5565b81146200061057600080fd5b50565b6000815190506200062481620005f9565b92915050565b60008060006060848603121562000646576200064562000567565b5b60006200065686828701620005ce565b93505060206200066986828701620005ce565b92505060406200067c8682870162000613565b9150509250925092565b6122cc80620006966000396000f3fe608060405234801561001057600080fd5b50600436106101a95760003560e01c806354c1ab11116100f9578063a694fc3a11610097578063e019488611610071578063e0194886146104d1578063e736dd7c146104ef578063ec4aed1f1461050d578063f288246114610529576101a9565b8063a694fc3a1461048f578063d2bfa040146104ab578063d55ec697146104c7576101a9565b80637f51bb1f116100d35780637f51bb1f146103f5578063871e40fd146104115780638da5cb5b14610441578063950d39d51461045f576101a9565b806354c1ab1114610389578063604b83b4146103a75780637a766460146103c5576101a9565b806321923bde116101665780632def6620116101405780632def6620146103015780633798fe561461030b578063412d0e7214610329578063425c1f1014610359576101a9565b806321923bde14610285578063280e31cc146102b55780632c57d123146102e5576101a9565b806303de5086146101ae578063086146d2146101cc5780630c7c9cd2146101ea57806313c1bf64146101f4578063150b7a021461022457806316934fc414610254575b600080fd5b6101b6610547565b6040516101c39190611722565b60405180910390f35b6101d461054d565b6040516101e19190611722565b60405180910390f35b6101f261056f565b005b61020e6004803603810190610209919061177d565b6106dc565b60405161021b9190611722565b60405180910390f35b61023e6004803603810190610239919061186d565b6106f4565b60405161024b9190611930565b60405180910390f35b61026e6004803603810190610269919061194b565b610722565b60405161027c9291906119c9565b60405180910390f35b61029f600480360381019061029a919061194b565b61076e565b6040516102ac9190611722565b60405180910390f35b6102cf60048036038101906102ca919061194b565b6107b7565b6040516102dc9190611722565b60405180910390f35b6102ff60048036038101906102fa919061177d565b6107cf565b005b61030961086b565b005b610313610ace565b6040516103209190611722565b60405180910390f35b610343600480360381019061033e919061177d565b610ad8565b6040516103509190611722565b60405180910390f35b610373600480360381019061036e919061194b565b610af0565b6040516103809190611722565b60405180910390f35b610391610d62565b60405161039e9190611722565b60405180910390f35b6103af610d97565b6040516103bc9190611a51565b60405180910390f35b6103df60048036038101906103da919061194b565b610dbd565b6040516103ec9190611add565b60405180910390f35b61040f600480360381019061040a9190611b36565b610e52565b005b61042b6004803603810190610426919061177d565b610f28565b6040516104389190611722565b60405180910390f35b610449610f8c565b6040516104569190611b72565b60405180910390f35b6104796004803603810190610474919061177d565b610fb2565b6040516104869190611722565b60405180910390f35b6104a960048036038101906104a4919061177d565b610fca565b005b6104c560048036038101906104c09190611b8d565b61120d565b005b6104cf611302565b005b6104d961153e565b6040516104e69190611a51565b60405180910390f35b6104f7611564565b6040516105049190611bee565b60405180910390f35b61052760048036038101906105229190611b8d565b611588565b005b6105316116c2565b60405161053e9190611722565b60405180910390f35b600b5481565b6000600b54600c54426105609190611c38565b61056a9190611c9b565b905090565b336000600960008373ffffffffffffffffffffffffffffffffffffffff1673ffffffffffffffffffffffffffffffffffffffff16815260200190815260200160002060000154116105f5576040517f08c379a00000000000000000000000000000000000000000000000000000000081526004016105ec90611d29565b60405180910390fd5b600061060033610af0565b9050600160009054906101000a900473ffffffffffffffffffffffffffffffffffffffff1673ffffffffffffffffffffffffffffffffffffffff166340c10f1933836040518363ffffffff1660e01b815260040161065f929190611d49565b600060405180830381600087803b15801561067957600080fd5b505af115801561068d573d6000803e3d6000fd5b5050505042600960003373ffffffffffffffffffffffffffffffffffffffff1673ffffffffffffffffffffffffffffffffffffffff168152602001908152602001600020600001819055505050565b60076020528060005260406000206000915090505481565b60007f150b7a023d4804d13e8c85fb27262cb750cf6ba9f9dd3bb30d90f482ceeb4b1f905095945050505050565b6009602052806000526040600020600091509050806000015490806001016040518060600160405290816000820154815260200160018201548152602001600282015481525050905082565b6000600860008373ffffffffffffffffffffffffffffffffffffffff1673ffffffffffffffffffffffffffffffffffffffff168152602001908152602001600020549050919050565b60086020528060005260406000206000915090505481565b33600360009054906101000a900473ffffffffffffffffffffffffffffffffffffffff1673ffffffffffffffffffffffffffffffffffffffff168173ffffffffffffffffffffffffffffffffffffffff1614610860576040517f08c379a000000000000000000000000000000000000000000000000000000000815260040161085790611dbe565b60405180910390fd5b816005819055505050565b336000600960008373ffffffffffffffffffffffffffffffffffffffff1673ffffffffffffffffffffffffffffffffffffffff16815260200190815260200160002060000154116108f1576040517f08c379a00000000000000000000000000000000000000000000000000000000081526004016108e890611d29565b60405180910390fd5b60006108fc33610af0565b9050600160009054906101000a900473ffffffffffffffffffffffffffffffffffffffff1673ffffffffffffffffffffffffffffffffffffffff166340c10f1933836040518363ffffffff1660e01b815260040161095b929190611d49565b600060405180830381600087803b15801561097557600080fd5b505af1158015610989573d6000803e3d6000fd5b5050505060008054906101000a900473ffffffffffffffffffffffffffffffffffffffff1673ffffffffffffffffffffffffffffffffffffffff166342842e0e3033600960003373ffffffffffffffffffffffffffffffffffffffff1673ffffffffffffffffffffffffffffffffffffffff168152602001908152602001600020600101600001546040518463ffffffff1660e01b8152600401610a2f93929190611dde565b600060405180830381600087803b158015610a4957600080fd5b505af1158015610a5d573d6000803e3d6000fd5b50505050600960003373ffffffffffffffffffffffffffffffffffffffff1673ffffffffffffffffffffffffffffffffffffffff1681526020019081526020016000206000808201600090556001820160008082016000905560018201600090556002820160009055505050505050565b6000600554905090565b60066020528060005260406000206000915090505481565b6000816000600960008373ffffffffffffffffffffffffffffffffffffffff1673ffffffffffffffffffffffffffffffffffffffff1681526020019081526020016000206000015411610b78576040517f08c379a0000000000000000000000000000000000000000000000000000000008152600401610b6f90611d29565b60405180910390fd5b6000600960008573ffffffffffffffffffffffffffffffffffffffff1673ffffffffffffffffffffffffffffffffffffffff168152602001908152602001600020604051806040016040529081600082015481526020016001820160405180606001604052908160008201548152602001600182015481526020016002820154815250508152505090506000816000015142610c149190611c38565b905060008060009054906101000a900473ffffffffffffffffffffffffffffffffffffffff1673ffffffffffffffffffffffffffffffffffffffff166345a8b2de8460200151600001516040518263ffffffff1660e01b8152600401610c7a9190611722565b602060405180830381865afa158015610c97573d6000803e3d6000fd5b505050506040513d601f19601f82011682018060405250810190610cbb9190611e2a565b9050600060066000600860008a73ffffffffffffffffffffffffffffffffffffffff1673ffffffffffffffffffffffffffffffffffffffff1681526020019081526020016000205481526020019081526020016000205490506000610d1e610d62565b905060008360648387610d319190611e57565b610d3b9190611c9b565b610d459190611e57565b905080831015610d53578290505b80975050505050505050919050565b600080610d6d61054d565b9050600b811115610d7d57600b90505b600a60008281526020019081526020016000205491505090565b600160009054906101000a900473ffffffffffffffffffffffffffffffffffffffff1681565b610dc56116c8565b600960008373ffffffffffffffffffffffffffffffffffffffff1673ffffffffffffffffffffffffffffffffffffffff16815260200190815260200160002060405180604001604052908160008201548152602001600182016040518060600160405290816000820154815260200160018201548152602001600282015481525050815250509050919050565b33600360009054906101000a900473ffffffffffffffffffffffffffffffffffffffff1673ffffffffffffffffffffffffffffffffffffffff168173ffffffffffffffffffffffffffffffffffffffff1614610ee3576040517f08c379a0000000000000000000000000000000000000000000000000000000008152600401610eda90611dbe565b60405180910390fd5b81600460006101000a81548173ffffffffffffffffffffffffffffffffffffffff021916908373ffffffffffffffffffffffffffffffffffffffff1602179055505050565b600081600554811115610f70576040517f08c379a0000000000000000000000000000000000000000000000000000000008152600401610f6790611efd565b60405180910390fd5b6006600084815260200190815260200160002054915050919050565b600360009054906101000a900473ffffffffffffffffffffffffffffffffffffffff1681565b600a6020528060005260406000206000915090505481565b336000600960008373ffffffffffffffffffffffffffffffffffffffff1673ffffffffffffffffffffffffffffffffffffffff1681526020019081526020016000206000015414611050576040517f08c379a000000000000000000000000000000000000000000000000000000000815260040161104790611f69565b60405180910390fd5b60008054906101000a900473ffffffffffffffffffffffffffffffffffffffff1673ffffffffffffffffffffffffffffffffffffffff166342842e0e3330856040518463ffffffff1660e01b81526004016110ad93929190611dde565b600060405180830381600087803b1580156110c757600080fd5b505af11580156110db573d6000803e3d6000fd5b5050505060008060009054906101000a900473ffffffffffffffffffffffffffffffffffffffff1673ffffffffffffffffffffffffffffffffffffffff1663a2843682846040518263ffffffff1660e01b815260040161113b9190611722565b606060405180830381865afa158015611158573d6000803e3d6000fd5b505050506040513d601f19601f8201168201806040525081019061117c919061207e565b9050604051806040016040528042815260200182815250600960003373ffffffffffffffffffffffffffffffffffffffff1673ffffffffffffffffffffffffffffffffffffffff168152602001908152602001600020600082015181600001556020820151816001016000820151816000015560208201518160010155604082015181600201555050905050505050565b33600360009054906101000a900473ffffffffffffffffffffffffffffffffffffffff1673ffffffffffffffffffffffffffffffffffffffff168173ffffffffffffffffffffffffffffffffffffffff161461129e576040517f08c379a000000000000000000000000000000000000000000000000000000000815260040161129590611dbe565b60405180910390fd5b826005548111156112e4576040517f08c379a00000000000000000000000000000000000000000000000000000000081526004016112db90611efd565b60405180910390fd5b82600660008681526020019081526020016000208190555050505050565b6000600860003373ffffffffffffffffffffffffffffffffffffffff1673ffffffffffffffffffffffffffffffffffffffff16815260200190815260200160002054905060098110611389576040517f08c379a0000000000000000000000000000000000000000000000000000000008152600401611380906120f7565b60405180910390fd5b60006007600060018461139c9190612117565b8152602001908152602001600020549050600260009054906101000a900473ffffffffffffffffffffffffffffffffffffffff1673ffffffffffffffffffffffffffffffffffffffff166323b872dd33600460009054906101000a900473ffffffffffffffffffffffffffffffffffffffff16846040518463ffffffff1660e01b815260040161142e9392919061218e565b6020604051808303816000875af115801561144d573d6000803e3d6000fd5b505050506040513d601f19601f8201168201806040525081019061147191906121fd565b5060018261147f9190612117565b600860003373ffffffffffffffffffffffffffffffffffffffff1673ffffffffffffffffffffffffffffffffffffffff168152602001908152602001600020819055507f732b7725a1bda8623429e119239febb5d692156397644ede58d521187d75d1d333600860003373ffffffffffffffffffffffffffffffffffffffff1673ffffffffffffffffffffffffffffffffffffffff16815260200190815260200160002054604051611532929190611d49565b60405180910390a15050565b600260009054906101000a900473ffffffffffffffffffffffffffffffffffffffff1681565b60008054906101000a900473ffffffffffffffffffffffffffffffffffffffff1681565b33600360009054906101000a900473ffffffffffffffffffffffffffffffffffffffff1673ffffffffffffffffffffffffffffffffffffffff168173ffffffffffffffffffffffffffffffffffffffff1614611619576040517f08c379a000000000000000000000000000000000000000000000000000000000815260040161161090611dbe565b60405180910390fd5b8260055481111561165f576040517f08c379a000000000000000000000000000000000000000000000000000000000815260040161165690611efd565b60405180910390fd5b6005548411156116a4576040517f08c379a000000000000000000000000000000000000000000000000000000000815260040161169b90612276565b60405180910390fd5b82600760008681526020019081526020016000208190555050505050565b600c5481565b6040518060400160405280600081526020016116e26116e8565b81525090565b60405180606001604052806000815260200160008152602001600081525090565b6000819050919050565b61171c81611709565b82525050565b60006020820190506117376000830184611713565b92915050565b6000604051905090565b600080fd5b600080fd5b61175a81611709565b811461176557600080fd5b50565b60008135905061177781611751565b92915050565b60006020828403121561179357611792611747565b5b60006117a184828501611768565b91505092915050565b600073ffffffffffffffffffffffffffffffffffffffff82169050919050565b60006117d5826117aa565b9050919050565b6117e5816117ca565b81146117f057600080fd5b50565b600081359050611802816117dc565b92915050565b600080fd5b600080fd5b600080fd5b60008083601f84011261182d5761182c611808565b5b8235905067ffffffffffffffff81111561184a5761184961180d565b5b60208301915083600182028301111561186657611865611812565b5b9250929050565b60008060008060006080868803121561188957611888611747565b5b6000611897888289016117f3565b95505060206118a8888289016117f3565b94505060406118b988828901611768565b935050606086013567ffffffffffffffff8111156118da576118d961174c565b5b6118e688828901611817565b92509250509295509295909350565b60007fffffffff0000000000000000000000000000000000000000000000000000000082169050919050565b61192a816118f5565b82525050565b60006020820190506119456000830184611921565b92915050565b60006020828403121561196157611960611747565b5b600061196f848285016117f3565b91505092915050565b61198181611709565b82525050565b60608201600082015161199d6000850182611978565b5060208201516119b06020850182611978565b5060408201516119c36040850182611978565b50505050565b60006080820190506119de6000830185611713565b6119eb6020830184611987565b9392505050565b6000819050919050565b6000611a17611a12611a0d846117aa565b6119f2565b6117aa565b9050919050565b6000611a29826119fc565b9050919050565b6000611a3b82611a1e565b9050919050565b611a4b81611a30565b82525050565b6000602082019050611a666000830184611a42565b92915050565b606082016000820151611a826000850182611978565b506020820151611a956020850182611978565b506040820151611aa86040850182611978565b50505050565b608082016000820151611ac46000850182611978565b506020820151611ad76020850182611a6c565b50505050565b6000608082019050611af26000830184611aae565b92915050565b6000611b03826117aa565b9050919050565b611b1381611af8565b8114611b1e57600080fd5b50565b600081359050611b3081611b0a565b92915050565b600060208284031215611b4c57611b4b611747565b5b6000611b5a84828501611b21565b91505092915050565b611b6c816117ca565b82525050565b6000602082019050611b876000830184611b63565b92915050565b60008060408385031215611ba457611ba3611747565b5b6000611bb285828601611768565b9250506020611bc385828601611768565b9150509250929050565b6000611bd882611a1e565b9050919050565b611be881611bcd565b82525050565b6000602082019050611c036000830184611bdf565b92915050565b7f4e487b7100000000000000000000000000000000000000000000000000000000600052601160045260246000fd5b6000611c4382611709565b9150611c4e83611709565b925082821015611c6157611c60611c09565b5b828203905092915050565b7f4e487b7100000000000000000000000000000000000000000000000000000000600052601260045260246000fd5b6000611ca682611709565b9150611cb183611709565b925082611cc157611cc0611c6c565b5b828204905092915050565b600082825260208201905092915050565b7f6472696c6c206e6f74207374616b656420666f72207468697320757365720000600082015250565b6000611d13601e83611ccc565b9150611d1e82611cdd565b602082019050919050565b60006020820190508181036000830152611d4281611d06565b9050919050565b6000604082019050611d5e6000830185611b63565b611d6b6020830184611713565b9392505050565b7f6e6f7420617574686f72697a6564000000000000000000000000000000000000600082015250565b6000611da8600e83611ccc565b9150611db382611d72565b602082019050919050565b60006020820190508181036000830152611dd781611d9b565b9050919050565b6000606082019050611df36000830186611b63565b611e006020830185611b63565b611e0d6040830184611713565b949350505050565b600081519050611e2481611751565b92915050565b600060208284031215611e4057611e3f611747565b5b6000611e4e84828501611e15565b91505092915050565b6000611e6282611709565b9150611e6d83611709565b9250817fffffffffffffffffffffffffffffffffffffffffffffffffffffffffffffffff0483118215151615611ea657611ea5611c09565b5b828202905092915050565b7f6c6576656c2067726561746572207468616e206d6178206c6576656c00000000600082015250565b6000611ee7601c83611ccc565b9150611ef282611eb1565b602082019050919050565b60006020820190508181036000830152611f1681611eda565b9050919050565b7f6472696c6c20616c7265616479207374616b6564000000000000000000000000600082015250565b6000611f53601483611ccc565b9150611f5e82611f1d565b602082019050919050565b60006020820190508181036000830152611f8281611f46565b9050919050565b600080fd5b6000601f19601f8301169050919050565b7f4e487b7100000000000000000000000000000000000000000000000000000000600052604160045260246000fd5b611fd782611f8e565b810181811067ffffffffffffffff82111715611ff657611ff5611f9f565b5b80604052505050565b600061200961173d565b90506120158282611fce565b919050565b6000606082840312156120305761202f611f89565b5b61203a6060611fff565b9050600061204a84828501611e15565b600083015250602061205e84828501611e15565b602083015250604061207284828501611e15565b60408301525092915050565b60006060828403121561209457612093611747565b5b60006120a28482850161201a565b91505092915050565b7f6c6576656c206174206d61780000000000000000000000000000000000000000600082015250565b60006120e1600c83611ccc565b91506120ec826120ab565b602082019050919050565b60006020820190508181036000830152612110816120d4565b9050919050565b600061212282611709565b915061212d83611709565b9250827fffffffffffffffffffffffffffffffffffffffffffffffffffffffffffffffff0382111561216257612161611c09565b5b828201905092915050565b600061217882611a1e565b9050919050565b6121888161216d565b82525050565b60006060820190506121a36000830186611b63565b6121b0602083018561217f565b6121bd6040830184611713565b949350505050565b60008115159050919050565b6121da816121c5565b81146121e557600080fd5b50565b6000815190506121f7816121d1565b92915050565b60006020828403121561221357612212611747565b5b6000612221848285016121e8565b91505092915050565b7f6c6576656c206e6f74206c657373207468616e206d6178206c6576656c000000600082015250565b6000612260601d83611ccc565b915061226b8261222a565b602082019050919050565b6000602082019050818103600083015261228f81612253565b905091905056fea26469706673582212201fb65dac750cde161a31cef190d6d8b0676e3480bfc4b683e8e5d61c3d117c9b64736f6c634300080b0033",
  "immutableReferences": {},
  "source": "// SPDX-License-Identifier: MIT\n\npragma solidity ^0.8.0;\n\nimport \"./MineEmpireDrill.sol\";\nimport \"@openzeppelin/contracts/token/ERC721/IERC721Receiver.sol\";\nimport \"@openzeppelin/contracts/token/ERC20/IERC20.sol\";\nimport \"@openzeppelin/contracts/token/ERC20/presets/ERC20PresetMinterPauser.sol\";\n\ncontract Gades {\n    MineEmpireDrill public mineEmpireDrill;\n    ERC20PresetMinterPauser public iron;\n    ERC20PresetMinterPauser public cosmicCash;\n    address public owner;\n    address payable treasury;\n    struct Stake {\n        uint timestamp;\n        MineEmpireDrill.Drill drill;\n    }\n\n    uint maxLevel;\n    mapping(uint => uint) public capacityAtLevel;\n    mapping(uint => uint) public upgradeRequirementAtLevel;\n    mapping(address => uint) public userLevel;\n    mapping(address => Stake) public stakes;\n    mapping(uint => uint) public productionRate;\n    uint public SECONDS_IN_PERIOD = 2592000;\n    uint public GENESIS_TIME;\n\n    constructor(ERC20PresetMinterPauser _iron, ERC20PresetMinterPauser _cosmicCash, MineEmpireDrill _drill) {\n        owner = msg.sender;\n        GENESIS_TIME = block.timestamp;\n        iron = _iron;\n        cosmicCash = _cosmicCash;\n        mineEmpireDrill = _drill;\n        maxLevel = 9;\n        capacityAtLevel[0] = 10215e18;\n        capacityAtLevel[1] = 11747e18;\n        capacityAtLevel[2] = 13509e18;\n        capacityAtLevel[3] = 15536e18;\n        capacityAtLevel[4] = 19420e18;\n        capacityAtLevel[5] = 24275e18;\n        capacityAtLevel[6] = 33984e18;\n        capacityAtLevel[7] = 50977e18;\n        capacityAtLevel[8] = 76465e18;\n        capacityAtLevel[9] = 125985e18;\n        upgradeRequirementAtLevel[1] = 25e18;\n        upgradeRequirementAtLevel[2] = 25e18;\n        upgradeRequirementAtLevel[3] = 25e18;\n        upgradeRequirementAtLevel[4] = 40e18;\n        upgradeRequirementAtLevel[5] = 40e18;\n        upgradeRequirementAtLevel[6] = 75e18;\n        upgradeRequirementAtLevel[7] = 75e18;\n        upgradeRequirementAtLevel[8] = 120e18;\n        upgradeRequirementAtLevel[9] = 150e18;\n        productionRate[0] = 3941e13;\n        productionRate[1] = 3350e13;\n        productionRate[2] = 2881e13;\n        productionRate[3] = 2506e13;\n        productionRate[4] = 2206e13;\n        productionRate[5] = 1963e13;\n        productionRate[6] = 1767e13;\n        productionRate[7] = 1608e13;\n        productionRate[8] = 1479e13;\n        productionRate[9] = 1376e13;\n        productionRate[10] = 1293e13;\n        productionRate[11] = 1228e13;\n    }\n\n    function onERC721Received(\n        address operator,\n        address from,\n        uint256 id,\n        bytes calldata data\n    ) external pure returns (bytes4) {\n        return bytes4(keccak256(\"onERC721Received(address,address,uint256,bytes)\"));\n    }\n\n    // EVENTS\n    event CapacityUpgraded(address userAddress, uint userLevel);\n\n    // MODIFIERS\n    modifier onlyOwner(address _address) {\n        require(_address == owner, \"not authorized\");\n        _;\n    }\n\n    modifier drillStaked(address _address) {\n        require(stakes[_address].timestamp > 0, \"drill not staked for this user\");\n        _;\n    }\n\n    modifier drillNotStaked(address _address) {\n        require(stakes[_address].timestamp == 0, \"drill already staked\");\n        _;\n    }\n\n    modifier levelExists(uint _level) {\n        require(_level <= maxLevel, \"level greater than max level\");\n        _;\n    }\n\n    // ONLY OWNER\n    \n    // update treasury\n    function updateTreasury(address payable _address) public onlyOwner(msg.sender) {\n        treasury = _address;\n    }\n\n    // update max level\n    function updateMaxLevel(uint _level) public onlyOwner(msg.sender) {\n        maxLevel = _level;\n    }\n\n    // update capacity at level\n    function updateCapacityAtLevel(uint _level, uint _capacity) public onlyOwner(msg.sender) levelExists(_level) {\n        capacityAtLevel[_level] = _capacity;\n    }\n\n    // update upgrade requirement\n    function updateUpgradeRequirementAtLevel(uint _level, uint _capacity) public onlyOwner(msg.sender) levelExists(_level){\n        require(_level <= maxLevel, \"level not less than max level\");\n        upgradeRequirementAtLevel[_level] = _capacity;\n    }\n\n    // GETTERS\n\n    function getCapacityAtLevel(uint _level) public view levelExists(_level) returns(uint) {\n        return capacityAtLevel[_level];\n    }\n\n    function getUserLevel(address _userAddress) public view returns(uint) {\n        return userLevel[_userAddress];\n    }\n\n    function getStake(address _address) public view returns(Stake memory) {\n        return stakes[_address];\n    }\n\n    // TODO : test this\n    function getCurrentPeriod() public view returns(uint) {\n        return (block.timestamp - GENESIS_TIME) / SECONDS_IN_PERIOD;\n    }\n    \n    function getBaseProduction() public view returns(uint) {\n        uint period = getCurrentPeriod();\n        if (period > 11) {\n            period = 11;\n        }\n        return productionRate[period];\n    }\n\n    function getMaxLevel() public view returns(uint) {\n        return maxLevel;\n    }\n\n    function getAccumulatedIron(address _userAddress) public view drillStaked(_userAddress) returns(uint) {\n        Stake memory curStake = stakes[_userAddress];\n        uint time = block.timestamp - curStake.timestamp;\n        uint miningPower = mineEmpireDrill.getMiningPower(curStake.drill.drillId);\n        uint capacity = capacityAtLevel[userLevel[_userAddress]];\n        uint baseProduction = getBaseProduction();\n        uint amount = time * baseProduction / 100 * miningPower;\n        if (capacity < amount) {\n            amount = capacity;\n        }\n        return amount;\n    }\n\n    // USER INTERACTIONS\n\n    function stake(uint _drillId) public drillNotStaked(msg.sender) {\n        mineEmpireDrill.safeTransferFrom(msg.sender, address(this), _drillId);\n        MineEmpireDrill.Drill memory drill = mineEmpireDrill.getDrill(_drillId);\n        stakes[msg.sender] = Stake(\n            block.timestamp,\n            drill);\n    }\n\n    function collectIron() public drillStaked(msg.sender) {\n        uint amount = getAccumulatedIron(msg.sender);\n        iron.mint(msg.sender, amount);\n        stakes[msg.sender].timestamp = block.timestamp;\n    }\n\n    function unstake() public drillStaked(msg.sender) {\n        uint amount = getAccumulatedIron(msg.sender);\n        iron.mint(msg.sender, amount);\n        mineEmpireDrill.safeTransferFrom(address(this), msg.sender, stakes[msg.sender].drill.drillId);\n        delete stakes[msg.sender];\n    }\n\n    function upgrade() public {\n        uint curLevel = userLevel[msg.sender];\n        require(curLevel < 9, \"level at max\");\n        uint upgradeAmt = upgradeRequirementAtLevel[curLevel + 1];\n        cosmicCash.transferFrom(msg.sender, treasury, upgradeAmt);\n        userLevel[msg.sender] = curLevel + 1;\n        emit CapacityUpgraded(msg.sender, userLevel[msg.sender]);\n        return;\n    }\n}",
  "sourcePath": "/Users/aslan/Desktop/MineEmpireBackend/contracts/Gades.sol",
  "compiler": {
    "name": "solc",
    "version": "0.8.11+commit.d7f03943.Emscripten.clang"
  },
  "schemaVersion": "3.4.3",
  "updatedAt": "2022-07-06T14:37:56.354Z",
  "devdoc": {
    "kind": "dev",
    "methods": {},
    "version": 1
  },
  "userdoc": {
    "kind": "user",
    "methods": {},
    "version": 1
  }
}