{
  "contractName": "Gades",
  "abi": [
    {
      "inputs": [
        {
          "internalType": "contract ERC20PresetMinterPauser",
          "name": "_iron",
          "type": "address"
        },
        {
          "internalType": "contract ERC20PresetMinterPauser",
          "name": "_cosmicCash",
          "type": "address"
        },
        {
          "internalType": "contract MineEmpireDrill",
          "name": "_drill",
          "type": "address"
        }
      ],
      "stateMutability": "nonpayable",
      "type": "constructor"
    },
    {
      "anonymous": false,
      "inputs": [
        {
          "indexed": false,
          "internalType": "address",
          "name": "userAddress",
          "type": "address"
        },
        {
          "indexed": false,
          "internalType": "uint256",
          "name": "userLevel",
          "type": "uint256"
        }
      ],
      "name": "CapacityUpgraded",
      "type": "event"
    },
    {
      "inputs": [],
      "name": "GENESIS_TIME",
      "outputs": [
        {
          "internalType": "uint256",
          "name": "",
          "type": "uint256"
        }
      ],
      "stateMutability": "view",
      "type": "function",
      "constant": true
    },
    {
      "inputs": [],
      "name": "SECONDS_IN_PERIOD",
      "outputs": [
        {
          "internalType": "uint256",
          "name": "",
          "type": "uint256"
        }
      ],
      "stateMutability": "view",
      "type": "function",
      "constant": true
    },
    {
      "inputs": [
        {
          "internalType": "uint256",
          "name": "",
          "type": "uint256"
        }
      ],
      "name": "capacityAtLevel",
      "outputs": [
        {
          "internalType": "uint256",
          "name": "",
          "type": "uint256"
        }
      ],
      "stateMutability": "view",
      "type": "function",
      "constant": true
    },
    {
      "inputs": [],
      "name": "cosmicCash",
      "outputs": [
        {
          "internalType": "contract ERC20PresetMinterPauser",
          "name": "",
          "type": "address"
        }
      ],
      "stateMutability": "view",
      "type": "function",
      "constant": true
    },
    {
      "inputs": [],
      "name": "iron",
      "outputs": [
        {
          "internalType": "contract ERC20PresetMinterPauser",
          "name": "",
          "type": "address"
        }
      ],
      "stateMutability": "view",
      "type": "function",
      "constant": true
    },
    {
      "inputs": [],
      "name": "mineEmpireDrill",
      "outputs": [
        {
          "internalType": "contract MineEmpireDrill",
          "name": "",
          "type": "address"
        }
      ],
      "stateMutability": "view",
      "type": "function",
      "constant": true
    },
    {
      "inputs": [],
      "name": "owner",
      "outputs": [
        {
          "internalType": "address",
          "name": "",
          "type": "address"
        }
      ],
      "stateMutability": "view",
      "type": "function",
      "constant": true
    },
    {
      "inputs": [
        {
          "internalType": "uint256",
          "name": "",
          "type": "uint256"
        }
      ],
      "name": "productionRate",
      "outputs": [
        {
          "internalType": "uint256",
          "name": "",
          "type": "uint256"
        }
      ],
      "stateMutability": "view",
      "type": "function",
      "constant": true
    },
    {
      "inputs": [
        {
          "internalType": "address",
          "name": "",
          "type": "address"
        }
      ],
      "name": "stakes",
      "outputs": [
        {
          "internalType": "uint256",
          "name": "timestamp",
          "type": "uint256"
        },
        {
          "components": [
            {
              "internalType": "uint256",
              "name": "drillId",
              "type": "uint256"
            },
            {
              "internalType": "uint256",
              "name": "drillType",
              "type": "uint256"
            },
            {
              "internalType": "uint256",
              "name": "level",
              "type": "uint256"
            }
          ],
          "internalType": "struct MineEmpireDrill.Drill",
          "name": "drill",
          "type": "tuple"
        }
      ],
      "stateMutability": "view",
      "type": "function",
      "constant": true
    },
    {
      "inputs": [
        {
          "internalType": "uint256",
          "name": "",
          "type": "uint256"
        }
      ],
      "name": "upgradeRequirementAtLevel",
      "outputs": [
        {
          "internalType": "uint256",
          "name": "",
          "type": "uint256"
        }
      ],
      "stateMutability": "view",
      "type": "function",
      "constant": true
    },
    {
      "inputs": [
        {
          "internalType": "address",
          "name": "",
          "type": "address"
        }
      ],
      "name": "userLevel",
      "outputs": [
        {
          "internalType": "uint256",
          "name": "",
          "type": "uint256"
        }
      ],
      "stateMutability": "view",
      "type": "function",
      "constant": true
    },
    {
      "inputs": [
        {
          "internalType": "address",
          "name": "operator",
          "type": "address"
        },
        {
          "internalType": "address",
          "name": "from",
          "type": "address"
        },
        {
          "internalType": "uint256",
          "name": "id",
          "type": "uint256"
        },
        {
          "internalType": "bytes",
          "name": "data",
          "type": "bytes"
        }
      ],
      "name": "onERC721Received",
      "outputs": [
        {
          "internalType": "bytes4",
          "name": "",
          "type": "bytes4"
        }
      ],
      "stateMutability": "pure",
      "type": "function",
      "constant": true
    },
    {
      "inputs": [
        {
          "internalType": "address payable",
          "name": "_address",
          "type": "address"
        }
      ],
      "name": "updateTreasury",
      "outputs": [],
      "stateMutability": "nonpayable",
      "type": "function"
    },
    {
      "inputs": [
        {
          "internalType": "uint256",
          "name": "_level",
          "type": "uint256"
        }
      ],
      "name": "updateMaxLevel",
      "outputs": [],
      "stateMutability": "nonpayable",
      "type": "function"
    },
    {
      "inputs": [
        {
          "internalType": "uint256",
          "name": "_level",
          "type": "uint256"
        },
        {
          "internalType": "uint256",
          "name": "_capacity",
          "type": "uint256"
        }
      ],
      "name": "updateCapacityAtLevel",
      "outputs": [],
      "stateMutability": "nonpayable",
      "type": "function"
    },
    {
      "inputs": [
        {
          "internalType": "uint256",
          "name": "_level",
          "type": "uint256"
        },
        {
          "internalType": "uint256",
          "name": "_capacity",
          "type": "uint256"
        }
      ],
      "name": "updateUpgradeRequirementAtLevel",
      "outputs": [],
      "stateMutability": "nonpayable",
      "type": "function"
    },
    {
      "inputs": [
        {
          "internalType": "uint256",
          "name": "_level",
          "type": "uint256"
        }
      ],
      "name": "getCapacityAtLevel",
      "outputs": [
        {
          "internalType": "uint256",
          "name": "",
          "type": "uint256"
        }
      ],
      "stateMutability": "view",
      "type": "function",
      "constant": true
    },
    {
      "inputs": [
        {
          "internalType": "address",
          "name": "_userAddress",
          "type": "address"
        }
      ],
      "name": "getUserLevel",
      "outputs": [
        {
          "internalType": "uint256",
          "name": "",
          "type": "uint256"
        }
      ],
      "stateMutability": "view",
      "type": "function",
      "constant": true
    },
    {
      "inputs": [
        {
          "internalType": "address",
          "name": "_address",
          "type": "address"
        }
      ],
      "name": "getStake",
      "outputs": [
        {
          "components": [
            {
              "internalType": "uint256",
              "name": "timestamp",
              "type": "uint256"
            },
            {
              "components": [
                {
                  "internalType": "uint256",
                  "name": "drillId",
                  "type": "uint256"
                },
                {
                  "internalType": "uint256",
                  "name": "drillType",
                  "type": "uint256"
                },
                {
                  "internalType": "uint256",
                  "name": "level",
                  "type": "uint256"
                }
              ],
              "internalType": "struct MineEmpireDrill.Drill",
              "name": "drill",
              "type": "tuple"
            }
          ],
          "internalType": "struct Gades.Stake",
          "name": "",
          "type": "tuple"
        }
      ],
      "stateMutability": "view",
      "type": "function",
      "constant": true
    },
    {
      "inputs": [],
      "name": "getCurrentPeriod",
      "outputs": [
        {
          "internalType": "uint256",
          "name": "",
          "type": "uint256"
        }
      ],
      "stateMutability": "view",
      "type": "function",
      "constant": true
    },
    {
      "inputs": [],
      "name": "getBaseProduction",
      "outputs": [
        {
          "internalType": "uint256",
          "name": "",
          "type": "uint256"
        }
      ],
      "stateMutability": "view",
      "type": "function",
      "constant": true
    },
    {
      "inputs": [],
      "name": "getMaxLevel",
      "outputs": [
        {
          "internalType": "uint256",
          "name": "",
          "type": "uint256"
        }
      ],
      "stateMutability": "view",
      "type": "function",
      "constant": true
    },
    {
      "inputs": [
        {
          "internalType": "address",
          "name": "_userAddress",
          "type": "address"
        }
      ],
      "name": "getAccumulatedIron",
      "outputs": [
        {
          "internalType": "uint256",
          "name": "",
          "type": "uint256"
        }
      ],
      "stateMutability": "view",
      "type": "function",
      "constant": true
    },
    {
      "inputs": [
        {
          "internalType": "uint256",
          "name": "_drillId",
          "type": "uint256"
        }
      ],
      "name": "stake",
      "outputs": [],
      "stateMutability": "nonpayable",
      "type": "function"
    },
    {
      "inputs": [],
      "name": "collectIron",
      "outputs": [],
      "stateMutability": "nonpayable",
      "type": "function"
    },
    {
      "inputs": [],
      "name": "unstake",
      "outputs": [],
      "stateMutability": "nonpayable",
      "type": "function"
    },
    {
      "inputs": [],
      "name": "upgrade",
      "outputs": [],
      "stateMutability": "nonpayable",
      "type": "function"
    }
  ],
  "bytecode": "0x608060405262278d00600b553480156200001857600080fd5b50604051620029743803806200297483398181016040528101906200003e91906200062a565b33600360006101000a81548173ffffffffffffffffffffffffffffffffffffffff021916908373ffffffffffffffffffffffffffffffffffffffff16021790555042600c8190555082600160006101000a81548173ffffffffffffffffffffffffffffffffffffffff021916908373ffffffffffffffffffffffffffffffffffffffff16021790555081600260006101000a81548173ffffffffffffffffffffffffffffffffffffffff021916908373ffffffffffffffffffffffffffffffffffffffff160217905550806000806101000a81548173ffffffffffffffffffffffffffffffffffffffff021916908373ffffffffffffffffffffffffffffffffffffffff1602179055506009600581905550690229c19a3a9c473c0000600660008081526020019081526020016000208190555069027cce5f95ba01ac00006006600060018152602001908152602001600020819055506902dc530916401ff4000060066000600281526020019081526020016000208190555069034a354fb6be84c0000060066000600381526020019081526020016000208190555069041cc2a3a46e25f00000600660006004815260200190815260200160002081905550690523f34c8d89af6c000060066000600581526020019081526020016000208190555069073246bda90d1b000000600660006006815260200190815260200160002081905550690acb77fd34474fe400006006600060078152602001908152602001600020819055506910312d0b731124240000600660006008815260200190815260200160002081905550691aada918d2dcc3e4000060066000600981526020019081526020016000208190555068015af1d78b58c4000060076000600181526020019081526020016000208190555068015af1d78b58c4000060076000600281526020019081526020016000208190555068015af1d78b58c4000060076000600381526020019081526020016000208190555068022b1c8c1227a0000060076000600481526020019081526020016000208190555068022b1c8c1227a00000600760006005815260200190815260200160002081905550680410d586a20a4c0000600760006006815260200190815260200160002081905550680410d586a20a4c000060076000600781526020019081526020016000208190555068068155a43676e00000600760006008815260200190815260200160002081905550680821ab0d4414980000600760006009815260200190815260200160002081905550668c032faa992000600a600080815260200190815260200160002081905550667704128ff9c000600a6000600181526020019081526020016000208190555066665a8ad7faa000600a60006002815260200190815260200160002081905550665907efee124000600a60006003815260200190815260200160002081905550664e5f73ffbec000600a600060048152602001908152602001600020819055506645bd6188f0e000600a60006005815260200190815260200160002081905550663ec6c5792e6000600a60006006815260200190815260200160002081905550663920acbffd0000600a6000600781526020019081526020016000208190555066348b6d383a6000600a600060088152602001908152602001600020819055506630e2a5a81c0000600a60006009815260200190815260200160002081905550662defc438f22000600a6000600a815260200190815260200160002081905550662ba0984dd78000600a6000600b81526020019081526020016000208190555050505062000686565b600080fd5b600073ffffffffffffffffffffffffffffffffffffffff82169050919050565b600062000599826200056c565b9050919050565b6000620005ad826200058c565b9050919050565b620005bf81620005a0565b8114620005cb57600080fd5b50565b600081519050620005df81620005b4565b92915050565b6000620005f2826200058c565b9050919050565b6200060481620005e5565b81146200061057600080fd5b50565b6000815190506200062481620005f9565b92915050565b60008060006060848603121562000646576200064562000567565b5b60006200065686828701620005ce565b93505060206200066986828701620005ce565b92505060406200067c8682870162000613565b9150509250925092565b6122de80620006966000396000f3fe608060405234801561001057600080fd5b50600436106101a95760003560e01c806354c1ab11116100f9578063a694fc3a11610097578063e019488611610071578063e0194886146104d1578063e736dd7c146104ef578063ec4aed1f1461050d578063f288246114610529576101a9565b8063a694fc3a1461048f578063d2bfa040146104ab578063d55ec697146104c7576101a9565b80637f51bb1f116100d35780637f51bb1f146103f5578063871e40fd146104115780638da5cb5b14610441578063950d39d51461045f576101a9565b806354c1ab1114610389578063604b83b4146103a75780637a766460146103c5576101a9565b806321923bde116101665780632def6620116101405780632def6620146103015780633798fe561461030b578063412d0e7214610329578063425c1f1014610359576101a9565b806321923bde14610285578063280e31cc146102b55780632c57d123146102e5576101a9565b806303de5086146101ae578063086146d2146101cc5780630c7c9cd2146101ea57806313c1bf64146101f4578063150b7a021461022457806316934fc414610254575b600080fd5b6101b6610547565b6040516101c39190611734565b60405180910390f35b6101d461054d565b6040516101e19190611734565b60405180910390f35b6101f261056f565b005b61020e6004803603810190610209919061178f565b6106dc565b60405161021b9190611734565b60405180910390f35b61023e6004803603810190610239919061187f565b6106f4565b60405161024b9190611942565b60405180910390f35b61026e6004803603810190610269919061195d565b610722565b60405161027c9291906119db565b60405180910390f35b61029f600480360381019061029a919061195d565b61076e565b6040516102ac9190611734565b60405180910390f35b6102cf60048036038101906102ca919061195d565b6107b7565b6040516102dc9190611734565b60405180910390f35b6102ff60048036038101906102fa919061178f565b6107cf565b005b61030961086b565b005b610313610ae0565b6040516103209190611734565b60405180910390f35b610343600480360381019061033e919061178f565b610aea565b6040516103509190611734565b60405180910390f35b610373600480360381019061036e919061195d565b610b02565b6040516103809190611734565b60405180910390f35b610391610d74565b60405161039e9190611734565b60405180910390f35b6103af610da9565b6040516103bc9190611a63565b60405180910390f35b6103df60048036038101906103da919061195d565b610dcf565b6040516103ec9190611aef565b60405180910390f35b61040f600480360381019061040a9190611b48565b610e64565b005b61042b6004803603810190610426919061178f565b610f3a565b6040516104389190611734565b60405180910390f35b610449610f9e565b6040516104569190611b84565b60405180910390f35b6104796004803603810190610474919061178f565b610fc4565b6040516104869190611734565b60405180910390f35b6104a960048036038101906104a4919061178f565b610fdc565b005b6104c560048036038101906104c09190611b9f565b61121f565b005b6104cf611314565b005b6104d9611550565b6040516104e69190611a63565b60405180910390f35b6104f7611576565b6040516105049190611c00565b60405180910390f35b61052760048036038101906105229190611b9f565b61159a565b005b6105316116d4565b60405161053e9190611734565b60405180910390f35b600b5481565b6000600b54600c54426105609190611c4a565b61056a9190611cad565b905090565b336000600960008373ffffffffffffffffffffffffffffffffffffffff1673ffffffffffffffffffffffffffffffffffffffff16815260200190815260200160002060000154116105f5576040517f08c379a00000000000000000000000000000000000000000000000000000000081526004016105ec90611d3b565b60405180910390fd5b600061060033610b02565b9050600160009054906101000a900473ffffffffffffffffffffffffffffffffffffffff1673ffffffffffffffffffffffffffffffffffffffff166340c10f1933836040518363ffffffff1660e01b815260040161065f929190611d5b565b600060405180830381600087803b15801561067957600080fd5b505af115801561068d573d6000803e3d6000fd5b5050505042600960003373ffffffffffffffffffffffffffffffffffffffff1673ffffffffffffffffffffffffffffffffffffffff168152602001908152602001600020600001819055505050565b60076020528060005260406000206000915090505481565b60007f150b7a023d4804d13e8c85fb27262cb750cf6ba9f9dd3bb30d90f482ceeb4b1f905095945050505050565b6009602052806000526040600020600091509050806000015490806001016040518060600160405290816000820154815260200160018201548152602001600282015481525050905082565b6000600860008373ffffffffffffffffffffffffffffffffffffffff1673ffffffffffffffffffffffffffffffffffffffff168152602001908152602001600020549050919050565b60086020528060005260406000206000915090505481565b33600360009054906101000a900473ffffffffffffffffffffffffffffffffffffffff1673ffffffffffffffffffffffffffffffffffffffff168173ffffffffffffffffffffffffffffffffffffffff1614610860576040517f08c379a000000000000000000000000000000000000000000000000000000000815260040161085790611dd0565b60405180910390fd5b816005819055505050565b336000600960008373ffffffffffffffffffffffffffffffffffffffff1673ffffffffffffffffffffffffffffffffffffffff16815260200190815260200160002060000154116108f1576040517f08c379a00000000000000000000000000000000000000000000000000000000081526004016108e890611d3b565b60405180910390fd5b60006108fc33610b02565b9050600160009054906101000a900473ffffffffffffffffffffffffffffffffffffffff1673ffffffffffffffffffffffffffffffffffffffff1663a9059cbb33836040518363ffffffff1660e01b815260040161095b929190611d5b565b6020604051808303816000875af115801561097a573d6000803e3d6000fd5b505050506040513d601f19601f8201168201806040525081019061099e9190611e28565b5060008054906101000a900473ffffffffffffffffffffffffffffffffffffffff1673ffffffffffffffffffffffffffffffffffffffff166342842e0e3033600960003373ffffffffffffffffffffffffffffffffffffffff1673ffffffffffffffffffffffffffffffffffffffff168152602001908152602001600020600101600001546040518463ffffffff1660e01b8152600401610a4193929190611e55565b600060405180830381600087803b158015610a5b57600080fd5b505af1158015610a6f573d6000803e3d6000fd5b50505050600960003373ffffffffffffffffffffffffffffffffffffffff1673ffffffffffffffffffffffffffffffffffffffff1681526020019081526020016000206000808201600090556001820160008082016000905560018201600090556002820160009055505050505050565b6000600554905090565b60066020528060005260406000206000915090505481565b6000816000600960008373ffffffffffffffffffffffffffffffffffffffff1673ffffffffffffffffffffffffffffffffffffffff1681526020019081526020016000206000015411610b8a576040517f08c379a0000000000000000000000000000000000000000000000000000000008152600401610b8190611d3b565b60405180910390fd5b6000600960008573ffffffffffffffffffffffffffffffffffffffff1673ffffffffffffffffffffffffffffffffffffffff168152602001908152602001600020604051806040016040529081600082015481526020016001820160405180606001604052908160008201548152602001600182015481526020016002820154815250508152505090506000816000015142610c269190611c4a565b905060008060009054906101000a900473ffffffffffffffffffffffffffffffffffffffff1673ffffffffffffffffffffffffffffffffffffffff166345a8b2de8460200151600001516040518263ffffffff1660e01b8152600401610c8c9190611734565b602060405180830381865afa158015610ca9573d6000803e3d6000fd5b505050506040513d601f19601f82011682018060405250810190610ccd9190611ea1565b9050600060066000600860008a73ffffffffffffffffffffffffffffffffffffffff1673ffffffffffffffffffffffffffffffffffffffff1681526020019081526020016000205481526020019081526020016000205490506000610d30610d74565b905060008360648387610d439190611ece565b610d4d9190611cad565b610d579190611ece565b905080831015610d65578290505b80975050505050505050919050565b600080610d7f61054d565b9050600b811115610d8f57600b90505b600a60008281526020019081526020016000205491505090565b600160009054906101000a900473ffffffffffffffffffffffffffffffffffffffff1681565b610dd76116da565b600960008373ffffffffffffffffffffffffffffffffffffffff1673ffffffffffffffffffffffffffffffffffffffff16815260200190815260200160002060405180604001604052908160008201548152602001600182016040518060600160405290816000820154815260200160018201548152602001600282015481525050815250509050919050565b33600360009054906101000a900473ffffffffffffffffffffffffffffffffffffffff1673ffffffffffffffffffffffffffffffffffffffff168173ffffffffffffffffffffffffffffffffffffffff1614610ef5576040517f08c379a0000000000000000000000000000000000000000000000000000000008152600401610eec90611dd0565b60405180910390fd5b81600460006101000a81548173ffffffffffffffffffffffffffffffffffffffff021916908373ffffffffffffffffffffffffffffffffffffffff1602179055505050565b600081600554811115610f82576040517f08c379a0000000000000000000000000000000000000000000000000000000008152600401610f7990611f74565b60405180910390fd5b6006600084815260200190815260200160002054915050919050565b600360009054906101000a900473ffffffffffffffffffffffffffffffffffffffff1681565b600a6020528060005260406000206000915090505481565b336000600960008373ffffffffffffffffffffffffffffffffffffffff1673ffffffffffffffffffffffffffffffffffffffff1681526020019081526020016000206000015414611062576040517f08c379a000000000000000000000000000000000000000000000000000000000815260040161105990611fe0565b60405180910390fd5b60008054906101000a900473ffffffffffffffffffffffffffffffffffffffff1673ffffffffffffffffffffffffffffffffffffffff166342842e0e3330856040518463ffffffff1660e01b81526004016110bf93929190611e55565b600060405180830381600087803b1580156110d957600080fd5b505af11580156110ed573d6000803e3d6000fd5b5050505060008060009054906101000a900473ffffffffffffffffffffffffffffffffffffffff1673ffffffffffffffffffffffffffffffffffffffff1663a2843682846040518263ffffffff1660e01b815260040161114d9190611734565b606060405180830381865afa15801561116a573d6000803e3d6000fd5b505050506040513d601f19601f8201168201806040525081019061118e91906120f5565b9050604051806040016040528042815260200182815250600960003373ffffffffffffffffffffffffffffffffffffffff1673ffffffffffffffffffffffffffffffffffffffff168152602001908152602001600020600082015181600001556020820151816001016000820151816000015560208201518160010155604082015181600201555050905050505050565b33600360009054906101000a900473ffffffffffffffffffffffffffffffffffffffff1673ffffffffffffffffffffffffffffffffffffffff168173ffffffffffffffffffffffffffffffffffffffff16146112b0576040517f08c379a00000000000000000000000000000000000000000000000000000000081526004016112a790611dd0565b60405180910390fd5b826005548111156112f6576040517f08c379a00000000000000000000000000000000000000000000000000000000081526004016112ed90611f74565b60405180910390fd5b82600660008681526020019081526020016000208190555050505050565b6000600860003373ffffffffffffffffffffffffffffffffffffffff1673ffffffffffffffffffffffffffffffffffffffff1681526020019081526020016000205490506009811061139b576040517f08c379a00000000000000000000000000000000000000000000000000000000081526004016113929061216e565b60405180910390fd5b6000600760006001846113ae919061218e565b8152602001908152602001600020549050600260009054906101000a900473ffffffffffffffffffffffffffffffffffffffff1673ffffffffffffffffffffffffffffffffffffffff166323b872dd33600460009054906101000a900473ffffffffffffffffffffffffffffffffffffffff16846040518463ffffffff1660e01b815260040161144093929190612205565b6020604051808303816000875af115801561145f573d6000803e3d6000fd5b505050506040513d601f19601f820116820180604052508101906114839190611e28565b50600182611491919061218e565b600860003373ffffffffffffffffffffffffffffffffffffffff1673ffffffffffffffffffffffffffffffffffffffff168152602001908152602001600020819055507f732b7725a1bda8623429e119239febb5d692156397644ede58d521187d75d1d333600860003373ffffffffffffffffffffffffffffffffffffffff1673ffffffffffffffffffffffffffffffffffffffff16815260200190815260200160002054604051611544929190611d5b565b60405180910390a15050565b600260009054906101000a900473ffffffffffffffffffffffffffffffffffffffff1681565b60008054906101000a900473ffffffffffffffffffffffffffffffffffffffff1681565b33600360009054906101000a900473ffffffffffffffffffffffffffffffffffffffff1673ffffffffffffffffffffffffffffffffffffffff168173ffffffffffffffffffffffffffffffffffffffff161461162b576040517f08c379a000000000000000000000000000000000000000000000000000000000815260040161162290611dd0565b60405180910390fd5b82600554811115611671576040517f08c379a000000000000000000000000000000000000000000000000000000000815260040161166890611f74565b60405180910390fd5b6005548411156116b6576040517f08c379a00000000000000000000000000000000000000000000000000000000081526004016116ad90612288565b60405180910390fd5b82600760008681526020019081526020016000208190555050505050565b600c5481565b6040518060400160405280600081526020016116f46116fa565b81525090565b60405180606001604052806000815260200160008152602001600081525090565b6000819050919050565b61172e8161171b565b82525050565b60006020820190506117496000830184611725565b92915050565b6000604051905090565b600080fd5b600080fd5b61176c8161171b565b811461177757600080fd5b50565b60008135905061178981611763565b92915050565b6000602082840312156117a5576117a4611759565b5b60006117b38482850161177a565b91505092915050565b600073ffffffffffffffffffffffffffffffffffffffff82169050919050565b60006117e7826117bc565b9050919050565b6117f7816117dc565b811461180257600080fd5b50565b600081359050611814816117ee565b92915050565b600080fd5b600080fd5b600080fd5b60008083601f84011261183f5761183e61181a565b5b8235905067ffffffffffffffff81111561185c5761185b61181f565b5b60208301915083600182028301111561187857611877611824565b5b9250929050565b60008060008060006080868803121561189b5761189a611759565b5b60006118a988828901611805565b95505060206118ba88828901611805565b94505060406118cb8882890161177a565b935050606086013567ffffffffffffffff8111156118ec576118eb61175e565b5b6118f888828901611829565b92509250509295509295909350565b60007fffffffff0000000000000000000000000000000000000000000000000000000082169050919050565b61193c81611907565b82525050565b60006020820190506119576000830184611933565b92915050565b60006020828403121561197357611972611759565b5b600061198184828501611805565b91505092915050565b6119938161171b565b82525050565b6060820160008201516119af600085018261198a565b5060208201516119c2602085018261198a565b5060408201516119d5604085018261198a565b50505050565b60006080820190506119f06000830185611725565b6119fd6020830184611999565b9392505050565b6000819050919050565b6000611a29611a24611a1f846117bc565b611a04565b6117bc565b9050919050565b6000611a3b82611a0e565b9050919050565b6000611a4d82611a30565b9050919050565b611a5d81611a42565b82525050565b6000602082019050611a786000830184611a54565b92915050565b606082016000820151611a94600085018261198a565b506020820151611aa7602085018261198a565b506040820151611aba604085018261198a565b50505050565b608082016000820151611ad6600085018261198a565b506020820151611ae96020850182611a7e565b50505050565b6000608082019050611b046000830184611ac0565b92915050565b6000611b15826117bc565b9050919050565b611b2581611b0a565b8114611b3057600080fd5b50565b600081359050611b4281611b1c565b92915050565b600060208284031215611b5e57611b5d611759565b5b6000611b6c84828501611b33565b91505092915050565b611b7e816117dc565b82525050565b6000602082019050611b996000830184611b75565b92915050565b60008060408385031215611bb657611bb5611759565b5b6000611bc48582860161177a565b9250506020611bd58582860161177a565b9150509250929050565b6000611bea82611a30565b9050919050565b611bfa81611bdf565b82525050565b6000602082019050611c156000830184611bf1565b92915050565b7f4e487b7100000000000000000000000000000000000000000000000000000000600052601160045260246000fd5b6000611c558261171b565b9150611c608361171b565b925082821015611c7357611c72611c1b565b5b828203905092915050565b7f4e487b7100000000000000000000000000000000000000000000000000000000600052601260045260246000fd5b6000611cb88261171b565b9150611cc38361171b565b925082611cd357611cd2611c7e565b5b828204905092915050565b600082825260208201905092915050565b7f6472696c6c206e6f74207374616b656420666f72207468697320757365720000600082015250565b6000611d25601e83611cde565b9150611d3082611cef565b602082019050919050565b60006020820190508181036000830152611d5481611d18565b9050919050565b6000604082019050611d706000830185611b75565b611d7d6020830184611725565b9392505050565b7f6e6f7420617574686f72697a6564000000000000000000000000000000000000600082015250565b6000611dba600e83611cde565b9150611dc582611d84565b602082019050919050565b60006020820190508181036000830152611de981611dad565b9050919050565b60008115159050919050565b611e0581611df0565b8114611e1057600080fd5b50565b600081519050611e2281611dfc565b92915050565b600060208284031215611e3e57611e3d611759565b5b6000611e4c84828501611e13565b91505092915050565b6000606082019050611e6a6000830186611b75565b611e776020830185611b75565b611e846040830184611725565b949350505050565b600081519050611e9b81611763565b92915050565b600060208284031215611eb757611eb6611759565b5b6000611ec584828501611e8c565b91505092915050565b6000611ed98261171b565b9150611ee48361171b565b9250817fffffffffffffffffffffffffffffffffffffffffffffffffffffffffffffffff0483118215151615611f1d57611f1c611c1b565b5b828202905092915050565b7f6c6576656c2067726561746572207468616e206d6178206c6576656c00000000600082015250565b6000611f5e601c83611cde565b9150611f6982611f28565b602082019050919050565b60006020820190508181036000830152611f8d81611f51565b9050919050565b7f6472696c6c20616c7265616479207374616b6564000000000000000000000000600082015250565b6000611fca601483611cde565b9150611fd582611f94565b602082019050919050565b60006020820190508181036000830152611ff981611fbd565b9050919050565b600080fd5b6000601f19601f8301169050919050565b7f4e487b7100000000000000000000000000000000000000000000000000000000600052604160045260246000fd5b61204e82612005565b810181811067ffffffffffffffff8211171561206d5761206c612016565b5b80604052505050565b600061208061174f565b905061208c8282612045565b919050565b6000606082840312156120a7576120a6612000565b5b6120b16060612076565b905060006120c184828501611e8c565b60008301525060206120d584828501611e8c565b60208301525060406120e984828501611e8c565b60408301525092915050565b60006060828403121561210b5761210a611759565b5b600061211984828501612091565b91505092915050565b7f6c6576656c206174206d61780000000000000000000000000000000000000000600082015250565b6000612158600c83611cde565b915061216382612122565b602082019050919050565b600060208201905081810360008301526121878161214b565b9050919050565b60006121998261171b565b91506121a48361171b565b9250827fffffffffffffffffffffffffffffffffffffffffffffffffffffffffffffffff038211156121d9576121d8611c1b565b5b828201905092915050565b60006121ef82611a30565b9050919050565b6121ff816121e4565b82525050565b600060608201905061221a6000830186611b75565b61222760208301856121f6565b6122346040830184611725565b949350505050565b7f6c6576656c206e6f74206c657373207468616e206d6178206c6576656c000000600082015250565b6000612272601d83611cde565b915061227d8261223c565b602082019050919050565b600060208201905081810360008301526122a181612265565b905091905056fea2646970667358221220b1c4426833b9459c0748a701b82a119734b50c7a2ab2959a0acbc3e50329497164736f6c634300080b0033",
  "immutableReferences": {},
  "source": "// SPDX-License-Identifier: MIT\n\npragma solidity ^0.8.0;\n\nimport \"./MineEmpireDrill.sol\";\nimport \"@openzeppelin/contracts/token/ERC721/IERC721Receiver.sol\";\nimport \"@openzeppelin/contracts/token/ERC20/IERC20.sol\";\nimport \"@openzeppelin/contracts/token/ERC20/presets/ERC20PresetMinterPauser.sol\";\n\ncontract Gades {\n    MineEmpireDrill public mineEmpireDrill;\n    ERC20PresetMinterPauser public iron;\n    ERC20PresetMinterPauser public cosmicCash;\n    address public owner;\n    address payable treasury;\n    struct Stake {\n        uint timestamp;\n        MineEmpireDrill.Drill drill;\n    }\n\n    uint maxLevel;\n    mapping(uint => uint) public capacityAtLevel;\n    mapping(uint => uint) public upgradeRequirementAtLevel;\n    mapping(address => uint) public userLevel;\n    mapping(address => Stake) public stakes;\n    mapping(uint => uint) public productionRate;\n    uint public SECONDS_IN_PERIOD = 2592000;\n    uint public GENESIS_TIME;\n\n    constructor(ERC20PresetMinterPauser _iron, ERC20PresetMinterPauser _cosmicCash, MineEmpireDrill _drill) {\n        owner = msg.sender;\n        GENESIS_TIME = block.timestamp;\n        iron = _iron;\n        cosmicCash = _cosmicCash;\n        mineEmpireDrill = _drill;\n        maxLevel = 9;\n        capacityAtLevel[0] = 10215e18;\n        capacityAtLevel[1] = 11747e18;\n        capacityAtLevel[2] = 13509e18;\n        capacityAtLevel[3] = 15536e18;\n        capacityAtLevel[4] = 19420e18;\n        capacityAtLevel[5] = 24275e18;\n        capacityAtLevel[6] = 33984e18;\n        capacityAtLevel[7] = 50977e18;\n        capacityAtLevel[8] = 76465e18;\n        capacityAtLevel[9] = 125985e18;\n        upgradeRequirementAtLevel[1] = 25e18;\n        upgradeRequirementAtLevel[2] = 25e18;\n        upgradeRequirementAtLevel[3] = 25e18;\n        upgradeRequirementAtLevel[4] = 40e18;\n        upgradeRequirementAtLevel[5] = 40e18;\n        upgradeRequirementAtLevel[6] = 75e18;\n        upgradeRequirementAtLevel[7] = 75e18;\n        upgradeRequirementAtLevel[8] = 120e18;\n        upgradeRequirementAtLevel[9] = 150e18;\n        productionRate[0] = 3941e13;\n        productionRate[1] = 3350e13;\n        productionRate[2] = 2881e13;\n        productionRate[3] = 2506e13;\n        productionRate[4] = 2206e13;\n        productionRate[5] = 1963e13;\n        productionRate[6] = 1767e13;\n        productionRate[7] = 1608e13;\n        productionRate[8] = 1479e13;\n        productionRate[9] = 1376e13;\n        productionRate[10] = 1293e13;\n        productionRate[11] = 1228e13;\n    }\n\n    function onERC721Received(\n        address operator,\n        address from,\n        uint256 id,\n        bytes calldata data\n    ) external pure returns (bytes4) {\n        return bytes4(keccak256(\"onERC721Received(address,address,uint256,bytes)\"));\n    }\n\n    // EVENTS\n    event CapacityUpgraded(address userAddress, uint userLevel);\n\n    // MODIFIERS\n    modifier onlyOwner(address _address) {\n        require(_address == owner, \"not authorized\");\n        _;\n    }\n\n    modifier drillStaked(address _address) {\n        require(stakes[_address].timestamp > 0, \"drill not staked for this user\");\n        _;\n    }\n\n    modifier drillNotStaked(address _address) {\n        require(stakes[_address].timestamp == 0, \"drill already staked\");\n        _;\n    }\n\n    modifier levelExists(uint _level) {\n        require(_level <= maxLevel, \"level greater than max level\");\n        _;\n    }\n\n    // ONLY OWNER\n    \n    // update treasury\n    function updateTreasury(address payable _address) public onlyOwner(msg.sender) {\n        treasury = _address;\n    }\n\n    // update max level\n    function updateMaxLevel(uint _level) public onlyOwner(msg.sender) {\n        maxLevel = _level;\n    }\n\n    // update capacity at level\n    function updateCapacityAtLevel(uint _level, uint _capacity) public onlyOwner(msg.sender) levelExists(_level) {\n        capacityAtLevel[_level] = _capacity;\n    }\n\n    // update upgrade requirement\n    function updateUpgradeRequirementAtLevel(uint _level, uint _capacity) public onlyOwner(msg.sender) levelExists(_level){\n        require(_level <= maxLevel, \"level not less than max level\");\n        upgradeRequirementAtLevel[_level] = _capacity;\n    }\n\n    // GETTERS\n\n    function getCapacityAtLevel(uint _level) public view levelExists(_level) returns(uint) {\n        return capacityAtLevel[_level];\n    }\n\n    function getUserLevel(address _userAddress) public view returns(uint) {\n        return userLevel[_userAddress];\n    }\n\n    function getStake(address _address) public view returns(Stake memory) {\n        return stakes[_address];\n    }\n\n    // TODO : test this\n    function getCurrentPeriod() public view returns(uint) {\n        return (block.timestamp - GENESIS_TIME) / SECONDS_IN_PERIOD;\n    }\n    \n    function getBaseProduction() public view returns(uint) {\n        uint period = getCurrentPeriod();\n        if (period > 11) {\n            period = 11;\n        }\n        return productionRate[period];\n    }\n\n    function getMaxLevel() public view returns(uint) {\n        return maxLevel;\n    }\n\n    function getAccumulatedIron(address _userAddress) public view drillStaked(_userAddress) returns(uint) {\n        Stake memory curStake = stakes[_userAddress];\n        uint time = block.timestamp - curStake.timestamp;\n        uint miningPower = mineEmpireDrill.getMiningPower(curStake.drill.drillId);\n        uint capacity = capacityAtLevel[userLevel[_userAddress]];\n        uint baseProduction = getBaseProduction();\n        uint amount = time * baseProduction / 100 * miningPower;\n        if (capacity < amount) {\n            amount = capacity;\n        }\n        return amount;\n    }\n\n    // USER INTERACTIONS\n\n    function stake(uint _drillId) public drillNotStaked(msg.sender) {\n        mineEmpireDrill.safeTransferFrom(msg.sender, address(this), _drillId);\n        MineEmpireDrill.Drill memory drill = mineEmpireDrill.getDrill(_drillId);\n        stakes[msg.sender] = Stake(\n            block.timestamp,\n            drill);\n    }\n\n    function collectIron() public drillStaked(msg.sender) {\n        uint amount = getAccumulatedIron(msg.sender);\n        iron.mint(msg.sender, amount);\n        stakes[msg.sender].timestamp = block.timestamp;\n    }\n\n    function unstake() public drillStaked(msg.sender) {\n        uint amount = getAccumulatedIron(msg.sender);\n        iron.transfer(msg.sender, amount);\n        mineEmpireDrill.safeTransferFrom(address(this), msg.sender, stakes[msg.sender].drill.drillId);\n        delete stakes[msg.sender];\n    }\n\n    function upgrade() public {\n        uint curLevel = userLevel[msg.sender];\n        require(curLevel < 9, \"level at max\");\n        uint upgradeAmt = upgradeRequirementAtLevel[curLevel + 1];\n        cosmicCash.transferFrom(msg.sender, treasury, upgradeAmt);\n        userLevel[msg.sender] = curLevel + 1;\n        emit CapacityUpgraded(msg.sender, userLevel[msg.sender]);\n        return;\n    }\n    \n\n}",
  "sourcePath": "/Users/aslan/Desktop/MineEmpireBackend/contracts/Gades.sol",
  "compiler": {
    "name": "solc",
    "version": "0.8.11+commit.d7f03943.Emscripten.clang"
  },
  "schemaVersion": "3.4.3",
  "updatedAt": "2022-06-20T21:07:41.789Z",
  "networkType": "ethereum",
  "devdoc": {
    "kind": "dev",
    "methods": {},
    "version": 1
  },
  "userdoc": {
    "kind": "user",
    "methods": {},
    "version": 1
  }
}