{
  "contractName": "MineEmpireDrill",
  "abi": [
    {
      "inputs": [],
      "stateMutability": "nonpayable",
      "type": "constructor"
    },
    {
      "anonymous": false,
      "inputs": [
        {
          "indexed": true,
          "internalType": "address",
          "name": "owner",
          "type": "address"
        },
        {
          "indexed": true,
          "internalType": "address",
          "name": "approved",
          "type": "address"
        },
        {
          "indexed": true,
          "internalType": "uint256",
          "name": "tokenId",
          "type": "uint256"
        }
      ],
      "name": "Approval",
      "type": "event"
    },
    {
      "anonymous": false,
      "inputs": [
        {
          "indexed": true,
          "internalType": "address",
          "name": "owner",
          "type": "address"
        },
        {
          "indexed": true,
          "internalType": "address",
          "name": "operator",
          "type": "address"
        },
        {
          "indexed": false,
          "internalType": "bool",
          "name": "approved",
          "type": "bool"
        }
      ],
      "name": "ApprovalForAll",
      "type": "event"
    },
    {
      "anonymous": false,
      "inputs": [
        {
          "indexed": false,
          "internalType": "uint256",
          "name": "_drillId",
          "type": "uint256"
        }
      ],
      "name": "LogAlternativeMint",
      "type": "event"
    },
    {
      "anonymous": false,
      "inputs": [
        {
          "indexed": false,
          "internalType": "uint256",
          "name": "_type",
          "type": "uint256"
        }
      ],
      "name": "LogDrillTypeAdded",
      "type": "event"
    },
    {
      "anonymous": false,
      "inputs": [
        {
          "indexed": false,
          "internalType": "uint256",
          "name": "_drillId",
          "type": "uint256"
        }
      ],
      "name": "LogDrillUpgrade",
      "type": "event"
    },
    {
      "anonymous": false,
      "inputs": [
        {
          "indexed": false,
          "internalType": "uint256",
          "name": "_drillId",
          "type": "uint256"
        }
      ],
      "name": "LogFreeMint",
      "type": "event"
    },
    {
      "anonymous": false,
      "inputs": [
        {
          "indexed": true,
          "internalType": "address",
          "name": "from",
          "type": "address"
        },
        {
          "indexed": true,
          "internalType": "address",
          "name": "to",
          "type": "address"
        },
        {
          "indexed": true,
          "internalType": "uint256",
          "name": "tokenId",
          "type": "uint256"
        }
      ],
      "name": "Transfer",
      "type": "event"
    },
    {
      "inputs": [
        {
          "internalType": "uint256",
          "name": "",
          "type": "uint256"
        }
      ],
      "name": "URIs",
      "outputs": [
        {
          "internalType": "string",
          "name": "",
          "type": "string"
        }
      ],
      "stateMutability": "view",
      "type": "function"
    },
    {
      "inputs": [
        {
          "internalType": "uint256",
          "name": "",
          "type": "uint256"
        }
      ],
      "name": "alternativeMints",
      "outputs": [
        {
          "internalType": "uint256",
          "name": "alternativeMintId",
          "type": "uint256"
        },
        {
          "internalType": "uint256",
          "name": "drillType",
          "type": "uint256"
        },
        {
          "internalType": "uint256",
          "name": "level",
          "type": "uint256"
        },
        {
          "internalType": "contract IERC20",
          "name": "currency",
          "type": "address"
        },
        {
          "internalType": "uint256",
          "name": "price",
          "type": "uint256"
        },
        {
          "internalType": "uint256",
          "name": "minted",
          "type": "uint256"
        },
        {
          "internalType": "uint256",
          "name": "maxMintsAllowed",
          "type": "uint256"
        },
        {
          "internalType": "uint256",
          "name": "releaseTime",
          "type": "uint256"
        }
      ],
      "stateMutability": "view",
      "type": "function"
    },
    {
      "inputs": [
        {
          "internalType": "address",
          "name": "to",
          "type": "address"
        },
        {
          "internalType": "uint256",
          "name": "tokenId",
          "type": "uint256"
        }
      ],
      "name": "approve",
      "outputs": [],
      "stateMutability": "nonpayable",
      "type": "function"
    },
    {
      "inputs": [
        {
          "internalType": "address",
          "name": "owner",
          "type": "address"
        }
      ],
      "name": "balanceOf",
      "outputs": [
        {
          "internalType": "uint256",
          "name": "",
          "type": "uint256"
        }
      ],
      "stateMutability": "view",
      "type": "function"
    },
    {
      "inputs": [],
      "name": "cosmicCash",
      "outputs": [
        {
          "internalType": "contract IERC20",
          "name": "",
          "type": "address"
        }
      ],
      "stateMutability": "view",
      "type": "function"
    },
    {
      "inputs": [],
      "name": "currentTokenId",
      "outputs": [
        {
          "internalType": "uint256",
          "name": "_value",
          "type": "uint256"
        }
      ],
      "stateMutability": "view",
      "type": "function"
    },
    {
      "inputs": [
        {
          "internalType": "uint256",
          "name": "",
          "type": "uint256"
        }
      ],
      "name": "drillIdToDrillMap",
      "outputs": [
        {
          "internalType": "uint256",
          "name": "drillId",
          "type": "uint256"
        },
        {
          "internalType": "uint256",
          "name": "drillType",
          "type": "uint256"
        },
        {
          "internalType": "uint256",
          "name": "level",
          "type": "uint256"
        }
      ],
      "stateMutability": "view",
      "type": "function"
    },
    {
      "inputs": [
        {
          "internalType": "uint256",
          "name": "",
          "type": "uint256"
        }
      ],
      "name": "drillTypeToDrillStatsMap",
      "outputs": [
        {
          "internalType": "uint256",
          "name": "drillType",
          "type": "uint256"
        },
        {
          "internalType": "string",
          "name": "drillName",
          "type": "string"
        },
        {
          "internalType": "uint256",
          "name": "maxLevel",
          "type": "uint256"
        }
      ],
      "stateMutability": "view",
      "type": "function"
    },
    {
      "inputs": [
        {
          "internalType": "address",
          "name": "",
          "type": "address"
        },
        {
          "internalType": "uint256",
          "name": "",
          "type": "uint256"
        },
        {
          "internalType": "uint256",
          "name": "",
          "type": "uint256"
        }
      ],
      "name": "freeMints",
      "outputs": [
        {
          "internalType": "uint256",
          "name": "",
          "type": "uint256"
        }
      ],
      "stateMutability": "view",
      "type": "function"
    },
    {
      "inputs": [
        {
          "internalType": "uint256",
          "name": "tokenId",
          "type": "uint256"
        }
      ],
      "name": "getApproved",
      "outputs": [
        {
          "internalType": "address",
          "name": "",
          "type": "address"
        }
      ],
      "stateMutability": "view",
      "type": "function"
    },
    {
      "inputs": [
        {
          "internalType": "address",
          "name": "owner",
          "type": "address"
        },
        {
          "internalType": "address",
          "name": "operator",
          "type": "address"
        }
      ],
      "name": "isApprovedForAll",
      "outputs": [
        {
          "internalType": "bool",
          "name": "",
          "type": "bool"
        }
      ],
      "stateMutability": "view",
      "type": "function"
    },
    {
      "inputs": [],
      "name": "name",
      "outputs": [
        {
          "internalType": "string",
          "name": "",
          "type": "string"
        }
      ],
      "stateMutability": "view",
      "type": "function"
    },
    {
      "inputs": [],
      "name": "owner",
      "outputs": [
        {
          "internalType": "address",
          "name": "",
          "type": "address"
        }
      ],
      "stateMutability": "view",
      "type": "function"
    },
    {
      "inputs": [
        {
          "internalType": "uint256",
          "name": "tokenId",
          "type": "uint256"
        }
      ],
      "name": "ownerOf",
      "outputs": [
        {
          "internalType": "address",
          "name": "",
          "type": "address"
        }
      ],
      "stateMutability": "view",
      "type": "function"
    },
    {
      "inputs": [
        {
          "internalType": "address",
          "name": "from",
          "type": "address"
        },
        {
          "internalType": "address",
          "name": "to",
          "type": "address"
        },
        {
          "internalType": "uint256",
          "name": "tokenId",
          "type": "uint256"
        }
      ],
      "name": "safeTransferFrom",
      "outputs": [],
      "stateMutability": "nonpayable",
      "type": "function"
    },
    {
      "inputs": [
        {
          "internalType": "address",
          "name": "from",
          "type": "address"
        },
        {
          "internalType": "address",
          "name": "to",
          "type": "address"
        },
        {
          "internalType": "uint256",
          "name": "tokenId",
          "type": "uint256"
        },
        {
          "internalType": "bytes",
          "name": "_data",
          "type": "bytes"
        }
      ],
      "name": "safeTransferFrom",
      "outputs": [],
      "stateMutability": "nonpayable",
      "type": "function"
    },
    {
      "inputs": [
        {
          "internalType": "address",
          "name": "operator",
          "type": "address"
        },
        {
          "internalType": "bool",
          "name": "approved",
          "type": "bool"
        }
      ],
      "name": "setApprovalForAll",
      "outputs": [],
      "stateMutability": "nonpayable",
      "type": "function"
    },
    {
      "inputs": [
        {
          "internalType": "bytes4",
          "name": "interfaceId",
          "type": "bytes4"
        }
      ],
      "name": "supportsInterface",
      "outputs": [
        {
          "internalType": "bool",
          "name": "",
          "type": "bool"
        }
      ],
      "stateMutability": "view",
      "type": "function"
    },
    {
      "inputs": [],
      "name": "symbol",
      "outputs": [
        {
          "internalType": "string",
          "name": "",
          "type": "string"
        }
      ],
      "stateMutability": "view",
      "type": "function"
    },
    {
      "inputs": [
        {
          "internalType": "address",
          "name": "from",
          "type": "address"
        },
        {
          "internalType": "address",
          "name": "to",
          "type": "address"
        },
        {
          "internalType": "uint256",
          "name": "tokenId",
          "type": "uint256"
        }
      ],
      "name": "transferFrom",
      "outputs": [],
      "stateMutability": "nonpayable",
      "type": "function"
    },
    {
      "inputs": [],
      "name": "treasury",
      "outputs": [
        {
          "internalType": "address payable",
          "name": "",
          "type": "address"
        }
      ],
      "stateMutability": "view",
      "type": "function"
    },
    {
      "inputs": [
        {
          "internalType": "address payable",
          "name": "_address",
          "type": "address"
        }
      ],
      "name": "updateTreasuryAddress",
      "outputs": [],
      "stateMutability": "nonpayable",
      "type": "function"
    },
    {
      "inputs": [
        {
          "internalType": "contract IERC20",
          "name": "_cosmicCash",
          "type": "address"
        }
      ],
      "name": "updateCosmicCash",
      "outputs": [],
      "stateMutability": "nonpayable",
      "type": "function"
    },
    {
      "inputs": [
        {
          "internalType": "uint256",
          "name": "_type",
          "type": "uint256"
        },
        {
          "internalType": "string",
          "name": "_name",
          "type": "string"
        },
        {
          "internalType": "uint256",
          "name": "_maxLevel",
          "type": "uint256"
        },
        {
          "internalType": "uint256[]",
          "name": "_miningPowerAtLevel",
          "type": "uint256[]"
        },
        {
          "internalType": "uint256[]",
          "name": "_upgradeRequirements",
          "type": "uint256[]"
        }
      ],
      "name": "addNewDrillType",
      "outputs": [],
      "stateMutability": "nonpayable",
      "type": "function"
    },
    {
      "inputs": [
        {
          "internalType": "address",
          "name": "_user",
          "type": "address"
        },
        {
          "internalType": "uint256",
          "name": "_type",
          "type": "uint256"
        },
        {
          "internalType": "uint256",
          "name": "_level",
          "type": "uint256"
        },
        {
          "internalType": "uint256",
          "name": "_amount",
          "type": "uint256"
        }
      ],
      "name": "updateFreeMint",
      "outputs": [],
      "stateMutability": "nonpayable",
      "type": "function"
    },
    {
      "inputs": [
        {
          "internalType": "uint256",
          "name": "_type",
          "type": "uint256"
        },
        {
          "internalType": "uint256",
          "name": "_maxLevel",
          "type": "uint256"
        }
      ],
      "name": "updateMaxLevel",
      "outputs": [],
      "stateMutability": "nonpayable",
      "type": "function"
    },
    {
      "inputs": [
        {
          "internalType": "uint256",
          "name": "_type",
          "type": "uint256"
        },
        {
          "internalType": "uint256",
          "name": "_level",
          "type": "uint256"
        },
        {
          "internalType": "uint256",
          "name": "_power",
          "type": "uint256"
        }
      ],
      "name": "updateMiningPower",
      "outputs": [],
      "stateMutability": "nonpayable",
      "type": "function"
    },
    {
      "inputs": [
        {
          "internalType": "uint256",
          "name": "_type",
          "type": "uint256"
        },
        {
          "internalType": "uint256",
          "name": "_level",
          "type": "uint256"
        },
        {
          "internalType": "uint256",
          "name": "_upgradeRequirement",
          "type": "uint256"
        }
      ],
      "name": "updateUpgradeRequirement",
      "outputs": [],
      "stateMutability": "nonpayable",
      "type": "function"
    },
    {
      "inputs": [
        {
          "internalType": "uint256",
          "name": "_id",
          "type": "uint256"
        },
        {
          "internalType": "uint256",
          "name": "_type",
          "type": "uint256"
        },
        {
          "internalType": "uint256",
          "name": "_level",
          "type": "uint256"
        },
        {
          "internalType": "contract IERC20",
          "name": "_currency",
          "type": "address"
        },
        {
          "internalType": "uint256",
          "name": "_price",
          "type": "uint256"
        },
        {
          "internalType": "uint256",
          "name": "_maxMintsAllowed",
          "type": "uint256"
        },
        {
          "internalType": "uint256",
          "name": "_releaseTime",
          "type": "uint256"
        }
      ],
      "name": "addAlternativeMint",
      "outputs": [],
      "stateMutability": "nonpayable",
      "type": "function"
    },
    {
      "inputs": [
        {
          "internalType": "uint256",
          "name": "_type",
          "type": "uint256"
        },
        {
          "internalType": "uint256",
          "name": "_level",
          "type": "uint256"
        },
        {
          "internalType": "string",
          "name": "_uri",
          "type": "string"
        }
      ],
      "name": "setURIForTypeAndLevel",
      "outputs": [],
      "stateMutability": "nonpayable",
      "type": "function"
    },
    {
      "inputs": [
        {
          "internalType": "uint256",
          "name": "_drillId",
          "type": "uint256"
        }
      ],
      "name": "getDrill",
      "outputs": [
        {
          "components": [
            {
              "internalType": "uint256",
              "name": "drillId",
              "type": "uint256"
            },
            {
              "internalType": "uint256",
              "name": "drillType",
              "type": "uint256"
            },
            {
              "internalType": "uint256",
              "name": "level",
              "type": "uint256"
            }
          ],
          "internalType": "struct MineEmpireDrill.Drill",
          "name": "",
          "type": "tuple"
        }
      ],
      "stateMutability": "view",
      "type": "function"
    },
    {
      "inputs": [
        {
          "internalType": "uint256",
          "name": "_type",
          "type": "uint256"
        },
        {
          "internalType": "uint256",
          "name": "_level",
          "type": "uint256"
        }
      ],
      "name": "getUpgradeRequirement",
      "outputs": [
        {
          "internalType": "uint256",
          "name": "",
          "type": "uint256"
        }
      ],
      "stateMutability": "view",
      "type": "function"
    },
    {
      "inputs": [
        {
          "internalType": "uint256",
          "name": "_drillId",
          "type": "uint256"
        }
      ],
      "name": "getMiningPower",
      "outputs": [
        {
          "internalType": "uint256",
          "name": "",
          "type": "uint256"
        }
      ],
      "stateMutability": "view",
      "type": "function"
    },
    {
      "inputs": [
        {
          "internalType": "uint256",
          "name": "tokenId",
          "type": "uint256"
        }
      ],
      "name": "tokenURI",
      "outputs": [
        {
          "internalType": "string",
          "name": "",
          "type": "string"
        }
      ],
      "stateMutability": "view",
      "type": "function"
    },
    {
      "inputs": [
        {
          "internalType": "uint256",
          "name": "_type",
          "type": "uint256"
        },
        {
          "internalType": "uint256",
          "name": "_level",
          "type": "uint256"
        }
      ],
      "name": "freeMintDrill",
      "outputs": [],
      "stateMutability": "nonpayable",
      "type": "function"
    },
    {
      "inputs": [
        {
          "internalType": "uint256",
          "name": "_id",
          "type": "uint256"
        }
      ],
      "name": "alternativeMintDrill",
      "outputs": [],
      "stateMutability": "nonpayable",
      "type": "function"
    },
    {
      "inputs": [
        {
          "internalType": "uint256",
          "name": "_drillId",
          "type": "uint256"
        }
      ],
      "name": "upgradeDrill",
      "outputs": [],
      "stateMutability": "nonpayable",
      "type": "function"
    }
  ],
  "bytecode": "0x60806040523480156200001157600080fd5b506040518060400160405280601181526020017f4d696e6520456d70697265204472696c6c0000000000000000000000000000008152506040518060400160405280600581526020017f4452494c4c000000000000000000000000000000000000000000000000000000815250816000908051906020019062000096929190620000f9565b508060019080519060200190620000af929190620000f9565b50505033600660006101000a81548173ffffffffffffffffffffffffffffffffffffffff021916908373ffffffffffffffffffffffffffffffffffffffff1602179055506200020e565b8280546200010790620001d8565b90600052602060002090601f0160209004810192826200012b576000855562000177565b82601f106200014657805160ff191683800117855562000177565b8280016001018555821562000177579182015b828111156200017657825182559160200191906001019062000159565b5b5090506200018691906200018a565b5090565b5b80821115620001a55760008160009055506001016200018b565b5090565b7f4e487b7100000000000000000000000000000000000000000000000000000000600052602260045260246000fd5b60006002820490506001821680620001f157607f821691505b60208210811415620002085762000207620001a9565b5b50919050565b61530c806200021e6000396000f3fe608060405234801561001057600080fd5b50600436106102265760003560e01c806370a0823111610130578063a22cb465116100b8578063c87b56dd1161007c578063c87b56dd14610684578063e0194886146106b4578063e985e9c5146106d2578063f3755c2d14610702578063f5e0ddfe1461073457610226565b8063a22cb465146105e4578063a284368214610600578063a73fe59614610630578063b22726f61461064c578063b88d4fde1461066857610226565b806394cdbcca116100ff57806394cdbcca14610542578063953cc3831461055e578063953f97aa1461057a57806395d89b41146105aa5780639d28b693146105c857610226565b806370a08231146104a857806374551858146104d8578063841e4561146105085780638da5cb5b1461052457610226565b806337c099f5116101b357806345a8b2de1161018257806345a8b2de146103d75780635c1ad4131461040757806361d027b31461043e5780636352211e1461045c5780636e89bb531461048c57610226565b806337c099f51461036757806341437d9f14610383578063425615e61461039f57806342842e0e146103bb57610226565b8063081812fc116101fa578063081812fc146102c7578063095ea7b3146102f75780631f63c4841461031357806323b872dd1461032f5780632cd5f88f1461034b57610226565b80629a9b7b1461022b57806301ffc9a71461024957806303c5b0321461027957806306fdde03146102a9575b600080fd5b610233610766565b60405161024091906134b2565b60405180910390f35b610263600480360381019061025e9190613539565b610772565b6040516102709190613581565b60405180910390f35b610293600480360381019061028e9190613626565b610854565b6040516102a091906134b2565b60405180910390f35b6102b1610886565b6040516102be9190613712565b60405180910390f35b6102e160048036038101906102dc9190613734565b610918565b6040516102ee9190613770565b60405180910390f35b610311600480360381019061030c919061378b565b61099d565b005b61032d60048036038101906103289190613734565b610ab5565b005b610349600480360381019061034491906137cb565b610de0565b005b6103656004803603810190610360919061381e565b610e40565b005b610381600480360381019061037c919061385e565b610f4c565b005b61039d6004803603810190610398919061385e565b61110a565b005b6103b960048036038101906103b491906139e6565b6112c8565b005b6103d560048036038101906103d091906137cb565b61139f565b005b6103f160048036038101906103ec9190613734565b6113bf565b6040516103fe91906134b2565b60405180910390f35b610421600480360381019061041c9190613734565b611487565b604051610435989796959493929190613ab4565b60405180910390f35b6104466114ef565b6040516104539190613b53565b60405180910390f35b61047660048036038101906104719190613734565b611515565b6040516104839190613770565b60405180910390f35b6104a660048036038101906104a19190613bac565b6115c7565b005b6104c260048036038101906104bd9190613bd9565b61169d565b6040516104cf91906134b2565b60405180910390f35b6104f260048036038101906104ed919061381e565b611755565b6040516104ff91906134b2565b60405180910390f35b610522600480360381019061051d9190613c32565b611882565b005b61052c611958565b6040516105399190613770565b60405180910390f35b61055c6004803603810190610557919061381e565b61197e565b005b61057860048036038101906105739190613d27565b611b60565b005b610594600480360381019061058f9190613734565b611d97565b6040516105a19190613712565b60405180910390f35b6105b2611e37565b6040516105bf9190613712565b60405180910390f35b6105e260048036038101906105dd9190613734565b611ec9565b005b6105fe60048036038101906105f99190613e22565b6121cc565b005b61061a60048036038101906106159190613734565b6121e2565b6040516106279190613eb3565b60405180910390f35b61064a60048036038101906106459190613ece565b61227b565b005b61066660048036038101906106619190613f70565b612505565b005b610682600480360381019061067d9190614078565b612603565b005b61069e60048036038101906106999190613734565b612665565b6040516106ab9190613712565b60405180910390f35b6106bc61276e565b6040516106c991906140fb565b60405180910390f35b6106ec60048036038101906106e79190614116565b612794565b6040516106f99190613581565b60405180910390f35b61071c60048036038101906107179190613734565b612828565b60405161072b93929190614156565b60405180910390f35b61074e60048036038101906107499190613734565b6128da565b60405161075d93929190614194565b60405180910390f35b60098060000154905081565b60007f80ac58cd000000000000000000000000000000000000000000000000000000007bffffffffffffffffffffffffffffffffffffffffffffffffffffffff1916827bffffffffffffffffffffffffffffffffffffffffffffffffffffffff1916148061083d57507f5b5e139f000000000000000000000000000000000000000000000000000000007bffffffffffffffffffffffffffffffffffffffffffffffffffffffff1916827bffffffffffffffffffffffffffffffffffffffffffffffffffffffff1916145b8061084d575061084c82612904565b5b9050919050565b600c60205282600052604060002060205281600052604060002060205280600052604060002060009250925050505481565b606060008054610895906141fa565b80601f01602080910402602001604051908101604052809291908181526020018280546108c1906141fa565b801561090e5780601f106108e35761010080835404028352916020019161090e565b820191906000526020600020905b8154815290600101906020018083116108f157829003601f168201915b5050505050905090565b60006109238261296e565b610962576040517f08c379a00000000000000000000000000000000000000000000000000000000081526004016109599061429e565b60405180910390fd5b6004600083815260200190815260200160002060009054906101000a900473ffffffffffffffffffffffffffffffffffffffff169050919050565b60006109a882611515565b90508073ffffffffffffffffffffffffffffffffffffffff168373ffffffffffffffffffffffffffffffffffffffff161415610a19576040517f08c379a0000000000000000000000000000000000000000000000000000000008152600401610a1090614330565b60405180910390fd5b8073ffffffffffffffffffffffffffffffffffffffff16610a386129da565b73ffffffffffffffffffffffffffffffffffffffff161480610a675750610a6681610a616129da565b612794565b5b610aa6576040517f08c379a0000000000000000000000000000000000000000000000000000000008152600401610a9d906143c2565b60405180910390fd5b610ab083836129e2565b505050565b8080600d60008381526020019081526020016000206000015414610b0e576040517f08c379a0000000000000000000000000000000000000000000000000000000008152600401610b0590614454565b60405180910390fd5b81600d600082815260200190815260200160002060060154600d60008381526020019081526020016000206005015410610b7d576040517f08c379a0000000000000000000000000000000000000000000000000000000008152600401610b74906144c0565b60405180910390fd5b8242600d60008381526020019081526020016000206007015410610bd6576040517f08c379a0000000000000000000000000000000000000000000000000000000008152600401610bcd9061452c565b60405180910390fd5b600d60008581526020019081526020016000206005016000815480929190610bfd9061457b565b9190505550600d600085815260200190815260200160002060030160009054906101000a900473ffffffffffffffffffffffffffffffffffffffff1673ffffffffffffffffffffffffffffffffffffffff166323b872dd33600760009054906101000a900473ffffffffffffffffffffffffffffffffffffffff16600d6000898152602001908152602001600020600401546040518463ffffffff1660e01b8152600401610cad939291906145e5565b6020604051808303816000875af1158015610ccc573d6000803e3d6000fd5b505050506040513d601f19601f82011682018060405250810190610cf09190614631565b50610cfb6009612a9b565b6000610d076009612ab1565b905060006040518060600160405280838152602001600d6000898152602001908152602001600020600101548152602001600d600089815260200190815260200160002060020154815250905080600a6000848152602001908152602001600020600082015181600001556020820151816001015560408201518160020155905050610d933383612abf565b7fbaeb640841010143548e154f0ae4df8bf319f8f6598a6c57aa6399b71e6f04df82604051610dc291906134b2565b60405180910390a18180610dd59061457b565b925050505050505050565b610df1610deb6129da565b82612add565b610e30576040517f08c379a0000000000000000000000000000000000000000000000000000000008152600401610e27906146d0565b60405180910390fd5b610e3b838383612bbb565b505050565b33600660009054906101000a900473ffffffffffffffffffffffffffffffffffffffff1673ffffffffffffffffffffffffffffffffffffffff168173ffffffffffffffffffffffffffffffffffffffff1614610ed1576040517f08c379a0000000000000000000000000000000000000000000000000000000008152600401610ec89061473c565b60405180910390fd5b826000600b60008381526020019081526020016000206002015411610f2b576040517f08c379a0000000000000000000000000000000000000000000000000000000008152600401610f22906147a8565b60405180910390fd5b82600b60008681526020019081526020016000206002018190555050505050565b33600660009054906101000a900473ffffffffffffffffffffffffffffffffffffffff1673ffffffffffffffffffffffffffffffffffffffff168173ffffffffffffffffffffffffffffffffffffffff1614610fdd576040517f08c379a0000000000000000000000000000000000000000000000000000000008152600401610fd49061473c565b60405180910390fd5b836000600b60008381526020019081526020016000206002015411611037576040517f08c379a000000000000000000000000000000000000000000000000000000000815260040161102e906147a8565b60405180910390fd5b8484600b6000838152602001908152602001600020600201548110611091576040517f08c379a00000000000000000000000000000000000000000000000000000000081526004016110889061483a565b60405180910390fd5b60008110156110d5576040517f08c379a00000000000000000000000000000000000000000000000000000000081526004016110cc906148a6565b60405180910390fd5b84600b600089815260200190815260200160002060030160008881526020019081526020016000208190555050505050505050565b33600660009054906101000a900473ffffffffffffffffffffffffffffffffffffffff1673ffffffffffffffffffffffffffffffffffffffff168173ffffffffffffffffffffffffffffffffffffffff161461119b576040517f08c379a00000000000000000000000000000000000000000000000000000000081526004016111929061473c565b60405180910390fd5b836000600b600083815260200190815260200160002060020154116111f5576040517f08c379a00000000000000000000000000000000000000000000000000000000081526004016111ec906147a8565b60405180910390fd5b8484600b600083815260200190815260200160002060020154811061124f576040517f08c379a00000000000000000000000000000000000000000000000000000000081526004016112469061483a565b60405180910390fd5b6000811015611293576040517f08c379a000000000000000000000000000000000000000000000000000000000815260040161128a906148a6565b60405180910390fd5b84600b600089815260200190815260200160002060040160008881526020019081526020016000208190555050505050505050565b33600660009054906101000a900473ffffffffffffffffffffffffffffffffffffffff1673ffffffffffffffffffffffffffffffffffffffff168173ffffffffffffffffffffffffffffffffffffffff1614611359576040517f08c379a00000000000000000000000000000000000000000000000000000000081526004016113509061473c565b60405180910390fd5b81600e6000856103e88861136d91906148c6565b6113779190614920565b815260200190815260200160002090805190602001906113989291906133d5565b5050505050565b6113ba83838360405180602001604052806000815250612603565b505050565b6000816113cc6009612ab1565b81111561140e576040517f08c379a0000000000000000000000000000000000000000000000000000000008152600401611405906149c2565b60405180910390fd5b6000600a600085815260200190815260200160002060405180606001604052908160008201548152602001600182015481526020016002820154815250509050600b6000826020015181526020019081526020016000206003016000826040015181526020019081526020016000205492505050919050565b600d6020528060005260406000206000915090508060000154908060010154908060020154908060030160009054906101000a900473ffffffffffffffffffffffffffffffffffffffff16908060040154908060050154908060060154908060070154905088565b600760009054906101000a900473ffffffffffffffffffffffffffffffffffffffff1681565b6000806002600084815260200190815260200160002060009054906101000a900473ffffffffffffffffffffffffffffffffffffffff169050600073ffffffffffffffffffffffffffffffffffffffff168173ffffffffffffffffffffffffffffffffffffffff1614156115be576040517f08c379a00000000000000000000000000000000000000000000000000000000081526004016115b590614a54565b60405180910390fd5b80915050919050565b33600660009054906101000a900473ffffffffffffffffffffffffffffffffffffffff1673ffffffffffffffffffffffffffffffffffffffff168173ffffffffffffffffffffffffffffffffffffffff1614611658576040517f08c379a000000000000000000000000000000000000000000000000000000000815260040161164f9061473c565b60405180910390fd5b81600860006101000a81548173ffffffffffffffffffffffffffffffffffffffff021916908373ffffffffffffffffffffffffffffffffffffffff1602179055505050565b60008073ffffffffffffffffffffffffffffffffffffffff168273ffffffffffffffffffffffffffffffffffffffff16141561170e576040517f08c379a000000000000000000000000000000000000000000000000000000000815260040161170590614ae6565b60405180910390fd5b600360008373ffffffffffffffffffffffffffffffffffffffff1673ffffffffffffffffffffffffffffffffffffffff168152602001908152602001600020549050919050565b6000826000600b600083815260200190815260200160002060020154116117b1576040517f08c379a00000000000000000000000000000000000000000000000000000000081526004016117a8906147a8565b60405180910390fd5b8383600b600083815260200190815260200160002060020154811061180b576040517f08c379a00000000000000000000000000000000000000000000000000000000081526004016118029061483a565b60405180910390fd5b600081101561184f576040517f08c379a0000000000000000000000000000000000000000000000000000000008152600401611846906148a6565b60405180910390fd5b600b6000878152602001908152602001600020600401600086815260200190815260200160002054935050505092915050565b33600660009054906101000a900473ffffffffffffffffffffffffffffffffffffffff1673ffffffffffffffffffffffffffffffffffffffff168173ffffffffffffffffffffffffffffffffffffffff1614611913576040517f08c379a000000000000000000000000000000000000000000000000000000000815260040161190a9061473c565b60405180910390fd5b81600760006101000a81548173ffffffffffffffffffffffffffffffffffffffff021916908373ffffffffffffffffffffffffffffffffffffffff1602179055505050565b600660009054906101000a900473ffffffffffffffffffffffffffffffffffffffff1681565b8181336000600c60008373ffffffffffffffffffffffffffffffffffffffff1673ffffffffffffffffffffffffffffffffffffffff168152602001908152602001600020600085815260200190815260200160002060008481526020019081526020016000205411611a25576040517f08c379a0000000000000000000000000000000000000000000000000000000008152600401611a1c90614b52565b60405180910390fd5b600c60003373ffffffffffffffffffffffffffffffffffffffff1673ffffffffffffffffffffffffffffffffffffffff168152602001908152602001600020600086815260200190815260200160002060008581526020019081526020016000206000815480929190611a9790614b72565b9190505550611aa66009612a9b565b6000611ab26009612ab1565b90506000604051806060016040528083815260200188815260200187815250905080600a6000848152602001908152602001600020600082015181600001556020820151816001015560408201518160020155905050611b123383612abf565b7f923d4248293acf78995ad5e52966001aaaf76b3db09d476879f9b3a67afcb98582604051611b4191906134b2565b60405180910390a18180611b549061457b565b92505050505050505050565b33600660009054906101000a900473ffffffffffffffffffffffffffffffffffffffff1673ffffffffffffffffffffffffffffffffffffffff168173ffffffffffffffffffffffffffffffffffffffff1614611bf1576040517f08c379a0000000000000000000000000000000000000000000000000000000008152600401611be89061473c565b60405180910390fd5b856000600b60008381526020019081526020016000206002015414611c4b576040517f08c379a0000000000000000000000000000000000000000000000000000000008152600401611c4290614be8565b60405180910390fd5b86600b60008981526020019081526020016000206000018190555085600b60008981526020019081526020016000206001019080519060200190611c909291906133d5565b5084600b60008981526020019081526020016000206002018190555060005b85811015611d5657848181518110611cca57611cc9614c08565b5b6020026020010151600b60008a8152602001908152602001600020600301600083815260200190815260200160002081905550838181518110611d1057611d0f614c08565b5b6020026020010151600b60008a81526020019081526020016000206004016000838152602001908152602001600020819055508080611d4e9061457b565b915050611caf565b507f7ab3fb987ec2924804068fdb0e3f35d58f0b2a201f4af1fa5e8fad5f878f24b987604051611d8691906134b2565b60405180910390a150505050505050565b600e6020528060005260406000206000915090508054611db6906141fa565b80601f0160208091040260200160405190810160405280929190818152602001828054611de2906141fa565b8015611e2f5780601f10611e0457610100808354040283529160200191611e2f565b820191906000526020600020905b815481529060010190602001808311611e1257829003601f168201915b505050505081565b606060018054611e46906141fa565b80601f0160208091040260200160405190810160405280929190818152602001828054611e72906141fa565b8015611ebf5780601f10611e9457610100808354040283529160200191611ebf565b820191906000526020600020905b815481529060010190602001808311611ea257829003601f168201915b5050505050905090565b80611ed46009612ab1565b811115611f16576040517f08c379a0000000000000000000000000000000000000000000000000000000008152600401611f0d906149c2565b60405180910390fd5b3373ffffffffffffffffffffffffffffffffffffffff16611f3683611515565b73ffffffffffffffffffffffffffffffffffffffff1614611f8c576040517f08c379a0000000000000000000000000000000000000000000000000000000008152600401611f8390614c83565b60405180910390fd5b6000600a6000848152602001908152602001600020604051806060016040529081600082015481526020016001820154815260200160028201548152505090506000600b60008360200151815260200190815260200160002090508060020154826040015110612031576040517f08c379a000000000000000000000000000000000000000000000000000000000815260040161202890614cef565b60405180910390fd5b60008160040160006001856040015161204a9190614920565b81526020019081526020016000205490506000811161209e576040517f08c379a000000000000000000000000000000000000000000000000000000000815260040161209590614d81565b60405180910390fd5b600860009054906101000a900473ffffffffffffffffffffffffffffffffffffffff1673ffffffffffffffffffffffffffffffffffffffff166323b872dd33600760009054906101000a900473ffffffffffffffffffffffffffffffffffffffff16846040518463ffffffff1660e01b815260040161211f939291906145e5565b6020604051808303816000875af115801561213e573d6000803e3d6000fd5b505050506040513d601f19601f820116820180604052508101906121629190614631565b50600183604001516121749190614920565b600a6000878152602001908152602001600020600201819055507f08a4553aa8d794fe7132b2cc08f76d26c077418968708cf78eedce927e27c05e856040516121bd91906134b2565b60405180910390a15050505050565b6121de6121d76129da565b8383612e22565b5050565b6121ea61345b565b816121f56009612ab1565b811115612237576040517f08c379a000000000000000000000000000000000000000000000000000000000815260040161222e906149c2565b60405180910390fd5b600a60008481526020019081526020016000206040518060600160405290816000820154815260200160018201548152602001600282015481525050915050919050565b33600660009054906101000a900473ffffffffffffffffffffffffffffffffffffffff1673ffffffffffffffffffffffffffffffffffffffff168173ffffffffffffffffffffffffffffffffffffffff161461230c576040517f08c379a00000000000000000000000000000000000000000000000000000000081526004016123039061473c565b60405180910390fd5b866000600b60008381526020019081526020016000206002015411612366576040517f08c379a000000000000000000000000000000000000000000000000000000000815260040161235d906147a8565b60405180910390fd5b8787600b60008381526020019081526020016000206002015481106123c0576040517f08c379a00000000000000000000000000000000000000000000000000000000081526004016123b79061483a565b60405180910390fd5b6000811015612404576040517f08c379a00000000000000000000000000000000000000000000000000000000081526004016123fb906148a6565b60405180910390fd5b6040518061010001604052808c81526020018b81526020018a81526020018973ffffffffffffffffffffffffffffffffffffffff1681526020018881526020016000815260200187815260200186815250600d60008d815260200190815260200160002060008201518160000155602082015181600101556040820151816002015560608201518160030160006101000a81548173ffffffffffffffffffffffffffffffffffffffff021916908373ffffffffffffffffffffffffffffffffffffffff1602179055506080820151816004015560a0820151816005015560c0820151816006015560e082015181600701559050505050505050505050505050565b33600660009054906101000a900473ffffffffffffffffffffffffffffffffffffffff1673ffffffffffffffffffffffffffffffffffffffff168173ffffffffffffffffffffffffffffffffffffffff1614612596576040517f08c379a000000000000000000000000000000000000000000000000000000000815260040161258d9061473c565b60405180910390fd5b81600c60008773ffffffffffffffffffffffffffffffffffffffff1673ffffffffffffffffffffffffffffffffffffffff16815260200190815260200160002060008681526020019081526020016000206000858152602001908152602001600020819055505050505050565b61261461260e6129da565b83612add565b612653576040517f08c379a000000000000000000000000000000000000000000000000000000000815260040161264a906146d0565b60405180910390fd5b61265f84848484612f8f565b50505050565b60606126708261296e565b6126af576040517f08c379a00000000000000000000000000000000000000000000000000000000081526004016126a690614e13565b60405180910390fd5b6000600a6000848152602001908152602001600020600201549050600e600082815260200190815260200160002080546126e8906141fa565b80601f0160208091040260200160405190810160405280929190818152602001828054612714906141fa565b80156127615780601f1061273657610100808354040283529160200191612761565b820191906000526020600020905b81548152906001019060200180831161274457829003601f168201915b5050505050915050919050565b600860009054906101000a900473ffffffffffffffffffffffffffffffffffffffff1681565b6000600560008473ffffffffffffffffffffffffffffffffffffffff1673ffffffffffffffffffffffffffffffffffffffff16815260200190815260200160002060008373ffffffffffffffffffffffffffffffffffffffff1673ffffffffffffffffffffffffffffffffffffffff16815260200190815260200160002060009054906101000a900460ff16905092915050565b600b602052806000526040600020600091509050806000015490806001018054612851906141fa565b80601f016020809104026020016040519081016040528092919081815260200182805461287d906141fa565b80156128ca5780601f1061289f576101008083540402835291602001916128ca565b820191906000526020600020905b8154815290600101906020018083116128ad57829003601f168201915b5050505050908060020154905083565b600a6020528060005260406000206000915090508060000154908060010154908060020154905083565b60007f01ffc9a7000000000000000000000000000000000000000000000000000000007bffffffffffffffffffffffffffffffffffffffffffffffffffffffff1916827bffffffffffffffffffffffffffffffffffffffffffffffffffffffff1916149050919050565b60008073ffffffffffffffffffffffffffffffffffffffff166002600084815260200190815260200160002060009054906101000a900473ffffffffffffffffffffffffffffffffffffffff1673ffffffffffffffffffffffffffffffffffffffff1614159050919050565b600033905090565b816004600083815260200190815260200160002060006101000a81548173ffffffffffffffffffffffffffffffffffffffff021916908373ffffffffffffffffffffffffffffffffffffffff160217905550808273ffffffffffffffffffffffffffffffffffffffff16612a5583611515565b73ffffffffffffffffffffffffffffffffffffffff167f8c5be1e5ebec7d5bd14f71427d1e84f3dd0314c0f7b2291e5b200ac8c7c3b92560405160405180910390a45050565b6001816000016000828254019250508190555050565b600081600001549050919050565b612ad9828260405180602001604052806000815250612feb565b5050565b6000612ae88261296e565b612b27576040517f08c379a0000000000000000000000000000000000000000000000000000000008152600401612b1e90614ea5565b60405180910390fd5b6000612b3283611515565b90508073ffffffffffffffffffffffffffffffffffffffff168473ffffffffffffffffffffffffffffffffffffffff161480612ba157508373ffffffffffffffffffffffffffffffffffffffff16612b8984610918565b73ffffffffffffffffffffffffffffffffffffffff16145b80612bb25750612bb18185612794565b5b91505092915050565b8273ffffffffffffffffffffffffffffffffffffffff16612bdb82611515565b73ffffffffffffffffffffffffffffffffffffffff1614612c31576040517f08c379a0000000000000000000000000000000000000000000000000000000008152600401612c2890614f37565b60405180910390fd5b600073ffffffffffffffffffffffffffffffffffffffff168273ffffffffffffffffffffffffffffffffffffffff161415612ca1576040517f08c379a0000000000000000000000000000000000000000000000000000000008152600401612c9890614fc9565b60405180910390fd5b612cac838383613046565b612cb76000826129e2565b6001600360008573ffffffffffffffffffffffffffffffffffffffff1673ffffffffffffffffffffffffffffffffffffffff1681526020019081526020016000206000828254612d079190614fe9565b925050819055506001600360008473ffffffffffffffffffffffffffffffffffffffff1673ffffffffffffffffffffffffffffffffffffffff1681526020019081526020016000206000828254612d5e9190614920565b92505081905550816002600083815260200190815260200160002060006101000a81548173ffffffffffffffffffffffffffffffffffffffff021916908373ffffffffffffffffffffffffffffffffffffffff160217905550808273ffffffffffffffffffffffffffffffffffffffff168473ffffffffffffffffffffffffffffffffffffffff167fddf252ad1be2c89b69c2b068fc378daa952ba7f163c4a11628f55a4df523b3ef60405160405180910390a4612e1d83838361304b565b505050565b8173ffffffffffffffffffffffffffffffffffffffff168373ffffffffffffffffffffffffffffffffffffffff161415612e91576040517f08c379a0000000000000000000000000000000000000000000000000000000008152600401612e8890615069565b60405180910390fd5b80600560008573ffffffffffffffffffffffffffffffffffffffff1673ffffffffffffffffffffffffffffffffffffffff16815260200190815260200160002060008473ffffffffffffffffffffffffffffffffffffffff1673ffffffffffffffffffffffffffffffffffffffff16815260200190815260200160002060006101000a81548160ff0219169083151502179055508173ffffffffffffffffffffffffffffffffffffffff168373ffffffffffffffffffffffffffffffffffffffff167f17307eab39ab6107e8899845ad3d59bd9653f200f220920489ca2b5937696c3183604051612f829190613581565b60405180910390a3505050565b612f9a848484612bbb565b612fa684848484613050565b612fe5576040517f08c379a0000000000000000000000000000000000000000000000000000000008152600401612fdc906150fb565b60405180910390fd5b50505050565b612ff583836131d8565b6130026000848484613050565b613041576040517f08c379a0000000000000000000000000000000000000000000000000000000008152600401613038906150fb565b60405180910390fd5b505050565b505050565b505050565b60006130718473ffffffffffffffffffffffffffffffffffffffff166133b2565b156131cb578373ffffffffffffffffffffffffffffffffffffffff1663150b7a0261309a6129da565b8786866040518563ffffffff1660e01b81526004016130bc9493929190615170565b6020604051808303816000875af19250505080156130f857506040513d601f19601f820116820180604052508101906130f591906151d1565b60015b61317b573d8060008114613128576040519150601f19603f3d011682016040523d82523d6000602084013e61312d565b606091505b50600081511415613173576040517f08c379a000000000000000000000000000000000000000000000000000000000815260040161316a906150fb565b60405180910390fd5b805181602001fd5b63150b7a0260e01b7bffffffffffffffffffffffffffffffffffffffffffffffffffffffff1916817bffffffffffffffffffffffffffffffffffffffffffffffffffffffff1916149150506131d0565b600190505b949350505050565b600073ffffffffffffffffffffffffffffffffffffffff168273ffffffffffffffffffffffffffffffffffffffff161415613248576040517f08c379a000000000000000000000000000000000000000000000000000000000815260040161323f9061524a565b60405180910390fd5b6132518161296e565b15613291576040517f08c379a0000000000000000000000000000000000000000000000000000000008152600401613288906152b6565b60405180910390fd5b61329d60008383613046565b6001600360008473ffffffffffffffffffffffffffffffffffffffff1673ffffffffffffffffffffffffffffffffffffffff16815260200190815260200160002060008282546132ed9190614920565b92505081905550816002600083815260200190815260200160002060006101000a81548173ffffffffffffffffffffffffffffffffffffffff021916908373ffffffffffffffffffffffffffffffffffffffff160217905550808273ffffffffffffffffffffffffffffffffffffffff16600073ffffffffffffffffffffffffffffffffffffffff167fddf252ad1be2c89b69c2b068fc378daa952ba7f163c4a11628f55a4df523b3ef60405160405180910390a46133ae6000838361304b565b5050565b6000808273ffffffffffffffffffffffffffffffffffffffff163b119050919050565b8280546133e1906141fa565b90600052602060002090601f016020900481019282613403576000855561344a565b82601f1061341c57805160ff191683800117855561344a565b8280016001018555821561344a579182015b8281111561344957825182559160200191906001019061342e565b5b509050613457919061347c565b5090565b60405180606001604052806000815260200160008152602001600081525090565b5b8082111561349557600081600090555060010161347d565b5090565b6000819050919050565b6134ac81613499565b82525050565b60006020820190506134c760008301846134a3565b92915050565b6000604051905090565b600080fd5b600080fd5b60007fffffffff0000000000000000000000000000000000000000000000000000000082169050919050565b613516816134e1565b811461352157600080fd5b50565b6000813590506135338161350d565b92915050565b60006020828403121561354f5761354e6134d7565b5b600061355d84828501613524565b91505092915050565b60008115159050919050565b61357b81613566565b82525050565b60006020820190506135966000830184613572565b92915050565b600073ffffffffffffffffffffffffffffffffffffffff82169050919050565b60006135c78261359c565b9050919050565b6135d7816135bc565b81146135e257600080fd5b50565b6000813590506135f4816135ce565b92915050565b61360381613499565b811461360e57600080fd5b50565b600081359050613620816135fa565b92915050565b60008060006060848603121561363f5761363e6134d7565b5b600061364d868287016135e5565b935050602061365e86828701613611565b925050604061366f86828701613611565b9150509250925092565b600081519050919050565b600082825260208201905092915050565b60005b838110156136b3578082015181840152602081019050613698565b838111156136c2576000848401525b50505050565b6000601f19601f8301169050919050565b60006136e482613679565b6136ee8185613684565b93506136fe818560208601613695565b613707816136c8565b840191505092915050565b6000602082019050818103600083015261372c81846136d9565b905092915050565b60006020828403121561374a576137496134d7565b5b600061375884828501613611565b91505092915050565b61376a816135bc565b82525050565b60006020820190506137856000830184613761565b92915050565b600080604083850312156137a2576137a16134d7565b5b60006137b0858286016135e5565b92505060206137c185828601613611565b9150509250929050565b6000806000606084860312156137e4576137e36134d7565b5b60006137f2868287016135e5565b9350506020613803868287016135e5565b925050604061381486828701613611565b9150509250925092565b60008060408385031215613835576138346134d7565b5b600061384385828601613611565b925050602061385485828601613611565b9150509250929050565b600080600060608486031215613877576138766134d7565b5b600061388586828701613611565b935050602061389686828701613611565b92505060406138a786828701613611565b9150509250925092565b600080fd5b600080fd5b7f4e487b7100000000000000000000000000000000000000000000000000000000600052604160045260246000fd5b6138f3826136c8565b810181811067ffffffffffffffff82111715613912576139116138bb565b5b80604052505050565b60006139256134cd565b905061393182826138ea565b919050565b600067ffffffffffffffff821115613951576139506138bb565b5b61395a826136c8565b9050602081019050919050565b82818337600083830152505050565b600061398961398484613936565b61391b565b9050828152602081018484840111156139a5576139a46138b6565b5b6139b0848285613967565b509392505050565b600082601f8301126139cd576139cc6138b1565b5b81356139dd848260208601613976565b91505092915050565b6000806000606084860312156139ff576139fe6134d7565b5b6000613a0d86828701613611565b9350506020613a1e86828701613611565b925050604084013567ffffffffffffffff811115613a3f57613a3e6134dc565b5b613a4b868287016139b8565b9150509250925092565b6000819050919050565b6000613a7a613a75613a708461359c565b613a55565b61359c565b9050919050565b6000613a8c82613a5f565b9050919050565b6000613a9e82613a81565b9050919050565b613aae81613a93565b82525050565b600061010082019050613aca600083018b6134a3565b613ad7602083018a6134a3565b613ae460408301896134a3565b613af16060830188613aa5565b613afe60808301876134a3565b613b0b60a08301866134a3565b613b1860c08301856134a3565b613b2560e08301846134a3565b9998505050505050505050565b6000613b3d8261359c565b9050919050565b613b4d81613b32565b82525050565b6000602082019050613b686000830184613b44565b92915050565b6000613b79826135bc565b9050919050565b613b8981613b6e565b8114613b9457600080fd5b50565b600081359050613ba681613b80565b92915050565b600060208284031215613bc257613bc16134d7565b5b6000613bd084828501613b97565b91505092915050565b600060208284031215613bef57613bee6134d7565b5b6000613bfd848285016135e5565b91505092915050565b613c0f81613b32565b8114613c1a57600080fd5b50565b600081359050613c2c81613c06565b92915050565b600060208284031215613c4857613c476134d7565b5b6000613c5684828501613c1d565b91505092915050565b600067ffffffffffffffff821115613c7a57613c796138bb565b5b602082029050602081019050919050565b600080fd5b6000613ca3613c9e84613c5f565b61391b565b90508083825260208201905060208402830185811115613cc657613cc5613c8b565b5b835b81811015613cef5780613cdb8882613611565b845260208401935050602081019050613cc8565b5050509392505050565b600082601f830112613d0e57613d0d6138b1565b5b8135613d1e848260208601613c90565b91505092915050565b600080600080600060a08688031215613d4357613d426134d7565b5b6000613d5188828901613611565b955050602086013567ffffffffffffffff811115613d7257613d716134dc565b5b613d7e888289016139b8565b9450506040613d8f88828901613611565b935050606086013567ffffffffffffffff811115613db057613daf6134dc565b5b613dbc88828901613cf9565b925050608086013567ffffffffffffffff811115613ddd57613ddc6134dc565b5b613de988828901613cf9565b9150509295509295909350565b613dff81613566565b8114613e0a57600080fd5b50565b600081359050613e1c81613df6565b92915050565b60008060408385031215613e3957613e386134d7565b5b6000613e47858286016135e5565b9250506020613e5885828601613e0d565b9150509250929050565b613e6b81613499565b82525050565b606082016000820151613e876000850182613e62565b506020820151613e9a6020850182613e62565b506040820151613ead6040850182613e62565b50505050565b6000606082019050613ec86000830184613e71565b92915050565b600080600080600080600060e0888a031215613eed57613eec6134d7565b5b6000613efb8a828b01613611565b9750506020613f0c8a828b01613611565b9650506040613f1d8a828b01613611565b9550506060613f2e8a828b01613b97565b9450506080613f3f8a828b01613611565b93505060a0613f508a828b01613611565b92505060c0613f618a828b01613611565b91505092959891949750929550565b60008060008060808587031215613f8a57613f896134d7565b5b6000613f98878288016135e5565b9450506020613fa987828801613611565b9350506040613fba87828801613611565b9250506060613fcb87828801613611565b91505092959194509250565b600067ffffffffffffffff821115613ff257613ff16138bb565b5b613ffb826136c8565b9050602081019050919050565b600061401b61401684613fd7565b61391b565b905082815260208101848484011115614037576140366138b6565b5b614042848285613967565b509392505050565b600082601f83011261405f5761405e6138b1565b5b813561406f848260208601614008565b91505092915050565b60008060008060808587031215614092576140916134d7565b5b60006140a0878288016135e5565b94505060206140b1878288016135e5565b93505060406140c287828801613611565b925050606085013567ffffffffffffffff8111156140e3576140e26134dc565b5b6140ef8782880161404a565b91505092959194509250565b60006020820190506141106000830184613aa5565b92915050565b6000806040838503121561412d5761412c6134d7565b5b600061413b858286016135e5565b925050602061414c858286016135e5565b9150509250929050565b600060608201905061416b60008301866134a3565b818103602083015261417d81856136d9565b905061418c60408301846134a3565b949350505050565b60006060820190506141a960008301866134a3565b6141b660208301856134a3565b6141c360408301846134a3565b949350505050565b7f4e487b7100000000000000000000000000000000000000000000000000000000600052602260045260246000fd5b6000600282049050600182168061421257607f821691505b60208210811415614226576142256141cb565b5b50919050565b7f4552433732313a20617070726f76656420717565727920666f72206e6f6e657860008201527f697374656e7420746f6b656e0000000000000000000000000000000000000000602082015250565b6000614288602c83613684565b91506142938261422c565b604082019050919050565b600060208201905081810360008301526142b78161427b565b9050919050565b7f4552433732313a20617070726f76616c20746f2063757272656e74206f776e6560008201527f7200000000000000000000000000000000000000000000000000000000000000602082015250565b600061431a602183613684565b9150614325826142be565b604082019050919050565b600060208201905081810360008301526143498161430d565b9050919050565b7f4552433732313a20617070726f76652063616c6c6572206973206e6f74206f7760008201527f6e6572206e6f7220617070726f76656420666f7220616c6c0000000000000000602082015250565b60006143ac603883613684565b91506143b782614350565b604082019050919050565b600060208201905081810360008301526143db8161439f565b9050919050565b7f616c7465726e6174697665206d696e7420696420646f65736e2774206578697360008201527f7400000000000000000000000000000000000000000000000000000000000000602082015250565b600061443e602183613684565b9150614449826143e2565b604082019050919050565b6000602082019050818103600083015261446d81614431565b9050919050565b7f6e6f206d696e7473206c65667400000000000000000000000000000000000000600082015250565b60006144aa600d83613684565b91506144b582614474565b602082019050919050565b600060208201905081810360008301526144d98161449d565b9050919050565b7f63616e6e6f74206d696e74207965740000000000000000000000000000000000600082015250565b6000614516600f83613684565b9150614521826144e0565b602082019050919050565b6000602082019050818103600083015261454581614509565b9050919050565b7f4e487b7100000000000000000000000000000000000000000000000000000000600052601160045260246000fd5b600061458682613499565b91507fffffffffffffffffffffffffffffffffffffffffffffffffffffffffffffffff8214156145b9576145b861454c565b5b600182019050919050565b60006145cf82613a81565b9050919050565b6145df816145c4565b82525050565b60006060820190506145fa6000830186613761565b61460760208301856145d6565b61461460408301846134a3565b949350505050565b60008151905061462b81613df6565b92915050565b600060208284031215614647576146466134d7565b5b60006146558482850161461c565b91505092915050565b7f4552433732313a207472616e736665722063616c6c6572206973206e6f74206f60008201527f776e6572206e6f7220617070726f766564000000000000000000000000000000602082015250565b60006146ba603183613684565b91506146c58261465e565b604082019050919050565b600060208201905081810360008301526146e9816146ad565b9050919050565b7f6e6f74206f776e65720000000000000000000000000000000000000000000000600082015250565b6000614726600983613684565b9150614731826146f0565b602082019050919050565b6000602082019050818103600083015261475581614719565b9050919050565b7f6472696c6c207479706520646f6573206e6f7420657869737400000000000000600082015250565b6000614792601983613684565b915061479d8261475c565b602082019050919050565b600060208201905081810360008301526147c181614785565b9050919050565b7f6c6576656c2069732067726561746572207468616e206d6178206c6576656c2060008201527f666f7220676976656e206472696c6c2074797065000000000000000000000000602082015250565b6000614824603483613684565b915061482f826147c8565b604082019050919050565b6000602082019050818103600083015261485381614817565b9050919050565b7f6c6576656c206973206e65676174697665000000000000000000000000000000600082015250565b6000614890601183613684565b915061489b8261485a565b602082019050919050565b600060208201905081810360008301526148bf81614883565b9050919050565b60006148d182613499565b91506148dc83613499565b9250817fffffffffffffffffffffffffffffffffffffffffffffffffffffffffffffffff04831182151516156149155761491461454c565b5b828202905092915050565b600061492b82613499565b915061493683613499565b9250827fffffffffffffffffffffffffffffffffffffffffffffffffffffffffffffffff0382111561496b5761496a61454c565b5b828201905092915050565b7f6472696c6c20646f6573206e6f74206578697374000000000000000000000000600082015250565b60006149ac601483613684565b91506149b782614976565b602082019050919050565b600060208201905081810360008301526149db8161499f565b9050919050565b7f4552433732313a206f776e657220717565727920666f72206e6f6e657869737460008201527f656e7420746f6b656e0000000000000000000000000000000000000000000000602082015250565b6000614a3e602983613684565b9150614a49826149e2565b604082019050919050565b60006020820190508181036000830152614a6d81614a31565b9050919050565b7f4552433732313a2062616c616e636520717565727920666f7220746865207a6560008201527f726f206164647265737300000000000000000000000000000000000000000000602082015250565b6000614ad0602a83613684565b9150614adb82614a74565b604082019050919050565b60006020820190508181036000830152614aff81614ac3565b9050919050565b7f66726565206d696e74206e6f7420617661696c61626c65000000000000000000600082015250565b6000614b3c601783613684565b9150614b4782614b06565b602082019050919050565b60006020820190508181036000830152614b6b81614b2f565b9050919050565b6000614b7d82613499565b91506000821415614b9157614b9061454c565b5b600182039050919050565b7f6472696c6c207479706520616c72656164792065786973747300000000000000600082015250565b6000614bd2601983613684565b9150614bdd82614b9c565b602082019050919050565b60006020820190508181036000830152614c0181614bc5565b9050919050565b7f4e487b7100000000000000000000000000000000000000000000000000000000600052603260045260246000fd5b7f6472696c6c206e6f74206f776e65640000000000000000000000000000000000600082015250565b6000614c6d600f83613684565b9150614c7882614c37565b602082019050919050565b60006020820190508181036000830152614c9c81614c60565b9050919050565b7f6472696c6c206174206d6178206c6576656c0000000000000000000000000000600082015250565b6000614cd9601283613684565b9150614ce482614ca3565b602082019050919050565b60006020820190508181036000830152614d0881614ccc565b9050919050565b7f616d6f756e7420666f722075706772616465206e6f742067726561746572207460008201527f68616e207a65726f000000000000000000000000000000000000000000000000602082015250565b6000614d6b602883613684565b9150614d7682614d0f565b604082019050919050565b60006020820190508181036000830152614d9a81614d5e565b9050919050565b7f4552433732314d657461646174613a2055524920717565727920666f72206e6f60008201527f6e6578697374656e7420746f6b656e0000000000000000000000000000000000602082015250565b6000614dfd602f83613684565b9150614e0882614da1565b604082019050919050565b60006020820190508181036000830152614e2c81614df0565b9050919050565b7f4552433732313a206f70657261746f7220717565727920666f72206e6f6e657860008201527f697374656e7420746f6b656e0000000000000000000000000000000000000000602082015250565b6000614e8f602c83613684565b9150614e9a82614e33565b604082019050919050565b60006020820190508181036000830152614ebe81614e82565b9050919050565b7f4552433732313a207472616e736665722066726f6d20696e636f72726563742060008201527f6f776e6572000000000000000000000000000000000000000000000000000000602082015250565b6000614f21602583613684565b9150614f2c82614ec5565b604082019050919050565b60006020820190508181036000830152614f5081614f14565b9050919050565b7f4552433732313a207472616e7366657220746f20746865207a65726f2061646460008201527f7265737300000000000000000000000000000000000000000000000000000000602082015250565b6000614fb3602483613684565b9150614fbe82614f57565b604082019050919050565b60006020820190508181036000830152614fe281614fa6565b9050919050565b6000614ff482613499565b9150614fff83613499565b9250828210156150125761501161454c565b5b828203905092915050565b7f4552433732313a20617070726f766520746f2063616c6c657200000000000000600082015250565b6000615053601983613684565b915061505e8261501d565b602082019050919050565b6000602082019050818103600083015261508281615046565b9050919050565b7f4552433732313a207472616e7366657220746f206e6f6e20455243373231526560008201527f63656976657220696d706c656d656e7465720000000000000000000000000000602082015250565b60006150e5603283613684565b91506150f082615089565b604082019050919050565b60006020820190508181036000830152615114816150d8565b9050919050565b600081519050919050565b600082825260208201905092915050565b60006151428261511b565b61514c8185615126565b935061515c818560208601613695565b615165816136c8565b840191505092915050565b60006080820190506151856000830187613761565b6151926020830186613761565b61519f60408301856134a3565b81810360608301526151b18184615137565b905095945050505050565b6000815190506151cb8161350d565b92915050565b6000602082840312156151e7576151e66134d7565b5b60006151f5848285016151bc565b91505092915050565b7f4552433732313a206d696e7420746f20746865207a65726f2061646472657373600082015250565b6000615234602083613684565b915061523f826151fe565b602082019050919050565b6000602082019050818103600083015261526381615227565b9050919050565b7f4552433732313a20746f6b656e20616c7265616479206d696e74656400000000600082015250565b60006152a0601c83613684565b91506152ab8261526a565b602082019050919050565b600060208201905081810360008301526152cf81615293565b905091905056fea26469706673582212201ece96896d564e086dbb93f18439cb429af06a964b2a72de3d8d34e66a13916564736f6c634300080b0033",
  "immutableReferences": {},
  "source": "// SPDX-License-Identifier: MIT\n\npragma solidity ^0.8.0;\n\nimport \"@openzeppelin/contracts/token/ERC721/ERC721.sol\";\nimport \"@openzeppelin/contracts/utils/Counters.sol\";\nimport \"@openzeppelin/contracts/token/ERC20/IERC20.sol\";\n\ncontract MineEmpireDrill is ERC721 {\n    address public owner;\n    address payable public treasury;\n    IERC20 public cosmicCash;\n    using Counters for Counters.Counter;\n    Counters.Counter public currentTokenId;\n\n    struct Drill {\n        uint drillId;\n        uint drillType;\n        uint level;\n    }\n\n    struct DrillTypeInfo {\n        uint drillType;\n        string drillName;\n        uint maxLevel;\n        mapping(uint => uint) miningPowerAtLevel;\n        mapping(uint => uint) upgradeRequirements;\n    }\n\n    struct AlternativeMint {\n        uint alternativeMintId;\n        uint drillType;\n        uint level;\n        IERC20 currency;\n        uint price;\n        uint minted;\n        uint maxMintsAllowed;\n        uint releaseTime;\n    }\n\n    mapping(uint => Drill) public drillIdToDrillMap;\n    mapping(uint => DrillTypeInfo) public drillTypeToDrillStatsMap;\n    // type -> level -> available\n    mapping(address => mapping(uint => mapping(uint => uint))) public freeMints;\n    mapping(uint => AlternativeMint) public alternativeMints;\n    mapping(uint => string) public URIs;\n\n    constructor() ERC721(\"Mine Empire Drill\", \"DRILL\") {\n        owner = msg.sender;\n    }\n\n    // EVENTS\n    event LogDrillTypeAdded(uint _type);\n    event LogFreeMint(uint _drillId);\n    event LogAlternativeMint(uint _drillId);\n    event LogDrillUpgrade(uint _drillId);\n\n    // MODIFIERS\n    modifier onlyOwner(address _address) {\n        require(_address == owner, \"not owner\");\n        _;\n    }\n\n    modifier freeMintAvailable(uint _type, uint _level, address _user) {\n        require (freeMints[_user][_type][_level] > 0, \"free mint not available\");\n        _;\n    }\n\n    modifier drillExists(uint _drillId) {\n        require(_drillId <= currentTokenId.current(), \"drill does not exist\");\n        _;\n    }\n\n    modifier drillTypeExists(uint _drillType) {\n        require(drillTypeToDrillStatsMap[_drillType].maxLevel > 0, \"drill type does not exist\");\n        _;\n    }\n\n    modifier drillTypeNotExists(uint _drillType) {\n        require(drillTypeToDrillStatsMap[_drillType].maxLevel == 0, \"drill type already exists\");\n        _;\n    }\n\n    modifier drillTypeLevelWithinBounds(uint _type, uint _level) {\n        require(_level < drillTypeToDrillStatsMap[_type].maxLevel, \"level is greater than max level for given drill type\");\n        require(_level >= 0, \"level is negative\");\n        _;\n    }\n\n    modifier altMintExists(uint _id) {\n        require(alternativeMints[_id].alternativeMintId == _id, \"alternative mint id doesn't exist\");\n        _;\n    }\n\n    modifier altMintAvailable(uint _id) {\n        require(alternativeMints[_id].minted < alternativeMints[_id].maxMintsAllowed, \"no mints left\");\n        _;\n    }\n\n    modifier altMintWithinTime(uint _id) {\n        require(alternativeMints[_id].releaseTime < block.timestamp, \"cannot mint yet\");\n        _;\n    }\n\n    // ONLY OWNER\n    \n    function updateTreasuryAddress(address payable _address) public onlyOwner(msg.sender) {\n        treasury = _address;\n    }\n\n    function updateCosmicCash(IERC20 _cosmicCash) public onlyOwner(msg.sender) {\n        cosmicCash = _cosmicCash;\n    }\n\n    function addNewDrillType(\n        uint _type,\n        string memory _name,\n        uint _maxLevel,\n        uint[] memory _miningPowerAtLevel,\n        uint[] memory _upgradeRequirements\n    ) public onlyOwner(msg.sender) drillTypeNotExists(_type) {\n        drillTypeToDrillStatsMap[_type].drillType = _type;\n        drillTypeToDrillStatsMap[_type].drillName = _name;\n        drillTypeToDrillStatsMap[_type].maxLevel = _maxLevel;\n        for (uint i = 0; i < _maxLevel; i++) {\n            drillTypeToDrillStatsMap[_type].miningPowerAtLevel[i] = _miningPowerAtLevel[i];\n            drillTypeToDrillStatsMap[_type].upgradeRequirements[i] = _upgradeRequirements[i];\n\n        }\n        emit LogDrillTypeAdded(_type);\n    }\n\n    function updateFreeMint(address _user, uint _type, uint _level, uint _amount) public onlyOwner(msg.sender) {\n        freeMints[_user][_type][_level] = _amount;\n    }\n\n    function updateMaxLevel(\n        uint _type,\n        uint _maxLevel\n    ) public onlyOwner(msg.sender) drillTypeExists(_type) {\n        drillTypeToDrillStatsMap[_type].maxLevel = _maxLevel;\n    }\n\n    function updateMiningPower(\n        uint _type, \n        uint _level, \n        uint _power\n    ) public onlyOwner(msg.sender) drillTypeExists(_type) drillTypeLevelWithinBounds(_type, _level) {\n        drillTypeToDrillStatsMap[_type].miningPowerAtLevel[_level] = _power;\n    }\n\n    function updateUpgradeRequirement(\n        uint _type,\n        uint _level,\n        uint _upgradeRequirement\n    ) public onlyOwner(msg.sender) drillTypeExists(_type) drillTypeLevelWithinBounds(_type, _level) {\n        drillTypeToDrillStatsMap[_type].upgradeRequirements[_level] = _upgradeRequirement;\n    }\n\n    function addAlternativeMint(\n        uint _id,\n        uint _type,\n        uint _level,\n        IERC20 _currency,\n        uint _price,\n        uint _maxMintsAllowed,\n        uint _releaseTime\n    ) public onlyOwner(msg.sender) drillTypeExists(_type) drillTypeLevelWithinBounds(_type, _level) {\n        alternativeMints[_id] = AlternativeMint(_id, _type, _level, _currency, _price, 0, _maxMintsAllowed, _releaseTime);\n    }\n\n    function setURIForTypeAndLevel(uint _type, uint _level, string memory _uri) public onlyOwner(msg.sender) {\n        URIs[_type * 1000 + _level] = _uri;\n    }\n\n    // GETTERS\n\n    function getDrill(uint _drillId) public view drillExists(_drillId) returns(Drill memory) {\n        return drillIdToDrillMap[_drillId];\n    }\n\n    function getUpgradeRequirement(\n        uint _type,\n        uint _level\n    ) public view drillTypeExists(_type) drillTypeLevelWithinBounds(_type, _level) returns(uint) {\n        return drillTypeToDrillStatsMap[_type].upgradeRequirements[_level];\n    }\n    \n    function getMiningPower(uint _drillId) public view drillExists(_drillId) returns(uint) {\n        Drill memory drill = drillIdToDrillMap[_drillId];\n        return drillTypeToDrillStatsMap[drill.drillType].miningPowerAtLevel[drill.level];\n    }\n\n    function tokenURI(uint256 tokenId) public view override returns(string memory) {\n        require(_exists(tokenId), \"ERC721Metadata: URI query for nonexistent token\");\n        uint level = drillIdToDrillMap[tokenId].level;\n        return URIs[level];\n    }\n\n    // USER INTERACTIONS\n\n    function freeMintDrill(uint _type, uint _level) public freeMintAvailable(_type, _level, msg.sender) {\n        freeMints[msg.sender][_type][_level]--;\n        currentTokenId.increment();\n        uint nextDrillId = currentTokenId.current();\n        Drill memory drill = Drill(\n            nextDrillId,\n            _type,\n            _level\n        );\n        drillIdToDrillMap[nextDrillId] = drill;\n        _safeMint(msg.sender, nextDrillId);\n        emit LogFreeMint(nextDrillId);\n        nextDrillId++;\n    }\n\n    function alternativeMintDrill(uint _id) public altMintExists(_id) altMintAvailable(_id) altMintWithinTime(_id) {\n        alternativeMints[_id].minted++;\n        alternativeMints[_id].currency.transferFrom(msg.sender, treasury, alternativeMints[_id].price);\n        currentTokenId.increment();\n        uint nextDrillId = currentTokenId.current();\n        Drill memory drill = Drill(\n            nextDrillId,\n            alternativeMints[_id].drillType,\n            alternativeMints[_id].level\n        );\n        drillIdToDrillMap[nextDrillId] = drill;\n        _safeMint(msg.sender, nextDrillId);\n        emit LogAlternativeMint(nextDrillId);\n        nextDrillId++;\n    }\n\n    function upgradeDrill(uint _drillId) public drillExists(_drillId) {\n        require(super.ownerOf(_drillId) == msg.sender, \"drill not owned\");\n        Drill memory drill = drillIdToDrillMap[_drillId];\n        DrillTypeInfo storage drillInfo = drillTypeToDrillStatsMap[drill.drillType];\n        require(drill.level < drillInfo.maxLevel, \"drill at max level\");\n\n        uint amountForUpgrade = drillInfo.upgradeRequirements[drill.level + 1];\n        require(amountForUpgrade > 0, \"amount for upgrade not greater than zero\");\n        cosmicCash.transferFrom(msg.sender, treasury, amountForUpgrade);\n        drillIdToDrillMap[_drillId].level = drill.level + 1;\n        emit LogDrillUpgrade(_drillId);\n    }\n}",
  "sourcePath": "/Users/aslan/Desktop/MineEmpireBackend/contracts/MineEmpireDrill.sol",
  "compiler": {
    "name": "solc",
    "version": "0.8.11+commit.d7f03943.Emscripten.clang"
  },
  "schemaVersion": "3.4.3",
  "updatedAt": "2022-07-15T19:44:45.761Z",
  "devdoc": {
    "kind": "dev",
    "methods": {
      "approve(address,uint256)": {
        "details": "See {IERC721-approve}."
      },
      "balanceOf(address)": {
        "details": "See {IERC721-balanceOf}."
      },
      "getApproved(uint256)": {
        "details": "See {IERC721-getApproved}."
      },
      "isApprovedForAll(address,address)": {
        "details": "See {IERC721-isApprovedForAll}."
      },
      "name()": {
        "details": "See {IERC721Metadata-name}."
      },
      "ownerOf(uint256)": {
        "details": "See {IERC721-ownerOf}."
      },
      "safeTransferFrom(address,address,uint256)": {
        "details": "See {IERC721-safeTransferFrom}."
      },
      "safeTransferFrom(address,address,uint256,bytes)": {
        "details": "See {IERC721-safeTransferFrom}."
      },
      "setApprovalForAll(address,bool)": {
        "details": "See {IERC721-setApprovalForAll}."
      },
      "supportsInterface(bytes4)": {
        "details": "See {IERC165-supportsInterface}."
      },
      "symbol()": {
        "details": "See {IERC721Metadata-symbol}."
      },
      "tokenURI(uint256)": {
        "details": "See {IERC721Metadata-tokenURI}."
      },
      "transferFrom(address,address,uint256)": {
        "details": "See {IERC721-transferFrom}."
      }
    },
    "version": 1
  },
  "userdoc": {
    "kind": "user",
    "methods": {},
    "version": 1
  }
}