{
  "contractName": "MinerUpgrader",
  "abi": [
    {
      "inputs": [
        {
          "internalType": "address",
          "name": "_addr",
          "type": "address"
        },
        {
          "internalType": "uint256",
          "name": "_minerId",
          "type": "uint256"
        }
      ],
      "name": "upgradeMiningLevel",
      "outputs": [],
      "stateMutability": "nonpayable",
      "type": "function"
    },
    {
      "inputs": [
        {
          "internalType": "address",
          "name": "_addr",
          "type": "address"
        },
        {
          "internalType": "uint256",
          "name": "_minerId",
          "type": "uint256"
        }
      ],
      "name": "upgradeCapacityLevel",
      "outputs": [],
      "stateMutability": "nonpayable",
      "type": "function"
    }
  ],
  "bytecode": "0x608060405234801561001057600080fd5b5061076f806100206000396000f3fe608060405234801561001057600080fd5b50600436106100365760003560e01c80636a75b7861461003b57806384970d9e14610057575b600080fd5b6100556004803603810190610050919061046e565b610073565b005b610071600480360381019061006c919061046e565b6101ad565b005b8181600082905060008173ffffffffffffffffffffffffffffffffffffffff16633cc8f306846040518263ffffffff1660e01b81526004016100b591906104bd565b61010060405180830381865afa1580156100d3573d6000803e3d6000fd5b505050506040513d601f19601f820116820180604052508101906100f7919061065d565b600001511161010557600080fd5b600085905060008173ffffffffffffffffffffffffffffffffffffffff16633cc8f306876040518263ffffffff1660e01b815260040161014591906104bd565b61010060405180830381865afa158015610163573d6000803e3d6000fd5b505050506040513d601f19601f82011682018060405250810190610187919061065d565b6060015190506101a4828760018461019f91906106ba565b6102e7565b50505050505050565b8181600082905060008173ffffffffffffffffffffffffffffffffffffffff16633cc8f306846040518263ffffffff1660e01b81526004016101ef91906104bd565b61010060405180830381865afa15801561020d573d6000803e3d6000fd5b505050506040513d601f19601f82011682018060405250810190610231919061065d565b600001511161023f57600080fd5b600085905060008173ffffffffffffffffffffffffffffffffffffffff16633cc8f306876040518263ffffffff1660e01b815260040161027f91906104bd565b61010060405180830381865afa15801561029d573d6000803e3d6000fd5b505050506040513d601f19601f820116820180604052508101906102c1919061065d565b6040015190506102de82876001846102d991906106ba565b610359565b50505050505050565b8273ffffffffffffffffffffffffffffffffffffffff1663d8b2bb5183836040518363ffffffff1660e01b8152600401610322929190610710565b600060405180830381600087803b15801561033c57600080fd5b505af1158015610350573d6000803e3d6000fd5b50505050505050565b8273ffffffffffffffffffffffffffffffffffffffff1663d27cfb3483836040518363ffffffff1660e01b8152600401610394929190610710565b600060405180830381600087803b1580156103ae57600080fd5b505af11580156103c2573d6000803e3d6000fd5b50505050505050565b6000604051905090565b600080fd5b600073ffffffffffffffffffffffffffffffffffffffff82169050919050565b6000610405826103da565b9050919050565b610415816103fa565b811461042057600080fd5b50565b6000813590506104328161040c565b92915050565b6000819050919050565b61044b81610438565b811461045657600080fd5b50565b60008135905061046881610442565b92915050565b60008060408385031215610485576104846103d5565b5b600061049385828601610423565b92505060206104a485828601610459565b9150509250929050565b6104b781610438565b82525050565b60006020820190506104d260008301846104ae565b92915050565b600080fd5b6000601f19601f8301169050919050565b7f4e487b7100000000000000000000000000000000000000000000000000000000600052604160045260246000fd5b610526826104dd565b810181811067ffffffffffffffff82111715610545576105446104ee565b5b80604052505050565b60006105586103cb565b9050610564828261051d565b919050565b60008151905061057881610442565b92915050565b60008151905061058d8161040c565b92915050565b600061010082840312156105aa576105a96104d8565b5b6105b561010061054e565b905060006105c584828501610569565b60008301525060206105d98482850161057e565b60208301525060406105ed84828501610569565b604083015250606061060184828501610569565b606083015250608061061584828501610569565b60808301525060a061062984828501610569565b60a08301525060c061063d84828501610569565b60c08301525060e061065184828501610569565b60e08301525092915050565b60006101008284031215610674576106736103d5565b5b600061068284828501610593565b91505092915050565b7f4e487b7100000000000000000000000000000000000000000000000000000000600052601160045260246000fd5b60006106c582610438565b91506106d083610438565b9250827fffffffffffffffffffffffffffffffffffffffffffffffffffffffffffffffff038211156107055761070461068b565b5b828201905092915050565b600060408201905061072560008301856104ae565b61073260208301846104ae565b939250505056fea26469706673582212206b696b77e9b27f450e59981dd880e5e720997d5e63c2d4784ad9942acbb2edd164736f6c634300080b0033",
  "immutableReferences": {},
  "source": "// SPDX-License-Identifier: MIT\n\npragma solidity ^0.8.0;\n\nimport \"./MinerMinter.sol\";\n\ncontract MinerUpgrader {\n\n    modifier minerExists(address _addr, uint256 _minerId) {\n        MinerMinter mm = MinerMinter(_addr);\n        require(mm.getMiner(_minerId).minerId > 0);\n        _;\n    }\n\n    function upgradeMiningLevel(address _addr, uint256 _minerId) public minerExists(_addr, _minerId) {\n        MinerMinter mm = MinerMinter(_addr);\n        uint256 currentLevel = mm.getMiner(_minerId).miningLevel;\n        setMiningLevel(mm, _minerId, currentLevel + 1);\n        // upgrade mining power\n    }\n\n    function upgradeCapacityLevel(address _addr, uint256 _minerId) public minerExists(_addr, _minerId) {\n        MinerMinter mm = MinerMinter(_addr);\n        uint256 currentLevel = mm.getMiner(_minerId).capacityLevel;\n        setCapacityLevel(mm, _minerId, currentLevel + 1);\n        // upgrade coal, iron, silver capacity\n    }\n\n\n    function setMiningLevel(MinerMinter mm, uint256 _minerId, uint256 level) private {\n        mm.setMiningLevel(_minerId, level);\n    }\n\n    function setCapacityLevel(MinerMinter mm, uint256 _minerId, uint256 level) private {\n        mm.setCapacityLevel(_minerId, level);\n    }\n}",
  "sourcePath": "/Users/aslan/Desktop/DeMiner/contracts/MinerUpgrader.sol",
  "compiler": {
    "name": "solc",
    "version": "0.8.11+commit.d7f03943.Emscripten.clang"
  },
  "schemaVersion": "3.4.3",
  "updatedAt": "2022-04-10T11:22:32.383Z",
  "devdoc": {
    "kind": "dev",
    "methods": {},
    "version": 1
  },
  "userdoc": {
    "kind": "user",
    "methods": {},
    "version": 1
  }
}