{
  "contractName": "MineEmpireDrill",
  "abi": [
    {
      "inputs": [],
      "stateMutability": "nonpayable",
      "type": "constructor"
    },
    {
      "anonymous": false,
      "inputs": [
        {
          "indexed": true,
          "internalType": "address",
          "name": "owner",
          "type": "address"
        },
        {
          "indexed": true,
          "internalType": "address",
          "name": "approved",
          "type": "address"
        },
        {
          "indexed": true,
          "internalType": "uint256",
          "name": "tokenId",
          "type": "uint256"
        }
      ],
      "name": "Approval",
      "type": "event"
    },
    {
      "anonymous": false,
      "inputs": [
        {
          "indexed": true,
          "internalType": "address",
          "name": "owner",
          "type": "address"
        },
        {
          "indexed": true,
          "internalType": "address",
          "name": "operator",
          "type": "address"
        },
        {
          "indexed": false,
          "internalType": "bool",
          "name": "approved",
          "type": "bool"
        }
      ],
      "name": "ApprovalForAll",
      "type": "event"
    },
    {
      "anonymous": false,
      "inputs": [
        {
          "indexed": false,
          "internalType": "uint256",
          "name": "_drillId",
          "type": "uint256"
        }
      ],
      "name": "LogCapacityLevelUpgraded",
      "type": "event"
    },
    {
      "anonymous": false,
      "inputs": [
        {
          "indexed": false,
          "internalType": "uint256",
          "name": "_drillId",
          "type": "uint256"
        }
      ],
      "name": "LogMiningLevelUpgraded",
      "type": "event"
    },
    {
      "anonymous": false,
      "inputs": [
        {
          "indexed": false,
          "internalType": "uint256",
          "name": "_drillId",
          "type": "uint256"
        }
      ],
      "name": "LogMint",
      "type": "event"
    },
    {
      "anonymous": false,
      "inputs": [
        {
          "indexed": false,
          "internalType": "uint256",
          "name": "_drillId",
          "type": "uint256"
        }
      ],
      "name": "LogNewDrillTypeAdded",
      "type": "event"
    },
    {
      "anonymous": false,
      "inputs": [
        {
          "indexed": false,
          "internalType": "address",
          "name": "_address",
          "type": "address"
        }
      ],
      "name": "LogNewResourceTracked",
      "type": "event"
    },
    {
      "anonymous": false,
      "inputs": [
        {
          "indexed": false,
          "internalType": "uint256",
          "name": "_drillId",
          "type": "uint256"
        }
      ],
      "name": "LogPromoMint",
      "type": "event"
    },
    {
      "anonymous": false,
      "inputs": [
        {
          "components": [
            {
              "internalType": "uint256",
              "name": "promoId",
              "type": "uint256"
            },
            {
              "internalType": "uint256",
              "name": "drillType",
              "type": "uint256"
            },
            {
              "internalType": "uint256",
              "name": "maxUnits",
              "type": "uint256"
            },
            {
              "internalType": "uint256",
              "name": "unitsSold",
              "type": "uint256"
            },
            {
              "internalType": "uint256",
              "name": "miningLevel",
              "type": "uint256"
            },
            {
              "internalType": "uint256",
              "name": "capacityLevel",
              "type": "uint256"
            },
            {
              "internalType": "uint256",
              "name": "mintPrice",
              "type": "uint256"
            }
          ],
          "indexed": false,
          "internalType": "struct MineEmpireDrill.Promotion",
          "name": "_promo",
          "type": "tuple"
        }
      ],
      "name": "LogPromotionAdded",
      "type": "event"
    },
    {
      "anonymous": false,
      "inputs": [
        {
          "indexed": true,
          "internalType": "address",
          "name": "from",
          "type": "address"
        },
        {
          "indexed": true,
          "internalType": "address",
          "name": "to",
          "type": "address"
        },
        {
          "indexed": true,
          "internalType": "uint256",
          "name": "tokenId",
          "type": "uint256"
        }
      ],
      "name": "Transfer",
      "type": "event"
    },
    {
      "inputs": [
        {
          "internalType": "address",
          "name": "to",
          "type": "address"
        },
        {
          "internalType": "uint256",
          "name": "tokenId",
          "type": "uint256"
        }
      ],
      "name": "approve",
      "outputs": [],
      "stateMutability": "nonpayable",
      "type": "function"
    },
    {
      "inputs": [
        {
          "internalType": "address",
          "name": "owner",
          "type": "address"
        }
      ],
      "name": "balanceOf",
      "outputs": [
        {
          "internalType": "uint256",
          "name": "",
          "type": "uint256"
        }
      ],
      "stateMutability": "view",
      "type": "function"
    },
    {
      "inputs": [],
      "name": "currentMintDrill",
      "outputs": [
        {
          "internalType": "uint256",
          "name": "",
          "type": "uint256"
        }
      ],
      "stateMutability": "view",
      "type": "function"
    },
    {
      "inputs": [],
      "name": "drillId",
      "outputs": [
        {
          "internalType": "uint256",
          "name": "",
          "type": "uint256"
        }
      ],
      "stateMutability": "view",
      "type": "function"
    },
    {
      "inputs": [
        {
          "internalType": "uint256",
          "name": "",
          "type": "uint256"
        }
      ],
      "name": "drillMap",
      "outputs": [
        {
          "internalType": "uint256",
          "name": "drillId",
          "type": "uint256"
        },
        {
          "internalType": "string",
          "name": "name",
          "type": "string"
        },
        {
          "internalType": "uint256",
          "name": "drillType",
          "type": "uint256"
        },
        {
          "internalType": "uint256",
          "name": "miningLevel",
          "type": "uint256"
        },
        {
          "internalType": "uint256",
          "name": "capacityLevel",
          "type": "uint256"
        }
      ],
      "stateMutability": "view",
      "type": "function"
    },
    {
      "inputs": [
        {
          "internalType": "uint256",
          "name": "tokenId",
          "type": "uint256"
        }
      ],
      "name": "getApproved",
      "outputs": [
        {
          "internalType": "address",
          "name": "",
          "type": "address"
        }
      ],
      "stateMutability": "view",
      "type": "function"
    },
    {
      "inputs": [
        {
          "internalType": "address",
          "name": "owner",
          "type": "address"
        },
        {
          "internalType": "address",
          "name": "operator",
          "type": "address"
        }
      ],
      "name": "isApprovedForAll",
      "outputs": [
        {
          "internalType": "bool",
          "name": "",
          "type": "bool"
        }
      ],
      "stateMutability": "view",
      "type": "function"
    },
    {
      "inputs": [],
      "name": "maxDrills",
      "outputs": [
        {
          "internalType": "uint256",
          "name": "",
          "type": "uint256"
        }
      ],
      "stateMutability": "view",
      "type": "function"
    },
    {
      "inputs": [],
      "name": "name",
      "outputs": [
        {
          "internalType": "string",
          "name": "",
          "type": "string"
        }
      ],
      "stateMutability": "view",
      "type": "function"
    },
    {
      "inputs": [],
      "name": "owner",
      "outputs": [
        {
          "internalType": "address",
          "name": "",
          "type": "address"
        }
      ],
      "stateMutability": "view",
      "type": "function"
    },
    {
      "inputs": [
        {
          "internalType": "uint256",
          "name": "tokenId",
          "type": "uint256"
        }
      ],
      "name": "ownerOf",
      "outputs": [
        {
          "internalType": "address",
          "name": "",
          "type": "address"
        }
      ],
      "stateMutability": "view",
      "type": "function"
    },
    {
      "inputs": [
        {
          "internalType": "uint256",
          "name": "",
          "type": "uint256"
        }
      ],
      "name": "promotions",
      "outputs": [
        {
          "internalType": "uint256",
          "name": "promoId",
          "type": "uint256"
        },
        {
          "internalType": "uint256",
          "name": "drillType",
          "type": "uint256"
        },
        {
          "internalType": "uint256",
          "name": "maxUnits",
          "type": "uint256"
        },
        {
          "internalType": "uint256",
          "name": "unitsSold",
          "type": "uint256"
        },
        {
          "internalType": "uint256",
          "name": "miningLevel",
          "type": "uint256"
        },
        {
          "internalType": "uint256",
          "name": "capacityLevel",
          "type": "uint256"
        },
        {
          "internalType": "uint256",
          "name": "mintPrice",
          "type": "uint256"
        }
      ],
      "stateMutability": "view",
      "type": "function"
    },
    {
      "inputs": [
        {
          "internalType": "address",
          "name": "from",
          "type": "address"
        },
        {
          "internalType": "address",
          "name": "to",
          "type": "address"
        },
        {
          "internalType": "uint256",
          "name": "tokenId",
          "type": "uint256"
        }
      ],
      "name": "safeTransferFrom",
      "outputs": [],
      "stateMutability": "nonpayable",
      "type": "function"
    },
    {
      "inputs": [
        {
          "internalType": "address",
          "name": "from",
          "type": "address"
        },
        {
          "internalType": "address",
          "name": "to",
          "type": "address"
        },
        {
          "internalType": "uint256",
          "name": "tokenId",
          "type": "uint256"
        },
        {
          "internalType": "bytes",
          "name": "_data",
          "type": "bytes"
        }
      ],
      "name": "safeTransferFrom",
      "outputs": [],
      "stateMutability": "nonpayable",
      "type": "function"
    },
    {
      "inputs": [
        {
          "internalType": "address",
          "name": "operator",
          "type": "address"
        },
        {
          "internalType": "bool",
          "name": "approved",
          "type": "bool"
        }
      ],
      "name": "setApprovalForAll",
      "outputs": [],
      "stateMutability": "nonpayable",
      "type": "function"
    },
    {
      "inputs": [
        {
          "internalType": "bytes4",
          "name": "interfaceId",
          "type": "bytes4"
        }
      ],
      "name": "supportsInterface",
      "outputs": [
        {
          "internalType": "bool",
          "name": "",
          "type": "bool"
        }
      ],
      "stateMutability": "view",
      "type": "function"
    },
    {
      "inputs": [],
      "name": "symbol",
      "outputs": [
        {
          "internalType": "string",
          "name": "",
          "type": "string"
        }
      ],
      "stateMutability": "view",
      "type": "function"
    },
    {
      "inputs": [
        {
          "internalType": "uint256",
          "name": "tokenId",
          "type": "uint256"
        }
      ],
      "name": "tokenURI",
      "outputs": [
        {
          "internalType": "string",
          "name": "",
          "type": "string"
        }
      ],
      "stateMutability": "view",
      "type": "function"
    },
    {
      "inputs": [
        {
          "internalType": "address",
          "name": "from",
          "type": "address"
        },
        {
          "internalType": "address",
          "name": "to",
          "type": "address"
        },
        {
          "internalType": "uint256",
          "name": "tokenId",
          "type": "uint256"
        }
      ],
      "name": "transferFrom",
      "outputs": [],
      "stateMutability": "nonpayable",
      "type": "function"
    },
    {
      "inputs": [
        {
          "internalType": "uint256",
          "name": "idx",
          "type": "uint256"
        }
      ],
      "name": "getResourceAtIndex",
      "outputs": [
        {
          "internalType": "contract IERC20",
          "name": "",
          "type": "address"
        }
      ],
      "stateMutability": "view",
      "type": "function"
    },
    {
      "inputs": [
        {
          "internalType": "uint256",
          "name": "_drillType",
          "type": "uint256"
        },
        {
          "internalType": "string",
          "name": "name",
          "type": "string"
        },
        {
          "internalType": "uint256",
          "name": "_mintPrice",
          "type": "uint256"
        },
        {
          "internalType": "uint256[]",
          "name": "miningPower",
          "type": "uint256[]"
        },
        {
          "internalType": "uint256[]",
          "name": "capacityAmount",
          "type": "uint256[]"
        },
        {
          "internalType": "uint256[][]",
          "name": "_miningLevelUpgradeRequirement",
          "type": "uint256[][]"
        },
        {
          "internalType": "uint256[][]",
          "name": "_capacityLevelUpgradeRequirement",
          "type": "uint256[][]"
        }
      ],
      "name": "addNewDrillType",
      "outputs": [],
      "stateMutability": "nonpayable",
      "type": "function"
    },
    {
      "inputs": [
        {
          "internalType": "contract IERC20",
          "name": "resource",
          "type": "address"
        }
      ],
      "name": "addNewTrackedResource",
      "outputs": [],
      "stateMutability": "nonpayable",
      "type": "function"
    },
    {
      "inputs": [
        {
          "internalType": "uint256",
          "name": "drillType",
          "type": "uint256"
        },
        {
          "internalType": "uint256",
          "name": "_price",
          "type": "uint256"
        }
      ],
      "name": "updateMintPrice",
      "outputs": [],
      "stateMutability": "nonpayable",
      "type": "function"
    },
    {
      "inputs": [
        {
          "internalType": "uint256",
          "name": "promoId",
          "type": "uint256"
        },
        {
          "internalType": "uint256",
          "name": "_drillType",
          "type": "uint256"
        },
        {
          "internalType": "uint256",
          "name": "_miningLeve",
          "type": "uint256"
        },
        {
          "internalType": "uint256",
          "name": "_capacityLevel",
          "type": "uint256"
        },
        {
          "internalType": "uint256",
          "name": "_maxUnits",
          "type": "uint256"
        },
        {
          "internalType": "uint256",
          "name": "_price",
          "type": "uint256"
        }
      ],
      "name": "createPromotion",
      "outputs": [],
      "stateMutability": "nonpayable",
      "type": "function"
    },
    {
      "inputs": [
        {
          "internalType": "uint256",
          "name": "_drillId",
          "type": "uint256"
        }
      ],
      "name": "getDrill",
      "outputs": [
        {
          "components": [
            {
              "internalType": "uint256",
              "name": "drillId",
              "type": "uint256"
            },
            {
              "internalType": "string",
              "name": "name",
              "type": "string"
            },
            {
              "internalType": "uint256",
              "name": "drillType",
              "type": "uint256"
            },
            {
              "internalType": "uint256",
              "name": "miningLevel",
              "type": "uint256"
            },
            {
              "internalType": "uint256",
              "name": "capacityLevel",
              "type": "uint256"
            }
          ],
          "internalType": "struct MineEmpireDrill.Drill",
          "name": "",
          "type": "tuple"
        }
      ],
      "stateMutability": "view",
      "type": "function"
    },
    {
      "inputs": [
        {
          "internalType": "uint256",
          "name": "drillType",
          "type": "uint256"
        }
      ],
      "name": "getMintPrice",
      "outputs": [
        {
          "internalType": "uint256",
          "name": "",
          "type": "uint256"
        }
      ],
      "stateMutability": "view",
      "type": "function"
    },
    {
      "inputs": [
        {
          "internalType": "uint256",
          "name": "_drillId",
          "type": "uint256"
        }
      ],
      "name": "getMiningLevelUpgradeRequirements",
      "outputs": [
        {
          "internalType": "uint256[]",
          "name": "",
          "type": "uint256[]"
        }
      ],
      "stateMutability": "view",
      "type": "function"
    },
    {
      "inputs": [
        {
          "internalType": "uint256",
          "name": "_drillId",
          "type": "uint256"
        }
      ],
      "name": "getCapacityLevelUpgradeRequirements",
      "outputs": [
        {
          "internalType": "uint256[]",
          "name": "",
          "type": "uint256[]"
        }
      ],
      "stateMutability": "view",
      "type": "function"
    },
    {
      "inputs": [
        {
          "internalType": "uint256",
          "name": "_drillId",
          "type": "uint256"
        }
      ],
      "name": "getDrillMiningPower",
      "outputs": [
        {
          "internalType": "uint256",
          "name": "",
          "type": "uint256"
        }
      ],
      "stateMutability": "view",
      "type": "function"
    },
    {
      "inputs": [
        {
          "internalType": "uint256",
          "name": "_drillId",
          "type": "uint256"
        }
      ],
      "name": "getDrillCapacity",
      "outputs": [
        {
          "internalType": "uint256",
          "name": "",
          "type": "uint256"
        }
      ],
      "stateMutability": "view",
      "type": "function"
    },
    {
      "inputs": [],
      "name": "mintDrill",
      "outputs": [],
      "stateMutability": "payable",
      "type": "function"
    },
    {
      "inputs": [
        {
          "internalType": "uint256",
          "name": "_promoId",
          "type": "uint256"
        }
      ],
      "name": "mintPromoDrill",
      "outputs": [],
      "stateMutability": "payable",
      "type": "function"
    },
    {
      "inputs": [
        {
          "internalType": "uint256",
          "name": "_drillId",
          "type": "uint256"
        }
      ],
      "name": "upgradeMiningLevel",
      "outputs": [],
      "stateMutability": "nonpayable",
      "type": "function"
    },
    {
      "inputs": [
        {
          "internalType": "uint256",
          "name": "_drillId",
          "type": "uint256"
        }
      ],
      "name": "upgradeCapacityLevel",
      "outputs": [],
      "stateMutability": "nonpayable",
      "type": "function"
    }
  ],
  "bytecode": "0x60806040526000600755600160085560646009556000600a553480156200002557600080fd5b506040518060400160405280601181526020017f4d696e6520456d70697265204472696c6c0000000000000000000000000000008152506040518060400160405280600581526020017f4452494c4c0000000000000000000000000000000000000000000000000000008152508160009080519060200190620000aa9291906200010d565b508060019080519060200190620000c39291906200010d565b50505033600660006101000a81548173ffffffffffffffffffffffffffffffffffffffff021916908373ffffffffffffffffffffffffffffffffffffffff16021790555062000222565b8280546200011b90620001ec565b90600052602060002090601f0160209004810192826200013f57600085556200018b565b82601f106200015a57805160ff19168380011785556200018b565b828001600101855582156200018b579182015b828111156200018a5782518255916020019190600101906200016d565b5b5090506200019a91906200019e565b5090565b5b80821115620001b95760008160009055506001016200019f565b5090565b7f4e487b7100000000000000000000000000000000000000000000000000000000600052602260045260246000fd5b600060028204905060018216806200020557607f821691505b602082108114156200021c576200021b620001bd565b5b50919050565b6155b580620002326000396000f3fe6080604052600436106101f95760003560e01c80638da5cb5b1161010d578063b6326c7e116100a0578063ca01bf781161006f578063ca01bf7814610765578063d85f98ef146107a2578063e9639ffc146107e3578063e985e9c514610820578063ec9ca2581461085d576101f9565b8063b6326c7e146106ad578063b88d4fde146106d6578063c04bef72146106ff578063c87b56dd14610728576101f9565b8063a22cb465116100dc578063a22cb465146105e1578063a28436821461060a578063a475949f14610647578063b141fe3714610684576101f9565b80638da5cb5b1461052357806395d89b411461054e578063999fcaa6146105795780639cb81689146105a4576101f9565b8063559e775b1161019057806367810dfe1161015f57806367810dfe146104125780636b434e331461045557806370a08231146104805780637fb8b440146104bd578063863d60c8146104e6576101f9565b8063559e775b1461035157806357d7ed131461038e5780635f992ccf146103aa5780636352211e146103d5576101f9565b8063095ea7b3116101cc578063095ea7b3146102cc57806323b872dd146102f5578063389968071461031e57806342842e0e14610328576101f9565b806301ffc9a7146101fe57806306fdde031461023b578063081812fc1461026657806308876d43146102a3575b600080fd5b34801561020a57600080fd5b50610225600480360381019061022091906135db565b610886565b6040516102329190613623565b60405180910390f35b34801561024757600080fd5b50610250610968565b60405161025d91906136d7565b60405180910390f35b34801561027257600080fd5b5061028d6004803603810190610288919061372f565b6109fa565b60405161029a919061379d565b60405180910390f35b3480156102af57600080fd5b506102ca60048036038101906102c591906137f6565b610a7f565b005b3480156102d857600080fd5b506102f360048036038101906102ee919061384f565b610bc6565b005b34801561030157600080fd5b5061031c6004803603810190610317919061388f565b610cde565b005b610326610d3e565b005b34801561033457600080fd5b5061034f600480360381019061034a919061388f565b610fc3565b005b34801561035d57600080fd5b506103786004803603810190610373919061372f565b610fe3565b60405161038591906138f1565b60405180910390f35b6103a860048036038101906103a3919061372f565b61104f565b005b3480156103b657600080fd5b506103bf611379565b6040516103cc91906138f1565b60405180910390f35b3480156103e157600080fd5b506103fc60048036038101906103f7919061372f565b61137f565b604051610409919061379d565b60405180910390f35b34801561041e57600080fd5b506104396004803603810190610434919061372f565b611431565b60405161044c979695949392919061390c565b60405180910390f35b34801561046157600080fd5b5061046a611473565b60405161047791906138f1565b60405180910390f35b34801561048c57600080fd5b506104a760048036038101906104a2919061397b565b611479565b6040516104b491906138f1565b60405180910390f35b3480156104c957600080fd5b506104e460048036038101906104df91906139a8565b611531565b005b3480156104f257600080fd5b5061050d6004803603810190610508919061372f565b611698565b60405161051a9190613a94565b60405180910390f35b34801561052f57600080fd5b506105386116e0565b604051610545919061379d565b60405180910390f35b34801561055a57600080fd5b50610563611706565b60405161057091906136d7565b60405180910390f35b34801561058557600080fd5b5061058e611798565b60405161059b91906138f1565b60405180910390f35b3480156105b057600080fd5b506105cb60048036038101906105c6919061372f565b61179e565b6040516105d891906138f1565b60405180910390f35b3480156105ed57600080fd5b5061060860048036038101906106039190613adb565b611844565b005b34801561061657600080fd5b50610631600480360381019061062c919061372f565b61185a565b60405161063e9190613bea565b60405180910390f35b34801561065357600080fd5b5061066e6004803603810190610669919061372f565b611941565b60405161067b91906138f1565b60405180910390f35b34801561069057600080fd5b506106ab60048036038101906106a69190613eea565b6119e7565b005b3480156106b957600080fd5b506106d460048036038101906106cf919061372f565b611cd8565b005b3480156106e257600080fd5b506106fd60048036038101906106f891906140b9565b611f73565b005b34801561070b57600080fd5b506107266004803603810190610721919061372f565b611fd5565b005b34801561073457600080fd5b5061074f600480360381019061074a919061372f565b612270565b60405161075c91906136d7565b60405180910390f35b34801561077157600080fd5b5061078c6004803603810190610787919061372f565b612317565b60405161079991906141eb565b60405180910390f35b3480156107ae57600080fd5b506107c960048036038101906107c4919061372f565b612427565b6040516107da95949392919061420d565b60405180910390f35b3480156107ef57600080fd5b5061080a6004803603810190610805919061372f565b6124e5565b60405161081791906141eb565b60405180910390f35b34801561082c57600080fd5b5061084760048036038101906108429190614267565b6125f5565b6040516108549190613623565b60405180910390f35b34801561086957600080fd5b50610884600480360381019061087f91906142a7565b612689565b005b60007f80ac58cd000000000000000000000000000000000000000000000000000000007bffffffffffffffffffffffffffffffffffffffffffffffffffffffff1916827bffffffffffffffffffffffffffffffffffffffffffffffffffffffff1916148061095157507f5b5e139f000000000000000000000000000000000000000000000000000000007bffffffffffffffffffffffffffffffffffffffffffffffffffffffff1916827bffffffffffffffffffffffffffffffffffffffffffffffffffffffff1916145b80610961575061096082612786565b5b9050919050565b60606000805461097790614316565b80601f01602080910402602001604051908101604052809291908181526020018280546109a390614316565b80156109f05780601f106109c5576101008083540402835291602001916109f0565b820191906000526020600020905b8154815290600101906020018083116109d357829003601f168201915b5050505050905090565b6000610a05826127f0565b610a44576040517f08c379a0000000000000000000000000000000000000000000000000000000008152600401610a3b906143ba565b60405180910390fd5b6004600083815260200190815260200160002060009054906101000a900473ffffffffffffffffffffffffffffffffffffffff169050919050565b33600660009054906101000a900473ffffffffffffffffffffffffffffffffffffffff1673ffffffffffffffffffffffffffffffffffffffff168173ffffffffffffffffffffffffffffffffffffffff1614610b10576040517f08c379a0000000000000000000000000000000000000000000000000000000008152600401610b0790614426565b60405180910390fd5b600b829080600181540180825580915050600190039060005260206000200160009091909190916101000a81548173ffffffffffffffffffffffffffffffffffffffff021916908373ffffffffffffffffffffffffffffffffffffffff1602179055507f6c0d84880fe2de203b8d9b88ff02664e6d55009c80346d02f360ee74a38852f682604051610ba2919061379d565b60405180910390a1600c6000815480929190610bbd90614475565b91905055505050565b6000610bd18261137f565b90508073ffffffffffffffffffffffffffffffffffffffff168373ffffffffffffffffffffffffffffffffffffffff161415610c42576040517f08c379a0000000000000000000000000000000000000000000000000000000008152600401610c3990614530565b60405180910390fd5b8073ffffffffffffffffffffffffffffffffffffffff16610c6161285c565b73ffffffffffffffffffffffffffffffffffffffff161480610c905750610c8f81610c8a61285c565b6125f5565b5b610ccf576040517f08c379a0000000000000000000000000000000000000000000000000000000008152600401610cc6906145c2565b60405180910390fd5b610cd98383612864565b505050565b610cef610ce961285c565b8261291d565b610d2e576040517f08c379a0000000000000000000000000000000000000000000000000000000008152600401610d2590614654565b60405180910390fd5b610d398383836129fb565b505050565b60095460085410610d84576040517f08c379a0000000000000000000000000000000000000000000000000000000008152600401610d7b906146c0565b60405180910390fd5b600a5460075410610dca576040517f08c379a0000000000000000000000000000000000000000000000000000000008152600401610dc190614752565b60405180910390fd5b601260075481548110610de057610ddf614772565b5b90600052602060002001543414610e2c576040517f08c379a0000000000000000000000000000000000000000000000000000000008152600401610e2390614813565b60405180910390fd5b60006040518060a001604052806008548152602001601160075481548110610e5757610e56614772565b5b906000526020600020018054610e6c90614316565b80601f0160208091040260200160405190810160405280929190818152602001828054610e9890614316565b8015610ee55780601f10610eba57610100808354040283529160200191610ee5565b820191906000526020600020905b815481529060010190602001808311610ec857829003601f168201915b505050505081526020016007548152602001600181526020016001815250905080601360006008548152602001908152602001600020600082015181600001556020820151816001019080519060200190610f419291906133ab565b50604082015181600201556060820151816003015560808201518160040155905050610f6f33600854612c62565b7f0498f141021087adeadd3da265ebdbfd15a902d680b2036004bdfee5e8d760e5600854604051610fa091906138f1565b60405180910390a160086000815480929190610fbb90614475565b919050555050565b610fde83838360405180602001604052806000815250611f73565b505050565b6000600a548210611029576040517f08c379a00000000000000000000000000000000000000000000000000000000081526004016110209061487f565b60405180910390fd5b6012828154811061103d5761103c614772565b5b90600052602060002001549050919050565b6000601460008381526020019081526020016000206040518060e0016040529081600082015481526020016001820154815260200160028201548152602001600382015481526020016004820154815260200160058201548152602001600682015481525050905060008160400151116110fe576040517f08c379a00000000000000000000000000000000000000000000000000000000081526004016110f5906148eb565b60405180910390fd5b8060400151816060015110611148576040517f08c379a000000000000000000000000000000000000000000000000000000000815260040161113f9061497d565b60405180910390fd5b8060c00151341461118e576040517f08c379a000000000000000000000000000000000000000000000000000000000815260040161118590614a0f565b60405180910390fd5b600a548160200151106111d6576040517f08c379a00000000000000000000000000000000000000000000000000000000081526004016111cd90614aa1565b60405180910390fd5b60006040518060a001604052806008548152602001601184602001518154811061120357611202614772565b5b90600052602060002001805461121890614316565b80601f016020809104026020016040519081016040528092919081815260200182805461124490614316565b80156112915780601f1061126657610100808354040283529160200191611291565b820191906000526020600020905b81548152906001019060200180831161127457829003601f168201915b5050505050815260200183602001518152602001836080015181526020018360a001518152509050806013600060085481526020019081526020016000206000820151816000015560208201518160010190805190602001906112f59291906133ab565b5060408201518160020155606082015181600301556080820151816004015590505061132333600854612c62565b7f3d948235511e496bec121c6c3ff8f9241395db859610484b5ad494ca65edb2a260085460405161135491906138f1565b60405180910390a16008600081548092919061136f90614475565b9190505550505050565b60085481565b6000806002600084815260200190815260200160002060009054906101000a900473ffffffffffffffffffffffffffffffffffffffff169050600073ffffffffffffffffffffffffffffffffffffffff168173ffffffffffffffffffffffffffffffffffffffff161415611428576040517f08c379a000000000000000000000000000000000000000000000000000000000815260040161141f90614b33565b60405180910390fd5b80915050919050565b60146020528060005260406000206000915090508060000154908060010154908060020154908060030154908060040154908060050154908060060154905087565b60075481565b60008073ffffffffffffffffffffffffffffffffffffffff168273ffffffffffffffffffffffffffffffffffffffff1614156114ea576040517f08c379a00000000000000000000000000000000000000000000000000000000081526004016114e190614bc5565b60405180910390fd5b600360008373ffffffffffffffffffffffffffffffffffffffff1673ffffffffffffffffffffffffffffffffffffffff168152602001908152602001600020549050919050565b33600660009054906101000a900473ffffffffffffffffffffffffffffffffffffffff1673ffffffffffffffffffffffffffffffffffffffff168173ffffffffffffffffffffffffffffffffffffffff16146115c2576040517f08c379a00000000000000000000000000000000000000000000000000000000081526004016115b990614426565b60405180910390fd5b60006040518060e001604052808981526020018881526020018581526020016000815260200187815260200186815260200184815250905080601460008a8152602001908152602001600020600082015181600001556020820151816001015560408201518160020155606082015181600301556080820151816004015560a0820151816005015560c082015181600601559050507ff0c588de08797d7981d8655368310686f2b9d85c1e85147f955aaa08b6d975ca816040516116869190614c73565b60405180910390a15050505050505050565b6000600b82815481106116ae576116ad614772565b5b9060005260206000200160009054906101000a900473ffffffffffffffffffffffffffffffffffffffff169050919050565b600660009054906101000a900473ffffffffffffffffffffffffffffffffffffffff1681565b60606001805461171590614316565b80601f016020809104026020016040519081016040528092919081815260200182805461174190614316565b801561178e5780601f106117635761010080835404028352916020019161178e565b820191906000526020600020905b81548152906001019060200180831161177157829003601f168201915b5050505050905090565b60095481565b60008160085481106117e5576040517f08c379a00000000000000000000000000000000000000000000000000000000081526004016117dc90614cda565b60405180910390fd5b600060136000858152602001908152602001600020600201549050600e818154811061181457611813614772565b5b9060005260206000200184815481106118305761182f614772565b5b906000526020600020015492505050919050565b61185661184f61285c565b8383612c80565b5050565b611862613431565b601360008381526020019081526020016000206040518060a00160405290816000820154815260200160018201805461189a90614316565b80601f01602080910402602001604051908101604052809291908181526020018280546118c690614316565b80156119135780601f106118e857610100808354040283529160200191611913565b820191906000526020600020905b8154815290600101906020018083116118f657829003601f168201915b5050505050815260200160028201548152602001600382015481526020016004820154815250509050919050565b6000816008548110611988576040517f08c379a000000000000000000000000000000000000000000000000000000000815260040161197f90614cda565b60405180910390fd5b600060136000858152602001908152602001600020600201549050600d81815481106119b7576119b6614772565b5b9060005260206000200184815481106119d3576119d2614772565b5b906000526020600020015492505050919050565b33600660009054906101000a900473ffffffffffffffffffffffffffffffffffffffff1673ffffffffffffffffffffffffffffffffffffffff168173ffffffffffffffffffffffffffffffffffffffff1614611a78576040517f08c379a0000000000000000000000000000000000000000000000000000000008152600401611a6f90614426565b60405180910390fd5b600a54881115611abd576040517f08c379a0000000000000000000000000000000000000000000000000000000008152600401611ab490614d6c565b60405180910390fd5b600a548814611b2857600060128981548110611adc57611adb614772565b5b906000526020600020015414611b27576040517f08c379a0000000000000000000000000000000000000000000000000000000008152600401611b1e90614dfe565b60405180910390fd5b5b601187908060018154018082558091505060019003906000526020600020016000909190919091509080519060200190611b639291906133ab565b506012869080600181540180825580915050600190039060005260206000200160009091909190915055600d85908060018154018082558091505060019003906000526020600020016000909190919091509080519060200190611bc8929190613460565b50600e84908060018154018082558091505060019003906000526020600020016000909190919091509080519060200190611c04929190613460565b50600f83908060018154018082558091505060019003906000526020600020016000909190919091509080519060200190611c409291906134ad565b50601082908060018154018082558091505060019003906000526020600020016000909190919091509080519060200190611c7c9291906134ad565b507f06bf811ba2677afceaeb7d097662b43361171329e1fc994c8f303b556242ef1d600a54604051611cae91906138f1565b60405180910390a1600a6000815480929190611cc990614475565b91905055505050505050505050565b806008548110611d1d576040517f08c379a0000000000000000000000000000000000000000000000000000000008152600401611d1490614cda565b60405180910390fd5b3373ffffffffffffffffffffffffffffffffffffffff16611d3d8361137f565b73ffffffffffffffffffffffffffffffffffffffff1614611d93576040517f08c379a0000000000000000000000000000000000000000000000000000000008152600401611d8a90614e6a565b60405180910390fd5b60006013600084815260200190815260200160002060020154905060006013600085815260200190815260200160002060040154905060005b600c54811015611f0e57600060108481548110611dec57611deb614772565b5b906000526020600020018381548110611e0857611e07614772565b5b906000526020600020018281548110611e2457611e23614772565b5b906000526020600020015490506000811115611efa57600b8281548110611e4e57611e4d614772565b5b9060005260206000200160009054906101000a900473ffffffffffffffffffffffffffffffffffffffff1673ffffffffffffffffffffffffffffffffffffffff166323b872dd3330846040518463ffffffff1660e01b8152600401611eb593929190614e8a565b6020604051808303816000875af1158015611ed4573d6000803e3d6000fd5b505050506040513d601f19601f82011682018060405250810190611ef89190614ed6565b505b508080611f0690614475565b915050611dcc565b50600181611f1c9190614f03565b60136000868152602001908152602001600020600401819055507ffc1f8f51027f3976c2dee18ccf6da2d36419851c0de846a7607217ba3ec8037a84604051611f6591906138f1565b60405180910390a150505050565b611f84611f7e61285c565b8361291d565b611fc3576040517f08c379a0000000000000000000000000000000000000000000000000000000008152600401611fba90614654565b60405180910390fd5b611fcf84848484612ded565b50505050565b80600854811061201a576040517f08c379a000000000000000000000000000000000000000000000000000000000815260040161201190614cda565b60405180910390fd5b3373ffffffffffffffffffffffffffffffffffffffff1661203a8361137f565b73ffffffffffffffffffffffffffffffffffffffff1614612090576040517f08c379a000000000000000000000000000000000000000000000000000000000815260040161208790614e6a565b60405180910390fd5b60006013600084815260200190815260200160002060020154905060006013600085815260200190815260200160002060030154905060005b600c5481101561220b576000600f84815481106120e9576120e8614772565b5b90600052602060002001838154811061210557612104614772565b5b90600052602060002001828154811061212157612120614772565b5b9060005260206000200154905060008111156121f757600b828154811061214b5761214a614772565b5b9060005260206000200160009054906101000a900473ffffffffffffffffffffffffffffffffffffffff1673ffffffffffffffffffffffffffffffffffffffff166323b872dd3330846040518463ffffffff1660e01b81526004016121b293929190614e8a565b6020604051808303816000875af11580156121d1573d6000803e3d6000fd5b505050506040513d601f19601f820116820180604052508101906121f59190614ed6565b505b50808061220390614475565b9150506120c9565b506001816122199190614f03565b60136000868152602001908152602001600020600301819055507f9e0199358bf050cc5799ad6b10375d3f62bd4a21cf788283a51c70e1f2ce47d68460405161226291906138f1565b60405180910390a150505050565b606061227b826127f0565b6122ba576040517f08c379a00000000000000000000000000000000000000000000000000000000081526004016122b190614fcb565b60405180910390fd5b60006122c4612e49565b905060008151116122e4576040518060200160405280600081525061230f565b806122ee84612e60565b6040516020016122ff929190615027565b6040516020818303038152906040525b915050919050565b606081600854811061235e576040517f08c379a000000000000000000000000000000000000000000000000000000000815260040161235590614cda565b60405180910390fd5b600060136000858152602001908152602001600020600201549050600060136000868152602001908152602001600020600301549050600f82815481106123a8576123a7614772565b5b9060005260206000200181815481106123c4576123c3614772565b5b9060005260206000200180548060200260200160405190810160405280929190818152602001828054801561241857602002820191906000526020600020905b815481526020019060010190808311612404575b50505050509350505050919050565b601360205280600052604060002060009150905080600001549080600101805461245090614316565b80601f016020809104026020016040519081016040528092919081815260200182805461247c90614316565b80156124c95780601f1061249e576101008083540402835291602001916124c9565b820191906000526020600020905b8154815290600101906020018083116124ac57829003601f168201915b5050505050908060020154908060030154908060040154905085565b606081600854811061252c576040517f08c379a000000000000000000000000000000000000000000000000000000000815260040161252390614cda565b60405180910390fd5b6000601360008581526020019081526020016000206002015490506000601360008681526020019081526020016000206004015490506010828154811061257657612575614772565b5b90600052602060002001818154811061259257612591614772565b5b906000526020600020018054806020026020016040519081016040528092919081815260200182805480156125e657602002820191906000526020600020905b8154815260200190600101908083116125d2575b50505050509350505050919050565b6000600560008473ffffffffffffffffffffffffffffffffffffffff1673ffffffffffffffffffffffffffffffffffffffff16815260200190815260200160002060008373ffffffffffffffffffffffffffffffffffffffff1673ffffffffffffffffffffffffffffffffffffffff16815260200190815260200160002060009054906101000a900460ff16905092915050565b33600660009054906101000a900473ffffffffffffffffffffffffffffffffffffffff1673ffffffffffffffffffffffffffffffffffffffff168173ffffffffffffffffffffffffffffffffffffffff161461271a576040517f08c379a000000000000000000000000000000000000000000000000000000000815260040161271190614426565b60405180910390fd5b600a54831061275e576040517f08c379a00000000000000000000000000000000000000000000000000000000081526004016127559061487f565b60405180910390fd5b816012848154811061277357612772614772565b5b9060005260206000200181905550505050565b60007f01ffc9a7000000000000000000000000000000000000000000000000000000007bffffffffffffffffffffffffffffffffffffffffffffffffffffffff1916827bffffffffffffffffffffffffffffffffffffffffffffffffffffffff1916149050919050565b60008073ffffffffffffffffffffffffffffffffffffffff166002600084815260200190815260200160002060009054906101000a900473ffffffffffffffffffffffffffffffffffffffff1673ffffffffffffffffffffffffffffffffffffffff1614159050919050565b600033905090565b816004600083815260200190815260200160002060006101000a81548173ffffffffffffffffffffffffffffffffffffffff021916908373ffffffffffffffffffffffffffffffffffffffff160217905550808273ffffffffffffffffffffffffffffffffffffffff166128d78361137f565b73ffffffffffffffffffffffffffffffffffffffff167f8c5be1e5ebec7d5bd14f71427d1e84f3dd0314c0f7b2291e5b200ac8c7c3b92560405160405180910390a45050565b6000612928826127f0565b612967576040517f08c379a000000000000000000000000000000000000000000000000000000000815260040161295e906150bd565b60405180910390fd5b60006129728361137f565b90508073ffffffffffffffffffffffffffffffffffffffff168473ffffffffffffffffffffffffffffffffffffffff1614806129e157508373ffffffffffffffffffffffffffffffffffffffff166129c9846109fa565b73ffffffffffffffffffffffffffffffffffffffff16145b806129f257506129f181856125f5565b5b91505092915050565b8273ffffffffffffffffffffffffffffffffffffffff16612a1b8261137f565b73ffffffffffffffffffffffffffffffffffffffff1614612a71576040517f08c379a0000000000000000000000000000000000000000000000000000000008152600401612a689061514f565b60405180910390fd5b600073ffffffffffffffffffffffffffffffffffffffff168273ffffffffffffffffffffffffffffffffffffffff161415612ae1576040517f08c379a0000000000000000000000000000000000000000000000000000000008152600401612ad8906151e1565b60405180910390fd5b612aec838383612fc1565b612af7600082612864565b6001600360008573ffffffffffffffffffffffffffffffffffffffff1673ffffffffffffffffffffffffffffffffffffffff1681526020019081526020016000206000828254612b479190615201565b925050819055506001600360008473ffffffffffffffffffffffffffffffffffffffff1673ffffffffffffffffffffffffffffffffffffffff1681526020019081526020016000206000828254612b9e9190614f03565b92505081905550816002600083815260200190815260200160002060006101000a81548173ffffffffffffffffffffffffffffffffffffffff021916908373ffffffffffffffffffffffffffffffffffffffff160217905550808273ffffffffffffffffffffffffffffffffffffffff168473ffffffffffffffffffffffffffffffffffffffff167fddf252ad1be2c89b69c2b068fc378daa952ba7f163c4a11628f55a4df523b3ef60405160405180910390a4612c5d838383612fc6565b505050565b612c7c828260405180602001604052806000815250612fcb565b5050565b8173ffffffffffffffffffffffffffffffffffffffff168373ffffffffffffffffffffffffffffffffffffffff161415612cef576040517f08c379a0000000000000000000000000000000000000000000000000000000008152600401612ce690615281565b60405180910390fd5b80600560008573ffffffffffffffffffffffffffffffffffffffff1673ffffffffffffffffffffffffffffffffffffffff16815260200190815260200160002060008473ffffffffffffffffffffffffffffffffffffffff1673ffffffffffffffffffffffffffffffffffffffff16815260200190815260200160002060006101000a81548160ff0219169083151502179055508173ffffffffffffffffffffffffffffffffffffffff168373ffffffffffffffffffffffffffffffffffffffff167f17307eab39ab6107e8899845ad3d59bd9653f200f220920489ca2b5937696c3183604051612de09190613623565b60405180910390a3505050565b612df88484846129fb565b612e0484848484613026565b612e43576040517f08c379a0000000000000000000000000000000000000000000000000000000008152600401612e3a90615313565b60405180910390fd5b50505050565b606060405180602001604052806000815250905090565b60606000821415612ea8576040518060400160405280600181526020017f30000000000000000000000000000000000000000000000000000000000000008152509050612fbc565b600082905060005b60008214612eda578080612ec390614475565b915050600a82612ed39190615362565b9150612eb0565b60008167ffffffffffffffff811115612ef657612ef5613c16565b5b6040519080825280601f01601f191660200182016040528015612f285781602001600182028036833780820191505090505b5090505b60008514612fb557600182612f419190615201565b9150600a85612f509190615393565b6030612f5c9190614f03565b60f81b818381518110612f7257612f71614772565b5b60200101907effffffffffffffffffffffffffffffffffffffffffffffffffffffffffffff1916908160001a905350600a85612fae9190615362565b9450612f2c565b8093505050505b919050565b505050565b505050565b612fd583836131ae565b612fe26000848484613026565b613021576040517f08c379a000000000000000000000000000000000000000000000000000000000815260040161301890615313565b60405180910390fd5b505050565b60006130478473ffffffffffffffffffffffffffffffffffffffff16613388565b156131a1578373ffffffffffffffffffffffffffffffffffffffff1663150b7a0261307061285c565b8786866040518563ffffffff1660e01b81526004016130929493929190615419565b6020604051808303816000875af19250505080156130ce57506040513d601f19601f820116820180604052508101906130cb919061547a565b60015b613151573d80600081146130fe576040519150601f19603f3d011682016040523d82523d6000602084013e613103565b606091505b50600081511415613149576040517f08c379a000000000000000000000000000000000000000000000000000000000815260040161314090615313565b60405180910390fd5b805181602001fd5b63150b7a0260e01b7bffffffffffffffffffffffffffffffffffffffffffffffffffffffff1916817bffffffffffffffffffffffffffffffffffffffffffffffffffffffff1916149150506131a6565b600190505b949350505050565b600073ffffffffffffffffffffffffffffffffffffffff168273ffffffffffffffffffffffffffffffffffffffff16141561321e576040517f08c379a0000000000000000000000000000000000000000000000000000000008152600401613215906154f3565b60405180910390fd5b613227816127f0565b15613267576040517f08c379a000000000000000000000000000000000000000000000000000000000815260040161325e9061555f565b60405180910390fd5b61327360008383612fc1565b6001600360008473ffffffffffffffffffffffffffffffffffffffff1673ffffffffffffffffffffffffffffffffffffffff16815260200190815260200160002060008282546132c39190614f03565b92505081905550816002600083815260200190815260200160002060006101000a81548173ffffffffffffffffffffffffffffffffffffffff021916908373ffffffffffffffffffffffffffffffffffffffff160217905550808273ffffffffffffffffffffffffffffffffffffffff16600073ffffffffffffffffffffffffffffffffffffffff167fddf252ad1be2c89b69c2b068fc378daa952ba7f163c4a11628f55a4df523b3ef60405160405180910390a461338460008383612fc6565b5050565b6000808273ffffffffffffffffffffffffffffffffffffffff163b119050919050565b8280546133b790614316565b90600052602060002090601f0160209004810192826133d95760008555613420565b82601f106133f257805160ff1916838001178555613420565b82800160010185558215613420579182015b8281111561341f578251825591602001919060010190613404565b5b50905061342d919061350d565b5090565b6040518060a0016040528060008152602001606081526020016000815260200160008152602001600081525090565b82805482825590600052602060002090810192821561349c579160200282015b8281111561349b578251825591602001919060010190613480565b5b5090506134a9919061350d565b5090565b8280548282559060005260206000209081019282156134fc579160200282015b828111156134fb5782518290805190602001906134eb929190613460565b50916020019190600101906134cd565b5b509050613509919061352a565b5090565b5b8082111561352657600081600090555060010161350e565b5090565b5b8082111561354a5760008181613541919061354e565b5060010161352b565b5090565b508054600082559060005260206000209081019061356c919061350d565b50565b6000604051905090565b600080fd5b600080fd5b60007fffffffff0000000000000000000000000000000000000000000000000000000082169050919050565b6135b881613583565b81146135c357600080fd5b50565b6000813590506135d5816135af565b92915050565b6000602082840312156135f1576135f0613579565b5b60006135ff848285016135c6565b91505092915050565b60008115159050919050565b61361d81613608565b82525050565b60006020820190506136386000830184613614565b92915050565b600081519050919050565b600082825260208201905092915050565b60005b8381101561367857808201518184015260208101905061365d565b83811115613687576000848401525b50505050565b6000601f19601f8301169050919050565b60006136a98261363e565b6136b38185613649565b93506136c381856020860161365a565b6136cc8161368d565b840191505092915050565b600060208201905081810360008301526136f1818461369e565b905092915050565b6000819050919050565b61370c816136f9565b811461371757600080fd5b50565b60008135905061372981613703565b92915050565b60006020828403121561374557613744613579565b5b60006137538482850161371a565b91505092915050565b600073ffffffffffffffffffffffffffffffffffffffff82169050919050565b60006137878261375c565b9050919050565b6137978161377c565b82525050565b60006020820190506137b2600083018461378e565b92915050565b60006137c38261377c565b9050919050565b6137d3816137b8565b81146137de57600080fd5b50565b6000813590506137f0816137ca565b92915050565b60006020828403121561380c5761380b613579565b5b600061381a848285016137e1565b91505092915050565b61382c8161377c565b811461383757600080fd5b50565b60008135905061384981613823565b92915050565b6000806040838503121561386657613865613579565b5b60006138748582860161383a565b92505060206138858582860161371a565b9150509250929050565b6000806000606084860312156138a8576138a7613579565b5b60006138b68682870161383a565b93505060206138c78682870161383a565b92505060406138d88682870161371a565b9150509250925092565b6138eb816136f9565b82525050565b600060208201905061390660008301846138e2565b92915050565b600060e082019050613921600083018a6138e2565b61392e60208301896138e2565b61393b60408301886138e2565b61394860608301876138e2565b61395560808301866138e2565b61396260a08301856138e2565b61396f60c08301846138e2565b98975050505050505050565b60006020828403121561399157613990613579565b5b600061399f8482850161383a565b91505092915050565b60008060008060008060c087890312156139c5576139c4613579565b5b60006139d389828a0161371a565b96505060206139e489828a0161371a565b95505060406139f589828a0161371a565b9450506060613a0689828a0161371a565b9350506080613a1789828a0161371a565b92505060a0613a2889828a0161371a565b9150509295509295509295565b6000819050919050565b6000613a5a613a55613a508461375c565b613a35565b61375c565b9050919050565b6000613a6c82613a3f565b9050919050565b6000613a7e82613a61565b9050919050565b613a8e81613a73565b82525050565b6000602082019050613aa96000830184613a85565b92915050565b613ab881613608565b8114613ac357600080fd5b50565b600081359050613ad581613aaf565b92915050565b60008060408385031215613af257613af1613579565b5b6000613b008582860161383a565b9250506020613b1185828601613ac6565b9150509250929050565b613b24816136f9565b82525050565b600082825260208201905092915050565b6000613b468261363e565b613b508185613b2a565b9350613b6081856020860161365a565b613b698161368d565b840191505092915050565b600060a083016000830151613b8c6000860182613b1b565b5060208301518482036020860152613ba48282613b3b565b9150506040830151613bb96040860182613b1b565b506060830151613bcc6060860182613b1b565b506080830151613bdf6080860182613b1b565b508091505092915050565b60006020820190508181036000830152613c048184613b74565b905092915050565b600080fd5b600080fd5b7f4e487b7100000000000000000000000000000000000000000000000000000000600052604160045260246000fd5b613c4e8261368d565b810181811067ffffffffffffffff82111715613c6d57613c6c613c16565b5b80604052505050565b6000613c8061356f565b9050613c8c8282613c45565b919050565b600067ffffffffffffffff821115613cac57613cab613c16565b5b613cb58261368d565b9050602081019050919050565b82818337600083830152505050565b6000613ce4613cdf84613c91565b613c76565b905082815260208101848484011115613d0057613cff613c11565b5b613d0b848285613cc2565b509392505050565b600082601f830112613d2857613d27613c0c565b5b8135613d38848260208601613cd1565b91505092915050565b600067ffffffffffffffff821115613d5c57613d5b613c16565b5b602082029050602081019050919050565b600080fd5b6000613d85613d8084613d41565b613c76565b90508083825260208201905060208402830185811115613da857613da7613d6d565b5b835b81811015613dd15780613dbd888261371a565b845260208401935050602081019050613daa565b5050509392505050565b600082601f830112613df057613def613c0c565b5b8135613e00848260208601613d72565b91505092915050565b600067ffffffffffffffff821115613e2457613e23613c16565b5b602082029050602081019050919050565b6000613e48613e4384613e09565b613c76565b90508083825260208201905060208402830185811115613e6b57613e6a613d6d565b5b835b81811015613eb257803567ffffffffffffffff811115613e9057613e8f613c0c565b5b808601613e9d8982613ddb565b85526020850194505050602081019050613e6d565b5050509392505050565b600082601f830112613ed157613ed0613c0c565b5b8135613ee1848260208601613e35565b91505092915050565b600080600080600080600060e0888a031215613f0957613f08613579565b5b6000613f178a828b0161371a565b975050602088013567ffffffffffffffff811115613f3857613f3761357e565b5b613f448a828b01613d13565b9650506040613f558a828b0161371a565b955050606088013567ffffffffffffffff811115613f7657613f7561357e565b5b613f828a828b01613ddb565b945050608088013567ffffffffffffffff811115613fa357613fa261357e565b5b613faf8a828b01613ddb565b93505060a088013567ffffffffffffffff811115613fd057613fcf61357e565b5b613fdc8a828b01613ebc565b92505060c088013567ffffffffffffffff811115613ffd57613ffc61357e565b5b6140098a828b01613ebc565b91505092959891949750929550565b600067ffffffffffffffff82111561403357614032613c16565b5b61403c8261368d565b9050602081019050919050565b600061405c61405784614018565b613c76565b90508281526020810184848401111561407857614077613c11565b5b614083848285613cc2565b509392505050565b600082601f8301126140a05761409f613c0c565b5b81356140b0848260208601614049565b91505092915050565b600080600080608085870312156140d3576140d2613579565b5b60006140e18782880161383a565b94505060206140f28782880161383a565b93505060406141038782880161371a565b925050606085013567ffffffffffffffff8111156141245761412361357e565b5b6141308782880161408b565b91505092959194509250565b600081519050919050565b600082825260208201905092915050565b6000819050602082019050919050565b60006141748383613b1b565b60208301905092915050565b6000602082019050919050565b60006141988261413c565b6141a28185614147565b93506141ad83614158565b8060005b838110156141de5781516141c58882614168565b97506141d083614180565b9250506001810190506141b1565b5085935050505092915050565b60006020820190508181036000830152614205818461418d565b905092915050565b600060a08201905061422260008301886138e2565b8181036020830152614234818761369e565b905061424360408301866138e2565b61425060608301856138e2565b61425d60808301846138e2565b9695505050505050565b6000806040838503121561427e5761427d613579565b5b600061428c8582860161383a565b925050602061429d8582860161383a565b9150509250929050565b600080604083850312156142be576142bd613579565b5b60006142cc8582860161371a565b92505060206142dd8582860161371a565b9150509250929050565b7f4e487b7100000000000000000000000000000000000000000000000000000000600052602260045260246000fd5b6000600282049050600182168061432e57607f821691505b60208210811415614342576143416142e7565b5b50919050565b7f4552433732313a20617070726f76656420717565727920666f72206e6f6e657860008201527f697374656e7420746f6b656e0000000000000000000000000000000000000000602082015250565b60006143a4602c83613649565b91506143af82614348565b604082019050919050565b600060208201905081810360008301526143d381614397565b9050919050565b7f6e6f74206f776e65720000000000000000000000000000000000000000000000600082015250565b6000614410600983613649565b915061441b826143da565b602082019050919050565b6000602082019050818103600083015261443f81614403565b9050919050565b7f4e487b7100000000000000000000000000000000000000000000000000000000600052601160045260246000fd5b6000614480826136f9565b91507fffffffffffffffffffffffffffffffffffffffffffffffffffffffffffffffff8214156144b3576144b2614446565b5b600182019050919050565b7f4552433732313a20617070726f76616c20746f2063757272656e74206f776e6560008201527f7200000000000000000000000000000000000000000000000000000000000000602082015250565b600061451a602183613649565b9150614525826144be565b604082019050919050565b600060208201905081810360008301526145498161450d565b9050919050565b7f4552433732313a20617070726f76652063616c6c6572206973206e6f74206f7760008201527f6e6572206e6f7220617070726f76656420666f7220616c6c0000000000000000602082015250565b60006145ac603883613649565b91506145b782614550565b604082019050919050565b600060208201905081810360008301526145db8161459f565b9050919050565b7f4552433732313a207472616e736665722063616c6c6572206973206e6f74206f60008201527f776e6572206e6f7220617070726f766564000000000000000000000000000000602082015250565b600061463e603183613649565b9150614649826145e2565b604082019050919050565b6000602082019050818103600083015261466d81614631565b9050919050565b7f6d696e74206e6f7420617661696c61626c650000000000000000000000000000600082015250565b60006146aa601283613649565b91506146b582614674565b602082019050919050565b600060208201905081810360008301526146d98161469d565b9050919050565b7f6472696c6c20796f752061726520747279696e6720746f206d696e742069732060008201527f6e6f742063726561746564000000000000000000000000000000000000000000602082015250565b600061473c602b83613649565b9150614747826146e0565b604082019050919050565b6000602082019050818103600083015261476b8161472f565b9050919050565b7f4e487b7100000000000000000000000000000000000000000000000000000000600052603260045260246000fd5b7f70617920616d6f756e7420646f65736e2774206d61746368206d696e7420707260008201527f6963650000000000000000000000000000000000000000000000000000000000602082015250565b60006147fd602383613649565b9150614808826147a1565b604082019050919050565b6000602082019050818103600083015261482c816147f0565b9050919050565b7f6472696c6c207479706520646f65736e27742065786973740000000000000000600082015250565b6000614869601883613649565b915061487482614833565b602082019050919050565b600060208201905081810360008301526148988161485c565b9050919050565b7f70726f6d6f74696f6e20646f6573206e6f742065786973740000000000000000600082015250565b60006148d5601883613649565b91506148e08261489f565b602082019050919050565b60006020820190508181036000830152614904816148c8565b9050919050565b7f6e6f20756e69747320617661696c61626c6520666f7220746869732070726f6d60008201527f6f74696f6e000000000000000000000000000000000000000000000000000000602082015250565b6000614967602583613649565b91506149728261490b565b604082019050919050565b600060208201905081810360008301526149968161495a565b9050919050565b7f7061796d656e7420646f65736e2774206d617463682070726f6d6f206d696e7460008201527f2070726963650000000000000000000000000000000000000000000000000000602082015250565b60006149f9602683613649565b9150614a048261499d565b604082019050919050565b60006020820190508181036000830152614a28816149ec565b9050919050565b7f6472696c6c2074797065206861736e2774206265656e20636f6e66696775726560008201527f6400000000000000000000000000000000000000000000000000000000000000602082015250565b6000614a8b602183613649565b9150614a9682614a2f565b604082019050919050565b60006020820190508181036000830152614aba81614a7e565b9050919050565b7f4552433732313a206f776e657220717565727920666f72206e6f6e657869737460008201527f656e7420746f6b656e0000000000000000000000000000000000000000000000602082015250565b6000614b1d602983613649565b9150614b2882614ac1565b604082019050919050565b60006020820190508181036000830152614b4c81614b10565b9050919050565b7f4552433732313a2062616c616e636520717565727920666f7220746865207a6560008201527f726f206164647265737300000000000000000000000000000000000000000000602082015250565b6000614baf602a83613649565b9150614bba82614b53565b604082019050919050565b60006020820190508181036000830152614bde81614ba2565b9050919050565b60e082016000820151614bfb6000850182613b1b565b506020820151614c0e6020850182613b1b565b506040820151614c216040850182613b1b565b506060820151614c346060850182613b1b565b506080820151614c476080850182613b1b565b5060a0820151614c5a60a0850182613b1b565b5060c0820151614c6d60c0850182613b1b565b50505050565b600060e082019050614c886000830184614be5565b92915050565b7f6472696c6c20646f6573206e6f74206578697374000000000000000000000000600082015250565b6000614cc4601483613649565b9150614ccf82614c8e565b602082019050919050565b60006020820190508181036000830152614cf381614cb7565b9050919050565b7f6472696c6c54797065206d757374206265203c3d206e6578744e65774472696c60008201527f6c54797065000000000000000000000000000000000000000000000000000000602082015250565b6000614d56602583613649565b9150614d6182614cfa565b604082019050919050565b60006020820190508181036000830152614d8581614d49565b9050919050565b7f6472696c6c5479706520616c726561647920637265617465642c2064656c657460008201527f65206265666f7265207265706c6163696e670000000000000000000000000000602082015250565b6000614de8603283613649565b9150614df382614d8c565b604082019050919050565b60006020820190508181036000830152614e1781614ddb565b9050919050565b7f6472696c6c206e6f74206f776e65640000000000000000000000000000000000600082015250565b6000614e54600f83613649565b9150614e5f82614e1e565b602082019050919050565b60006020820190508181036000830152614e8381614e47565b9050919050565b6000606082019050614e9f600083018661378e565b614eac602083018561378e565b614eb960408301846138e2565b949350505050565b600081519050614ed081613aaf565b92915050565b600060208284031215614eec57614eeb613579565b5b6000614efa84828501614ec1565b91505092915050565b6000614f0e826136f9565b9150614f19836136f9565b9250827fffffffffffffffffffffffffffffffffffffffffffffffffffffffffffffffff03821115614f4e57614f4d614446565b5b828201905092915050565b7f4552433732314d657461646174613a2055524920717565727920666f72206e6f60008201527f6e6578697374656e7420746f6b656e0000000000000000000000000000000000602082015250565b6000614fb5602f83613649565b9150614fc082614f59565b604082019050919050565b60006020820190508181036000830152614fe481614fa8565b9050919050565b600081905092915050565b60006150018261363e565b61500b8185614feb565b935061501b81856020860161365a565b80840191505092915050565b60006150338285614ff6565b915061503f8284614ff6565b91508190509392505050565b7f4552433732313a206f70657261746f7220717565727920666f72206e6f6e657860008201527f697374656e7420746f6b656e0000000000000000000000000000000000000000602082015250565b60006150a7602c83613649565b91506150b28261504b565b604082019050919050565b600060208201905081810360008301526150d68161509a565b9050919050565b7f4552433732313a207472616e736665722066726f6d20696e636f72726563742060008201527f6f776e6572000000000000000000000000000000000000000000000000000000602082015250565b6000615139602583613649565b9150615144826150dd565b604082019050919050565b600060208201905081810360008301526151688161512c565b9050919050565b7f4552433732313a207472616e7366657220746f20746865207a65726f2061646460008201527f7265737300000000000000000000000000000000000000000000000000000000602082015250565b60006151cb602483613649565b91506151d68261516f565b604082019050919050565b600060208201905081810360008301526151fa816151be565b9050919050565b600061520c826136f9565b9150615217836136f9565b92508282101561522a57615229614446565b5b828203905092915050565b7f4552433732313a20617070726f766520746f2063616c6c657200000000000000600082015250565b600061526b601983613649565b915061527682615235565b602082019050919050565b6000602082019050818103600083015261529a8161525e565b9050919050565b7f4552433732313a207472616e7366657220746f206e6f6e20455243373231526560008201527f63656976657220696d706c656d656e7465720000000000000000000000000000602082015250565b60006152fd603283613649565b9150615308826152a1565b604082019050919050565b6000602082019050818103600083015261532c816152f0565b9050919050565b7f4e487b7100000000000000000000000000000000000000000000000000000000600052601260045260246000fd5b600061536d826136f9565b9150615378836136f9565b92508261538857615387615333565b5b828204905092915050565b600061539e826136f9565b91506153a9836136f9565b9250826153b9576153b8615333565b5b828206905092915050565b600081519050919050565b600082825260208201905092915050565b60006153eb826153c4565b6153f581856153cf565b935061540581856020860161365a565b61540e8161368d565b840191505092915050565b600060808201905061542e600083018761378e565b61543b602083018661378e565b61544860408301856138e2565b818103606083015261545a81846153e0565b905095945050505050565b600081519050615474816135af565b92915050565b6000602082840312156154905761548f613579565b5b600061549e84828501615465565b91505092915050565b7f4552433732313a206d696e7420746f20746865207a65726f2061646472657373600082015250565b60006154dd602083613649565b91506154e8826154a7565b602082019050919050565b6000602082019050818103600083015261550c816154d0565b9050919050565b7f4552433732313a20746f6b656e20616c7265616479206d696e74656400000000600082015250565b6000615549601c83613649565b915061555482615513565b602082019050919050565b600060208201905081810360008301526155788161553c565b905091905056fea2646970667358221220bcda192eccf5b5e161928ad91dbd1e59f5fc88f4bb9e4b85943ad50d55e8cb3b64736f6c634300080b0033",
  "immutableReferences": {},
  "source": "// SPDX-License-Identifier: MIT\n\npragma solidity ^0.8.0;\n\nimport \"@openzeppelin/contracts/token/ERC721/ERC721.sol\";\nimport \"@openzeppelin/contracts/token/ERC20/IERC20.sol\";\n\ncontract MineEmpireDrill is ERC721 {\n    address public owner;\n    uint public currentMintDrill = 0;\n    uint public drillId = 1;\n    uint public maxDrills = 100;\n\n    uint private nextNewDrillType = 0;\n    IERC20[] private resources;\n    uint private numberOfTrackedResources;\n    uint[][] private miningMultiplier;\n    uint[][] private capacity;\n    uint[][][] private miningLevelUpgradeRequirement;\n    uint[][][] private capacityLevelUpgradeRequirement;\n    string[] private drillName;\n    uint[] private mintPrice;\n\n\n    struct Drill {\n        uint drillId;\n        string name;\n        uint drillType;\n        uint miningLevel;\n        uint capacityLevel;\n    }\n\n    mapping(uint => Drill) public drillMap;\n\n    struct Promotion {\n        uint promoId;\n        uint drillType;\n        uint maxUnits;\n        uint unitsSold;\n        uint miningLevel;\n        uint capacityLevel;\n        uint mintPrice;\n    }\n\n    mapping(uint => Promotion) public promotions;\n\n    constructor() ERC721(\"Mine Empire Drill\", \"DRILL\") {\n        owner = msg.sender;\n    }\n\n    // events\n\n    event LogNewDrillTypeAdded(uint _drillId);\n    event LogNewResourceTracked(address _address);\n    event LogMiningLevelUpgraded(uint _drillId);\n    event LogCapacityLevelUpgraded(uint _drillId);\n    event LogMint(uint _drillId);\n    event LogPromotionAdded(Promotion _promo);\n    event LogPromoMint(uint _drillId);\n\n\n    // modifiers\n\n    modifier onlyOwner(address _address) {\n        require(_address == owner, \"not owner\");\n        _;\n    }\n\n    modifier mintAvailable() {\n        require (drillId < maxDrills, \"mint not available\");\n        _;\n    }\n\n    modifier drillExists(uint _drillId) {\n        require(_drillId < drillId, \"drill does not exist\");\n        _;\n    }\n\n    modifier correctMintPrice(uint256 _amount) {\n        require(_amount == mintPrice[currentMintDrill], \"mint price is not correct\");\n        _;\n    }\n\n    function getResourceAtIndex(uint idx) public view returns (IERC20) {\n        return resources[idx];\n    }\n\n    // owner only\n    function addNewDrillType(\n        uint _drillType,\n        string memory name,\n        uint _mintPrice,\n        uint[] memory miningPower,\n        uint[] memory capacityAmount,\n        uint[][] memory _miningLevelUpgradeRequirement,\n        uint[][] memory _capacityLevelUpgradeRequirement\n    ) public onlyOwner(msg.sender) {\n        require(_drillType <= nextNewDrillType, \"drillType must be <= nextNewDrillType\");\n        if (_drillType != nextNewDrillType) {\n            require(mintPrice[_drillType] == 0, \"drillType already created, delete before replacing\");\n        }\n        drillName.push(name);\n        mintPrice.push(_mintPrice);\n        miningMultiplier.push(miningPower);\n        capacity.push(capacityAmount);\n        miningLevelUpgradeRequirement.push(_miningLevelUpgradeRequirement);\n        capacityLevelUpgradeRequirement.push(_capacityLevelUpgradeRequirement);\n        emit LogNewDrillTypeAdded(nextNewDrillType);\n        nextNewDrillType++;\n    }\n\n    function addNewTrackedResource(\n        IERC20 resource\n    ) public onlyOwner(msg.sender) {\n        resources.push(resource);\n        emit LogNewResourceTracked(address(resource));\n        numberOfTrackedResources++;\n    }\n\n    function updateMintPrice(uint drillType, uint _price) public onlyOwner(msg.sender) {\n        require(drillType < nextNewDrillType, \"drill type doesn't exist\");\n        mintPrice[drillType] = _price;\n    }\n\n    function createPromotion(\n        uint promoId, \n        uint _drillType, \n        uint _miningLeve, \n        uint _capacityLevel, \n        uint _maxUnits, \n        uint _price\n        ) public onlyOwner(msg.sender) {\n        Promotion memory promo = Promotion(\n            promoId,\n            _drillType,\n            _maxUnits,\n            0,\n            _miningLeve,\n            _capacityLevel,\n            _price\n        );\n        promotions[promoId] = promo;\n        emit LogPromotionAdded(promo);\n    }\n\n    // getters\n    function getDrill(uint256 _drillId) public view returns (Drill memory) {\n        return drillMap[_drillId];\n    }\n\n    function getMintPrice(uint drillType) public view returns(uint) {\n        require(drillType < nextNewDrillType, \"drill type doesn't exist\");\n        return mintPrice[drillType];\n    }\n\n    function getMiningLevelUpgradeRequirements(uint _drillId) public view drillExists(_drillId) returns(uint[] memory) {\n        uint drillType = drillMap[_drillId].drillType;\n        uint curLevel = drillMap[_drillId].miningLevel;\n        return miningLevelUpgradeRequirement[drillType][curLevel];\n    }\n\n    function getCapacityLevelUpgradeRequirements(uint _drillId) public view drillExists(_drillId) returns(uint[] memory) {\n        uint drillType = drillMap[_drillId].drillType;\n        uint curLevel = drillMap[_drillId].capacityLevel;\n        return capacityLevelUpgradeRequirement[drillType][curLevel];\n    }\n\n    function getDrillMiningPower(uint _drillId) public view drillExists(_drillId) returns (uint) {\n        uint drillType = drillMap[_drillId].drillType;\n        return miningMultiplier[drillType][_drillId];\n    }\n\n    function getDrillCapacity(uint _drillId) public view drillExists(_drillId) returns (uint) {\n        uint drillType = drillMap[_drillId].drillType;\n        return capacity[drillType][_drillId];\n    }\n\n    // user interactions\n\n    function mintDrill() public payable mintAvailable() {\n        require(currentMintDrill < nextNewDrillType, \"drill you are trying to mint is not created\");\n        require(msg.value == mintPrice[currentMintDrill], \"pay amount doesn't match mint price\");\n        Drill memory drill = Drill(\n            drillId,\n            drillName[currentMintDrill],\n            currentMintDrill,\n            1,\n            1\n        );\n        drillMap[drillId] = drill;\n        _safeMint(msg.sender, drillId);\n        emit LogMint(drillId);\n        drillId++;\n    }\n\n    function mintPromoDrill(uint _promoId) public payable {\n        Promotion memory promo = promotions[_promoId];\n        require(promo.maxUnits > 0, \"promotion does not exist\");\n        require(promo.unitsSold < promo.maxUnits, \"no units available for this promotion\");\n        require(msg.value == promo.mintPrice, \"payment doesn't match promo mint price\");\n        require(promo.drillType < nextNewDrillType, \"drill type hasn't been configured\");\n\n        Drill memory drill = Drill(\n            drillId,\n            drillName[promo.drillType],\n            promo.drillType,\n            promo.miningLevel,\n            promo.capacityLevel\n        );\n        drillMap[drillId] = drill;\n        _safeMint(msg.sender, drillId);\n        emit LogPromoMint(drillId);\n        drillId++;\n    }\n\n    function upgradeMiningLevel(uint _drillId) public drillExists(_drillId) {\n        require(super.ownerOf(_drillId) == msg.sender, \"drill not owned\");\n        uint drillType = drillMap[_drillId].drillType;\n        uint curLevel = drillMap[_drillId].miningLevel;\n\n        // get relevant resources\n        for (uint i = 0; i < numberOfTrackedResources; i++) {\n            uint resourceAmount = miningLevelUpgradeRequirement[drillType][curLevel][i];\n            if (resourceAmount > 0) {\n                resources[i].transferFrom(msg.sender, address(this), resourceAmount);\n            }\n        }\n        drillMap[_drillId].miningLevel = curLevel + 1;\n        emit LogMiningLevelUpgraded(_drillId);\n    }\n\n    function upgradeCapacityLevel(uint _drillId) public drillExists(_drillId) {\n        require(super.ownerOf(_drillId) == msg.sender, \"drill not owned\");\n        uint drillType = drillMap[_drillId].drillType;\n        uint curLevel = drillMap[_drillId].capacityLevel;\n\n        // get relevant resources\n        for (uint i = 0; i < numberOfTrackedResources; i++) {\n            uint resourceAmount = capacityLevelUpgradeRequirement[drillType][curLevel][i];\n            if (resourceAmount > 0) {\n                resources[i].transferFrom(msg.sender, address(this), resourceAmount);\n            }\n        }\n        drillMap[_drillId].capacityLevel = curLevel + 1;\n        emit LogCapacityLevelUpgraded(_drillId);\n    }\n\n}",
  "sourcePath": "/Users/aslan/Desktop/DeMiner/contracts/MineEmpireDrill.sol",
  "compiler": {
    "name": "solc",
    "version": "0.8.11+commit.d7f03943.Emscripten.clang"
  },
  "schemaVersion": "3.4.3",
  "updatedAt": "2022-04-25T11:12:45.621Z",
  "devdoc": {
    "kind": "dev",
    "methods": {
      "approve(address,uint256)": {
        "details": "See {IERC721-approve}."
      },
      "balanceOf(address)": {
        "details": "See {IERC721-balanceOf}."
      },
      "getApproved(uint256)": {
        "details": "See {IERC721-getApproved}."
      },
      "isApprovedForAll(address,address)": {
        "details": "See {IERC721-isApprovedForAll}."
      },
      "name()": {
        "details": "See {IERC721Metadata-name}."
      },
      "ownerOf(uint256)": {
        "details": "See {IERC721-ownerOf}."
      },
      "safeTransferFrom(address,address,uint256)": {
        "details": "See {IERC721-safeTransferFrom}."
      },
      "safeTransferFrom(address,address,uint256,bytes)": {
        "details": "See {IERC721-safeTransferFrom}."
      },
      "setApprovalForAll(address,bool)": {
        "details": "See {IERC721-setApprovalForAll}."
      },
      "supportsInterface(bytes4)": {
        "details": "See {IERC165-supportsInterface}."
      },
      "symbol()": {
        "details": "See {IERC721Metadata-symbol}."
      },
      "tokenURI(uint256)": {
        "details": "See {IERC721Metadata-tokenURI}."
      },
      "transferFrom(address,address,uint256)": {
        "details": "See {IERC721-transferFrom}."
      }
    },
    "version": 1
  },
  "userdoc": {
    "kind": "user",
    "methods": {},
    "version": 1
  }
}