{
  "contractName": "MineEmpireDrill",
  "abi": [
    {
      "inputs": [
        {
          "internalType": "contract IERC20",
          "name": "_cosmicCash",
          "type": "address"
        }
      ],
      "stateMutability": "nonpayable",
      "type": "constructor"
    },
    {
      "anonymous": false,
      "inputs": [
        {
          "indexed": true,
          "internalType": "address",
          "name": "owner",
          "type": "address"
        },
        {
          "indexed": true,
          "internalType": "address",
          "name": "approved",
          "type": "address"
        },
        {
          "indexed": true,
          "internalType": "uint256",
          "name": "tokenId",
          "type": "uint256"
        }
      ],
      "name": "Approval",
      "type": "event"
    },
    {
      "anonymous": false,
      "inputs": [
        {
          "indexed": true,
          "internalType": "address",
          "name": "owner",
          "type": "address"
        },
        {
          "indexed": true,
          "internalType": "address",
          "name": "operator",
          "type": "address"
        },
        {
          "indexed": false,
          "internalType": "bool",
          "name": "approved",
          "type": "bool"
        }
      ],
      "name": "ApprovalForAll",
      "type": "event"
    },
    {
      "anonymous": false,
      "inputs": [
        {
          "indexed": false,
          "internalType": "uint256",
          "name": "_drillId",
          "type": "uint256"
        }
      ],
      "name": "LogAlternativeMint",
      "type": "event"
    },
    {
      "anonymous": false,
      "inputs": [
        {
          "indexed": false,
          "internalType": "uint256",
          "name": "_type",
          "type": "uint256"
        }
      ],
      "name": "LogDrillTypeAdded",
      "type": "event"
    },
    {
      "anonymous": false,
      "inputs": [
        {
          "indexed": false,
          "internalType": "uint256",
          "name": "_drillId",
          "type": "uint256"
        }
      ],
      "name": "LogDrillUpgrade",
      "type": "event"
    },
    {
      "anonymous": false,
      "inputs": [
        {
          "indexed": false,
          "internalType": "uint256",
          "name": "_drillId",
          "type": "uint256"
        }
      ],
      "name": "LogFreeMint",
      "type": "event"
    },
    {
      "anonymous": false,
      "inputs": [
        {
          "indexed": false,
          "internalType": "uint256",
          "name": "_drillId",
          "type": "uint256"
        }
      ],
      "name": "LogMint",
      "type": "event"
    },
    {
      "anonymous": false,
      "inputs": [
        {
          "indexed": true,
          "internalType": "address",
          "name": "from",
          "type": "address"
        },
        {
          "indexed": true,
          "internalType": "address",
          "name": "to",
          "type": "address"
        },
        {
          "indexed": true,
          "internalType": "uint256",
          "name": "tokenId",
          "type": "uint256"
        }
      ],
      "name": "Transfer",
      "type": "event"
    },
    {
      "inputs": [
        {
          "internalType": "uint256",
          "name": "",
          "type": "uint256"
        }
      ],
      "name": "alternativeMints",
      "outputs": [
        {
          "internalType": "uint256",
          "name": "alternativeMintId",
          "type": "uint256"
        },
        {
          "internalType": "uint256",
          "name": "drillType",
          "type": "uint256"
        },
        {
          "internalType": "uint256",
          "name": "level",
          "type": "uint256"
        },
        {
          "internalType": "contract IERC20",
          "name": "currency",
          "type": "address"
        },
        {
          "internalType": "uint256",
          "name": "price",
          "type": "uint256"
        },
        {
          "internalType": "uint256",
          "name": "minted",
          "type": "uint256"
        },
        {
          "internalType": "uint256",
          "name": "maxMintsAllowed",
          "type": "uint256"
        }
      ],
      "stateMutability": "view",
      "type": "function",
      "constant": true
    },
    {
      "inputs": [
        {
          "internalType": "address",
          "name": "to",
          "type": "address"
        },
        {
          "internalType": "uint256",
          "name": "tokenId",
          "type": "uint256"
        }
      ],
      "name": "approve",
      "outputs": [],
      "stateMutability": "nonpayable",
      "type": "function"
    },
    {
      "inputs": [
        {
          "internalType": "address",
          "name": "owner",
          "type": "address"
        }
      ],
      "name": "balanceOf",
      "outputs": [
        {
          "internalType": "uint256",
          "name": "",
          "type": "uint256"
        }
      ],
      "stateMutability": "view",
      "type": "function",
      "constant": true
    },
    {
      "inputs": [],
      "name": "cosmicCash",
      "outputs": [
        {
          "internalType": "contract IERC20",
          "name": "",
          "type": "address"
        }
      ],
      "stateMutability": "view",
      "type": "function",
      "constant": true
    },
    {
      "inputs": [
        {
          "internalType": "uint256",
          "name": "",
          "type": "uint256"
        }
      ],
      "name": "drillIdToDrillMap",
      "outputs": [
        {
          "internalType": "uint256",
          "name": "drillId",
          "type": "uint256"
        },
        {
          "internalType": "uint256",
          "name": "drillType",
          "type": "uint256"
        },
        {
          "internalType": "uint256",
          "name": "level",
          "type": "uint256"
        }
      ],
      "stateMutability": "view",
      "type": "function",
      "constant": true
    },
    {
      "inputs": [
        {
          "internalType": "uint256",
          "name": "",
          "type": "uint256"
        },
        {
          "internalType": "uint256",
          "name": "",
          "type": "uint256"
        }
      ],
      "name": "drillPriceAtLevel",
      "outputs": [
        {
          "internalType": "uint256",
          "name": "",
          "type": "uint256"
        }
      ],
      "stateMutability": "view",
      "type": "function",
      "constant": true
    },
    {
      "inputs": [
        {
          "internalType": "uint256",
          "name": "",
          "type": "uint256"
        }
      ],
      "name": "drillTypeToDrillStatsMap",
      "outputs": [
        {
          "internalType": "uint256",
          "name": "drillType",
          "type": "uint256"
        },
        {
          "internalType": "string",
          "name": "drillName",
          "type": "string"
        },
        {
          "internalType": "uint256",
          "name": "maxLevel",
          "type": "uint256"
        }
      ],
      "stateMutability": "view",
      "type": "function",
      "constant": true
    },
    {
      "inputs": [
        {
          "internalType": "uint256",
          "name": "",
          "type": "uint256"
        },
        {
          "internalType": "uint256",
          "name": "",
          "type": "uint256"
        }
      ],
      "name": "drillsAvailableAtLevel",
      "outputs": [
        {
          "internalType": "uint256",
          "name": "",
          "type": "uint256"
        }
      ],
      "stateMutability": "view",
      "type": "function",
      "constant": true
    },
    {
      "inputs": [
        {
          "internalType": "uint256",
          "name": "",
          "type": "uint256"
        },
        {
          "internalType": "uint256",
          "name": "",
          "type": "uint256"
        }
      ],
      "name": "drillsMintedAtLevel",
      "outputs": [
        {
          "internalType": "uint256",
          "name": "",
          "type": "uint256"
        }
      ],
      "stateMutability": "view",
      "type": "function",
      "constant": true
    },
    {
      "inputs": [
        {
          "internalType": "address",
          "name": "",
          "type": "address"
        },
        {
          "internalType": "uint256",
          "name": "",
          "type": "uint256"
        },
        {
          "internalType": "uint256",
          "name": "",
          "type": "uint256"
        }
      ],
      "name": "freeMints",
      "outputs": [
        {
          "internalType": "uint256",
          "name": "",
          "type": "uint256"
        }
      ],
      "stateMutability": "view",
      "type": "function",
      "constant": true
    },
    {
      "inputs": [
        {
          "internalType": "uint256",
          "name": "tokenId",
          "type": "uint256"
        }
      ],
      "name": "getApproved",
      "outputs": [
        {
          "internalType": "address",
          "name": "",
          "type": "address"
        }
      ],
      "stateMutability": "view",
      "type": "function",
      "constant": true
    },
    {
      "inputs": [
        {
          "internalType": "address",
          "name": "owner",
          "type": "address"
        },
        {
          "internalType": "address",
          "name": "operator",
          "type": "address"
        }
      ],
      "name": "isApprovedForAll",
      "outputs": [
        {
          "internalType": "bool",
          "name": "",
          "type": "bool"
        }
      ],
      "stateMutability": "view",
      "type": "function",
      "constant": true
    },
    {
      "inputs": [],
      "name": "maxFreeMints",
      "outputs": [
        {
          "internalType": "uint256",
          "name": "",
          "type": "uint256"
        }
      ],
      "stateMutability": "view",
      "type": "function",
      "constant": true
    },
    {
      "inputs": [],
      "name": "name",
      "outputs": [
        {
          "internalType": "string",
          "name": "",
          "type": "string"
        }
      ],
      "stateMutability": "view",
      "type": "function",
      "constant": true
    },
    {
      "inputs": [],
      "name": "nextDrillId",
      "outputs": [
        {
          "internalType": "uint256",
          "name": "",
          "type": "uint256"
        }
      ],
      "stateMutability": "view",
      "type": "function",
      "constant": true
    },
    {
      "inputs": [],
      "name": "owner",
      "outputs": [
        {
          "internalType": "address",
          "name": "",
          "type": "address"
        }
      ],
      "stateMutability": "view",
      "type": "function",
      "constant": true
    },
    {
      "inputs": [
        {
          "internalType": "uint256",
          "name": "tokenId",
          "type": "uint256"
        }
      ],
      "name": "ownerOf",
      "outputs": [
        {
          "internalType": "address",
          "name": "",
          "type": "address"
        }
      ],
      "stateMutability": "view",
      "type": "function",
      "constant": true
    },
    {
      "inputs": [
        {
          "internalType": "address",
          "name": "from",
          "type": "address"
        },
        {
          "internalType": "address",
          "name": "to",
          "type": "address"
        },
        {
          "internalType": "uint256",
          "name": "tokenId",
          "type": "uint256"
        }
      ],
      "name": "safeTransferFrom",
      "outputs": [],
      "stateMutability": "nonpayable",
      "type": "function"
    },
    {
      "inputs": [
        {
          "internalType": "address",
          "name": "from",
          "type": "address"
        },
        {
          "internalType": "address",
          "name": "to",
          "type": "address"
        },
        {
          "internalType": "uint256",
          "name": "tokenId",
          "type": "uint256"
        },
        {
          "internalType": "bytes",
          "name": "_data",
          "type": "bytes"
        }
      ],
      "name": "safeTransferFrom",
      "outputs": [],
      "stateMutability": "nonpayable",
      "type": "function"
    },
    {
      "inputs": [
        {
          "internalType": "address",
          "name": "operator",
          "type": "address"
        },
        {
          "internalType": "bool",
          "name": "approved",
          "type": "bool"
        }
      ],
      "name": "setApprovalForAll",
      "outputs": [],
      "stateMutability": "nonpayable",
      "type": "function"
    },
    {
      "inputs": [
        {
          "internalType": "bytes4",
          "name": "interfaceId",
          "type": "bytes4"
        }
      ],
      "name": "supportsInterface",
      "outputs": [
        {
          "internalType": "bool",
          "name": "",
          "type": "bool"
        }
      ],
      "stateMutability": "view",
      "type": "function",
      "constant": true
    },
    {
      "inputs": [],
      "name": "symbol",
      "outputs": [
        {
          "internalType": "string",
          "name": "",
          "type": "string"
        }
      ],
      "stateMutability": "view",
      "type": "function",
      "constant": true
    },
    {
      "inputs": [
        {
          "internalType": "uint256",
          "name": "tokenId",
          "type": "uint256"
        }
      ],
      "name": "tokenURI",
      "outputs": [
        {
          "internalType": "string",
          "name": "",
          "type": "string"
        }
      ],
      "stateMutability": "view",
      "type": "function",
      "constant": true
    },
    {
      "inputs": [],
      "name": "totalFreeMints",
      "outputs": [
        {
          "internalType": "uint256",
          "name": "",
          "type": "uint256"
        }
      ],
      "stateMutability": "view",
      "type": "function",
      "constant": true
    },
    {
      "inputs": [
        {
          "internalType": "address",
          "name": "from",
          "type": "address"
        },
        {
          "internalType": "address",
          "name": "to",
          "type": "address"
        },
        {
          "internalType": "uint256",
          "name": "tokenId",
          "type": "uint256"
        }
      ],
      "name": "transferFrom",
      "outputs": [],
      "stateMutability": "nonpayable",
      "type": "function"
    },
    {
      "inputs": [],
      "name": "treasury",
      "outputs": [
        {
          "internalType": "address payable",
          "name": "",
          "type": "address"
        }
      ],
      "stateMutability": "view",
      "type": "function",
      "constant": true
    },
    {
      "inputs": [
        {
          "internalType": "address payable",
          "name": "_address",
          "type": "address"
        }
      ],
      "name": "updateTreasuryAddress",
      "outputs": [],
      "stateMutability": "nonpayable",
      "type": "function"
    },
    {
      "inputs": [
        {
          "internalType": "uint256",
          "name": "_type",
          "type": "uint256"
        },
        {
          "internalType": "string",
          "name": "_name",
          "type": "string"
        },
        {
          "internalType": "uint256",
          "name": "_mintPrice",
          "type": "uint256"
        },
        {
          "internalType": "uint256",
          "name": "_maxLevel",
          "type": "uint256"
        },
        {
          "internalType": "uint256[]",
          "name": "_miningPowerAtLevel",
          "type": "uint256[]"
        },
        {
          "internalType": "uint256[]",
          "name": "_upgradeRequirements",
          "type": "uint256[]"
        }
      ],
      "name": "addNewDrillType",
      "outputs": [],
      "stateMutability": "nonpayable",
      "type": "function"
    },
    {
      "inputs": [
        {
          "internalType": "uint256",
          "name": "_type",
          "type": "uint256"
        },
        {
          "internalType": "uint256",
          "name": "_level",
          "type": "uint256"
        },
        {
          "internalType": "uint256",
          "name": "_mintPrice",
          "type": "uint256"
        }
      ],
      "name": "updateMintPrice",
      "outputs": [],
      "stateMutability": "nonpayable",
      "type": "function"
    },
    {
      "inputs": [
        {
          "internalType": "uint256",
          "name": "_type",
          "type": "uint256"
        },
        {
          "internalType": "uint256",
          "name": "_level",
          "type": "uint256"
        },
        {
          "internalType": "uint256",
          "name": "_count",
          "type": "uint256"
        }
      ],
      "name": "updateDrillsAvailable",
      "outputs": [],
      "stateMutability": "nonpayable",
      "type": "function"
    },
    {
      "inputs": [
        {
          "internalType": "uint256",
          "name": "_amount",
          "type": "uint256"
        }
      ],
      "name": "updateMaxFreeMints",
      "outputs": [],
      "stateMutability": "nonpayable",
      "type": "function"
    },
    {
      "inputs": [
        {
          "internalType": "address",
          "name": "_user",
          "type": "address"
        },
        {
          "internalType": "uint256",
          "name": "_type",
          "type": "uint256"
        },
        {
          "internalType": "uint256",
          "name": "_level",
          "type": "uint256"
        },
        {
          "internalType": "uint256",
          "name": "_amount",
          "type": "uint256"
        }
      ],
      "name": "updateFreeMint",
      "outputs": [],
      "stateMutability": "nonpayable",
      "type": "function"
    },
    {
      "inputs": [
        {
          "internalType": "uint256",
          "name": "_type",
          "type": "uint256"
        },
        {
          "internalType": "uint256",
          "name": "_level",
          "type": "uint256"
        },
        {
          "internalType": "uint256",
          "name": "_power",
          "type": "uint256"
        }
      ],
      "name": "updateMiningPower",
      "outputs": [],
      "stateMutability": "nonpayable",
      "type": "function"
    },
    {
      "inputs": [
        {
          "internalType": "uint256",
          "name": "_type",
          "type": "uint256"
        },
        {
          "internalType": "uint256",
          "name": "_maxLevel",
          "type": "uint256"
        }
      ],
      "name": "updateMaxLevel",
      "outputs": [],
      "stateMutability": "nonpayable",
      "type": "function"
    },
    {
      "inputs": [
        {
          "internalType": "uint256",
          "name": "_type",
          "type": "uint256"
        },
        {
          "internalType": "uint256",
          "name": "_level",
          "type": "uint256"
        },
        {
          "internalType": "uint256",
          "name": "_upgradeRequirement",
          "type": "uint256"
        }
      ],
      "name": "updateUpgradeRequirement",
      "outputs": [],
      "stateMutability": "nonpayable",
      "type": "function"
    },
    {
      "inputs": [
        {
          "internalType": "uint256",
          "name": "_id",
          "type": "uint256"
        },
        {
          "internalType": "uint256",
          "name": "_type",
          "type": "uint256"
        },
        {
          "internalType": "uint256",
          "name": "_level",
          "type": "uint256"
        },
        {
          "internalType": "contract IERC20",
          "name": "_currency",
          "type": "address"
        },
        {
          "internalType": "uint256",
          "name": "_price",
          "type": "uint256"
        },
        {
          "internalType": "uint256",
          "name": "_maxMintsAllowed",
          "type": "uint256"
        }
      ],
      "name": "addAlternativeMint",
      "outputs": [],
      "stateMutability": "nonpayable",
      "type": "function"
    },
    {
      "inputs": [
        {
          "internalType": "uint256",
          "name": "_drillId",
          "type": "uint256"
        }
      ],
      "name": "getDrill",
      "outputs": [
        {
          "components": [
            {
              "internalType": "uint256",
              "name": "drillId",
              "type": "uint256"
            },
            {
              "internalType": "uint256",
              "name": "drillType",
              "type": "uint256"
            },
            {
              "internalType": "uint256",
              "name": "level",
              "type": "uint256"
            }
          ],
          "internalType": "struct MineEmpireDrill.Drill",
          "name": "",
          "type": "tuple"
        }
      ],
      "stateMutability": "view",
      "type": "function",
      "constant": true
    },
    {
      "inputs": [],
      "name": "getTotalFreeMints",
      "outputs": [
        {
          "internalType": "uint256",
          "name": "",
          "type": "uint256"
        }
      ],
      "stateMutability": "view",
      "type": "function",
      "constant": true
    },
    {
      "inputs": [],
      "name": "getMaxFreeMints",
      "outputs": [
        {
          "internalType": "uint256",
          "name": "",
          "type": "uint256"
        }
      ],
      "stateMutability": "view",
      "type": "function",
      "constant": true
    },
    {
      "inputs": [
        {
          "internalType": "uint256",
          "name": "_type",
          "type": "uint256"
        },
        {
          "internalType": "uint256",
          "name": "_level",
          "type": "uint256"
        }
      ],
      "name": "getMintPrice",
      "outputs": [
        {
          "internalType": "uint256",
          "name": "",
          "type": "uint256"
        }
      ],
      "stateMutability": "view",
      "type": "function",
      "constant": true
    },
    {
      "inputs": [
        {
          "internalType": "uint256",
          "name": "_type",
          "type": "uint256"
        },
        {
          "internalType": "uint256",
          "name": "_level",
          "type": "uint256"
        }
      ],
      "name": "getUpgradeRequirement",
      "outputs": [
        {
          "internalType": "uint256",
          "name": "",
          "type": "uint256"
        }
      ],
      "stateMutability": "view",
      "type": "function",
      "constant": true
    },
    {
      "inputs": [
        {
          "internalType": "uint256",
          "name": "_drillId",
          "type": "uint256"
        }
      ],
      "name": "getMiningPower",
      "outputs": [
        {
          "internalType": "uint256",
          "name": "",
          "type": "uint256"
        }
      ],
      "stateMutability": "view",
      "type": "function",
      "constant": true
    },
    {
      "inputs": [
        {
          "internalType": "uint256",
          "name": "_type",
          "type": "uint256"
        },
        {
          "internalType": "uint256",
          "name": "_level",
          "type": "uint256"
        }
      ],
      "name": "getDrillsAvailableAtLevel",
      "outputs": [
        {
          "internalType": "uint256",
          "name": "",
          "type": "uint256"
        }
      ],
      "stateMutability": "view",
      "type": "function",
      "constant": true
    },
    {
      "inputs": [
        {
          "internalType": "uint256",
          "name": "_type",
          "type": "uint256"
        },
        {
          "internalType": "uint256",
          "name": "_level",
          "type": "uint256"
        }
      ],
      "name": "mintDrill",
      "outputs": [],
      "stateMutability": "payable",
      "type": "function",
      "payable": true
    },
    {
      "inputs": [
        {
          "internalType": "uint256",
          "name": "_type",
          "type": "uint256"
        },
        {
          "internalType": "uint256",
          "name": "_level",
          "type": "uint256"
        }
      ],
      "name": "freeMintDrill",
      "outputs": [],
      "stateMutability": "nonpayable",
      "type": "function"
    },
    {
      "inputs": [
        {
          "internalType": "uint256",
          "name": "_id",
          "type": "uint256"
        }
      ],
      "name": "alternativeMintDrill",
      "outputs": [],
      "stateMutability": "nonpayable",
      "type": "function"
    },
    {
      "inputs": [
        {
          "internalType": "uint256",
          "name": "_drillId",
          "type": "uint256"
        }
      ],
      "name": "upgradeDrill",
      "outputs": [],
      "stateMutability": "nonpayable",
      "type": "function"
    }
  ],
  "bytecode": "0x608060405260016009556000600a556000600b553480156200002057600080fd5b5060405162006128380380620061288339818101604052810190620000469190620002c8565b6040518060400160405280601181526020017f4d696e6520456d70697265204472696c6c0000000000000000000000000000008152506040518060400160405280600581526020017f4452494c4c0000000000000000000000000000000000000000000000000000008152508160009080519060200190620000ca9291906200019a565b508060019080519060200190620000e39291906200019a565b50505033600660006101000a81548173ffffffffffffffffffffffffffffffffffffffff021916908373ffffffffffffffffffffffffffffffffffffffff16021790555080600860006101000a81548173ffffffffffffffffffffffffffffffffffffffff021916908373ffffffffffffffffffffffffffffffffffffffff1602179055506064600e600060018152602001908152602001600020600080815260200190815260200160002081905550506200035f565b828054620001a89062000329565b90600052602060002090601f016020900481019282620001cc576000855562000218565b82601f10620001e757805160ff191683800117855562000218565b8280016001018555821562000218579182015b8281111562000217578251825591602001919060010190620001fa565b5b5090506200022791906200022b565b5090565b5b80821115620002465760008160009055506001016200022c565b5090565b600080fd5b600073ffffffffffffffffffffffffffffffffffffffff82169050919050565b60006200027c826200024f565b9050919050565b600062000290826200026f565b9050919050565b620002a28162000283565b8114620002ae57600080fd5b50565b600081519050620002c28162000297565b92915050565b600060208284031215620002e157620002e06200024a565b5b6000620002f184828501620002b1565b91505092915050565b7f4e487b7100000000000000000000000000000000000000000000000000000000600052602260045260246000fd5b600060028204905060018216806200034257607f821691505b60208210811415620003595762000358620002fa565b5b50919050565b615db9806200036f6000396000f3fe6080604052600436106102885760003560e01c8063745518581161015a578063bfdca826116100c1578063eb5569151161007a578063eb55691514610a67578063eee8167314610a90578063efdcb04a14610ab9578063f3755c2d14610ae4578063f5e0ddfe14610b23578063ffc8ef6f14610b6257610288565b8063bfdca82614610931578063c622a06e1461095a578063c87b56dd14610997578063e0194886146109d4578063e4be77b0146109ff578063e985e9c514610a2a57610288565b80639b7bd76d116101135780639b7bd76d146108275780639d28b69314610850578063a22cb46514610879578063a2843682146108a2578063b22726f6146108df578063b88d4fde1461090857610288565b80637455185814610705578063841e4561146107425780638da5cb5b1461076b57806394cdbcca1461079657806395d89b41146107bf578063978251db146107ea57610288565b806341437d9f116101fe5780635c1ad413116101b75780635c1ad413146105b557806361d027b3146105f85780636352211e1461062357806363dfe3c41461066057806370a082311461069d578063732496c9146106da57610288565b806341437d9f1461048357806342842e0e146104ac5780634408182a146104d557806345a8b2de146104fe57806349d167001461053b578063530e44a21461057857610288565b8063161f210411610250578063161f2104146103985780631986f19f146103c35780631f63c484146103df57806323b872dd146104085780632cd5f88f1461043157806337c099f51461045a57610288565b806301ffc9a71461028d57806303c5b032146102ca57806306fdde0314610307578063081812fc14610332578063095ea7b31461036f575b600080fd5b34801561029957600080fd5b506102b460048036038101906102af9190613e85565b610b8d565b6040516102c19190613ecd565b60405180910390f35b3480156102d657600080fd5b506102f160048036038101906102ec9190613f7c565b610c6f565b6040516102fe9190613fde565b60405180910390f35b34801561031357600080fd5b5061031c610ca1565b6040516103299190614092565b60405180910390f35b34801561033e57600080fd5b50610359600480360381019061035491906140b4565b610d33565b60405161036691906140f0565b60405180910390f35b34801561037b57600080fd5b506103966004803603810190610391919061410b565b610db8565b005b3480156103a457600080fd5b506103ad610ed0565b6040516103ba9190613fde565b60405180910390f35b6103dd60048036038101906103d8919061414b565b610eda565b005b3480156103eb57600080fd5b50610406600480360381019061040191906140b4565b6111c3565b005b34801561041457600080fd5b5061042f600480360381019061042a919061418b565b611481565b005b34801561043d57600080fd5b506104586004803603810190610453919061414b565b6114e1565b005b34801561046657600080fd5b50610481600480360381019061047c91906141de565b6115ed565b005b34801561048f57600080fd5b506104aa60048036038101906104a591906141de565b6117ab565b005b3480156104b857600080fd5b506104d360048036038101906104ce919061418b565b611969565b005b3480156104e157600080fd5b506104fc60048036038101906104f791906140b4565b611989565b005b34801561050a57600080fd5b50610525600480360381019061052091906140b4565b611a25565b6040516105329190613fde565b60405180910390f35b34801561054757600080fd5b50610562600480360381019061055d919061414b565b611ae5565b60405161056f9190613fde565b60405180910390f35b34801561058457600080fd5b5061059f600480360381019061059a919061414b565b611b14565b6040516105ac9190613fde565b60405180910390f35b3480156105c157600080fd5b506105dc60048036038101906105d791906140b4565b611b9e565b6040516105ef9796959493929190614290565b60405180910390f35b34801561060457600080fd5b5061060d611c00565b60405161061a9190614320565b60405180910390f35b34801561062f57600080fd5b5061064a600480360381019061064591906140b4565b611c26565b60405161065791906140f0565b60405180910390f35b34801561066c57600080fd5b506106876004803603810190610682919061414b565b611cd8565b6040516106949190613fde565b60405180910390f35b3480156106a957600080fd5b506106c460048036038101906106bf919061433b565b611cfd565b6040516106d19190613fde565b60405180910390f35b3480156106e657600080fd5b506106ef611db5565b6040516106fc9190613fde565b60405180910390f35b34801561071157600080fd5b5061072c6004803603810190610727919061414b565b611dbb565b6040516107399190613fde565b60405180910390f35b34801561074e57600080fd5b5061076960048036038101906107649190614394565b611ee8565b005b34801561077757600080fd5b50610780611fbe565b60405161078d91906140f0565b60405180910390f35b3480156107a257600080fd5b506107bd60048036038101906107b8919061414b565b611fe4565b005b3480156107cb57600080fd5b506107d461224b565b6040516107e19190614092565b60405180910390f35b3480156107f657600080fd5b50610811600480360381019061080c919061414b565b6122dd565b60405161081e9190613fde565b60405180910390f35b34801561083357600080fd5b5061084e600480360381019061084991906143ff565b612302565b005b34801561085c57600080fd5b50610877600480360381019061087291906140b4565b61257a565b005b34801561088557600080fd5b506108a0600480360381019061089b91906144b8565b612875565b005b3480156108ae57600080fd5b506108c960048036038101906108c491906140b4565b61288b565b6040516108d69190614549565b60405180910390f35b3480156108eb57600080fd5b5061090660048036038101906109019190614564565b61291c565b005b34801561091457600080fd5b5061092f600480360381019061092a9190614700565b612a1a565b005b34801561093d57600080fd5b50610958600480360381019061095391906148ec565b612a7c565b005b34801561096657600080fd5b50610981600480360381019061097c919061414b565b612cdd565b60405161098e9190613fde565b60405180910390f35b3480156109a357600080fd5b506109be60048036038101906109b991906140b4565b612d02565b6040516109cb9190614092565b60405180910390f35b3480156109e057600080fd5b506109e9612da9565b6040516109f691906149cd565b60405180910390f35b348015610a0b57600080fd5b50610a14612dcf565b604051610a219190613fde565b60405180910390f35b348015610a3657600080fd5b50610a516004803603810190610a4c91906149e8565b612dd9565b604051610a5e9190613ecd565b60405180910390f35b348015610a7357600080fd5b50610a8e6004803603810190610a8991906141de565b612e6d565b005b348015610a9c57600080fd5b50610ab76004803603810190610ab291906141de565b612f2d565b005b348015610ac557600080fd5b50610ace613048565b604051610adb9190613fde565b60405180910390f35b348015610af057600080fd5b50610b0b6004803603810190610b0691906140b4565b61304e565b604051610b1a93929190614a28565b60405180910390f35b348015610b2f57600080fd5b50610b4a6004803603810190610b4591906140b4565b613100565b604051610b5993929190614a66565b60405180910390f35b348015610b6e57600080fd5b50610b7761312a565b604051610b849190613fde565b60405180910390f35b60007f80ac58cd000000000000000000000000000000000000000000000000000000007bffffffffffffffffffffffffffffffffffffffffffffffffffffffff1916827bffffffffffffffffffffffffffffffffffffffffffffffffffffffff19161480610c5857507f5b5e139f000000000000000000000000000000000000000000000000000000007bffffffffffffffffffffffffffffffffffffffffffffffffffffffff1916827bffffffffffffffffffffffffffffffffffffffffffffffffffffffff1916145b80610c685750610c6782613130565b5b9050919050565b601160205282600052604060002060205281600052604060002060205280600052604060002060009250925050505481565b606060008054610cb090614acc565b80601f0160208091040260200160405190810160405280929190818152602001828054610cdc90614acc565b8015610d295780601f10610cfe57610100808354040283529160200191610d29565b820191906000526020600020905b815481529060010190602001808311610d0c57829003601f168201915b5050505050905090565b6000610d3e8261319a565b610d7d576040517f08c379a0000000000000000000000000000000000000000000000000000000008152600401610d7490614b70565b60405180910390fd5b6004600083815260200190815260200160002060009054906101000a900473ffffffffffffffffffffffffffffffffffffffff169050919050565b6000610dc382611c26565b90508073ffffffffffffffffffffffffffffffffffffffff168373ffffffffffffffffffffffffffffffffffffffff161415610e34576040517f08c379a0000000000000000000000000000000000000000000000000000000008152600401610e2b90614c02565b60405180910390fd5b8073ffffffffffffffffffffffffffffffffffffffff16610e53613206565b73ffffffffffffffffffffffffffffffffffffffff161480610e825750610e8181610e7c613206565b612dd9565b5b610ec1576040517f08c379a0000000000000000000000000000000000000000000000000000000008152600401610eb890614c94565b60405180910390fd5b610ecb838361320e565b505050565b6000600b54905090565b8181600e6000838152602001908152602001600020600082815260200190815260200160002054600f600084815260200190815260200160002060008381526020019081526020016000205410610f66576040517f08c379a0000000000000000000000000000000000000000000000000000000008152600401610f5d90614d00565b60405180910390fd5b838334806010600085815260200190815260200160002060008481526020019081526020016000205414610fcf576040517f08c379a0000000000000000000000000000000000000000000000000000000008152600401610fc690614d6c565b60405180910390fd5b600073ffffffffffffffffffffffffffffffffffffffff16600760009054906101000a900473ffffffffffffffffffffffffffffffffffffffff1673ffffffffffffffffffffffffffffffffffffffff161415611061576040517f08c379a000000000000000000000000000000000000000000000000000000000815260040161105890614dd8565b60405180910390fd5b600760009054906101000a900473ffffffffffffffffffffffffffffffffffffffff1673ffffffffffffffffffffffffffffffffffffffff166108fc349081150290604051600060405180830381858888f193505050501580156110c9573d6000803e3d6000fd5b5060006040518060600160405280600954815260200189815260200188815250905080600c60006009548152602001908152602001600020600082015181600001556020820151816001015560408201518160020155905050600f60008981526020019081526020016000206000888152602001908152602001600020600081548092919061115790614e27565b9190505550611168336009546132c7565b7f0498f141021087adeadd3da265ebdbfd15a902d680b2036004bdfee5e8d760e56009546040516111999190613fde565b60405180910390a1600960008154809291906111b490614e27565b91905055505050505050505050565b808060126000838152602001908152602001600020600001541461121c576040517f08c379a000000000000000000000000000000000000000000000000000000000815260040161121390614ee2565b60405180910390fd5b81601260008281526020019081526020016000206006015460126000838152602001908152602001600020600501541061128b576040517f08c379a000000000000000000000000000000000000000000000000000000000815260040161128290614f4e565b60405180910390fd5b6012600084815260200190815260200160002060050160008154809291906112b290614e27565b91905055506012600084815260200190815260200160002060030160009054906101000a900473ffffffffffffffffffffffffffffffffffffffff1673ffffffffffffffffffffffffffffffffffffffff166323b872dd33600760009054906101000a900473ffffffffffffffffffffffffffffffffffffffff1660126000888152602001908152602001600020600401546040518463ffffffff1660e01b815260040161136293929190614f8f565b6020604051808303816000875af1158015611381573d6000803e3d6000fd5b505050506040513d601f19601f820116820180604052508101906113a59190614fdb565b50600060405180606001604052806009548152602001601260008781526020019081526020016000206001015481526020016012600087815260200190815260200160002060020154815250905080600c600060095481526020019081526020016000206000820151816000015560208201518160010155604082015181600201559050507fbaeb640841010143548e154f0ae4df8bf319f8f6598a6c57aa6399b71e6f04df60095460405161145b9190613fde565b60405180910390a16009600081548092919061147690614e27565b919050555050505050565b61149261148c613206565b826132e5565b6114d1576040517f08c379a00000000000000000000000000000000000000000000000000000000081526004016114c89061507a565b60405180910390fd5b6114dc8383836133c3565b505050565b33600660009054906101000a900473ffffffffffffffffffffffffffffffffffffffff1673ffffffffffffffffffffffffffffffffffffffff168173ffffffffffffffffffffffffffffffffffffffff1614611572576040517f08c379a0000000000000000000000000000000000000000000000000000000008152600401611569906150e6565b60405180910390fd5b826000600d600083815260200190815260200160002060020154116115cc576040517f08c379a00000000000000000000000000000000000000000000000000000000081526004016115c390615152565b60405180910390fd5b82600d60008681526020019081526020016000206002018190555050505050565b33600660009054906101000a900473ffffffffffffffffffffffffffffffffffffffff1673ffffffffffffffffffffffffffffffffffffffff168173ffffffffffffffffffffffffffffffffffffffff161461167e576040517f08c379a0000000000000000000000000000000000000000000000000000000008152600401611675906150e6565b60405180910390fd5b836000600d600083815260200190815260200160002060020154116116d8576040517f08c379a00000000000000000000000000000000000000000000000000000000081526004016116cf90615152565b60405180910390fd5b8484600d6000838152602001908152602001600020600201548110611732576040517f08c379a0000000000000000000000000000000000000000000000000000000008152600401611729906151e4565b60405180910390fd5b6000811015611776576040517f08c379a000000000000000000000000000000000000000000000000000000000815260040161176d90615250565b60405180910390fd5b84600d600089815260200190815260200160002060030160008881526020019081526020016000208190555050505050505050565b33600660009054906101000a900473ffffffffffffffffffffffffffffffffffffffff1673ffffffffffffffffffffffffffffffffffffffff168173ffffffffffffffffffffffffffffffffffffffff161461183c576040517f08c379a0000000000000000000000000000000000000000000000000000000008152600401611833906150e6565b60405180910390fd5b836000600d60008381526020019081526020016000206002015411611896576040517f08c379a000000000000000000000000000000000000000000000000000000000815260040161188d90615152565b60405180910390fd5b8484600d60008381526020019081526020016000206002015481106118f0576040517f08c379a00000000000000000000000000000000000000000000000000000000081526004016118e7906151e4565b60405180910390fd5b6000811015611934576040517f08c379a000000000000000000000000000000000000000000000000000000000815260040161192b90615250565b60405180910390fd5b84600d600089815260200190815260200160002060040160008881526020019081526020016000208190555050505050505050565b61198483838360405180602001604052806000815250612a1a565b505050565b33600660009054906101000a900473ffffffffffffffffffffffffffffffffffffffff1673ffffffffffffffffffffffffffffffffffffffff168173ffffffffffffffffffffffffffffffffffffffff1614611a1a576040517f08c379a0000000000000000000000000000000000000000000000000000000008152600401611a11906150e6565b60405180910390fd5b81600b819055505050565b6000816009548110611a6c576040517f08c379a0000000000000000000000000000000000000000000000000000000008152600401611a63906152bc565b60405180910390fd5b6000600c600085815260200190815260200160002060405180606001604052908160008201548152602001600182015481526020016002820154815250509050600d6000826020015181526020019081526020016000206003016000826040015181526020019081526020016000205492505050919050565b6000600e6000848152602001908152602001600020600083815260200190815260200160002054905092915050565b6000826000600d60008381526020019081526020016000206002015411611b70576040517f08c379a0000000000000000000000000000000000000000000000000000000008152600401611b6790615152565b60405180910390fd5b6010600085815260200190815260200160002060008481526020019081526020016000205491505092915050565b60126020528060005260406000206000915090508060000154908060010154908060020154908060030160009054906101000a900473ffffffffffffffffffffffffffffffffffffffff16908060040154908060050154908060060154905087565b600760009054906101000a900473ffffffffffffffffffffffffffffffffffffffff1681565b6000806002600084815260200190815260200160002060009054906101000a900473ffffffffffffffffffffffffffffffffffffffff169050600073ffffffffffffffffffffffffffffffffffffffff168173ffffffffffffffffffffffffffffffffffffffff161415611ccf576040517f08c379a0000000000000000000000000000000000000000000000000000000008152600401611cc69061534e565b60405180910390fd5b80915050919050565b6010602052816000526040600020602052806000526040600020600091509150505481565b60008073ffffffffffffffffffffffffffffffffffffffff168273ffffffffffffffffffffffffffffffffffffffff161415611d6e576040517f08c379a0000000000000000000000000000000000000000000000000000000008152600401611d65906153e0565b60405180910390fd5b600360008373ffffffffffffffffffffffffffffffffffffffff1673ffffffffffffffffffffffffffffffffffffffff168152602001908152602001600020549050919050565b600b5481565b6000826000600d60008381526020019081526020016000206002015411611e17576040517f08c379a0000000000000000000000000000000000000000000000000000000008152600401611e0e90615152565b60405180910390fd5b8383600d6000838152602001908152602001600020600201548110611e71576040517f08c379a0000000000000000000000000000000000000000000000000000000008152600401611e68906151e4565b60405180910390fd5b6000811015611eb5576040517f08c379a0000000000000000000000000000000000000000000000000000000008152600401611eac90615250565b60405180910390fd5b600d6000878152602001908152602001600020600401600086815260200190815260200160002054935050505092915050565b33600660009054906101000a900473ffffffffffffffffffffffffffffffffffffffff1673ffffffffffffffffffffffffffffffffffffffff168173ffffffffffffffffffffffffffffffffffffffff1614611f79576040517f08c379a0000000000000000000000000000000000000000000000000000000008152600401611f70906150e6565b60405180910390fd5b81600760006101000a81548173ffffffffffffffffffffffffffffffffffffffff021916908373ffffffffffffffffffffffffffffffffffffffff1602179055505050565b600660009054906101000a900473ffffffffffffffffffffffffffffffffffffffff1681565b8181336000601160008373ffffffffffffffffffffffffffffffffffffffff1673ffffffffffffffffffffffffffffffffffffffff16815260200190815260200160002060008581526020019081526020016000206000848152602001908152602001600020541161208b576040517f08c379a00000000000000000000000000000000000000000000000000000000081526004016120829061544c565b60405180910390fd5b600b54600a54106120d1576040517f08c379a00000000000000000000000000000000000000000000000000000000081526004016120c8906154b8565b60405180910390fd5b601160003373ffffffffffffffffffffffffffffffffffffffff1673ffffffffffffffffffffffffffffffffffffffff168152602001908152602001600020600086815260200190815260200160002060008581526020019081526020016000206000815480929190612143906154d8565b9190505550600a600081548092919061215b90614e27565b919050555060006040518060600160405280600954815260200187815260200186815250905080600c60006009548152602001908152602001600020600082015181600001556020820151816001015560408201518160020155905050600f6000878152602001908152602001600020600086815260200190815260200160002060008154809291906121ed90614e27565b91905055507f923d4248293acf78995ad5e52966001aaaf76b3db09d476879f9b3a67afcb9856009546040516122239190613fde565b60405180910390a16009600081548092919061223e90614e27565b9190505550505050505050565b60606001805461225a90614acc565b80601f016020809104026020016040519081016040528092919081815260200182805461228690614acc565b80156122d35780601f106122a8576101008083540402835291602001916122d3565b820191906000526020600020905b8154815290600101906020018083116122b657829003601f168201915b5050505050905090565b600f602052816000526040600020602052806000526040600020600091509150505481565b33600660009054906101000a900473ffffffffffffffffffffffffffffffffffffffff1673ffffffffffffffffffffffffffffffffffffffff168173ffffffffffffffffffffffffffffffffffffffff1614612393576040517f08c379a000000000000000000000000000000000000000000000000000000000815260040161238a906150e6565b60405180910390fd5b856000600d600083815260200190815260200160002060020154116123ed576040517f08c379a00000000000000000000000000000000000000000000000000000000081526004016123e490615152565b60405180910390fd5b8686600d6000838152602001908152602001600020600201548110612447576040517f08c379a000000000000000000000000000000000000000000000000000000000815260040161243e906151e4565b60405180910390fd5b600081101561248b576040517f08c379a000000000000000000000000000000000000000000000000000000000815260040161248290615250565b60405180910390fd5b6040518060e001604052808b81526020018a81526020018981526020018873ffffffffffffffffffffffffffffffffffffffff1681526020018781526020016000815260200186815250601260008c815260200190815260200160002060008201518160000155602082015181600101556040820151816002015560608201518160030160006101000a81548173ffffffffffffffffffffffffffffffffffffffff021916908373ffffffffffffffffffffffffffffffffffffffff1602179055506080820151816004015560a0820151816005015560c0820151816006015590505050505050505050505050565b8060095481106125bf576040517f08c379a00000000000000000000000000000000000000000000000000000000081526004016125b6906152bc565b60405180910390fd5b3373ffffffffffffffffffffffffffffffffffffffff166125df83611c26565b73ffffffffffffffffffffffffffffffffffffffff1614612635576040517f08c379a000000000000000000000000000000000000000000000000000000000815260040161262c9061554e565b60405180910390fd5b6000600c6000848152602001908152602001600020604051806060016040529081600082015481526020016001820154815260200160028201548152505090506000600d600083602001518152602001908152602001600020905080600201548260400151106126da576040517f08c379a00000000000000000000000000000000000000000000000000000000081526004016126d1906155ba565b60405180910390fd5b6000816004016000600185604001516126f391906155da565b815260200190815260200160002054905060008111612747576040517f08c379a000000000000000000000000000000000000000000000000000000000815260040161273e906156a2565b60405180910390fd5b600860009054906101000a900473ffffffffffffffffffffffffffffffffffffffff1673ffffffffffffffffffffffffffffffffffffffff166323b872dd33600760009054906101000a900473ffffffffffffffffffffffffffffffffffffffff16846040518463ffffffff1660e01b81526004016127c893929190614f8f565b6020604051808303816000875af11580156127e7573d6000803e3d6000fd5b505050506040513d601f19601f8201168201806040525081019061280b9190614fdb565b506001836040015161281d91906155da565b600c6000878152602001908152602001600020600201819055507f08a4553aa8d794fe7132b2cc08f76d26c077418968708cf78eedce927e27c05e856040516128669190613fde565b60405180910390a15050505050565b612887612880613206565b838361362a565b5050565b612893613d55565b8160095481106128d8576040517f08c379a00000000000000000000000000000000000000000000000000000000081526004016128cf906152bc565b60405180910390fd5b600c60008481526020019081526020016000206040518060600160405290816000820154815260200160018201548152602001600282015481525050915050919050565b33600660009054906101000a900473ffffffffffffffffffffffffffffffffffffffff1673ffffffffffffffffffffffffffffffffffffffff168173ffffffffffffffffffffffffffffffffffffffff16146129ad576040517f08c379a00000000000000000000000000000000000000000000000000000000081526004016129a4906150e6565b60405180910390fd5b81601160008773ffffffffffffffffffffffffffffffffffffffff1673ffffffffffffffffffffffffffffffffffffffff16815260200190815260200160002060008681526020019081526020016000206000858152602001908152602001600020819055505050505050565b612a2b612a25613206565b836132e5565b612a6a576040517f08c379a0000000000000000000000000000000000000000000000000000000008152600401612a619061507a565b60405180910390fd5b612a7684848484613797565b50505050565b33600660009054906101000a900473ffffffffffffffffffffffffffffffffffffffff1673ffffffffffffffffffffffffffffffffffffffff168173ffffffffffffffffffffffffffffffffffffffff1614612b0d576040517f08c379a0000000000000000000000000000000000000000000000000000000008152600401612b04906150e6565b60405180910390fd5b866000600d60008381526020019081526020016000206002015414612b67576040517f08c379a0000000000000000000000000000000000000000000000000000000008152600401612b5e9061570e565b60405180910390fd5b87600d60008a81526020019081526020016000206000018190555086600d60008a81526020019081526020016000206001019080519060200190612bac929190613d76565b5085601060008a815260200190815260200160002060008081526020019081526020016000208190555084600d60008a81526020019081526020016000206002018190555060005b85811015612c9b57848181518110612c0f57612c0e61572e565b5b6020026020010151600d60008b8152602001908152602001600020600301600083815260200190815260200160002081905550838181518110612c5557612c5461572e565b5b6020026020010151600d60008b81526020019081526020016000206004016000838152602001908152602001600020819055508080612c9390614e27565b915050612bf4565b507f7ab3fb987ec2924804068fdb0e3f35d58f0b2a201f4af1fa5e8fad5f878f24b988604051612ccb9190613fde565b60405180910390a15050505050505050565b600e602052816000526040600020602052806000526040600020600091509150505481565b6060612d0d8261319a565b612d4c576040517f08c379a0000000000000000000000000000000000000000000000000000000008152600401612d43906157cf565b60405180910390fd5b6000612d566137f3565b90506000815111612d765760405180602001604052806000815250612da1565b80612d808461380a565b604051602001612d9192919061582b565b6040516020818303038152906040525b915050919050565b600860009054906101000a900473ffffffffffffffffffffffffffffffffffffffff1681565b6000600a54905090565b6000600560008473ffffffffffffffffffffffffffffffffffffffff1673ffffffffffffffffffffffffffffffffffffffff16815260200190815260200160002060008373ffffffffffffffffffffffffffffffffffffffff1673ffffffffffffffffffffffffffffffffffffffff16815260200190815260200160002060009054906101000a900460ff16905092915050565b33600660009054906101000a900473ffffffffffffffffffffffffffffffffffffffff1673ffffffffffffffffffffffffffffffffffffffff168173ffffffffffffffffffffffffffffffffffffffff1614612efe576040517f08c379a0000000000000000000000000000000000000000000000000000000008152600401612ef5906150e6565b60405180910390fd5b81600e600086815260200190815260200160002060008581526020019081526020016000208190555050505050565b33600660009054906101000a900473ffffffffffffffffffffffffffffffffffffffff1673ffffffffffffffffffffffffffffffffffffffff168173ffffffffffffffffffffffffffffffffffffffff1614612fbe576040517f08c379a0000000000000000000000000000000000000000000000000000000008152600401612fb5906150e6565b60405180910390fd5b836000600d60008381526020019081526020016000206002015411613018576040517f08c379a000000000000000000000000000000000000000000000000000000000815260040161300f90615152565b60405180910390fd5b82601060008781526020019081526020016000206000868152602001908152602001600020819055505050505050565b600a5481565b600d60205280600052604060002060009150905080600001549080600101805461307790614acc565b80601f01602080910402602001604051908101604052809291908181526020018280546130a390614acc565b80156130f05780601f106130c5576101008083540402835291602001916130f0565b820191906000526020600020905b8154815290600101906020018083116130d357829003601f168201915b5050505050908060020154905083565b600c6020528060005260406000206000915090508060000154908060010154908060020154905083565b60095481565b60007f01ffc9a7000000000000000000000000000000000000000000000000000000007bffffffffffffffffffffffffffffffffffffffffffffffffffffffff1916827bffffffffffffffffffffffffffffffffffffffffffffffffffffffff1916149050919050565b60008073ffffffffffffffffffffffffffffffffffffffff166002600084815260200190815260200160002060009054906101000a900473ffffffffffffffffffffffffffffffffffffffff1673ffffffffffffffffffffffffffffffffffffffff1614159050919050565b600033905090565b816004600083815260200190815260200160002060006101000a81548173ffffffffffffffffffffffffffffffffffffffff021916908373ffffffffffffffffffffffffffffffffffffffff160217905550808273ffffffffffffffffffffffffffffffffffffffff1661328183611c26565b73ffffffffffffffffffffffffffffffffffffffff167f8c5be1e5ebec7d5bd14f71427d1e84f3dd0314c0f7b2291e5b200ac8c7c3b92560405160405180910390a45050565b6132e182826040518060200160405280600081525061396b565b5050565b60006132f08261319a565b61332f576040517f08c379a0000000000000000000000000000000000000000000000000000000008152600401613326906158c1565b60405180910390fd5b600061333a83611c26565b90508073ffffffffffffffffffffffffffffffffffffffff168473ffffffffffffffffffffffffffffffffffffffff1614806133a957508373ffffffffffffffffffffffffffffffffffffffff1661339184610d33565b73ffffffffffffffffffffffffffffffffffffffff16145b806133ba57506133b98185612dd9565b5b91505092915050565b8273ffffffffffffffffffffffffffffffffffffffff166133e382611c26565b73ffffffffffffffffffffffffffffffffffffffff1614613439576040517f08c379a000000000000000000000000000000000000000000000000000000000815260040161343090615953565b60405180910390fd5b600073ffffffffffffffffffffffffffffffffffffffff168273ffffffffffffffffffffffffffffffffffffffff1614156134a9576040517f08c379a00000000000000000000000000000000000000000000000000000000081526004016134a0906159e5565b60405180910390fd5b6134b48383836139c6565b6134bf60008261320e565b6001600360008573ffffffffffffffffffffffffffffffffffffffff1673ffffffffffffffffffffffffffffffffffffffff168152602001908152602001600020600082825461350f9190615a05565b925050819055506001600360008473ffffffffffffffffffffffffffffffffffffffff1673ffffffffffffffffffffffffffffffffffffffff168152602001908152602001600020600082825461356691906155da565b92505081905550816002600083815260200190815260200160002060006101000a81548173ffffffffffffffffffffffffffffffffffffffff021916908373ffffffffffffffffffffffffffffffffffffffff160217905550808273ffffffffffffffffffffffffffffffffffffffff168473ffffffffffffffffffffffffffffffffffffffff167fddf252ad1be2c89b69c2b068fc378daa952ba7f163c4a11628f55a4df523b3ef60405160405180910390a46136258383836139cb565b505050565b8173ffffffffffffffffffffffffffffffffffffffff168373ffffffffffffffffffffffffffffffffffffffff161415613699576040517f08c379a000000000000000000000000000000000000000000000000000000000815260040161369090615a85565b60405180910390fd5b80600560008573ffffffffffffffffffffffffffffffffffffffff1673ffffffffffffffffffffffffffffffffffffffff16815260200190815260200160002060008473ffffffffffffffffffffffffffffffffffffffff1673ffffffffffffffffffffffffffffffffffffffff16815260200190815260200160002060006101000a81548160ff0219169083151502179055508173ffffffffffffffffffffffffffffffffffffffff168373ffffffffffffffffffffffffffffffffffffffff167f17307eab39ab6107e8899845ad3d59bd9653f200f220920489ca2b5937696c318360405161378a9190613ecd565b60405180910390a3505050565b6137a28484846133c3565b6137ae848484846139d0565b6137ed576040517f08c379a00000000000000000000000000000000000000000000000000000000081526004016137e490615b17565b60405180910390fd5b50505050565b606060405180602001604052806000815250905090565b60606000821415613852576040518060400160405280600181526020017f30000000000000000000000000000000000000000000000000000000000000008152509050613966565b600082905060005b6000821461388457808061386d90614e27565b915050600a8261387d9190615b66565b915061385a565b60008167ffffffffffffffff8111156138a05761389f6145d5565b5b6040519080825280601f01601f1916602001820160405280156138d25781602001600182028036833780820191505090505b5090505b6000851461395f576001826138eb9190615a05565b9150600a856138fa9190615b97565b603061390691906155da565b60f81b81838151811061391c5761391b61572e565b5b60200101907effffffffffffffffffffffffffffffffffffffffffffffffffffffffffffff1916908160001a905350600a856139589190615b66565b94506138d6565b8093505050505b919050565b6139758383613b58565b61398260008484846139d0565b6139c1576040517f08c379a00000000000000000000000000000000000000000000000000000000081526004016139b890615b17565b60405180910390fd5b505050565b505050565b505050565b60006139f18473ffffffffffffffffffffffffffffffffffffffff16613d32565b15613b4b578373ffffffffffffffffffffffffffffffffffffffff1663150b7a02613a1a613206565b8786866040518563ffffffff1660e01b8152600401613a3c9493929190615c1d565b6020604051808303816000875af1925050508015613a7857506040513d601f19601f82011682018060405250810190613a759190615c7e565b60015b613afb573d8060008114613aa8576040519150601f19603f3d011682016040523d82523d6000602084013e613aad565b606091505b50600081511415613af3576040517f08c379a0000000000000000000000000000000000000000000000000000000008152600401613aea90615b17565b60405180910390fd5b805181602001fd5b63150b7a0260e01b7bffffffffffffffffffffffffffffffffffffffffffffffffffffffff1916817bffffffffffffffffffffffffffffffffffffffffffffffffffffffff191614915050613b50565b600190505b949350505050565b600073ffffffffffffffffffffffffffffffffffffffff168273ffffffffffffffffffffffffffffffffffffffff161415613bc8576040517f08c379a0000000000000000000000000000000000000000000000000000000008152600401613bbf90615cf7565b60405180910390fd5b613bd18161319a565b15613c11576040517f08c379a0000000000000000000000000000000000000000000000000000000008152600401613c0890615d63565b60405180910390fd5b613c1d600083836139c6565b6001600360008473ffffffffffffffffffffffffffffffffffffffff1673ffffffffffffffffffffffffffffffffffffffff1681526020019081526020016000206000828254613c6d91906155da565b92505081905550816002600083815260200190815260200160002060006101000a81548173ffffffffffffffffffffffffffffffffffffffff021916908373ffffffffffffffffffffffffffffffffffffffff160217905550808273ffffffffffffffffffffffffffffffffffffffff16600073ffffffffffffffffffffffffffffffffffffffff167fddf252ad1be2c89b69c2b068fc378daa952ba7f163c4a11628f55a4df523b3ef60405160405180910390a4613d2e600083836139cb565b5050565b6000808273ffffffffffffffffffffffffffffffffffffffff163b119050919050565b60405180606001604052806000815260200160008152602001600081525090565b828054613d8290614acc565b90600052602060002090601f016020900481019282613da45760008555613deb565b82601f10613dbd57805160ff1916838001178555613deb565b82800160010185558215613deb579182015b82811115613dea578251825591602001919060010190613dcf565b5b509050613df89190613dfc565b5090565b5b80821115613e15576000816000905550600101613dfd565b5090565b6000604051905090565b600080fd5b600080fd5b60007fffffffff0000000000000000000000000000000000000000000000000000000082169050919050565b613e6281613e2d565b8114613e6d57600080fd5b50565b600081359050613e7f81613e59565b92915050565b600060208284031215613e9b57613e9a613e23565b5b6000613ea984828501613e70565b91505092915050565b60008115159050919050565b613ec781613eb2565b82525050565b6000602082019050613ee26000830184613ebe565b92915050565b600073ffffffffffffffffffffffffffffffffffffffff82169050919050565b6000613f1382613ee8565b9050919050565b613f2381613f08565b8114613f2e57600080fd5b50565b600081359050613f4081613f1a565b92915050565b6000819050919050565b613f5981613f46565b8114613f6457600080fd5b50565b600081359050613f7681613f50565b92915050565b600080600060608486031215613f9557613f94613e23565b5b6000613fa386828701613f31565b9350506020613fb486828701613f67565b9250506040613fc586828701613f67565b9150509250925092565b613fd881613f46565b82525050565b6000602082019050613ff36000830184613fcf565b92915050565b600081519050919050565b600082825260208201905092915050565b60005b83811015614033578082015181840152602081019050614018565b83811115614042576000848401525b50505050565b6000601f19601f8301169050919050565b600061406482613ff9565b61406e8185614004565b935061407e818560208601614015565b61408781614048565b840191505092915050565b600060208201905081810360008301526140ac8184614059565b905092915050565b6000602082840312156140ca576140c9613e23565b5b60006140d884828501613f67565b91505092915050565b6140ea81613f08565b82525050565b600060208201905061410560008301846140e1565b92915050565b6000806040838503121561412257614121613e23565b5b600061413085828601613f31565b925050602061414185828601613f67565b9150509250929050565b6000806040838503121561416257614161613e23565b5b600061417085828601613f67565b925050602061418185828601613f67565b9150509250929050565b6000806000606084860312156141a4576141a3613e23565b5b60006141b286828701613f31565b93505060206141c386828701613f31565b92505060406141d486828701613f67565b9150509250925092565b6000806000606084860312156141f7576141f6613e23565b5b600061420586828701613f67565b935050602061421686828701613f67565b925050604061422786828701613f67565b9150509250925092565b6000819050919050565b600061425661425161424c84613ee8565b614231565b613ee8565b9050919050565b60006142688261423b565b9050919050565b600061427a8261425d565b9050919050565b61428a8161426f565b82525050565b600060e0820190506142a5600083018a613fcf565b6142b26020830189613fcf565b6142bf6040830188613fcf565b6142cc6060830187614281565b6142d96080830186613fcf565b6142e660a0830185613fcf565b6142f360c0830184613fcf565b98975050505050505050565b600061430a82613ee8565b9050919050565b61431a816142ff565b82525050565b60006020820190506143356000830184614311565b92915050565b60006020828403121561435157614350613e23565b5b600061435f84828501613f31565b91505092915050565b614371816142ff565b811461437c57600080fd5b50565b60008135905061438e81614368565b92915050565b6000602082840312156143aa576143a9613e23565b5b60006143b88482850161437f565b91505092915050565b60006143cc82613f08565b9050919050565b6143dc816143c1565b81146143e757600080fd5b50565b6000813590506143f9816143d3565b92915050565b60008060008060008060c0878903121561441c5761441b613e23565b5b600061442a89828a01613f67565b965050602061443b89828a01613f67565b955050604061444c89828a01613f67565b945050606061445d89828a016143ea565b935050608061446e89828a01613f67565b92505060a061447f89828a01613f67565b9150509295509295509295565b61449581613eb2565b81146144a057600080fd5b50565b6000813590506144b28161448c565b92915050565b600080604083850312156144cf576144ce613e23565b5b60006144dd85828601613f31565b92505060206144ee858286016144a3565b9150509250929050565b61450181613f46565b82525050565b60608201600082015161451d60008501826144f8565b50602082015161453060208501826144f8565b50604082015161454360408501826144f8565b50505050565b600060608201905061455e6000830184614507565b92915050565b6000806000806080858703121561457e5761457d613e23565b5b600061458c87828801613f31565b945050602061459d87828801613f67565b93505060406145ae87828801613f67565b92505060606145bf87828801613f67565b91505092959194509250565b600080fd5b600080fd5b7f4e487b7100000000000000000000000000000000000000000000000000000000600052604160045260246000fd5b61460d82614048565b810181811067ffffffffffffffff8211171561462c5761462b6145d5565b5b80604052505050565b600061463f613e19565b905061464b8282614604565b919050565b600067ffffffffffffffff82111561466b5761466a6145d5565b5b61467482614048565b9050602081019050919050565b82818337600083830152505050565b60006146a361469e84614650565b614635565b9050828152602081018484840111156146bf576146be6145d0565b5b6146ca848285614681565b509392505050565b600082601f8301126146e7576146e66145cb565b5b81356146f7848260208601614690565b91505092915050565b6000806000806080858703121561471a57614719613e23565b5b600061472887828801613f31565b945050602061473987828801613f31565b935050604061474a87828801613f67565b925050606085013567ffffffffffffffff81111561476b5761476a613e28565b5b614777878288016146d2565b91505092959194509250565b600067ffffffffffffffff82111561479e5761479d6145d5565b5b6147a782614048565b9050602081019050919050565b60006147c76147c284614783565b614635565b9050828152602081018484840111156147e3576147e26145d0565b5b6147ee848285614681565b509392505050565b600082601f83011261480b5761480a6145cb565b5b813561481b8482602086016147b4565b91505092915050565b600067ffffffffffffffff82111561483f5761483e6145d5565b5b602082029050602081019050919050565b600080fd5b600061486861486384614824565b614635565b9050808382526020820190506020840283018581111561488b5761488a614850565b5b835b818110156148b457806148a08882613f67565b84526020840193505060208101905061488d565b5050509392505050565b600082601f8301126148d3576148d26145cb565b5b81356148e3848260208601614855565b91505092915050565b60008060008060008060c0878903121561490957614908613e23565b5b600061491789828a01613f67565b965050602087013567ffffffffffffffff81111561493857614937613e28565b5b61494489828a016147f6565b955050604061495589828a01613f67565b945050606061496689828a01613f67565b935050608087013567ffffffffffffffff81111561498757614986613e28565b5b61499389828a016148be565b92505060a087013567ffffffffffffffff8111156149b4576149b3613e28565b5b6149c089828a016148be565b9150509295509295509295565b60006020820190506149e26000830184614281565b92915050565b600080604083850312156149ff576149fe613e23565b5b6000614a0d85828601613f31565b9250506020614a1e85828601613f31565b9150509250929050565b6000606082019050614a3d6000830186613fcf565b8181036020830152614a4f8185614059565b9050614a5e6040830184613fcf565b949350505050565b6000606082019050614a7b6000830186613fcf565b614a886020830185613fcf565b614a956040830184613fcf565b949350505050565b7f4e487b7100000000000000000000000000000000000000000000000000000000600052602260045260246000fd5b60006002820490506001821680614ae457607f821691505b60208210811415614af857614af7614a9d565b5b50919050565b7f4552433732313a20617070726f76656420717565727920666f72206e6f6e657860008201527f697374656e7420746f6b656e0000000000000000000000000000000000000000602082015250565b6000614b5a602c83614004565b9150614b6582614afe565b604082019050919050565b60006020820190508181036000830152614b8981614b4d565b9050919050565b7f4552433732313a20617070726f76616c20746f2063757272656e74206f776e6560008201527f7200000000000000000000000000000000000000000000000000000000000000602082015250565b6000614bec602183614004565b9150614bf782614b90565b604082019050919050565b60006020820190508181036000830152614c1b81614bdf565b9050919050565b7f4552433732313a20617070726f76652063616c6c6572206973206e6f74206f7760008201527f6e6572206e6f7220617070726f76656420666f7220616c6c0000000000000000602082015250565b6000614c7e603883614004565b9150614c8982614c22565b604082019050919050565b60006020820190508181036000830152614cad81614c71565b9050919050565b7f6d696e74206e6f7420617661696c61626c650000000000000000000000000000600082015250565b6000614cea601283614004565b9150614cf582614cb4565b602082019050919050565b60006020820190508181036000830152614d1981614cdd565b9050919050565b7f696e636f7272656374206d696e74207072696365000000000000000000000000600082015250565b6000614d56601483614004565b9150614d6182614d20565b602082019050919050565b60006020820190508181036000830152614d8581614d49565b9050919050565b7f74726561737572792061646472657373206973206e6f74207365740000000000600082015250565b6000614dc2601b83614004565b9150614dcd82614d8c565b602082019050919050565b60006020820190508181036000830152614df181614db5565b9050919050565b7f4e487b7100000000000000000000000000000000000000000000000000000000600052601160045260246000fd5b6000614e3282613f46565b91507fffffffffffffffffffffffffffffffffffffffffffffffffffffffffffffffff821415614e6557614e64614df8565b5b600182019050919050565b7f616c7465726e6174697665206d696e7420696420646f65736e2774206578697360008201527f7400000000000000000000000000000000000000000000000000000000000000602082015250565b6000614ecc602183614004565b9150614ed782614e70565b604082019050919050565b60006020820190508181036000830152614efb81614ebf565b9050919050565b7f6e6f206d696e7473206c65667400000000000000000000000000000000000000600082015250565b6000614f38600d83614004565b9150614f4382614f02565b602082019050919050565b60006020820190508181036000830152614f6781614f2b565b9050919050565b6000614f798261425d565b9050919050565b614f8981614f6e565b82525050565b6000606082019050614fa460008301866140e1565b614fb16020830185614f80565b614fbe6040830184613fcf565b949350505050565b600081519050614fd58161448c565b92915050565b600060208284031215614ff157614ff0613e23565b5b6000614fff84828501614fc6565b91505092915050565b7f4552433732313a207472616e736665722063616c6c6572206973206e6f74206f60008201527f776e6572206e6f7220617070726f766564000000000000000000000000000000602082015250565b6000615064603183614004565b915061506f82615008565b604082019050919050565b6000602082019050818103600083015261509381615057565b9050919050565b7f6e6f74206f776e65720000000000000000000000000000000000000000000000600082015250565b60006150d0600983614004565b91506150db8261509a565b602082019050919050565b600060208201905081810360008301526150ff816150c3565b9050919050565b7f6472696c6c207479706520646f6573206e6f7420657869737400000000000000600082015250565b600061513c601983614004565b915061514782615106565b602082019050919050565b6000602082019050818103600083015261516b8161512f565b9050919050565b7f6c6576656c2069732067726561746572207468616e206d6178206c6576656c2060008201527f666f7220676976656e206472696c6c2074797065000000000000000000000000602082015250565b60006151ce603483614004565b91506151d982615172565b604082019050919050565b600060208201905081810360008301526151fd816151c1565b9050919050565b7f6c6576656c206973206e65676174697665000000000000000000000000000000600082015250565b600061523a601183614004565b915061524582615204565b602082019050919050565b600060208201905081810360008301526152698161522d565b9050919050565b7f6472696c6c20646f6573206e6f74206578697374000000000000000000000000600082015250565b60006152a6601483614004565b91506152b182615270565b602082019050919050565b600060208201905081810360008301526152d581615299565b9050919050565b7f4552433732313a206f776e657220717565727920666f72206e6f6e657869737460008201527f656e7420746f6b656e0000000000000000000000000000000000000000000000602082015250565b6000615338602983614004565b9150615343826152dc565b604082019050919050565b600060208201905081810360008301526153678161532b565b9050919050565b7f4552433732313a2062616c616e636520717565727920666f7220746865207a6560008201527f726f206164647265737300000000000000000000000000000000000000000000602082015250565b60006153ca602a83614004565b91506153d58261536e565b604082019050919050565b600060208201905081810360008301526153f9816153bd565b9050919050565b7f66726565206d696e74206e6f7420617661696c61626c65000000000000000000600082015250565b6000615436601783614004565b915061544182615400565b602082019050919050565b6000602082019050818103600083015261546581615429565b9050919050565b7f66726565206d696e742065786365656473206d617820617661696c61626c6500600082015250565b60006154a2601f83614004565b91506154ad8261546c565b602082019050919050565b600060208201905081810360008301526154d181615495565b9050919050565b60006154e382613f46565b915060008214156154f7576154f6614df8565b5b600182039050919050565b7f6472696c6c206e6f74206f776e65640000000000000000000000000000000000600082015250565b6000615538600f83614004565b915061554382615502565b602082019050919050565b600060208201905081810360008301526155678161552b565b9050919050565b7f6472696c6c206174206d6178206c6576656c0000000000000000000000000000600082015250565b60006155a4601283614004565b91506155af8261556e565b602082019050919050565b600060208201905081810360008301526155d381615597565b9050919050565b60006155e582613f46565b91506155f083613f46565b9250827fffffffffffffffffffffffffffffffffffffffffffffffffffffffffffffffff0382111561562557615624614df8565b5b828201905092915050565b7f616d6f756e7420666f722075706772616465206e6f742067726561746572207460008201527f68616e207a65726f000000000000000000000000000000000000000000000000602082015250565b600061568c602883614004565b915061569782615630565b604082019050919050565b600060208201905081810360008301526156bb8161567f565b9050919050565b7f6472696c6c207479706520616c72656164792065786973747300000000000000600082015250565b60006156f8601983614004565b9150615703826156c2565b602082019050919050565b60006020820190508181036000830152615727816156eb565b9050919050565b7f4e487b7100000000000000000000000000000000000000000000000000000000600052603260045260246000fd5b7f4552433732314d657461646174613a2055524920717565727920666f72206e6f60008201527f6e6578697374656e7420746f6b656e0000000000000000000000000000000000602082015250565b60006157b9602f83614004565b91506157c48261575d565b604082019050919050565b600060208201905081810360008301526157e8816157ac565b9050919050565b600081905092915050565b600061580582613ff9565b61580f81856157ef565b935061581f818560208601614015565b80840191505092915050565b600061583782856157fa565b915061584382846157fa565b91508190509392505050565b7f4552433732313a206f70657261746f7220717565727920666f72206e6f6e657860008201527f697374656e7420746f6b656e0000000000000000000000000000000000000000602082015250565b60006158ab602c83614004565b91506158b68261584f565b604082019050919050565b600060208201905081810360008301526158da8161589e565b9050919050565b7f4552433732313a207472616e736665722066726f6d20696e636f72726563742060008201527f6f776e6572000000000000000000000000000000000000000000000000000000602082015250565b600061593d602583614004565b9150615948826158e1565b604082019050919050565b6000602082019050818103600083015261596c81615930565b9050919050565b7f4552433732313a207472616e7366657220746f20746865207a65726f2061646460008201527f7265737300000000000000000000000000000000000000000000000000000000602082015250565b60006159cf602483614004565b91506159da82615973565b604082019050919050565b600060208201905081810360008301526159fe816159c2565b9050919050565b6000615a1082613f46565b9150615a1b83613f46565b925082821015615a2e57615a2d614df8565b5b828203905092915050565b7f4552433732313a20617070726f766520746f2063616c6c657200000000000000600082015250565b6000615a6f601983614004565b9150615a7a82615a39565b602082019050919050565b60006020820190508181036000830152615a9e81615a62565b9050919050565b7f4552433732313a207472616e7366657220746f206e6f6e20455243373231526560008201527f63656976657220696d706c656d656e7465720000000000000000000000000000602082015250565b6000615b01603283614004565b9150615b0c82615aa5565b604082019050919050565b60006020820190508181036000830152615b3081615af4565b9050919050565b7f4e487b7100000000000000000000000000000000000000000000000000000000600052601260045260246000fd5b6000615b7182613f46565b9150615b7c83613f46565b925082615b8c57615b8b615b37565b5b828204905092915050565b6000615ba282613f46565b9150615bad83613f46565b925082615bbd57615bbc615b37565b5b828206905092915050565b600081519050919050565b600082825260208201905092915050565b6000615bef82615bc8565b615bf98185615bd3565b9350615c09818560208601614015565b615c1281614048565b840191505092915050565b6000608082019050615c3260008301876140e1565b615c3f60208301866140e1565b615c4c6040830185613fcf565b8181036060830152615c5e8184615be4565b905095945050505050565b600081519050615c7881613e59565b92915050565b600060208284031215615c9457615c93613e23565b5b6000615ca284828501615c69565b91505092915050565b7f4552433732313a206d696e7420746f20746865207a65726f2061646472657373600082015250565b6000615ce1602083614004565b9150615cec82615cab565b602082019050919050565b60006020820190508181036000830152615d1081615cd4565b9050919050565b7f4552433732313a20746f6b656e20616c7265616479206d696e74656400000000600082015250565b6000615d4d601c83614004565b9150615d5882615d17565b602082019050919050565b60006020820190508181036000830152615d7c81615d40565b905091905056fea2646970667358221220b6dab07dfd8f9682b5229fc9d933781f4d79fcb9d69470e65eb0075e66dad8a164736f6c634300080b0033",
  "immutableReferences": {},
  "source": "// SPDX-License-Identifier: MIT\n\npragma solidity ^0.8.0;\n\nimport \"@openzeppelin/contracts/token/ERC721/ERC721.sol\";\nimport \"@openzeppelin/contracts/token/ERC20/IERC20.sol\";\n\ncontract MineEmpireDrill is ERC721 {\n    address public owner;\n    address payable public treasury;\n    IERC20 public cosmicCash;\n    uint public nextDrillId = 1;\n    uint public totalFreeMints = 0;\n    uint public maxFreeMints = 0;\n\n    struct Drill {\n        uint drillId;\n        uint drillType;\n        uint level;\n    }\n\n    struct DrillTypeInfo {\n        uint drillType;\n        string drillName;\n        uint maxLevel;\n        mapping(uint => uint) miningPowerAtLevel;\n        mapping(uint => uint) upgradeRequirements;\n    }\n\n    struct AlternativeMint {\n        uint alternativeMintId;\n        uint drillType;\n        uint level;\n        IERC20 currency;\n        uint price;\n        uint minted;\n        uint maxMintsAllowed;\n    }\n\n    mapping(uint => Drill) public drillIdToDrillMap;\n    mapping(uint => DrillTypeInfo) public drillTypeToDrillStatsMap;\n    // type -> level -> available\n    mapping(uint => mapping(uint => uint)) public drillsAvailableAtLevel;\n    mapping(uint => mapping(uint => uint)) public drillsMintedAtLevel;\n    mapping(uint => mapping(uint => uint)) public drillPriceAtLevel;\n    mapping(address => mapping(uint => mapping(uint => uint))) public freeMints;\n    mapping(uint => AlternativeMint) public alternativeMints;\n\n    constructor(IERC20 _cosmicCash) ERC721(\"Mine Empire Drill\", \"DRILL\") {\n        owner = msg.sender;\n        cosmicCash = _cosmicCash;\n        drillsAvailableAtLevel[1][0] = 100;\n    }\n\n    // EVENTS\n    event LogDrillTypeAdded(uint _type);\n    event LogMint(uint _drillId);\n    event LogFreeMint(uint _drillId);\n    event LogAlternativeMint(uint _drillId);\n    event LogDrillUpgrade(uint _drillId);\n\n    // MODIFIERS\n    modifier onlyOwner(address _address) {\n        require(_address == owner, \"not owner\");\n        _;\n    }\n\n    modifier mintAvailable(uint _type, uint _level) {\n        require (drillsMintedAtLevel[_type][_level] < drillsAvailableAtLevel[_type][_level], \"mint not available\");\n        _;\n    }\n\n    modifier freeMintAvailable(uint _type, uint _level, address _user) {\n        require (freeMints[_user][_type][_level] > 0, \"free mint not available\");\n        require (totalFreeMints < maxFreeMints, \"free mint exceeds max available\");\n        _;\n    }\n\n    modifier drillExists(uint _drillId) {\n        require(_drillId < nextDrillId, \"drill does not exist\");\n        _;\n    }\n\n    modifier drillTypeExists(uint _drillType) {\n        require(drillTypeToDrillStatsMap[_drillType].maxLevel > 0, \"drill type does not exist\");\n        _;\n    }\n\n    modifier drillTypeNotExists(uint _drillType) {\n        require(drillTypeToDrillStatsMap[_drillType].maxLevel == 0, \"drill type already exists\");\n        _;\n    }\n\n    modifier drillTypeLevelWithinBounds(uint _type, uint _level) {\n        require(_level < drillTypeToDrillStatsMap[_type].maxLevel, \"level is greater than max level for given drill type\");\n        require(_level >= 0, \"level is negative\");\n        _;\n    }\n\n    modifier correctMintPrice(uint _type, uint _level, uint _mintPrice) {\n        require(drillPriceAtLevel[_type][_level] == _mintPrice, \"incorrect mint price\");\n        _;\n    }\n\n    modifier altMintExists(uint _id) {\n        require(alternativeMints[_id].alternativeMintId == _id, \"alternative mint id doesn't exist\");\n        _;\n    }\n\n    modifier altMintAvailable(uint _id) {\n        require(alternativeMints[_id].minted < alternativeMints[_id].maxMintsAllowed, \"no mints left\");\n        _;\n    }\n\n    // ONLY OWNER\n    \n    function updateTreasuryAddress(address payable _address) public onlyOwner(msg.sender) {\n        treasury = _address;\n    }\n\n    function addNewDrillType(\n        uint _type,\n        string memory _name,\n        uint _mintPrice,\n        uint _maxLevel,\n        uint[] memory _miningPowerAtLevel,\n        uint[] memory _upgradeRequirements\n    ) public onlyOwner(msg.sender) drillTypeNotExists(_type) {\n        drillTypeToDrillStatsMap[_type].drillType = _type;\n        drillTypeToDrillStatsMap[_type].drillName = _name;\n        drillPriceAtLevel[_type][0] = _mintPrice;\n        drillTypeToDrillStatsMap[_type].maxLevel = _maxLevel;\n        for (uint i = 0; i < _maxLevel; i++) {\n            drillTypeToDrillStatsMap[_type].miningPowerAtLevel[i] = _miningPowerAtLevel[i];\n            drillTypeToDrillStatsMap[_type].upgradeRequirements[i] = _upgradeRequirements[i];\n\n        }\n        emit LogDrillTypeAdded(_type);\n    }\n\n    function updateMintPrice(\n        uint _type,\n        uint _level,\n        uint _mintPrice\n    ) public onlyOwner(msg.sender) drillTypeExists(_type) {\n        drillPriceAtLevel[_type][_level] = _mintPrice;\n    }\n\n    function updateDrillsAvailable(uint _type, uint _level, uint _count) public onlyOwner(msg.sender) {\n        drillsAvailableAtLevel[_type][_level] = _count;\n    }\n\n    function updateMaxFreeMints(uint _amount) public onlyOwner(msg.sender) {\n        maxFreeMints = _amount;\n    }\n\n    function updateFreeMint(address _user, uint _type, uint _level, uint _amount) public onlyOwner(msg.sender) {\n        freeMints[_user][_type][_level] = _amount;\n    }\n\n    function updateMiningPower(\n        uint _type, \n        uint _level, \n        uint _power\n    ) public onlyOwner(msg.sender) drillTypeExists(_type) drillTypeLevelWithinBounds(_type, _level) {\n        drillTypeToDrillStatsMap[_type].miningPowerAtLevel[_level] = _power;\n    }\n\n    function updateMaxLevel(\n        uint _type,\n        uint _maxLevel\n    ) public onlyOwner(msg.sender) drillTypeExists(_type) {\n        drillTypeToDrillStatsMap[_type].maxLevel = _maxLevel;\n    }\n\n    function updateUpgradeRequirement(\n        uint _type,\n        uint _level,\n        uint _upgradeRequirement\n    ) public onlyOwner(msg.sender) drillTypeExists(_type) drillTypeLevelWithinBounds(_type, _level) {\n        drillTypeToDrillStatsMap[_type].upgradeRequirements[_level] = _upgradeRequirement;\n    }\n\n    function addAlternativeMint(\n        uint _id,\n        uint _type,\n        uint _level,\n        IERC20 _currency,\n        uint _price,\n        uint _maxMintsAllowed\n    ) public onlyOwner(msg.sender) drillTypeExists(_type) drillTypeLevelWithinBounds(_type, _level) {\n        alternativeMints[_id] = AlternativeMint(_id, _type, _level, _currency, _price, 0, _maxMintsAllowed);\n    }\n\n    // GETTERS\n\n    function getDrill(uint _drillId) public view drillExists(_drillId) returns(Drill memory) {\n        return drillIdToDrillMap[_drillId];\n    }\n\n    function getTotalFreeMints() public view returns(uint) {\n        return totalFreeMints;\n    }\n\n    function getMaxFreeMints() public view returns(uint) {\n        return maxFreeMints;\n    }\n    \n    function getMintPrice(uint _type, uint _level) public view drillTypeExists(_type) returns(uint) {\n        return drillPriceAtLevel[_type][_level];\n    }\n\n    function getUpgradeRequirement(\n        uint _type,\n        uint _level\n    ) public view drillTypeExists(_type) drillTypeLevelWithinBounds(_type, _level) returns(uint) {\n        return drillTypeToDrillStatsMap[_type].upgradeRequirements[_level];\n    }\n    \n    function getMiningPower(uint _drillId) public view drillExists(_drillId) returns(uint) {\n        Drill memory drill = drillIdToDrillMap[_drillId];\n        return drillTypeToDrillStatsMap[drill.drillType].miningPowerAtLevel[drill.level];\n    }\n\n    function getDrillsAvailableAtLevel(uint _type, uint _level) public view returns(uint) {\n        return drillsAvailableAtLevel[_type][_level];\n    }\n\n    // USER INTERACTIONS\n\n    function mintDrill(uint _type, uint _level) public payable \n    mintAvailable(_type, _level) \n    correctMintPrice(_type, _level, msg.value) {\n        require(treasury != address(0), \"treasury address is not set\");\n        treasury.transfer(msg.value);\n        Drill memory drill = Drill(\n            nextDrillId,\n            _type,\n            _level\n        );\n        drillIdToDrillMap[nextDrillId] = drill;\n        drillsMintedAtLevel[_type][_level]++;\n        _safeMint(msg.sender, nextDrillId);\n        emit LogMint(nextDrillId);\n        nextDrillId++;\n    }\n\n    function freeMintDrill(uint _type, uint _level) public freeMintAvailable(_type, _level, msg.sender) {\n        freeMints[msg.sender][_type][_level]--;\n        totalFreeMints++;\n        Drill memory drill = Drill(\n            nextDrillId,\n            _type,\n            _level\n        );\n        drillIdToDrillMap[nextDrillId] = drill;\n        drillsMintedAtLevel[_type][_level]++;\n        emit LogFreeMint(nextDrillId);\n        nextDrillId++;\n    }\n\n    function alternativeMintDrill(uint _id) public altMintExists(_id) altMintAvailable(_id) {\n        alternativeMints[_id].minted++;\n        alternativeMints[_id].currency.transferFrom(msg.sender, treasury, alternativeMints[_id].price);\n        Drill memory drill = Drill(\n            nextDrillId,\n            alternativeMints[_id].drillType,\n            alternativeMints[_id].level\n        );\n        drillIdToDrillMap[nextDrillId] = drill;\n        emit LogAlternativeMint(nextDrillId);\n        nextDrillId++;\n    }\n\n    function upgradeDrill(uint _drillId) public drillExists(_drillId) {\n        require(super.ownerOf(_drillId) == msg.sender, \"drill not owned\");\n        Drill memory drill = drillIdToDrillMap[_drillId];\n        DrillTypeInfo storage drillInfo = drillTypeToDrillStatsMap[drill.drillType];\n        require(drill.level < drillInfo.maxLevel, \"drill at max level\");\n\n        uint amountForUpgrade = drillInfo.upgradeRequirements[drill.level + 1];\n        require(amountForUpgrade > 0, \"amount for upgrade not greater than zero\");\n        cosmicCash.transferFrom(msg.sender, treasury, amountForUpgrade);\n        drillIdToDrillMap[_drillId].level = drill.level + 1;\n        emit LogDrillUpgrade(_drillId);\n    }\n}",
  "sourcePath": "/Users/aslan/Desktop/MineEmpireBackend/contracts/MineEmpireDrill.sol",
  "compiler": {
    "name": "solc",
    "version": "0.8.11+commit.d7f03943.Emscripten.clang"
  },
  "schemaVersion": "3.4.3",
  "updatedAt": "2022-06-20T21:07:41.826Z",
  "networkType": "ethereum",
  "devdoc": {
    "kind": "dev",
    "methods": {
      "approve(address,uint256)": {
        "details": "See {IERC721-approve}."
      },
      "balanceOf(address)": {
        "details": "See {IERC721-balanceOf}."
      },
      "getApproved(uint256)": {
        "details": "See {IERC721-getApproved}."
      },
      "isApprovedForAll(address,address)": {
        "details": "See {IERC721-isApprovedForAll}."
      },
      "name()": {
        "details": "See {IERC721Metadata-name}."
      },
      "ownerOf(uint256)": {
        "details": "See {IERC721-ownerOf}."
      },
      "safeTransferFrom(address,address,uint256)": {
        "details": "See {IERC721-safeTransferFrom}."
      },
      "safeTransferFrom(address,address,uint256,bytes)": {
        "details": "See {IERC721-safeTransferFrom}."
      },
      "setApprovalForAll(address,bool)": {
        "details": "See {IERC721-setApprovalForAll}."
      },
      "supportsInterface(bytes4)": {
        "details": "See {IERC165-supportsInterface}."
      },
      "symbol()": {
        "details": "See {IERC721Metadata-symbol}."
      },
      "tokenURI(uint256)": {
        "details": "See {IERC721Metadata-tokenURI}."
      },
      "transferFrom(address,address,uint256)": {
        "details": "See {IERC721-transferFrom}."
      }
    },
    "version": 1
  },
  "userdoc": {
    "kind": "user",
    "methods": {},
    "version": 1
  }
}