{
  "contractName": "MinerMinter",
  "abi": [
    {
      "inputs": [],
      "stateMutability": "nonpayable",
      "type": "constructor"
    },
    {
      "anonymous": false,
      "inputs": [
        {
          "indexed": true,
          "internalType": "address",
          "name": "owner",
          "type": "address"
        },
        {
          "indexed": true,
          "internalType": "address",
          "name": "approved",
          "type": "address"
        },
        {
          "indexed": true,
          "internalType": "uint256",
          "name": "tokenId",
          "type": "uint256"
        }
      ],
      "name": "Approval",
      "type": "event"
    },
    {
      "anonymous": false,
      "inputs": [
        {
          "indexed": true,
          "internalType": "address",
          "name": "owner",
          "type": "address"
        },
        {
          "indexed": true,
          "internalType": "address",
          "name": "operator",
          "type": "address"
        },
        {
          "indexed": false,
          "internalType": "bool",
          "name": "approved",
          "type": "bool"
        }
      ],
      "name": "ApprovalForAll",
      "type": "event"
    },
    {
      "anonymous": false,
      "inputs": [
        {
          "indexed": false,
          "internalType": "uint256",
          "name": "id",
          "type": "uint256"
        }
      ],
      "name": "LogMint",
      "type": "event"
    },
    {
      "anonymous": false,
      "inputs": [
        {
          "indexed": false,
          "internalType": "address",
          "name": "_address",
          "type": "address"
        }
      ],
      "name": "LogSetUpgrader",
      "type": "event"
    },
    {
      "anonymous": false,
      "inputs": [
        {
          "indexed": false,
          "internalType": "uint256",
          "name": "amount",
          "type": "uint256"
        }
      ],
      "name": "LogUpdateMintPrice",
      "type": "event"
    },
    {
      "anonymous": false,
      "inputs": [
        {
          "indexed": false,
          "internalType": "uint256",
          "name": "minerId",
          "type": "uint256"
        },
        {
          "indexed": false,
          "internalType": "uint256",
          "name": "newLevel",
          "type": "uint256"
        }
      ],
      "name": "LogUpgradeCapacityLevel",
      "type": "event"
    },
    {
      "anonymous": false,
      "inputs": [
        {
          "indexed": false,
          "internalType": "uint256",
          "name": "minerId",
          "type": "uint256"
        },
        {
          "indexed": false,
          "internalType": "uint256",
          "name": "newLevel",
          "type": "uint256"
        }
      ],
      "name": "LogUpgradeMiningLevel",
      "type": "event"
    },
    {
      "anonymous": false,
      "inputs": [
        {
          "indexed": true,
          "internalType": "address",
          "name": "from",
          "type": "address"
        },
        {
          "indexed": true,
          "internalType": "address",
          "name": "to",
          "type": "address"
        },
        {
          "indexed": true,
          "internalType": "uint256",
          "name": "tokenId",
          "type": "uint256"
        }
      ],
      "name": "Transfer",
      "type": "event"
    },
    {
      "inputs": [
        {
          "internalType": "uint256",
          "name": "",
          "type": "uint256"
        }
      ],
      "name": "allMiners",
      "outputs": [
        {
          "internalType": "uint256",
          "name": "minerId",
          "type": "uint256"
        },
        {
          "internalType": "address",
          "name": "owner",
          "type": "address"
        },
        {
          "internalType": "uint256",
          "name": "miningLevel",
          "type": "uint256"
        },
        {
          "internalType": "uint256",
          "name": "capacityLevel",
          "type": "uint256"
        },
        {
          "internalType": "uint256",
          "name": "miningPower",
          "type": "uint256"
        },
        {
          "internalType": "uint256",
          "name": "coalCapacity",
          "type": "uint256"
        },
        {
          "internalType": "uint256",
          "name": "ironCapacity",
          "type": "uint256"
        },
        {
          "internalType": "uint256",
          "name": "silverCapacity",
          "type": "uint256"
        }
      ],
      "stateMutability": "view",
      "type": "function"
    },
    {
      "inputs": [
        {
          "internalType": "address",
          "name": "to",
          "type": "address"
        },
        {
          "internalType": "uint256",
          "name": "tokenId",
          "type": "uint256"
        }
      ],
      "name": "approve",
      "outputs": [],
      "stateMutability": "nonpayable",
      "type": "function"
    },
    {
      "inputs": [
        {
          "internalType": "address",
          "name": "owner",
          "type": "address"
        }
      ],
      "name": "balanceOf",
      "outputs": [
        {
          "internalType": "uint256",
          "name": "",
          "type": "uint256"
        }
      ],
      "stateMutability": "view",
      "type": "function"
    },
    {
      "inputs": [
        {
          "internalType": "uint256",
          "name": "tokenId",
          "type": "uint256"
        }
      ],
      "name": "getApproved",
      "outputs": [
        {
          "internalType": "address",
          "name": "",
          "type": "address"
        }
      ],
      "stateMutability": "view",
      "type": "function"
    },
    {
      "inputs": [
        {
          "internalType": "address",
          "name": "owner",
          "type": "address"
        },
        {
          "internalType": "address",
          "name": "operator",
          "type": "address"
        }
      ],
      "name": "isApprovedForAll",
      "outputs": [
        {
          "internalType": "bool",
          "name": "",
          "type": "bool"
        }
      ],
      "stateMutability": "view",
      "type": "function"
    },
    {
      "inputs": [
        {
          "internalType": "uint256",
          "name": "",
          "type": "uint256"
        }
      ],
      "name": "minerMap",
      "outputs": [
        {
          "internalType": "uint256",
          "name": "minerId",
          "type": "uint256"
        },
        {
          "internalType": "address",
          "name": "owner",
          "type": "address"
        },
        {
          "internalType": "uint256",
          "name": "miningLevel",
          "type": "uint256"
        },
        {
          "internalType": "uint256",
          "name": "capacityLevel",
          "type": "uint256"
        },
        {
          "internalType": "uint256",
          "name": "miningPower",
          "type": "uint256"
        },
        {
          "internalType": "uint256",
          "name": "coalCapacity",
          "type": "uint256"
        },
        {
          "internalType": "uint256",
          "name": "ironCapacity",
          "type": "uint256"
        },
        {
          "internalType": "uint256",
          "name": "silverCapacity",
          "type": "uint256"
        }
      ],
      "stateMutability": "view",
      "type": "function"
    },
    {
      "inputs": [],
      "name": "name",
      "outputs": [
        {
          "internalType": "string",
          "name": "",
          "type": "string"
        }
      ],
      "stateMutability": "view",
      "type": "function"
    },
    {
      "inputs": [
        {
          "internalType": "address",
          "name": "",
          "type": "address"
        },
        {
          "internalType": "uint256",
          "name": "",
          "type": "uint256"
        }
      ],
      "name": "ownedMiners",
      "outputs": [
        {
          "internalType": "uint256",
          "name": "minerId",
          "type": "uint256"
        },
        {
          "internalType": "address",
          "name": "owner",
          "type": "address"
        },
        {
          "internalType": "uint256",
          "name": "miningLevel",
          "type": "uint256"
        },
        {
          "internalType": "uint256",
          "name": "capacityLevel",
          "type": "uint256"
        },
        {
          "internalType": "uint256",
          "name": "miningPower",
          "type": "uint256"
        },
        {
          "internalType": "uint256",
          "name": "coalCapacity",
          "type": "uint256"
        },
        {
          "internalType": "uint256",
          "name": "ironCapacity",
          "type": "uint256"
        },
        {
          "internalType": "uint256",
          "name": "silverCapacity",
          "type": "uint256"
        }
      ],
      "stateMutability": "view",
      "type": "function"
    },
    {
      "inputs": [],
      "name": "owner",
      "outputs": [
        {
          "internalType": "address",
          "name": "",
          "type": "address"
        }
      ],
      "stateMutability": "view",
      "type": "function"
    },
    {
      "inputs": [
        {
          "internalType": "uint256",
          "name": "tokenId",
          "type": "uint256"
        }
      ],
      "name": "ownerOf",
      "outputs": [
        {
          "internalType": "address",
          "name": "",
          "type": "address"
        }
      ],
      "stateMutability": "view",
      "type": "function"
    },
    {
      "inputs": [
        {
          "internalType": "address",
          "name": "from",
          "type": "address"
        },
        {
          "internalType": "address",
          "name": "to",
          "type": "address"
        },
        {
          "internalType": "uint256",
          "name": "tokenId",
          "type": "uint256"
        }
      ],
      "name": "safeTransferFrom",
      "outputs": [],
      "stateMutability": "nonpayable",
      "type": "function"
    },
    {
      "inputs": [
        {
          "internalType": "address",
          "name": "from",
          "type": "address"
        },
        {
          "internalType": "address",
          "name": "to",
          "type": "address"
        },
        {
          "internalType": "uint256",
          "name": "tokenId",
          "type": "uint256"
        },
        {
          "internalType": "bytes",
          "name": "_data",
          "type": "bytes"
        }
      ],
      "name": "safeTransferFrom",
      "outputs": [],
      "stateMutability": "nonpayable",
      "type": "function"
    },
    {
      "inputs": [
        {
          "internalType": "address",
          "name": "operator",
          "type": "address"
        },
        {
          "internalType": "bool",
          "name": "approved",
          "type": "bool"
        }
      ],
      "name": "setApprovalForAll",
      "outputs": [],
      "stateMutability": "nonpayable",
      "type": "function"
    },
    {
      "inputs": [
        {
          "internalType": "bytes4",
          "name": "interfaceId",
          "type": "bytes4"
        }
      ],
      "name": "supportsInterface",
      "outputs": [
        {
          "internalType": "bool",
          "name": "",
          "type": "bool"
        }
      ],
      "stateMutability": "view",
      "type": "function"
    },
    {
      "inputs": [],
      "name": "symbol",
      "outputs": [
        {
          "internalType": "string",
          "name": "",
          "type": "string"
        }
      ],
      "stateMutability": "view",
      "type": "function"
    },
    {
      "inputs": [
        {
          "internalType": "uint256",
          "name": "tokenId",
          "type": "uint256"
        }
      ],
      "name": "tokenURI",
      "outputs": [
        {
          "internalType": "string",
          "name": "",
          "type": "string"
        }
      ],
      "stateMutability": "view",
      "type": "function"
    },
    {
      "inputs": [
        {
          "internalType": "address",
          "name": "from",
          "type": "address"
        },
        {
          "internalType": "address",
          "name": "to",
          "type": "address"
        },
        {
          "internalType": "uint256",
          "name": "tokenId",
          "type": "uint256"
        }
      ],
      "name": "transferFrom",
      "outputs": [],
      "stateMutability": "nonpayable",
      "type": "function"
    },
    {
      "inputs": [],
      "name": "upgrader",
      "outputs": [
        {
          "internalType": "address",
          "name": "",
          "type": "address"
        }
      ],
      "stateMutability": "view",
      "type": "function"
    },
    {
      "inputs": [
        {
          "internalType": "uint256",
          "name": "_minerId",
          "type": "uint256"
        }
      ],
      "name": "getMiner",
      "outputs": [
        {
          "components": [
            {
              "internalType": "uint256",
              "name": "minerId",
              "type": "uint256"
            },
            {
              "internalType": "address",
              "name": "owner",
              "type": "address"
            },
            {
              "internalType": "uint256",
              "name": "miningLevel",
              "type": "uint256"
            },
            {
              "internalType": "uint256",
              "name": "capacityLevel",
              "type": "uint256"
            },
            {
              "internalType": "uint256",
              "name": "miningPower",
              "type": "uint256"
            },
            {
              "internalType": "uint256",
              "name": "coalCapacity",
              "type": "uint256"
            },
            {
              "internalType": "uint256",
              "name": "ironCapacity",
              "type": "uint256"
            },
            {
              "internalType": "uint256",
              "name": "silverCapacity",
              "type": "uint256"
            }
          ],
          "internalType": "struct MinerMinter.Miner",
          "name": "",
          "type": "tuple"
        }
      ],
      "stateMutability": "view",
      "type": "function"
    },
    {
      "inputs": [],
      "name": "getAllMiners",
      "outputs": [
        {
          "components": [
            {
              "internalType": "uint256",
              "name": "minerId",
              "type": "uint256"
            },
            {
              "internalType": "address",
              "name": "owner",
              "type": "address"
            },
            {
              "internalType": "uint256",
              "name": "miningLevel",
              "type": "uint256"
            },
            {
              "internalType": "uint256",
              "name": "capacityLevel",
              "type": "uint256"
            },
            {
              "internalType": "uint256",
              "name": "miningPower",
              "type": "uint256"
            },
            {
              "internalType": "uint256",
              "name": "coalCapacity",
              "type": "uint256"
            },
            {
              "internalType": "uint256",
              "name": "ironCapacity",
              "type": "uint256"
            },
            {
              "internalType": "uint256",
              "name": "silverCapacity",
              "type": "uint256"
            }
          ],
          "internalType": "struct MinerMinter.Miner[]",
          "name": "",
          "type": "tuple[]"
        }
      ],
      "stateMutability": "view",
      "type": "function"
    },
    {
      "inputs": [],
      "name": "getMyMiners",
      "outputs": [
        {
          "components": [
            {
              "internalType": "uint256",
              "name": "minerId",
              "type": "uint256"
            },
            {
              "internalType": "address",
              "name": "owner",
              "type": "address"
            },
            {
              "internalType": "uint256",
              "name": "miningLevel",
              "type": "uint256"
            },
            {
              "internalType": "uint256",
              "name": "capacityLevel",
              "type": "uint256"
            },
            {
              "internalType": "uint256",
              "name": "miningPower",
              "type": "uint256"
            },
            {
              "internalType": "uint256",
              "name": "coalCapacity",
              "type": "uint256"
            },
            {
              "internalType": "uint256",
              "name": "ironCapacity",
              "type": "uint256"
            },
            {
              "internalType": "uint256",
              "name": "silverCapacity",
              "type": "uint256"
            }
          ],
          "internalType": "struct MinerMinter.Miner[]",
          "name": "",
          "type": "tuple[]"
        }
      ],
      "stateMutability": "view",
      "type": "function"
    },
    {
      "inputs": [],
      "name": "mintMiner",
      "outputs": [],
      "stateMutability": "payable",
      "type": "function"
    },
    {
      "inputs": [
        {
          "internalType": "uint256",
          "name": "newPrice",
          "type": "uint256"
        }
      ],
      "name": "setMintPrice",
      "outputs": [],
      "stateMutability": "nonpayable",
      "type": "function"
    },
    {
      "inputs": [],
      "name": "getMintPrice",
      "outputs": [
        {
          "internalType": "uint256",
          "name": "",
          "type": "uint256"
        }
      ],
      "stateMutability": "view",
      "type": "function"
    },
    {
      "inputs": [
        {
          "internalType": "address",
          "name": "_address",
          "type": "address"
        }
      ],
      "name": "setUpgrader",
      "outputs": [],
      "stateMutability": "nonpayable",
      "type": "function"
    },
    {
      "inputs": [],
      "name": "getUpgrader",
      "outputs": [
        {
          "internalType": "address",
          "name": "",
          "type": "address"
        }
      ],
      "stateMutability": "view",
      "type": "function"
    },
    {
      "inputs": [
        {
          "internalType": "uint256",
          "name": "_minerId",
          "type": "uint256"
        },
        {
          "internalType": "uint256",
          "name": "level",
          "type": "uint256"
        }
      ],
      "name": "setMiningLevel",
      "outputs": [],
      "stateMutability": "nonpayable",
      "type": "function"
    },
    {
      "inputs": [
        {
          "internalType": "uint256",
          "name": "_minerId",
          "type": "uint256"
        },
        {
          "internalType": "uint256",
          "name": "level",
          "type": "uint256"
        }
      ],
      "name": "setCapacityLevel",
      "outputs": [],
      "stateMutability": "nonpayable",
      "type": "function"
    },
    {
      "inputs": [
        {
          "internalType": "uint256",
          "name": "_minerId",
          "type": "uint256"
        },
        {
          "internalType": "uint256",
          "name": "power",
          "type": "uint256"
        }
      ],
      "name": "setMiningPower",
      "outputs": [],
      "stateMutability": "nonpayable",
      "type": "function"
    },
    {
      "inputs": [
        {
          "internalType": "uint256",
          "name": "_minerId",
          "type": "uint256"
        },
        {
          "internalType": "uint256",
          "name": "capacity",
          "type": "uint256"
        }
      ],
      "name": "setCoalCapacity",
      "outputs": [],
      "stateMutability": "nonpayable",
      "type": "function"
    },
    {
      "inputs": [
        {
          "internalType": "uint256",
          "name": "_minerId",
          "type": "uint256"
        },
        {
          "internalType": "uint256",
          "name": "capacity",
          "type": "uint256"
        }
      ],
      "name": "setIronCapacity",
      "outputs": [],
      "stateMutability": "nonpayable",
      "type": "function"
    },
    {
      "inputs": [
        {
          "internalType": "uint256",
          "name": "_minerId",
          "type": "uint256"
        },
        {
          "internalType": "uint256",
          "name": "capacity",
          "type": "uint256"
        }
      ],
      "name": "setSilverCapacity",
      "outputs": [],
      "stateMutability": "nonpayable",
      "type": "function"
    }
  ],
  "bytecode": "0x608060405260016008556103e86009556801158e460913d00000600a556001600b556001600c55670de0b6b3a7640000600d556753444835ec580000600e556716345785d8a00000600f556702c68af0bb1400006010553480156200006357600080fd5b506040518060400160405280600581526020017f4d696e65720000000000000000000000000000000000000000000000000000008152506040518060400160405280600581526020017f4d494e45520000000000000000000000000000000000000000000000000000008152508160009080519060200190620000e89291906200014b565b508060019080519060200190620001019291906200014b565b50505033600660006101000a81548173ffffffffffffffffffffffffffffffffffffffff021916908373ffffffffffffffffffffffffffffffffffffffff16021790555062000260565b82805462000159906200022a565b90600052602060002090601f0160209004810192826200017d5760008555620001c9565b82601f106200019857805160ff1916838001178555620001c9565b82800160010185558215620001c9579182015b82811115620001c8578251825591602001919060010190620001ab565b5b509050620001d89190620001dc565b5090565b5b80821115620001f7576000816000905550600101620001dd565b5090565b7f4e487b7100000000000000000000000000000000000000000000000000000000600052602260045260246000fd5b600060028204905060018216806200024357607f821691505b602082108114156200025a5762000259620001fb565b5b50919050565b613fa380620002706000396000f3fe6080604052600436106101e35760003560e01c806386a6f5a611610102578063b88d4fde11610095578063e4948d7511610064578063e4948d7514610701578063e4d7437b14610745578063e985e9c514610770578063f4a0a528146107ad576101e3565b8063b88d4fde14610649578063c87b56dd14610672578063d27cfb34146106af578063d8b2bb51146106d8576101e3565b8063a7f93ebd116100d1578063a7f93ebd14610586578063ae582013146105b1578063af269745146105f5578063b10c0ca914610620576101e3565b806386a6f5a6146104de5780638da5cb5b1461050757806395d89b4114610532578063a22cb4651461055d576101e3565b8063241f46561161017a5780634b17bf30116101495780634b17bf30146104105780636352211e1461043b57806370a082311461047857806383daa1df146104b5576101e3565b8063241f46561461033d57806338bf22fb146103815780633cc8f306146103aa57806342842e0e146103e7576101e3565b8063095ea7b3116101b6578063095ea7b3146102975780630a76e5ed146102c05780631b878f71146102eb57806323b872dd14610314576101e3565b806301ffc9a7146101e857806306fdde0314610225578063078f446314610250578063081812fc1461025a575b600080fd5b3480156101f457600080fd5b5061020f600480360381019061020a9190612bef565b6107d6565b60405161021c9190612c37565b60405180910390f35b34801561023157600080fd5b5061023a6108b8565b6040516102479190612ceb565b60405180910390f35b61025861094a565b005b34801561026657600080fd5b50610281600480360381019061027c9190612d43565b610c85565b60405161028e9190612db1565b60405180910390f35b3480156102a357600080fd5b506102be60048036038101906102b99190612df8565b610d0a565b005b3480156102cc57600080fd5b506102d5610e22565b6040516102e29190612fa8565b60405180910390f35b3480156102f757600080fd5b50610312600480360381019061030d9190612fca565b610f5b565b005b34801561032057600080fd5b5061033b60048036038101906103369190612ff7565b611032565b005b34801561034957600080fd5b50610364600480360381019061035f9190612d43565b611092565b604051610378989796959493929190613059565b60405180910390f35b34801561038d57600080fd5b506103a860048036038101906103a391906130d7565b6110fa565b005b3480156103b657600080fd5b506103d160048036038101906103cc9190612d43565b6111f6565b6040516103de91906131b9565b60405180910390f35b3480156103f357600080fd5b5061040e60048036038101906104099190612ff7565b6112c0565b005b34801561041c57600080fd5b506104256112e0565b6040516104329190612fa8565b60405180910390f35b34801561044757600080fd5b50610462600480360381019061045d9190612d43565b6113dc565b60405161046f9190612db1565b60405180910390f35b34801561048457600080fd5b5061049f600480360381019061049a9190612fca565b61148e565b6040516104ac91906131d5565b60405180910390f35b3480156104c157600080fd5b506104dc60048036038101906104d791906130d7565b611546565b005b3480156104ea57600080fd5b50610505600480360381019061050091906130d7565b611642565b005b34801561051357600080fd5b5061051c61173e565b6040516105299190612db1565b60405180910390f35b34801561053e57600080fd5b50610547611764565b6040516105549190612ceb565b60405180910390f35b34801561056957600080fd5b50610584600480360381019061057f919061321c565b6117f6565b005b34801561059257600080fd5b5061059b61180c565b6040516105a891906131d5565b60405180910390f35b3480156105bd57600080fd5b506105d860048036038101906105d39190612d43565b611816565b6040516105ec989796959493929190613059565b60405180910390f35b34801561060157600080fd5b5061060a61188e565b6040516106179190612db1565b60405180910390f35b34801561062c57600080fd5b50610647600480360381019061064291906130d7565b6118b4565b005b34801561065557600080fd5b50610670600480360381019061066b9190613391565b6119b0565b005b34801561067e57600080fd5b5061069960048036038101906106949190612d43565b611a12565b6040516106a69190612ceb565b60405180910390f35b3480156106bb57600080fd5b506106d660048036038101906106d191906130d7565b611ab9565b005b3480156106e457600080fd5b506106ff60048036038101906106fa91906130d7565b611bee565b005b34801561070d57600080fd5b5061072860048036038101906107239190612df8565b611d23565b60405161073c989796959493929190613059565b60405180910390f35b34801561075157600080fd5b5061075a611da8565b6040516107679190612db1565b60405180910390f35b34801561077c57600080fd5b5061079760048036038101906107929190613414565b611dd2565b6040516107a49190612c37565b60405180910390f35b3480156107b957600080fd5b506107d460048036038101906107cf9190612d43565b611e66565b005b60007f80ac58cd000000000000000000000000000000000000000000000000000000007bffffffffffffffffffffffffffffffffffffffffffffffffffffffff1916827bffffffffffffffffffffffffffffffffffffffffffffffffffffffff191614806108a157507f5b5e139f000000000000000000000000000000000000000000000000000000007bffffffffffffffffffffffffffffffffffffffffffffffffffffffff1916827bffffffffffffffffffffffffffffffffffffffffffffffffffffffff1916145b806108b157506108b082611f03565b5b9050919050565b6060600080546108c790613483565b80601f01602080910402602001604051908101604052809291908181526020018280546108f390613483565b80156109405780601f1061091557610100808354040283529160200191610940565b820191906000526020600020905b81548152906001019060200180831161092357829003601f168201915b5050505050905090565b34600a54811461095957600080fd5b6009546008541061096957600080fd5b61097533600854611f6d565b600060405180610100016040528060085481526020013373ffffffffffffffffffffffffffffffffffffffff168152602001600b548152602001600c548152602001600d548152602001600e548152602001600f548152602001601054815250905060118190806001815401808255809150506001900390600052602060002090600802016000909190919091506000820151816000015560208201518160010160006101000a81548173ffffffffffffffffffffffffffffffffffffffff021916908373ffffffffffffffffffffffffffffffffffffffff16021790555060408201518160020155606082015181600301556080820151816004015560a0820151816005015560c0820151816006015560e082015181600701555050601260003373ffffffffffffffffffffffffffffffffffffffff1673ffffffffffffffffffffffffffffffffffffffff1681526020019081526020016000208190806001815401808255809150506001900390600052602060002090600802016000909190919091506000820151816000015560208201518160010160006101000a81548173ffffffffffffffffffffffffffffffffffffffff021916908373ffffffffffffffffffffffffffffffffffffffff16021790555060408201518160020155606082015181600301556080820151816004015560a0820151816005015560c0820151816006015560e082015181600701555050806013600060085481526020019081526020016000206000820151816000015560208201518160010160006101000a81548173ffffffffffffffffffffffffffffffffffffffff021916908373ffffffffffffffffffffffffffffffffffffffff16021790555060408201518160020155606082015181600301556080820151816004015560a0820151816005015560c0820151816006015560e082015181600701559050507f0498f141021087adeadd3da265ebdbfd15a902d680b2036004bdfee5e8d760e5600854604051610c6191906131d5565b60405180910390a160086000815480929190610c7c906134e4565b91905055505050565b6000610c9082611f8b565b610ccf576040517f08c379a0000000000000000000000000000000000000000000000000000000008152600401610cc69061359f565b60405180910390fd5b6004600083815260200190815260200160002060009054906101000a900473ffffffffffffffffffffffffffffffffffffffff169050919050565b6000610d15826113dc565b90508073ffffffffffffffffffffffffffffffffffffffff168373ffffffffffffffffffffffffffffffffffffffff161415610d86576040517f08c379a0000000000000000000000000000000000000000000000000000000008152600401610d7d90613631565b60405180910390fd5b8073ffffffffffffffffffffffffffffffffffffffff16610da5611ff7565b73ffffffffffffffffffffffffffffffffffffffff161480610dd45750610dd381610dce611ff7565b611dd2565b5b610e13576040517f08c379a0000000000000000000000000000000000000000000000000000000008152600401610e0a906136c3565b60405180910390fd5b610e1d8383611fff565b505050565b6060601260003373ffffffffffffffffffffffffffffffffffffffff1673ffffffffffffffffffffffffffffffffffffffff168152602001908152602001600020805480602002602001604051908101604052809291908181526020016000905b82821015610f52578382906000526020600020906008020160405180610100016040529081600082015481526020016001820160009054906101000a900473ffffffffffffffffffffffffffffffffffffffff1673ffffffffffffffffffffffffffffffffffffffff1673ffffffffffffffffffffffffffffffffffffffff168152602001600282015481526020016003820154815260200160048201548152602001600582015481526020016006820154815260200160078201548152505081526020019060010190610e83565b50505050905090565b338073ffffffffffffffffffffffffffffffffffffffff16600660009054906101000a900473ffffffffffffffffffffffffffffffffffffffff1673ffffffffffffffffffffffffffffffffffffffff1614610fb657600080fd5b81600760006101000a81548173ffffffffffffffffffffffffffffffffffffffff021916908373ffffffffffffffffffffffffffffffffffffffff1602179055507f740db3802f9639474b46c1ad00d17fa784bbd0ffb290a8e4c63e23d6330885cb826040516110269190612db1565b60405180910390a15050565b61104361103d611ff7565b826120b8565b611082576040517f08c379a000000000000000000000000000000000000000000000000000000000815260040161107990613755565b60405180910390fd5b61108d838383612196565b505050565b60136020528060005260406000206000915090508060000154908060010160009054906101000a900473ffffffffffffffffffffffffffffffffffffffff16908060020154908060030154908060040154908060050154908060060154908060070154905088565b33600073ffffffffffffffffffffffffffffffffffffffff16600760009054906101000a900473ffffffffffffffffffffffffffffffffffffffff1673ffffffffffffffffffffffffffffffffffffffff16141561115757600080fd5b600760009054906101000a900473ffffffffffffffffffffffffffffffffffffffff1673ffffffffffffffffffffffffffffffffffffffff168173ffffffffffffffffffffffffffffffffffffffff16146111b157600080fd5b8260006013600083815260200190815260200160002060000154116111d557600080fd5b82601360008681526020019081526020016000206005018190555050505050565b6111fe612b28565b6013600083815260200190815260200160002060405180610100016040529081600082015481526020016001820160009054906101000a900473ffffffffffffffffffffffffffffffffffffffff1673ffffffffffffffffffffffffffffffffffffffff1673ffffffffffffffffffffffffffffffffffffffff16815260200160028201548152602001600382015481526020016004820154815260200160058201548152602001600682015481526020016007820154815250509050919050565b6112db838383604051806020016040528060008152506119b0565b505050565b60606011805480602002602001604051908101604052809291908181526020016000905b828210156113d3578382906000526020600020906008020160405180610100016040529081600082015481526020016001820160009054906101000a900473ffffffffffffffffffffffffffffffffffffffff1673ffffffffffffffffffffffffffffffffffffffff1673ffffffffffffffffffffffffffffffffffffffff168152602001600282015481526020016003820154815260200160048201548152602001600582015481526020016006820154815260200160078201548152505081526020019060010190611304565b50505050905090565b6000806002600084815260200190815260200160002060009054906101000a900473ffffffffffffffffffffffffffffffffffffffff169050600073ffffffffffffffffffffffffffffffffffffffff168173ffffffffffffffffffffffffffffffffffffffff161415611485576040517f08c379a000000000000000000000000000000000000000000000000000000000815260040161147c906137e7565b60405180910390fd5b80915050919050565b60008073ffffffffffffffffffffffffffffffffffffffff168273ffffffffffffffffffffffffffffffffffffffff1614156114ff576040517f08c379a00000000000000000000000000000000000000000000000000000000081526004016114f690613879565b60405180910390fd5b600360008373ffffffffffffffffffffffffffffffffffffffff1673ffffffffffffffffffffffffffffffffffffffff168152602001908152602001600020549050919050565b33600073ffffffffffffffffffffffffffffffffffffffff16600760009054906101000a900473ffffffffffffffffffffffffffffffffffffffff1673ffffffffffffffffffffffffffffffffffffffff1614156115a357600080fd5b600760009054906101000a900473ffffffffffffffffffffffffffffffffffffffff1673ffffffffffffffffffffffffffffffffffffffff168173ffffffffffffffffffffffffffffffffffffffff16146115fd57600080fd5b82600060136000838152602001908152602001600020600001541161162157600080fd5b82601360008681526020019081526020016000206007018190555050505050565b33600073ffffffffffffffffffffffffffffffffffffffff16600760009054906101000a900473ffffffffffffffffffffffffffffffffffffffff1673ffffffffffffffffffffffffffffffffffffffff16141561169f57600080fd5b600760009054906101000a900473ffffffffffffffffffffffffffffffffffffffff1673ffffffffffffffffffffffffffffffffffffffff168173ffffffffffffffffffffffffffffffffffffffff16146116f957600080fd5b82600060136000838152602001908152602001600020600001541161171d57600080fd5b82601360008681526020019081526020016000206004018190555050505050565b600660009054906101000a900473ffffffffffffffffffffffffffffffffffffffff1681565b60606001805461177390613483565b80601f016020809104026020016040519081016040528092919081815260200182805461179f90613483565b80156117ec5780601f106117c1576101008083540402835291602001916117ec565b820191906000526020600020905b8154815290600101906020018083116117cf57829003601f168201915b5050505050905090565b611808611801611ff7565b83836123fd565b5050565b6000600a54905090565b6011818154811061182657600080fd5b90600052602060002090600802016000915090508060000154908060010160009054906101000a900473ffffffffffffffffffffffffffffffffffffffff16908060020154908060030154908060040154908060050154908060060154908060070154905088565b600760009054906101000a900473ffffffffffffffffffffffffffffffffffffffff1681565b33600073ffffffffffffffffffffffffffffffffffffffff16600760009054906101000a900473ffffffffffffffffffffffffffffffffffffffff1673ffffffffffffffffffffffffffffffffffffffff16141561191157600080fd5b600760009054906101000a900473ffffffffffffffffffffffffffffffffffffffff1673ffffffffffffffffffffffffffffffffffffffff168173ffffffffffffffffffffffffffffffffffffffff161461196b57600080fd5b82600060136000838152602001908152602001600020600001541161198f57600080fd5b82601360008681526020019081526020016000206006018190555050505050565b6119c16119bb611ff7565b836120b8565b611a00576040517f08c379a00000000000000000000000000000000000000000000000000000000081526004016119f790613755565b60405180910390fd5b611a0c8484848461256a565b50505050565b6060611a1d82611f8b565b611a5c576040517f08c379a0000000000000000000000000000000000000000000000000000000008152600401611a539061390b565b60405180910390fd5b6000611a666125c6565b90506000815111611a865760405180602001604052806000815250611ab1565b80611a90846125dd565b604051602001611aa1929190613967565b6040516020818303038152906040525b915050919050565b33600073ffffffffffffffffffffffffffffffffffffffff16600760009054906101000a900473ffffffffffffffffffffffffffffffffffffffff1673ffffffffffffffffffffffffffffffffffffffff161415611b1657600080fd5b600760009054906101000a900473ffffffffffffffffffffffffffffffffffffffff1673ffffffffffffffffffffffffffffffffffffffff168173ffffffffffffffffffffffffffffffffffffffff1614611b7057600080fd5b826000601360008381526020019081526020016000206000015411611b9457600080fd5b8260136000868152602001908152602001600020600201819055507f748879fdcc18483ec14f32063ca5a7a1dfdd276afa51426cbdfb908af8d478238484604051611be092919061398b565b60405180910390a150505050565b33600073ffffffffffffffffffffffffffffffffffffffff16600760009054906101000a900473ffffffffffffffffffffffffffffffffffffffff1673ffffffffffffffffffffffffffffffffffffffff161415611c4b57600080fd5b600760009054906101000a900473ffffffffffffffffffffffffffffffffffffffff1673ffffffffffffffffffffffffffffffffffffffff168173ffffffffffffffffffffffffffffffffffffffff1614611ca557600080fd5b826000601360008381526020019081526020016000206000015411611cc957600080fd5b8260136000868152602001908152602001600020600301819055507fa65d8ae65d3d06fefe9840ef1c04489e46a637811aa230c57558487ae2eeaa248484604051611d1592919061398b565b60405180910390a150505050565b60126020528160005260406000208181548110611d3f57600080fd5b9060005260206000209060080201600091509150508060000154908060010160009054906101000a900473ffffffffffffffffffffffffffffffffffffffff16908060020154908060030154908060040154908060050154908060060154908060070154905088565b6000600760009054906101000a900473ffffffffffffffffffffffffffffffffffffffff16905090565b6000600560008473ffffffffffffffffffffffffffffffffffffffff1673ffffffffffffffffffffffffffffffffffffffff16815260200190815260200160002060008373ffffffffffffffffffffffffffffffffffffffff1673ffffffffffffffffffffffffffffffffffffffff16815260200190815260200160002060009054906101000a900460ff16905092915050565b338073ffffffffffffffffffffffffffffffffffffffff16600660009054906101000a900473ffffffffffffffffffffffffffffffffffffffff1673ffffffffffffffffffffffffffffffffffffffff1614611ec157600080fd5b81600a819055507f74cfa1b0ed3ecb819a7377703d1556252b9910967fc283c57013860976e840d182604051611ef791906131d5565b60405180910390a15050565b60007f01ffc9a7000000000000000000000000000000000000000000000000000000007bffffffffffffffffffffffffffffffffffffffffffffffffffffffff1916827bffffffffffffffffffffffffffffffffffffffffffffffffffffffff1916149050919050565b611f8782826040518060200160405280600081525061273e565b5050565b60008073ffffffffffffffffffffffffffffffffffffffff166002600084815260200190815260200160002060009054906101000a900473ffffffffffffffffffffffffffffffffffffffff1673ffffffffffffffffffffffffffffffffffffffff1614159050919050565b600033905090565b816004600083815260200190815260200160002060006101000a81548173ffffffffffffffffffffffffffffffffffffffff021916908373ffffffffffffffffffffffffffffffffffffffff160217905550808273ffffffffffffffffffffffffffffffffffffffff16612072836113dc565b73ffffffffffffffffffffffffffffffffffffffff167f8c5be1e5ebec7d5bd14f71427d1e84f3dd0314c0f7b2291e5b200ac8c7c3b92560405160405180910390a45050565b60006120c382611f8b565b612102576040517f08c379a00000000000000000000000000000000000000000000000000000000081526004016120f990613a26565b60405180910390fd5b600061210d836113dc565b90508073ffffffffffffffffffffffffffffffffffffffff168473ffffffffffffffffffffffffffffffffffffffff16148061217c57508373ffffffffffffffffffffffffffffffffffffffff1661216484610c85565b73ffffffffffffffffffffffffffffffffffffffff16145b8061218d575061218c8185611dd2565b5b91505092915050565b8273ffffffffffffffffffffffffffffffffffffffff166121b6826113dc565b73ffffffffffffffffffffffffffffffffffffffff161461220c576040517f08c379a000000000000000000000000000000000000000000000000000000000815260040161220390613ab8565b60405180910390fd5b600073ffffffffffffffffffffffffffffffffffffffff168273ffffffffffffffffffffffffffffffffffffffff16141561227c576040517f08c379a000000000000000000000000000000000000000000000000000000000815260040161227390613b4a565b60405180910390fd5b612287838383612799565b612292600082611fff565b6001600360008573ffffffffffffffffffffffffffffffffffffffff1673ffffffffffffffffffffffffffffffffffffffff16815260200190815260200160002060008282546122e29190613b6a565b925050819055506001600360008473ffffffffffffffffffffffffffffffffffffffff1673ffffffffffffffffffffffffffffffffffffffff16815260200190815260200160002060008282546123399190613b9e565b92505081905550816002600083815260200190815260200160002060006101000a81548173ffffffffffffffffffffffffffffffffffffffff021916908373ffffffffffffffffffffffffffffffffffffffff160217905550808273ffffffffffffffffffffffffffffffffffffffff168473ffffffffffffffffffffffffffffffffffffffff167fddf252ad1be2c89b69c2b068fc378daa952ba7f163c4a11628f55a4df523b3ef60405160405180910390a46123f883838361279e565b505050565b8173ffffffffffffffffffffffffffffffffffffffff168373ffffffffffffffffffffffffffffffffffffffff16141561246c576040517f08c379a000000000000000000000000000000000000000000000000000000000815260040161246390613c40565b60405180910390fd5b80600560008573ffffffffffffffffffffffffffffffffffffffff1673ffffffffffffffffffffffffffffffffffffffff16815260200190815260200160002060008473ffffffffffffffffffffffffffffffffffffffff1673ffffffffffffffffffffffffffffffffffffffff16815260200190815260200160002060006101000a81548160ff0219169083151502179055508173ffffffffffffffffffffffffffffffffffffffff168373ffffffffffffffffffffffffffffffffffffffff167f17307eab39ab6107e8899845ad3d59bd9653f200f220920489ca2b5937696c318360405161255d9190612c37565b60405180910390a3505050565b612575848484612196565b612581848484846127a3565b6125c0576040517f08c379a00000000000000000000000000000000000000000000000000000000081526004016125b790613cd2565b60405180910390fd5b50505050565b606060405180602001604052806000815250905090565b60606000821415612625576040518060400160405280600181526020017f30000000000000000000000000000000000000000000000000000000000000008152509050612739565b600082905060005b60008214612657578080612640906134e4565b915050600a826126509190613d21565b915061262d565b60008167ffffffffffffffff81111561267357612672613266565b5b6040519080825280601f01601f1916602001820160405280156126a55781602001600182028036833780820191505090505b5090505b60008514612732576001826126be9190613b6a565b9150600a856126cd9190613d52565b60306126d99190613b9e565b60f81b8183815181106126ef576126ee613d83565b5b60200101907effffffffffffffffffffffffffffffffffffffffffffffffffffffffffffff1916908160001a905350600a8561272b9190613d21565b94506126a9565b8093505050505b919050565b612748838361292b565b61275560008484846127a3565b612794576040517f08c379a000000000000000000000000000000000000000000000000000000000815260040161278b90613cd2565b60405180910390fd5b505050565b505050565b505050565b60006127c48473ffffffffffffffffffffffffffffffffffffffff16612b05565b1561291e578373ffffffffffffffffffffffffffffffffffffffff1663150b7a026127ed611ff7565b8786866040518563ffffffff1660e01b815260040161280f9493929190613e07565b6020604051808303816000875af192505050801561284b57506040513d601f19601f820116820180604052508101906128489190613e68565b60015b6128ce573d806000811461287b576040519150601f19603f3d011682016040523d82523d6000602084013e612880565b606091505b506000815114156128c6576040517f08c379a00000000000000000000000000000000000000000000000000000000081526004016128bd90613cd2565b60405180910390fd5b805181602001fd5b63150b7a0260e01b7bffffffffffffffffffffffffffffffffffffffffffffffffffffffff1916817bffffffffffffffffffffffffffffffffffffffffffffffffffffffff191614915050612923565b600190505b949350505050565b600073ffffffffffffffffffffffffffffffffffffffff168273ffffffffffffffffffffffffffffffffffffffff16141561299b576040517f08c379a000000000000000000000000000000000000000000000000000000000815260040161299290613ee1565b60405180910390fd5b6129a481611f8b565b156129e4576040517f08c379a00000000000000000000000000000000000000000000000000000000081526004016129db90613f4d565b60405180910390fd5b6129f060008383612799565b6001600360008473ffffffffffffffffffffffffffffffffffffffff1673ffffffffffffffffffffffffffffffffffffffff1681526020019081526020016000206000828254612a409190613b9e565b92505081905550816002600083815260200190815260200160002060006101000a81548173ffffffffffffffffffffffffffffffffffffffff021916908373ffffffffffffffffffffffffffffffffffffffff160217905550808273ffffffffffffffffffffffffffffffffffffffff16600073ffffffffffffffffffffffffffffffffffffffff167fddf252ad1be2c89b69c2b068fc378daa952ba7f163c4a11628f55a4df523b3ef60405160405180910390a4612b016000838361279e565b5050565b6000808273ffffffffffffffffffffffffffffffffffffffff163b119050919050565b60405180610100016040528060008152602001600073ffffffffffffffffffffffffffffffffffffffff1681526020016000815260200160008152602001600081526020016000815260200160008152602001600081525090565b6000604051905090565b600080fd5b600080fd5b60007fffffffff0000000000000000000000000000000000000000000000000000000082169050919050565b612bcc81612b97565b8114612bd757600080fd5b50565b600081359050612be981612bc3565b92915050565b600060208284031215612c0557612c04612b8d565b5b6000612c1384828501612bda565b91505092915050565b60008115159050919050565b612c3181612c1c565b82525050565b6000602082019050612c4c6000830184612c28565b92915050565b600081519050919050565b600082825260208201905092915050565b60005b83811015612c8c578082015181840152602081019050612c71565b83811115612c9b576000848401525b50505050565b6000601f19601f8301169050919050565b6000612cbd82612c52565b612cc78185612c5d565b9350612cd7818560208601612c6e565b612ce081612ca1565b840191505092915050565b60006020820190508181036000830152612d058184612cb2565b905092915050565b6000819050919050565b612d2081612d0d565b8114612d2b57600080fd5b50565b600081359050612d3d81612d17565b92915050565b600060208284031215612d5957612d58612b8d565b5b6000612d6784828501612d2e565b91505092915050565b600073ffffffffffffffffffffffffffffffffffffffff82169050919050565b6000612d9b82612d70565b9050919050565b612dab81612d90565b82525050565b6000602082019050612dc66000830184612da2565b92915050565b612dd581612d90565b8114612de057600080fd5b50565b600081359050612df281612dcc565b92915050565b60008060408385031215612e0f57612e0e612b8d565b5b6000612e1d85828601612de3565b9250506020612e2e85828601612d2e565b9150509250929050565b600081519050919050565b600082825260208201905092915050565b6000819050602082019050919050565b612e6d81612d0d565b82525050565b612e7c81612d90565b82525050565b61010082016000820151612e996000850182612e64565b506020820151612eac6020850182612e73565b506040820151612ebf6040850182612e64565b506060820151612ed26060850182612e64565b506080820151612ee56080850182612e64565b5060a0820151612ef860a0850182612e64565b5060c0820151612f0b60c0850182612e64565b5060e0820151612f1e60e0850182612e64565b50505050565b6000612f308383612e82565b6101008301905092915050565b6000602082019050919050565b6000612f5582612e38565b612f5f8185612e43565b9350612f6a83612e54565b8060005b83811015612f9b578151612f828882612f24565b9750612f8d83612f3d565b925050600181019050612f6e565b5085935050505092915050565b60006020820190508181036000830152612fc28184612f4a565b905092915050565b600060208284031215612fe057612fdf612b8d565b5b6000612fee84828501612de3565b91505092915050565b6000806000606084860312156130105761300f612b8d565b5b600061301e86828701612de3565b935050602061302f86828701612de3565b925050604061304086828701612d2e565b9150509250925092565b61305381612d0d565b82525050565b60006101008201905061306f600083018b61304a565b61307c602083018a612da2565b613089604083018961304a565b613096606083018861304a565b6130a3608083018761304a565b6130b060a083018661304a565b6130bd60c083018561304a565b6130ca60e083018461304a565b9998505050505050505050565b600080604083850312156130ee576130ed612b8d565b5b60006130fc85828601612d2e565b925050602061310d85828601612d2e565b9150509250929050565b6101008201600082015161312e6000850182612e64565b5060208201516131416020850182612e73565b5060408201516131546040850182612e64565b5060608201516131676060850182612e64565b50608082015161317a6080850182612e64565b5060a082015161318d60a0850182612e64565b5060c08201516131a060c0850182612e64565b5060e08201516131b360e0850182612e64565b50505050565b6000610100820190506131cf6000830184613117565b92915050565b60006020820190506131ea600083018461304a565b92915050565b6131f981612c1c565b811461320457600080fd5b50565b600081359050613216816131f0565b92915050565b6000806040838503121561323357613232612b8d565b5b600061324185828601612de3565b925050602061325285828601613207565b9150509250929050565b600080fd5b600080fd5b7f4e487b7100000000000000000000000000000000000000000000000000000000600052604160045260246000fd5b61329e82612ca1565b810181811067ffffffffffffffff821117156132bd576132bc613266565b5b80604052505050565b60006132d0612b83565b90506132dc8282613295565b919050565b600067ffffffffffffffff8211156132fc576132fb613266565b5b61330582612ca1565b9050602081019050919050565b82818337600083830152505050565b600061333461332f846132e1565b6132c6565b9050828152602081018484840111156133505761334f613261565b5b61335b848285613312565b509392505050565b600082601f8301126133785761337761325c565b5b8135613388848260208601613321565b91505092915050565b600080600080608085870312156133ab576133aa612b8d565b5b60006133b987828801612de3565b94505060206133ca87828801612de3565b93505060406133db87828801612d2e565b925050606085013567ffffffffffffffff8111156133fc576133fb612b92565b5b61340887828801613363565b91505092959194509250565b6000806040838503121561342b5761342a612b8d565b5b600061343985828601612de3565b925050602061344a85828601612de3565b9150509250929050565b7f4e487b7100000000000000000000000000000000000000000000000000000000600052602260045260246000fd5b6000600282049050600182168061349b57607f821691505b602082108114156134af576134ae613454565b5b50919050565b7f4e487b7100000000000000000000000000000000000000000000000000000000600052601160045260246000fd5b60006134ef82612d0d565b91507fffffffffffffffffffffffffffffffffffffffffffffffffffffffffffffffff821415613522576135216134b5565b5b600182019050919050565b7f4552433732313a20617070726f76656420717565727920666f72206e6f6e657860008201527f697374656e7420746f6b656e0000000000000000000000000000000000000000602082015250565b6000613589602c83612c5d565b91506135948261352d565b604082019050919050565b600060208201905081810360008301526135b88161357c565b9050919050565b7f4552433732313a20617070726f76616c20746f2063757272656e74206f776e6560008201527f7200000000000000000000000000000000000000000000000000000000000000602082015250565b600061361b602183612c5d565b9150613626826135bf565b604082019050919050565b6000602082019050818103600083015261364a8161360e565b9050919050565b7f4552433732313a20617070726f76652063616c6c6572206973206e6f74206f7760008201527f6e6572206e6f7220617070726f76656420666f7220616c6c0000000000000000602082015250565b60006136ad603883612c5d565b91506136b882613651565b604082019050919050565b600060208201905081810360008301526136dc816136a0565b9050919050565b7f4552433732313a207472616e736665722063616c6c6572206973206e6f74206f60008201527f776e6572206e6f7220617070726f766564000000000000000000000000000000602082015250565b600061373f603183612c5d565b915061374a826136e3565b604082019050919050565b6000602082019050818103600083015261376e81613732565b9050919050565b7f4552433732313a206f776e657220717565727920666f72206e6f6e657869737460008201527f656e7420746f6b656e0000000000000000000000000000000000000000000000602082015250565b60006137d1602983612c5d565b91506137dc82613775565b604082019050919050565b60006020820190508181036000830152613800816137c4565b9050919050565b7f4552433732313a2062616c616e636520717565727920666f7220746865207a6560008201527f726f206164647265737300000000000000000000000000000000000000000000602082015250565b6000613863602a83612c5d565b915061386e82613807565b604082019050919050565b6000602082019050818103600083015261389281613856565b9050919050565b7f4552433732314d657461646174613a2055524920717565727920666f72206e6f60008201527f6e6578697374656e7420746f6b656e0000000000000000000000000000000000602082015250565b60006138f5602f83612c5d565b915061390082613899565b604082019050919050565b60006020820190508181036000830152613924816138e8565b9050919050565b600081905092915050565b600061394182612c52565b61394b818561392b565b935061395b818560208601612c6e565b80840191505092915050565b60006139738285613936565b915061397f8284613936565b91508190509392505050565b60006040820190506139a0600083018561304a565b6139ad602083018461304a565b9392505050565b7f4552433732313a206f70657261746f7220717565727920666f72206e6f6e657860008201527f697374656e7420746f6b656e0000000000000000000000000000000000000000602082015250565b6000613a10602c83612c5d565b9150613a1b826139b4565b604082019050919050565b60006020820190508181036000830152613a3f81613a03565b9050919050565b7f4552433732313a207472616e736665722066726f6d20696e636f72726563742060008201527f6f776e6572000000000000000000000000000000000000000000000000000000602082015250565b6000613aa2602583612c5d565b9150613aad82613a46565b604082019050919050565b60006020820190508181036000830152613ad181613a95565b9050919050565b7f4552433732313a207472616e7366657220746f20746865207a65726f2061646460008201527f7265737300000000000000000000000000000000000000000000000000000000602082015250565b6000613b34602483612c5d565b9150613b3f82613ad8565b604082019050919050565b60006020820190508181036000830152613b6381613b27565b9050919050565b6000613b7582612d0d565b9150613b8083612d0d565b925082821015613b9357613b926134b5565b5b828203905092915050565b6000613ba982612d0d565b9150613bb483612d0d565b9250827fffffffffffffffffffffffffffffffffffffffffffffffffffffffffffffffff03821115613be957613be86134b5565b5b828201905092915050565b7f4552433732313a20617070726f766520746f2063616c6c657200000000000000600082015250565b6000613c2a601983612c5d565b9150613c3582613bf4565b602082019050919050565b60006020820190508181036000830152613c5981613c1d565b9050919050565b7f4552433732313a207472616e7366657220746f206e6f6e20455243373231526560008201527f63656976657220696d706c656d656e7465720000000000000000000000000000602082015250565b6000613cbc603283612c5d565b9150613cc782613c60565b604082019050919050565b60006020820190508181036000830152613ceb81613caf565b9050919050565b7f4e487b7100000000000000000000000000000000000000000000000000000000600052601260045260246000fd5b6000613d2c82612d0d565b9150613d3783612d0d565b925082613d4757613d46613cf2565b5b828204905092915050565b6000613d5d82612d0d565b9150613d6883612d0d565b925082613d7857613d77613cf2565b5b828206905092915050565b7f4e487b7100000000000000000000000000000000000000000000000000000000600052603260045260246000fd5b600081519050919050565b600082825260208201905092915050565b6000613dd982613db2565b613de38185613dbd565b9350613df3818560208601612c6e565b613dfc81612ca1565b840191505092915050565b6000608082019050613e1c6000830187612da2565b613e296020830186612da2565b613e36604083018561304a565b8181036060830152613e488184613dce565b905095945050505050565b600081519050613e6281612bc3565b92915050565b600060208284031215613e7e57613e7d612b8d565b5b6000613e8c84828501613e53565b91505092915050565b7f4552433732313a206d696e7420746f20746865207a65726f2061646472657373600082015250565b6000613ecb602083612c5d565b9150613ed682613e95565b602082019050919050565b60006020820190508181036000830152613efa81613ebe565b9050919050565b7f4552433732313a20746f6b656e20616c7265616479206d696e74656400000000600082015250565b6000613f37601c83612c5d565b9150613f4282613f01565b602082019050919050565b60006020820190508181036000830152613f6681613f2a565b905091905056fea26469706673582212201aa47a812c7f80e1d75f9154244aa0f56ea11e6632986f3a7b3d76084c858f7464736f6c634300080b0033",
  "immutableReferences": {},
  "source": "// SPDX-License-Identifier: MIT\n\npragma solidity ^0.8.0;\n\nimport \"@openzeppelin/contracts/token/ERC721/ERC721.sol\";\n\ncontract MinerMinter is ERC721 {\n\n    address public owner;\n    address public upgrader;\n    uint256 minerId = 1;\n    uint256 maxMiners = 1000;\n    uint256 mintPrice = 20e18;\n    uint256 baseMiningLevel = 1;\n    uint256 baseCapacityLevel = 1;\n    uint256 baseMiningPower = 1e18;\n    uint256 baseCoalCapacity = 6e18;\n    uint256 baseIronCapacity = 16e17;\n    uint256 baseSilverCapacity = 2e17;\n\n    struct Miner {\n        uint256 minerId;\n        address owner;\n        uint256 miningLevel;\n        uint256 capacityLevel;\n        uint256 miningPower;\n        uint256 coalCapacity;\n        uint256 ironCapacity;\n        uint256 silverCapacity;\n    }\n\n    Miner[] public allMiners;\n\n    mapping(address => Miner[]) public ownedMiners;\n    mapping(uint256 => Miner) public minerMap;\n\n    constructor() ERC721(\"Miner\", \"MINER\") {\n        owner = msg.sender;\n    }\n\n    /// Events\n    event LogMint(uint256 id);\n    event LogUpdateMintPrice(uint256 amount);\n    event LogSetUpgrader(address _address);\n    event LogUpgradeMiningLevel(uint256 minerId, uint256 newLevel);\n    event LogUpgradeCapacityLevel(uint256 minerId, uint256 newLevel);\n\n    /// Modifiers\n    modifier correctMintPrice(uint256 _amount) {\n        require(_amount == mintPrice);\n        _;\n    }\n    \n    modifier isOwner(address _address) {\n        require (owner == _address);\n        _;\n    }\n\n    modifier isUpgrader(address _address) {\n        require (upgrader != address(0));\n        require (_address == upgrader);\n        _;\n    }\n\n    modifier mintAvailable() {\n        require (minerId < maxMiners);\n        _;\n    }\n\n    modifier minerExists(uint256 _minerId) {\n        require (minerMap[_minerId].minerId > 0);\n        _;\n    }\n\n    function getMiner(uint256 _minerId) public view returns (Miner memory) {\n        return minerMap[_minerId];\n    }\n\n    function getAllMiners() public view returns (Miner[] memory) {\n        return allMiners;\n    }\n\n    function getMyMiners() public view returns (Miner[] memory) {\n        return ownedMiners[msg.sender];\n    }\n\n    function mintMiner() public payable correctMintPrice(msg.value) mintAvailable() {\n        _safeMint(msg.sender, minerId);\n        Miner memory miner = Miner(\n            minerId, \n            msg.sender, \n            baseMiningLevel, \n            baseCapacityLevel, \n            baseMiningPower, \n            baseCoalCapacity, \n            baseIronCapacity, \n            baseSilverCapacity);\n        allMiners.push(miner);\n        ownedMiners[msg.sender].push(miner);\n        minerMap[minerId] = miner;\n        emit LogMint(minerId);\n        minerId++;\n    }\n\n    function setMintPrice(uint256 newPrice) public isOwner(msg.sender) {\n        mintPrice = newPrice;\n        emit LogUpdateMintPrice(newPrice);\n    }\n\n    function getMintPrice() public view returns (uint256) {\n        return mintPrice;\n    }\n\n    function setUpgrader(address _address) public isOwner(msg.sender) {\n        upgrader = _address;\n        emit LogSetUpgrader(_address);\n    }\n\n    function getUpgrader() public view returns (address) {\n        return upgrader;\n    }\n\n    function setMiningLevel(uint256 _minerId, uint256 level) public isUpgrader(msg.sender) minerExists(_minerId) {\n        minerMap[_minerId].miningLevel = level;\n        emit LogUpgradeMiningLevel(_minerId, level);\n    }\n\n    function setCapacityLevel(uint256 _minerId, uint256 level) public isUpgrader(msg.sender) minerExists(_minerId) {\n        minerMap[_minerId].capacityLevel = level;\n        emit LogUpgradeCapacityLevel(_minerId, level);\n    }\n\n    function setMiningPower(uint256 _minerId, uint256 power) public isUpgrader(msg.sender) minerExists(_minerId) {\n        minerMap[_minerId].miningPower = power;\n    }\n\n    function setCoalCapacity(uint256 _minerId, uint256 capacity) public isUpgrader(msg.sender) minerExists(_minerId) {\n        minerMap[_minerId].coalCapacity = capacity;\n    }\n\n    function setIronCapacity(uint256 _minerId, uint256 capacity) public isUpgrader(msg.sender) minerExists(_minerId) {\n        minerMap[_minerId].ironCapacity = capacity;\n    }\n\n    function setSilverCapacity(uint256 _minerId, uint256 capacity) public isUpgrader(msg.sender) minerExists(_minerId) {\n        minerMap[_minerId].silverCapacity = capacity;\n    }\n}",
  "sourcePath": "/Users/aslan/Desktop/DeMiner/contracts/MinerMinter.sol",
  "compiler": {
    "name": "solc",
    "version": "0.8.11+commit.d7f03943.Emscripten.clang"
  },
  "schemaVersion": "3.4.3",
  "updatedAt": "2022-04-10T11:22:32.373Z",
  "devdoc": {
    "kind": "dev",
    "methods": {
      "approve(address,uint256)": {
        "details": "See {IERC721-approve}."
      },
      "balanceOf(address)": {
        "details": "See {IERC721-balanceOf}."
      },
      "getApproved(uint256)": {
        "details": "See {IERC721-getApproved}."
      },
      "isApprovedForAll(address,address)": {
        "details": "See {IERC721-isApprovedForAll}."
      },
      "name()": {
        "details": "See {IERC721Metadata-name}."
      },
      "ownerOf(uint256)": {
        "details": "See {IERC721-ownerOf}."
      },
      "safeTransferFrom(address,address,uint256)": {
        "details": "See {IERC721-safeTransferFrom}."
      },
      "safeTransferFrom(address,address,uint256,bytes)": {
        "details": "See {IERC721-safeTransferFrom}."
      },
      "setApprovalForAll(address,bool)": {
        "details": "See {IERC721-setApprovalForAll}."
      },
      "supportsInterface(bytes4)": {
        "details": "See {IERC165-supportsInterface}."
      },
      "symbol()": {
        "details": "See {IERC721Metadata-symbol}."
      },
      "tokenURI(uint256)": {
        "details": "See {IERC721Metadata-tokenURI}."
      },
      "transferFrom(address,address,uint256)": {
        "details": "See {IERC721-transferFrom}."
      }
    },
    "version": 1
  },
  "userdoc": {
    "events": {
      "LogMint(uint256)": {
        "notice": "Events"
      }
    },
    "kind": "user",
    "methods": {},
    "version": 1
  }
}