{
  "contractName": "MinerToken",
  "abi": [
    {
      "inputs": [],
      "stateMutability": "nonpayable",
      "type": "constructor"
    },
    {
      "anonymous": false,
      "inputs": [
        {
          "indexed": true,
          "internalType": "address",
          "name": "owner",
          "type": "address"
        },
        {
          "indexed": true,
          "internalType": "address",
          "name": "approved",
          "type": "address"
        },
        {
          "indexed": true,
          "internalType": "uint256",
          "name": "tokenId",
          "type": "uint256"
        }
      ],
      "name": "Approval",
      "type": "event"
    },
    {
      "anonymous": false,
      "inputs": [
        {
          "indexed": true,
          "internalType": "address",
          "name": "owner",
          "type": "address"
        },
        {
          "indexed": true,
          "internalType": "address",
          "name": "operator",
          "type": "address"
        },
        {
          "indexed": false,
          "internalType": "bool",
          "name": "approved",
          "type": "bool"
        }
      ],
      "name": "ApprovalForAll",
      "type": "event"
    },
    {
      "anonymous": false,
      "inputs": [
        {
          "indexed": true,
          "internalType": "address",
          "name": "from",
          "type": "address"
        },
        {
          "indexed": true,
          "internalType": "address",
          "name": "to",
          "type": "address"
        },
        {
          "indexed": true,
          "internalType": "uint256",
          "name": "tokenId",
          "type": "uint256"
        }
      ],
      "name": "Transfer",
      "type": "event"
    },
    {
      "inputs": [
        {
          "internalType": "uint256",
          "name": "",
          "type": "uint256"
        }
      ],
      "name": "allMiners",
      "outputs": [
        {
          "internalType": "uint256",
          "name": "minerId",
          "type": "uint256"
        },
        {
          "internalType": "address",
          "name": "owner",
          "type": "address"
        },
        {
          "internalType": "uint256",
          "name": "miningLevel",
          "type": "uint256"
        },
        {
          "internalType": "uint256",
          "name": "capacityLevel",
          "type": "uint256"
        },
        {
          "internalType": "uint256",
          "name": "miningPower",
          "type": "uint256"
        },
        {
          "internalType": "uint256",
          "name": "coalCapacity",
          "type": "uint256"
        },
        {
          "internalType": "uint256",
          "name": "ironCapacity",
          "type": "uint256"
        },
        {
          "internalType": "uint256",
          "name": "silverCapacity",
          "type": "uint256"
        }
      ],
      "stateMutability": "view",
      "type": "function"
    },
    {
      "inputs": [
        {
          "internalType": "address",
          "name": "to",
          "type": "address"
        },
        {
          "internalType": "uint256",
          "name": "tokenId",
          "type": "uint256"
        }
      ],
      "name": "approve",
      "outputs": [],
      "stateMutability": "nonpayable",
      "type": "function"
    },
    {
      "inputs": [
        {
          "internalType": "address",
          "name": "owner",
          "type": "address"
        }
      ],
      "name": "balanceOf",
      "outputs": [
        {
          "internalType": "uint256",
          "name": "",
          "type": "uint256"
        }
      ],
      "stateMutability": "view",
      "type": "function"
    },
    {
      "inputs": [
        {
          "internalType": "uint256",
          "name": "tokenId",
          "type": "uint256"
        }
      ],
      "name": "getApproved",
      "outputs": [
        {
          "internalType": "address",
          "name": "",
          "type": "address"
        }
      ],
      "stateMutability": "view",
      "type": "function"
    },
    {
      "inputs": [
        {
          "internalType": "address",
          "name": "owner",
          "type": "address"
        },
        {
          "internalType": "address",
          "name": "operator",
          "type": "address"
        }
      ],
      "name": "isApprovedForAll",
      "outputs": [
        {
          "internalType": "bool",
          "name": "",
          "type": "bool"
        }
      ],
      "stateMutability": "view",
      "type": "function"
    },
    {
      "inputs": [
        {
          "internalType": "uint256",
          "name": "",
          "type": "uint256"
        }
      ],
      "name": "minerExists",
      "outputs": [
        {
          "internalType": "bool",
          "name": "",
          "type": "bool"
        }
      ],
      "stateMutability": "view",
      "type": "function"
    },
    {
      "inputs": [],
      "name": "name",
      "outputs": [
        {
          "internalType": "string",
          "name": "",
          "type": "string"
        }
      ],
      "stateMutability": "view",
      "type": "function"
    },
    {
      "inputs": [
        {
          "internalType": "address",
          "name": "",
          "type": "address"
        },
        {
          "internalType": "uint256",
          "name": "",
          "type": "uint256"
        }
      ],
      "name": "ownedMiners",
      "outputs": [
        {
          "internalType": "uint256",
          "name": "minerId",
          "type": "uint256"
        },
        {
          "internalType": "address",
          "name": "owner",
          "type": "address"
        },
        {
          "internalType": "uint256",
          "name": "miningLevel",
          "type": "uint256"
        },
        {
          "internalType": "uint256",
          "name": "capacityLevel",
          "type": "uint256"
        },
        {
          "internalType": "uint256",
          "name": "miningPower",
          "type": "uint256"
        },
        {
          "internalType": "uint256",
          "name": "coalCapacity",
          "type": "uint256"
        },
        {
          "internalType": "uint256",
          "name": "ironCapacity",
          "type": "uint256"
        },
        {
          "internalType": "uint256",
          "name": "silverCapacity",
          "type": "uint256"
        }
      ],
      "stateMutability": "view",
      "type": "function"
    },
    {
      "inputs": [],
      "name": "owner",
      "outputs": [
        {
          "internalType": "address",
          "name": "",
          "type": "address"
        }
      ],
      "stateMutability": "view",
      "type": "function"
    },
    {
      "inputs": [
        {
          "internalType": "uint256",
          "name": "tokenId",
          "type": "uint256"
        }
      ],
      "name": "ownerOf",
      "outputs": [
        {
          "internalType": "address",
          "name": "",
          "type": "address"
        }
      ],
      "stateMutability": "view",
      "type": "function"
    },
    {
      "inputs": [
        {
          "internalType": "address",
          "name": "from",
          "type": "address"
        },
        {
          "internalType": "address",
          "name": "to",
          "type": "address"
        },
        {
          "internalType": "uint256",
          "name": "tokenId",
          "type": "uint256"
        }
      ],
      "name": "safeTransferFrom",
      "outputs": [],
      "stateMutability": "nonpayable",
      "type": "function"
    },
    {
      "inputs": [
        {
          "internalType": "address",
          "name": "from",
          "type": "address"
        },
        {
          "internalType": "address",
          "name": "to",
          "type": "address"
        },
        {
          "internalType": "uint256",
          "name": "tokenId",
          "type": "uint256"
        },
        {
          "internalType": "bytes",
          "name": "_data",
          "type": "bytes"
        }
      ],
      "name": "safeTransferFrom",
      "outputs": [],
      "stateMutability": "nonpayable",
      "type": "function"
    },
    {
      "inputs": [
        {
          "internalType": "address",
          "name": "operator",
          "type": "address"
        },
        {
          "internalType": "bool",
          "name": "approved",
          "type": "bool"
        }
      ],
      "name": "setApprovalForAll",
      "outputs": [],
      "stateMutability": "nonpayable",
      "type": "function"
    },
    {
      "inputs": [
        {
          "internalType": "bytes4",
          "name": "interfaceId",
          "type": "bytes4"
        }
      ],
      "name": "supportsInterface",
      "outputs": [
        {
          "internalType": "bool",
          "name": "",
          "type": "bool"
        }
      ],
      "stateMutability": "view",
      "type": "function"
    },
    {
      "inputs": [],
      "name": "symbol",
      "outputs": [
        {
          "internalType": "string",
          "name": "",
          "type": "string"
        }
      ],
      "stateMutability": "view",
      "type": "function"
    },
    {
      "inputs": [
        {
          "internalType": "uint256",
          "name": "tokenId",
          "type": "uint256"
        }
      ],
      "name": "tokenURI",
      "outputs": [
        {
          "internalType": "string",
          "name": "",
          "type": "string"
        }
      ],
      "stateMutability": "view",
      "type": "function"
    },
    {
      "inputs": [
        {
          "internalType": "address",
          "name": "from",
          "type": "address"
        },
        {
          "internalType": "address",
          "name": "to",
          "type": "address"
        },
        {
          "internalType": "uint256",
          "name": "tokenId",
          "type": "uint256"
        }
      ],
      "name": "transferFrom",
      "outputs": [],
      "stateMutability": "nonpayable",
      "type": "function"
    },
    {
      "inputs": [],
      "name": "getAllMiners",
      "outputs": [
        {
          "components": [
            {
              "internalType": "uint256",
              "name": "minerId",
              "type": "uint256"
            },
            {
              "internalType": "address",
              "name": "owner",
              "type": "address"
            },
            {
              "internalType": "uint256",
              "name": "miningLevel",
              "type": "uint256"
            },
            {
              "internalType": "uint256",
              "name": "capacityLevel",
              "type": "uint256"
            },
            {
              "internalType": "uint256",
              "name": "miningPower",
              "type": "uint256"
            },
            {
              "internalType": "uint256",
              "name": "coalCapacity",
              "type": "uint256"
            },
            {
              "internalType": "uint256",
              "name": "ironCapacity",
              "type": "uint256"
            },
            {
              "internalType": "uint256",
              "name": "silverCapacity",
              "type": "uint256"
            }
          ],
          "internalType": "struct MinerToken.Miner[]",
          "name": "",
          "type": "tuple[]"
        }
      ],
      "stateMutability": "view",
      "type": "function"
    },
    {
      "inputs": [],
      "name": "getMyMiners",
      "outputs": [
        {
          "components": [
            {
              "internalType": "uint256",
              "name": "minerId",
              "type": "uint256"
            },
            {
              "internalType": "address",
              "name": "owner",
              "type": "address"
            },
            {
              "internalType": "uint256",
              "name": "miningLevel",
              "type": "uint256"
            },
            {
              "internalType": "uint256",
              "name": "capacityLevel",
              "type": "uint256"
            },
            {
              "internalType": "uint256",
              "name": "miningPower",
              "type": "uint256"
            },
            {
              "internalType": "uint256",
              "name": "coalCapacity",
              "type": "uint256"
            },
            {
              "internalType": "uint256",
              "name": "ironCapacity",
              "type": "uint256"
            },
            {
              "internalType": "uint256",
              "name": "silverCapacity",
              "type": "uint256"
            }
          ],
          "internalType": "struct MinerToken.Miner[]",
          "name": "",
          "type": "tuple[]"
        }
      ],
      "stateMutability": "view",
      "type": "function"
    },
    {
      "inputs": [],
      "name": "mintMiner",
      "outputs": [],
      "stateMutability": "payable",
      "type": "function"
    }
  ],
  "bytecode": "0x608060405260016007556801158e460913d000006008553480156200002357600080fd5b506040518060400160405280600581526020017f4d696e65720000000000000000000000000000000000000000000000000000008152506040518060400160405280600581526020017f4d494e45520000000000000000000000000000000000000000000000000000008152508160009080519060200190620000a89291906200010b565b508060019080519060200190620000c19291906200010b565b50505033600660006101000a81548173ffffffffffffffffffffffffffffffffffffffff021916908373ffffffffffffffffffffffffffffffffffffffff16021790555062000220565b8280546200011990620001ea565b90600052602060002090601f0160209004810192826200013d576000855562000189565b82601f106200015857805160ff191683800117855562000189565b8280016001018555821562000189579182015b82811115620001885782518255916020019190600101906200016b565b5b5090506200019891906200019c565b5090565b5b80821115620001b75760008160009055506001016200019d565b5090565b7f4e487b7100000000000000000000000000000000000000000000000000000000600052602260045260246000fd5b600060028204905060018216806200020357607f821691505b602082108114156200021a5762000219620001bb565b5b50919050565b61316980620002306000396000f3fe60806040526004361061011f5760003560e01c80636352211e116100a0578063ae58201311610064578063ae582013146103da578063b88d4fde1461041e578063c87b56dd14610447578063e4948d7514610484578063e985e9c5146104c85761011f565b80636352211e146102e157806370a082311461031e5780638da5cb5b1461035b57806395d89b4114610386578063a22cb465146103b15761011f565b80630a76e5ed116100e75780630a76e5ed146101fc5780631fdee96e1461022757806323b872dd1461026457806342842e0e1461028d5780634b17bf30146102b65761011f565b806301ffc9a71461012457806306fdde0314610161578063078f44631461018c578063081812fc14610196578063095ea7b3146101d3575b600080fd5b34801561013057600080fd5b5061014b60048036038101906101469190611edc565b610505565b6040516101589190611f24565b60405180910390f35b34801561016d57600080fd5b506101766105e7565b6040516101839190611fd8565b60405180910390f35b610194610679565b005b3480156101a257600080fd5b506101bd60048036038101906101b89190612030565b610907565b6040516101ca919061209e565b60405180910390f35b3480156101df57600080fd5b506101fa60048036038101906101f591906120e5565b61098c565b005b34801561020857600080fd5b50610211610aa4565b60405161021e9190612295565b60405180910390f35b34801561023357600080fd5b5061024e60048036038101906102499190612030565b610bdd565b60405161025b9190611f24565b60405180910390f35b34801561027057600080fd5b5061028b600480360381019061028691906122b7565b610bfd565b005b34801561029957600080fd5b506102b460048036038101906102af91906122b7565b610c5d565b005b3480156102c257600080fd5b506102cb610c7d565b6040516102d89190612295565b60405180910390f35b3480156102ed57600080fd5b5061030860048036038101906103039190612030565b610d79565b604051610315919061209e565b60405180910390f35b34801561032a57600080fd5b506103456004803603810190610340919061230a565b610e2b565b6040516103529190612346565b60405180910390f35b34801561036757600080fd5b50610370610ee3565b60405161037d919061209e565b60405180910390f35b34801561039257600080fd5b5061039b610f09565b6040516103a89190611fd8565b60405180910390f35b3480156103bd57600080fd5b506103d860048036038101906103d3919061238d565b610f9b565b005b3480156103e657600080fd5b5061040160048036038101906103fc9190612030565b610fb1565b6040516104159897969594939291906123cd565b60405180910390f35b34801561042a57600080fd5b5061044560048036038101906104409190612580565b611029565b005b34801561045357600080fd5b5061046e60048036038101906104699190612030565b61108b565b60405161047b9190611fd8565b60405180910390f35b34801561049057600080fd5b506104ab60048036038101906104a691906120e5565b611132565b6040516104bf9897969594939291906123cd565b60405180910390f35b3480156104d457600080fd5b506104ef60048036038101906104ea9190612603565b6111b7565b6040516104fc9190611f24565b60405180910390f35b60007f80ac58cd000000000000000000000000000000000000000000000000000000007bffffffffffffffffffffffffffffffffffffffffffffffffffffffff1916827bffffffffffffffffffffffffffffffffffffffffffffffffffffffff191614806105d057507f5b5e139f000000000000000000000000000000000000000000000000000000007bffffffffffffffffffffffffffffffffffffffffffffffffffffffff1916827bffffffffffffffffffffffffffffffffffffffffffffffffffffffff1916145b806105e057506105df8261124b565b5b9050919050565b6060600080546105f690612672565b80601f016020809104026020016040519081016040528092919081815260200182805461062290612672565b801561066f5780601f106106445761010080835404028352916020019161066f565b820191906000526020600020905b81548152906001019060200180831161065257829003601f168201915b5050505050905090565b600854341461068757600080fd5b610693336007546112b5565b600060405180610100016040528060075481526020013373ffffffffffffffffffffffffffffffffffffffff1681526020016001815260200160018152602001670de0b6b3a764000081526020016753444835ec5800008152602001670b1a2bc2ec500000815260200167016345785d8a0000815250905060098190806001815401808255809150506001900390600052602060002090600802016000909190919091506000820151816000015560208201518160010160006101000a81548173ffffffffffffffffffffffffffffffffffffffff021916908373ffffffffffffffffffffffffffffffffffffffff16021790555060408201518160020155606082015181600301556080820151816004015560a0820151816005015560c0820151816006015560e082015181600701555050600a60003373ffffffffffffffffffffffffffffffffffffffff1673ffffffffffffffffffffffffffffffffffffffff1681526020019081526020016000208190806001815401808255809150506001900390600052602060002090600802016000909190919091506000820151816000015560208201518160010160006101000a81548173ffffffffffffffffffffffffffffffffffffffff021916908373ffffffffffffffffffffffffffffffffffffffff16021790555060408201518160020155606082015181600301556080820151816004015560a0820151816005015560c0820151816006015560e0820151816007015550506001600b6000600754815260200190815260200160002060006101000a81548160ff021916908315150217905550600760008154809291906108ff906126d3565b919050555050565b6000610912826112d3565b610951576040517f08c379a00000000000000000000000000000000000000000000000000000000081526004016109489061278e565b60405180910390fd5b6004600083815260200190815260200160002060009054906101000a900473ffffffffffffffffffffffffffffffffffffffff169050919050565b600061099782610d79565b90508073ffffffffffffffffffffffffffffffffffffffff168373ffffffffffffffffffffffffffffffffffffffff161415610a08576040517f08c379a00000000000000000000000000000000000000000000000000000000081526004016109ff90612820565b60405180910390fd5b8073ffffffffffffffffffffffffffffffffffffffff16610a2761133f565b73ffffffffffffffffffffffffffffffffffffffff161480610a565750610a5581610a5061133f565b6111b7565b5b610a95576040517f08c379a0000000000000000000000000000000000000000000000000000000008152600401610a8c906128b2565b60405180910390fd5b610a9f8383611347565b505050565b6060600a60003373ffffffffffffffffffffffffffffffffffffffff1673ffffffffffffffffffffffffffffffffffffffff168152602001908152602001600020805480602002602001604051908101604052809291908181526020016000905b82821015610bd4578382906000526020600020906008020160405180610100016040529081600082015481526020016001820160009054906101000a900473ffffffffffffffffffffffffffffffffffffffff1673ffffffffffffffffffffffffffffffffffffffff1673ffffffffffffffffffffffffffffffffffffffff168152602001600282015481526020016003820154815260200160048201548152602001600582015481526020016006820154815260200160078201548152505081526020019060010190610b05565b50505050905090565b600b6020528060005260406000206000915054906101000a900460ff1681565b610c0e610c0861133f565b82611400565b610c4d576040517f08c379a0000000000000000000000000000000000000000000000000000000008152600401610c4490612944565b60405180910390fd5b610c588383836114de565b505050565b610c7883838360405180602001604052806000815250611029565b505050565b60606009805480602002602001604051908101604052809291908181526020016000905b82821015610d70578382906000526020600020906008020160405180610100016040529081600082015481526020016001820160009054906101000a900473ffffffffffffffffffffffffffffffffffffffff1673ffffffffffffffffffffffffffffffffffffffff1673ffffffffffffffffffffffffffffffffffffffff168152602001600282015481526020016003820154815260200160048201548152602001600582015481526020016006820154815260200160078201548152505081526020019060010190610ca1565b50505050905090565b6000806002600084815260200190815260200160002060009054906101000a900473ffffffffffffffffffffffffffffffffffffffff169050600073ffffffffffffffffffffffffffffffffffffffff168173ffffffffffffffffffffffffffffffffffffffff161415610e22576040517f08c379a0000000000000000000000000000000000000000000000000000000008152600401610e19906129d6565b60405180910390fd5b80915050919050565b60008073ffffffffffffffffffffffffffffffffffffffff168273ffffffffffffffffffffffffffffffffffffffff161415610e9c576040517f08c379a0000000000000000000000000000000000000000000000000000000008152600401610e9390612a68565b60405180910390fd5b600360008373ffffffffffffffffffffffffffffffffffffffff1673ffffffffffffffffffffffffffffffffffffffff168152602001908152602001600020549050919050565b600660009054906101000a900473ffffffffffffffffffffffffffffffffffffffff1681565b606060018054610f1890612672565b80601f0160208091040260200160405190810160405280929190818152602001828054610f4490612672565b8015610f915780601f10610f6657610100808354040283529160200191610f91565b820191906000526020600020905b815481529060010190602001808311610f7457829003601f168201915b5050505050905090565b610fad610fa661133f565b8383611745565b5050565b60098181548110610fc157600080fd5b90600052602060002090600802016000915090508060000154908060010160009054906101000a900473ffffffffffffffffffffffffffffffffffffffff16908060020154908060030154908060040154908060050154908060060154908060070154905088565b61103a61103461133f565b83611400565b611079576040517f08c379a000000000000000000000000000000000000000000000000000000000815260040161107090612944565b60405180910390fd5b611085848484846118b2565b50505050565b6060611096826112d3565b6110d5576040517f08c379a00000000000000000000000000000000000000000000000000000000081526004016110cc90612afa565b60405180910390fd5b60006110df61190e565b905060008151116110ff576040518060200160405280600081525061112a565b8061110984611925565b60405160200161111a929190612b56565b6040516020818303038152906040525b915050919050565b600a602052816000526040600020818154811061114e57600080fd5b9060005260206000209060080201600091509150508060000154908060010160009054906101000a900473ffffffffffffffffffffffffffffffffffffffff16908060020154908060030154908060040154908060050154908060060154908060070154905088565b6000600560008473ffffffffffffffffffffffffffffffffffffffff1673ffffffffffffffffffffffffffffffffffffffff16815260200190815260200160002060008373ffffffffffffffffffffffffffffffffffffffff1673ffffffffffffffffffffffffffffffffffffffff16815260200190815260200160002060009054906101000a900460ff16905092915050565b60007f01ffc9a7000000000000000000000000000000000000000000000000000000007bffffffffffffffffffffffffffffffffffffffffffffffffffffffff1916827bffffffffffffffffffffffffffffffffffffffffffffffffffffffff1916149050919050565b6112cf828260405180602001604052806000815250611a86565b5050565b60008073ffffffffffffffffffffffffffffffffffffffff166002600084815260200190815260200160002060009054906101000a900473ffffffffffffffffffffffffffffffffffffffff1673ffffffffffffffffffffffffffffffffffffffff1614159050919050565b600033905090565b816004600083815260200190815260200160002060006101000a81548173ffffffffffffffffffffffffffffffffffffffff021916908373ffffffffffffffffffffffffffffffffffffffff160217905550808273ffffffffffffffffffffffffffffffffffffffff166113ba83610d79565b73ffffffffffffffffffffffffffffffffffffffff167f8c5be1e5ebec7d5bd14f71427d1e84f3dd0314c0f7b2291e5b200ac8c7c3b92560405160405180910390a45050565b600061140b826112d3565b61144a576040517f08c379a000000000000000000000000000000000000000000000000000000000815260040161144190612bec565b60405180910390fd5b600061145583610d79565b90508073ffffffffffffffffffffffffffffffffffffffff168473ffffffffffffffffffffffffffffffffffffffff1614806114c457508373ffffffffffffffffffffffffffffffffffffffff166114ac84610907565b73ffffffffffffffffffffffffffffffffffffffff16145b806114d557506114d481856111b7565b5b91505092915050565b8273ffffffffffffffffffffffffffffffffffffffff166114fe82610d79565b73ffffffffffffffffffffffffffffffffffffffff1614611554576040517f08c379a000000000000000000000000000000000000000000000000000000000815260040161154b90612c7e565b60405180910390fd5b600073ffffffffffffffffffffffffffffffffffffffff168273ffffffffffffffffffffffffffffffffffffffff1614156115c4576040517f08c379a00000000000000000000000000000000000000000000000000000000081526004016115bb90612d10565b60405180910390fd5b6115cf838383611ae1565b6115da600082611347565b6001600360008573ffffffffffffffffffffffffffffffffffffffff1673ffffffffffffffffffffffffffffffffffffffff168152602001908152602001600020600082825461162a9190612d30565b925050819055506001600360008473ffffffffffffffffffffffffffffffffffffffff1673ffffffffffffffffffffffffffffffffffffffff16815260200190815260200160002060008282546116819190612d64565b92505081905550816002600083815260200190815260200160002060006101000a81548173ffffffffffffffffffffffffffffffffffffffff021916908373ffffffffffffffffffffffffffffffffffffffff160217905550808273ffffffffffffffffffffffffffffffffffffffff168473ffffffffffffffffffffffffffffffffffffffff167fddf252ad1be2c89b69c2b068fc378daa952ba7f163c4a11628f55a4df523b3ef60405160405180910390a4611740838383611ae6565b505050565b8173ffffffffffffffffffffffffffffffffffffffff168373ffffffffffffffffffffffffffffffffffffffff1614156117b4576040517f08c379a00000000000000000000000000000000000000000000000000000000081526004016117ab90612e06565b60405180910390fd5b80600560008573ffffffffffffffffffffffffffffffffffffffff1673ffffffffffffffffffffffffffffffffffffffff16815260200190815260200160002060008473ffffffffffffffffffffffffffffffffffffffff1673ffffffffffffffffffffffffffffffffffffffff16815260200190815260200160002060006101000a81548160ff0219169083151502179055508173ffffffffffffffffffffffffffffffffffffffff168373ffffffffffffffffffffffffffffffffffffffff167f17307eab39ab6107e8899845ad3d59bd9653f200f220920489ca2b5937696c31836040516118a59190611f24565b60405180910390a3505050565b6118bd8484846114de565b6118c984848484611aeb565b611908576040517f08c379a00000000000000000000000000000000000000000000000000000000081526004016118ff90612e98565b60405180910390fd5b50505050565b606060405180602001604052806000815250905090565b6060600082141561196d576040518060400160405280600181526020017f30000000000000000000000000000000000000000000000000000000000000008152509050611a81565b600082905060005b6000821461199f578080611988906126d3565b915050600a826119989190612ee7565b9150611975565b60008167ffffffffffffffff8111156119bb576119ba612455565b5b6040519080825280601f01601f1916602001820160405280156119ed5781602001600182028036833780820191505090505b5090505b60008514611a7a57600182611a069190612d30565b9150600a85611a159190612f18565b6030611a219190612d64565b60f81b818381518110611a3757611a36612f49565b5b60200101907effffffffffffffffffffffffffffffffffffffffffffffffffffffffffffff1916908160001a905350600a85611a739190612ee7565b94506119f1565b8093505050505b919050565b611a908383611c73565b611a9d6000848484611aeb565b611adc576040517f08c379a0000000000000000000000000000000000000000000000000000000008152600401611ad390612e98565b60405180910390fd5b505050565b505050565b505050565b6000611b0c8473ffffffffffffffffffffffffffffffffffffffff16611e4d565b15611c66578373ffffffffffffffffffffffffffffffffffffffff1663150b7a02611b3561133f565b8786866040518563ffffffff1660e01b8152600401611b579493929190612fcd565b6020604051808303816000875af1925050508015611b9357506040513d601f19601f82011682018060405250810190611b90919061302e565b60015b611c16573d8060008114611bc3576040519150601f19603f3d011682016040523d82523d6000602084013e611bc8565b606091505b50600081511415611c0e576040517f08c379a0000000000000000000000000000000000000000000000000000000008152600401611c0590612e98565b60405180910390fd5b805181602001fd5b63150b7a0260e01b7bffffffffffffffffffffffffffffffffffffffffffffffffffffffff1916817bffffffffffffffffffffffffffffffffffffffffffffffffffffffff191614915050611c6b565b600190505b949350505050565b600073ffffffffffffffffffffffffffffffffffffffff168273ffffffffffffffffffffffffffffffffffffffff161415611ce3576040517f08c379a0000000000000000000000000000000000000000000000000000000008152600401611cda906130a7565b60405180910390fd5b611cec816112d3565b15611d2c576040517f08c379a0000000000000000000000000000000000000000000000000000000008152600401611d2390613113565b60405180910390fd5b611d3860008383611ae1565b6001600360008473ffffffffffffffffffffffffffffffffffffffff1673ffffffffffffffffffffffffffffffffffffffff1681526020019081526020016000206000828254611d889190612d64565b92505081905550816002600083815260200190815260200160002060006101000a81548173ffffffffffffffffffffffffffffffffffffffff021916908373ffffffffffffffffffffffffffffffffffffffff160217905550808273ffffffffffffffffffffffffffffffffffffffff16600073ffffffffffffffffffffffffffffffffffffffff167fddf252ad1be2c89b69c2b068fc378daa952ba7f163c4a11628f55a4df523b3ef60405160405180910390a4611e4960008383611ae6565b5050565b6000808273ffffffffffffffffffffffffffffffffffffffff163b119050919050565b6000604051905090565b600080fd5b600080fd5b60007fffffffff0000000000000000000000000000000000000000000000000000000082169050919050565b611eb981611e84565b8114611ec457600080fd5b50565b600081359050611ed681611eb0565b92915050565b600060208284031215611ef257611ef1611e7a565b5b6000611f0084828501611ec7565b91505092915050565b60008115159050919050565b611f1e81611f09565b82525050565b6000602082019050611f396000830184611f15565b92915050565b600081519050919050565b600082825260208201905092915050565b60005b83811015611f79578082015181840152602081019050611f5e565b83811115611f88576000848401525b50505050565b6000601f19601f8301169050919050565b6000611faa82611f3f565b611fb48185611f4a565b9350611fc4818560208601611f5b565b611fcd81611f8e565b840191505092915050565b60006020820190508181036000830152611ff28184611f9f565b905092915050565b6000819050919050565b61200d81611ffa565b811461201857600080fd5b50565b60008135905061202a81612004565b92915050565b60006020828403121561204657612045611e7a565b5b60006120548482850161201b565b91505092915050565b600073ffffffffffffffffffffffffffffffffffffffff82169050919050565b60006120888261205d565b9050919050565b6120988161207d565b82525050565b60006020820190506120b3600083018461208f565b92915050565b6120c28161207d565b81146120cd57600080fd5b50565b6000813590506120df816120b9565b92915050565b600080604083850312156120fc576120fb611e7a565b5b600061210a858286016120d0565b925050602061211b8582860161201b565b9150509250929050565b600081519050919050565b600082825260208201905092915050565b6000819050602082019050919050565b61215a81611ffa565b82525050565b6121698161207d565b82525050565b610100820160008201516121866000850182612151565b5060208201516121996020850182612160565b5060408201516121ac6040850182612151565b5060608201516121bf6060850182612151565b5060808201516121d26080850182612151565b5060a08201516121e560a0850182612151565b5060c08201516121f860c0850182612151565b5060e082015161220b60e0850182612151565b50505050565b600061221d838361216f565b6101008301905092915050565b6000602082019050919050565b600061224282612125565b61224c8185612130565b935061225783612141565b8060005b8381101561228857815161226f8882612211565b975061227a8361222a565b92505060018101905061225b565b5085935050505092915050565b600060208201905081810360008301526122af8184612237565b905092915050565b6000806000606084860312156122d0576122cf611e7a565b5b60006122de868287016120d0565b93505060206122ef868287016120d0565b92505060406123008682870161201b565b9150509250925092565b6000602082840312156123205761231f611e7a565b5b600061232e848285016120d0565b91505092915050565b61234081611ffa565b82525050565b600060208201905061235b6000830184612337565b92915050565b61236a81611f09565b811461237557600080fd5b50565b60008135905061238781612361565b92915050565b600080604083850312156123a4576123a3611e7a565b5b60006123b2858286016120d0565b92505060206123c385828601612378565b9150509250929050565b6000610100820190506123e3600083018b612337565b6123f0602083018a61208f565b6123fd6040830189612337565b61240a6060830188612337565b6124176080830187612337565b61242460a0830186612337565b61243160c0830185612337565b61243e60e0830184612337565b9998505050505050505050565b600080fd5b600080fd5b7f4e487b7100000000000000000000000000000000000000000000000000000000600052604160045260246000fd5b61248d82611f8e565b810181811067ffffffffffffffff821117156124ac576124ab612455565b5b80604052505050565b60006124bf611e70565b90506124cb8282612484565b919050565b600067ffffffffffffffff8211156124eb576124ea612455565b5b6124f482611f8e565b9050602081019050919050565b82818337600083830152505050565b600061252361251e846124d0565b6124b5565b90508281526020810184848401111561253f5761253e612450565b5b61254a848285612501565b509392505050565b600082601f8301126125675761256661244b565b5b8135612577848260208601612510565b91505092915050565b6000806000806080858703121561259a57612599611e7a565b5b60006125a8878288016120d0565b94505060206125b9878288016120d0565b93505060406125ca8782880161201b565b925050606085013567ffffffffffffffff8111156125eb576125ea611e7f565b5b6125f787828801612552565b91505092959194509250565b6000806040838503121561261a57612619611e7a565b5b6000612628858286016120d0565b9250506020612639858286016120d0565b9150509250929050565b7f4e487b7100000000000000000000000000000000000000000000000000000000600052602260045260246000fd5b6000600282049050600182168061268a57607f821691505b6020821081141561269e5761269d612643565b5b50919050565b7f4e487b7100000000000000000000000000000000000000000000000000000000600052601160045260246000fd5b60006126de82611ffa565b91507fffffffffffffffffffffffffffffffffffffffffffffffffffffffffffffffff821415612711576127106126a4565b5b600182019050919050565b7f4552433732313a20617070726f76656420717565727920666f72206e6f6e657860008201527f697374656e7420746f6b656e0000000000000000000000000000000000000000602082015250565b6000612778602c83611f4a565b91506127838261271c565b604082019050919050565b600060208201905081810360008301526127a78161276b565b9050919050565b7f4552433732313a20617070726f76616c20746f2063757272656e74206f776e6560008201527f7200000000000000000000000000000000000000000000000000000000000000602082015250565b600061280a602183611f4a565b9150612815826127ae565b604082019050919050565b60006020820190508181036000830152612839816127fd565b9050919050565b7f4552433732313a20617070726f76652063616c6c6572206973206e6f74206f7760008201527f6e6572206e6f7220617070726f76656420666f7220616c6c0000000000000000602082015250565b600061289c603883611f4a565b91506128a782612840565b604082019050919050565b600060208201905081810360008301526128cb8161288f565b9050919050565b7f4552433732313a207472616e736665722063616c6c6572206973206e6f74206f60008201527f776e6572206e6f7220617070726f766564000000000000000000000000000000602082015250565b600061292e603183611f4a565b9150612939826128d2565b604082019050919050565b6000602082019050818103600083015261295d81612921565b9050919050565b7f4552433732313a206f776e657220717565727920666f72206e6f6e657869737460008201527f656e7420746f6b656e0000000000000000000000000000000000000000000000602082015250565b60006129c0602983611f4a565b91506129cb82612964565b604082019050919050565b600060208201905081810360008301526129ef816129b3565b9050919050565b7f4552433732313a2062616c616e636520717565727920666f7220746865207a6560008201527f726f206164647265737300000000000000000000000000000000000000000000602082015250565b6000612a52602a83611f4a565b9150612a5d826129f6565b604082019050919050565b60006020820190508181036000830152612a8181612a45565b9050919050565b7f4552433732314d657461646174613a2055524920717565727920666f72206e6f60008201527f6e6578697374656e7420746f6b656e0000000000000000000000000000000000602082015250565b6000612ae4602f83611f4a565b9150612aef82612a88565b604082019050919050565b60006020820190508181036000830152612b1381612ad7565b9050919050565b600081905092915050565b6000612b3082611f3f565b612b3a8185612b1a565b9350612b4a818560208601611f5b565b80840191505092915050565b6000612b628285612b25565b9150612b6e8284612b25565b91508190509392505050565b7f4552433732313a206f70657261746f7220717565727920666f72206e6f6e657860008201527f697374656e7420746f6b656e0000000000000000000000000000000000000000602082015250565b6000612bd6602c83611f4a565b9150612be182612b7a565b604082019050919050565b60006020820190508181036000830152612c0581612bc9565b9050919050565b7f4552433732313a207472616e736665722066726f6d20696e636f72726563742060008201527f6f776e6572000000000000000000000000000000000000000000000000000000602082015250565b6000612c68602583611f4a565b9150612c7382612c0c565b604082019050919050565b60006020820190508181036000830152612c9781612c5b565b9050919050565b7f4552433732313a207472616e7366657220746f20746865207a65726f2061646460008201527f7265737300000000000000000000000000000000000000000000000000000000602082015250565b6000612cfa602483611f4a565b9150612d0582612c9e565b604082019050919050565b60006020820190508181036000830152612d2981612ced565b9050919050565b6000612d3b82611ffa565b9150612d4683611ffa565b925082821015612d5957612d586126a4565b5b828203905092915050565b6000612d6f82611ffa565b9150612d7a83611ffa565b9250827fffffffffffffffffffffffffffffffffffffffffffffffffffffffffffffffff03821115612daf57612dae6126a4565b5b828201905092915050565b7f4552433732313a20617070726f766520746f2063616c6c657200000000000000600082015250565b6000612df0601983611f4a565b9150612dfb82612dba565b602082019050919050565b60006020820190508181036000830152612e1f81612de3565b9050919050565b7f4552433732313a207472616e7366657220746f206e6f6e20455243373231526560008201527f63656976657220696d706c656d656e7465720000000000000000000000000000602082015250565b6000612e82603283611f4a565b9150612e8d82612e26565b604082019050919050565b60006020820190508181036000830152612eb181612e75565b9050919050565b7f4e487b7100000000000000000000000000000000000000000000000000000000600052601260045260246000fd5b6000612ef282611ffa565b9150612efd83611ffa565b925082612f0d57612f0c612eb8565b5b828204905092915050565b6000612f2382611ffa565b9150612f2e83611ffa565b925082612f3e57612f3d612eb8565b5b828206905092915050565b7f4e487b7100000000000000000000000000000000000000000000000000000000600052603260045260246000fd5b600081519050919050565b600082825260208201905092915050565b6000612f9f82612f78565b612fa98185612f83565b9350612fb9818560208601611f5b565b612fc281611f8e565b840191505092915050565b6000608082019050612fe2600083018761208f565b612fef602083018661208f565b612ffc6040830185612337565b818103606083015261300e8184612f94565b905095945050505050565b60008151905061302881611eb0565b92915050565b60006020828403121561304457613043611e7a565b5b600061305284828501613019565b91505092915050565b7f4552433732313a206d696e7420746f20746865207a65726f2061646472657373600082015250565b6000613091602083611f4a565b915061309c8261305b565b602082019050919050565b600060208201905081810360008301526130c081613084565b9050919050565b7f4552433732313a20746f6b656e20616c7265616479206d696e74656400000000600082015250565b60006130fd601c83611f4a565b9150613108826130c7565b602082019050919050565b6000602082019050818103600083015261312c816130f0565b905091905056fea26469706673582212207b32b515307a4f3a13cc61fa39d5fccaaac5147e816cd0f4250399e57efa566464736f6c634300080b0033",
  "immutableReferences": {},
  "source": "// SPDX-License-Identifier: MIT\n\npragma solidity ^0.8.0;\n\nimport \"@openzeppelin/contracts/token/ERC721/ERC721.sol\";\n\ncontract MinerToken is ERC721 {\n\n    address public owner;\n    uint256 minerId = 1;\n    uint256 mintPrice = 20e18;\n\n    struct Miner {\n        uint256 minerId;\n        address owner;\n        uint256 miningLevel;\n        uint256 capacityLevel;\n        uint256 miningPower;\n        uint256 coalCapacity;\n        uint256 ironCapacity;\n        uint256 silverCapacity;\n    }\n\n    Miner[] public allMiners;\n\n    mapping(address => Miner[]) public ownedMiners;\n    mapping(uint256 => bool) public minerExists;\n\n\n    constructor() ERC721(\"Miner\", \"MINER\") {\n        owner = msg.sender;\n    }\n\n    function getAllMiners() public view returns (Miner[] memory) {\n        return allMiners;\n    }\n\n    function getMyMiners() public view returns (Miner[] memory) {\n        return ownedMiners[msg.sender];\n    }\n\n    function mintMiner() public payable {\n        require(msg.value == mintPrice);\n        _safeMint(msg.sender, minerId);\n        Miner memory miner = Miner(minerId, msg.sender, 1, 1, 1e18, 6e18, 8e17, 1e17);\n        allMiners.push(miner);\n        ownedMiners[msg.sender].push(miner);\n        minerExists[minerId] = true;\n        minerId++;\n    }\n}",
  "sourcePath": "/Users/aslan/Desktop/DeMiner/contracts/Miner.sol",
  "compiler": {
    "name": "solc",
    "version": "0.8.11+commit.d7f03943.Emscripten.clang"
  },
  "schemaVersion": "3.4.3",
  "updatedAt": "2022-04-09T14:45:10.776Z",
  "devdoc": {
    "kind": "dev",
    "methods": {
      "approve(address,uint256)": {
        "details": "See {IERC721-approve}."
      },
      "balanceOf(address)": {
        "details": "See {IERC721-balanceOf}."
      },
      "getApproved(uint256)": {
        "details": "See {IERC721-getApproved}."
      },
      "isApprovedForAll(address,address)": {
        "details": "See {IERC721-isApprovedForAll}."
      },
      "name()": {
        "details": "See {IERC721Metadata-name}."
      },
      "ownerOf(uint256)": {
        "details": "See {IERC721-ownerOf}."
      },
      "safeTransferFrom(address,address,uint256)": {
        "details": "See {IERC721-safeTransferFrom}."
      },
      "safeTransferFrom(address,address,uint256,bytes)": {
        "details": "See {IERC721-safeTransferFrom}."
      },
      "setApprovalForAll(address,bool)": {
        "details": "See {IERC721-setApprovalForAll}."
      },
      "supportsInterface(bytes4)": {
        "details": "See {IERC165-supportsInterface}."
      },
      "symbol()": {
        "details": "See {IERC721Metadata-symbol}."
      },
      "tokenURI(uint256)": {
        "details": "See {IERC721Metadata-tokenURI}."
      },
      "transferFrom(address,address,uint256)": {
        "details": "See {IERC721-transferFrom}."
      }
    },
    "version": 1
  },
  "userdoc": {
    "kind": "user",
    "methods": {},
    "version": 1
  }
}