{
  "contractName": "MineEmpireDrill",
  "abi": [
    {
      "inputs": [],
      "stateMutability": "nonpayable",
      "type": "constructor"
    },
    {
      "anonymous": false,
      "inputs": [
        {
          "indexed": true,
          "internalType": "address",
          "name": "owner",
          "type": "address"
        },
        {
          "indexed": true,
          "internalType": "address",
          "name": "approved",
          "type": "address"
        },
        {
          "indexed": true,
          "internalType": "uint256",
          "name": "tokenId",
          "type": "uint256"
        }
      ],
      "name": "Approval",
      "type": "event"
    },
    {
      "anonymous": false,
      "inputs": [
        {
          "indexed": true,
          "internalType": "address",
          "name": "owner",
          "type": "address"
        },
        {
          "indexed": true,
          "internalType": "address",
          "name": "operator",
          "type": "address"
        },
        {
          "indexed": false,
          "internalType": "bool",
          "name": "approved",
          "type": "bool"
        }
      ],
      "name": "ApprovalForAll",
      "type": "event"
    },
    {
      "anonymous": false,
      "inputs": [
        {
          "indexed": false,
          "internalType": "uint256",
          "name": "_drillId",
          "type": "uint256"
        }
      ],
      "name": "LogAlternativeMint",
      "type": "event"
    },
    {
      "anonymous": false,
      "inputs": [
        {
          "indexed": false,
          "internalType": "uint256",
          "name": "_type",
          "type": "uint256"
        }
      ],
      "name": "LogDrillTypeAdded",
      "type": "event"
    },
    {
      "anonymous": false,
      "inputs": [
        {
          "indexed": false,
          "internalType": "uint256",
          "name": "_drillId",
          "type": "uint256"
        }
      ],
      "name": "LogDrillUpgrade",
      "type": "event"
    },
    {
      "anonymous": false,
      "inputs": [
        {
          "indexed": false,
          "internalType": "uint256",
          "name": "_drillId",
          "type": "uint256"
        }
      ],
      "name": "LogFreeMint",
      "type": "event"
    },
    {
      "anonymous": false,
      "inputs": [
        {
          "indexed": false,
          "internalType": "uint256",
          "name": "_drillId",
          "type": "uint256"
        }
      ],
      "name": "LogMint",
      "type": "event"
    },
    {
      "anonymous": false,
      "inputs": [
        {
          "indexed": true,
          "internalType": "address",
          "name": "from",
          "type": "address"
        },
        {
          "indexed": true,
          "internalType": "address",
          "name": "to",
          "type": "address"
        },
        {
          "indexed": true,
          "internalType": "uint256",
          "name": "tokenId",
          "type": "uint256"
        }
      ],
      "name": "Transfer",
      "type": "event"
    },
    {
      "inputs": [
        {
          "internalType": "uint256",
          "name": "",
          "type": "uint256"
        }
      ],
      "name": "URIs",
      "outputs": [
        {
          "internalType": "string",
          "name": "",
          "type": "string"
        }
      ],
      "stateMutability": "view",
      "type": "function"
    },
    {
      "inputs": [
        {
          "internalType": "uint256",
          "name": "",
          "type": "uint256"
        }
      ],
      "name": "alternativeMints",
      "outputs": [
        {
          "internalType": "uint256",
          "name": "alternativeMintId",
          "type": "uint256"
        },
        {
          "internalType": "uint256",
          "name": "drillType",
          "type": "uint256"
        },
        {
          "internalType": "uint256",
          "name": "level",
          "type": "uint256"
        },
        {
          "internalType": "contract IERC20",
          "name": "currency",
          "type": "address"
        },
        {
          "internalType": "uint256",
          "name": "price",
          "type": "uint256"
        },
        {
          "internalType": "uint256",
          "name": "minted",
          "type": "uint256"
        },
        {
          "internalType": "uint256",
          "name": "maxMintsAllowed",
          "type": "uint256"
        },
        {
          "internalType": "uint256",
          "name": "releaseTime",
          "type": "uint256"
        }
      ],
      "stateMutability": "view",
      "type": "function"
    },
    {
      "inputs": [
        {
          "internalType": "address",
          "name": "to",
          "type": "address"
        },
        {
          "internalType": "uint256",
          "name": "tokenId",
          "type": "uint256"
        }
      ],
      "name": "approve",
      "outputs": [],
      "stateMutability": "nonpayable",
      "type": "function"
    },
    {
      "inputs": [
        {
          "internalType": "address",
          "name": "owner",
          "type": "address"
        }
      ],
      "name": "balanceOf",
      "outputs": [
        {
          "internalType": "uint256",
          "name": "",
          "type": "uint256"
        }
      ],
      "stateMutability": "view",
      "type": "function"
    },
    {
      "inputs": [],
      "name": "cosmicCash",
      "outputs": [
        {
          "internalType": "contract IERC20",
          "name": "",
          "type": "address"
        }
      ],
      "stateMutability": "view",
      "type": "function"
    },
    {
      "inputs": [],
      "name": "currentTokenId",
      "outputs": [
        {
          "internalType": "uint256",
          "name": "_value",
          "type": "uint256"
        }
      ],
      "stateMutability": "view",
      "type": "function"
    },
    {
      "inputs": [
        {
          "internalType": "uint256",
          "name": "",
          "type": "uint256"
        }
      ],
      "name": "drillIdToDrillMap",
      "outputs": [
        {
          "internalType": "uint256",
          "name": "drillId",
          "type": "uint256"
        },
        {
          "internalType": "uint256",
          "name": "drillType",
          "type": "uint256"
        },
        {
          "internalType": "uint256",
          "name": "level",
          "type": "uint256"
        }
      ],
      "stateMutability": "view",
      "type": "function"
    },
    {
      "inputs": [
        {
          "internalType": "uint256",
          "name": "",
          "type": "uint256"
        },
        {
          "internalType": "uint256",
          "name": "",
          "type": "uint256"
        }
      ],
      "name": "drillPriceAtLevel",
      "outputs": [
        {
          "internalType": "uint256",
          "name": "",
          "type": "uint256"
        }
      ],
      "stateMutability": "view",
      "type": "function"
    },
    {
      "inputs": [
        {
          "internalType": "uint256",
          "name": "",
          "type": "uint256"
        }
      ],
      "name": "drillTypeToDrillStatsMap",
      "outputs": [
        {
          "internalType": "uint256",
          "name": "drillType",
          "type": "uint256"
        },
        {
          "internalType": "string",
          "name": "drillName",
          "type": "string"
        },
        {
          "internalType": "uint256",
          "name": "maxLevel",
          "type": "uint256"
        }
      ],
      "stateMutability": "view",
      "type": "function"
    },
    {
      "inputs": [
        {
          "internalType": "uint256",
          "name": "",
          "type": "uint256"
        },
        {
          "internalType": "uint256",
          "name": "",
          "type": "uint256"
        }
      ],
      "name": "drillsAvailableAtLevel",
      "outputs": [
        {
          "internalType": "uint256",
          "name": "",
          "type": "uint256"
        }
      ],
      "stateMutability": "view",
      "type": "function"
    },
    {
      "inputs": [
        {
          "internalType": "uint256",
          "name": "",
          "type": "uint256"
        },
        {
          "internalType": "uint256",
          "name": "",
          "type": "uint256"
        }
      ],
      "name": "drillsMintedAtLevel",
      "outputs": [
        {
          "internalType": "uint256",
          "name": "",
          "type": "uint256"
        }
      ],
      "stateMutability": "view",
      "type": "function"
    },
    {
      "inputs": [
        {
          "internalType": "address",
          "name": "",
          "type": "address"
        },
        {
          "internalType": "uint256",
          "name": "",
          "type": "uint256"
        },
        {
          "internalType": "uint256",
          "name": "",
          "type": "uint256"
        }
      ],
      "name": "freeMints",
      "outputs": [
        {
          "internalType": "uint256",
          "name": "",
          "type": "uint256"
        }
      ],
      "stateMutability": "view",
      "type": "function"
    },
    {
      "inputs": [
        {
          "internalType": "uint256",
          "name": "tokenId",
          "type": "uint256"
        }
      ],
      "name": "getApproved",
      "outputs": [
        {
          "internalType": "address",
          "name": "",
          "type": "address"
        }
      ],
      "stateMutability": "view",
      "type": "function"
    },
    {
      "inputs": [
        {
          "internalType": "address",
          "name": "owner",
          "type": "address"
        },
        {
          "internalType": "address",
          "name": "operator",
          "type": "address"
        }
      ],
      "name": "isApprovedForAll",
      "outputs": [
        {
          "internalType": "bool",
          "name": "",
          "type": "bool"
        }
      ],
      "stateMutability": "view",
      "type": "function"
    },
    {
      "inputs": [],
      "name": "name",
      "outputs": [
        {
          "internalType": "string",
          "name": "",
          "type": "string"
        }
      ],
      "stateMutability": "view",
      "type": "function"
    },
    {
      "inputs": [],
      "name": "owner",
      "outputs": [
        {
          "internalType": "address",
          "name": "",
          "type": "address"
        }
      ],
      "stateMutability": "view",
      "type": "function"
    },
    {
      "inputs": [
        {
          "internalType": "uint256",
          "name": "tokenId",
          "type": "uint256"
        }
      ],
      "name": "ownerOf",
      "outputs": [
        {
          "internalType": "address",
          "name": "",
          "type": "address"
        }
      ],
      "stateMutability": "view",
      "type": "function"
    },
    {
      "inputs": [
        {
          "internalType": "address",
          "name": "from",
          "type": "address"
        },
        {
          "internalType": "address",
          "name": "to",
          "type": "address"
        },
        {
          "internalType": "uint256",
          "name": "tokenId",
          "type": "uint256"
        }
      ],
      "name": "safeTransferFrom",
      "outputs": [],
      "stateMutability": "nonpayable",
      "type": "function"
    },
    {
      "inputs": [
        {
          "internalType": "address",
          "name": "from",
          "type": "address"
        },
        {
          "internalType": "address",
          "name": "to",
          "type": "address"
        },
        {
          "internalType": "uint256",
          "name": "tokenId",
          "type": "uint256"
        },
        {
          "internalType": "bytes",
          "name": "_data",
          "type": "bytes"
        }
      ],
      "name": "safeTransferFrom",
      "outputs": [],
      "stateMutability": "nonpayable",
      "type": "function"
    },
    {
      "inputs": [
        {
          "internalType": "address",
          "name": "operator",
          "type": "address"
        },
        {
          "internalType": "bool",
          "name": "approved",
          "type": "bool"
        }
      ],
      "name": "setApprovalForAll",
      "outputs": [],
      "stateMutability": "nonpayable",
      "type": "function"
    },
    {
      "inputs": [
        {
          "internalType": "bytes4",
          "name": "interfaceId",
          "type": "bytes4"
        }
      ],
      "name": "supportsInterface",
      "outputs": [
        {
          "internalType": "bool",
          "name": "",
          "type": "bool"
        }
      ],
      "stateMutability": "view",
      "type": "function"
    },
    {
      "inputs": [],
      "name": "symbol",
      "outputs": [
        {
          "internalType": "string",
          "name": "",
          "type": "string"
        }
      ],
      "stateMutability": "view",
      "type": "function"
    },
    {
      "inputs": [
        {
          "internalType": "address",
          "name": "from",
          "type": "address"
        },
        {
          "internalType": "address",
          "name": "to",
          "type": "address"
        },
        {
          "internalType": "uint256",
          "name": "tokenId",
          "type": "uint256"
        }
      ],
      "name": "transferFrom",
      "outputs": [],
      "stateMutability": "nonpayable",
      "type": "function"
    },
    {
      "inputs": [],
      "name": "treasury",
      "outputs": [
        {
          "internalType": "address payable",
          "name": "",
          "type": "address"
        }
      ],
      "stateMutability": "view",
      "type": "function"
    },
    {
      "inputs": [
        {
          "internalType": "address payable",
          "name": "_address",
          "type": "address"
        }
      ],
      "name": "updateTreasuryAddress",
      "outputs": [],
      "stateMutability": "nonpayable",
      "type": "function"
    },
    {
      "inputs": [
        {
          "internalType": "uint256",
          "name": "_type",
          "type": "uint256"
        },
        {
          "internalType": "string",
          "name": "_name",
          "type": "string"
        },
        {
          "internalType": "uint256",
          "name": "_mintPrice",
          "type": "uint256"
        },
        {
          "internalType": "uint256",
          "name": "_maxLevel",
          "type": "uint256"
        },
        {
          "internalType": "uint256[]",
          "name": "_miningPowerAtLevel",
          "type": "uint256[]"
        },
        {
          "internalType": "uint256[]",
          "name": "_upgradeRequirements",
          "type": "uint256[]"
        }
      ],
      "name": "addNewDrillType",
      "outputs": [],
      "stateMutability": "nonpayable",
      "type": "function"
    },
    {
      "inputs": [
        {
          "internalType": "uint256",
          "name": "_type",
          "type": "uint256"
        },
        {
          "internalType": "uint256",
          "name": "_level",
          "type": "uint256"
        },
        {
          "internalType": "uint256",
          "name": "_mintPrice",
          "type": "uint256"
        }
      ],
      "name": "updateMintPrice",
      "outputs": [],
      "stateMutability": "nonpayable",
      "type": "function"
    },
    {
      "inputs": [
        {
          "internalType": "uint256",
          "name": "_type",
          "type": "uint256"
        },
        {
          "internalType": "uint256",
          "name": "_level",
          "type": "uint256"
        },
        {
          "internalType": "uint256",
          "name": "_count",
          "type": "uint256"
        }
      ],
      "name": "updateDrillsAvailable",
      "outputs": [],
      "stateMutability": "nonpayable",
      "type": "function"
    },
    {
      "inputs": [
        {
          "internalType": "address",
          "name": "_user",
          "type": "address"
        },
        {
          "internalType": "uint256",
          "name": "_type",
          "type": "uint256"
        },
        {
          "internalType": "uint256",
          "name": "_level",
          "type": "uint256"
        },
        {
          "internalType": "uint256",
          "name": "_amount",
          "type": "uint256"
        }
      ],
      "name": "updateFreeMint",
      "outputs": [],
      "stateMutability": "nonpayable",
      "type": "function"
    },
    {
      "inputs": [
        {
          "internalType": "uint256",
          "name": "_type",
          "type": "uint256"
        },
        {
          "internalType": "uint256",
          "name": "_level",
          "type": "uint256"
        },
        {
          "internalType": "uint256",
          "name": "_power",
          "type": "uint256"
        }
      ],
      "name": "updateMiningPower",
      "outputs": [],
      "stateMutability": "nonpayable",
      "type": "function"
    },
    {
      "inputs": [
        {
          "internalType": "uint256",
          "name": "_type",
          "type": "uint256"
        },
        {
          "internalType": "uint256",
          "name": "_maxLevel",
          "type": "uint256"
        }
      ],
      "name": "updateMaxLevel",
      "outputs": [],
      "stateMutability": "nonpayable",
      "type": "function"
    },
    {
      "inputs": [
        {
          "internalType": "uint256",
          "name": "_type",
          "type": "uint256"
        },
        {
          "internalType": "uint256",
          "name": "_level",
          "type": "uint256"
        },
        {
          "internalType": "uint256",
          "name": "_upgradeRequirement",
          "type": "uint256"
        }
      ],
      "name": "updateUpgradeRequirement",
      "outputs": [],
      "stateMutability": "nonpayable",
      "type": "function"
    },
    {
      "inputs": [
        {
          "internalType": "contract IERC20",
          "name": "_cosmicCash",
          "type": "address"
        }
      ],
      "name": "updateCosmicCash",
      "outputs": [],
      "stateMutability": "nonpayable",
      "type": "function"
    },
    {
      "inputs": [
        {
          "internalType": "uint256",
          "name": "_id",
          "type": "uint256"
        },
        {
          "internalType": "uint256",
          "name": "_type",
          "type": "uint256"
        },
        {
          "internalType": "uint256",
          "name": "_level",
          "type": "uint256"
        },
        {
          "internalType": "contract IERC20",
          "name": "_currency",
          "type": "address"
        },
        {
          "internalType": "uint256",
          "name": "_price",
          "type": "uint256"
        },
        {
          "internalType": "uint256",
          "name": "_maxMintsAllowed",
          "type": "uint256"
        },
        {
          "internalType": "uint256",
          "name": "_releaseTime",
          "type": "uint256"
        }
      ],
      "name": "addAlternativeMint",
      "outputs": [],
      "stateMutability": "nonpayable",
      "type": "function"
    },
    {
      "inputs": [
        {
          "internalType": "uint256",
          "name": "_level",
          "type": "uint256"
        },
        {
          "internalType": "string",
          "name": "_uri",
          "type": "string"
        }
      ],
      "name": "setURIForLevel",
      "outputs": [],
      "stateMutability": "nonpayable",
      "type": "function"
    },
    {
      "inputs": [
        {
          "internalType": "uint256",
          "name": "_drillId",
          "type": "uint256"
        }
      ],
      "name": "getDrill",
      "outputs": [
        {
          "components": [
            {
              "internalType": "uint256",
              "name": "drillId",
              "type": "uint256"
            },
            {
              "internalType": "uint256",
              "name": "drillType",
              "type": "uint256"
            },
            {
              "internalType": "uint256",
              "name": "level",
              "type": "uint256"
            }
          ],
          "internalType": "struct MineEmpireDrill.Drill",
          "name": "",
          "type": "tuple"
        }
      ],
      "stateMutability": "view",
      "type": "function"
    },
    {
      "inputs": [
        {
          "internalType": "uint256",
          "name": "_type",
          "type": "uint256"
        },
        {
          "internalType": "uint256",
          "name": "_level",
          "type": "uint256"
        }
      ],
      "name": "getMintPrice",
      "outputs": [
        {
          "internalType": "uint256",
          "name": "",
          "type": "uint256"
        }
      ],
      "stateMutability": "view",
      "type": "function"
    },
    {
      "inputs": [
        {
          "internalType": "uint256",
          "name": "_type",
          "type": "uint256"
        },
        {
          "internalType": "uint256",
          "name": "_level",
          "type": "uint256"
        }
      ],
      "name": "getUpgradeRequirement",
      "outputs": [
        {
          "internalType": "uint256",
          "name": "",
          "type": "uint256"
        }
      ],
      "stateMutability": "view",
      "type": "function"
    },
    {
      "inputs": [
        {
          "internalType": "uint256",
          "name": "_drillId",
          "type": "uint256"
        }
      ],
      "name": "getMiningPower",
      "outputs": [
        {
          "internalType": "uint256",
          "name": "",
          "type": "uint256"
        }
      ],
      "stateMutability": "view",
      "type": "function"
    },
    {
      "inputs": [
        {
          "internalType": "uint256",
          "name": "_type",
          "type": "uint256"
        },
        {
          "internalType": "uint256",
          "name": "_level",
          "type": "uint256"
        }
      ],
      "name": "getDrillsAvailableAtLevel",
      "outputs": [
        {
          "internalType": "uint256",
          "name": "",
          "type": "uint256"
        }
      ],
      "stateMutability": "view",
      "type": "function"
    },
    {
      "inputs": [
        {
          "internalType": "uint256",
          "name": "tokenId",
          "type": "uint256"
        }
      ],
      "name": "tokenURI",
      "outputs": [
        {
          "internalType": "string",
          "name": "",
          "type": "string"
        }
      ],
      "stateMutability": "view",
      "type": "function"
    },
    {
      "inputs": [
        {
          "internalType": "uint256",
          "name": "_type",
          "type": "uint256"
        },
        {
          "internalType": "uint256",
          "name": "_level",
          "type": "uint256"
        }
      ],
      "name": "mintDrill",
      "outputs": [],
      "stateMutability": "payable",
      "type": "function"
    },
    {
      "inputs": [
        {
          "internalType": "uint256",
          "name": "_type",
          "type": "uint256"
        },
        {
          "internalType": "uint256",
          "name": "_level",
          "type": "uint256"
        }
      ],
      "name": "freeMintDrill",
      "outputs": [],
      "stateMutability": "nonpayable",
      "type": "function"
    },
    {
      "inputs": [
        {
          "internalType": "uint256",
          "name": "_id",
          "type": "uint256"
        }
      ],
      "name": "alternativeMintDrill",
      "outputs": [],
      "stateMutability": "nonpayable",
      "type": "function"
    },
    {
      "inputs": [
        {
          "internalType": "uint256",
          "name": "_drillId",
          "type": "uint256"
        }
      ],
      "name": "upgradeDrill",
      "outputs": [],
      "stateMutability": "nonpayable",
      "type": "function"
    }
  ],
  "bytecode": "0x60806040523480156200001157600080fd5b506040518060400160405280601181526020017f4d696e6520456d70697265204472696c6c0000000000000000000000000000008152506040518060400160405280600581526020017f4452494c4c00000000000000000000000000000000000000000000000000000081525081600090805190602001906200009692919062000124565b508060019080519060200190620000af92919062000124565b50505033600660006101000a81548173ffffffffffffffffffffffffffffffffffffffff021916908373ffffffffffffffffffffffffffffffffffffffff1602179055506064600c60006001815260200190815260200160002060008081526020019081526020016000208190555062000239565b828054620001329062000203565b90600052602060002090601f016020900481019282620001565760008555620001a2565b82601f106200017157805160ff1916838001178555620001a2565b82800160010185558215620001a2579182015b82811115620001a157825182559160200191906001019062000184565b5b509050620001b19190620001b5565b5090565b5b80821115620001d0576000816000905550600101620001b6565b5090565b7f4e487b7100000000000000000000000000000000000000000000000000000000600052602260045260246000fd5b600060028204905060018216806200021c57607f821691505b60208210811415620002335762000232620001d4565b5b50919050565b615d3880620002496000396000f3fe6080604052600436106102715760003560e01c8063745518581161014f578063a73fe596116100c1578063e01948861161007a578063e0194886146109f9578063e985e9c514610a24578063eb55691514610a61578063eee8167314610a8a578063f3755c2d14610ab3578063f5e0ddfe14610af257610271565b8063a73fe596146108db578063b22726f614610904578063b88d4fde1461092d578063bfdca82614610956578063c622a06e1461097f578063c87b56dd146109bc57610271565b8063953f97aa11610113578063953f97aa146107a757806395d89b41146107e4578063978251db1461080f5780639d28b6931461084c578063a22cb46514610875578063a28436821461089e57610271565b806374551858146106c45780637879321f14610701578063841e45611461072a5780638da5cb5b1461075357806394cdbcca1461077e57610271565b806341437d9f116101e85780635c1ad413116101ac5780635c1ad4131461057557806361d027b3146105b95780636352211e146105e457806363dfe3c4146106215780636e89bb531461065e57806370a082311461068757610271565b806341437d9f1461046c57806342842e0e1461049557806345a8b2de146104be57806349d16700146104fb578063530e44a21461053857610271565b8063095ea7b31161023a578063095ea7b3146103835780631986f19f146103ac5780631f63c484146103c857806323b872dd146103f15780632cd5f88f1461041a57806337c099f51461044357610271565b80629a9b7b1461027657806301ffc9a7146102a157806303c5b032146102de57806306fdde031461031b578063081812fc14610346575b600080fd5b34801561028257600080fd5b5061028b610b31565b6040516102989190613e61565b60405180910390f35b3480156102ad57600080fd5b506102c860048036038101906102c39190613ee8565b610b3d565b6040516102d59190613f30565b60405180910390f35b3480156102ea57600080fd5b5061030560048036038101906103009190613fd5565b610c1f565b6040516103129190613e61565b60405180910390f35b34801561032757600080fd5b50610330610c51565b60405161033d91906140c1565b60405180910390f35b34801561035257600080fd5b5061036d600480360381019061036891906140e3565b610ce3565b60405161037a919061411f565b60405180910390f35b34801561038f57600080fd5b506103aa60048036038101906103a5919061413a565b610d68565b005b6103c660048036038101906103c1919061417a565b610e80565b005b3480156103d457600080fd5b506103ef60048036038101906103ea91906140e3565b611170565b005b3480156103fd57600080fd5b50610418600480360381019061041391906141ba565b611441565b005b34801561042657600080fd5b50610441600480360381019061043c919061417a565b6114a1565b005b34801561044f57600080fd5b5061046a6004803603810190610465919061420d565b6115ad565b005b34801561047857600080fd5b50610493600480360381019061048e919061420d565b61176b565b005b3480156104a157600080fd5b506104bc60048036038101906104b791906141ba565b611929565b005b3480156104ca57600080fd5b506104e560048036038101906104e091906140e3565b611949565b6040516104f29190613e61565b60405180910390f35b34801561050757600080fd5b50610522600480360381019061051d919061417a565b611a11565b60405161052f9190613e61565b60405180910390f35b34801561054457600080fd5b5061055f600480360381019061055a919061417a565b611a40565b60405161056c9190613e61565b60405180910390f35b34801561058157600080fd5b5061059c600480360381019061059791906140e3565b611aca565b6040516105b09897969594939291906142bf565b60405180910390f35b3480156105c557600080fd5b506105ce611b32565b6040516105db919061435e565b60405180910390f35b3480156105f057600080fd5b5061060b600480360381019061060691906140e3565b611b58565b604051610618919061411f565b60405180910390f35b34801561062d57600080fd5b506106486004803603810190610643919061417a565b611c0a565b6040516106559190613e61565b60405180910390f35b34801561066a57600080fd5b50610685600480360381019061068091906143b7565b611c2f565b005b34801561069357600080fd5b506106ae60048036038101906106a991906143e4565b611d05565b6040516106bb9190613e61565b60405180910390f35b3480156106d057600080fd5b506106eb60048036038101906106e6919061417a565b611dbd565b6040516106f89190613e61565b60405180910390f35b34801561070d57600080fd5b5061072860048036038101906107239190614546565b611eea565b005b34801561073657600080fd5b50610751600480360381019061074c91906145ce565b611fa8565b005b34801561075f57600080fd5b5061076861207e565b604051610775919061411f565b60405180910390f35b34801561078a57600080fd5b506107a560048036038101906107a0919061417a565b6120a4565b005b3480156107b357600080fd5b506107ce60048036038101906107c991906140e3565b6122c0565b6040516107db91906140c1565b60405180910390f35b3480156107f057600080fd5b506107f9612360565b60405161080691906140c1565b60405180910390f35b34801561081b57600080fd5b506108366004803603810190610831919061417a565b6123f2565b6040516108439190613e61565b60405180910390f35b34801561085857600080fd5b50610873600480360381019061086e91906140e3565b612417565b005b34801561088157600080fd5b5061089c60048036038101906108979190614627565b61271a565b005b3480156108aa57600080fd5b506108c560048036038101906108c091906140e3565b612730565b6040516108d291906146b8565b60405180910390f35b3480156108e757600080fd5b5061090260048036038101906108fd91906146d3565b6127c9565b005b34801561091057600080fd5b5061092b60048036038101906109269190614775565b612a53565b005b34801561093957600080fd5b50610954600480360381019061094f919061487d565b612b51565b005b34801561096257600080fd5b5061097d600480360381019061097891906149c8565b612bb3565b005b34801561098b57600080fd5b506109a660048036038101906109a1919061417a565b612e14565b6040516109b39190613e61565b60405180910390f35b3480156109c857600080fd5b506109e360048036038101906109de91906140e3565b612e39565b6040516109f091906140c1565b60405180910390f35b348015610a0557600080fd5b50610a0e612f42565b604051610a1b9190614aa9565b60405180910390f35b348015610a3057600080fd5b50610a4b6004803603810190610a469190614ac4565b612f68565b604051610a589190613f30565b60405180910390f35b348015610a6d57600080fd5b50610a886004803603810190610a83919061420d565b612ffc565b005b348015610a9657600080fd5b50610ab16004803603810190610aac919061420d565b6130bc565b005b348015610abf57600080fd5b50610ada6004803603810190610ad591906140e3565b6131d7565b604051610ae993929190614b04565b60405180910390f35b348015610afe57600080fd5b50610b196004803603810190610b1491906140e3565b613289565b604051610b2893929190614b42565b60405180910390f35b60098060000154905081565b60007f80ac58cd000000000000000000000000000000000000000000000000000000007bffffffffffffffffffffffffffffffffffffffffffffffffffffffff1916827bffffffffffffffffffffffffffffffffffffffffffffffffffffffff19161480610c0857507f5b5e139f000000000000000000000000000000000000000000000000000000007bffffffffffffffffffffffffffffffffffffffffffffffffffffffff1916827bffffffffffffffffffffffffffffffffffffffffffffffffffffffff1916145b80610c185750610c17826132b3565b5b9050919050565b600f60205282600052604060002060205281600052604060002060205280600052604060002060009250925050505481565b606060008054610c6090614ba8565b80601f0160208091040260200160405190810160405280929190818152602001828054610c8c90614ba8565b8015610cd95780601f10610cae57610100808354040283529160200191610cd9565b820191906000526020600020905b815481529060010190602001808311610cbc57829003601f168201915b5050505050905090565b6000610cee8261331d565b610d2d576040517f08c379a0000000000000000000000000000000000000000000000000000000008152600401610d2490614c4c565b60405180910390fd5b6004600083815260200190815260200160002060009054906101000a900473ffffffffffffffffffffffffffffffffffffffff169050919050565b6000610d7382611b58565b90508073ffffffffffffffffffffffffffffffffffffffff168373ffffffffffffffffffffffffffffffffffffffff161415610de4576040517f08c379a0000000000000000000000000000000000000000000000000000000008152600401610ddb90614cde565b60405180910390fd5b8073ffffffffffffffffffffffffffffffffffffffff16610e03613389565b73ffffffffffffffffffffffffffffffffffffffff161480610e325750610e3181610e2c613389565b612f68565b5b610e71576040517f08c379a0000000000000000000000000000000000000000000000000000000008152600401610e6890614d70565b60405180910390fd5b610e7b8383613391565b505050565b8181600c6000838152602001908152602001600020600082815260200190815260200160002054600d600084815260200190815260200160002060008381526020019081526020016000205410610f0c576040517f08c379a0000000000000000000000000000000000000000000000000000000008152600401610f0390614ddc565b60405180910390fd5b83833480600e600085815260200190815260200160002060008481526020019081526020016000205414610f75576040517f08c379a0000000000000000000000000000000000000000000000000000000008152600401610f6c90614e48565b60405180910390fd5b600073ffffffffffffffffffffffffffffffffffffffff16600760009054906101000a900473ffffffffffffffffffffffffffffffffffffffff1673ffffffffffffffffffffffffffffffffffffffff161415611007576040517f08c379a0000000000000000000000000000000000000000000000000000000008152600401610ffe90614eb4565b60405180910390fd5b600760009054906101000a900473ffffffffffffffffffffffffffffffffffffffff1673ffffffffffffffffffffffffffffffffffffffff166108fc349081150290604051600060405180830381858888f1935050505015801561106f573d6000803e3d6000fd5b5061107a600961344a565b60006110866009613460565b9050600060405180606001604052808381526020018a815260200189815250905080600a6000848152602001908152602001600020600082015181600001556020820151816001015560408201518160020155905050600d60008a81526020019081526020016000206000898152602001908152602001600020600081548092919061111190614f03565b9190505550611120338361346e565b7f0498f141021087adeadd3da265ebdbfd15a902d680b2036004bdfee5e8d760e58260405161114f9190613e61565b60405180910390a1818061116290614f03565b925050505050505050505050565b80806010600083815260200190815260200160002060000154146111c9576040517f08c379a00000000000000000000000000000000000000000000000000000000081526004016111c090614fbe565b60405180910390fd5b816010600082815260200190815260200160002060060154601060008381526020019081526020016000206005015410611238576040517f08c379a000000000000000000000000000000000000000000000000000000000815260040161122f9061502a565b60405180910390fd5b60106000848152602001908152602001600020600501600081548092919061125f90614f03565b91905055506010600084815260200190815260200160002060030160009054906101000a900473ffffffffffffffffffffffffffffffffffffffff1673ffffffffffffffffffffffffffffffffffffffff166323b872dd33600760009054906101000a900473ffffffffffffffffffffffffffffffffffffffff1660106000888152602001908152602001600020600401546040518463ffffffff1660e01b815260040161130f9392919061506b565b6020604051808303816000875af115801561132e573d6000803e3d6000fd5b505050506040513d601f19601f8201168201806040525081019061135291906150b7565b5061135d600961344a565b60006113696009613460565b905060006040518060600160405280838152602001601060008881526020019081526020016000206001015481526020016010600088815260200190815260200160002060020154815250905080600a60008481526020019081526020016000206000820151816000015560208201518160010155604082015181600201559050506113f5338361346e565b7fbaeb640841010143548e154f0ae4df8bf319f8f6598a6c57aa6399b71e6f04df826040516114249190613e61565b60405180910390a1818061143790614f03565b9250505050505050565b61145261144c613389565b8261348c565b611491576040517f08c379a000000000000000000000000000000000000000000000000000000000815260040161148890615156565b60405180910390fd5b61149c83838361356a565b505050565b33600660009054906101000a900473ffffffffffffffffffffffffffffffffffffffff1673ffffffffffffffffffffffffffffffffffffffff168173ffffffffffffffffffffffffffffffffffffffff1614611532576040517f08c379a0000000000000000000000000000000000000000000000000000000008152600401611529906151c2565b60405180910390fd5b826000600b6000838152602001908152602001600020600201541161158c576040517f08c379a00000000000000000000000000000000000000000000000000000000081526004016115839061522e565b60405180910390fd5b82600b60008681526020019081526020016000206002018190555050505050565b33600660009054906101000a900473ffffffffffffffffffffffffffffffffffffffff1673ffffffffffffffffffffffffffffffffffffffff168173ffffffffffffffffffffffffffffffffffffffff161461163e576040517f08c379a0000000000000000000000000000000000000000000000000000000008152600401611635906151c2565b60405180910390fd5b836000600b60008381526020019081526020016000206002015411611698576040517f08c379a000000000000000000000000000000000000000000000000000000000815260040161168f9061522e565b60405180910390fd5b8484600b60008381526020019081526020016000206002015481106116f2576040517f08c379a00000000000000000000000000000000000000000000000000000000081526004016116e9906152c0565b60405180910390fd5b6000811015611736576040517f08c379a000000000000000000000000000000000000000000000000000000000815260040161172d9061532c565b60405180910390fd5b84600b600089815260200190815260200160002060030160008881526020019081526020016000208190555050505050505050565b33600660009054906101000a900473ffffffffffffffffffffffffffffffffffffffff1673ffffffffffffffffffffffffffffffffffffffff168173ffffffffffffffffffffffffffffffffffffffff16146117fc576040517f08c379a00000000000000000000000000000000000000000000000000000000081526004016117f3906151c2565b60405180910390fd5b836000600b60008381526020019081526020016000206002015411611856576040517f08c379a000000000000000000000000000000000000000000000000000000000815260040161184d9061522e565b60405180910390fd5b8484600b60008381526020019081526020016000206002015481106118b0576040517f08c379a00000000000000000000000000000000000000000000000000000000081526004016118a7906152c0565b60405180910390fd5b60008110156118f4576040517f08c379a00000000000000000000000000000000000000000000000000000000081526004016118eb9061532c565b60405180910390fd5b84600b600089815260200190815260200160002060040160008881526020019081526020016000208190555050505050505050565b61194483838360405180602001604052806000815250612b51565b505050565b6000816119566009613460565b811115611998576040517f08c379a000000000000000000000000000000000000000000000000000000000815260040161198f90615398565b60405180910390fd5b6000600a600085815260200190815260200160002060405180606001604052908160008201548152602001600182015481526020016002820154815250509050600b6000826020015181526020019081526020016000206003016000826040015181526020019081526020016000205492505050919050565b6000600c6000848152602001908152602001600020600083815260200190815260200160002054905092915050565b6000826000600b60008381526020019081526020016000206002015411611a9c576040517f08c379a0000000000000000000000000000000000000000000000000000000008152600401611a939061522e565b60405180910390fd5b600e600085815260200190815260200160002060008481526020019081526020016000205491505092915050565b60106020528060005260406000206000915090508060000154908060010154908060020154908060030160009054906101000a900473ffffffffffffffffffffffffffffffffffffffff16908060040154908060050154908060060154908060070154905088565b600760009054906101000a900473ffffffffffffffffffffffffffffffffffffffff1681565b6000806002600084815260200190815260200160002060009054906101000a900473ffffffffffffffffffffffffffffffffffffffff169050600073ffffffffffffffffffffffffffffffffffffffff168173ffffffffffffffffffffffffffffffffffffffff161415611c01576040517f08c379a0000000000000000000000000000000000000000000000000000000008152600401611bf89061542a565b60405180910390fd5b80915050919050565b600e602052816000526040600020602052806000526040600020600091509150505481565b33600660009054906101000a900473ffffffffffffffffffffffffffffffffffffffff1673ffffffffffffffffffffffffffffffffffffffff168173ffffffffffffffffffffffffffffffffffffffff1614611cc0576040517f08c379a0000000000000000000000000000000000000000000000000000000008152600401611cb7906151c2565b60405180910390fd5b81600860006101000a81548173ffffffffffffffffffffffffffffffffffffffff021916908373ffffffffffffffffffffffffffffffffffffffff1602179055505050565b60008073ffffffffffffffffffffffffffffffffffffffff168273ffffffffffffffffffffffffffffffffffffffff161415611d76576040517f08c379a0000000000000000000000000000000000000000000000000000000008152600401611d6d906154bc565b60405180910390fd5b600360008373ffffffffffffffffffffffffffffffffffffffff1673ffffffffffffffffffffffffffffffffffffffff168152602001908152602001600020549050919050565b6000826000600b60008381526020019081526020016000206002015411611e19576040517f08c379a0000000000000000000000000000000000000000000000000000000008152600401611e109061522e565b60405180910390fd5b8383600b6000838152602001908152602001600020600201548110611e73576040517f08c379a0000000000000000000000000000000000000000000000000000000008152600401611e6a906152c0565b60405180910390fd5b6000811015611eb7576040517f08c379a0000000000000000000000000000000000000000000000000000000008152600401611eae9061532c565b60405180910390fd5b600b6000878152602001908152602001600020600401600086815260200190815260200160002054935050505092915050565b33600660009054906101000a900473ffffffffffffffffffffffffffffffffffffffff1673ffffffffffffffffffffffffffffffffffffffff168173ffffffffffffffffffffffffffffffffffffffff1614611f7b576040517f08c379a0000000000000000000000000000000000000000000000000000000008152600401611f72906151c2565b60405180910390fd5b81601160008581526020019081526020016000209080519060200190611fa2929190613d84565b50505050565b33600660009054906101000a900473ffffffffffffffffffffffffffffffffffffffff1673ffffffffffffffffffffffffffffffffffffffff168173ffffffffffffffffffffffffffffffffffffffff1614612039576040517f08c379a0000000000000000000000000000000000000000000000000000000008152600401612030906151c2565b60405180910390fd5b81600760006101000a81548173ffffffffffffffffffffffffffffffffffffffff021916908373ffffffffffffffffffffffffffffffffffffffff1602179055505050565b600660009054906101000a900473ffffffffffffffffffffffffffffffffffffffff1681565b8181336000600f60008373ffffffffffffffffffffffffffffffffffffffff1673ffffffffffffffffffffffffffffffffffffffff16815260200190815260200160002060008581526020019081526020016000206000848152602001908152602001600020541161214b576040517f08c379a000000000000000000000000000000000000000000000000000000000815260040161214290615528565b60405180910390fd5b600f60003373ffffffffffffffffffffffffffffffffffffffff1673ffffffffffffffffffffffffffffffffffffffff1681526020019081526020016000206000868152602001908152602001600020600085815260200190815260200160002060008154809291906121bd90615548565b91905055506121cc600961344a565b60006121d86009613460565b90506000604051806060016040528083815260200188815260200187815250905080600a6000848152602001908152602001600020600082015181600001556020820151816001015560408201518160020155905050600d60008881526020019081526020016000206000878152602001908152602001600020600081548092919061226390614f03565b9190505550612272338361346e565b7f923d4248293acf78995ad5e52966001aaaf76b3db09d476879f9b3a67afcb985826040516122a19190613e61565b60405180910390a181806122b490614f03565b92505050505050505050565b601160205280600052604060002060009150905080546122df90614ba8565b80601f016020809104026020016040519081016040528092919081815260200182805461230b90614ba8565b80156123585780601f1061232d57610100808354040283529160200191612358565b820191906000526020600020905b81548152906001019060200180831161233b57829003601f168201915b505050505081565b60606001805461236f90614ba8565b80601f016020809104026020016040519081016040528092919081815260200182805461239b90614ba8565b80156123e85780601f106123bd576101008083540402835291602001916123e8565b820191906000526020600020905b8154815290600101906020018083116123cb57829003601f168201915b5050505050905090565b600d602052816000526040600020602052806000526040600020600091509150505481565b806124226009613460565b811115612464576040517f08c379a000000000000000000000000000000000000000000000000000000000815260040161245b90615398565b60405180910390fd5b3373ffffffffffffffffffffffffffffffffffffffff1661248483611b58565b73ffffffffffffffffffffffffffffffffffffffff16146124da576040517f08c379a00000000000000000000000000000000000000000000000000000000081526004016124d1906155be565b60405180910390fd5b6000600a6000848152602001908152602001600020604051806060016040529081600082015481526020016001820154815260200160028201548152505090506000600b6000836020015181526020019081526020016000209050806002015482604001511061257f576040517f08c379a00000000000000000000000000000000000000000000000000000000081526004016125769061562a565b60405180910390fd5b600081600401600060018560400151612598919061564a565b8152602001908152602001600020549050600081116125ec576040517f08c379a00000000000000000000000000000000000000000000000000000000081526004016125e390615712565b60405180910390fd5b600860009054906101000a900473ffffffffffffffffffffffffffffffffffffffff1673ffffffffffffffffffffffffffffffffffffffff166323b872dd33600760009054906101000a900473ffffffffffffffffffffffffffffffffffffffff16846040518463ffffffff1660e01b815260040161266d9392919061506b565b6020604051808303816000875af115801561268c573d6000803e3d6000fd5b505050506040513d601f19601f820116820180604052508101906126b091906150b7565b50600183604001516126c2919061564a565b600a6000878152602001908152602001600020600201819055507f08a4553aa8d794fe7132b2cc08f76d26c077418968708cf78eedce927e27c05e8560405161270b9190613e61565b60405180910390a15050505050565b61272c612725613389565b83836137d1565b5050565b612738613e0a565b816127436009613460565b811115612785576040517f08c379a000000000000000000000000000000000000000000000000000000000815260040161277c90615398565b60405180910390fd5b600a60008481526020019081526020016000206040518060600160405290816000820154815260200160018201548152602001600282015481525050915050919050565b33600660009054906101000a900473ffffffffffffffffffffffffffffffffffffffff1673ffffffffffffffffffffffffffffffffffffffff168173ffffffffffffffffffffffffffffffffffffffff161461285a576040517f08c379a0000000000000000000000000000000000000000000000000000000008152600401612851906151c2565b60405180910390fd5b866000600b600083815260200190815260200160002060020154116128b4576040517f08c379a00000000000000000000000000000000000000000000000000000000081526004016128ab9061522e565b60405180910390fd5b8787600b600083815260200190815260200160002060020154811061290e576040517f08c379a0000000000000000000000000000000000000000000000000000000008152600401612905906152c0565b60405180910390fd5b6000811015612952576040517f08c379a00000000000000000000000000000000000000000000000000000000081526004016129499061532c565b60405180910390fd5b6040518061010001604052808c81526020018b81526020018a81526020018973ffffffffffffffffffffffffffffffffffffffff1681526020018881526020016000815260200187815260200186815250601060008d815260200190815260200160002060008201518160000155602082015181600101556040820151816002015560608201518160030160006101000a81548173ffffffffffffffffffffffffffffffffffffffff021916908373ffffffffffffffffffffffffffffffffffffffff1602179055506080820151816004015560a0820151816005015560c0820151816006015560e082015181600701559050505050505050505050505050565b33600660009054906101000a900473ffffffffffffffffffffffffffffffffffffffff1673ffffffffffffffffffffffffffffffffffffffff168173ffffffffffffffffffffffffffffffffffffffff1614612ae4576040517f08c379a0000000000000000000000000000000000000000000000000000000008152600401612adb906151c2565b60405180910390fd5b81600f60008773ffffffffffffffffffffffffffffffffffffffff1673ffffffffffffffffffffffffffffffffffffffff16815260200190815260200160002060008681526020019081526020016000206000858152602001908152602001600020819055505050505050565b612b62612b5c613389565b8361348c565b612ba1576040517f08c379a0000000000000000000000000000000000000000000000000000000008152600401612b9890615156565b60405180910390fd5b612bad8484848461393e565b50505050565b33600660009054906101000a900473ffffffffffffffffffffffffffffffffffffffff1673ffffffffffffffffffffffffffffffffffffffff168173ffffffffffffffffffffffffffffffffffffffff1614612c44576040517f08c379a0000000000000000000000000000000000000000000000000000000008152600401612c3b906151c2565b60405180910390fd5b866000600b60008381526020019081526020016000206002015414612c9e576040517f08c379a0000000000000000000000000000000000000000000000000000000008152600401612c959061577e565b60405180910390fd5b87600b60008a81526020019081526020016000206000018190555086600b60008a81526020019081526020016000206001019080519060200190612ce3929190613d84565b5085600e60008a815260200190815260200160002060008081526020019081526020016000208190555084600b60008a81526020019081526020016000206002018190555060005b85811015612dd257848181518110612d4657612d4561579e565b5b6020026020010151600b60008b8152602001908152602001600020600301600083815260200190815260200160002081905550838181518110612d8c57612d8b61579e565b5b6020026020010151600b60008b81526020019081526020016000206004016000838152602001908152602001600020819055508080612dca90614f03565b915050612d2b565b507f7ab3fb987ec2924804068fdb0e3f35d58f0b2a201f4af1fa5e8fad5f878f24b988604051612e029190613e61565b60405180910390a15050505050505050565b600c602052816000526040600020602052806000526040600020600091509150505481565b6060612e448261331d565b612e83576040517f08c379a0000000000000000000000000000000000000000000000000000000008152600401612e7a9061583f565b60405180910390fd5b6000600a6000848152602001908152602001600020600201549050601160008281526020019081526020016000208054612ebc90614ba8565b80601f0160208091040260200160405190810160405280929190818152602001828054612ee890614ba8565b8015612f355780601f10612f0a57610100808354040283529160200191612f35565b820191906000526020600020905b815481529060010190602001808311612f1857829003601f168201915b5050505050915050919050565b600860009054906101000a900473ffffffffffffffffffffffffffffffffffffffff1681565b6000600560008473ffffffffffffffffffffffffffffffffffffffff1673ffffffffffffffffffffffffffffffffffffffff16815260200190815260200160002060008373ffffffffffffffffffffffffffffffffffffffff1673ffffffffffffffffffffffffffffffffffffffff16815260200190815260200160002060009054906101000a900460ff16905092915050565b33600660009054906101000a900473ffffffffffffffffffffffffffffffffffffffff1673ffffffffffffffffffffffffffffffffffffffff168173ffffffffffffffffffffffffffffffffffffffff161461308d576040517f08c379a0000000000000000000000000000000000000000000000000000000008152600401613084906151c2565b60405180910390fd5b81600c600086815260200190815260200160002060008581526020019081526020016000208190555050505050565b33600660009054906101000a900473ffffffffffffffffffffffffffffffffffffffff1673ffffffffffffffffffffffffffffffffffffffff168173ffffffffffffffffffffffffffffffffffffffff161461314d576040517f08c379a0000000000000000000000000000000000000000000000000000000008152600401613144906151c2565b60405180910390fd5b836000600b600083815260200190815260200160002060020154116131a7576040517f08c379a000000000000000000000000000000000000000000000000000000000815260040161319e9061522e565b60405180910390fd5b82600e60008781526020019081526020016000206000868152602001908152602001600020819055505050505050565b600b60205280600052604060002060009150905080600001549080600101805461320090614ba8565b80601f016020809104026020016040519081016040528092919081815260200182805461322c90614ba8565b80156132795780601f1061324e57610100808354040283529160200191613279565b820191906000526020600020905b81548152906001019060200180831161325c57829003601f168201915b5050505050908060020154905083565b600a6020528060005260406000206000915090508060000154908060010154908060020154905083565b60007f01ffc9a7000000000000000000000000000000000000000000000000000000007bffffffffffffffffffffffffffffffffffffffffffffffffffffffff1916827bffffffffffffffffffffffffffffffffffffffffffffffffffffffff1916149050919050565b60008073ffffffffffffffffffffffffffffffffffffffff166002600084815260200190815260200160002060009054906101000a900473ffffffffffffffffffffffffffffffffffffffff1673ffffffffffffffffffffffffffffffffffffffff1614159050919050565b600033905090565b816004600083815260200190815260200160002060006101000a81548173ffffffffffffffffffffffffffffffffffffffff021916908373ffffffffffffffffffffffffffffffffffffffff160217905550808273ffffffffffffffffffffffffffffffffffffffff1661340483611b58565b73ffffffffffffffffffffffffffffffffffffffff167f8c5be1e5ebec7d5bd14f71427d1e84f3dd0314c0f7b2291e5b200ac8c7c3b92560405160405180910390a45050565b6001816000016000828254019250508190555050565b600081600001549050919050565b61348882826040518060200160405280600081525061399a565b5050565b60006134978261331d565b6134d6576040517f08c379a00000000000000000000000000000000000000000000000000000000081526004016134cd906158d1565b60405180910390fd5b60006134e183611b58565b90508073ffffffffffffffffffffffffffffffffffffffff168473ffffffffffffffffffffffffffffffffffffffff16148061355057508373ffffffffffffffffffffffffffffffffffffffff1661353884610ce3565b73ffffffffffffffffffffffffffffffffffffffff16145b8061356157506135608185612f68565b5b91505092915050565b8273ffffffffffffffffffffffffffffffffffffffff1661358a82611b58565b73ffffffffffffffffffffffffffffffffffffffff16146135e0576040517f08c379a00000000000000000000000000000000000000000000000000000000081526004016135d790615963565b60405180910390fd5b600073ffffffffffffffffffffffffffffffffffffffff168273ffffffffffffffffffffffffffffffffffffffff161415613650576040517f08c379a0000000000000000000000000000000000000000000000000000000008152600401613647906159f5565b60405180910390fd5b61365b8383836139f5565b613666600082613391565b6001600360008573ffffffffffffffffffffffffffffffffffffffff1673ffffffffffffffffffffffffffffffffffffffff16815260200190815260200160002060008282546136b69190615a15565b925050819055506001600360008473ffffffffffffffffffffffffffffffffffffffff1673ffffffffffffffffffffffffffffffffffffffff168152602001908152602001600020600082825461370d919061564a565b92505081905550816002600083815260200190815260200160002060006101000a81548173ffffffffffffffffffffffffffffffffffffffff021916908373ffffffffffffffffffffffffffffffffffffffff160217905550808273ffffffffffffffffffffffffffffffffffffffff168473ffffffffffffffffffffffffffffffffffffffff167fddf252ad1be2c89b69c2b068fc378daa952ba7f163c4a11628f55a4df523b3ef60405160405180910390a46137cc8383836139fa565b505050565b8173ffffffffffffffffffffffffffffffffffffffff168373ffffffffffffffffffffffffffffffffffffffff161415613840576040517f08c379a000000000000000000000000000000000000000000000000000000000815260040161383790615a95565b60405180910390fd5b80600560008573ffffffffffffffffffffffffffffffffffffffff1673ffffffffffffffffffffffffffffffffffffffff16815260200190815260200160002060008473ffffffffffffffffffffffffffffffffffffffff1673ffffffffffffffffffffffffffffffffffffffff16815260200190815260200160002060006101000a81548160ff0219169083151502179055508173ffffffffffffffffffffffffffffffffffffffff168373ffffffffffffffffffffffffffffffffffffffff167f17307eab39ab6107e8899845ad3d59bd9653f200f220920489ca2b5937696c31836040516139319190613f30565b60405180910390a3505050565b61394984848461356a565b613955848484846139ff565b613994576040517f08c379a000000000000000000000000000000000000000000000000000000000815260040161398b90615b27565b60405180910390fd5b50505050565b6139a48383613b87565b6139b160008484846139ff565b6139f0576040517f08c379a00000000000000000000000000000000000000000000000000000000081526004016139e790615b27565b60405180910390fd5b505050565b505050565b505050565b6000613a208473ffffffffffffffffffffffffffffffffffffffff16613d61565b15613b7a578373ffffffffffffffffffffffffffffffffffffffff1663150b7a02613a49613389565b8786866040518563ffffffff1660e01b8152600401613a6b9493929190615b9c565b6020604051808303816000875af1925050508015613aa757506040513d601f19601f82011682018060405250810190613aa49190615bfd565b60015b613b2a573d8060008114613ad7576040519150601f19603f3d011682016040523d82523d6000602084013e613adc565b606091505b50600081511415613b22576040517f08c379a0000000000000000000000000000000000000000000000000000000008152600401613b1990615b27565b60405180910390fd5b805181602001fd5b63150b7a0260e01b7bffffffffffffffffffffffffffffffffffffffffffffffffffffffff1916817bffffffffffffffffffffffffffffffffffffffffffffffffffffffff191614915050613b7f565b600190505b949350505050565b600073ffffffffffffffffffffffffffffffffffffffff168273ffffffffffffffffffffffffffffffffffffffff161415613bf7576040517f08c379a0000000000000000000000000000000000000000000000000000000008152600401613bee90615c76565b60405180910390fd5b613c008161331d565b15613c40576040517f08c379a0000000000000000000000000000000000000000000000000000000008152600401613c3790615ce2565b60405180910390fd5b613c4c600083836139f5565b6001600360008473ffffffffffffffffffffffffffffffffffffffff1673ffffffffffffffffffffffffffffffffffffffff1681526020019081526020016000206000828254613c9c919061564a565b92505081905550816002600083815260200190815260200160002060006101000a81548173ffffffffffffffffffffffffffffffffffffffff021916908373ffffffffffffffffffffffffffffffffffffffff160217905550808273ffffffffffffffffffffffffffffffffffffffff16600073ffffffffffffffffffffffffffffffffffffffff167fddf252ad1be2c89b69c2b068fc378daa952ba7f163c4a11628f55a4df523b3ef60405160405180910390a4613d5d600083836139fa565b5050565b6000808273ffffffffffffffffffffffffffffffffffffffff163b119050919050565b828054613d9090614ba8565b90600052602060002090601f016020900481019282613db25760008555613df9565b82601f10613dcb57805160ff1916838001178555613df9565b82800160010185558215613df9579182015b82811115613df8578251825591602001919060010190613ddd565b5b509050613e069190613e2b565b5090565b60405180606001604052806000815260200160008152602001600081525090565b5b80821115613e44576000816000905550600101613e2c565b5090565b6000819050919050565b613e5b81613e48565b82525050565b6000602082019050613e766000830184613e52565b92915050565b6000604051905090565b600080fd5b600080fd5b60007fffffffff0000000000000000000000000000000000000000000000000000000082169050919050565b613ec581613e90565b8114613ed057600080fd5b50565b600081359050613ee281613ebc565b92915050565b600060208284031215613efe57613efd613e86565b5b6000613f0c84828501613ed3565b91505092915050565b60008115159050919050565b613f2a81613f15565b82525050565b6000602082019050613f456000830184613f21565b92915050565b600073ffffffffffffffffffffffffffffffffffffffff82169050919050565b6000613f7682613f4b565b9050919050565b613f8681613f6b565b8114613f9157600080fd5b50565b600081359050613fa381613f7d565b92915050565b613fb281613e48565b8114613fbd57600080fd5b50565b600081359050613fcf81613fa9565b92915050565b600080600060608486031215613fee57613fed613e86565b5b6000613ffc86828701613f94565b935050602061400d86828701613fc0565b925050604061401e86828701613fc0565b9150509250925092565b600081519050919050565b600082825260208201905092915050565b60005b83811015614062578082015181840152602081019050614047565b83811115614071576000848401525b50505050565b6000601f19601f8301169050919050565b600061409382614028565b61409d8185614033565b93506140ad818560208601614044565b6140b681614077565b840191505092915050565b600060208201905081810360008301526140db8184614088565b905092915050565b6000602082840312156140f9576140f8613e86565b5b600061410784828501613fc0565b91505092915050565b61411981613f6b565b82525050565b60006020820190506141346000830184614110565b92915050565b6000806040838503121561415157614150613e86565b5b600061415f85828601613f94565b925050602061417085828601613fc0565b9150509250929050565b6000806040838503121561419157614190613e86565b5b600061419f85828601613fc0565b92505060206141b085828601613fc0565b9150509250929050565b6000806000606084860312156141d3576141d2613e86565b5b60006141e186828701613f94565b93505060206141f286828701613f94565b925050604061420386828701613fc0565b9150509250925092565b60008060006060848603121561422657614225613e86565b5b600061423486828701613fc0565b935050602061424586828701613fc0565b925050604061425686828701613fc0565b9150509250925092565b6000819050919050565b600061428561428061427b84613f4b565b614260565b613f4b565b9050919050565b60006142978261426a565b9050919050565b60006142a98261428c565b9050919050565b6142b98161429e565b82525050565b6000610100820190506142d5600083018b613e52565b6142e2602083018a613e52565b6142ef6040830189613e52565b6142fc60608301886142b0565b6143096080830187613e52565b61431660a0830186613e52565b61432360c0830185613e52565b61433060e0830184613e52565b9998505050505050505050565b600061434882613f4b565b9050919050565b6143588161433d565b82525050565b6000602082019050614373600083018461434f565b92915050565b600061438482613f6b565b9050919050565b61439481614379565b811461439f57600080fd5b50565b6000813590506143b18161438b565b92915050565b6000602082840312156143cd576143cc613e86565b5b60006143db848285016143a2565b91505092915050565b6000602082840312156143fa576143f9613e86565b5b600061440884828501613f94565b91505092915050565b600080fd5b600080fd5b7f4e487b7100000000000000000000000000000000000000000000000000000000600052604160045260246000fd5b61445382614077565b810181811067ffffffffffffffff821117156144725761447161441b565b5b80604052505050565b6000614485613e7c565b9050614491828261444a565b919050565b600067ffffffffffffffff8211156144b1576144b061441b565b5b6144ba82614077565b9050602081019050919050565b82818337600083830152505050565b60006144e96144e484614496565b61447b565b90508281526020810184848401111561450557614504614416565b5b6145108482856144c7565b509392505050565b600082601f83011261452d5761452c614411565b5b813561453d8482602086016144d6565b91505092915050565b6000806040838503121561455d5761455c613e86565b5b600061456b85828601613fc0565b925050602083013567ffffffffffffffff81111561458c5761458b613e8b565b5b61459885828601614518565b9150509250929050565b6145ab8161433d565b81146145b657600080fd5b50565b6000813590506145c8816145a2565b92915050565b6000602082840312156145e4576145e3613e86565b5b60006145f2848285016145b9565b91505092915050565b61460481613f15565b811461460f57600080fd5b50565b600081359050614621816145fb565b92915050565b6000806040838503121561463e5761463d613e86565b5b600061464c85828601613f94565b925050602061465d85828601614612565b9150509250929050565b61467081613e48565b82525050565b60608201600082015161468c6000850182614667565b50602082015161469f6020850182614667565b5060408201516146b26040850182614667565b50505050565b60006060820190506146cd6000830184614676565b92915050565b600080600080600080600060e0888a0312156146f2576146f1613e86565b5b60006147008a828b01613fc0565b97505060206147118a828b01613fc0565b96505060406147228a828b01613fc0565b95505060606147338a828b016143a2565b94505060806147448a828b01613fc0565b93505060a06147558a828b01613fc0565b92505060c06147668a828b01613fc0565b91505092959891949750929550565b6000806000806080858703121561478f5761478e613e86565b5b600061479d87828801613f94565b94505060206147ae87828801613fc0565b93505060406147bf87828801613fc0565b92505060606147d087828801613fc0565b91505092959194509250565b600067ffffffffffffffff8211156147f7576147f661441b565b5b61480082614077565b9050602081019050919050565b600061482061481b846147dc565b61447b565b90508281526020810184848401111561483c5761483b614416565b5b6148478482856144c7565b509392505050565b600082601f83011261486457614863614411565b5b813561487484826020860161480d565b91505092915050565b6000806000806080858703121561489757614896613e86565b5b60006148a587828801613f94565b94505060206148b687828801613f94565b93505060406148c787828801613fc0565b925050606085013567ffffffffffffffff8111156148e8576148e7613e8b565b5b6148f48782880161484f565b91505092959194509250565b600067ffffffffffffffff82111561491b5761491a61441b565b5b602082029050602081019050919050565b600080fd5b600061494461493f84614900565b61447b565b905080838252602082019050602084028301858111156149675761496661492c565b5b835b81811015614990578061497c8882613fc0565b845260208401935050602081019050614969565b5050509392505050565b600082601f8301126149af576149ae614411565b5b81356149bf848260208601614931565b91505092915050565b60008060008060008060c087890312156149e5576149e4613e86565b5b60006149f389828a01613fc0565b965050602087013567ffffffffffffffff811115614a1457614a13613e8b565b5b614a2089828a01614518565b9550506040614a3189828a01613fc0565b9450506060614a4289828a01613fc0565b935050608087013567ffffffffffffffff811115614a6357614a62613e8b565b5b614a6f89828a0161499a565b92505060a087013567ffffffffffffffff811115614a9057614a8f613e8b565b5b614a9c89828a0161499a565b9150509295509295509295565b6000602082019050614abe60008301846142b0565b92915050565b60008060408385031215614adb57614ada613e86565b5b6000614ae985828601613f94565b9250506020614afa85828601613f94565b9150509250929050565b6000606082019050614b196000830186613e52565b8181036020830152614b2b8185614088565b9050614b3a6040830184613e52565b949350505050565b6000606082019050614b576000830186613e52565b614b646020830185613e52565b614b716040830184613e52565b949350505050565b7f4e487b7100000000000000000000000000000000000000000000000000000000600052602260045260246000fd5b60006002820490506001821680614bc057607f821691505b60208210811415614bd457614bd3614b79565b5b50919050565b7f4552433732313a20617070726f76656420717565727920666f72206e6f6e657860008201527f697374656e7420746f6b656e0000000000000000000000000000000000000000602082015250565b6000614c36602c83614033565b9150614c4182614bda565b604082019050919050565b60006020820190508181036000830152614c6581614c29565b9050919050565b7f4552433732313a20617070726f76616c20746f2063757272656e74206f776e6560008201527f7200000000000000000000000000000000000000000000000000000000000000602082015250565b6000614cc8602183614033565b9150614cd382614c6c565b604082019050919050565b60006020820190508181036000830152614cf781614cbb565b9050919050565b7f4552433732313a20617070726f76652063616c6c6572206973206e6f74206f7760008201527f6e6572206e6f7220617070726f76656420666f7220616c6c0000000000000000602082015250565b6000614d5a603883614033565b9150614d6582614cfe565b604082019050919050565b60006020820190508181036000830152614d8981614d4d565b9050919050565b7f6d696e74206e6f7420617661696c61626c650000000000000000000000000000600082015250565b6000614dc6601283614033565b9150614dd182614d90565b602082019050919050565b60006020820190508181036000830152614df581614db9565b9050919050565b7f696e636f7272656374206d696e74207072696365000000000000000000000000600082015250565b6000614e32601483614033565b9150614e3d82614dfc565b602082019050919050565b60006020820190508181036000830152614e6181614e25565b9050919050565b7f74726561737572792061646472657373206973206e6f74207365740000000000600082015250565b6000614e9e601b83614033565b9150614ea982614e68565b602082019050919050565b60006020820190508181036000830152614ecd81614e91565b9050919050565b7f4e487b7100000000000000000000000000000000000000000000000000000000600052601160045260246000fd5b6000614f0e82613e48565b91507fffffffffffffffffffffffffffffffffffffffffffffffffffffffffffffffff821415614f4157614f40614ed4565b5b600182019050919050565b7f616c7465726e6174697665206d696e7420696420646f65736e2774206578697360008201527f7400000000000000000000000000000000000000000000000000000000000000602082015250565b6000614fa8602183614033565b9150614fb382614f4c565b604082019050919050565b60006020820190508181036000830152614fd781614f9b565b9050919050565b7f6e6f206d696e7473206c65667400000000000000000000000000000000000000600082015250565b6000615014600d83614033565b915061501f82614fde565b602082019050919050565b6000602082019050818103600083015261504381615007565b9050919050565b60006150558261428c565b9050919050565b6150658161504a565b82525050565b60006060820190506150806000830186614110565b61508d602083018561505c565b61509a6040830184613e52565b949350505050565b6000815190506150b1816145fb565b92915050565b6000602082840312156150cd576150cc613e86565b5b60006150db848285016150a2565b91505092915050565b7f4552433732313a207472616e736665722063616c6c6572206973206e6f74206f60008201527f776e6572206e6f7220617070726f766564000000000000000000000000000000602082015250565b6000615140603183614033565b915061514b826150e4565b604082019050919050565b6000602082019050818103600083015261516f81615133565b9050919050565b7f6e6f74206f776e65720000000000000000000000000000000000000000000000600082015250565b60006151ac600983614033565b91506151b782615176565b602082019050919050565b600060208201905081810360008301526151db8161519f565b9050919050565b7f6472696c6c207479706520646f6573206e6f7420657869737400000000000000600082015250565b6000615218601983614033565b9150615223826151e2565b602082019050919050565b600060208201905081810360008301526152478161520b565b9050919050565b7f6c6576656c2069732067726561746572207468616e206d6178206c6576656c2060008201527f666f7220676976656e206472696c6c2074797065000000000000000000000000602082015250565b60006152aa603483614033565b91506152b58261524e565b604082019050919050565b600060208201905081810360008301526152d98161529d565b9050919050565b7f6c6576656c206973206e65676174697665000000000000000000000000000000600082015250565b6000615316601183614033565b9150615321826152e0565b602082019050919050565b6000602082019050818103600083015261534581615309565b9050919050565b7f6472696c6c20646f6573206e6f74206578697374000000000000000000000000600082015250565b6000615382601483614033565b915061538d8261534c565b602082019050919050565b600060208201905081810360008301526153b181615375565b9050919050565b7f4552433732313a206f776e657220717565727920666f72206e6f6e657869737460008201527f656e7420746f6b656e0000000000000000000000000000000000000000000000602082015250565b6000615414602983614033565b915061541f826153b8565b604082019050919050565b6000602082019050818103600083015261544381615407565b9050919050565b7f4552433732313a2062616c616e636520717565727920666f7220746865207a6560008201527f726f206164647265737300000000000000000000000000000000000000000000602082015250565b60006154a6602a83614033565b91506154b18261544a565b604082019050919050565b600060208201905081810360008301526154d581615499565b9050919050565b7f66726565206d696e74206e6f7420617661696c61626c65000000000000000000600082015250565b6000615512601783614033565b915061551d826154dc565b602082019050919050565b6000602082019050818103600083015261554181615505565b9050919050565b600061555382613e48565b9150600082141561556757615566614ed4565b5b600182039050919050565b7f6472696c6c206e6f74206f776e65640000000000000000000000000000000000600082015250565b60006155a8600f83614033565b91506155b382615572565b602082019050919050565b600060208201905081810360008301526155d78161559b565b9050919050565b7f6472696c6c206174206d6178206c6576656c0000000000000000000000000000600082015250565b6000615614601283614033565b915061561f826155de565b602082019050919050565b6000602082019050818103600083015261564381615607565b9050919050565b600061565582613e48565b915061566083613e48565b9250827fffffffffffffffffffffffffffffffffffffffffffffffffffffffffffffffff0382111561569557615694614ed4565b5b828201905092915050565b7f616d6f756e7420666f722075706772616465206e6f742067726561746572207460008201527f68616e207a65726f000000000000000000000000000000000000000000000000602082015250565b60006156fc602883614033565b9150615707826156a0565b604082019050919050565b6000602082019050818103600083015261572b816156ef565b9050919050565b7f6472696c6c207479706520616c72656164792065786973747300000000000000600082015250565b6000615768601983614033565b915061577382615732565b602082019050919050565b600060208201905081810360008301526157978161575b565b9050919050565b7f4e487b7100000000000000000000000000000000000000000000000000000000600052603260045260246000fd5b7f4552433732314d657461646174613a2055524920717565727920666f72206e6f60008201527f6e6578697374656e7420746f6b656e0000000000000000000000000000000000602082015250565b6000615829602f83614033565b9150615834826157cd565b604082019050919050565b600060208201905081810360008301526158588161581c565b9050919050565b7f4552433732313a206f70657261746f7220717565727920666f72206e6f6e657860008201527f697374656e7420746f6b656e0000000000000000000000000000000000000000602082015250565b60006158bb602c83614033565b91506158c68261585f565b604082019050919050565b600060208201905081810360008301526158ea816158ae565b9050919050565b7f4552433732313a207472616e736665722066726f6d20696e636f72726563742060008201527f6f776e6572000000000000000000000000000000000000000000000000000000602082015250565b600061594d602583614033565b9150615958826158f1565b604082019050919050565b6000602082019050818103600083015261597c81615940565b9050919050565b7f4552433732313a207472616e7366657220746f20746865207a65726f2061646460008201527f7265737300000000000000000000000000000000000000000000000000000000602082015250565b60006159df602483614033565b91506159ea82615983565b604082019050919050565b60006020820190508181036000830152615a0e816159d2565b9050919050565b6000615a2082613e48565b9150615a2b83613e48565b925082821015615a3e57615a3d614ed4565b5b828203905092915050565b7f4552433732313a20617070726f766520746f2063616c6c657200000000000000600082015250565b6000615a7f601983614033565b9150615a8a82615a49565b602082019050919050565b60006020820190508181036000830152615aae81615a72565b9050919050565b7f4552433732313a207472616e7366657220746f206e6f6e20455243373231526560008201527f63656976657220696d706c656d656e7465720000000000000000000000000000602082015250565b6000615b11603283614033565b9150615b1c82615ab5565b604082019050919050565b60006020820190508181036000830152615b4081615b04565b9050919050565b600081519050919050565b600082825260208201905092915050565b6000615b6e82615b47565b615b788185615b52565b9350615b88818560208601614044565b615b9181614077565b840191505092915050565b6000608082019050615bb16000830187614110565b615bbe6020830186614110565b615bcb6040830185613e52565b8181036060830152615bdd8184615b63565b905095945050505050565b600081519050615bf781613ebc565b92915050565b600060208284031215615c1357615c12613e86565b5b6000615c2184828501615be8565b91505092915050565b7f4552433732313a206d696e7420746f20746865207a65726f2061646472657373600082015250565b6000615c60602083614033565b9150615c6b82615c2a565b602082019050919050565b60006020820190508181036000830152615c8f81615c53565b9050919050565b7f4552433732313a20746f6b656e20616c7265616479206d696e74656400000000600082015250565b6000615ccc601c83614033565b9150615cd782615c96565b602082019050919050565b60006020820190508181036000830152615cfb81615cbf565b905091905056fea26469706673582212209b9782e5341b952a2df473cbd9e6de295e1c23790f7c9d2557c82ee05d6bb25c64736f6c634300080b0033",
  "immutableReferences": {},
  "source": "// SPDX-License-Identifier: MIT\n\npragma solidity ^0.8.0;\n\nimport \"@openzeppelin/contracts/token/ERC721/ERC721.sol\";\nimport \"@openzeppelin/contracts/utils/Counters.sol\";\nimport \"@openzeppelin/contracts/token/ERC20/IERC20.sol\";\n\ncontract MineEmpireDrill is ERC721 {\n    address public owner;\n    address payable public treasury;\n    IERC20 public cosmicCash;\n    using Counters for Counters.Counter;\n    Counters.Counter public currentTokenId;\n\n    struct Drill {\n        uint drillId;\n        uint drillType;\n        uint level;\n    }\n\n    struct DrillTypeInfo {\n        uint drillType;\n        string drillName;\n        uint maxLevel;\n        mapping(uint => uint) miningPowerAtLevel;\n        mapping(uint => uint) upgradeRequirements;\n    }\n\n    struct AlternativeMint {\n        uint alternativeMintId;\n        uint drillType;\n        uint level;\n        IERC20 currency;\n        uint price;\n        uint minted;\n        uint maxMintsAllowed;\n        uint releaseTime;\n    }\n\n    mapping(uint => Drill) public drillIdToDrillMap;\n    mapping(uint => DrillTypeInfo) public drillTypeToDrillStatsMap;\n    // type -> level -> available\n    mapping(uint => mapping(uint => uint)) public drillsAvailableAtLevel;\n    mapping(uint => mapping(uint => uint)) public drillsMintedAtLevel;\n    mapping(uint => mapping(uint => uint)) public drillPriceAtLevel;\n    mapping(address => mapping(uint => mapping(uint => uint))) public freeMints;\n    mapping(uint => AlternativeMint) public alternativeMints;\n    mapping(uint => string) public URIs;\n\n    constructor() ERC721(\"Mine Empire Drill\", \"DRILL\") {\n        owner = msg.sender;\n        drillsAvailableAtLevel[1][0] = 100;\n    }\n\n    // EVENTS\n    event LogDrillTypeAdded(uint _type);\n    event LogMint(uint _drillId);\n    event LogFreeMint(uint _drillId);\n    event LogAlternativeMint(uint _drillId);\n    event LogDrillUpgrade(uint _drillId);\n\n    // MODIFIERS\n    modifier onlyOwner(address _address) {\n        require(_address == owner, \"not owner\");\n        _;\n    }\n\n    modifier mintAvailable(uint _type, uint _level) {\n        require (drillsMintedAtLevel[_type][_level] < drillsAvailableAtLevel[_type][_level], \"mint not available\");\n        _;\n    }\n\n    modifier freeMintAvailable(uint _type, uint _level, address _user) {\n        require (freeMints[_user][_type][_level] > 0, \"free mint not available\");\n        _;\n    }\n\n    modifier drillExists(uint _drillId) {\n        require(_drillId <= currentTokenId.current(), \"drill does not exist\");\n        _;\n    }\n\n    modifier drillTypeExists(uint _drillType) {\n        require(drillTypeToDrillStatsMap[_drillType].maxLevel > 0, \"drill type does not exist\");\n        _;\n    }\n\n    modifier drillTypeNotExists(uint _drillType) {\n        require(drillTypeToDrillStatsMap[_drillType].maxLevel == 0, \"drill type already exists\");\n        _;\n    }\n\n    modifier drillTypeLevelWithinBounds(uint _type, uint _level) {\n        require(_level < drillTypeToDrillStatsMap[_type].maxLevel, \"level is greater than max level for given drill type\");\n        require(_level >= 0, \"level is negative\");\n        _;\n    }\n\n    modifier correctMintPrice(uint _type, uint _level, uint _mintPrice) {\n        require(drillPriceAtLevel[_type][_level] == _mintPrice, \"incorrect mint price\");\n        _;\n    }\n\n    modifier altMintExists(uint _id) {\n        require(alternativeMints[_id].alternativeMintId == _id, \"alternative mint id doesn't exist\");\n        _;\n    }\n\n    modifier altMintAvailable(uint _id) {\n        require(alternativeMints[_id].minted < alternativeMints[_id].maxMintsAllowed, \"no mints left\");\n        _;\n    }\n\n    modifier altMintWithinTime(uint _id) {\n        require(alternativeMints[_id].releaseTime < block.timestamp, \"cannot mint yet\");\n        _;\n    }\n\n    // ONLY OWNER\n    \n    function updateTreasuryAddress(address payable _address) public onlyOwner(msg.sender) {\n        treasury = _address;\n    }\n\n    function addNewDrillType(\n        uint _type,\n        string memory _name,\n        uint _mintPrice,\n        uint _maxLevel,\n        uint[] memory _miningPowerAtLevel,\n        uint[] memory _upgradeRequirements\n    ) public onlyOwner(msg.sender) drillTypeNotExists(_type) {\n        drillTypeToDrillStatsMap[_type].drillType = _type;\n        drillTypeToDrillStatsMap[_type].drillName = _name;\n        drillPriceAtLevel[_type][0] = _mintPrice;\n        drillTypeToDrillStatsMap[_type].maxLevel = _maxLevel;\n        for (uint i = 0; i < _maxLevel; i++) {\n            drillTypeToDrillStatsMap[_type].miningPowerAtLevel[i] = _miningPowerAtLevel[i];\n            drillTypeToDrillStatsMap[_type].upgradeRequirements[i] = _upgradeRequirements[i];\n\n        }\n        emit LogDrillTypeAdded(_type);\n    }\n\n    function updateMintPrice(\n        uint _type,\n        uint _level,\n        uint _mintPrice\n    ) public onlyOwner(msg.sender) drillTypeExists(_type) {\n        drillPriceAtLevel[_type][_level] = _mintPrice;\n    }\n\n    function updateDrillsAvailable(uint _type, uint _level, uint _count) public onlyOwner(msg.sender) {\n        drillsAvailableAtLevel[_type][_level] = _count;\n    }\n\n    function updateFreeMint(address _user, uint _type, uint _level, uint _amount) public onlyOwner(msg.sender) {\n        freeMints[_user][_type][_level] = _amount;\n    }\n\n    function updateMiningPower(\n        uint _type, \n        uint _level, \n        uint _power\n    ) public onlyOwner(msg.sender) drillTypeExists(_type) drillTypeLevelWithinBounds(_type, _level) {\n        drillTypeToDrillStatsMap[_type].miningPowerAtLevel[_level] = _power;\n    }\n\n    function updateMaxLevel(\n        uint _type,\n        uint _maxLevel\n    ) public onlyOwner(msg.sender) drillTypeExists(_type) {\n        drillTypeToDrillStatsMap[_type].maxLevel = _maxLevel;\n    }\n\n    function updateUpgradeRequirement(\n        uint _type,\n        uint _level,\n        uint _upgradeRequirement\n    ) public onlyOwner(msg.sender) drillTypeExists(_type) drillTypeLevelWithinBounds(_type, _level) {\n        drillTypeToDrillStatsMap[_type].upgradeRequirements[_level] = _upgradeRequirement;\n    }\n\n    function updateCosmicCash(\n        IERC20 _cosmicCash\n    ) public onlyOwner(msg.sender) {\n        cosmicCash = _cosmicCash;\n    }\n\n    function addAlternativeMint(\n        uint _id,\n        uint _type,\n        uint _level,\n        IERC20 _currency,\n        uint _price,\n        uint _maxMintsAllowed,\n        uint _releaseTime\n    ) public onlyOwner(msg.sender) drillTypeExists(_type) drillTypeLevelWithinBounds(_type, _level) {\n        alternativeMints[_id] = AlternativeMint(_id, _type, _level, _currency, _price, 0, _maxMintsAllowed, _releaseTime);\n    }\n\n    function setURIForLevel(uint _level, string memory _uri) public onlyOwner(msg.sender) {\n        URIs[_level] = _uri;\n    }\n\n    // GETTERS\n\n    function getDrill(uint _drillId) public view drillExists(_drillId) returns(Drill memory) {\n        return drillIdToDrillMap[_drillId];\n    }\n\n    function getMintPrice(uint _type, uint _level) public view drillTypeExists(_type) returns(uint) {\n        return drillPriceAtLevel[_type][_level];\n    }\n\n    function getUpgradeRequirement(\n        uint _type,\n        uint _level\n    ) public view drillTypeExists(_type) drillTypeLevelWithinBounds(_type, _level) returns(uint) {\n        return drillTypeToDrillStatsMap[_type].upgradeRequirements[_level];\n    }\n    \n    function getMiningPower(uint _drillId) public view drillExists(_drillId) returns(uint) {\n        Drill memory drill = drillIdToDrillMap[_drillId];\n        return drillTypeToDrillStatsMap[drill.drillType].miningPowerAtLevel[drill.level];\n    }\n\n    function getDrillsAvailableAtLevel(uint _type, uint _level) public view returns(uint) {\n        return drillsAvailableAtLevel[_type][_level];\n    }\n\n    function tokenURI(uint256 tokenId) public view override returns(string memory) {\n        require(_exists(tokenId), \"ERC721Metadata: URI query for nonexistent token\");\n        uint level = drillIdToDrillMap[tokenId].level;\n        return URIs[level];\n    }\n\n    // USER INTERACTIONS\n\n    function mintDrill(uint _type, uint _level) public payable \n    mintAvailable(_type, _level) \n    correctMintPrice(_type, _level, msg.value) {\n        require(treasury != address(0), \"treasury address is not set\");\n        treasury.transfer(msg.value);\n        currentTokenId.increment();\n        uint nextDrillId = currentTokenId.current();\n        Drill memory drill = Drill(\n            nextDrillId,\n            _type,\n            _level\n        );\n        drillIdToDrillMap[nextDrillId] = drill;\n        drillsMintedAtLevel[_type][_level]++;\n        _safeMint(msg.sender, nextDrillId);\n        emit LogMint(nextDrillId);\n        nextDrillId++;\n    }\n\n    function freeMintDrill(uint _type, uint _level) public freeMintAvailable(_type, _level, msg.sender) {\n        freeMints[msg.sender][_type][_level]--;\n        currentTokenId.increment();\n        uint nextDrillId = currentTokenId.current();\n        Drill memory drill = Drill(\n            nextDrillId,\n            _type,\n            _level\n        );\n        drillIdToDrillMap[nextDrillId] = drill;\n        drillsMintedAtLevel[_type][_level]++;\n        _safeMint(msg.sender, nextDrillId);\n        emit LogFreeMint(nextDrillId);\n        nextDrillId++;\n    }\n\n    function alternativeMintDrill(uint _id) public altMintExists(_id) altMintAvailable(_id) {\n        alternativeMints[_id].minted++;\n        alternativeMints[_id].currency.transferFrom(msg.sender, treasury, alternativeMints[_id].price);\n        currentTokenId.increment();\n        uint nextDrillId = currentTokenId.current();\n        Drill memory drill = Drill(\n            nextDrillId,\n            alternativeMints[_id].drillType,\n            alternativeMints[_id].level\n        );\n        drillIdToDrillMap[nextDrillId] = drill;\n        _safeMint(msg.sender, nextDrillId);\n        emit LogAlternativeMint(nextDrillId);\n        nextDrillId++;\n    }\n\n    function upgradeDrill(uint _drillId) public drillExists(_drillId) {\n        require(super.ownerOf(_drillId) == msg.sender, \"drill not owned\");\n        Drill memory drill = drillIdToDrillMap[_drillId];\n        DrillTypeInfo storage drillInfo = drillTypeToDrillStatsMap[drill.drillType];\n        require(drill.level < drillInfo.maxLevel, \"drill at max level\");\n\n        uint amountForUpgrade = drillInfo.upgradeRequirements[drill.level + 1];\n        require(amountForUpgrade > 0, \"amount for upgrade not greater than zero\");\n        cosmicCash.transferFrom(msg.sender, treasury, amountForUpgrade);\n        drillIdToDrillMap[_drillId].level = drill.level + 1;\n        emit LogDrillUpgrade(_drillId);\n    }\n}",
  "sourcePath": "/Users/aslan/Desktop/MineEmpireBackend/contracts/MineEmpireDrill.sol",
  "compiler": {
    "name": "solc",
    "version": "0.8.11+commit.d7f03943.Emscripten.clang"
  },
  "schemaVersion": "3.4.3",
  "updatedAt": "2022-07-06T14:37:56.371Z",
  "devdoc": {
    "kind": "dev",
    "methods": {
      "approve(address,uint256)": {
        "details": "See {IERC721-approve}."
      },
      "balanceOf(address)": {
        "details": "See {IERC721-balanceOf}."
      },
      "getApproved(uint256)": {
        "details": "See {IERC721-getApproved}."
      },
      "isApprovedForAll(address,address)": {
        "details": "See {IERC721-isApprovedForAll}."
      },
      "name()": {
        "details": "See {IERC721Metadata-name}."
      },
      "ownerOf(uint256)": {
        "details": "See {IERC721-ownerOf}."
      },
      "safeTransferFrom(address,address,uint256)": {
        "details": "See {IERC721-safeTransferFrom}."
      },
      "safeTransferFrom(address,address,uint256,bytes)": {
        "details": "See {IERC721-safeTransferFrom}."
      },
      "setApprovalForAll(address,bool)": {
        "details": "See {IERC721-setApprovalForAll}."
      },
      "supportsInterface(bytes4)": {
        "details": "See {IERC165-supportsInterface}."
      },
      "symbol()": {
        "details": "See {IERC721Metadata-symbol}."
      },
      "tokenURI(uint256)": {
        "details": "See {IERC721Metadata-tokenURI}."
      },
      "transferFrom(address,address,uint256)": {
        "details": "See {IERC721-transferFrom}."
      }
    },
    "version": 1
  },
  "userdoc": {
    "kind": "user",
    "methods": {},
    "version": 1
  }
}