{
  "contractName": "MineEmpireDrill",
  "abi": [
    {
      "inputs": [],
      "stateMutability": "nonpayable",
      "type": "constructor"
    },
    {
      "anonymous": false,
      "inputs": [
        {
          "indexed": true,
          "internalType": "address",
          "name": "owner",
          "type": "address"
        },
        {
          "indexed": true,
          "internalType": "address",
          "name": "approved",
          "type": "address"
        },
        {
          "indexed": true,
          "internalType": "uint256",
          "name": "tokenId",
          "type": "uint256"
        }
      ],
      "name": "Approval",
      "type": "event"
    },
    {
      "anonymous": false,
      "inputs": [
        {
          "indexed": true,
          "internalType": "address",
          "name": "owner",
          "type": "address"
        },
        {
          "indexed": true,
          "internalType": "address",
          "name": "operator",
          "type": "address"
        },
        {
          "indexed": false,
          "internalType": "bool",
          "name": "approved",
          "type": "bool"
        }
      ],
      "name": "ApprovalForAll",
      "type": "event"
    },
    {
      "anonymous": false,
      "inputs": [
        {
          "indexed": false,
          "internalType": "uint256",
          "name": "_drillId",
          "type": "uint256"
        }
      ],
      "name": "LogCapacityLevelUpgraded",
      "type": "event"
    },
    {
      "anonymous": false,
      "inputs": [
        {
          "indexed": false,
          "internalType": "uint256",
          "name": "_drillId",
          "type": "uint256"
        }
      ],
      "name": "LogMiningLevelUpgraded",
      "type": "event"
    },
    {
      "anonymous": false,
      "inputs": [
        {
          "indexed": false,
          "internalType": "uint256",
          "name": "_drillId",
          "type": "uint256"
        }
      ],
      "name": "LogMint",
      "type": "event"
    },
    {
      "anonymous": false,
      "inputs": [
        {
          "indexed": false,
          "internalType": "uint256",
          "name": "_drillId",
          "type": "uint256"
        }
      ],
      "name": "LogNewDrillTypeAdded",
      "type": "event"
    },
    {
      "anonymous": false,
      "inputs": [
        {
          "indexed": false,
          "internalType": "address",
          "name": "_address",
          "type": "address"
        }
      ],
      "name": "LogNewResourceTracked",
      "type": "event"
    },
    {
      "anonymous": false,
      "inputs": [
        {
          "indexed": false,
          "internalType": "uint256",
          "name": "_drillId",
          "type": "uint256"
        }
      ],
      "name": "LogPromoMint",
      "type": "event"
    },
    {
      "anonymous": false,
      "inputs": [
        {
          "components": [
            {
              "internalType": "uint256",
              "name": "promoId",
              "type": "uint256"
            },
            {
              "internalType": "uint256",
              "name": "drillType",
              "type": "uint256"
            },
            {
              "internalType": "uint256",
              "name": "maxUnits",
              "type": "uint256"
            },
            {
              "internalType": "uint256",
              "name": "unitsSold",
              "type": "uint256"
            },
            {
              "internalType": "uint256",
              "name": "miningLevel",
              "type": "uint256"
            },
            {
              "internalType": "uint256",
              "name": "capacityLevel",
              "type": "uint256"
            },
            {
              "internalType": "uint256",
              "name": "mintPrice",
              "type": "uint256"
            }
          ],
          "indexed": false,
          "internalType": "struct MineEmpireDrill.Promotion",
          "name": "_promo",
          "type": "tuple"
        }
      ],
      "name": "LogPromotionAdded",
      "type": "event"
    },
    {
      "anonymous": false,
      "inputs": [
        {
          "indexed": true,
          "internalType": "address",
          "name": "from",
          "type": "address"
        },
        {
          "indexed": true,
          "internalType": "address",
          "name": "to",
          "type": "address"
        },
        {
          "indexed": true,
          "internalType": "uint256",
          "name": "tokenId",
          "type": "uint256"
        }
      ],
      "name": "Transfer",
      "type": "event"
    },
    {
      "inputs": [
        {
          "internalType": "address",
          "name": "to",
          "type": "address"
        },
        {
          "internalType": "uint256",
          "name": "tokenId",
          "type": "uint256"
        }
      ],
      "name": "approve",
      "outputs": [],
      "stateMutability": "nonpayable",
      "type": "function"
    },
    {
      "inputs": [
        {
          "internalType": "address",
          "name": "owner",
          "type": "address"
        }
      ],
      "name": "balanceOf",
      "outputs": [
        {
          "internalType": "uint256",
          "name": "",
          "type": "uint256"
        }
      ],
      "stateMutability": "view",
      "type": "function"
    },
    {
      "inputs": [],
      "name": "currentMintDrill",
      "outputs": [
        {
          "internalType": "uint256",
          "name": "",
          "type": "uint256"
        }
      ],
      "stateMutability": "view",
      "type": "function"
    },
    {
      "inputs": [],
      "name": "drillId",
      "outputs": [
        {
          "internalType": "uint256",
          "name": "",
          "type": "uint256"
        }
      ],
      "stateMutability": "view",
      "type": "function"
    },
    {
      "inputs": [
        {
          "internalType": "uint256",
          "name": "",
          "type": "uint256"
        }
      ],
      "name": "drillMap",
      "outputs": [
        {
          "internalType": "uint256",
          "name": "drillId",
          "type": "uint256"
        },
        {
          "internalType": "string",
          "name": "name",
          "type": "string"
        },
        {
          "internalType": "uint256",
          "name": "drillType",
          "type": "uint256"
        },
        {
          "internalType": "uint256",
          "name": "miningLevel",
          "type": "uint256"
        },
        {
          "internalType": "uint256",
          "name": "capacityLevel",
          "type": "uint256"
        }
      ],
      "stateMutability": "view",
      "type": "function"
    },
    {
      "inputs": [
        {
          "internalType": "uint256",
          "name": "tokenId",
          "type": "uint256"
        }
      ],
      "name": "getApproved",
      "outputs": [
        {
          "internalType": "address",
          "name": "",
          "type": "address"
        }
      ],
      "stateMutability": "view",
      "type": "function"
    },
    {
      "inputs": [
        {
          "internalType": "address",
          "name": "owner",
          "type": "address"
        },
        {
          "internalType": "address",
          "name": "operator",
          "type": "address"
        }
      ],
      "name": "isApprovedForAll",
      "outputs": [
        {
          "internalType": "bool",
          "name": "",
          "type": "bool"
        }
      ],
      "stateMutability": "view",
      "type": "function"
    },
    {
      "inputs": [],
      "name": "maxDrills",
      "outputs": [
        {
          "internalType": "uint256",
          "name": "",
          "type": "uint256"
        }
      ],
      "stateMutability": "view",
      "type": "function"
    },
    {
      "inputs": [],
      "name": "name",
      "outputs": [
        {
          "internalType": "string",
          "name": "",
          "type": "string"
        }
      ],
      "stateMutability": "view",
      "type": "function"
    },
    {
      "inputs": [],
      "name": "owner",
      "outputs": [
        {
          "internalType": "address",
          "name": "",
          "type": "address"
        }
      ],
      "stateMutability": "view",
      "type": "function"
    },
    {
      "inputs": [
        {
          "internalType": "uint256",
          "name": "tokenId",
          "type": "uint256"
        }
      ],
      "name": "ownerOf",
      "outputs": [
        {
          "internalType": "address",
          "name": "",
          "type": "address"
        }
      ],
      "stateMutability": "view",
      "type": "function"
    },
    {
      "inputs": [
        {
          "internalType": "uint256",
          "name": "",
          "type": "uint256"
        }
      ],
      "name": "promotions",
      "outputs": [
        {
          "internalType": "uint256",
          "name": "promoId",
          "type": "uint256"
        },
        {
          "internalType": "uint256",
          "name": "drillType",
          "type": "uint256"
        },
        {
          "internalType": "uint256",
          "name": "maxUnits",
          "type": "uint256"
        },
        {
          "internalType": "uint256",
          "name": "unitsSold",
          "type": "uint256"
        },
        {
          "internalType": "uint256",
          "name": "miningLevel",
          "type": "uint256"
        },
        {
          "internalType": "uint256",
          "name": "capacityLevel",
          "type": "uint256"
        },
        {
          "internalType": "uint256",
          "name": "mintPrice",
          "type": "uint256"
        }
      ],
      "stateMutability": "view",
      "type": "function"
    },
    {
      "inputs": [
        {
          "internalType": "address",
          "name": "from",
          "type": "address"
        },
        {
          "internalType": "address",
          "name": "to",
          "type": "address"
        },
        {
          "internalType": "uint256",
          "name": "tokenId",
          "type": "uint256"
        }
      ],
      "name": "safeTransferFrom",
      "outputs": [],
      "stateMutability": "nonpayable",
      "type": "function"
    },
    {
      "inputs": [
        {
          "internalType": "address",
          "name": "from",
          "type": "address"
        },
        {
          "internalType": "address",
          "name": "to",
          "type": "address"
        },
        {
          "internalType": "uint256",
          "name": "tokenId",
          "type": "uint256"
        },
        {
          "internalType": "bytes",
          "name": "_data",
          "type": "bytes"
        }
      ],
      "name": "safeTransferFrom",
      "outputs": [],
      "stateMutability": "nonpayable",
      "type": "function"
    },
    {
      "inputs": [
        {
          "internalType": "address",
          "name": "operator",
          "type": "address"
        },
        {
          "internalType": "bool",
          "name": "approved",
          "type": "bool"
        }
      ],
      "name": "setApprovalForAll",
      "outputs": [],
      "stateMutability": "nonpayable",
      "type": "function"
    },
    {
      "inputs": [
        {
          "internalType": "bytes4",
          "name": "interfaceId",
          "type": "bytes4"
        }
      ],
      "name": "supportsInterface",
      "outputs": [
        {
          "internalType": "bool",
          "name": "",
          "type": "bool"
        }
      ],
      "stateMutability": "view",
      "type": "function"
    },
    {
      "inputs": [],
      "name": "symbol",
      "outputs": [
        {
          "internalType": "string",
          "name": "",
          "type": "string"
        }
      ],
      "stateMutability": "view",
      "type": "function"
    },
    {
      "inputs": [
        {
          "internalType": "uint256",
          "name": "tokenId",
          "type": "uint256"
        }
      ],
      "name": "tokenURI",
      "outputs": [
        {
          "internalType": "string",
          "name": "",
          "type": "string"
        }
      ],
      "stateMutability": "view",
      "type": "function"
    },
    {
      "inputs": [
        {
          "internalType": "address",
          "name": "from",
          "type": "address"
        },
        {
          "internalType": "address",
          "name": "to",
          "type": "address"
        },
        {
          "internalType": "uint256",
          "name": "tokenId",
          "type": "uint256"
        }
      ],
      "name": "transferFrom",
      "outputs": [],
      "stateMutability": "nonpayable",
      "type": "function"
    },
    {
      "inputs": [],
      "name": "treasury",
      "outputs": [
        {
          "internalType": "address payable",
          "name": "",
          "type": "address"
        }
      ],
      "stateMutability": "view",
      "type": "function"
    },
    {
      "inputs": [
        {
          "internalType": "uint256",
          "name": "idx",
          "type": "uint256"
        }
      ],
      "name": "getResourceAtIndex",
      "outputs": [
        {
          "internalType": "contract IERC20",
          "name": "",
          "type": "address"
        }
      ],
      "stateMutability": "view",
      "type": "function"
    },
    {
      "inputs": [
        {
          "internalType": "address payable",
          "name": "_address",
          "type": "address"
        }
      ],
      "name": "updateTreasuryAddress",
      "outputs": [],
      "stateMutability": "nonpayable",
      "type": "function"
    },
    {
      "inputs": [
        {
          "internalType": "uint256",
          "name": "_drillType",
          "type": "uint256"
        },
        {
          "internalType": "string",
          "name": "name",
          "type": "string"
        },
        {
          "internalType": "uint256",
          "name": "_mintPrice",
          "type": "uint256"
        },
        {
          "internalType": "uint256",
          "name": "_maxLevel",
          "type": "uint256"
        },
        {
          "internalType": "uint256[]",
          "name": "miningPower",
          "type": "uint256[]"
        },
        {
          "internalType": "uint256[]",
          "name": "capacityAmount",
          "type": "uint256[]"
        },
        {
          "internalType": "uint256[][]",
          "name": "_miningLevelUpgradeRequirement",
          "type": "uint256[][]"
        },
        {
          "internalType": "uint256[][]",
          "name": "_capacityLevelUpgradeRequirement",
          "type": "uint256[][]"
        }
      ],
      "name": "addNewDrillType",
      "outputs": [],
      "stateMutability": "nonpayable",
      "type": "function"
    },
    {
      "inputs": [
        {
          "internalType": "contract IERC20",
          "name": "resource",
          "type": "address"
        }
      ],
      "name": "addNewTrackedResource",
      "outputs": [],
      "stateMutability": "nonpayable",
      "type": "function"
    },
    {
      "inputs": [
        {
          "internalType": "uint256",
          "name": "drillType",
          "type": "uint256"
        },
        {
          "internalType": "uint256",
          "name": "_price",
          "type": "uint256"
        }
      ],
      "name": "updateMintPrice",
      "outputs": [],
      "stateMutability": "nonpayable",
      "type": "function"
    },
    {
      "inputs": [
        {
          "internalType": "uint256",
          "name": "_maxDrills",
          "type": "uint256"
        }
      ],
      "name": "updateMaxDrillCount",
      "outputs": [],
      "stateMutability": "nonpayable",
      "type": "function"
    },
    {
      "inputs": [
        {
          "internalType": "uint256",
          "name": "promoId",
          "type": "uint256"
        },
        {
          "internalType": "uint256",
          "name": "_drillType",
          "type": "uint256"
        },
        {
          "internalType": "uint256",
          "name": "_miningLeve",
          "type": "uint256"
        },
        {
          "internalType": "uint256",
          "name": "_capacityLevel",
          "type": "uint256"
        },
        {
          "internalType": "uint256",
          "name": "_maxUnits",
          "type": "uint256"
        },
        {
          "internalType": "uint256",
          "name": "_price",
          "type": "uint256"
        }
      ],
      "name": "createPromotion",
      "outputs": [],
      "stateMutability": "nonpayable",
      "type": "function"
    },
    {
      "inputs": [
        {
          "internalType": "uint256",
          "name": "_drillId",
          "type": "uint256"
        }
      ],
      "name": "getDrill",
      "outputs": [
        {
          "components": [
            {
              "internalType": "uint256",
              "name": "drillId",
              "type": "uint256"
            },
            {
              "internalType": "string",
              "name": "name",
              "type": "string"
            },
            {
              "internalType": "uint256",
              "name": "drillType",
              "type": "uint256"
            },
            {
              "internalType": "uint256",
              "name": "miningLevel",
              "type": "uint256"
            },
            {
              "internalType": "uint256",
              "name": "capacityLevel",
              "type": "uint256"
            }
          ],
          "internalType": "struct MineEmpireDrill.Drill",
          "name": "",
          "type": "tuple"
        }
      ],
      "stateMutability": "view",
      "type": "function"
    },
    {
      "inputs": [
        {
          "internalType": "uint256",
          "name": "drillType",
          "type": "uint256"
        }
      ],
      "name": "getMintPrice",
      "outputs": [
        {
          "internalType": "uint256",
          "name": "",
          "type": "uint256"
        }
      ],
      "stateMutability": "view",
      "type": "function"
    },
    {
      "inputs": [
        {
          "internalType": "uint256",
          "name": "_drillId",
          "type": "uint256"
        }
      ],
      "name": "getMiningLevelUpgradeRequirements",
      "outputs": [
        {
          "internalType": "uint256[]",
          "name": "",
          "type": "uint256[]"
        }
      ],
      "stateMutability": "view",
      "type": "function"
    },
    {
      "inputs": [
        {
          "internalType": "uint256",
          "name": "_drillId",
          "type": "uint256"
        }
      ],
      "name": "getCapacityLevelUpgradeRequirements",
      "outputs": [
        {
          "internalType": "uint256[]",
          "name": "",
          "type": "uint256[]"
        }
      ],
      "stateMutability": "view",
      "type": "function"
    },
    {
      "inputs": [
        {
          "internalType": "uint256",
          "name": "_drillId",
          "type": "uint256"
        }
      ],
      "name": "getDrillMiningPower",
      "outputs": [
        {
          "internalType": "uint256",
          "name": "",
          "type": "uint256"
        }
      ],
      "stateMutability": "view",
      "type": "function"
    },
    {
      "inputs": [
        {
          "internalType": "uint256",
          "name": "_drillId",
          "type": "uint256"
        }
      ],
      "name": "getDrillCapacity",
      "outputs": [
        {
          "internalType": "uint256",
          "name": "",
          "type": "uint256"
        }
      ],
      "stateMutability": "view",
      "type": "function"
    },
    {
      "inputs": [],
      "name": "mintDrill",
      "outputs": [],
      "stateMutability": "payable",
      "type": "function"
    },
    {
      "inputs": [
        {
          "internalType": "uint256",
          "name": "_promoId",
          "type": "uint256"
        }
      ],
      "name": "mintPromoDrill",
      "outputs": [],
      "stateMutability": "payable",
      "type": "function"
    },
    {
      "inputs": [
        {
          "internalType": "uint256",
          "name": "_drillId",
          "type": "uint256"
        }
      ],
      "name": "upgradeMiningLevel",
      "outputs": [],
      "stateMutability": "nonpayable",
      "type": "function"
    },
    {
      "inputs": [
        {
          "internalType": "uint256",
          "name": "_drillId",
          "type": "uint256"
        }
      ],
      "name": "upgradeCapacityLevel",
      "outputs": [],
      "stateMutability": "nonpayable",
      "type": "function"
    }
  ],
  "bytecode": "0x6080604052600060085560016009556064600a556000600b553480156200002557600080fd5b506040518060400160405280601181526020017f4d696e6520456d70697265204472696c6c0000000000000000000000000000008152506040518060400160405280600581526020017f4452494c4c0000000000000000000000000000000000000000000000000000008152508160009080519060200190620000aa9291906200010d565b508060019080519060200190620000c39291906200010d565b50505033600660006101000a81548173ffffffffffffffffffffffffffffffffffffffff021916908373ffffffffffffffffffffffffffffffffffffffff16021790555062000222565b8280546200011b90620001ec565b90600052602060002090601f0160209004810192826200013f57600085556200018b565b82601f106200015a57805160ff19168380011785556200018b565b828001600101855582156200018b579182015b828111156200018a5782518255916020019190600101906200016d565b5b5090506200019a91906200019e565b5090565b5b80821115620001b95760008160009055506001016200019f565b5090565b7f4e487b7100000000000000000000000000000000000000000000000000000000600052602260045260246000fd5b600060028204905060018216806200020557607f821691505b602082108114156200021c576200021b620001bd565b5b50919050565b615c2380620002326000396000f3fe60806040526004361061021a5760003560e01c8063863d60c811610123578063b88d4fde116100ab578063d85f98ef1161006f578063d85f98ef14610817578063e9639ffc14610858578063e985e9c514610895578063ec9ca258146108d2578063f16ab2f1146108fb5761021a565b8063b88d4fde14610722578063c04bef721461074b578063c87b56dd14610774578063ca01bf78146107b1578063d6759f63146107ee5761021a565b80639cb81689116100f25780639cb8168914610619578063a22cb46514610656578063a28436821461067f578063a475949f146106bc578063b6326c7e146106f95761021a565b8063863d60c81461055b5780638da5cb5b1461059857806395d89b41146105c3578063999fcaa6146105ee5761021a565b806357d7ed13116101a657806367810dfe1161017557806367810dfe1461045e5780636b434e33146104a157806370a08231146104cc5780637fb8b44014610509578063841e4561146105325761021a565b806357d7ed13146103af5780635f992ccf146103cb57806361d027b3146103f65780636352211e146104215761021a565b8063095ea7b3116101ed578063095ea7b3146102ed57806323b872dd14610316578063389968071461033f57806342842e0e14610349578063559e775b146103725761021a565b806301ffc9a71461021f57806306fdde031461025c578063081812fc1461028757806308876d43146102c4575b600080fd5b34801561022b57600080fd5b5061024660048036038101906102419190613ac8565b610924565b6040516102539190613b10565b60405180910390f35b34801561026857600080fd5b50610271610a06565b60405161027e9190613bc4565b60405180910390f35b34801561029357600080fd5b506102ae60048036038101906102a99190613c1c565b610a98565b6040516102bb9190613c8a565b60405180910390f35b3480156102d057600080fd5b506102eb60048036038101906102e69190613ce3565b610b1d565b005b3480156102f957600080fd5b50610314600480360381019061030f9190613d3c565b610c64565b005b34801561032257600080fd5b5061033d60048036038101906103389190613d7c565b610d7c565b005b610347610ddc565b005b34801561035557600080fd5b50610370600480360381019061036b9190613d7c565b61115d565b005b34801561037e57600080fd5b5061039960048036038101906103949190613c1c565b61117d565b6040516103a69190613dde565b60405180910390f35b6103c960048036038101906103c49190613c1c565b6111e9565b005b3480156103d757600080fd5b506103e061157c565b6040516103ed9190613dde565b60405180910390f35b34801561040257600080fd5b5061040b611582565b6040516104189190613e1a565b60405180910390f35b34801561042d57600080fd5b5061044860048036038101906104439190613c1c565b6115a8565b6040516104559190613c8a565b60405180910390f35b34801561046a57600080fd5b5061048560048036038101906104809190613c1c565b61165a565b6040516104989796959493929190613e35565b60405180910390f35b3480156104ad57600080fd5b506104b661169c565b6040516104c39190613dde565b60405180910390f35b3480156104d857600080fd5b506104f360048036038101906104ee9190613ea4565b6116a2565b6040516105009190613dde565b60405180910390f35b34801561051557600080fd5b50610530600480360381019061052b9190613ed1565b61175a565b005b34801561053e57600080fd5b5061055960048036038101906105549190613f8a565b6118c1565b005b34801561056757600080fd5b50610582600480360381019061057d9190613c1c565b611997565b60405161058f9190614016565b60405180910390f35b3480156105a457600080fd5b506105ad6119df565b6040516105ba9190613c8a565b60405180910390f35b3480156105cf57600080fd5b506105d8611a05565b6040516105e59190613bc4565b60405180910390f35b3480156105fa57600080fd5b50610603611a97565b6040516106109190613dde565b60405180910390f35b34801561062557600080fd5b50610640600480360381019061063b9190613c1c565b611a9d565b60405161064d9190613dde565b60405180910390f35b34801561066257600080fd5b5061067d6004803603810190610678919061405d565b611b6b565b005b34801561068b57600080fd5b506106a660048036038101906106a19190613c1c565b611b81565b6040516106b3919061416c565b60405180910390f35b3480156106c857600080fd5b506106e360048036038101906106de9190613c1c565b611c68565b6040516106f09190613dde565b60405180910390f35b34801561070557600080fd5b50610720600480360381019061071b9190613c1c565b611d36565b005b34801561072e57600080fd5b50610749600480360381019061074491906142c3565b61203d565b005b34801561075757600080fd5b50610772600480360381019061076d9190613c1c565b61209f565b005b34801561078057600080fd5b5061079b60048036038101906107969190613c1c565b6123a6565b6040516107a89190613bc4565b60405180910390f35b3480156107bd57600080fd5b506107d860048036038101906107d39190613c1c565b61244d565b6040516107e591906143f5565b60405180910390f35b3480156107fa57600080fd5b5061081560048036038101906108109190614661565b61255d565b005b34801561082357600080fd5b5061083e60048036038101906108399190613c1c565b612878565b60405161084f9594939291906147a3565b60405180910390f35b34801561086457600080fd5b5061087f600480360381019061087a9190613c1c565b612936565b60405161088c91906143f5565b60405180910390f35b3480156108a157600080fd5b506108bc60048036038101906108b791906147fd565b612a46565b6040516108c99190613b10565b60405180910390f35b3480156108de57600080fd5b506108f960048036038101906108f4919061483d565b612ada565b005b34801561090757600080fd5b50610922600480360381019061091d9190613c1c565b612bd7565b005b60007f80ac58cd000000000000000000000000000000000000000000000000000000007bffffffffffffffffffffffffffffffffffffffffffffffffffffffff1916827bffffffffffffffffffffffffffffffffffffffffffffffffffffffff191614806109ef57507f5b5e139f000000000000000000000000000000000000000000000000000000007bffffffffffffffffffffffffffffffffffffffffffffffffffffffff1916827bffffffffffffffffffffffffffffffffffffffffffffffffffffffff1916145b806109ff57506109fe82612c73565b5b9050919050565b606060008054610a15906148ac565b80601f0160208091040260200160405190810160405280929190818152602001828054610a41906148ac565b8015610a8e5780601f10610a6357610100808354040283529160200191610a8e565b820191906000526020600020905b815481529060010190602001808311610a7157829003601f168201915b5050505050905090565b6000610aa382612cdd565b610ae2576040517f08c379a0000000000000000000000000000000000000000000000000000000008152600401610ad990614950565b60405180910390fd5b6004600083815260200190815260200160002060009054906101000a900473ffffffffffffffffffffffffffffffffffffffff169050919050565b33600660009054906101000a900473ffffffffffffffffffffffffffffffffffffffff1673ffffffffffffffffffffffffffffffffffffffff168173ffffffffffffffffffffffffffffffffffffffff1614610bae576040517f08c379a0000000000000000000000000000000000000000000000000000000008152600401610ba5906149bc565b60405180910390fd5b600c829080600181540180825580915050600190039060005260206000200160009091909190916101000a81548173ffffffffffffffffffffffffffffffffffffffff021916908373ffffffffffffffffffffffffffffffffffffffff1602179055507f6c0d84880fe2de203b8d9b88ff02664e6d55009c80346d02f360ee74a38852f682604051610c409190613c8a565b60405180910390a1600d6000815480929190610c5b90614a0b565b91905055505050565b6000610c6f826115a8565b90508073ffffffffffffffffffffffffffffffffffffffff168373ffffffffffffffffffffffffffffffffffffffff161415610ce0576040517f08c379a0000000000000000000000000000000000000000000000000000000008152600401610cd790614ac6565b60405180910390fd5b8073ffffffffffffffffffffffffffffffffffffffff16610cff612d49565b73ffffffffffffffffffffffffffffffffffffffff161480610d2e5750610d2d81610d28612d49565b612a46565b5b610d6d576040517f08c379a0000000000000000000000000000000000000000000000000000000008152600401610d6490614b58565b60405180910390fd5b610d778383612d51565b505050565b610d8d610d87612d49565b82612e0a565b610dcc576040517f08c379a0000000000000000000000000000000000000000000000000000000008152600401610dc390614bea565b60405180910390fd5b610dd7838383612ee8565b505050565b600a546009541115610e23576040517f08c379a0000000000000000000000000000000000000000000000000000000008152600401610e1a90614c56565b60405180910390fd5b600b5460085410610e69576040517f08c379a0000000000000000000000000000000000000000000000000000000008152600401610e6090614ce8565b60405180910390fd5b601360085481548110610e7f57610e7e614d08565b5b90600052602060002001543414610ecb576040517f08c379a0000000000000000000000000000000000000000000000000000000008152600401610ec290614da9565b60405180910390fd5b600073ffffffffffffffffffffffffffffffffffffffff16600760009054906101000a900473ffffffffffffffffffffffffffffffffffffffff1673ffffffffffffffffffffffffffffffffffffffff161415610f5d576040517f08c379a0000000000000000000000000000000000000000000000000000000008152600401610f5490614e15565b60405180910390fd5b60006040518060a001604052806009548152602001601260085481548110610f8857610f87614d08565b5b906000526020600020018054610f9d906148ac565b80601f0160208091040260200160405190810160405280929190818152602001828054610fc9906148ac565b80156110165780601f10610feb57610100808354040283529160200191611016565b820191906000526020600020905b815481529060010190602001808311610ff957829003601f168201915b505050505081526020016008548152602001600181526020016001815250905080601560006009548152602001908152602001600020600082015181600001556020820151816001019080519060200190611072929190613898565b50604082015181600201556060820151816003015560808201518160040155905050600760009054906101000a900473ffffffffffffffffffffffffffffffffffffffff1673ffffffffffffffffffffffffffffffffffffffff166108fc349081150290604051600060405180830381858888f193505050501580156110fc573d6000803e3d6000fd5b506111093360095461314f565b7f0498f141021087adeadd3da265ebdbfd15a902d680b2036004bdfee5e8d760e560095460405161113a9190613dde565b60405180910390a16009600081548092919061115590614a0b565b919050555050565b6111788383836040518060200160405280600081525061203d565b505050565b6000600b5482106111c3576040517f08c379a00000000000000000000000000000000000000000000000000000000081526004016111ba90614e81565b60405180910390fd5b601382815481106111d7576111d6614d08565b5b90600052602060002001549050919050565b6000601660008381526020019081526020016000206040518060e001604052908160008201548152602001600182015481526020016002820154815260200160038201548152602001600482015481526020016005820154815260200160068201548152505090506000816040015111611298576040517f08c379a000000000000000000000000000000000000000000000000000000000815260040161128f90614eed565b60405180910390fd5b80604001518160600151106112e2576040517f08c379a00000000000000000000000000000000000000000000000000000000081526004016112d990614f7f565b60405180910390fd5b8060c001513414611328576040517f08c379a000000000000000000000000000000000000000000000000000000000815260040161131f90615011565b60405180910390fd5b600b54816020015110611370576040517f08c379a0000000000000000000000000000000000000000000000000000000008152600401611367906150a3565b60405180910390fd5b60006040518060a001604052806009548152602001601284602001518154811061139d5761139c614d08565b5b9060005260206000200180546113b2906148ac565b80601f01602080910402602001604051908101604052809291908181526020018280546113de906148ac565b801561142b5780601f106114005761010080835404028352916020019161142b565b820191906000526020600020905b81548152906001019060200180831161140e57829003601f168201915b5050505050815260200183602001518152602001836080015181526020018360a0015181525090508060156000600954815260200190815260200160002060008201518160000155602082015181600101908051906020019061148f929190613898565b50604082015181600201556060820151816003015560808201518160040155905050600760009054906101000a900473ffffffffffffffffffffffffffffffffffffffff1673ffffffffffffffffffffffffffffffffffffffff166108fc349081150290604051600060405180830381858888f19350505050158015611519573d6000803e3d6000fd5b506115263360095461314f565b7f3d948235511e496bec121c6c3ff8f9241395db859610484b5ad494ca65edb2a26009546040516115579190613dde565b60405180910390a16009600081548092919061157290614a0b565b9190505550505050565b60095481565b600760009054906101000a900473ffffffffffffffffffffffffffffffffffffffff1681565b6000806002600084815260200190815260200160002060009054906101000a900473ffffffffffffffffffffffffffffffffffffffff169050600073ffffffffffffffffffffffffffffffffffffffff168173ffffffffffffffffffffffffffffffffffffffff161415611651576040517f08c379a000000000000000000000000000000000000000000000000000000000815260040161164890615135565b60405180910390fd5b80915050919050565b60166020528060005260406000206000915090508060000154908060010154908060020154908060030154908060040154908060050154908060060154905087565b60085481565b60008073ffffffffffffffffffffffffffffffffffffffff168273ffffffffffffffffffffffffffffffffffffffff161415611713576040517f08c379a000000000000000000000000000000000000000000000000000000000815260040161170a906151c7565b60405180910390fd5b600360008373ffffffffffffffffffffffffffffffffffffffff1673ffffffffffffffffffffffffffffffffffffffff168152602001908152602001600020549050919050565b33600660009054906101000a900473ffffffffffffffffffffffffffffffffffffffff1673ffffffffffffffffffffffffffffffffffffffff168173ffffffffffffffffffffffffffffffffffffffff16146117eb576040517f08c379a00000000000000000000000000000000000000000000000000000000081526004016117e2906149bc565b60405180910390fd5b60006040518060e001604052808981526020018881526020018581526020016000815260200187815260200186815260200184815250905080601660008a8152602001908152602001600020600082015181600001556020820151816001015560408201518160020155606082015181600301556080820151816004015560a0820151816005015560c082015181600601559050507ff0c588de08797d7981d8655368310686f2b9d85c1e85147f955aaa08b6d975ca816040516118af9190615275565b60405180910390a15050505050505050565b33600660009054906101000a900473ffffffffffffffffffffffffffffffffffffffff1673ffffffffffffffffffffffffffffffffffffffff168173ffffffffffffffffffffffffffffffffffffffff1614611952576040517f08c379a0000000000000000000000000000000000000000000000000000000008152600401611949906149bc565b60405180910390fd5b81600760006101000a81548173ffffffffffffffffffffffffffffffffffffffff021916908373ffffffffffffffffffffffffffffffffffffffff1602179055505050565b6000600c82815481106119ad576119ac614d08565b5b9060005260206000200160009054906101000a900473ffffffffffffffffffffffffffffffffffffffff169050919050565b600660009054906101000a900473ffffffffffffffffffffffffffffffffffffffff1681565b606060018054611a14906148ac565b80601f0160208091040260200160405190810160405280929190818152602001828054611a40906148ac565b8015611a8d5780601f10611a6257610100808354040283529160200191611a8d565b820191906000526020600020905b815481529060010190602001808311611a7057829003601f168201915b5050505050905090565b600a5481565b6000816009548110611ae4576040517f08c379a0000000000000000000000000000000000000000000000000000000008152600401611adb906152dc565b60405180910390fd5b600060156000858152602001908152602001600020600201549050600060156000868152602001908152602001600020600401549050600f8281548110611b2e57611b2d614d08565b5b90600052602060002001600182611b4591906152fc565b81548110611b5657611b55614d08565b5b90600052602060002001549350505050919050565b611b7d611b76612d49565b838361316d565b5050565b611b8961391e565b601560008381526020019081526020016000206040518060a001604052908160008201548152602001600182018054611bc1906148ac565b80601f0160208091040260200160405190810160405280929190818152602001828054611bed906148ac565b8015611c3a5780601f10611c0f57610100808354040283529160200191611c3a565b820191906000526020600020905b815481529060010190602001808311611c1d57829003601f168201915b5050505050815260200160028201548152602001600382015481526020016004820154815250509050919050565b6000816009548110611caf576040517f08c379a0000000000000000000000000000000000000000000000000000000008152600401611ca6906152dc565b60405180910390fd5b600060156000858152602001908152602001600020600201549050600060156000868152602001908152602001600020600301549050600e8281548110611cf957611cf8614d08565b5b90600052602060002001600182611d1091906152fc565b81548110611d2157611d20614d08565b5b90600052602060002001549350505050919050565b806009548110611d7b576040517f08c379a0000000000000000000000000000000000000000000000000000000008152600401611d72906152dc565b60405180910390fd5b3373ffffffffffffffffffffffffffffffffffffffff16611d9b836115a8565b73ffffffffffffffffffffffffffffffffffffffff1614611df1576040517f08c379a0000000000000000000000000000000000000000000000000000000008152600401611de89061537c565b60405180910390fd5b60006015600084815260200190815260200160002060020154905060006015600085815260200190815260200160002060040154905060148281548110611e3b57611e3a614d08565b5b90600052602060002001548110611e87576040517f08c379a0000000000000000000000000000000000000000000000000000000008152600401611e7e906153e8565b60405180910390fd5b60005b600d54811015611fd857600060118481548110611eaa57611ea9614d08565b5b90600052602060002001600184611ec191906152fc565b81548110611ed257611ed1614d08565b5b906000526020600020018281548110611eee57611eed614d08565b5b906000526020600020015490506000811115611fc457600c8281548110611f1857611f17614d08565b5b9060005260206000200160009054906101000a900473ffffffffffffffffffffffffffffffffffffffff1673ffffffffffffffffffffffffffffffffffffffff166323b872dd3330846040518463ffffffff1660e01b8152600401611f7f93929190615408565b6020604051808303816000875af1158015611f9e573d6000803e3d6000fd5b505050506040513d601f19601f82011682018060405250810190611fc29190615454565b505b508080611fd090614a0b565b915050611e8a565b50600181611fe69190615481565b60156000868152602001908152602001600020600401819055507ffc1f8f51027f3976c2dee18ccf6da2d36419851c0de846a7607217ba3ec8037a8460405161202f9190613dde565b60405180910390a150505050565b61204e612048612d49565b83612e0a565b61208d576040517f08c379a000000000000000000000000000000000000000000000000000000000815260040161208490614bea565b60405180910390fd5b612099848484846132da565b50505050565b8060095481106120e4576040517f08c379a00000000000000000000000000000000000000000000000000000000081526004016120db906152dc565b60405180910390fd5b3373ffffffffffffffffffffffffffffffffffffffff16612104836115a8565b73ffffffffffffffffffffffffffffffffffffffff161461215a576040517f08c379a00000000000000000000000000000000000000000000000000000000081526004016121519061537c565b60405180910390fd5b600060156000848152602001908152602001600020600201549050600060156000858152602001908152602001600020600301549050601482815481106121a4576121a3614d08565b5b906000526020600020015481106121f0576040517f08c379a00000000000000000000000000000000000000000000000000000000081526004016121e7906153e8565b60405180910390fd5b60005b600d548110156123415760006010848154811061221357612212614d08565b5b9060005260206000200160018461222a91906152fc565b8154811061223b5761223a614d08565b5b90600052602060002001828154811061225757612256614d08565b5b90600052602060002001549050600081111561232d57600c828154811061228157612280614d08565b5b9060005260206000200160009054906101000a900473ffffffffffffffffffffffffffffffffffffffff1673ffffffffffffffffffffffffffffffffffffffff166323b872dd3330846040518463ffffffff1660e01b81526004016122e893929190615408565b6020604051808303816000875af1158015612307573d6000803e3d6000fd5b505050506040513d601f19601f8201168201806040525081019061232b9190615454565b505b50808061233990614a0b565b9150506121f3565b5060018161234f9190615481565b60156000868152602001908152602001600020600301819055507f9e0199358bf050cc5799ad6b10375d3f62bd4a21cf788283a51c70e1f2ce47d6846040516123989190613dde565b60405180910390a150505050565b60606123b182612cdd565b6123f0576040517f08c379a00000000000000000000000000000000000000000000000000000000081526004016123e790615549565b60405180910390fd5b60006123fa613336565b9050600081511161241a5760405180602001604052806000815250612445565b806124248461334d565b6040516020016124359291906155a5565b6040516020818303038152906040525b915050919050565b6060816009548110612494576040517f08c379a000000000000000000000000000000000000000000000000000000000815260040161248b906152dc565b60405180910390fd5b600060156000858152602001908152602001600020600201549050600060156000868152602001908152602001600020600301549050601082815481106124de576124dd614d08565b5b9060005260206000200181815481106124fa576124f9614d08565b5b9060005260206000200180548060200260200160405190810160405280929190818152602001828054801561254e57602002820191906000526020600020905b81548152602001906001019080831161253a575b50505050509350505050919050565b33600660009054906101000a900473ffffffffffffffffffffffffffffffffffffffff1673ffffffffffffffffffffffffffffffffffffffff168173ffffffffffffffffffffffffffffffffffffffff16146125ee576040517f08c379a00000000000000000000000000000000000000000000000000000000081526004016125e5906149bc565b60405180910390fd5b600b54891115612633576040517f08c379a000000000000000000000000000000000000000000000000000000000815260040161262a9061563b565b60405180910390fd5b600b54891461269e57600060138a8154811061265257612651614d08565b5b90600052602060002001541461269d576040517f08c379a0000000000000000000000000000000000000000000000000000000008152600401612694906156cd565b60405180910390fd5b5b6012889080600181540180825580915050600190039060005260206000200160009091909190915090805190602001906126d9929190613898565b5060138790806001815401808255809150506001900390600052602060002001600090919091909150556014869080600181540180825580915050600190039060005260206000200160009091909190915055600e8590806001815401808255809150506001900390600052602060002001600090919091909150908051906020019061276792919061394d565b50600f849080600181540180825580915050600190039060005260206000200160009091909190915090805190602001906127a392919061394d565b506010839080600181540180825580915050600190039060005260206000200160009091909190915090805190602001906127df92919061399a565b5060118290806001815401808255809150506001900390600052602060002001600090919091909150908051906020019061281b92919061399a565b507f06bf811ba2677afceaeb7d097662b43361171329e1fc994c8f303b556242ef1d600b5460405161284d9190613dde565b60405180910390a1600b600081548092919061286890614a0b565b9190505550505050505050505050565b60156020528060005260406000206000915090508060000154908060010180546128a1906148ac565b80601f01602080910402602001604051908101604052809291908181526020018280546128cd906148ac565b801561291a5780601f106128ef5761010080835404028352916020019161291a565b820191906000526020600020905b8154815290600101906020018083116128fd57829003601f168201915b5050505050908060020154908060030154908060040154905085565b606081600954811061297d576040517f08c379a0000000000000000000000000000000000000000000000000000000008152600401612974906152dc565b60405180910390fd5b600060156000858152602001908152602001600020600201549050600060156000868152602001908152602001600020600401549050601182815481106129c7576129c6614d08565b5b9060005260206000200181815481106129e3576129e2614d08565b5b90600052602060002001805480602002602001604051908101604052809291908181526020018280548015612a3757602002820191906000526020600020905b815481526020019060010190808311612a23575b50505050509350505050919050565b6000600560008473ffffffffffffffffffffffffffffffffffffffff1673ffffffffffffffffffffffffffffffffffffffff16815260200190815260200160002060008373ffffffffffffffffffffffffffffffffffffffff1673ffffffffffffffffffffffffffffffffffffffff16815260200190815260200160002060009054906101000a900460ff16905092915050565b33600660009054906101000a900473ffffffffffffffffffffffffffffffffffffffff1673ffffffffffffffffffffffffffffffffffffffff168173ffffffffffffffffffffffffffffffffffffffff1614612b6b576040517f08c379a0000000000000000000000000000000000000000000000000000000008152600401612b62906149bc565b60405180910390fd5b600b548310612baf576040517f08c379a0000000000000000000000000000000000000000000000000000000008152600401612ba690614e81565b60405180910390fd5b8160138481548110612bc457612bc3614d08565b5b9060005260206000200181905550505050565b33600660009054906101000a900473ffffffffffffffffffffffffffffffffffffffff1673ffffffffffffffffffffffffffffffffffffffff168173ffffffffffffffffffffffffffffffffffffffff1614612c68576040517f08c379a0000000000000000000000000000000000000000000000000000000008152600401612c5f906149bc565b60405180910390fd5b81600a819055505050565b60007f01ffc9a7000000000000000000000000000000000000000000000000000000007bffffffffffffffffffffffffffffffffffffffffffffffffffffffff1916827bffffffffffffffffffffffffffffffffffffffffffffffffffffffff1916149050919050565b60008073ffffffffffffffffffffffffffffffffffffffff166002600084815260200190815260200160002060009054906101000a900473ffffffffffffffffffffffffffffffffffffffff1673ffffffffffffffffffffffffffffffffffffffff1614159050919050565b600033905090565b816004600083815260200190815260200160002060006101000a81548173ffffffffffffffffffffffffffffffffffffffff021916908373ffffffffffffffffffffffffffffffffffffffff160217905550808273ffffffffffffffffffffffffffffffffffffffff16612dc4836115a8565b73ffffffffffffffffffffffffffffffffffffffff167f8c5be1e5ebec7d5bd14f71427d1e84f3dd0314c0f7b2291e5b200ac8c7c3b92560405160405180910390a45050565b6000612e1582612cdd565b612e54576040517f08c379a0000000000000000000000000000000000000000000000000000000008152600401612e4b9061575f565b60405180910390fd5b6000612e5f836115a8565b90508073ffffffffffffffffffffffffffffffffffffffff168473ffffffffffffffffffffffffffffffffffffffff161480612ece57508373ffffffffffffffffffffffffffffffffffffffff16612eb684610a98565b73ffffffffffffffffffffffffffffffffffffffff16145b80612edf5750612ede8185612a46565b5b91505092915050565b8273ffffffffffffffffffffffffffffffffffffffff16612f08826115a8565b73ffffffffffffffffffffffffffffffffffffffff1614612f5e576040517f08c379a0000000000000000000000000000000000000000000000000000000008152600401612f55906157f1565b60405180910390fd5b600073ffffffffffffffffffffffffffffffffffffffff168273ffffffffffffffffffffffffffffffffffffffff161415612fce576040517f08c379a0000000000000000000000000000000000000000000000000000000008152600401612fc590615883565b60405180910390fd5b612fd98383836134ae565b612fe4600082612d51565b6001600360008573ffffffffffffffffffffffffffffffffffffffff1673ffffffffffffffffffffffffffffffffffffffff168152602001908152602001600020600082825461303491906152fc565b925050819055506001600360008473ffffffffffffffffffffffffffffffffffffffff1673ffffffffffffffffffffffffffffffffffffffff168152602001908152602001600020600082825461308b9190615481565b92505081905550816002600083815260200190815260200160002060006101000a81548173ffffffffffffffffffffffffffffffffffffffff021916908373ffffffffffffffffffffffffffffffffffffffff160217905550808273ffffffffffffffffffffffffffffffffffffffff168473ffffffffffffffffffffffffffffffffffffffff167fddf252ad1be2c89b69c2b068fc378daa952ba7f163c4a11628f55a4df523b3ef60405160405180910390a461314a8383836134b3565b505050565b6131698282604051806020016040528060008152506134b8565b5050565b8173ffffffffffffffffffffffffffffffffffffffff168373ffffffffffffffffffffffffffffffffffffffff1614156131dc576040517f08c379a00000000000000000000000000000000000000000000000000000000081526004016131d3906158ef565b60405180910390fd5b80600560008573ffffffffffffffffffffffffffffffffffffffff1673ffffffffffffffffffffffffffffffffffffffff16815260200190815260200160002060008473ffffffffffffffffffffffffffffffffffffffff1673ffffffffffffffffffffffffffffffffffffffff16815260200190815260200160002060006101000a81548160ff0219169083151502179055508173ffffffffffffffffffffffffffffffffffffffff168373ffffffffffffffffffffffffffffffffffffffff167f17307eab39ab6107e8899845ad3d59bd9653f200f220920489ca2b5937696c31836040516132cd9190613b10565b60405180910390a3505050565b6132e5848484612ee8565b6132f184848484613513565b613330576040517f08c379a000000000000000000000000000000000000000000000000000000000815260040161332790615981565b60405180910390fd5b50505050565b606060405180602001604052806000815250905090565b60606000821415613395576040518060400160405280600181526020017f300000000000000000000000000000000000000000000000000000000000000081525090506134a9565b600082905060005b600082146133c75780806133b090614a0b565b915050600a826133c091906159d0565b915061339d565b60008167ffffffffffffffff8111156133e3576133e2614198565b5b6040519080825280601f01601f1916602001820160405280156134155781602001600182028036833780820191505090505b5090505b600085146134a25760018261342e91906152fc565b9150600a8561343d9190615a01565b60306134499190615481565b60f81b81838151811061345f5761345e614d08565b5b60200101907effffffffffffffffffffffffffffffffffffffffffffffffffffffffffffff1916908160001a905350600a8561349b91906159d0565b9450613419565b8093505050505b919050565b505050565b505050565b6134c2838361369b565b6134cf6000848484613513565b61350e576040517f08c379a000000000000000000000000000000000000000000000000000000000815260040161350590615981565b60405180910390fd5b505050565b60006135348473ffffffffffffffffffffffffffffffffffffffff16613875565b1561368e578373ffffffffffffffffffffffffffffffffffffffff1663150b7a0261355d612d49565b8786866040518563ffffffff1660e01b815260040161357f9493929190615a87565b6020604051808303816000875af19250505080156135bb57506040513d601f19601f820116820180604052508101906135b89190615ae8565b60015b61363e573d80600081146135eb576040519150601f19603f3d011682016040523d82523d6000602084013e6135f0565b606091505b50600081511415613636576040517f08c379a000000000000000000000000000000000000000000000000000000000815260040161362d90615981565b60405180910390fd5b805181602001fd5b63150b7a0260e01b7bffffffffffffffffffffffffffffffffffffffffffffffffffffffff1916817bffffffffffffffffffffffffffffffffffffffffffffffffffffffff191614915050613693565b600190505b949350505050565b600073ffffffffffffffffffffffffffffffffffffffff168273ffffffffffffffffffffffffffffffffffffffff16141561370b576040517f08c379a000000000000000000000000000000000000000000000000000000000815260040161370290615b61565b60405180910390fd5b61371481612cdd565b15613754576040517f08c379a000000000000000000000000000000000000000000000000000000000815260040161374b90615bcd565b60405180910390fd5b613760600083836134ae565b6001600360008473ffffffffffffffffffffffffffffffffffffffff1673ffffffffffffffffffffffffffffffffffffffff16815260200190815260200160002060008282546137b09190615481565b92505081905550816002600083815260200190815260200160002060006101000a81548173ffffffffffffffffffffffffffffffffffffffff021916908373ffffffffffffffffffffffffffffffffffffffff160217905550808273ffffffffffffffffffffffffffffffffffffffff16600073ffffffffffffffffffffffffffffffffffffffff167fddf252ad1be2c89b69c2b068fc378daa952ba7f163c4a11628f55a4df523b3ef60405160405180910390a4613871600083836134b3565b5050565b6000808273ffffffffffffffffffffffffffffffffffffffff163b119050919050565b8280546138a4906148ac565b90600052602060002090601f0160209004810192826138c6576000855561390d565b82601f106138df57805160ff191683800117855561390d565b8280016001018555821561390d579182015b8281111561390c5782518255916020019190600101906138f1565b5b50905061391a91906139fa565b5090565b6040518060a0016040528060008152602001606081526020016000815260200160008152602001600081525090565b828054828255906000526020600020908101928215613989579160200282015b8281111561398857825182559160200191906001019061396d565b5b50905061399691906139fa565b5090565b8280548282559060005260206000209081019282156139e9579160200282015b828111156139e85782518290805190602001906139d892919061394d565b50916020019190600101906139ba565b5b5090506139f69190613a17565b5090565b5b80821115613a135760008160009055506001016139fb565b5090565b5b80821115613a375760008181613a2e9190613a3b565b50600101613a18565b5090565b5080546000825590600052602060002090810190613a5991906139fa565b50565b6000604051905090565b600080fd5b600080fd5b60007fffffffff0000000000000000000000000000000000000000000000000000000082169050919050565b613aa581613a70565b8114613ab057600080fd5b50565b600081359050613ac281613a9c565b92915050565b600060208284031215613ade57613add613a66565b5b6000613aec84828501613ab3565b91505092915050565b60008115159050919050565b613b0a81613af5565b82525050565b6000602082019050613b256000830184613b01565b92915050565b600081519050919050565b600082825260208201905092915050565b60005b83811015613b65578082015181840152602081019050613b4a565b83811115613b74576000848401525b50505050565b6000601f19601f8301169050919050565b6000613b9682613b2b565b613ba08185613b36565b9350613bb0818560208601613b47565b613bb981613b7a565b840191505092915050565b60006020820190508181036000830152613bde8184613b8b565b905092915050565b6000819050919050565b613bf981613be6565b8114613c0457600080fd5b50565b600081359050613c1681613bf0565b92915050565b600060208284031215613c3257613c31613a66565b5b6000613c4084828501613c07565b91505092915050565b600073ffffffffffffffffffffffffffffffffffffffff82169050919050565b6000613c7482613c49565b9050919050565b613c8481613c69565b82525050565b6000602082019050613c9f6000830184613c7b565b92915050565b6000613cb082613c69565b9050919050565b613cc081613ca5565b8114613ccb57600080fd5b50565b600081359050613cdd81613cb7565b92915050565b600060208284031215613cf957613cf8613a66565b5b6000613d0784828501613cce565b91505092915050565b613d1981613c69565b8114613d2457600080fd5b50565b600081359050613d3681613d10565b92915050565b60008060408385031215613d5357613d52613a66565b5b6000613d6185828601613d27565b9250506020613d7285828601613c07565b9150509250929050565b600080600060608486031215613d9557613d94613a66565b5b6000613da386828701613d27565b9350506020613db486828701613d27565b9250506040613dc586828701613c07565b9150509250925092565b613dd881613be6565b82525050565b6000602082019050613df36000830184613dcf565b92915050565b6000613e0482613c49565b9050919050565b613e1481613df9565b82525050565b6000602082019050613e2f6000830184613e0b565b92915050565b600060e082019050613e4a600083018a613dcf565b613e576020830189613dcf565b613e646040830188613dcf565b613e716060830187613dcf565b613e7e6080830186613dcf565b613e8b60a0830185613dcf565b613e9860c0830184613dcf565b98975050505050505050565b600060208284031215613eba57613eb9613a66565b5b6000613ec884828501613d27565b91505092915050565b60008060008060008060c08789031215613eee57613eed613a66565b5b6000613efc89828a01613c07565b9650506020613f0d89828a01613c07565b9550506040613f1e89828a01613c07565b9450506060613f2f89828a01613c07565b9350506080613f4089828a01613c07565b92505060a0613f5189828a01613c07565b9150509295509295509295565b613f6781613df9565b8114613f7257600080fd5b50565b600081359050613f8481613f5e565b92915050565b600060208284031215613fa057613f9f613a66565b5b6000613fae84828501613f75565b91505092915050565b6000819050919050565b6000613fdc613fd7613fd284613c49565b613fb7565b613c49565b9050919050565b6000613fee82613fc1565b9050919050565b600061400082613fe3565b9050919050565b61401081613ff5565b82525050565b600060208201905061402b6000830184614007565b92915050565b61403a81613af5565b811461404557600080fd5b50565b60008135905061405781614031565b92915050565b6000806040838503121561407457614073613a66565b5b600061408285828601613d27565b925050602061409385828601614048565b9150509250929050565b6140a681613be6565b82525050565b600082825260208201905092915050565b60006140c882613b2b565b6140d281856140ac565b93506140e2818560208601613b47565b6140eb81613b7a565b840191505092915050565b600060a08301600083015161410e600086018261409d565b506020830151848203602086015261412682826140bd565b915050604083015161413b604086018261409d565b50606083015161414e606086018261409d565b506080830151614161608086018261409d565b508091505092915050565b6000602082019050818103600083015261418681846140f6565b905092915050565b600080fd5b600080fd5b7f4e487b7100000000000000000000000000000000000000000000000000000000600052604160045260246000fd5b6141d082613b7a565b810181811067ffffffffffffffff821117156141ef576141ee614198565b5b80604052505050565b6000614202613a5c565b905061420e82826141c7565b919050565b600067ffffffffffffffff82111561422e5761422d614198565b5b61423782613b7a565b9050602081019050919050565b82818337600083830152505050565b600061426661426184614213565b6141f8565b90508281526020810184848401111561428257614281614193565b5b61428d848285614244565b509392505050565b600082601f8301126142aa576142a961418e565b5b81356142ba848260208601614253565b91505092915050565b600080600080608085870312156142dd576142dc613a66565b5b60006142eb87828801613d27565b94505060206142fc87828801613d27565b935050604061430d87828801613c07565b925050606085013567ffffffffffffffff81111561432e5761432d613a6b565b5b61433a87828801614295565b91505092959194509250565b600081519050919050565b600082825260208201905092915050565b6000819050602082019050919050565b600061437e838361409d565b60208301905092915050565b6000602082019050919050565b60006143a282614346565b6143ac8185614351565b93506143b783614362565b8060005b838110156143e85781516143cf8882614372565b97506143da8361438a565b9250506001810190506143bb565b5085935050505092915050565b6000602082019050818103600083015261440f8184614397565b905092915050565b600067ffffffffffffffff82111561443257614431614198565b5b61443b82613b7a565b9050602081019050919050565b600061445b61445684614417565b6141f8565b90508281526020810184848401111561447757614476614193565b5b614482848285614244565b509392505050565b600082601f83011261449f5761449e61418e565b5b81356144af848260208601614448565b91505092915050565b600067ffffffffffffffff8211156144d3576144d2614198565b5b602082029050602081019050919050565b600080fd5b60006144fc6144f7846144b8565b6141f8565b9050808382526020820190506020840283018581111561451f5761451e6144e4565b5b835b8181101561454857806145348882613c07565b845260208401935050602081019050614521565b5050509392505050565b600082601f8301126145675761456661418e565b5b81356145778482602086016144e9565b91505092915050565b600067ffffffffffffffff82111561459b5761459a614198565b5b602082029050602081019050919050565b60006145bf6145ba84614580565b6141f8565b905080838252602082019050602084028301858111156145e2576145e16144e4565b5b835b8181101561462957803567ffffffffffffffff8111156146075761460661418e565b5b8086016146148982614552565b855260208501945050506020810190506145e4565b5050509392505050565b600082601f8301126146485761464761418e565b5b81356146588482602086016145ac565b91505092915050565b600080600080600080600080610100898b03121561468257614681613a66565b5b60006146908b828c01613c07565b985050602089013567ffffffffffffffff8111156146b1576146b0613a6b565b5b6146bd8b828c0161448a565b97505060406146ce8b828c01613c07565b96505060606146df8b828c01613c07565b955050608089013567ffffffffffffffff811115614700576146ff613a6b565b5b61470c8b828c01614552565b94505060a089013567ffffffffffffffff81111561472d5761472c613a6b565b5b6147398b828c01614552565b93505060c089013567ffffffffffffffff81111561475a57614759613a6b565b5b6147668b828c01614633565b92505060e089013567ffffffffffffffff81111561478757614786613a6b565b5b6147938b828c01614633565b9150509295985092959890939650565b600060a0820190506147b86000830188613dcf565b81810360208301526147ca8187613b8b565b90506147d96040830186613dcf565b6147e66060830185613dcf565b6147f36080830184613dcf565b9695505050505050565b6000806040838503121561481457614813613a66565b5b600061482285828601613d27565b925050602061483385828601613d27565b9150509250929050565b6000806040838503121561485457614853613a66565b5b600061486285828601613c07565b925050602061487385828601613c07565b9150509250929050565b7f4e487b7100000000000000000000000000000000000000000000000000000000600052602260045260246000fd5b600060028204905060018216806148c457607f821691505b602082108114156148d8576148d761487d565b5b50919050565b7f4552433732313a20617070726f76656420717565727920666f72206e6f6e657860008201527f697374656e7420746f6b656e0000000000000000000000000000000000000000602082015250565b600061493a602c83613b36565b9150614945826148de565b604082019050919050565b600060208201905081810360008301526149698161492d565b9050919050565b7f6e6f74206f776e65720000000000000000000000000000000000000000000000600082015250565b60006149a6600983613b36565b91506149b182614970565b602082019050919050565b600060208201905081810360008301526149d581614999565b9050919050565b7f4e487b7100000000000000000000000000000000000000000000000000000000600052601160045260246000fd5b6000614a1682613be6565b91507fffffffffffffffffffffffffffffffffffffffffffffffffffffffffffffffff821415614a4957614a486149dc565b5b600182019050919050565b7f4552433732313a20617070726f76616c20746f2063757272656e74206f776e6560008201527f7200000000000000000000000000000000000000000000000000000000000000602082015250565b6000614ab0602183613b36565b9150614abb82614a54565b604082019050919050565b60006020820190508181036000830152614adf81614aa3565b9050919050565b7f4552433732313a20617070726f76652063616c6c6572206973206e6f74206f7760008201527f6e6572206e6f7220617070726f76656420666f7220616c6c0000000000000000602082015250565b6000614b42603883613b36565b9150614b4d82614ae6565b604082019050919050565b60006020820190508181036000830152614b7181614b35565b9050919050565b7f4552433732313a207472616e736665722063616c6c6572206973206e6f74206f60008201527f776e6572206e6f7220617070726f766564000000000000000000000000000000602082015250565b6000614bd4603183613b36565b9150614bdf82614b78565b604082019050919050565b60006020820190508181036000830152614c0381614bc7565b9050919050565b7f6d696e74206e6f7420617661696c61626c650000000000000000000000000000600082015250565b6000614c40601283613b36565b9150614c4b82614c0a565b602082019050919050565b60006020820190508181036000830152614c6f81614c33565b9050919050565b7f6472696c6c20796f752061726520747279696e6720746f206d696e742069732060008201527f6e6f742063726561746564000000000000000000000000000000000000000000602082015250565b6000614cd2602b83613b36565b9150614cdd82614c76565b604082019050919050565b60006020820190508181036000830152614d0181614cc5565b9050919050565b7f4e487b7100000000000000000000000000000000000000000000000000000000600052603260045260246000fd5b7f70617920616d6f756e7420646f65736e2774206d61746368206d696e7420707260008201527f6963650000000000000000000000000000000000000000000000000000000000602082015250565b6000614d93602383613b36565b9150614d9e82614d37565b604082019050919050565b60006020820190508181036000830152614dc281614d86565b9050919050565b7f74726561737572792061646472657373206973206e6f74207365740000000000600082015250565b6000614dff601b83613b36565b9150614e0a82614dc9565b602082019050919050565b60006020820190508181036000830152614e2e81614df2565b9050919050565b7f6472696c6c207479706520646f65736e27742065786973740000000000000000600082015250565b6000614e6b601883613b36565b9150614e7682614e35565b602082019050919050565b60006020820190508181036000830152614e9a81614e5e565b9050919050565b7f70726f6d6f74696f6e20646f6573206e6f742065786973740000000000000000600082015250565b6000614ed7601883613b36565b9150614ee282614ea1565b602082019050919050565b60006020820190508181036000830152614f0681614eca565b9050919050565b7f6e6f20756e69747320617661696c61626c6520666f7220746869732070726f6d60008201527f6f74696f6e000000000000000000000000000000000000000000000000000000602082015250565b6000614f69602583613b36565b9150614f7482614f0d565b604082019050919050565b60006020820190508181036000830152614f9881614f5c565b9050919050565b7f7061796d656e7420646f65736e2774206d617463682070726f6d6f206d696e7460008201527f2070726963650000000000000000000000000000000000000000000000000000602082015250565b6000614ffb602683613b36565b915061500682614f9f565b604082019050919050565b6000602082019050818103600083015261502a81614fee565b9050919050565b7f6472696c6c2074797065206861736e2774206265656e20636f6e66696775726560008201527f6400000000000000000000000000000000000000000000000000000000000000602082015250565b600061508d602183613b36565b915061509882615031565b604082019050919050565b600060208201905081810360008301526150bc81615080565b9050919050565b7f4552433732313a206f776e657220717565727920666f72206e6f6e657869737460008201527f656e7420746f6b656e0000000000000000000000000000000000000000000000602082015250565b600061511f602983613b36565b915061512a826150c3565b604082019050919050565b6000602082019050818103600083015261514e81615112565b9050919050565b7f4552433732313a2062616c616e636520717565727920666f7220746865207a6560008201527f726f206164647265737300000000000000000000000000000000000000000000602082015250565b60006151b1602a83613b36565b91506151bc82615155565b604082019050919050565b600060208201905081810360008301526151e0816151a4565b9050919050565b60e0820160008201516151fd600085018261409d565b506020820151615210602085018261409d565b506040820151615223604085018261409d565b506060820151615236606085018261409d565b506080820151615249608085018261409d565b5060a082015161525c60a085018261409d565b5060c082015161526f60c085018261409d565b50505050565b600060e08201905061528a60008301846151e7565b92915050565b7f6472696c6c20646f6573206e6f74206578697374000000000000000000000000600082015250565b60006152c6601483613b36565b91506152d182615290565b602082019050919050565b600060208201905081810360008301526152f5816152b9565b9050919050565b600061530782613be6565b915061531283613be6565b925082821015615325576153246149dc565b5b828203905092915050565b7f6472696c6c206e6f74206f776e65640000000000000000000000000000000000600082015250565b6000615366600f83613b36565b915061537182615330565b602082019050919050565b6000602082019050818103600083015261539581615359565b9050919050565b7f6d696e696e67206c6576656c206174206d617800000000000000000000000000600082015250565b60006153d2601383613b36565b91506153dd8261539c565b602082019050919050565b60006020820190508181036000830152615401816153c5565b9050919050565b600060608201905061541d6000830186613c7b565b61542a6020830185613c7b565b6154376040830184613dcf565b949350505050565b60008151905061544e81614031565b92915050565b60006020828403121561546a57615469613a66565b5b60006154788482850161543f565b91505092915050565b600061548c82613be6565b915061549783613be6565b9250827fffffffffffffffffffffffffffffffffffffffffffffffffffffffffffffffff038211156154cc576154cb6149dc565b5b828201905092915050565b7f4552433732314d657461646174613a2055524920717565727920666f72206e6f60008201527f6e6578697374656e7420746f6b656e0000000000000000000000000000000000602082015250565b6000615533602f83613b36565b915061553e826154d7565b604082019050919050565b6000602082019050818103600083015261556281615526565b9050919050565b600081905092915050565b600061557f82613b2b565b6155898185615569565b9350615599818560208601613b47565b80840191505092915050565b60006155b18285615574565b91506155bd8284615574565b91508190509392505050565b7f6472696c6c54797065206d757374206265203c3d206e6578744e65774472696c60008201527f6c54797065000000000000000000000000000000000000000000000000000000602082015250565b6000615625602583613b36565b9150615630826155c9565b604082019050919050565b6000602082019050818103600083015261565481615618565b9050919050565b7f6472696c6c5479706520616c726561647920637265617465642c2064656c657460008201527f65206265666f7265207265706c6163696e670000000000000000000000000000602082015250565b60006156b7603283613b36565b91506156c28261565b565b604082019050919050565b600060208201905081810360008301526156e6816156aa565b9050919050565b7f4552433732313a206f70657261746f7220717565727920666f72206e6f6e657860008201527f697374656e7420746f6b656e0000000000000000000000000000000000000000602082015250565b6000615749602c83613b36565b9150615754826156ed565b604082019050919050565b600060208201905081810360008301526157788161573c565b9050919050565b7f4552433732313a207472616e736665722066726f6d20696e636f72726563742060008201527f6f776e6572000000000000000000000000000000000000000000000000000000602082015250565b60006157db602583613b36565b91506157e68261577f565b604082019050919050565b6000602082019050818103600083015261580a816157ce565b9050919050565b7f4552433732313a207472616e7366657220746f20746865207a65726f2061646460008201527f7265737300000000000000000000000000000000000000000000000000000000602082015250565b600061586d602483613b36565b915061587882615811565b604082019050919050565b6000602082019050818103600083015261589c81615860565b9050919050565b7f4552433732313a20617070726f766520746f2063616c6c657200000000000000600082015250565b60006158d9601983613b36565b91506158e4826158a3565b602082019050919050565b60006020820190508181036000830152615908816158cc565b9050919050565b7f4552433732313a207472616e7366657220746f206e6f6e20455243373231526560008201527f63656976657220696d706c656d656e7465720000000000000000000000000000602082015250565b600061596b603283613b36565b91506159768261590f565b604082019050919050565b6000602082019050818103600083015261599a8161595e565b9050919050565b7f4e487b7100000000000000000000000000000000000000000000000000000000600052601260045260246000fd5b60006159db82613be6565b91506159e683613be6565b9250826159f6576159f56159a1565b5b828204905092915050565b6000615a0c82613be6565b9150615a1783613be6565b925082615a2757615a266159a1565b5b828206905092915050565b600081519050919050565b600082825260208201905092915050565b6000615a5982615a32565b615a638185615a3d565b9350615a73818560208601613b47565b615a7c81613b7a565b840191505092915050565b6000608082019050615a9c6000830187613c7b565b615aa96020830186613c7b565b615ab66040830185613dcf565b8181036060830152615ac88184615a4e565b905095945050505050565b600081519050615ae281613a9c565b92915050565b600060208284031215615afe57615afd613a66565b5b6000615b0c84828501615ad3565b91505092915050565b7f4552433732313a206d696e7420746f20746865207a65726f2061646472657373600082015250565b6000615b4b602083613b36565b9150615b5682615b15565b602082019050919050565b60006020820190508181036000830152615b7a81615b3e565b9050919050565b7f4552433732313a20746f6b656e20616c7265616479206d696e74656400000000600082015250565b6000615bb7601c83613b36565b9150615bc282615b81565b602082019050919050565b60006020820190508181036000830152615be681615baa565b905091905056fea2646970667358221220b47fcc87d51ab721368a576e24ff21ef31aabbeed61690551e472ae8832460ae64736f6c634300080b0033",
  "immutableReferences": {},
  "source": "// SPDX-License-Identifier: MIT\n\npragma solidity ^0.8.0;\n\nimport \"@openzeppelin/contracts/token/ERC721/ERC721.sol\";\nimport \"@openzeppelin/contracts/token/ERC20/IERC20.sol\";\n\ncontract MineEmpireDrill is ERC721 {\n    address public owner;\n    address payable public treasury;\n    uint public currentMintDrill = 0;\n    uint public drillId = 1;\n    uint public maxDrills = 100;\n\n    uint private nextNewDrillType = 0;\n    IERC20[] private resources;\n    uint private numberOfTrackedResources;\n    uint[][] private miningMultiplier;\n    uint[][] private capacity;\n    uint[][][] private miningLevelUpgradeRequirement;\n    uint[][][] private capacityLevelUpgradeRequirement;\n    string[] private drillName;\n    uint[] private mintPrice;\n    uint[] private maxLevel;\n\n\n    struct Drill {\n        uint drillId;\n        string name;\n        uint drillType;\n        uint miningLevel;\n        uint capacityLevel;\n    }\n\n    mapping(uint => Drill) public drillMap;\n\n    struct Promotion {\n        uint promoId;\n        uint drillType;\n        uint maxUnits;\n        uint unitsSold;\n        uint miningLevel;\n        uint capacityLevel;\n        uint mintPrice;\n    }\n\n    mapping(uint => Promotion) public promotions;\n\n    constructor() ERC721(\"Mine Empire Drill\", \"DRILL\") {\n        owner = msg.sender;\n    }\n\n    // events\n\n    event LogNewDrillTypeAdded(uint _drillId);\n    event LogNewResourceTracked(address _address);\n    event LogMiningLevelUpgraded(uint _drillId);\n    event LogCapacityLevelUpgraded(uint _drillId);\n    event LogMint(uint _drillId);\n    event LogPromotionAdded(Promotion _promo);\n    event LogPromoMint(uint _drillId);\n\n\n    // modifiers\n\n    modifier onlyOwner(address _address) {\n        require(_address == owner, \"not owner\");\n        _;\n    }\n\n    modifier mintAvailable() {\n        require (drillId <= maxDrills, \"mint not available\");\n        _;\n    }\n\n    modifier drillExists(uint _drillId) {\n        require(_drillId < drillId, \"drill does not exist\");\n        _;\n    }\n\n    modifier correctMintPrice(uint256 _amount) {\n        require(_amount == mintPrice[currentMintDrill], \"mint price is not correct\");\n        _;\n    }\n\n    function getResourceAtIndex(uint idx) public view returns (IERC20) {\n        return resources[idx];\n    }\n\n    // owner only\n    function updateTreasuryAddress(address payable _address) public onlyOwner(msg.sender) {\n        treasury = _address;\n    }\n\n    function addNewDrillType(\n        uint _drillType,\n        string memory name,\n        uint _mintPrice,\n        uint _maxLevel,\n        uint[] memory miningPower,\n        uint[] memory capacityAmount,\n        uint[][] memory _miningLevelUpgradeRequirement,\n        uint[][] memory _capacityLevelUpgradeRequirement\n    ) public onlyOwner(msg.sender) {\n        require(_drillType <= nextNewDrillType, \"drillType must be <= nextNewDrillType\");\n        if (_drillType != nextNewDrillType) {\n            require(mintPrice[_drillType] == 0, \"drillType already created, delete before replacing\");\n        }\n        drillName.push(name);\n        mintPrice.push(_mintPrice);\n        maxLevel.push(_maxLevel);\n        miningMultiplier.push(miningPower);\n        capacity.push(capacityAmount);\n        miningLevelUpgradeRequirement.push(_miningLevelUpgradeRequirement);\n        capacityLevelUpgradeRequirement.push(_capacityLevelUpgradeRequirement);\n        emit LogNewDrillTypeAdded(nextNewDrillType);\n        nextNewDrillType++;\n    }\n\n    function addNewTrackedResource(\n        IERC20 resource\n    ) public onlyOwner(msg.sender) {\n        resources.push(resource);\n        emit LogNewResourceTracked(address(resource));\n        numberOfTrackedResources++;\n    }\n\n    function updateMintPrice(uint drillType, uint _price) public onlyOwner(msg.sender) {\n        require(drillType < nextNewDrillType, \"drill type doesn't exist\");\n        mintPrice[drillType] = _price;\n    }\n\n    function updateMaxDrillCount(uint _maxDrills) public onlyOwner(msg.sender) {\n        maxDrills = _maxDrills;\n    }\n\n    function createPromotion(\n        uint promoId, \n        uint _drillType, \n        uint _miningLeve, \n        uint _capacityLevel, \n        uint _maxUnits, \n        uint _price\n        ) public onlyOwner(msg.sender) {\n        Promotion memory promo = Promotion(\n            promoId,\n            _drillType,\n            _maxUnits,\n            0,\n            _miningLeve,\n            _capacityLevel,\n            _price\n        );\n        promotions[promoId] = promo;\n        emit LogPromotionAdded(promo);\n    }\n\n    // getters\n    function getDrill(uint256 _drillId) public view returns (Drill memory) {\n        return drillMap[_drillId];\n    }\n\n    function getMintPrice(uint drillType) public view returns(uint) {\n        require(drillType < nextNewDrillType, \"drill type doesn't exist\");\n        return mintPrice[drillType];\n    }\n\n    function getMiningLevelUpgradeRequirements(uint _drillId) public view drillExists(_drillId) returns(uint[] memory) {\n        uint drillType = drillMap[_drillId].drillType;\n        uint curLevel = drillMap[_drillId].miningLevel;\n        return miningLevelUpgradeRequirement[drillType][curLevel];\n    }\n\n    function getCapacityLevelUpgradeRequirements(uint _drillId) public view drillExists(_drillId) returns(uint[] memory) {\n        uint drillType = drillMap[_drillId].drillType;\n        uint curLevel = drillMap[_drillId].capacityLevel;\n        return capacityLevelUpgradeRequirement[drillType][curLevel];\n    }\n\n    function getDrillMiningPower(uint _drillId) public view drillExists(_drillId) returns (uint) {\n        uint drillType = drillMap[_drillId].drillType;\n        uint curLevel = drillMap[_drillId].miningLevel;\n        return miningMultiplier[drillType][curLevel-1];\n    }\n\n    function getDrillCapacity(uint _drillId) public view drillExists(_drillId) returns (uint) {\n        uint drillType = drillMap[_drillId].drillType;\n        uint curLevel = drillMap[_drillId].capacityLevel;\n        return capacity[drillType][curLevel-1];\n    }\n\n    // user interactions\n    function mintDrill() public payable mintAvailable() {\n        require(currentMintDrill < nextNewDrillType, \"drill you are trying to mint is not created\");\n        require(msg.value == mintPrice[currentMintDrill], \"pay amount doesn't match mint price\");\n        require(treasury != address(0), \"treasury address is not set\");\n        Drill memory drill = Drill(\n            drillId,\n            drillName[currentMintDrill],\n            currentMintDrill,\n            1,\n            1\n        );\n        drillMap[drillId] = drill;\n        treasury.transfer(msg.value);\n        _safeMint(msg.sender, drillId);\n        emit LogMint(drillId);\n        drillId++;\n    }\n\n    function mintPromoDrill(uint _promoId) public payable {\n        Promotion memory promo = promotions[_promoId];\n        require(promo.maxUnits > 0, \"promotion does not exist\");\n        require(promo.unitsSold < promo.maxUnits, \"no units available for this promotion\");\n        require(msg.value == promo.mintPrice, \"payment doesn't match promo mint price\");\n        require(promo.drillType < nextNewDrillType, \"drill type hasn't been configured\");\n\n        Drill memory drill = Drill(\n            drillId,\n            drillName[promo.drillType],\n            promo.drillType,\n            promo.miningLevel,\n            promo.capacityLevel\n        );\n        drillMap[drillId] = drill;\n        treasury.transfer(msg.value);\n        _safeMint(msg.sender, drillId);\n        emit LogPromoMint(drillId);\n        drillId++;\n    }\n\n    function upgradeMiningLevel(uint _drillId) public drillExists(_drillId) {\n        require(super.ownerOf(_drillId) == msg.sender, \"drill not owned\");\n        uint drillType = drillMap[_drillId].drillType;\n        uint curLevel = drillMap[_drillId].miningLevel;\n        require(curLevel < maxLevel[drillType], \"mining level at max\");\n\n        // get relevant resources\n        for (uint i = 0; i < numberOfTrackedResources; i++) {\n            uint resourceAmount = miningLevelUpgradeRequirement[drillType][curLevel-1][i];\n            if (resourceAmount > 0) {\n                resources[i].transferFrom(msg.sender, address(this), resourceAmount);\n            }\n        }\n        drillMap[_drillId].miningLevel = curLevel + 1;\n        emit LogMiningLevelUpgraded(_drillId);\n    }\n\n    function upgradeCapacityLevel(uint _drillId) public drillExists(_drillId) {\n        require(super.ownerOf(_drillId) == msg.sender, \"drill not owned\");\n        uint drillType = drillMap[_drillId].drillType;\n        uint curLevel = drillMap[_drillId].capacityLevel;\n        require(curLevel < maxLevel[drillType], \"mining level at max\");\n\n        // get relevant resources\n        for (uint i = 0; i < numberOfTrackedResources; i++) {\n            uint resourceAmount = capacityLevelUpgradeRequirement[drillType][curLevel-1][i];\n            if (resourceAmount > 0) {\n                resources[i].transferFrom(msg.sender, address(this), resourceAmount);\n            }\n        }\n        drillMap[_drillId].capacityLevel = curLevel + 1;\n        emit LogCapacityLevelUpgraded(_drillId);\n    }\n}",
  "sourcePath": "/Users/aslan/Desktop/MineEmpireBackend/contracts/MineEmpireDrill.sol",
  "compiler": {
    "name": "solc",
    "version": "0.8.11+commit.d7f03943.Emscripten.clang"
  },
  "schemaVersion": "3.4.3",
  "updatedAt": "2022-05-20T18:12:19.020Z",
  "devdoc": {
    "kind": "dev",
    "methods": {
      "approve(address,uint256)": {
        "details": "See {IERC721-approve}."
      },
      "balanceOf(address)": {
        "details": "See {IERC721-balanceOf}."
      },
      "getApproved(uint256)": {
        "details": "See {IERC721-getApproved}."
      },
      "isApprovedForAll(address,address)": {
        "details": "See {IERC721-isApprovedForAll}."
      },
      "name()": {
        "details": "See {IERC721Metadata-name}."
      },
      "ownerOf(uint256)": {
        "details": "See {IERC721-ownerOf}."
      },
      "safeTransferFrom(address,address,uint256)": {
        "details": "See {IERC721-safeTransferFrom}."
      },
      "safeTransferFrom(address,address,uint256,bytes)": {
        "details": "See {IERC721-safeTransferFrom}."
      },
      "setApprovalForAll(address,bool)": {
        "details": "See {IERC721-setApprovalForAll}."
      },
      "supportsInterface(bytes4)": {
        "details": "See {IERC165-supportsInterface}."
      },
      "symbol()": {
        "details": "See {IERC721Metadata-symbol}."
      },
      "tokenURI(uint256)": {
        "details": "See {IERC721Metadata-tokenURI}."
      },
      "transferFrom(address,address,uint256)": {
        "details": "See {IERC721-transferFrom}."
      }
    },
    "version": 1
  },
  "userdoc": {
    "kind": "user",
    "methods": {},
    "version": 1
  }
}