{
  "contractName": "MineEmpireDrillv2",
  "abi": [
    {
      "inputs": [
        {
          "internalType": "address",
          "name": "_cosmicCash",
          "type": "address"
        }
      ],
      "stateMutability": "nonpayable",
      "type": "constructor"
    },
    {
      "anonymous": false,
      "inputs": [
        {
          "indexed": true,
          "internalType": "address",
          "name": "owner",
          "type": "address"
        },
        {
          "indexed": true,
          "internalType": "address",
          "name": "approved",
          "type": "address"
        },
        {
          "indexed": true,
          "internalType": "uint256",
          "name": "tokenId",
          "type": "uint256"
        }
      ],
      "name": "Approval",
      "type": "event"
    },
    {
      "anonymous": false,
      "inputs": [
        {
          "indexed": true,
          "internalType": "address",
          "name": "owner",
          "type": "address"
        },
        {
          "indexed": true,
          "internalType": "address",
          "name": "operator",
          "type": "address"
        },
        {
          "indexed": false,
          "internalType": "bool",
          "name": "approved",
          "type": "bool"
        }
      ],
      "name": "ApprovalForAll",
      "type": "event"
    },
    {
      "anonymous": false,
      "inputs": [
        {
          "indexed": false,
          "internalType": "uint256",
          "name": "_type",
          "type": "uint256"
        }
      ],
      "name": "LogDrillTypeAdded",
      "type": "event"
    },
    {
      "anonymous": false,
      "inputs": [
        {
          "indexed": true,
          "internalType": "address",
          "name": "from",
          "type": "address"
        },
        {
          "indexed": true,
          "internalType": "address",
          "name": "to",
          "type": "address"
        },
        {
          "indexed": true,
          "internalType": "uint256",
          "name": "tokenId",
          "type": "uint256"
        }
      ],
      "name": "Transfer",
      "type": "event"
    },
    {
      "inputs": [
        {
          "internalType": "address",
          "name": "to",
          "type": "address"
        },
        {
          "internalType": "uint256",
          "name": "tokenId",
          "type": "uint256"
        }
      ],
      "name": "approve",
      "outputs": [],
      "stateMutability": "nonpayable",
      "type": "function"
    },
    {
      "inputs": [
        {
          "internalType": "address",
          "name": "owner",
          "type": "address"
        }
      ],
      "name": "balanceOf",
      "outputs": [
        {
          "internalType": "uint256",
          "name": "",
          "type": "uint256"
        }
      ],
      "stateMutability": "view",
      "type": "function"
    },
    {
      "inputs": [],
      "name": "cosmicCash",
      "outputs": [
        {
          "internalType": "address",
          "name": "",
          "type": "address"
        }
      ],
      "stateMutability": "view",
      "type": "function"
    },
    {
      "inputs": [
        {
          "internalType": "uint256",
          "name": "",
          "type": "uint256"
        }
      ],
      "name": "drillIdToDrillMap",
      "outputs": [
        {
          "internalType": "uint256",
          "name": "drillId",
          "type": "uint256"
        },
        {
          "internalType": "uint256",
          "name": "drillType",
          "type": "uint256"
        },
        {
          "internalType": "uint256",
          "name": "level",
          "type": "uint256"
        }
      ],
      "stateMutability": "view",
      "type": "function"
    },
    {
      "inputs": [
        {
          "internalType": "uint256",
          "name": "",
          "type": "uint256"
        }
      ],
      "name": "drillTypeToDrillStatsMap",
      "outputs": [
        {
          "internalType": "uint256",
          "name": "drillType",
          "type": "uint256"
        },
        {
          "internalType": "string",
          "name": "drillName",
          "type": "string"
        },
        {
          "internalType": "uint256",
          "name": "mintPrice",
          "type": "uint256"
        },
        {
          "internalType": "bool",
          "name": "mintNativeCurrency",
          "type": "bool"
        },
        {
          "internalType": "address",
          "name": "mintCurrencyAddress",
          "type": "address"
        },
        {
          "internalType": "uint256",
          "name": "maxLevel",
          "type": "uint256"
        }
      ],
      "stateMutability": "view",
      "type": "function"
    },
    {
      "inputs": [
        {
          "internalType": "uint256",
          "name": "tokenId",
          "type": "uint256"
        }
      ],
      "name": "getApproved",
      "outputs": [
        {
          "internalType": "address",
          "name": "",
          "type": "address"
        }
      ],
      "stateMutability": "view",
      "type": "function"
    },
    {
      "inputs": [
        {
          "internalType": "address",
          "name": "owner",
          "type": "address"
        },
        {
          "internalType": "address",
          "name": "operator",
          "type": "address"
        }
      ],
      "name": "isApprovedForAll",
      "outputs": [
        {
          "internalType": "bool",
          "name": "",
          "type": "bool"
        }
      ],
      "stateMutability": "view",
      "type": "function"
    },
    {
      "inputs": [],
      "name": "maxDrills",
      "outputs": [
        {
          "internalType": "uint256",
          "name": "",
          "type": "uint256"
        }
      ],
      "stateMutability": "view",
      "type": "function"
    },
    {
      "inputs": [],
      "name": "name",
      "outputs": [
        {
          "internalType": "string",
          "name": "",
          "type": "string"
        }
      ],
      "stateMutability": "view",
      "type": "function"
    },
    {
      "inputs": [],
      "name": "nextDrillId",
      "outputs": [
        {
          "internalType": "uint256",
          "name": "",
          "type": "uint256"
        }
      ],
      "stateMutability": "view",
      "type": "function"
    },
    {
      "inputs": [],
      "name": "owner",
      "outputs": [
        {
          "internalType": "address",
          "name": "",
          "type": "address"
        }
      ],
      "stateMutability": "view",
      "type": "function"
    },
    {
      "inputs": [
        {
          "internalType": "uint256",
          "name": "tokenId",
          "type": "uint256"
        }
      ],
      "name": "ownerOf",
      "outputs": [
        {
          "internalType": "address",
          "name": "",
          "type": "address"
        }
      ],
      "stateMutability": "view",
      "type": "function"
    },
    {
      "inputs": [
        {
          "internalType": "address",
          "name": "from",
          "type": "address"
        },
        {
          "internalType": "address",
          "name": "to",
          "type": "address"
        },
        {
          "internalType": "uint256",
          "name": "tokenId",
          "type": "uint256"
        }
      ],
      "name": "safeTransferFrom",
      "outputs": [],
      "stateMutability": "nonpayable",
      "type": "function"
    },
    {
      "inputs": [
        {
          "internalType": "address",
          "name": "from",
          "type": "address"
        },
        {
          "internalType": "address",
          "name": "to",
          "type": "address"
        },
        {
          "internalType": "uint256",
          "name": "tokenId",
          "type": "uint256"
        },
        {
          "internalType": "bytes",
          "name": "_data",
          "type": "bytes"
        }
      ],
      "name": "safeTransferFrom",
      "outputs": [],
      "stateMutability": "nonpayable",
      "type": "function"
    },
    {
      "inputs": [
        {
          "internalType": "address",
          "name": "operator",
          "type": "address"
        },
        {
          "internalType": "bool",
          "name": "approved",
          "type": "bool"
        }
      ],
      "name": "setApprovalForAll",
      "outputs": [],
      "stateMutability": "nonpayable",
      "type": "function"
    },
    {
      "inputs": [
        {
          "internalType": "bytes4",
          "name": "interfaceId",
          "type": "bytes4"
        }
      ],
      "name": "supportsInterface",
      "outputs": [
        {
          "internalType": "bool",
          "name": "",
          "type": "bool"
        }
      ],
      "stateMutability": "view",
      "type": "function"
    },
    {
      "inputs": [],
      "name": "symbol",
      "outputs": [
        {
          "internalType": "string",
          "name": "",
          "type": "string"
        }
      ],
      "stateMutability": "view",
      "type": "function"
    },
    {
      "inputs": [
        {
          "internalType": "uint256",
          "name": "tokenId",
          "type": "uint256"
        }
      ],
      "name": "tokenURI",
      "outputs": [
        {
          "internalType": "string",
          "name": "",
          "type": "string"
        }
      ],
      "stateMutability": "view",
      "type": "function"
    },
    {
      "inputs": [
        {
          "internalType": "address",
          "name": "from",
          "type": "address"
        },
        {
          "internalType": "address",
          "name": "to",
          "type": "address"
        },
        {
          "internalType": "uint256",
          "name": "tokenId",
          "type": "uint256"
        }
      ],
      "name": "transferFrom",
      "outputs": [],
      "stateMutability": "nonpayable",
      "type": "function"
    },
    {
      "inputs": [],
      "name": "treasury",
      "outputs": [
        {
          "internalType": "address payable",
          "name": "",
          "type": "address"
        }
      ],
      "stateMutability": "view",
      "type": "function"
    },
    {
      "inputs": [
        {
          "internalType": "address payable",
          "name": "_address",
          "type": "address"
        }
      ],
      "name": "updateTreasuryAddress",
      "outputs": [],
      "stateMutability": "nonpayable",
      "type": "function"
    },
    {
      "inputs": [
        {
          "internalType": "uint256",
          "name": "_type",
          "type": "uint256"
        },
        {
          "internalType": "string",
          "name": "_name",
          "type": "string"
        },
        {
          "internalType": "uint256",
          "name": "_mintPrice",
          "type": "uint256"
        },
        {
          "internalType": "bool",
          "name": "_nativeCurrency",
          "type": "bool"
        },
        {
          "internalType": "address",
          "name": "_mintCurrencyAddress",
          "type": "address"
        },
        {
          "internalType": "uint256",
          "name": "_maxLevel",
          "type": "uint256"
        },
        {
          "internalType": "uint256[]",
          "name": "_miningPowerAtLevel",
          "type": "uint256[]"
        }
      ],
      "name": "addNewDrillType",
      "outputs": [],
      "stateMutability": "nonpayable",
      "type": "function"
    }
  ],
  "bytecode": "0x608060405260016009556064600a553480156200001b57600080fd5b50604051620032a4380380620032a4833981810160405281019062000041919062000284565b6040518060400160405280601181526020017f4d696e6520456d70697265204472696c6c0000000000000000000000000000008152506040518060400160405280600581526020017f4452494c4c0000000000000000000000000000000000000000000000000000008152508160009080519060200190620000c59291906200016a565b508060019080519060200190620000de9291906200016a565b50505033600660006101000a81548173ffffffffffffffffffffffffffffffffffffffff021916908373ffffffffffffffffffffffffffffffffffffffff16021790555080600860006101000a81548173ffffffffffffffffffffffffffffffffffffffff021916908373ffffffffffffffffffffffffffffffffffffffff160217905550506200031b565b8280546200017890620002e5565b90600052602060002090601f0160209004810192826200019c5760008555620001e8565b82601f10620001b757805160ff1916838001178555620001e8565b82800160010185558215620001e8579182015b82811115620001e7578251825591602001919060010190620001ca565b5b509050620001f79190620001fb565b5090565b5b8082111562000216576000816000905550600101620001fc565b5090565b600080fd5b600073ffffffffffffffffffffffffffffffffffffffff82169050919050565b60006200024c826200021f565b9050919050565b6200025e816200023f565b81146200026a57600080fd5b50565b6000815190506200027e8162000253565b92915050565b6000602082840312156200029d576200029c6200021a565b5b6000620002ad848285016200026d565b91505092915050565b7f4e487b7100000000000000000000000000000000000000000000000000000000600052602260045260246000fd5b60006002820490506001821680620002fe57607f821691505b60208210811415620003155762000314620002b6565b5b50919050565b612f79806200032b6000396000f3fe608060405234801561001057600080fd5b50600436106101425760003560e01c80638da5cb5b116100b8578063c87b56dd1161007c578063c87b56dd14610361578063e019488614610391578063e985e9c5146103af578063f3755c2d146103df578063f5e0ddfe14610414578063ffc8ef6f1461044657610142565b80638da5cb5b146102cf57806395d89b41146102ed578063999fcaa61461030b578063a22cb46514610329578063b88d4fde1461034557610142565b806342842e0e1161010a57806342842e0e146101fd57806361d027b3146102195780636352211e1461023757806370a0823114610267578063841e4561146102975780638616293e146102b357610142565b806301ffc9a71461014757806306fdde0314610177578063081812fc14610195578063095ea7b3146101c557806323b872dd146101e1575b600080fd5b610161600480360381019061015c9190611b85565b610464565b60405161016e9190611bcd565b60405180910390f35b61017f610546565b60405161018c9190611c81565b60405180910390f35b6101af60048036038101906101aa9190611cd9565b6105d8565b6040516101bc9190611d47565b60405180910390f35b6101df60048036038101906101da9190611d8e565b61065d565b005b6101fb60048036038101906101f69190611dce565b610775565b005b61021760048036038101906102129190611dce565b6107d5565b005b6102216107f5565b60405161022e9190611e42565b60405180910390f35b610251600480360381019061024c9190611cd9565b61081b565b60405161025e9190611d47565b60405180910390f35b610281600480360381019061027c9190611e5d565b6108cd565b60405161028e9190611e99565b60405180910390f35b6102b160048036038101906102ac9190611ee0565b610985565b005b6102cd60048036038101906102c89190612136565b610a5b565b005b6102d7610cec565b6040516102e49190611d47565b60405180910390f35b6102f5610d12565b6040516103029190611c81565b60405180910390f35b610313610da4565b6040516103209190611e99565b60405180910390f35b610343600480360381019061033e9190612210565b610daa565b005b61035f600480360381019061035a91906122f1565b610dc0565b005b61037b60048036038101906103769190611cd9565b610e22565b6040516103889190611c81565b60405180910390f35b610399610ec9565b6040516103a69190611d47565b60405180910390f35b6103c960048036038101906103c49190612374565b610eef565b6040516103d69190611bcd565b60405180910390f35b6103f960048036038101906103f49190611cd9565b610f83565b60405161040b969594939291906123b4565b60405180910390f35b61042e60048036038101906104299190611cd9565b611074565b60405161043d9392919061241c565b60405180910390f35b61044e61109e565b60405161045b9190611e99565b60405180910390f35b60007f80ac58cd000000000000000000000000000000000000000000000000000000007bffffffffffffffffffffffffffffffffffffffffffffffffffffffff1916827bffffffffffffffffffffffffffffffffffffffffffffffffffffffff1916148061052f57507f5b5e139f000000000000000000000000000000000000000000000000000000007bffffffffffffffffffffffffffffffffffffffffffffffffffffffff1916827bffffffffffffffffffffffffffffffffffffffffffffffffffffffff1916145b8061053f575061053e826110a4565b5b9050919050565b60606000805461055590612482565b80601f016020809104026020016040519081016040528092919081815260200182805461058190612482565b80156105ce5780601f106105a3576101008083540402835291602001916105ce565b820191906000526020600020905b8154815290600101906020018083116105b157829003601f168201915b5050505050905090565b60006105e38261110e565b610622576040517f08c379a000000000000000000000000000000000000000000000000000000000815260040161061990612526565b60405180910390fd5b6004600083815260200190815260200160002060009054906101000a900473ffffffffffffffffffffffffffffffffffffffff169050919050565b60006106688261081b565b90508073ffffffffffffffffffffffffffffffffffffffff168373ffffffffffffffffffffffffffffffffffffffff1614156106d9576040517f08c379a00000000000000000000000000000000000000000000000000000000081526004016106d0906125b8565b60405180910390fd5b8073ffffffffffffffffffffffffffffffffffffffff166106f861117a565b73ffffffffffffffffffffffffffffffffffffffff16148061072757506107268161072161117a565b610eef565b5b610766576040517f08c379a000000000000000000000000000000000000000000000000000000000815260040161075d9061264a565b60405180910390fd5b6107708383611182565b505050565b61078661078061117a565b8261123b565b6107c5576040517f08c379a00000000000000000000000000000000000000000000000000000000081526004016107bc906126dc565b60405180910390fd5b6107d0838383611319565b505050565b6107f083838360405180602001604052806000815250610dc0565b505050565b600760009054906101000a900473ffffffffffffffffffffffffffffffffffffffff1681565b6000806002600084815260200190815260200160002060009054906101000a900473ffffffffffffffffffffffffffffffffffffffff169050600073ffffffffffffffffffffffffffffffffffffffff168173ffffffffffffffffffffffffffffffffffffffff1614156108c4576040517f08c379a00000000000000000000000000000000000000000000000000000000081526004016108bb9061276e565b60405180910390fd5b80915050919050565b60008073ffffffffffffffffffffffffffffffffffffffff168273ffffffffffffffffffffffffffffffffffffffff16141561093e576040517f08c379a000000000000000000000000000000000000000000000000000000000815260040161093590612800565b60405180910390fd5b600360008373ffffffffffffffffffffffffffffffffffffffff1673ffffffffffffffffffffffffffffffffffffffff168152602001908152602001600020549050919050565b33600660009054906101000a900473ffffffffffffffffffffffffffffffffffffffff1673ffffffffffffffffffffffffffffffffffffffff168173ffffffffffffffffffffffffffffffffffffffff1614610a16576040517f08c379a0000000000000000000000000000000000000000000000000000000008152600401610a0d9061286c565b60405180910390fd5b81600760006101000a81548173ffffffffffffffffffffffffffffffffffffffff021916908373ffffffffffffffffffffffffffffffffffffffff1602179055505050565b33600660009054906101000a900473ffffffffffffffffffffffffffffffffffffffff1673ffffffffffffffffffffffffffffffffffffffff168173ffffffffffffffffffffffffffffffffffffffff1614610aec576040517f08c379a0000000000000000000000000000000000000000000000000000000008152600401610ae39061286c565b60405180910390fd5b876000600c60008381526020019081526020016000206004015414610b46576040517f08c379a0000000000000000000000000000000000000000000000000000000008152600401610b3d906128d8565b60405180910390fd5b88600c60008b81526020019081526020016000206000018190555087600c60008b81526020019081526020016000206001019080519060200190610b8b929190611a76565b5086600c60008b81526020019081526020016000206002018190555085600c60008b815260200190815260200160002060030160006101000a81548160ff02191690831515021790555084600c60008b815260200190815260200160002060030160016101000a81548173ffffffffffffffffffffffffffffffffffffffff021916908373ffffffffffffffffffffffffffffffffffffffff16021790555083600c60008b81526020019081526020016000206004018190555060005b84811015610ca957838181518110610c6357610c626128f8565b5b6020026020010151600c60008c81526020019081526020016000206005016000838152602001908152602001600020819055508080610ca190612956565b915050610c48565b507f7ab3fb987ec2924804068fdb0e3f35d58f0b2a201f4af1fa5e8fad5f878f24b989604051610cd99190611e99565b60405180910390a1505050505050505050565b600660009054906101000a900473ffffffffffffffffffffffffffffffffffffffff1681565b606060018054610d2190612482565b80601f0160208091040260200160405190810160405280929190818152602001828054610d4d90612482565b8015610d9a5780601f10610d6f57610100808354040283529160200191610d9a565b820191906000526020600020905b815481529060010190602001808311610d7d57829003601f168201915b5050505050905090565b600a5481565b610dbc610db561117a565b8383611580565b5050565b610dd1610dcb61117a565b8361123b565b610e10576040517f08c379a0000000000000000000000000000000000000000000000000000000008152600401610e07906126dc565b60405180910390fd5b610e1c848484846116ed565b50505050565b6060610e2d8261110e565b610e6c576040517f08c379a0000000000000000000000000000000000000000000000000000000008152600401610e6390612a11565b60405180910390fd5b6000610e76611749565b90506000815111610e965760405180602001604052806000815250610ec1565b80610ea084611760565b604051602001610eb1929190612a6d565b6040516020818303038152906040525b915050919050565b600860009054906101000a900473ffffffffffffffffffffffffffffffffffffffff1681565b6000600560008473ffffffffffffffffffffffffffffffffffffffff1673ffffffffffffffffffffffffffffffffffffffff16815260200190815260200160002060008373ffffffffffffffffffffffffffffffffffffffff1673ffffffffffffffffffffffffffffffffffffffff16815260200190815260200160002060009054906101000a900460ff16905092915050565b600c602052806000526040600020600091509050806000015490806001018054610fac90612482565b80601f0160208091040260200160405190810160405280929190818152602001828054610fd890612482565b80156110255780601f10610ffa57610100808354040283529160200191611025565b820191906000526020600020905b81548152906001019060200180831161100857829003601f168201915b5050505050908060020154908060030160009054906101000a900460ff16908060030160019054906101000a900473ffffffffffffffffffffffffffffffffffffffff16908060040154905086565b600b6020528060005260406000206000915090508060000154908060010154908060020154905083565b60095481565b60007f01ffc9a7000000000000000000000000000000000000000000000000000000007bffffffffffffffffffffffffffffffffffffffffffffffffffffffff1916827bffffffffffffffffffffffffffffffffffffffffffffffffffffffff1916149050919050565b60008073ffffffffffffffffffffffffffffffffffffffff166002600084815260200190815260200160002060009054906101000a900473ffffffffffffffffffffffffffffffffffffffff1673ffffffffffffffffffffffffffffffffffffffff1614159050919050565b600033905090565b816004600083815260200190815260200160002060006101000a81548173ffffffffffffffffffffffffffffffffffffffff021916908373ffffffffffffffffffffffffffffffffffffffff160217905550808273ffffffffffffffffffffffffffffffffffffffff166111f58361081b565b73ffffffffffffffffffffffffffffffffffffffff167f8c5be1e5ebec7d5bd14f71427d1e84f3dd0314c0f7b2291e5b200ac8c7c3b92560405160405180910390a45050565b60006112468261110e565b611285576040517f08c379a000000000000000000000000000000000000000000000000000000000815260040161127c90612b03565b60405180910390fd5b60006112908361081b565b90508073ffffffffffffffffffffffffffffffffffffffff168473ffffffffffffffffffffffffffffffffffffffff1614806112ff57508373ffffffffffffffffffffffffffffffffffffffff166112e7846105d8565b73ffffffffffffffffffffffffffffffffffffffff16145b80611310575061130f8185610eef565b5b91505092915050565b8273ffffffffffffffffffffffffffffffffffffffff166113398261081b565b73ffffffffffffffffffffffffffffffffffffffff161461138f576040517f08c379a000000000000000000000000000000000000000000000000000000000815260040161138690612b95565b60405180910390fd5b600073ffffffffffffffffffffffffffffffffffffffff168273ffffffffffffffffffffffffffffffffffffffff1614156113ff576040517f08c379a00000000000000000000000000000000000000000000000000000000081526004016113f690612c27565b60405180910390fd5b61140a8383836118c1565b611415600082611182565b6001600360008573ffffffffffffffffffffffffffffffffffffffff1673ffffffffffffffffffffffffffffffffffffffff16815260200190815260200160002060008282546114659190612c47565b925050819055506001600360008473ffffffffffffffffffffffffffffffffffffffff1673ffffffffffffffffffffffffffffffffffffffff16815260200190815260200160002060008282546114bc9190612c7b565b92505081905550816002600083815260200190815260200160002060006101000a81548173ffffffffffffffffffffffffffffffffffffffff021916908373ffffffffffffffffffffffffffffffffffffffff160217905550808273ffffffffffffffffffffffffffffffffffffffff168473ffffffffffffffffffffffffffffffffffffffff167fddf252ad1be2c89b69c2b068fc378daa952ba7f163c4a11628f55a4df523b3ef60405160405180910390a461157b8383836118c6565b505050565b8173ffffffffffffffffffffffffffffffffffffffff168373ffffffffffffffffffffffffffffffffffffffff1614156115ef576040517f08c379a00000000000000000000000000000000000000000000000000000000081526004016115e690612d1d565b60405180910390fd5b80600560008573ffffffffffffffffffffffffffffffffffffffff1673ffffffffffffffffffffffffffffffffffffffff16815260200190815260200160002060008473ffffffffffffffffffffffffffffffffffffffff1673ffffffffffffffffffffffffffffffffffffffff16815260200190815260200160002060006101000a81548160ff0219169083151502179055508173ffffffffffffffffffffffffffffffffffffffff168373ffffffffffffffffffffffffffffffffffffffff167f17307eab39ab6107e8899845ad3d59bd9653f200f220920489ca2b5937696c31836040516116e09190611bcd565b60405180910390a3505050565b6116f8848484611319565b611704848484846118cb565b611743576040517f08c379a000000000000000000000000000000000000000000000000000000000815260040161173a90612daf565b60405180910390fd5b50505050565b606060405180602001604052806000815250905090565b606060008214156117a8576040518060400160405280600181526020017f300000000000000000000000000000000000000000000000000000000000000081525090506118bc565b600082905060005b600082146117da5780806117c390612956565b915050600a826117d39190612dfe565b91506117b0565b60008167ffffffffffffffff8111156117f6576117f5611f17565b5b6040519080825280601f01601f1916602001820160405280156118285781602001600182028036833780820191505090505b5090505b600085146118b5576001826118419190612c47565b9150600a856118509190612e2f565b603061185c9190612c7b565b60f81b818381518110611872576118716128f8565b5b60200101907effffffffffffffffffffffffffffffffffffffffffffffffffffffffffffff1916908160001a905350600a856118ae9190612dfe565b945061182c565b8093505050505b919050565b505050565b505050565b60006118ec8473ffffffffffffffffffffffffffffffffffffffff16611a53565b15611a46578373ffffffffffffffffffffffffffffffffffffffff1663150b7a0261191561117a565b8786866040518563ffffffff1660e01b81526004016119379493929190612eb5565b6020604051808303816000875af192505050801561197357506040513d601f19601f820116820180604052508101906119709190612f16565b60015b6119f6573d80600081146119a3576040519150601f19603f3d011682016040523d82523d6000602084013e6119a8565b606091505b506000815114156119ee576040517f08c379a00000000000000000000000000000000000000000000000000000000081526004016119e590612daf565b60405180910390fd5b805181602001fd5b63150b7a0260e01b7bffffffffffffffffffffffffffffffffffffffffffffffffffffffff1916817bffffffffffffffffffffffffffffffffffffffffffffffffffffffff191614915050611a4b565b600190505b949350505050565b6000808273ffffffffffffffffffffffffffffffffffffffff163b119050919050565b828054611a8290612482565b90600052602060002090601f016020900481019282611aa45760008555611aeb565b82601f10611abd57805160ff1916838001178555611aeb565b82800160010185558215611aeb579182015b82811115611aea578251825591602001919060010190611acf565b5b509050611af89190611afc565b5090565b5b80821115611b15576000816000905550600101611afd565b5090565b6000604051905090565b600080fd5b600080fd5b60007fffffffff0000000000000000000000000000000000000000000000000000000082169050919050565b611b6281611b2d565b8114611b6d57600080fd5b50565b600081359050611b7f81611b59565b92915050565b600060208284031215611b9b57611b9a611b23565b5b6000611ba984828501611b70565b91505092915050565b60008115159050919050565b611bc781611bb2565b82525050565b6000602082019050611be26000830184611bbe565b92915050565b600081519050919050565b600082825260208201905092915050565b60005b83811015611c22578082015181840152602081019050611c07565b83811115611c31576000848401525b50505050565b6000601f19601f8301169050919050565b6000611c5382611be8565b611c5d8185611bf3565b9350611c6d818560208601611c04565b611c7681611c37565b840191505092915050565b60006020820190508181036000830152611c9b8184611c48565b905092915050565b6000819050919050565b611cb681611ca3565b8114611cc157600080fd5b50565b600081359050611cd381611cad565b92915050565b600060208284031215611cef57611cee611b23565b5b6000611cfd84828501611cc4565b91505092915050565b600073ffffffffffffffffffffffffffffffffffffffff82169050919050565b6000611d3182611d06565b9050919050565b611d4181611d26565b82525050565b6000602082019050611d5c6000830184611d38565b92915050565b611d6b81611d26565b8114611d7657600080fd5b50565b600081359050611d8881611d62565b92915050565b60008060408385031215611da557611da4611b23565b5b6000611db385828601611d79565b9250506020611dc485828601611cc4565b9150509250929050565b600080600060608486031215611de757611de6611b23565b5b6000611df586828701611d79565b9350506020611e0686828701611d79565b9250506040611e1786828701611cc4565b9150509250925092565b6000611e2c82611d06565b9050919050565b611e3c81611e21565b82525050565b6000602082019050611e576000830184611e33565b92915050565b600060208284031215611e7357611e72611b23565b5b6000611e8184828501611d79565b91505092915050565b611e9381611ca3565b82525050565b6000602082019050611eae6000830184611e8a565b92915050565b611ebd81611e21565b8114611ec857600080fd5b50565b600081359050611eda81611eb4565b92915050565b600060208284031215611ef657611ef5611b23565b5b6000611f0484828501611ecb565b91505092915050565b600080fd5b600080fd5b7f4e487b7100000000000000000000000000000000000000000000000000000000600052604160045260246000fd5b611f4f82611c37565b810181811067ffffffffffffffff82111715611f6e57611f6d611f17565b5b80604052505050565b6000611f81611b19565b9050611f8d8282611f46565b919050565b600067ffffffffffffffff821115611fad57611fac611f17565b5b611fb682611c37565b9050602081019050919050565b82818337600083830152505050565b6000611fe5611fe084611f92565b611f77565b90508281526020810184848401111561200157612000611f12565b5b61200c848285611fc3565b509392505050565b600082601f83011261202957612028611f0d565b5b8135612039848260208601611fd2565b91505092915050565b61204b81611bb2565b811461205657600080fd5b50565b60008135905061206881612042565b92915050565b600067ffffffffffffffff82111561208957612088611f17565b5b602082029050602081019050919050565b600080fd5b60006120b26120ad8461206e565b611f77565b905080838252602082019050602084028301858111156120d5576120d461209a565b5b835b818110156120fe57806120ea8882611cc4565b8452602084019350506020810190506120d7565b5050509392505050565b600082601f83011261211d5761211c611f0d565b5b813561212d84826020860161209f565b91505092915050565b600080600080600080600060e0888a03121561215557612154611b23565b5b60006121638a828b01611cc4565b975050602088013567ffffffffffffffff81111561218457612183611b28565b5b6121908a828b01612014565b96505060406121a18a828b01611cc4565b95505060606121b28a828b01612059565b94505060806121c38a828b01611d79565b93505060a06121d48a828b01611cc4565b92505060c088013567ffffffffffffffff8111156121f5576121f4611b28565b5b6122018a828b01612108565b91505092959891949750929550565b6000806040838503121561222757612226611b23565b5b600061223585828601611d79565b925050602061224685828601612059565b9150509250929050565b600067ffffffffffffffff82111561226b5761226a611f17565b5b61227482611c37565b9050602081019050919050565b600061229461228f84612250565b611f77565b9050828152602081018484840111156122b0576122af611f12565b5b6122bb848285611fc3565b509392505050565b600082601f8301126122d8576122d7611f0d565b5b81356122e8848260208601612281565b91505092915050565b6000806000806080858703121561230b5761230a611b23565b5b600061231987828801611d79565b945050602061232a87828801611d79565b935050604061233b87828801611cc4565b925050606085013567ffffffffffffffff81111561235c5761235b611b28565b5b612368878288016122c3565b91505092959194509250565b6000806040838503121561238b5761238a611b23565b5b600061239985828601611d79565b92505060206123aa85828601611d79565b9150509250929050565b600060c0820190506123c96000830189611e8a565b81810360208301526123db8188611c48565b90506123ea6040830187611e8a565b6123f76060830186611bbe565b6124046080830185611d38565b61241160a0830184611e8a565b979650505050505050565b60006060820190506124316000830186611e8a565b61243e6020830185611e8a565b61244b6040830184611e8a565b949350505050565b7f4e487b7100000000000000000000000000000000000000000000000000000000600052602260045260246000fd5b6000600282049050600182168061249a57607f821691505b602082108114156124ae576124ad612453565b5b50919050565b7f4552433732313a20617070726f76656420717565727920666f72206e6f6e657860008201527f697374656e7420746f6b656e0000000000000000000000000000000000000000602082015250565b6000612510602c83611bf3565b915061251b826124b4565b604082019050919050565b6000602082019050818103600083015261253f81612503565b9050919050565b7f4552433732313a20617070726f76616c20746f2063757272656e74206f776e6560008201527f7200000000000000000000000000000000000000000000000000000000000000602082015250565b60006125a2602183611bf3565b91506125ad82612546565b604082019050919050565b600060208201905081810360008301526125d181612595565b9050919050565b7f4552433732313a20617070726f76652063616c6c6572206973206e6f74206f7760008201527f6e6572206e6f7220617070726f76656420666f7220616c6c0000000000000000602082015250565b6000612634603883611bf3565b915061263f826125d8565b604082019050919050565b6000602082019050818103600083015261266381612627565b9050919050565b7f4552433732313a207472616e736665722063616c6c6572206973206e6f74206f60008201527f776e6572206e6f7220617070726f766564000000000000000000000000000000602082015250565b60006126c6603183611bf3565b91506126d18261266a565b604082019050919050565b600060208201905081810360008301526126f5816126b9565b9050919050565b7f4552433732313a206f776e657220717565727920666f72206e6f6e657869737460008201527f656e7420746f6b656e0000000000000000000000000000000000000000000000602082015250565b6000612758602983611bf3565b9150612763826126fc565b604082019050919050565b600060208201905081810360008301526127878161274b565b9050919050565b7f4552433732313a2062616c616e636520717565727920666f7220746865207a6560008201527f726f206164647265737300000000000000000000000000000000000000000000602082015250565b60006127ea602a83611bf3565b91506127f58261278e565b604082019050919050565b60006020820190508181036000830152612819816127dd565b9050919050565b7f6e6f74206f776e65720000000000000000000000000000000000000000000000600082015250565b6000612856600983611bf3565b915061286182612820565b602082019050919050565b6000602082019050818103600083015261288581612849565b9050919050565b7f6472696c6c207479706520616c72656164792065786973747300000000000000600082015250565b60006128c2601983611bf3565b91506128cd8261288c565b602082019050919050565b600060208201905081810360008301526128f1816128b5565b9050919050565b7f4e487b7100000000000000000000000000000000000000000000000000000000600052603260045260246000fd5b7f4e487b7100000000000000000000000000000000000000000000000000000000600052601160045260246000fd5b600061296182611ca3565b91507fffffffffffffffffffffffffffffffffffffffffffffffffffffffffffffffff82141561299457612993612927565b5b600182019050919050565b7f4552433732314d657461646174613a2055524920717565727920666f72206e6f60008201527f6e6578697374656e7420746f6b656e0000000000000000000000000000000000602082015250565b60006129fb602f83611bf3565b9150612a068261299f565b604082019050919050565b60006020820190508181036000830152612a2a816129ee565b9050919050565b600081905092915050565b6000612a4782611be8565b612a518185612a31565b9350612a61818560208601611c04565b80840191505092915050565b6000612a798285612a3c565b9150612a858284612a3c565b91508190509392505050565b7f4552433732313a206f70657261746f7220717565727920666f72206e6f6e657860008201527f697374656e7420746f6b656e0000000000000000000000000000000000000000602082015250565b6000612aed602c83611bf3565b9150612af882612a91565b604082019050919050565b60006020820190508181036000830152612b1c81612ae0565b9050919050565b7f4552433732313a207472616e736665722066726f6d20696e636f72726563742060008201527f6f776e6572000000000000000000000000000000000000000000000000000000602082015250565b6000612b7f602583611bf3565b9150612b8a82612b23565b604082019050919050565b60006020820190508181036000830152612bae81612b72565b9050919050565b7f4552433732313a207472616e7366657220746f20746865207a65726f2061646460008201527f7265737300000000000000000000000000000000000000000000000000000000602082015250565b6000612c11602483611bf3565b9150612c1c82612bb5565b604082019050919050565b60006020820190508181036000830152612c4081612c04565b9050919050565b6000612c5282611ca3565b9150612c5d83611ca3565b925082821015612c7057612c6f612927565b5b828203905092915050565b6000612c8682611ca3565b9150612c9183611ca3565b9250827fffffffffffffffffffffffffffffffffffffffffffffffffffffffffffffffff03821115612cc657612cc5612927565b5b828201905092915050565b7f4552433732313a20617070726f766520746f2063616c6c657200000000000000600082015250565b6000612d07601983611bf3565b9150612d1282612cd1565b602082019050919050565b60006020820190508181036000830152612d3681612cfa565b9050919050565b7f4552433732313a207472616e7366657220746f206e6f6e20455243373231526560008201527f63656976657220696d706c656d656e7465720000000000000000000000000000602082015250565b6000612d99603283611bf3565b9150612da482612d3d565b604082019050919050565b60006020820190508181036000830152612dc881612d8c565b9050919050565b7f4e487b7100000000000000000000000000000000000000000000000000000000600052601260045260246000fd5b6000612e0982611ca3565b9150612e1483611ca3565b925082612e2457612e23612dcf565b5b828204905092915050565b6000612e3a82611ca3565b9150612e4583611ca3565b925082612e5557612e54612dcf565b5b828206905092915050565b600081519050919050565b600082825260208201905092915050565b6000612e8782612e60565b612e918185612e6b565b9350612ea1818560208601611c04565b612eaa81611c37565b840191505092915050565b6000608082019050612eca6000830187611d38565b612ed76020830186611d38565b612ee46040830185611e8a565b8181036060830152612ef68184612e7c565b905095945050505050565b600081519050612f1081611b59565b92915050565b600060208284031215612f2c57612f2b611b23565b5b6000612f3a84828501612f01565b9150509291505056fea2646970667358221220da6b014a1d5a61256f29e9e63797881a2d2c7a792bb936f55207aa24e89baceb64736f6c634300080b0033",
  "immutableReferences": {},
  "source": "// SPDX-License-Identifier: MIT\n\npragma solidity ^0.8.0;\n\nimport \"@openzeppelin/contracts/token/ERC721/ERC721.sol\";\nimport \"@openzeppelin/contracts/token/ERC20/IERC20.sol\";\n\ncontract MineEmpireDrillv2 is ERC721 {\n    address public owner;\n    address payable public treasury;\n    address public cosmicCash;\n    uint public nextDrillId = 1;\n    uint public maxDrills = 100;\n\n    struct Drill {\n        uint drillId;\n        uint drillType;\n        uint level;\n    }\n\n    struct DrillTypeInfo {\n        uint drillType;\n        string drillName;\n        uint mintPrice;\n        bool mintNativeCurrency;\n        address mintCurrencyAddress;\n        uint maxLevel;\n        mapping(uint => uint) miningPowerAtLevel;\n    }\n\n    mapping(uint => Drill) public drillIdToDrillMap;\n    mapping(uint => DrillTypeInfo) public drillTypeToDrillStatsMap;\n\n    constructor(address _cosmicCash) ERC721(\"Mine Empire Drill\", \"DRILL\") {\n        owner = msg.sender;\n        cosmicCash = _cosmicCash;\n    }\n\n    // EVENTS\n    event LogDrillTypeAdded(uint _type);\n\n    // MODIFIERS\n    modifier onlyOwner(address _address) {\n        require(_address == owner, \"not owner\");\n        _;\n    }\n\n    modifier mintAvailable() {\n        require (nextDrillId <= maxDrills, \"mint not available\");\n        _;\n    }\n\n    modifier drillExists(uint _drillId) {\n        require(_drillId < nextDrillId, \"drill does not exist\");\n        _;\n    }\n\n    modifier drillTypeExists(uint _drillType) {\n        require(drillTypeToDrillStatsMap[_drillType].maxLevel > 0, \"drill type does not exist\");\n        _;\n    }\n\n    modifier drillTypeNotExists(uint _drillType) {\n        require(drillTypeToDrillStatsMap[_drillType].maxLevel == 0, \"drill type already exists\");\n        _;\n    }\n\n    modifier correctMintPriceAndCurrency(uint _drillType, bool _mintNativeCurrency, address _mintCurrencyAddress, uint _mintPrice) {\n        require(drillTypeToDrillStatsMap[_drillType].mintNativeCurrency == _mintNativeCurrency, \"mintNativeCurrency does not match\");\n        require(drillTypeToDrillStatsMap[_drillType].mintCurrencyAddress == _mintCurrencyAddress, \"incorrect mint currency address\");\n        require(drillTypeToDrillStatsMap[_drillType].mintPrice == _mintPrice, \"incorrect mint price\");\n        _;\n    }\n\n    // ONLY OWNER\n    // update treasury address\n    function updateTreasuryAddress(address payable _address) public onlyOwner(msg.sender) {\n        treasury = _address;\n    }\n\n    // add new drill type\n    function addNewDrillType(\n        uint _type,\n        string memory _name,\n        uint _mintPrice,\n        bool _nativeCurrency,\n        address _mintCurrencyAddress,\n        uint _maxLevel,\n        uint[] memory _miningPowerAtLevel\n    ) public onlyOwner(msg.sender) drillTypeNotExists(_type) {\n        drillTypeToDrillStatsMap[_type].drillType = _type;\n        drillTypeToDrillStatsMap[_type].drillName = _name;\n        drillTypeToDrillStatsMap[_type].mintPrice = _mintPrice;\n        drillTypeToDrillStatsMap[_type].mintNativeCurrency = _nativeCurrency;\n        drillTypeToDrillStatsMap[_type].mintCurrencyAddress = _mintCurrencyAddress;\n        drillTypeToDrillStatsMap[_type].maxLevel = _maxLevel;\n        for (uint i = 0; i < _maxLevel; i++) {\n            drillTypeToDrillStatsMap[_type].miningPowerAtLevel[i] = _miningPowerAtLevel[i];\n        }\n        emit LogDrillTypeAdded(_type);\n    }\n    // update mint price\n    // update max drills\n    // update mining power\n    // update max level\n\n    // GETTERS\n    // get drill\n    // get mint price and currency\n    // get mining level upgrade requirements\n    // get mining power\n\n    // USER INTERACTIONS\n    // mint drill\n    // upgrade drill\n}",
  "sourcePath": "/Users/aslan/Desktop/MineEmpireBackend/contracts/MineEmpireDrillv2.sol",
  "compiler": {
    "name": "solc",
    "version": "0.8.11+commit.d7f03943.Emscripten.clang"
  },
  "schemaVersion": "3.4.3",
  "updatedAt": "2022-05-20T18:12:19.035Z",
  "devdoc": {
    "kind": "dev",
    "methods": {
      "approve(address,uint256)": {
        "details": "See {IERC721-approve}."
      },
      "balanceOf(address)": {
        "details": "See {IERC721-balanceOf}."
      },
      "getApproved(uint256)": {
        "details": "See {IERC721-getApproved}."
      },
      "isApprovedForAll(address,address)": {
        "details": "See {IERC721-isApprovedForAll}."
      },
      "name()": {
        "details": "See {IERC721Metadata-name}."
      },
      "ownerOf(uint256)": {
        "details": "See {IERC721-ownerOf}."
      },
      "safeTransferFrom(address,address,uint256)": {
        "details": "See {IERC721-safeTransferFrom}."
      },
      "safeTransferFrom(address,address,uint256,bytes)": {
        "details": "See {IERC721-safeTransferFrom}."
      },
      "setApprovalForAll(address,bool)": {
        "details": "See {IERC721-setApprovalForAll}."
      },
      "supportsInterface(bytes4)": {
        "details": "See {IERC165-supportsInterface}."
      },
      "symbol()": {
        "details": "See {IERC721Metadata-symbol}."
      },
      "tokenURI(uint256)": {
        "details": "See {IERC721Metadata-tokenURI}."
      },
      "transferFrom(address,address,uint256)": {
        "details": "See {IERC721-transferFrom}."
      }
    },
    "version": 1
  },
  "userdoc": {
    "kind": "user",
    "methods": {},
    "version": 1
  }
}