{
  "contractName": "Oberon",
  "abi": [
    {
      "inputs": [
        {
          "internalType": "contract Cobalt",
          "name": "_cobalt",
          "type": "address"
        },
        {
          "internalType": "contract ERC20",
          "name": "_cosmicCash",
          "type": "address"
        },
        {
          "internalType": "contract MineEmpireDrill",
          "name": "_drill",
          "type": "address"
        }
      ],
      "stateMutability": "nonpayable",
      "type": "constructor"
    },
    {
      "anonymous": false,
      "inputs": [
        {
          "indexed": false,
          "internalType": "address",
          "name": "userAddress",
          "type": "address"
        },
        {
          "indexed": false,
          "internalType": "uint256",
          "name": "userLevel",
          "type": "uint256"
        }
      ],
      "name": "CapacityUpgraded",
      "type": "event"
    },
    {
      "inputs": [],
      "name": "CSC_UNLOCK_PRICE",
      "outputs": [
        {
          "internalType": "uint256",
          "name": "",
          "type": "uint256"
        }
      ],
      "stateMutability": "view",
      "type": "function"
    },
    {
      "inputs": [],
      "name": "ENERGY_UNLOCK_PRICE",
      "outputs": [
        {
          "internalType": "uint256",
          "name": "",
          "type": "uint256"
        }
      ],
      "stateMutability": "view",
      "type": "function"
    },
    {
      "inputs": [],
      "name": "GENESIS_TIME",
      "outputs": [
        {
          "internalType": "uint256",
          "name": "",
          "type": "uint256"
        }
      ],
      "stateMutability": "view",
      "type": "function"
    },
    {
      "inputs": [],
      "name": "SECONDS_IN_PERIOD",
      "outputs": [
        {
          "internalType": "uint256",
          "name": "",
          "type": "uint256"
        }
      ],
      "stateMutability": "view",
      "type": "function"
    },
    {
      "inputs": [
        {
          "internalType": "uint256",
          "name": "",
          "type": "uint256"
        }
      ],
      "name": "capacityAtLevel",
      "outputs": [
        {
          "internalType": "uint256",
          "name": "",
          "type": "uint256"
        }
      ],
      "stateMutability": "view",
      "type": "function"
    },
    {
      "inputs": [],
      "name": "cobalt",
      "outputs": [
        {
          "internalType": "contract Cobalt",
          "name": "",
          "type": "address"
        }
      ],
      "stateMutability": "view",
      "type": "function"
    },
    {
      "inputs": [],
      "name": "cosmicCash",
      "outputs": [
        {
          "internalType": "contract ERC20",
          "name": "",
          "type": "address"
        }
      ],
      "stateMutability": "view",
      "type": "function"
    },
    {
      "inputs": [],
      "name": "energy",
      "outputs": [
        {
          "internalType": "contract ERC20",
          "name": "",
          "type": "address"
        }
      ],
      "stateMutability": "view",
      "type": "function"
    },
    {
      "inputs": [],
      "name": "mineEmpireDrill",
      "outputs": [
        {
          "internalType": "contract MineEmpireDrill",
          "name": "",
          "type": "address"
        }
      ],
      "stateMutability": "view",
      "type": "function"
    },
    {
      "inputs": [],
      "name": "owner",
      "outputs": [
        {
          "internalType": "address",
          "name": "",
          "type": "address"
        }
      ],
      "stateMutability": "view",
      "type": "function"
    },
    {
      "inputs": [
        {
          "internalType": "uint256",
          "name": "",
          "type": "uint256"
        }
      ],
      "name": "productionRate",
      "outputs": [
        {
          "internalType": "uint256",
          "name": "",
          "type": "uint256"
        }
      ],
      "stateMutability": "view",
      "type": "function"
    },
    {
      "inputs": [
        {
          "internalType": "address",
          "name": "",
          "type": "address"
        }
      ],
      "name": "stakes",
      "outputs": [
        {
          "internalType": "uint256",
          "name": "timestamp",
          "type": "uint256"
        },
        {
          "components": [
            {
              "internalType": "uint256",
              "name": "drillId",
              "type": "uint256"
            },
            {
              "internalType": "uint256",
              "name": "drillType",
              "type": "uint256"
            },
            {
              "internalType": "uint256",
              "name": "level",
              "type": "uint256"
            }
          ],
          "internalType": "struct MineEmpireDrill.Drill",
          "name": "drill",
          "type": "tuple"
        }
      ],
      "stateMutability": "view",
      "type": "function"
    },
    {
      "inputs": [
        {
          "internalType": "address",
          "name": "",
          "type": "address"
        }
      ],
      "name": "unlocked",
      "outputs": [
        {
          "internalType": "bool",
          "name": "",
          "type": "bool"
        }
      ],
      "stateMutability": "view",
      "type": "function"
    },
    {
      "inputs": [
        {
          "internalType": "uint256",
          "name": "",
          "type": "uint256"
        }
      ],
      "name": "upgradeRequirementAtLevel",
      "outputs": [
        {
          "internalType": "uint256",
          "name": "",
          "type": "uint256"
        }
      ],
      "stateMutability": "view",
      "type": "function"
    },
    {
      "inputs": [
        {
          "internalType": "address",
          "name": "",
          "type": "address"
        }
      ],
      "name": "userLevel",
      "outputs": [
        {
          "internalType": "uint256",
          "name": "",
          "type": "uint256"
        }
      ],
      "stateMutability": "view",
      "type": "function"
    },
    {
      "inputs": [
        {
          "internalType": "address",
          "name": "operator",
          "type": "address"
        },
        {
          "internalType": "address",
          "name": "from",
          "type": "address"
        },
        {
          "internalType": "uint256",
          "name": "id",
          "type": "uint256"
        },
        {
          "internalType": "bytes",
          "name": "data",
          "type": "bytes"
        }
      ],
      "name": "onERC721Received",
      "outputs": [
        {
          "internalType": "bytes4",
          "name": "",
          "type": "bytes4"
        }
      ],
      "stateMutability": "pure",
      "type": "function"
    },
    {
      "inputs": [
        {
          "internalType": "address payable",
          "name": "_address",
          "type": "address"
        }
      ],
      "name": "updateTreasury",
      "outputs": [],
      "stateMutability": "nonpayable",
      "type": "function"
    },
    {
      "inputs": [
        {
          "internalType": "uint256",
          "name": "_level",
          "type": "uint256"
        }
      ],
      "name": "updateMaxLevel",
      "outputs": [],
      "stateMutability": "nonpayable",
      "type": "function"
    },
    {
      "inputs": [
        {
          "internalType": "uint256",
          "name": "_level",
          "type": "uint256"
        },
        {
          "internalType": "uint256",
          "name": "_capacity",
          "type": "uint256"
        }
      ],
      "name": "updateCapacityAtLevel",
      "outputs": [],
      "stateMutability": "nonpayable",
      "type": "function"
    },
    {
      "inputs": [
        {
          "internalType": "uint256",
          "name": "_level",
          "type": "uint256"
        },
        {
          "internalType": "uint256",
          "name": "_price",
          "type": "uint256"
        }
      ],
      "name": "updateUpgradeRequirementAtLevel",
      "outputs": [],
      "stateMutability": "nonpayable",
      "type": "function"
    },
    {
      "inputs": [
        {
          "internalType": "contract ERC20",
          "name": "_energy",
          "type": "address"
        }
      ],
      "name": "updateEnergy",
      "outputs": [],
      "stateMutability": "nonpayable",
      "type": "function"
    },
    {
      "inputs": [],
      "name": "getCurrentPeriod",
      "outputs": [
        {
          "internalType": "uint256",
          "name": "",
          "type": "uint256"
        }
      ],
      "stateMutability": "view",
      "type": "function"
    },
    {
      "inputs": [],
      "name": "getBaseProduction",
      "outputs": [
        {
          "internalType": "uint256",
          "name": "",
          "type": "uint256"
        }
      ],
      "stateMutability": "view",
      "type": "function"
    },
    {
      "inputs": [
        {
          "internalType": "address",
          "name": "_userAddress",
          "type": "address"
        }
      ],
      "name": "getAccumulatedCobalt",
      "outputs": [
        {
          "internalType": "uint256",
          "name": "",
          "type": "uint256"
        }
      ],
      "stateMutability": "view",
      "type": "function"
    },
    {
      "inputs": [
        {
          "internalType": "bool",
          "name": "useCSC",
          "type": "bool"
        }
      ],
      "name": "unlock",
      "outputs": [],
      "stateMutability": "nonpayable",
      "type": "function"
    },
    {
      "inputs": [
        {
          "internalType": "uint256",
          "name": "_drillId",
          "type": "uint256"
        }
      ],
      "name": "stake",
      "outputs": [],
      "stateMutability": "nonpayable",
      "type": "function"
    },
    {
      "inputs": [],
      "name": "collectCobalt",
      "outputs": [],
      "stateMutability": "nonpayable",
      "type": "function"
    },
    {
      "inputs": [],
      "name": "unstake",
      "outputs": [],
      "stateMutability": "nonpayable",
      "type": "function"
    },
    {
      "inputs": [],
      "name": "upgrade",
      "outputs": [],
      "stateMutability": "nonpayable",
      "type": "function"
    }
  ],
  "bytecode": "0x608060405261dead600660006101000a81548173ffffffffffffffffffffffffffffffffffffffff021916908373ffffffffffffffffffffffffffffffffffffffff16021790555068015af1d78b58c40000600e55680d8d726b7177a80000600f5562278d006010553480156200007557600080fd5b5060405162002e4938038062002e4983398181016040528101906200009b9190620006c9565b33600460006101000a81548173ffffffffffffffffffffffffffffffffffffffff021916908373ffffffffffffffffffffffffffffffffffffffff1602179055504260118190555082600160006101000a81548173ffffffffffffffffffffffffffffffffffffffff021916908373ffffffffffffffffffffffffffffffffffffffff16021790555081600260006101000a81548173ffffffffffffffffffffffffffffffffffffffff021916908373ffffffffffffffffffffffffffffffffffffffff160217905550806000806101000a81548173ffffffffffffffffffffffffffffffffffffffff021916908373ffffffffffffffffffffffffffffffffffffffff16021790555060096007819055506887cbdbc3f0f1840000600860008081526020019081526020016000208190555068a9bb5a8740440c000060086000600181526020019081526020016000208190555068d42da956bd3ee80000600860006002815260200190815260200160002081905550690109400407c66254000060086000600381526020019081526020016000208190555069017356d8b32501c80000600860006004815260200190815260200160002081905550690207d21b774cf4b400006008600060058152602001908152602001600020819055506902d7c54d234d332400006008600060068152602001908152602001600020819055506903fae10597d27acc00006008600060078152602001908152602001600020819055506905926e3b07c0458400006008600060088152602001908152602001600020819055506907a97bff0a3ff6fc000060086000600981526020019081526020016000208190555068015af1d78b58c4000060096000600181526020019081526020016000208190555068015af1d78b58c4000060096000600281526020019081526020016000208190555068015af1d78b58c4000060096000600381526020019081526020016000208190555068022b1c8c1227a0000060096000600481526020019081526020016000208190555068022b1c8c1227a00000600960006005815260200190815260200160002081905550680410d586a20a4c0000600960006006815260200190815260200160002081905550680410d586a20a4c000060096000600781526020019081526020016000208190555068068155a43676e00000600960006008815260200190815260200160002081905550680821ab0d4414980000600960006009815260200190815260200160002081905550662251b80487c000600c600080815260200190815260200160002081905550661d2af3959b2000600c6000600181526020019081526020016000208190555066191508581d4000600c600060028152602001908152602001600020819055506615d964755e6000600c600060038152602001908152602001600020819055506613385dc83c2000600c60006004815260200190815260200160002081905550661116ab655ea000600c60006005815260200190815260200160002081905550660f621cafe0a000600c60006006815260200190815260200160002081905550660dff68bc6a4000600c60006007815260200190815260200160002081905550660ce5773c88e000600c60006008815260200190815260200160002081905550660bf8ff44e4a000600c60006009815260200190815260200160002081905550660b431923f02000600c6000600a815260200190815260200160002081905550660ab1943cc62000600c6000600b81526020019081526020016000208190555050505062000725565b600080fd5b600073ffffffffffffffffffffffffffffffffffffffff82169050919050565b6000620005f382620005c6565b9050919050565b60006200060782620005e6565b9050919050565b6200061981620005fa565b81146200062557600080fd5b50565b60008151905062000639816200060e565b92915050565b60006200064c82620005e6565b9050919050565b6200065e816200063f565b81146200066a57600080fd5b50565b6000815190506200067e8162000653565b92915050565b60006200069182620005e6565b9050919050565b620006a38162000684565b8114620006af57600080fd5b50565b600081519050620006c38162000698565b92915050565b600080600060608486031215620006e557620006e4620005c1565b5b6000620006f58682870162000628565b935050602062000708868287016200066d565b92505060406200071b86828701620006b2565b9150509250925092565b61271480620007356000396000f3fe608060405234801561001057600080fd5b50600436106101cf5760003560e01c8063950d39d511610104578063d55ec697116100a2578063ec4aed1f11610071578063ec4aed1f1461050d578063f288246114610529578063fbac89f614610547578063ff492f2414610563576101cf565b8063d55ec697146104bd578063e0194886146104c7578063e4d26119146104e5578063e736dd7c146104ef576101cf565b8063ae48e5da116100de578063ae48e5da14610437578063ced9b64714610453578063d1846d0c14610471578063d2bfa040146104a1576101cf565b8063950d39d5146103cd578063a694fc3a146103fd578063aa84924414610419576101cf565b80632def66201161017157806354c1ab111161014b57806354c1ab11146103575780637f51bb1f146103755780638657a982146103915780638da5cb5b146103af576101cf565b80632def6620146102ed57806337cd1a8d146102f7578063412d0e7214610327576101cf565b8063150b7a02116101ad578063150b7a021461024057806316934fc414610270578063280e31cc146102a15780632c57d123146102d1576101cf565b806303de5086146101d4578063086146d2146101f257806313c1bf6414610210575b600080fd5b6101dc610581565b6040516101e99190611a63565b60405180910390f35b6101fa610587565b6040516102079190611a63565b60405180910390f35b61022a60048036038101906102259190611abe565b6105bc565b6040516102379190611a63565b60405180910390f35b61025a60048036038101906102559190611bae565b6105d4565b6040516102679190611c71565b60405180910390f35b61028a60048036038101906102859190611c8c565b610602565b604051610298929190611d0a565b60405180910390f35b6102bb60048036038101906102b69190611c8c565b61064e565b6040516102c89190611a63565b60405180910390f35b6102eb60048036038101906102e69190611abe565b610666565b005b6102f5610702565b005b610311600480360381019061030c9190611c8c565b610965565b60405161031e9190611a63565b60405180910390f35b610341600480360381019061033c9190611abe565b610bd7565b60405161034e9190611a63565b60405180910390f35b61035f610bef565b60405161036c9190611a63565b60405180910390f35b61038f600480360381019061038a9190611d71565b610c16565b005b610399610cec565b6040516103a69190611a63565b60405180910390f35b6103b7610cf2565b6040516103c49190611dad565b60405180910390f35b6103e760048036038101906103e29190611abe565b610d18565b6040516103f49190611a63565b60405180910390f35b61041760048036038101906104129190611abe565b610d30565b005b61042161104f565b60405161042e9190611e27565b60405180910390f35b610451600480360381019061044c9190611e80565b611075565b005b61045b61114b565b6040516104689190611ece565b60405180910390f35b61048b60048036038101906104869190611c8c565b611171565b6040516104989190611f04565b60405180910390f35b6104bb60048036038101906104b69190611f1f565b611191565b005b6104c5611286565b005b6104cf611558565b6040516104dc9190611e27565b60405180910390f35b6104ed61157e565b005b6104f76116eb565b6040516105049190611f80565b60405180910390f35b61052760048036038101906105229190611f1f565b61170f565b005b610531611849565b60405161053e9190611a63565b60405180910390f35b610561600480360381019061055c9190611fc7565b61184f565b005b61056b611a44565b6040516105789190611a63565b60405180910390f35b60105481565b6000806010546011544261059b9190612023565b6105a59190612086565b9050600b8111156105b557600b90505b8091505090565b60096020528060005260406000206000915090505481565b60007f150b7a023d4804d13e8c85fb27262cb750cf6ba9f9dd3bb30d90f482ceeb4b1f905095945050505050565b600b602052806000526040600020600091509050806000015490806001016040518060600160405290816000820154815260200160018201548152602001600282015481525050905082565b600a6020528060005260406000206000915090505481565b33600460009054906101000a900473ffffffffffffffffffffffffffffffffffffffff1673ffffffffffffffffffffffffffffffffffffffff168173ffffffffffffffffffffffffffffffffffffffff16146106f7576040517f08c379a00000000000000000000000000000000000000000000000000000000081526004016106ee90612114565b60405180910390fd5b816007819055505050565b336000600b60008373ffffffffffffffffffffffffffffffffffffffff1673ffffffffffffffffffffffffffffffffffffffff1681526020019081526020016000206000015411610788576040517f08c379a000000000000000000000000000000000000000000000000000000000815260040161077f90612180565b60405180910390fd5b600061079333610965565b9050600160009054906101000a900473ffffffffffffffffffffffffffffffffffffffff1673ffffffffffffffffffffffffffffffffffffffff166340c10f1933836040518363ffffffff1660e01b81526004016107f29291906121a0565b600060405180830381600087803b15801561080c57600080fd5b505af1158015610820573d6000803e3d6000fd5b5050505060008054906101000a900473ffffffffffffffffffffffffffffffffffffffff1673ffffffffffffffffffffffffffffffffffffffff166342842e0e3033600b60003373ffffffffffffffffffffffffffffffffffffffff1673ffffffffffffffffffffffffffffffffffffffff168152602001908152602001600020600101600001546040518463ffffffff1660e01b81526004016108c6939291906121c9565b600060405180830381600087803b1580156108e057600080fd5b505af11580156108f4573d6000803e3d6000fd5b50505050600b60003373ffffffffffffffffffffffffffffffffffffffff1673ffffffffffffffffffffffffffffffffffffffff1681526020019081526020016000206000808201600090556001820160008082016000905560018201600090556002820160009055505050505050565b6000816000600b60008373ffffffffffffffffffffffffffffffffffffffff1673ffffffffffffffffffffffffffffffffffffffff16815260200190815260200160002060000154116109ed576040517f08c379a00000000000000000000000000000000000000000000000000000000081526004016109e490612180565b60405180910390fd5b6000600b60008573ffffffffffffffffffffffffffffffffffffffff1673ffffffffffffffffffffffffffffffffffffffff168152602001908152602001600020604051806040016040529081600082015481526020016001820160405180606001604052908160008201548152602001600182015481526020016002820154815250508152505090506000816000015142610a899190612023565b905060008060009054906101000a900473ffffffffffffffffffffffffffffffffffffffff1673ffffffffffffffffffffffffffffffffffffffff166345a8b2de8460200151600001516040518263ffffffff1660e01b8152600401610aef9190611a63565b602060405180830381865afa158015610b0c573d6000803e3d6000fd5b505050506040513d601f19601f82011682018060405250810190610b309190612215565b9050600060086000600a60008a73ffffffffffffffffffffffffffffffffffffffff1673ffffffffffffffffffffffffffffffffffffffff1681526020019081526020016000205481526020019081526020016000205490506000610b93610bef565b905060008360648387610ba69190612242565b610bb09190612086565b610bba9190612242565b905080831015610bc8578290505b80975050505050505050919050565b60086020528060005260406000206000915090505481565b600080610bfa610587565b9050600c60008281526020019081526020016000205491505090565b33600460009054906101000a900473ffffffffffffffffffffffffffffffffffffffff1673ffffffffffffffffffffffffffffffffffffffff168173ffffffffffffffffffffffffffffffffffffffff1614610ca7576040517f08c379a0000000000000000000000000000000000000000000000000000000008152600401610c9e90612114565b60405180910390fd5b81600560006101000a81548173ffffffffffffffffffffffffffffffffffffffff021916908373ffffffffffffffffffffffffffffffffffffffff1602179055505050565b600e5481565b600460009054906101000a900473ffffffffffffffffffffffffffffffffffffffff1681565b600c6020528060005260406000206000915090505481565b336000600b60008373ffffffffffffffffffffffffffffffffffffffff1673ffffffffffffffffffffffffffffffffffffffff1681526020019081526020016000206000015414610db6576040517f08c379a0000000000000000000000000000000000000000000000000000000008152600401610dad906122e8565b60405180910390fd5b3360011515600d60008373ffffffffffffffffffffffffffffffffffffffff1673ffffffffffffffffffffffffffffffffffffffff16815260200190815260200160002060009054906101000a900460ff16151514610e4a576040517f08c379a0000000000000000000000000000000000000000000000000000000008152600401610e4190612354565b60405180910390fd5b60008060009054906101000a900473ffffffffffffffffffffffffffffffffffffffff1673ffffffffffffffffffffffffffffffffffffffff1663a2843682856040518263ffffffff1660e01b8152600401610ea69190611a63565b606060405180830381865afa158015610ec3573d6000803e3d6000fd5b505050506040513d601f19601f82011682018060405250810190610ee79190612469565b90506001816020015114610f30576040517f08c379a0000000000000000000000000000000000000000000000000000000008152600401610f27906124e2565b60405180910390fd5b60008054906101000a900473ffffffffffffffffffffffffffffffffffffffff1673ffffffffffffffffffffffffffffffffffffffff166342842e0e3330876040518463ffffffff1660e01b8152600401610f8d939291906121c9565b600060405180830381600087803b158015610fa757600080fd5b505af1158015610fbb573d6000803e3d6000fd5b50505050604051806040016040528042815260200182815250600b60003373ffffffffffffffffffffffffffffffffffffffff1673ffffffffffffffffffffffffffffffffffffffff16815260200190815260200160002060008201518160000155602082015181600101600082015181600001556020820151816001015560408201518160020155505090505050505050565b600360009054906101000a900473ffffffffffffffffffffffffffffffffffffffff1681565b33600460009054906101000a900473ffffffffffffffffffffffffffffffffffffffff1673ffffffffffffffffffffffffffffffffffffffff168173ffffffffffffffffffffffffffffffffffffffff1614611106576040517f08c379a00000000000000000000000000000000000000000000000000000000081526004016110fd90612114565b60405180910390fd5b81600360006101000a81548173ffffffffffffffffffffffffffffffffffffffff021916908373ffffffffffffffffffffffffffffffffffffffff1602179055505050565b600160009054906101000a900473ffffffffffffffffffffffffffffffffffffffff1681565b600d6020528060005260406000206000915054906101000a900460ff1681565b33600460009054906101000a900473ffffffffffffffffffffffffffffffffffffffff1673ffffffffffffffffffffffffffffffffffffffff168173ffffffffffffffffffffffffffffffffffffffff1614611222576040517f08c379a000000000000000000000000000000000000000000000000000000000815260040161121990612114565b60405180910390fd5b82600754811115611268576040517f08c379a000000000000000000000000000000000000000000000000000000000815260040161125f9061254e565b60405180910390fd5b82600860008681526020019081526020016000208190555050505050565b3360011515600d60008373ffffffffffffffffffffffffffffffffffffffff1673ffffffffffffffffffffffffffffffffffffffff16815260200190815260200160002060009054906101000a900460ff1615151461131a576040517f08c379a000000000000000000000000000000000000000000000000000000000815260040161131190612354565b60405180910390fd5b6000600a60003373ffffffffffffffffffffffffffffffffffffffff1673ffffffffffffffffffffffffffffffffffffffff16815260200190815260200160002054905060075481106113a2576040517f08c379a0000000000000000000000000000000000000000000000000000000008152600401611399906125ba565b60405180910390fd5b6000600960006001846113b591906125da565b8152602001908152602001600020549050600260009054906101000a900473ffffffffffffffffffffffffffffffffffffffff1673ffffffffffffffffffffffffffffffffffffffff166323b872dd33600560009054906101000a900473ffffffffffffffffffffffffffffffffffffffff16846040518463ffffffff1660e01b8152600401611447939291906121c9565b6020604051808303816000875af1158015611466573d6000803e3d6000fd5b505050506040513d601f19601f8201168201806040525081019061148a9190612645565b5060018261149891906125da565b600a60003373ffffffffffffffffffffffffffffffffffffffff1673ffffffffffffffffffffffffffffffffffffffff168152602001908152602001600020819055507f732b7725a1bda8623429e119239febb5d692156397644ede58d521187d75d1d333600a60003373ffffffffffffffffffffffffffffffffffffffff1673ffffffffffffffffffffffffffffffffffffffff1681526020019081526020016000205460405161154b9291906121a0565b60405180910390a1505050565b600260009054906101000a900473ffffffffffffffffffffffffffffffffffffffff1681565b336000600b60008373ffffffffffffffffffffffffffffffffffffffff1673ffffffffffffffffffffffffffffffffffffffff1681526020019081526020016000206000015411611604576040517f08c379a00000000000000000000000000000000000000000000000000000000081526004016115fb90612180565b60405180910390fd5b600061160f33610965565b9050600160009054906101000a900473ffffffffffffffffffffffffffffffffffffffff1673ffffffffffffffffffffffffffffffffffffffff166340c10f1933836040518363ffffffff1660e01b815260040161166e9291906121a0565b600060405180830381600087803b15801561168857600080fd5b505af115801561169c573d6000803e3d6000fd5b5050505042600b60003373ffffffffffffffffffffffffffffffffffffffff1673ffffffffffffffffffffffffffffffffffffffff168152602001908152602001600020600001819055505050565b60008054906101000a900473ffffffffffffffffffffffffffffffffffffffff1681565b33600460009054906101000a900473ffffffffffffffffffffffffffffffffffffffff1673ffffffffffffffffffffffffffffffffffffffff168173ffffffffffffffffffffffffffffffffffffffff16146117a0576040517f08c379a000000000000000000000000000000000000000000000000000000000815260040161179790612114565b60405180910390fd5b826007548111156117e6576040517f08c379a00000000000000000000000000000000000000000000000000000000081526004016117dd9061254e565b60405180910390fd5b60075484111561182b576040517f08c379a0000000000000000000000000000000000000000000000000000000008152600401611822906126be565b60405180910390fd5b82600960008681526020019081526020016000208190555050505050565b60115481565b801561192157600260009054906101000a900473ffffffffffffffffffffffffffffffffffffffff1673ffffffffffffffffffffffffffffffffffffffff166323b872dd33600560009054906101000a900473ffffffffffffffffffffffffffffffffffffffff16600e546040518463ffffffff1660e01b81526004016118d8939291906121c9565b6020604051808303816000875af11580156118f7573d6000803e3d6000fd5b505050506040513d601f19601f8201168201806040525081019061191b9190612645565b506119e9565b600360009054906101000a900473ffffffffffffffffffffffffffffffffffffffff1673ffffffffffffffffffffffffffffffffffffffff166323b872dd33600660009054906101000a900473ffffffffffffffffffffffffffffffffffffffff16600f546040518463ffffffff1660e01b81526004016119a4939291906121c9565b6020604051808303816000875af11580156119c3573d6000803e3d6000fd5b505050506040513d601f19601f820116820180604052508101906119e79190612645565b505b6001600d60003373ffffffffffffffffffffffffffffffffffffffff1673ffffffffffffffffffffffffffffffffffffffff16815260200190815260200160002060006101000a81548160ff02191690831515021790555050565b600f5481565b6000819050919050565b611a5d81611a4a565b82525050565b6000602082019050611a786000830184611a54565b92915050565b6000604051905090565b600080fd5b600080fd5b611a9b81611a4a565b8114611aa657600080fd5b50565b600081359050611ab881611a92565b92915050565b600060208284031215611ad457611ad3611a88565b5b6000611ae284828501611aa9565b91505092915050565b600073ffffffffffffffffffffffffffffffffffffffff82169050919050565b6000611b1682611aeb565b9050919050565b611b2681611b0b565b8114611b3157600080fd5b50565b600081359050611b4381611b1d565b92915050565b600080fd5b600080fd5b600080fd5b60008083601f840112611b6e57611b6d611b49565b5b8235905067ffffffffffffffff811115611b8b57611b8a611b4e565b5b602083019150836001820283011115611ba757611ba6611b53565b5b9250929050565b600080600080600060808688031215611bca57611bc9611a88565b5b6000611bd888828901611b34565b9550506020611be988828901611b34565b9450506040611bfa88828901611aa9565b935050606086013567ffffffffffffffff811115611c1b57611c1a611a8d565b5b611c2788828901611b58565b92509250509295509295909350565b60007fffffffff0000000000000000000000000000000000000000000000000000000082169050919050565b611c6b81611c36565b82525050565b6000602082019050611c866000830184611c62565b92915050565b600060208284031215611ca257611ca1611a88565b5b6000611cb084828501611b34565b91505092915050565b611cc281611a4a565b82525050565b606082016000820151611cde6000850182611cb9565b506020820151611cf16020850182611cb9565b506040820151611d046040850182611cb9565b50505050565b6000608082019050611d1f6000830185611a54565b611d2c6020830184611cc8565b9392505050565b6000611d3e82611aeb565b9050919050565b611d4e81611d33565b8114611d5957600080fd5b50565b600081359050611d6b81611d45565b92915050565b600060208284031215611d8757611d86611a88565b5b6000611d9584828501611d5c565b91505092915050565b611da781611b0b565b82525050565b6000602082019050611dc26000830184611d9e565b92915050565b6000819050919050565b6000611ded611de8611de384611aeb565b611dc8565b611aeb565b9050919050565b6000611dff82611dd2565b9050919050565b6000611e1182611df4565b9050919050565b611e2181611e06565b82525050565b6000602082019050611e3c6000830184611e18565b92915050565b6000611e4d82611b0b565b9050919050565b611e5d81611e42565b8114611e6857600080fd5b50565b600081359050611e7a81611e54565b92915050565b600060208284031215611e9657611e95611a88565b5b6000611ea484828501611e6b565b91505092915050565b6000611eb882611df4565b9050919050565b611ec881611ead565b82525050565b6000602082019050611ee36000830184611ebf565b92915050565b60008115159050919050565b611efe81611ee9565b82525050565b6000602082019050611f196000830184611ef5565b92915050565b60008060408385031215611f3657611f35611a88565b5b6000611f4485828601611aa9565b9250506020611f5585828601611aa9565b9150509250929050565b6000611f6a82611df4565b9050919050565b611f7a81611f5f565b82525050565b6000602082019050611f956000830184611f71565b92915050565b611fa481611ee9565b8114611faf57600080fd5b50565b600081359050611fc181611f9b565b92915050565b600060208284031215611fdd57611fdc611a88565b5b6000611feb84828501611fb2565b91505092915050565b7f4e487b7100000000000000000000000000000000000000000000000000000000600052601160045260246000fd5b600061202e82611a4a565b915061203983611a4a565b92508282101561204c5761204b611ff4565b5b828203905092915050565b7f4e487b7100000000000000000000000000000000000000000000000000000000600052601260045260246000fd5b600061209182611a4a565b915061209c83611a4a565b9250826120ac576120ab612057565b5b828204905092915050565b600082825260208201905092915050565b7f6e6f7420617574686f72697a6564000000000000000000000000000000000000600082015250565b60006120fe600e836120b7565b9150612109826120c8565b602082019050919050565b6000602082019050818103600083015261212d816120f1565b9050919050565b7f6472696c6c206e6f74207374616b656420666f72207468697320757365720000600082015250565b600061216a601e836120b7565b915061217582612134565b602082019050919050565b600060208201905081810360008301526121998161215d565b9050919050565b60006040820190506121b56000830185611d9e565b6121c26020830184611a54565b9392505050565b60006060820190506121de6000830186611d9e565b6121eb6020830185611d9e565b6121f86040830184611a54565b949350505050565b60008151905061220f81611a92565b92915050565b60006020828403121561222b5761222a611a88565b5b600061223984828501612200565b91505092915050565b600061224d82611a4a565b915061225883611a4a565b9250817fffffffffffffffffffffffffffffffffffffffffffffffffffffffffffffffff048311821515161561229157612290611ff4565b5b828202905092915050565b7f6472696c6c20616c7265616479207374616b6564000000000000000000000000600082015250565b60006122d26014836120b7565b91506122dd8261229c565b602082019050919050565b60006020820190508181036000830152612301816122c5565b9050919050565b7f4f6265726f6e206e6f7420756e6c6f636b656420666f72207573657200000000600082015250565b600061233e601c836120b7565b915061234982612308565b602082019050919050565b6000602082019050818103600083015261236d81612331565b9050919050565b600080fd5b6000601f19601f8301169050919050565b7f4e487b7100000000000000000000000000000000000000000000000000000000600052604160045260246000fd5b6123c282612379565b810181811067ffffffffffffffff821117156123e1576123e061238a565b5b80604052505050565b60006123f4611a7e565b905061240082826123b9565b919050565b60006060828403121561241b5761241a612374565b5b61242560606123ea565b9050600061243584828501612200565b600083015250602061244984828501612200565b602083015250604061245d84828501612200565b60408301525092915050565b60006060828403121561247f5761247e611a88565b5b600061248d84828501612405565b91505092915050565b7f696e636f7272656374206472696c6c2074797065000000000000000000000000600082015250565b60006124cc6014836120b7565b91506124d782612496565b602082019050919050565b600060208201905081810360008301526124fb816124bf565b9050919050565b7f6c6576656c2067726561746572207468616e206d6178206c6576656c00000000600082015250565b6000612538601c836120b7565b915061254382612502565b602082019050919050565b600060208201905081810360008301526125678161252b565b9050919050565b7f6c6576656c206174206d61780000000000000000000000000000000000000000600082015250565b60006125a4600c836120b7565b91506125af8261256e565b602082019050919050565b600060208201905081810360008301526125d381612597565b9050919050565b60006125e582611a4a565b91506125f083611a4a565b9250827fffffffffffffffffffffffffffffffffffffffffffffffffffffffffffffffff0382111561262557612624611ff4565b5b828201905092915050565b60008151905061263f81611f9b565b92915050565b60006020828403121561265b5761265a611a88565b5b600061266984828501612630565b91505092915050565b7f6c6576656c206e6f74206c657373207468616e206d6178206c6576656c000000600082015250565b60006126a8601d836120b7565b91506126b382612672565b602082019050919050565b600060208201905081810360008301526126d78161269b565b905091905056fea2646970667358221220eec58c09772b965f944271c7d814b4a82522251ee7260a718770f54b8005855f64736f6c634300080b0033",
  "immutableReferences": {},
  "source": "// SPDX-License-Identifier: MIT\n\npragma solidity ^0.8.0;\n\nimport \"./MineEmpireDrill.sol\";\nimport \"./Cobalt.sol\";\nimport \"@openzeppelin/contracts/token/ERC721/IERC721Receiver.sol\";\nimport \"@openzeppelin/contracts/token/ERC20/ERC20.sol\";\n\ncontract Oberon {\n    MineEmpireDrill public mineEmpireDrill;\n    Cobalt public cobalt;\n    ERC20 public cosmicCash;\n    ERC20 public energy;\n    address public owner;\n    address treasury;\n    address DEAD = 0x000000000000000000000000000000000000dEaD;\n    struct Stake {\n        uint timestamp;\n        MineEmpireDrill.Drill drill;\n    }\n\n    uint maxLevel;\n    mapping(uint => uint) public capacityAtLevel;\n    mapping(uint => uint) public upgradeRequirementAtLevel;\n    mapping(address => uint) public userLevel;\n    mapping(address => Stake) public stakes;\n    mapping(uint => uint) public productionRate;\n    mapping(address => bool) public unlocked;\n    uint public CSC_UNLOCK_PRICE = 25e18;\n    uint public ENERGY_UNLOCK_PRICE = 250e18;\n    uint public SECONDS_IN_PERIOD = 2592000;\n    uint public GENESIS_TIME;\n\n    constructor(Cobalt _cobalt, ERC20 _cosmicCash, MineEmpireDrill _drill) {\n        owner = msg.sender;\n        GENESIS_TIME = block.timestamp;\n        cobalt = _cobalt;\n        cosmicCash = _cosmicCash;\n        mineEmpireDrill = _drill;\n        maxLevel = 9;\n        capacityAtLevel[0] = 2505e18;\n        capacityAtLevel[1] = 3131e18;\n        capacityAtLevel[2] = 3914e18;\n        capacityAtLevel[3] = 4893e18;\n        capacityAtLevel[4] = 6850e18;\n        capacityAtLevel[5] = 9589e18;\n        capacityAtLevel[6] = 13425e18;\n        capacityAtLevel[7] = 18795e18;\n        capacityAtLevel[8] = 26313e18;\n        capacityAtLevel[9] = 36183e18;\n        upgradeRequirementAtLevel[1] = 25e18;\n        upgradeRequirementAtLevel[2] = 25e18;\n        upgradeRequirementAtLevel[3] = 25e18;\n        upgradeRequirementAtLevel[4] = 40e18;\n        upgradeRequirementAtLevel[5] = 40e18;\n        upgradeRequirementAtLevel[6] = 75e18;\n        upgradeRequirementAtLevel[7] = 75e18;\n        upgradeRequirementAtLevel[8] = 120e18;\n        upgradeRequirementAtLevel[9] = 150e18;\n        productionRate[0] = 966e13;\n        productionRate[1] = 821e13;\n        productionRate[2] = 706e13;\n        productionRate[3] = 615e13;\n        productionRate[4] = 541e13;\n        productionRate[5] = 481e13;\n        productionRate[6] = 433e13;\n        productionRate[7] = 394e13;\n        productionRate[8] = 363e13;\n        productionRate[9] = 337e13;\n        productionRate[10] = 317e13;\n        productionRate[11] = 301e13;\n    }\n\n    function onERC721Received(\n        address operator,\n        address from,\n        uint256 id,\n        bytes calldata data\n    ) external pure returns (bytes4) {\n        return bytes4(keccak256(\"onERC721Received(address,address,uint256,bytes)\"));\n    }\n\n    // EVENTS\n    event CapacityUpgraded(address userAddress, uint userLevel);\n\n    // MODIFIERS\n    modifier onlyOwner(address _address) {\n        require(_address == owner, \"not authorized\");\n        _;\n    }\n\n    modifier drillStaked(address _address) {\n        require(stakes[_address].timestamp > 0, \"drill not staked for this user\");\n        _;\n    }\n\n    modifier drillNotStaked(address _address) {\n        require(stakes[_address].timestamp == 0, \"drill already staked\");\n        _;\n    }\n\n    modifier levelExists(uint _level) {\n        require(_level <= maxLevel, \"level greater than max level\");\n        _;\n    }\n\n    modifier userUnlocked(address _user) {\n        require(unlocked[_user] == true, \"Oberon not unlocked for user\");\n        _;\n    }\n\n    // ONLY OWNER\n    \n    // update treasury\n    function updateTreasury(address payable _address) public onlyOwner(msg.sender) {\n        treasury = _address;\n    }\n\n    // update max level\n    function updateMaxLevel(uint _level) public onlyOwner(msg.sender) {\n        maxLevel = _level;\n    }\n\n    // update capacity at level\n    function updateCapacityAtLevel(uint _level, uint _capacity) public onlyOwner(msg.sender) levelExists(_level) {\n        capacityAtLevel[_level] = _capacity;\n    }\n\n    // update upgrade requirement\n    function updateUpgradeRequirementAtLevel(uint _level, uint _price) public onlyOwner(msg.sender) levelExists(_level){\n        require(_level <= maxLevel, \"level not less than max level\");\n        upgradeRequirementAtLevel[_level] = _price;\n    }\n\n    function updateEnergy(ERC20 _energy) public onlyOwner(msg.sender) {\n        energy = _energy;\n    }\n\n    // GETTERS\n\n    function getCurrentPeriod() public view returns(uint) {\n        uint period = (block.timestamp - GENESIS_TIME) / SECONDS_IN_PERIOD;\n        if (period > 11) {\n            period = 11;\n        }\n        return period;\n    }\n    \n    function getBaseProduction() public view returns(uint) {\n        uint period = getCurrentPeriod();\n        return productionRate[period];\n    }\n\n    function getAccumulatedCobalt(address _userAddress) public view drillStaked(_userAddress) returns(uint) {\n        Stake memory curStake = stakes[_userAddress];\n        uint time = block.timestamp - curStake.timestamp;\n        uint miningPower = mineEmpireDrill.getMiningPower(curStake.drill.drillId);\n        uint capacity = capacityAtLevel[userLevel[_userAddress]];\n        uint baseProduction = getBaseProduction();\n        uint amount = time * baseProduction / 100 * miningPower;\n        if (capacity < amount) {\n            amount = capacity;\n        }\n        return amount;\n    }\n\n    // USER INTERACTIONS\n\n    function unlock(bool useCSC) public {\n        if (useCSC) {\n            cosmicCash.transferFrom(msg.sender, treasury, CSC_UNLOCK_PRICE);\n        } else {\n            energy.transferFrom(msg.sender, DEAD, ENERGY_UNLOCK_PRICE);\n        }\n        unlocked[msg.sender] = true;\n    }\n\n    function stake(uint _drillId) public drillNotStaked(msg.sender) userUnlocked(msg.sender) {\n        MineEmpireDrill.Drill memory drill = mineEmpireDrill.getDrill(_drillId);\n        require(drill.drillType == 1, \"incorrect drill type\");\n        mineEmpireDrill.safeTransferFrom(msg.sender, address(this), _drillId);\n        stakes[msg.sender] = Stake(\n            block.timestamp,\n            drill);\n    }\n\n    function collectCobalt() public drillStaked(msg.sender) {\n        uint amount = getAccumulatedCobalt(msg.sender);\n        cobalt.mint(msg.sender, amount);\n        stakes[msg.sender].timestamp = block.timestamp;\n    }\n\n    function unstake() public drillStaked(msg.sender) {\n        uint amount = getAccumulatedCobalt(msg.sender);\n        cobalt.mint(msg.sender, amount);\n        mineEmpireDrill.safeTransferFrom(address(this), msg.sender, stakes[msg.sender].drill.drillId);\n        delete stakes[msg.sender];\n    }\n\n    function upgrade() public userUnlocked(msg.sender) {\n        uint curLevel = userLevel[msg.sender];\n        require(curLevel < maxLevel, \"level at max\");\n        uint upgradeAmt = upgradeRequirementAtLevel[curLevel + 1];\n        cosmicCash.transferFrom(msg.sender, treasury, upgradeAmt);\n        userLevel[msg.sender] = curLevel + 1;\n        emit CapacityUpgraded(msg.sender, userLevel[msg.sender]);\n        return;\n    }\n}",
  "sourcePath": "/Users/aslan/Desktop/MineEmpireBackend/contracts/Oberon.sol",
  "compiler": {
    "name": "solc",
    "version": "0.8.11+commit.d7f03943.Emscripten.clang"
  },
  "schemaVersion": "3.4.3",
  "updatedAt": "2022-07-17T12:21:41.033Z",
  "devdoc": {
    "kind": "dev",
    "methods": {},
    "version": 1
  },
  "userdoc": {
    "kind": "user",
    "methods": {},
    "version": 1
  }
}